{"contracts/ComputationMarket.sol":{"HandlerFunctionsCompMarket":{"abi":[{"inputs":[{"internalType":"address","name":"add","type":"address"}],"name":"defaultVerifierVoteCounts","outputs":[{"internalType":"uint256","name":"","type":"uint256"}],"stateMutability":"view","type":"function"}],"evm":{"bytecode":{"linkReferences":{},"object":"60808060405234601457608b908161001a8239f35b600080fdfe6080806040526004361015601257600080fd5b600090813560e01c63765a4a7a14602857600080fd5b3460515760203660031901126051576004356001600160a01b0381160360515780600160209252f35b5080fdfea26469706673582212206c29917100fa9085e84d68bd07d6bbb9f44a731663abb49bb655d04f2ad713d564736f6c63430008140033","opcodes":"PUSH1 0x80 DUP1 PUSH1 0x40 MSTORE CALLVALUE PUSH1 0x14 JUMPI PUSH1 0x8B SWAP1 DUP2 PUSH2 0x1A DUP3 CODECOPY RETURN JUMPDEST PUSH1 0x0 DUP1 REVERT INVALID PUSH1 0x80 DUP1 PUSH1 0x40 MSTORE PUSH1 0x4 CALLDATASIZE LT ISZERO PUSH1 0x12 JUMPI PUSH1 0x0 DUP1 REVERT JUMPDEST PUSH1 0x0 SWAP1 DUP2 CALLDATALOAD PUSH1 0xE0 SHR PUSH4 0x765A4A7A EQ PUSH1 0x28 JUMPI PUSH1 0x0 DUP1 REVERT JUMPDEST CALLVALUE PUSH1 0x51 JUMPI PUSH1 0x20 CALLDATASIZE PUSH1 0x3 NOT ADD SLT PUSH1 0x51 JUMPI PUSH1 0x4 CALLDATALOAD PUSH1 0x1 PUSH1 0x1 PUSH1 0xA0 SHL SUB DUP2 AND SUB PUSH1 0x51 JUMPI DUP1 PUSH1 0x1 PUSH1 0x20 SWAP3 MSTORE RETURN JUMPDEST POP DUP1 REVERT INVALID LOG2 PUSH5 0x6970667358 0x22 SLT KECCAK256 PUSH13 0x29917100FA9085E84D68BD07D6 0xBB 0xB9 DELEGATECALL 0x4A PUSH20 0x1663ABB49BB655D04F2AD713D564736F6C634300 ADDMOD EQ STOP CALLER "},"methodIdentifiers":{"defaultVerifierVoteCounts(address)":"765a4a7a"}}}}}