{"contracts/ComputationMarket.sol":{"ComputationMarket":{"abi":[{"inputs":[{"internalType":"address","name":"compTokenAddress","type":"address"}],"stateMutability":"nonpayable","type":"constructor"},{"anonymous":false,"inputs":[{"indexed":true,"internalType":"uint256","name":"requestId","type":"uint256"},{"indexed":false,"internalType":"address","name":"provider","type":"address"},{"indexed":false,"internalType":"uint256","name":"verificationPrice","type":"uint256"},{"indexed":false,"internalType":"uint256","name":"verificationDeadline","type":"uint256"},{"indexed":false,"internalType":"uint256","name":"timeAllocatedForVerification","type":"uint256"},{"indexed":false,"internalType":"uint256","name":"numVerifiers","type":"uint256"}],"name":"AlertVerifiers","type":"event"},{"anonymous":false,"inputs":[{"indexed":false,"internalType":"uint256","name":"indexedrequestId","type":"uint256"},{"indexed":true,"internalType":"uint256","name":"roundNum","type":"uint256"}],"name":"AllCommitmentsRevealed","type":"event"},{"anonymous":false,"inputs":[{"indexed":true,"internalType":"uint256","name":"requestId","type":"uint256"},{"indexed":false,"internalType":"uint256","name":"startTime","type":"uint256"},{"indexed":false,"internalType":"uint256","name":"endTime","type":"uint256"},{"indexed":false,"internalType":"uint256","name":"layerComputeIndex","type":"uint256"}],"name":"CommitmentPhaseStarted","type":"event"},{"anonymous":false,"inputs":[{"indexed":true,"internalType":"uint256","name":"requestId","type":"uint256"},{"indexed":true,"internalType":"address","name":"verifier","type":"address"}],"name":"CommitmentSubmitted","type":"event"},{"anonymous":false,"inputs":[{"indexed":true,"internalType":"uint256","name":"requestId","type":"uint256"},{"indexed":false,"internalType":"uint256","name":"layerComputeIndex","type":"uint256"}],"name":"NoMajorityForRound","type":"event"},{"anonymous":false,"inputs":[{"indexed":true,"internalType":"uint256","name":"requestId","type":"uint256"}],"name":"ProviderResultSuccessfullyVerified","type":"event"},{"anonymous":false,"inputs":[{"indexed":true,"internalType":"uint256","name":"requestId","type":"uint256"}],"name":"ProviderResultUnsuccessful","type":"event"},{"anonymous":false,"inputs":[{"indexed":true,"internalType":"uint256","name":"requestId","type":"uint256"},{"indexed":false,"internalType":"uint256","name":"privateKey","type":"uint256"},{"indexed":false,"internalType":"uint256","name":"initialisationVector","type":"uint256"},{"indexed":false,"internalType":"bytes32","name":"answerHash","type":"bytes32"}],"name":"ProviderRevealed","type":"event"},{"anonymous":false,"inputs":[{"indexed":true,"internalType":"uint256","name":"requestId","type":"uint256"},{"indexed":true,"internalType":"address","name":"provider","type":"address"}],"name":"ProviderSelected","type":"event"},{"anonymous":false,"inputs":[{"indexed":true,"internalType":"uint256","name":"requestId","type":"uint256"},{"indexed":true,"internalType":"address","name":"provider","type":"address"}],"name":"ProviderSlashed","type":"event"},{"anonymous":false,"inputs":[{"indexed":true,"internalType":"uint256","name":"requestId","type":"uint256"}],"name":"RequestCancelled","type":"event"},{"anonymous":false,"inputs":[{"indexed":true,"internalType":"uint256","name":"requestId","type":"uint256"},{"indexed":true,"internalType":"address","name":"provider","type":"address"}],"name":"RequestCompletedByProvider","type":"event"},{"anonymous":false,"inputs":[{"indexed":true,"internalType":"uint256","name":"requestId","type":"uint256"},{"indexed":true,"internalType":"address","name":"consumer","type":"address"}],"name":"RequestCreated","type":"event"},{"anonymous":false,"inputs":[{"indexed":false,"internalType":"uint256","name":"requestId","type":"uint256"},{"indexed":false,"internalType":"bytes32","name":"newHashComputed","type":"bytes32"},{"indexed":false,"internalType":"bytes32","name":"oldHashComputed","type":"bytes32"}],"name":"RevealCommitmentFailed","type":"event"},{"anonymous":false,"inputs":[{"indexed":true,"internalType":"uint256","name":"requestId","type":"uint256"},{"indexed":false,"internalType":"uint256","name":"endTime","type":"uint256"},{"indexed":true,"internalType":"address","name":"verifier","type":"address"}],"name":"RevealVerificationDetails","type":"event"},{"anonymous":false,"inputs":[{"indexed":true,"internalType":"uint256","name":"requestId","type":"uint256"}],"name":"RoundInitialised","type":"event"},{"anonymous":false,"inputs":[{"indexed":true,"internalType":"uint256","name":"requestId","type":"uint256"}],"name":"RoundRevealStarted","type":"event"},{"anonymous":false,"inputs":[{"indexed":true,"internalType":"uint256","name":"requestId","type":"uint256"},{"indexed":false,"internalType":"uint256","name":"layerComputeIndex","type":"uint256"}],"name":"RoundStartedForVerificationSelection","type":"event"},{"anonymous":false,"inputs":[{"indexed":true,"internalType":"uint256","name":"requestId","type":"uint256"},{"indexed":true,"internalType":"address","name":"verifier","type":"address"},{"indexed":true,"internalType":"uint256","name":"layerComputeIndex","type":"uint256"}],"name":"VerificationApplied","type":"event"},{"anonymous":false,"inputs":[{"indexed":true,"internalType":"uint256","name":"requestId","type":"uint256"},{"indexed":false,"internalType":"uint256","name":"layerComputeIndex","type":"uint256"}],"name":"VerificationSelectionStarted","type":"event"},{"anonymous":false,"inputs":[{"indexed":true,"internalType":"uint256","name":"requestId","type":"uint256"},{"indexed":true,"internalType":"address","name":"verifier","type":"address"},{"indexed":true,"internalType":"uint256","name":"layerComputeIndex","type":"uint256"},{"indexed":false,"internalType":"uint256","name":"verifierIndex","type":"uint256"}],"name":"VerifierChosen","type":"event"},{"anonymous":false,"inputs":[{"indexed":true,"internalType":"uint256","name":"requestId","type":"uint256"},{"indexed":true,"internalType":"address","name":"verifier","type":"address"},{"indexed":true,"internalType":"uint256","name":"layerComputeIndex","type":"uint256"},{"indexed":false,"internalType":"uint256","name":"verifierIndex","type":"uint256"}],"name":"VerifierUnchosen","type":"event"},{"anonymous":false,"inputs":[{"indexed":true,"internalType":"uint256","name":"requestId","type":"uint256"},{"indexed":true,"internalType":"address","name":"verifier","type":"address"},{"indexed":false,"internalType":"bool","name":"agree","type":"bool"}],"name":"VoteSubmitted","type":"event"},{"inputs":[{"internalType":"uint256","name":"","type":"uint256"}],"name":"NFTRequestID","outputs":[{"internalType":"uint256","name":"","type":"uint256"}],"stateMutability":"view","type":"function"},{"inputs":[{"internalType":"uint256","name":"requestId","type":"uint256"}],"name":"applyForVerificationForRequest","outputs":[],"stateMutability":"nonpayable","type":"function"},{"inputs":[{"internalType":"uint256","name":"requestId","type":"uint256"},{"internalType":"uint256","name":"roundNum","type":"uint256"}],"name":"calculateMajorityAndReward","outputs":[],"stateMutability":"nonpayable","type":"function"},{"inputs":[{"internalType":"uint256","name":"requestId","type":"uint256"}],"name":"cancelRequest","outputs":[],"stateMutability":"nonpayable","type":"function"},{"inputs":[{"internalType":"uint256","name":"requestId","type":"uint256"}],"name":"chooseVerifiersForRequestTrigger","outputs":[],"stateMutability":"nonpayable","type":"function"},{"inputs":[],"name":"compNFT","outputs":[{"internalType":"contract CompNFT","name":"","type":"address"}],"stateMutability":"view","type":"function"},{"inputs":[],"name":"compToken","outputs":[{"internalType":"contract IERC20","name":"","type":"address"}],"stateMutability":"view","type":"function"},{"inputs":[{"internalType":"uint256","name":"requestId","type":"uint256"},{"internalType":"string[]","name":"outputFileURLs","type":"string[]"}],"name":"completeRequest","outputs":[],"stateMutability":"nonpayable","type":"function"},{"inputs":[{"internalType":"uint256","name":"paymentForProvider","type":"uint256"},{"internalType":"uint256","name":"paymentPerRoundForVerifiers","type":"uint256"},{"internalType":"uint256","name":"numOperations","type":"uint256"},{"internalType":"uint256","name":"numVerifiers","type":"uint256"},{"internalType":"string[]","name":"inputFileURLs","type":"string[]"},{"internalType":"string","name":"operationFileURL","type":"string"},{"internalType":"uint256","name":"computationDeadline","type":"uint256"},{"internalType":"uint256","name":"verificationDeadline","type":"uint256"},{"internalType":"uint256","name":"timeAllocatedForVerification","type":"uint256"},{"internalType":"uint256","name":"numVerifiersSampleSize","type":"uint256"},{"internalType":"uint256","name":"protocolVersion","type":"uint256"},{"internalType":"uint256","name":"layerSize","type":"uint256"},{"internalType":"bytes32","name":"hashOfInputFiles","type":"bytes32"},{"internalType":"uint256","name":"stake","type":"uint256"}],"name":"createRequest","outputs":[],"stateMutability":"nonpayable","type":"function"},{"inputs":[{"internalType":"uint256","name":"paymentForProvider","type":"uint256"},{"internalType":"uint256","name":"paymentPerRoundForVerifiers","type":"uint256"},{"internalType":"uint256","name":"numOperations","type":"uint256"},{"internalType":"uint256","name":"numVerifiers","type":"uint256"},{"internalType":"string[]","name":"inputFileURLs","type":"string[]"},{"internalType":"string","name":"operationFileURL","type":"string"},{"internalType":"uint256","name":"computationDeadline","type":"uint256"},{"internalType":"uint256","name":"verificationDeadline","type":"uint256"},{"internalType":"uint256","name":"timeAllocatedForVerification","type":"uint256"},{"internalType":"uint256","name":"numVerifiersSampleSize","type":"uint256"},{"internalType":"uint256","name":"protocolVersion","type":"uint256"},{"internalType":"uint256","name":"layerSize","type":"uint256"},{"internalType":"bytes32","name":"hashOfInputFiles","type":"bytes32"},{"internalType":"uint256","name":"stake","type":"uint256"},{"internalType":"function (address) view external returns (uint256)","name":"verifierVoteCount","type":"function"}],"name":"createRequestWithAllowedVerifiers","outputs":[],"stateMutability":"nonpayable","type":"function"},{"inputs":[{"internalType":"uint256","name":"requestId","type":"uint256"}],"name":"getRequestDetails","outputs":[{"components":[{"internalType":"address","name":"consumer","type":"address"},{"internalType":"uint256","name":"paymentForProvider","type":"uint256"},{"internalType":"uint256","name":"totalPaymentForVerifiers","type":"uint256"},{"internalType":"uint256","name":"numOperations","type":"uint256"},{"internalType":"uint256","name":"numVerifiers","type":"uint256"},{"internalType":"string[]","name":"inputFileURLs","type":"string[]"},{"internalType":"string","name":"operationFileURL","type":"string"},{"internalType":"string[]","name":"outputFileURLs","type":"string[]"},{"internalType":"uint256","name":"computationDeadline","type":"uint256"},{"internalType":"uint256","name":"verificationDeadline","type":"uint256"},{"internalType":"uint256","name":"totalPayment","type":"uint256"},{"internalType":"bool","name":"completed","type":"bool"},{"internalType":"bool","name":"hasBeenComputed","type":"bool"},{"internalType":"uint256","name":"numVerifiersSampleSize","type":"uint256"},{"internalType":"address[]","name":"verifiers","type":"address[]"},{"internalType":"address[]","name":"chosenVerifiers","type":"address[]"},{"internalType":"address","name":"mainProvider","type":"address"},{"internalType":"uint256","name":"timeAllocatedForVerification","type":"uint256"},{"internalType":"uint256","name":"layerCount","type":"uint256"},{"internalType":"uint256","name":"layerComputeIndex","type":"uint256"},{"internalType":"uint256","name":"roundIndex","type":"uint256"},{"internalType":"enum ComputationMarket.RequestStates","name":"state","type":"uint8"},{"internalType":"uint256","name":"stake","type":"uint256"},{"internalType":"uint256","name":"paymentPerRoundForVerifiers","type":"uint256"},{"internalType":"uint256","name":"totalPaidForVerification","type":"uint256"},{"internalType":"uint256","name":"protocolVersion","type":"uint256"},{"internalType":"uint256","name":"verifierSelectionCount","type":"uint256"},{"internalType":"uint256","name":"firstinitialisedTime","type":"uint256"},{"internalType":"uint256","name":"layerSize","type":"uint256"},{"internalType":"bytes32","name":"hashOfInputFiles","type":"bytes32"}],"internalType":"struct ComputationMarket.Request","name":"","type":"tuple"}],"stateMutability":"view","type":"function"},{"inputs":[{"internalType":"uint256","name":"requestId","type":"uint256"},{"internalType":"uint256","name":"roundIndex","type":"uint256"}],"name":"getRoundDetails","outputs":[{"components":[{"internalType":"uint256","name":"roundIndex","type":"uint256"},{"internalType":"uint256","name":"layerComputeIndex","type":"uint256"},{"internalType":"uint256","name":"verificationStartTime","type":"uint256"},{"internalType":"uint256","name":"commitEndTime","type":"uint256"},{"internalType":"uint256","name":"providerRevealEndTime","type":"uint256"},{"internalType":"uint256","name":"commitmentRevealEndTime","type":"uint256"},{"internalType":"bytes32","name":"majorityVoteHash","type":"bytes32"},{"internalType":"uint256","name":"majorityCount","type":"uint256"},{"internalType":"bytes32","name":"mainProviderAnswerHash","type":"bytes32"},{"internalType":"uint256","name":"commitsSubmitted","type":"uint256"},{"internalType":"uint256","name":"commitsRevealed","type":"uint256"},{"internalType":"uint256","name":"providerPrivateKey","type":"uint256"},{"internalType":"uint256","name":"providerInitialisationVector","type":"uint256"}],"internalType":"struct ComputationMarket.RoundDetailsOutput","name":"","type":"tuple"}],"stateMutability":"view","type":"function"},{"inputs":[{"internalType":"uint256","name":"requestId","type":"uint256"},{"internalType":"uint256","name":"roundNum","type":"uint256"},{"internalType":"address","name":"verifier","type":"address"}],"name":"getVerificationDetails","outputs":[{"components":[{"internalType":"address","name":"verifier","type":"address"},{"internalType":"bool","name":"agree","type":"bool"},{"internalType":"bytes32","name":"answer","type":"bytes32"},{"internalType":"bytes32","name":"nonce","type":"bytes32"},{"internalType":"bool","name":"revealed","type":"bool"},{"internalType":"bytes32","name":"computedHash","type":"bytes32"},{"internalType":"bytes32","name":"voteHash","type":"bytes32"},{"internalType":"bool","name":"verifierPaid","type":"bool"}],"internalType":"struct ComputationMarket.Verification","name":"","type":"tuple"}],"stateMutability":"view","type":"function"},{"inputs":[{"internalType":"uint256","name":"requestId","type":"uint256"},{"internalType":"uint256","name":"roundIndex","type":"uint256"}],"name":"getVerifiersAppliedForRound","outputs":[{"internalType":"bool","name":"","type":"bool"}],"stateMutability":"view","type":"function"},{"inputs":[{"internalType":"uint256","name":"requestId","type":"uint256"},{"internalType":"uint256","name":"roundIndex","type":"uint256"}],"name":"getVerifiersChosenForRound","outputs":[{"internalType":"bool","name":"","type":"bool"}],"stateMutability":"view","type":"function"},{"inputs":[{"internalType":"uint256","name":"requestId","type":"uint256"},{"internalType":"uint256","name":"roundIndex","type":"uint256"}],"name":"getVerifiersTriggeredForRound","outputs":[{"internalType":"bool","name":"","type":"bool"}],"stateMutability":"view","type":"function"},{"inputs":[{"internalType":"uint256","name":"requestId","type":"uint256"},{"internalType":"uint256","name":"roundIndex","type":"uint256"},{"internalType":"bytes32","name":"voteHash","type":"bytes32"}],"name":"getVoteCountForHashForRound","outputs":[{"internalType":"uint256","name":"","type":"uint256"}],"stateMutability":"view","type":"function"},{"inputs":[],"name":"handlerFunctions","outputs":[{"internalType":"contract HandlerFunctionsCompMarket","name":"","type":"address"}],"stateMutability":"view","type":"function"},{"inputs":[{"internalType":"address","name":"","type":"address"}],"name":"providerFailedRequestCount","outputs":[{"internalType":"uint256","name":"","type":"uint256"}],"stateMutability":"view","type":"function"},{"inputs":[{"internalType":"uint256","name":"requestId","type":"uint256"}],"name":"providerFailure","outputs":[],"stateMutability":"nonpayable","type":"function"},{"inputs":[{"internalType":"uint256","name":"","type":"uint256"}],"name":"providerNFTs","outputs":[{"internalType":"uint256","name":"compNFT_id","type":"uint256"},{"internalType":"uint256","name":"amountToPay","type":"uint256"},{"internalType":"uint256","name":"requestID","type":"uint256"},{"internalType":"address","name":"originalProvider","type":"address"},{"internalType":"bool","name":"hasBeenPaid","type":"bool"}],"stateMutability":"view","type":"function"},{"inputs":[{"internalType":"address","name":"","type":"address"}],"name":"providerPickedUpRequestCount","outputs":[{"internalType":"uint256","name":"","type":"uint256"}],"stateMutability":"view","type":"function"},{"inputs":[{"internalType":"uint256","name":"","type":"uint256"},{"internalType":"uint256","name":"","type":"uint256"}],"name":"providerPrivateKeys","outputs":[{"internalType":"bool","name":"","type":"bool"}],"stateMutability":"view","type":"function"},{"inputs":[{"internalType":"uint256","name":"requestId","type":"uint256"}],"name":"providerSuccessCall","outputs":[],"stateMutability":"nonpayable","type":"function"},{"inputs":[{"internalType":"address","name":"","type":"address"}],"name":"providerSuccessfulRequestCount","outputs":[{"internalType":"uint256","name":"","type":"uint256"}],"stateMutability":"view","type":"function"},{"inputs":[],"name":"requestCount","outputs":[{"internalType":"uint256","name":"","type":"uint256"}],"stateMutability":"view","type":"function"},{"inputs":[{"internalType":"uint256","name":"","type":"uint256"}],"name":"requests","outputs":[{"internalType":"address","name":"consumer","type":"address"},{"internalType":"uint256","name":"paymentForProvider","type":"uint256"},{"internalType":"uint256","name":"totalPaymentForVerifiers","type":"uint256"},{"internalType":"uint256","name":"numOperations","type":"uint256"},{"internalType":"uint256","name":"numVerifiers","type":"uint256"},{"internalType":"string","name":"operationFileURL","type":"string"},{"internalType":"uint256","name":"computationDeadline","type":"uint256"},{"internalType":"uint256","name":"verificationDeadline","type":"uint256"},{"internalType":"uint256","name":"totalPayment","type":"uint256"},{"internalType":"bool","name":"completed","type":"bool"},{"internalType":"bool","name":"hasBeenComputed","type":"bool"},{"internalType":"uint256","name":"numVerifiersSampleSize","type":"uint256"},{"internalType":"address","name":"mainProvider","type":"address"},{"internalType":"uint256","name":"timeAllocatedForVerification","type":"uint256"},{"internalType":"uint256","name":"layerCount","type":"uint256"},{"internalType":"uint256","name":"layerComputeIndex","type":"uint256"},{"internalType":"uint256","name":"roundIndex","type":"uint256"},{"internalType":"enum ComputationMarket.RequestStates","name":"state","type":"uint8"},{"internalType":"uint256","name":"stake","type":"uint256"},{"internalType":"uint256","name":"paymentPerRoundForVerifiers","type":"uint256"},{"internalType":"uint256","name":"totalPaidForVerification","type":"uint256"},{"internalType":"uint256","name":"protocolVersion","type":"uint256"},{"internalType":"uint256","name":"verifierSelectionCount","type":"uint256"},{"internalType":"uint256","name":"firstinitialisedTime","type":"uint256"},{"internalType":"uint256","name":"layerSize","type":"uint256"},{"internalType":"bytes32","name":"hashOfInputFiles","type":"bytes32"}],"stateMutability":"view","type":"function"},{"inputs":[{"internalType":"uint256","name":"requestId","type":"uint256"},{"internalType":"uint256","name":"roundNum","type":"uint256"}],"name":"returnStake","outputs":[],"stateMutability":"nonpayable","type":"function"},{"inputs":[{"internalType":"uint256","name":"requestId","type":"uint256"},{"internalType":"uint256","name":"roundNum","type":"uint256"}],"name":"returnStakeDueToTimeout","outputs":[],"stateMutability":"nonpayable","type":"function"},{"inputs":[{"internalType":"uint256","name":"requestId","type":"uint256"},{"internalType":"bool","name":"agree","type":"bool"},{"internalType":"bytes32","name":"answer","type":"bytes32"},{"internalType":"bytes32","name":"nonce","type":"bytes32"}],"name":"revealCommitment","outputs":[],"stateMutability":"nonpayable","type":"function"},{"inputs":[{"internalType":"uint256","name":"requestId","type":"uint256"},{"internalType":"uint256","name":"privateKey","type":"uint256"},{"internalType":"uint256","name":"initialisationVector","type":"uint256"},{"internalType":"bytes32","name":"answerHash","type":"bytes32"}],"name":"revealProviderKeyAndHash","outputs":[],"stateMutability":"nonpayable","type":"function"},{"inputs":[{"internalType":"uint256","name":"","type":"uint256"},{"internalType":"uint256","name":"","type":"uint256"}],"name":"roundDetails","outputs":[{"internalType":"uint256","name":"roundIndex","type":"uint256"},{"internalType":"uint256","name":"layerComputeIndex","type":"uint256"},{"internalType":"uint256","name":"verificationStartTime","type":"uint256"},{"internalType":"uint256","name":"commitEndTime","type":"uint256"},{"internalType":"uint256","name":"providerRevealEndTime","type":"uint256"},{"internalType":"uint256","name":"commitmentRevealEndTime","type":"uint256"},{"internalType":"bytes32","name":"majorityVoteHash","type":"bytes32"},{"internalType":"uint256","name":"majorityCount","type":"uint256"},{"internalType":"bytes32","name":"mainProviderAnswerHash","type":"bytes32"},{"internalType":"uint256","name":"commitsSubmitted","type":"uint256"},{"internalType":"uint256","name":"commitsRevealed","type":"uint256"},{"internalType":"uint256","name":"providerPrivateKey","type":"uint256"},{"internalType":"uint256","name":"providerInitialisationVector","type":"uint256"}],"stateMutability":"view","type":"function"},{"inputs":[{"internalType":"uint256","name":"requestId","type":"uint256"}],"name":"selectRequest","outputs":[],"stateMutability":"nonpayable","type":"function"},{"inputs":[{"internalType":"uint256","name":"requestId","type":"uint256"},{"internalType":"bytes32","name":"computedHash","type":"bytes32"}],"name":"submitCommitment","outputs":[],"stateMutability":"nonpayable","type":"function"},{"inputs":[{"internalType":"uint256","name":"requestId","type":"uint256"},{"internalType":"uint256","name":"roundNum","type":"uint256"}],"name":"verificationDeadlinePassedForVeryfying","outputs":[],"stateMutability":"nonpayable","type":"function"}],"evm":{"bytecode":{"linkReferences":{},"object":"6080346200017057601f6200779038819003918201601f19168301926001600160401b0392909183851183861017620001755781602092849260409788528339810103126200017057516001600160a01b039081811690819003620001705780156200012c5760018060a01b0319926000918483541617825584516112c880820190828210848311176200011857908291620064238339039083f080156200010e57831684600154161760015584519060a58083019183831090831117620000fa57908291620076eb8339039082f0908115620000ef5750169060025416176002555161629790816200018c8239f35b8451903d90823e3d90fd5b634e487b7160e01b84526041600452602484fd5b85513d84823e3d90fd5b634e487b7160e01b85526041600452602485fd5b835162461bcd60e51b815260206004820152601560248201527f496e76616c696420746f6b656e206164647265737300000000000000000000006044820152606490fd5b600080fd5b634e487b7160e01b600052604160045260246000fdfe61024080604052600436101561001457600080fd5b60003560e01c908163033d926d14615519575080630625f161146151cd5780630a39bf2c1461518657806313f08bbf1461514e578063175f4c0c14615107578063253bd3e914614df557806328dde62e14614dc95780632d37463d14614da05780633015394c14614d845780633295845c14614d6857806338488abc14614c285780634beda22114614a135780635badbe4c146149f55780636605dfa7146149cc5780636d8f9a0e1461440d57806381d12c58146141d8578063847ada5714613aac5780638ea49eca146139f0578063951c5ce21461325b578063958a1a4b14613232578063975026af146131eb578063a2bc069f146131b1578063b10ceb5914612f7f578063ba0ff7c3146124fe578063bfdb345114611f93578063d42c671214611f31578063ddf3532c14611d8a578063e007657e14610fe9578063e03ad0d114610c88578063e2e7cbe6146109df578063e63d60cb146109a5578063e6a3d9dc14610799578063e7b6c4ec14610751578063e819ff28146106125763f34d4c63146101a157600080fd5b3461060d57602036600319011261060d5760006103a06040516101c38161559d565b828152826020820152826040820152826060820152826080820152606060a0820152606060c0820152606060e08201528261010082015282610120820152826101408201528261016082015282610180820152826101a082015260606101c082015260606101e08201528261020082015282610220820152826102408201528261026082015282610280820152826102a0820152826102c0820152826102e08201528261030082015282610320820152826103408201528261036082015282610380820152015260043560005260046020526040600020604051906102a78261559d565b80546001600160a01b03168252600181015460208301526002810154604083015260038101546060830152600481015460808301526102e860058201615966565b60a08301526102f96006820161574d565b60c083015261030a60078201615966565b60e083015260088101546101008301526009810154610120830152600a81015461014083015260ff600b820154818116151561016085015260081c161515610180830152600c8101546101a0830152610365600d82016159bb565b6101c0830152610377600e82016159bb565b6101e0830152600f8101546001600160a01b03166102008301526010810154610220830152601181015461024083015260128101546102608301526013810154610280830152601481015460ff169060098210156105f757601c916102a084015260158101546102c084015260168101546102e0840152601781015461030084015260188101546103208401526019810154610340840152601a810154610360840152601b81015461038084015201546103a082015260405180916020825260018060a01b038151166020830152602081015160408301526040810151606083015260608101516080830152608081015160a08301526103a06105406105286104c46104ad61049760a08701516103c060c08a01526103e0890190615840565b60c0870151888203601f190160e08a01526157f3565b60e0860151878203601f1901610100890152615840565b610100850151610120870152610120850151610140870152610140850151610160870152610160850151151561018087015261018085015115156101a08701526101a08501516101c08701526101c0850151601f19878303016101e088015261589c565b6101e0840151858203601f190161020087015261589c565b9160018060a01b03610200820151166102208501526102208101516102408501526102408101516102608501526102608101516102808501526102808101516102a08501526105996102a08201516102c0860190615833565b6102c08101516102e08501526102e08101516103008501526103008101516103208501526103208101516103408501526103408101516103608501526103608101516103808501526103808101518285015201516103c08301520390f35b634e487b7160e01b600052602160045260246000fd5b600080fd5b3461060d57606036600319011261060d576001600160a01b036044358181169081900361060d57610100916040519161064a83615581565b60008352600060e060209482868201528260408201528260608201528260808201528260a08201528260c08201520152600435600052600683526040600020602435600052835260406000209060005282526040600020604051916106ae83615581565b81549081169384845260ff8185019260a01c16151582526001830154604085019081526002840154906060860191825260ff6003860154169260808701931515845260048601549460a0880195865260e060ff600660058a01549960c08c019a8b52015416980197151588526040519889525115159088015251604087015251606086015251151560808501525160a08401525160c083015251151560e0820152f35b3461060d57606036600319011261060d576004356000526005602052604060002060243560005260205260406000206044356000526020526020604060002054604051908152f35b3461060d57604036600319011261060d5760043580600052602060048152604060002060068252604060002091601382019081549384600052815260406000203360005281526040600020601484019460ff86541660098110156105f757600303610954578660005260058352604060002081600052835260076040600020015442116109165786600052600583526040600020816000528352600360406000200133600052835261085260ff60406000205416616014565b86600052600583526040600020906000528252600160406000200133600052825261088460ff60406000205416615fd2565b60046024359101558460005260058152604060002082546000528152600d6040600020016108b28154615957565b905584600052600581526040600020915460005252600c600d6040600020015491015414610905575b5033907f22d30f6da93667100b64d15e5ea70afec217caeab1008706f57bfa4deed12c63600080a3005b805460ff19166004179055816108db565b60405162461bcd60e51b815260048101849052601660248201527510dbdb5b5a5d1b595b9d081c1a185cd948195b99195960521b6044820152606490fd5b60405162461bcd60e51b815260048101849052602360248201527f52657175657374206e6f742079657420696e20636f6d6d69746d656e7420737460448201526261746560e81b6064820152608490fd5b3461060d57602036600319011261060d576001600160a01b036109c661554f565b16600052600a6020526020604060002054604051908152f35b3461060d576109ed366156fd565b81600052602091600483526040600020600584526040600020836000528452600260406000200133600052845260ff6040600020541615610c33576009810154601082015480600302906003820403610c1d57610a4a90426158d9565b1115610bb25760ff60148201541660098110156105f757600203610b595783610adb60009284845260068352604084208685528352604084203385528352610a9c60ff60066040872001541615615f92565b83546016919091015460405163a9059cbb60e01b815233600482015260248101919091529384926001600160a01b039092169183919082906044820190565b03925af18015610b4d57610b20575b5060005260068252604060002090600052815260406000209033600052526006604060002001600160ff19825416179055600080f35b610b3f90843d8611610b46575b610b3781836155ef565b810190615910565b5083610aea565b503d610b2d565b6040513d6000823e3d90fd5b60405162461bcd60e51b815260048101859052602b60248201527f52657175657374204d75737420626520696e2063686f6f73696e67207665726960448201526a666965727320737461746560a81b6064820152608490fd5b60405162461bcd60e51b815260048101859052603f60248201527f5374696c6c20656e6f7567682074696d6520746f20706572666f726d20726f7560448201527f6e64206265666f726520766572696669636174696f6e20646561646c696e65006064820152608490fd5b634e487b7160e01b600052601160045260246000fd5b60405162461bcd60e51b815260048101859052602760248201527f596f7520617265206e6f742074686520766572696669657220666f72207468696044820152661cc81c9bdd5b9960ca1b6064820152608490fd5b3461060d5760208060031936011261060d57600435908160005260048152604060002090610cbc6008830154421115615c75565b600f820180546001600160a01b0393908416610fa4576015810154600054604051636eb1769f60e11b81523360048201523060248201529192919086168582604481845afa918215610b4d57600092610f75575b506040516370a0823160e01b8152336004820152918683602481855afa908115610b4d578793600092610f41575b5094610d5e81610d8e9493610d578260009a1015615cc1565b1015615cc1565b6040516323b872dd60e01b8152336004820152306024820152604481019190915294859283919082906064820190565b03925af1918215610b4d57600092610dad918491610f24575b50615cc1565b6001600160601b0360a01b92338482541617905560148101600160ff198254161790558385600154166024604051809581936335313c2160e11b83523360048401525af1918215610b4d57600092610ef4575b5060010154906040519260a08401958487106001600160401b03881117610ede576003610e9495600c98604052848152878101958652604081018a8152606082019633885260808301966000885260005260088a52604060002092518355516001830155516002820155019351169083541617825551151581549060ff60a01b90151560a01b169060ff60a01b1916179055565b600981528260406000205533600052526040600020610eb38154615957565b905533907f3c84569ae9be7c8e6e8edf0c0cbeb7e00cf9cb4d9b67849728be8ab96e09bec1600080a3005b634e487b7160e01b600052604160045260246000fd5b9091508381813d8311610f1d575b610f0c81836155ef565b8101031261060d5751906001610e00565b503d610f02565b610f3b9150863d8811610b4657610b3781836155ef565b88610da7565b809392508491943d8311610f6e575b610f5a81836155ef565b8101031261060d5790518692610d5e610d3e565b503d610f50565b9091508581813d8311610f9d575b610f8d81836155ef565b8101031261060d57519088610d10565b503d610f83565b60405162461bcd60e51b815260048101849052601960248201527f50726f766964657220616c72656164792073656c6563746564000000000000006044820152606490fd5b3461060d576101c036600319011261060d576084356001600160401b03811161060d5761101a90369060040161567d565b60a4356001600160401b03811161060d57611039903690600401615627565b6002549161104c610164356044356158d9565b6000198101908111610c1d576110669061016435906158f3565b9161107f8361107a610124356024356158fd565b6158fd565b9361108c856004356158d9565b600054604051636eb1769f60e11b81523360048201523060248201529192916001600160a01b0390911690602081604481855afa908115610b4d57600091611d58575b506040516370a0823160e01b8152336004820152602081602481865afa918215610b4d578591600093611d21575b5010611cc0578311611c61576040516323b872dd60e01b81523360048201523060248201526044810184905290602090829060649082906000905af1908115610b4d57600091611c42575b5015611c0c574260c4351115611ba15761010435600361010435020460031461010435151715610c1d5761118d61118560036101043502876158fd565b60c4356158d9565b60e4351115611b26576101243560643510611a9557600354600052600d60205263765a4a7a604060002091640100000000600160c01b039060201b166001600160401b0360c01b835416171790556040516111e7816155d4565b60008152604051926111f8846155d4565b6000845260405194611209866155d4565b600086526040519761121a8961559d565b33895260043560208a015260408901526044356060890152606435608089015260a088015260c087015260e086015260c43561010086015260e43561012086015261014085015260006101608501526000610180850152610124356101a08501526101c08401526101e08301526000610200830152610104356102208301526102408201526000610260820152600061028082015260006102a08201526101a4356102c08201526024356102e08201526000610300820152610144356103208201526000610340820152600061036082015261016435610380820152610184356103a08201526003546000526004602052604060002060018060a01b038251166001600160601b0360a01b8254161781556020820151600182015560408201516002820155606082015160038201556080820151600482015560a0820151805190600160401b8211610ede576005830154826005850155808310611a1c575b5060200190600583016000526020600020916000905b8282106118fe57858560c08201519182516001600160401b038111610ede576113bb6006840154615713565b601f81116118c9575b506020601f821160011461185b5781929394600092611850575b50508160011b916000199060031b1c19161760068301555b60e0810151805190600160401b8211610ede5760078401548260078601558083106117d8575b5060200190600784016000526020600020916000905b8282106116b857858561010081015160088301556101208101516009830155610140810151600a83015561149c600b83016114806101608401511515829060ff801983541691151516179055565b610180830151815461ff00191690151560081b61ff0016179055565b6101a0810151600c8301556101c08101518051906001600160401b038211610ede57600160401b8211610ede57602090600d85015483600d870155808410611698575b5001600d8401600052602060002060005b83811061167b5785856101e08101518051906001600160401b038211610ede57600160401b8211610ede576020600e850191825484845580851061165e575b500190600052602060002060005b838110611641578585600f820160018060a01b03610200830151166001600160601b0360a01b82541617905561022081015160108301556102408101516011830155610260810151601283015561028081015160138301556102a081015160098110156105f757601c916115b76103a0926014860161593f565b6102c081015160158501556102e08101516016850155610300810151601785015561032081015160188501556103408101516019850155610360810151601a850155610380810151601b8501550151910155611614600354615957565b8060035533907f233bb55fd57b21b8a3d15c9ad8fbbab435fe4cf2865cc654f6a57d9d4d8cda54600080a3005b82516001600160a01b03168183015560209092019160010161153d565b611675908460005285846000209182019101615928565b8661152f565b82516001600160a01b0316818301556020909201916001016114f0565b6116b290600d870160005284846000209182019101615928565b856114df565b80518051906001600160401b038211610ede576116d58654615713565b601f811161179b575b50602090601f831160011461172b579282600194936020938695600092611720575b5050600019600383901b1c191690841b1787555b01940191019092611432565b015190508b80611700565b908660005260206000209160005b601f1985168110611783575083602093600196938796938794601f1981161061176a575b505050811b018755611714565b015160001960f88460031b161c191690558b808061175d565b91926020600181928685015181550194019201611739565b6117c890876000526020600020601f850160051c810191602086106117ce575b601f0160051c0190615928565b886116de565b90915081906117bb565b600785016000526020600020908382015b81830181106117f957505061141c565b8061180660019254615713565b80611813575b50016117e9565b601f811183146118295750600081555b8861180c565b600090828252611847601f60208420920160051c8201858301615928565b81835555611823565b0151905084806113de565b6006840160005260206000209060005b601f19841681106118b15750600193949583601f19811610611898575b505050811b0160068301556113f6565b015160001960f88460031b161c19169055848080611888565b9091602060018192858a01518155019301910161186b565b6118f890600685016000526020600020601f840160051c810191602085106117ce57601f0160051c0190615928565b846113c4565b80518051906001600160401b038211610ede5761191b8654615713565b90601f918281116119e2575b506020918311600114611972579282600194936020938695600092611967575b5050600019600383901b1c191690841b1787555b0194019101909261138f565b015190508b80611947565b908660005260206000209160005b601f19851681106119ca575083602093600196938796938794601f198116106119b1575b505050811b01875561195b565b015160001960f88460031b161c191690558b80806119a4565b91926020600181928685015181550194019201611980565b611a0d908860005260206000208480870160051c82019260208810611a13575b0160051c0190615928565b89611927565b92508192611a02565b600584016000526020600020908382015b8183018110611a3d575050611379565b80611a4a60019254615713565b80611a57575b5001611a2d565b601f908181118414611a70575050600081555b88611a50565b611a8c60009284845260208420920160051c8201858301615928565b81835555611a6a565b60405162461bcd60e51b815260206004820152605d60248201527f4e6f7420656e6f7567682076657269666965727320746f2063686f6f7365206660448201527f726f6d2e206e756d566572696669657273206d7573742062652067726561746560648201527f72207468616e206e756d56657269666965727353616d706c6553697a65000000608482015260a490fd5b60405162461bcd60e51b815260206004820152604760248201527f566572696669636174696f6e20646561646c696e65206d75737420626520737560448201527f6666696369656e7420656e6f75676820666f7220616c6c20726f756e64732072606482015266195c5d5a5c995960ca1b608482015260a490fd5b60405162461bcd60e51b815260206004820152603c60248201527f436f6d7075746174696f6e616c20646561646c696e65206d757374206265206760448201527f726561746572207468616e207468652063757272656e742074696d65000000006064820152608490fd5b60405162461bcd60e51b815260206004820152600e60248201526d14185e5b595b9d0819985a5b195960921b6044820152606490fd5b611c5b915060203d602011610b4657610b3781836155ef565b87611148565b60405162461bcd60e51b815260206004820152603160248201527f496e73756666696369656e742062616c616e636520617661696c61626c6520746044820152701bc818dbdb991d58dd081c995c5d595cdd607a1b6064820152608490fd5b60405162461bcd60e51b815260206004820152603360248201527f496e73756666696369656e7420616c6c6f77616e636520617661696c61626c65604482015272081d1bc818dbdb991d58dd081c995c5d595cdd606a1b6064820152608490fd5b915091506020813d602011611d50575b81611d3e602093836155ef565b8101031261060d57849051918a6110fd565b3d9150611d31565b90506020813d602011611d82575b81611d73602093836155ef565b8101031261060d5751886110cf565b3d9150611d66565b3461060d57611d98366156fd565b906000610180604051611daa81615565565b8281528260208201528260408201528260608201528260808201528260a08201528260c08201528260e082015282610100820152826101208201528261014082015282610160820152015260005260056020526040600020906000526020526101a06040600020610180611e6a6004830154836005829501546006820154600783015460088401546009850154600a86015490600b87015492600c88015494600d89015496600e8a0154986010600f8c01549b01549b6040519d8e615565565b8d5260208d015260408c015260608b015260808a015260a089015260c088015260e0870152610100860152610120850152610140840152610160830152828201526040519283526020810151602084015260408101516040840152606081015160608401526080810151608084015260a081015160a084015260c081015160c084015260e081015160e08401526101008101516101008401526101208101516101208401526101408101516101408401526101608101516101608401520151610180820152f35b3461060d57602036600319011261060d57600435600052600860205260a0604060002060ff815491600181015490600360028201549101549160405194855260208501526040840152600180851b0381166060840152831c1615156080820152f35b3461060d57608036600319011261060d576024351515806024350361060d5760043560005260046020526040600020906005602052604060002060138301549081600052602052600860406000200154421180156124e4575b1561249f576004356000526005602052604060002081600052602052600960406000200154421161246557600435600052600560205260406000208160005260205260036040600020013360005260205260ff604060002054161561242057600435600052600560205260406000208160005260205260016040600020013360005260205261208260ff60406000205416615fd2565b600435600052600660205260406000209060005260205260406000203360005260205260406000209060ff6003830154166123db576040516020810190604435825260643560408201523360601b6060820152605481526120e2816155b9565b51902060048301540361239e5760405190604435602083015260f81b6040820152602181528060608101106001600160401b03606083011117610ede576060810160405280516020820120825460ff60a01b1916602435151560a01b60ff60a01b1617835591829060059060443560018201556064356002820155600160ff19600383015416176003820155336001600160601b0360a01b8254161781550155600435600052600560205260406000206013840154600052602052604060002090600435600052600d602052602060406000205463ffffffff60e01b8160e01b16606084015233606484015260246060840191606085019060018060a01b0390851c165afa908115610b4d57600091612366575b50826000528160205261220f60406000209182546158d9565b9055816000528060205260406000205491600b82019283549081811460001461231d5750505050506004356000526005602052604060002060138201546000526020526000600a6040822001555b600435600052600560205260406000206013820154600052602052600e60406000200161228a8154615957565b905560405142815233907fb59f6416758d4763386b2c83d12c7c643131c90beff0caea486f303510702ce3602060043592a3600435600052600560205260406000209060138101549182600052602052600c600e60406000200154910154146122ef57005b7f86379e876dfaea4f98e183813a1a8fea7b8212d0dc9598d4e09ee4b9cdf4613360206040516004358152a2005b1161232b575b50505061225d565b60043560005260056020526040600020601385015460005260205280600a604060002001556000526020526040600020549055818080612323565b90506020813d602011612396575b81612384602093606084016155ef565b8101031261060d5760600151846121f6565b3d9150612374565b60405162461bcd60e51b8152602060048201526015602482015274496e76616c69642072657665616c2076616c75657360581b6044820152606490fd5b60405162461bcd60e51b815260206004820152601b60248201527f436f6d6d69746d656e7420616c72656164792072657665616c656400000000006044820152606490fd5b60405162461bcd60e51b815260206004820152601f60248201527f596f7520617265206e6f74207468652063686f73656e207665726966696572006044820152606490fd5b60405162461bcd60e51b815260206004820152601260248201527114995d99585b081c1a185cd948195b99195960721b6044820152606490fd5b60405162461bcd60e51b815260206004820152601f60248201527f50726f76696465722072657665616c207068617365206e6f7420656e646564006044820152606490fd5b5060ff60148401541660098110156105f757600514611fec565b3461060d576101e036600319011261060d576084356001600160401b03811161060d5761252f90369060040161567d565b60a4356001600160401b03811161060d5761254e903690600401615627565b906101c43567ffffffffffffffff198116900361060d57612574610164356044356158d9565b6000198101908111610c1d5761258e9061016435906158f3565b906125a28261107a610124356024356158fd565b926125af846004356158d9565b600054604051636eb1769f60e11b81523360048201523060248201526001600160a01b0390911690602081604481855afa908115610b4d57600091612f4d575b506040516370a0823160e01b8152336004820152602081602481865afa918215610b4d578491600093612f16575b5010611cc0578211611c61576040516323b872dd60e01b81523360048201523060248201526044810183905290602090829060649082906000905af1908115610b4d57600091612ef7575b5015611c0c574260c4351115611ba15761010435600361010435020460031461010435151715610c1d576126a561118560036101043502866158fd565b60e4351115611b26576101243560643510611a9557600354600052600d60205260406000206001600160401b0360c01b8154166101c43560401c63ffffffff640100000000600160c01b038216911617179055604051612704816155d4565b6000815260405192612715846155d4565b6000845260405194612726866155d4565b60008652604051976127378961559d565b33895260043560208a015260408901526044356060890152606435608089015260a088015260c087015260e086015260c43561010086015260e43561012086015261014085015260006101608501526000610180850152610124356101a08501526101c08401526101e08301526000610200830152610104356102208301526102408201526000610260820152600061028082015260006102a08201526101a4356102c08201526024356102e08201526000610300820152610144356103208201526000610340820152600061036082015261016435610380820152610184356103a08201526003546000526004602052604060002060018060a01b038251166001600160601b0360a01b8254161781556020820151600182015560408201516002820155606082015160038201556080820151600482015560a0820151805190600160401b8211610ede576005830154826005850155808310612e7e575b5060200190600583016000526020600020916000905b828210612d6a57858560c08201519182516001600160401b038111610ede576128d86006840154615713565b601f8111612d35575b506020601f8211600114612cc75781929394600092612cbc575b50508160011b916000199060031b1c19161760068301555b60e0810151805190600160401b8211610ede576007840154826007860155808310612c44575b5060200190600784016000526020600020916000905b828210612b2f57858561010081015160088301556101208101516009830155610140810151600a83015561299d600b83016114806101608401511515829060ff801983541691151516179055565b6101a0810151600c8301556101c08101518051906001600160401b038211610ede57600160401b8211610ede57602090600d85015483600d870155808410612b0f575b5001600d8401600052602060002060005b838110612af25785856101e08101518051906001600160401b038211610ede57600160401b8211610ede576020600e8501918254848455808510612ad5575b500190600052602060002060005b838110612ab8578585600f820160018060a01b03610200830151166001600160601b0360a01b82541617905561022081015160108301556102408101516011830155610260810151601283015561028081015160138301556102a081015160098110156105f757601c916115b76103a0926014860161593f565b82516001600160a01b031681830155602090920191600101612a3e565b612aec908460005285846000209182019101615928565b86612a30565b82516001600160a01b0316818301556020909201916001016129f1565b612b2990600d870160005284846000209182019101615928565b856129e0565b80518051906001600160401b038211610ede57612b4c8654615713565b601f8111612c12575b50602090601f8311600114612ba2579282600194936020938695600092612b97575b5050600019600383901b1c191690841b1787555b0194019101909261294f565b015190508b80612b77565b908660005260206000209160005b601f1985168110612bfa575083602093600196938796938794601f19811610612be1575b505050811b018755612b8b565b015160001960f88460031b161c191690558b8080612bd4565b91926020600181928685015181550194019201612bb0565b612c3e90876000526020600020601f850160051c810191602086106117ce57601f0160051c0190615928565b88612b55565b600785016000526020600020908382015b8183018110612c65575050612939565b80612c7260019254615713565b80612c7f575b5001612c55565b601f81118314612c955750600081555b88612c78565b600090828252612cb3601f60208420920160051c8201858301615928565b81835555612c8f565b0151905084806128fb565b6006840160005260206000209060005b601f1984168110612d1d5750600193949583601f19811610612d04575b505050811b016006830155612913565b015160001960f88460031b161c19169055848080612cf4565b9091602060018192858a015181550193019101612cd7565b612d6490600685016000526020600020601f840160051c810191602085106117ce57601f0160051c0190615928565b846128e1565b80518051906001600160401b038211610ede57612d878654615713565b90601f91828111612e4e575b506020918311600114612dde579282600194936020938695600092612dd3575b5050600019600383901b1c191690841b1787555b019401910190926128ac565b015190508b80612db3565b908660005260206000209160005b601f1985168110612e36575083602093600196938796938794601f19811610612e1d575b505050811b018755612dc7565b015160001960f88460031b161c191690558b8080612e10565b91926020600181928685015181550194019201612dec565b612e78908860005260206000208480870160051c82019260208810611a13570160051c0190615928565b89612d93565b600584016000526020600020908382015b8183018110612e9f575050612896565b80612eac60019254615713565b80612eb9575b5001612e8f565b601f908181118414612ed2575050600081555b88612eb2565b612eee60009284845260208420920160051c8201858301615928565b81835555612ecc565b612f10915060203d602011610b4657610b3781836155ef565b86612668565b915091506020813d602011612f45575b81612f33602093836155ef565b8101031261060d57839051918961261d565b3d9150612f26565b90506020813d602011612f77575b81612f68602093836155ef565b8101031261060d5751876125ef565b3d9150612f5b565b3461060d5760208060031936011261060d57600435908160005260048152604060002090600982015442101580613196575b80613187575b1561313057600b820160ff199060018282541617905560018060a01b0380600154168560005260088452836040600020546024604051809481936331a9108f60e11b835260048301525afa8015610b4d57613086928592600092613101575b5060008881526008845260408120600301805460ff60a01b1916600160a01b17905554601588015460018901549290911691613051916158d9565b60405163a9059cbb60e01b81526001600160a01b03909316600484015260248301529092839190829060009082906044820190565b03925af18015610b4d57600a946006926014926130e4575b500191825416179055336000525260406000206130bb8154615957565b90557f953601eba1acf6d4769af39f3986a5be6acd796655930c93832c2f239fbccabf600080a2005b6130fa90863d8811610b4657610b3781836155ef565b508761309e565b613122919250833d8511613129575b61311a81836155ef565b810190616076565b9088613016565b503d613110565b6084906040519062461bcd60e51b82526004820152602a60248201527f566572696669636174696f6e20446561646c696e6520686173206e6f7420626560448201526932b7103830b9b9b2b21760b11b6064820152fd5b5060ff600b8301541615612fb7565b5060ff60148301541660098110156105f75760071415612fb1565b3461060d57602036600319011261060d576001600160a01b036131d261554f565b16600052600b6020526020604060002054604051908152f35b3461060d576131f9366156fd565b906000526005602052604060002090600052602052600360406000200133600052602052602060ff604060002054166040519015158152f35b3461060d57600036600319011261060d576002546040516001600160a01b039091168152602090f35b3461060d57602036600319011261060d5760043560005260046020526040600020600d810154600482015481036139a15760ff600b83015460081c161561395257600c8201541161390157600981015460108201549081600302916003830403610c1d576132cc6132d392426158d9565b1115615ecf565b600435600052600560205260406000206013820154908160005260205260016040600020013360005260205260ff604060002054166138bc5760043560005260056020526040600020906000526020526001604060002001336000526020526040600020600160ff198254161790556019810154600c82015481106000146137885750600481015461336a601983015480926158e6565b60405160208101904282524460408201523360601b606082015260548152613391816155b9565b51902090801561377257826133aa9161341493066158d9565b6133f56133d96133bd83600d8801615f41565b905460039190911b1c6001600160a01b031694600d8701615f41565b905460039190911b1c6001600160a01b031691600d8601615f41565b90919082549060031b9160018060a01b03809116831b921b1916179055565b613429816133f56019850154600d8601615f41565b601982015461343b81600d8501615f41565b60018060a01b0391549060031b1c166012840154916040519081527f441ea878e9821f31af14375bef585bac76bbbde0e10feddc036673243d01a1d7602060043592a46004356000526005602052604060002060138301546000526020526003604060002001906000526020526040600020600160ff198254161790556134e76134cc6019830154600d8401615f41565b905460039190911b1c6001600160a01b0316600e8301615f6f565b60168101546134fb601783019182546158d9565b90555b60198101549060018201809211610c1d5780826019600c93015501541461352157005b60043560005260046020526040600020601281019081546011820154111561372d576009810154916010820192835480600302906003820403610c1d5761356890426158d9565b10156136ce57601492600435600052600560205260406000209060138401918254600052602052426006604060002001556135a48154426158d9565b60043560005260056020526040600020835460005260205260076040600020015560043560005260056020526040600020825490816000526020526135f36007604060002001548354906158d9565b9060043560005260056020526040600020906000526020526008604060002001556004356000526005602052613643604060002091835492836000526020526008604060002001549054906158d9565b906004356000526005602052604060002090600052602052600960406000200155600435600052600560205260406000209054600052602052600760406000200154905460405191428352602083015260408201527f27e90e135bb91bf6706a23381e6d0d480f8bb7d002d6e9a197b432b7b654245f606060043592a201805460ff19166003179055005b60405162461bcd60e51b815260206004820152603160248201527f566572696669636174696f6e20446561646c696e652068617320706173736564604482015270081d1bc81cdd185c9d0818481c9bdd5b99607a1b6064820152608490fd5b60405162461bcd60e51b815260206004820152601e60248201527f416c6c206c61796572732068617665206265656e2070726f63657373656400006044820152606490fd5b634e487b7160e01b600052601260045260246000fd5b613835602061379a83600d8601615f41565b939060018060a01b03948591549060031b1c166012860154906040518381527fd2673c2f320637ecd6e1e7a21780cb318c5a6c5b49398f8c5ae9d0ae0aad47438560043592a4836137f3816000541692600d8801615f41565b90549060031b1c1690601686015491600060405180968195829463a9059cbb60e01b84526004840160209093929193604081019460018060a01b031681520152565b03925af18015610b4d5761389d575b506004356000526006602052604060002060138301546000526020526040600020906138776019840154600d8501615f41565b90549060031b1c166000526020526006604060002001600160ff198254161790556134fe565b6138b59060203d602011610b4657610b3781836155ef565b5082613844565b60405162461bcd60e51b815260206004820152601e60248201527f56657269666965722068617320616c72656164792074726967676572656400006044820152606490fd5b60405162461bcd60e51b815260206004820152602360248201527f4e6f7420656e6f7567682076657269666965727320746f2063686f6f73652066604482015262726f6d60e81b6064820152608490fd5b60405162461bcd60e51b815260206004820152602160248201527f5265717565737420686173206e6f74206265656e20636f6d70757465642079656044820152601d60fa1b6064820152608490fd5b60405162461bcd60e51b815260206004820152602160248201527f5665726966696572206c69737420686173206e6f74206265656e2066696c6c656044820152601960fa1b6064820152608490fd5b3461060d576139fe366156fd565b9060005260056020526040600020906000526020526101a060406000206004810154906005810154906006810154600782015460088301546009840154600a850154600b86015491600c87015493600d88015495600e890154976010600f8b01549a01549a6040519c8d5260208d015260408c015260608b015260808a015260a089015260c088015260e0870152610100860152610120850152610140840152610160830152610180820152f35b3461060d57613aba366156fd565b81600052602060048152604060002090600590818152604060002084600052815260096040600020015442108015906141b1575b1561415e57846000528181526040600020846000528152600360406000200133600052815260ff90613b268260406000205416616014565b8560005260069081815260406000208660005281526040600020336000528152828260406000200154166141065760138501948554871161409b5760019384881061403e5788600052858352604060002088600052835284604060002001336000528352613b9a8160406000205416615fd2565b8860005283835260406000208860005283526040600020336000528352836040600020019560ff19968688825416179055896000528084526040600020896000528452600a60406000200154908115600014613c94575050600080546016939093015460405163a9059cbb60e01b815233600482015260248101919091529284925083916044918391906001600160a01b03165af18015610b4d57613c77575b508660005281815260406000208660005281526040600020903360005252604060002001918254161790555414613c6e575b005b613c6c90615d02565b613c8d90823d8411610b4657610b3781836155ef565b5087613c3a565b9092969395988092988b60005286885260406000208260005288526040600020336000528852878c8a8d86604060002001548914613f5f575b505050505414613cd957005b60008a8152908652604080822092825291865220600c015414613d1b575050506014015416905060098110156105f757600703613d1257005b613c6c90616095565b909193926012810190601182549101546000198101818111610c1d578203613f3b575050613d498154615957565b9055856000526004845260406000209460148601938085541660098110156105f757600714613ef657600b8701908154908116613eb1578383911617905560018060a01b039586825416918860005260088752866040600020546024604051809681936331a9108f60e11b835260048301525afa918215610b4d57613e41988894600094613e8c575b5060008b81526008865260408120600301805460ff60a01b1916600160a01b1790555460158301549390920154911691613e0c91906158d9565b60405163a9059cbb60e01b81526001600160a01b03909316600484015260248301529096879190829060009082906044820190565b03925af1948515610b4d57600a95613e6f575b50825416179055336000525260406000206130bb8154615957565b613e8590853d8711610b4657610b3781836155ef565b5086613e54565b613e0c92919450613ea990863d88116131295761311a81836155ef565b939091613dd2565b60405162461bcd60e51b815260048101889052601c60248201527f5265717565737420697320616c726561647920636f6d706c65746564000000006044820152606490fd5b60405162461bcd60e51b815260048101879052601760248201527f5265717565737420697320756e7375636365737366756c0000000000000000006044820152606490fd5b9450969550935050508310613f4c57005b613f58613c6c93615957565b9055615d02565b6000955081613fdb91613fa5613f82600c601661400598970154940154846158fd565b858a528a885260408a208c8b52885260408a208d8b52885260408a2054906158f3565b9388528c865260408089208b8a528752808920338a52875288208d0180548d16909117905586546001600160a01b0316926158d9565b60405163a9059cbb60e01b8152336004820152602481019190915294859283919082906044820190565b03925af1918215610b4d578492614021575b50878c8a8d613ccd565b61403790893d8b11610b4657610b3781836155ef565b508c614017565b60405162461bcd60e51b815260048101849052602f60248201527f526f756e64206e756d626572206d75737420626520677265617465722074686160448201526e6e206f7220657175616c20746f203160881b6064820152608490fd5b60405162461bcd60e51b815260048101839052603a60248201527f726f756e64206e756d206d757374206265206c657373207468616e206f72206560448201527f7175616c20746f20726571756573742e726f756e64496e6465780000000000006064820152608490fd5b6084906040519062461bcd60e51b82526004820152602b60248201527f596f75206861766520616c7265616479206265656e207061696420666f72207660448201526a32b934b334b1b0ba34b7b760a91b6064820152fd5b6084906040519062461bcd60e51b82526004820152602660248201527f636f6d6d69746d656e7420737461676520686173206e6f742079657420636f6d6044820152651c1b195d195960d21b6064820152fd5b50846000528181526040600020846000528152600e60406000200154600c84015414613aee565b3461060d57602036600319011261060d5760043560005260046020526040600020806101a052600160a01b600190039081815416600182015491600281015460e052600381015460a0526004810154610180526006016142379061574d565b916101a0519260088401546101c052600984015494600a85015490600b86015490600c87015490600f880154169160108801549360118901549560128a01549760138b01549960148c015460ff169b601581015461012052601681015461010052601781015460c0526018810154608052601981015461016052601a81015461020052601b81015461022052601c01546101e052604051806101405252610140516020015260e051610140516040015260a0516101405160600152610180516101405160800152610340806101405160a001526101405101614318916157f3565b996101c0516101405160c001526101405160e0015261014051610100015260ff8116151561014051610120015260081c60ff161515610140516101400152610140516101600152610140516101800152610140516101a00152610140516101c00152610140516101e00152610140516102000152610140516102200161439d91615833565b610120516101405161024001526101005161014051610260015260c051610140516102800152608051610140516102a0015261016051610140516102c0015261020051610140516102e00152610220516101405161030001526101e0516101405161032001526101405180910390f35b3461060d5760208060031936011261060d57600435908160005260048152604060002090600d8152604060002054916040519063ffffffff60e01b8460e01b1682523360048301526024918381848160018060a01b038099851c165afa908115610b4d5760009161499f575b501561493f57601a810154600581018091116146e95742106148e45760ff600b82015460081c16156148a05783600f82015416331461484057600d8101918254946004830195865411156148035760ff60148401541660098110156147ee5760020361475e57600054604051636eb1769f60e11b81523360048201523060248201529116908581604481855afa908115610b4d57600091614731575b506040516370a0823160e01b81523360048201529086828581865afa8015610b4d5787926000916146fe575b5092610d576145606145909360009660168a0154938480931015615cc1565b6040516323b872dd60e01b8152336004820152306024820152604481019190915293849283919082906064820190565b03925af18015610b4d576145ab91600091610f245750615cc1565b60098201546010830154806003029060038204036146e957906132cc6145d192426158d9565b8560005260058452604060002090601383015491826000528552600260406000200133600052855260ff604060002054166146a65750906012918660005260058552604060002090600052845260026040600020013360005284526040600020600160ff198254161790556146463384615f6f565b015492604051918433877f9e9159f67684b4639ef3d20a0878e965d2fa78dc33561fadb2485cd3d3447abf600080a45490541461467f57005b7fac6c772803856f8be288c38a92349502c9d976deccefb05524c4eafedf049aeb928152a2005b8460186064926040519262461bcd60e51b845260048401528201527f566572696669657220616c7265616479206170706c69656400000000000000006044820152fd5b82634e487b7160e01b60005260116004526000fd5b8381939492503d831161472a575b61471681836155ef565b8101031261060d5751869190610d57614541565b503d61470c565b90508581813d8311614757575b61474881836155ef565b8101031261060d575188614515565b503d61473e565b60405162461bcd60e51b8152600481018690526059818401527f56657269666965722063616e6e6f74206170706c7920666f722076657269666960448201527f636174696f6e2e2052657175657374207374617465206d75737420626520696e60648201527f2063686f6f73696e672076657269666965727320737461746500000000000000608482015260a490fd5b82634e487b7160e01b60005260216004526000fd5b60405162461bcd60e51b8152600481018690526016818401527515995c9a599a595c881b1a5b5a5d081c995858da195960521b6044820152606490fd5b60405162461bcd60e51b8152600481018490526033818401527f546865206d61696e2070726f76696465722063616e6e6f74206170706c79207460448201527237903132b1b7b6b29030903b32b934b334b2b960691b6064820152608490fd5b60405162461bcd60e51b8152600481018490526018818401527f52657175657374206e6f742079657420636f6d707574656400000000000000006044820152606490fd5b60405162461bcd60e51b815260048101849052602e818401527f4d75737420776169742035207365636f6e6473206265666f726520766572696660448201526d696572732063616e206170706c7960901b6064820152608490fd5b60405162461bcd60e51b8152600481018490526033818401527f6d73672e73656e646572206973206e6f7420616c6c6f77656420746f20617070604482015272363c903337b9103b32b934b334b1b0ba34b7b760691b6064820152608490fd5b90508381813d83116149c5575b6149b681836155ef565b8101031261060d575186614479565b503d6149ac565b3461060d57600036600319011261060d576000546040516001600160a01b039091168152602090f35b3461060d57600036600319011261060d576020600354604051908152f35b3461060d57614a21366156fd565b9080600052602091600483526040600020916009830154601084015480600302906003820403610c1d57614a5590426158d9565b1115614bd25780600052600584526040600020826000528452600260406000200133600052845260ff6040600020541615614b5157600092849282614b2b93865260068552604086208287528552604086203387528552614ac060ff60066040892001541615615f92565b85526006845260408520908552835260408420338552835260066040852001600160ff19825416179055601660018060a01b0385541691015460405194858094819363a9059cbb60e01b8352336004840160209093929193604081019460018060a01b031681520152565b03925af18015610b4d57614b3b57005b81613c6c92903d10610b4657610b3781836155ef565b60405162461bcd60e51b815260048101859052604d60248201527f5665726966696572206861732065697468657220616c7265616479207265636960448201527f65766564207374616b652c206f7220646964206e6f74206170706c7920666f7260648201526c103b32b934b334b1b0ba34b7b760991b608482015260a490fd5b60405162461bcd60e51b815260048101859052602860248201527f566572696669636174696f6e20646561646c696e6520686173206e6f742079656044820152671d081c185cdcd95960c21b6064820152608490fd5b3461060d57614c36366156fd565b816000526020916005835260406000208260005283526001604060002001336000528352614c6b60ff60406000205416615fd2565b80600052600583526040600020826000528352600360406000200133600052835260ff60406000205416614d1757806000526006835260406000208260005283526040600020336000528352614ccc60ff6006604060002001541615615f92565b600080548282526004808652604080842060160154905163a9059cbb60e01b81523392810192909252602482015291859183916001600160a01b039091169082908160448101610adb565b60405162461bcd60e51b815260048101849052602360248201527f43686f73656e2076657269666569722063616e6e6f742072657475726e207374604482015262616b6560e81b6064820152608490fd5b3461060d57602036600319011261060d57613c6c600435616095565b3461060d57602036600319011261060d57613c6c600435615a13565b3461060d57600036600319011261060d576001546040516001600160a01b039091168152602090f35b3461060d57602036600319011261060d5760043560005260096020526020604060002054604051908152f35b3461060d57608036600319011261060d576004356024803560443590606435918460005260209160048352604060002060018060a01b03600f8201541633036150a8578660005260058085526040600020946013830180549687600052825260076040600020015442118015615079575b15615035578960005282825260406000208760005282526008604060002001544211614ff1578960005260078252604060002085600052825260ff60406000205416614fa35760405196828801898152600160f81b60408a015260218952606089019a898c106001600160401b038d1117614f8f575060408b8152895190912060008d8152868652828120938152928552818320600c01558b82528484528082208354835284528082206010018890558b825284845280822092548252918352818120600f018690558a8152600783528181208682529092529020805460ff19908116600117909155601490920180549092161790558452608082015260a001527f2f06062ea665468a61997fd63a8ec957f95fda34ee5de1123656b796f400cf1890606090a2005b634e487b7160e01b60009081526041600452fd5b60405162461bcd60e51b8152600481018390526021818b01527f50726976617465206b65792068617320616c7265616479206265656e207573656044820152601960fa1b6064820152608490fd5b60405162461bcd60e51b815260048101839052601b818b01527f50726f76696465722072657665616c20706861736520656e64656400000000006044820152606490fd5b60405162461bcd60e51b815260048101839052601a818b01527f436f6d6d69746d656e74207068617365206e6f7420656e6465640000000000006044820152606490fd5b5060ff601485015416600981101561509357600414614e66565b89634e487b7160e01b60005260216004526000fd5b60405162461bcd60e51b8152600481018590526032818801527f4f6e6c7920746865206d61696e2070726f76696465722063616e2072657665616044820152710d840e8d0ca40d6caf240c2dcc840d0c2e6d60731b6064820152608490fd5b3461060d57615115366156fd565b906000526005602052604060002090600052602052600260406000200133600052602052602060ff604060002054166040519015158152f35b3461060d5761515c366156fd565b906000526007602052604060002090600052602052602060ff604060002054166040519015158152f35b3461060d57615194366156fd565b906000526005602052604060002090600052602052600160406000200133600052602052602060ff604060002054166040519015158152f35b3461060d57604036600319011261060d576004356001600160401b036024803582811161060d5761520290369060040161567d565b83600052602060048152604060002093600b8501805460ff81166154ca576152306008880154421115615c75565b600f8701546001600160a01b031633036154745761ff001916610100179055825192600786019190600160401b851161545f57839083548685558087106153e5575b506000938452848420939691015b8587106152c05742601a8901558861529781615d02565b33907fd8fcbb5eddba1b1984c4f12b2197b325cc19ed135c968033ffd714c7f4c2d6bd600080a3005b80518051908482116153d0579086916152d98754615713565b90601f91828111615398575b508391831160011461532d57918060019592869594600092615322575b5050600019600383901b1c191690841b1787555b01940196019592615280565b015190508e80615302565b90601f1983169188600052846000209260005b8181106153805750916001969391858897969410615367575b505050831b83018755615316565b015160001960f88460031b161c191690558d8080615359565b8284015185558b966001909501949384019301615340565b6153c1908960005285600020600585808801821c8301938989106153c7575b01901c0190615928565b8d6152e5565b935082936153b7565b83634e487b7160e01b60005260416004526000fd5b84600052868360002091820191015b8181106154015750615272565b6001919293506154118154615713565b80615422575b5001908592916153f4565b601f90818111841461543b575050600081555b8b615417565b6154566000928484528a8420920160051c8201858301615928565b81835555615435565b85634e487b7160e01b60005260416004526000fd5b60405162461bcd60e51b8152600481018590526029818801527f4f6e6c792063686f73656e2070726f76696465722063616e20636f6d706c657460448201526819481c995c5d595cdd60ba1b6064820152608490fd5b60405162461bcd60e51b8152600481018590526022818801527f526571756573742068617320616c7265616479206265656e20636f6d706c6574604482015261195960f21b6064820152608490fd5b3461060d57602036600319011261060d576020906001600160a01b0361553d61554f565b16600052600c82526040600020548152f35b600435906001600160a01b038216820361060d57565b6101a081019081106001600160401b03821117610ede57604052565b61010081019081106001600160401b03821117610ede57604052565b6103c081019081106001600160401b03821117610ede57604052565b608081019081106001600160401b03821117610ede57604052565b602081019081106001600160401b03821117610ede57604052565b90601f801991011681019081106001600160401b03821117610ede57604052565b6001600160401b038111610ede5760051b60200190565b81601f8201121561060d578035906001600160401b038211610ede576040519261565b601f8401601f1916602001856155ef565b8284526020838301011161060d57816000926020809301838601378301015290565b9080601f8301121561060d5781359061569582615610565b926156a360405194856155ef565b828452602092838086019160051b8301019280841161060d57848301915b8483106156d15750505050505090565b82356001600160401b03811161060d5786916156f284848094890101615627565b8152019201916156c1565b604090600319011261060d576004359060243590565b90600182811c92168015615743575b602083101461572d57565b634e487b7160e01b600052602260045260246000fd5b91607f1691615722565b906040519182600082549261576184615713565b9081845260019485811690816000146157d0575060011461578d575b505061578b925003836155ef565b565b9093915060005260209081600020936000915b8183106157b857505061578b9350820101388061577d565b855488840185015294850194879450918301916157a0565b91505061578b94506020925060ff191682840152151560051b820101388061577d565b919082519283825260005b84811061581f575050826000602080949584010152601f8019910116010190565b6020818301810151848301820152016157fe565b9060098210156105f75752565b908082519081815260208091019281808460051b8301019501936000915b84831061586e5750505050505090565b909192939495848061588c600193601f198682030187528a516157f3565b980193019301919493929061585e565b90815180825260208080930193019160005b8281106158bc575050505090565b83516001600160a01b0316855293810193928101926001016158ae565b91908201809211610c1d57565b91908203918211610c1d57565b8115613772570490565b81810292918115918404141715610c1d57565b9081602091031261060d5751801515810361060d5790565b818110615933575050565b60008155600101615928565b9060098110156105f75760ff80198354169116179055565b6000198114610c1d5760010190565b90815461597281615610565b9261598060405194856155ef565b818452600090815260208082208186015b84841061599f575050505050565b60018381926159ad8561574d565b815201920193019290615991565b9060405191828154918282526020928383019160005283600020936000905b8282106159f05750505061578b925003836155ef565b85546001600160a01b0316845260019586019588955093810193909101906159da565b6000818152600460208181526040908184209160018060a01b03938484541694853303615c2757600b85019560ff875416615be457849082600f8801541615615ba35750506008850154421180615b94575b15615b3c57615abe92918491615a84600a8801546015890154906158d9565b918982815416928954169186519788958694859363a9059cbb60e01b8552840160209093929193604081019460018060a01b031681520152565b03925af1908115615b335750926008926014927fee243f878b7fc2f54e934ca33783d4395d42bc07612e2bd4b8e0e178639f7a28979695615b15575b505060ff1993600185825416179055019182541617905580a2565b81615b2b92903d10610b4657610b3781836155ef565b503880615afa565b513d87823e3d90fd5b5082608492519162461bcd60e51b8352820152602d60248201527f436f6d7075746174696f6e20646561646c696e6520686173206e6f742079657460448201526c081899595b881c995858da1959609a1b6064820152fd5b5060ff865460081c1615615a65565b8854600a880154865163a9059cbb60e01b81526001600160a01b0390931695830195865260208601529094939192859291169082908a908290604001615abe565b835162461bcd60e51b8152808401869052601960248201527f5265717565737420616c726561647920636f6d706c65746564000000000000006044820152606490fd5b5082608492519162461bcd60e51b83528201526024808201527f4f6e6c792074686520636f6e73756d65722063616e2077697468647261772066604482015263756e647360e01b6064820152fd5b15615c7c57565b60405162461bcd60e51b815260206004820152601b60248201527f436f6d7075746174696f6e20646561646c696e652070617373656400000000006044820152606490fd5b15615cc857565b60405162461bcd60e51b8152602060048201526012602482015271496e73756666696369656e74207374616b6560701b6044820152606490fd5b6000818152600460209081526040808320600f8101546001600160a01b031615615e7b57838251615d32816155d4565b52600d8101805485825580615e63575b508452838251615d51816155d4565b52600e8101805485825580615e4b575b50845260148101600260ff198254161790556013810180549060018201809211615e37579386937fb39ebde6d06658d2f25237a5031f2a70eadf752f8ecc1b74081c3768822f02729360a0937f2d4e685f9af8cf88fb3e3447f1ee8e4e5e68423a2c393dc8d6e9784aa67ddafa989755866019820155857f7cdb7f0bd04877caf5dda7a202130926cdd67ad312dada203661ff6d880684348460128401548551908152a2601681015491600982015490600460108401549301549381519533875286015284015260608301526080820152a280a2565b634e487b7160e01b86526011600452602486fd5b818652848620615e5d91810190615928565b38615d61565b818652848620615e7591810190615928565b38615d42565b815162461bcd60e51b815260048101849052602760248201527f4d61696e2070726f766964657220686173206e6f7420796574206265656e2073604482015266195b1958dd195960ca1b6064820152608490fd5b15615ed657565b60405162461bcd60e51b815260206004820152603d60248201527f4e6f7420656e6f7567682074696d6520746f20706572666f726d20726f756e6460448201527f206265666f726520766572696669636174696f6e20646561646c696e650000006064820152608490fd5b8054821015615f595760005260206000200190600090565b634e487b7160e01b600052603260045260246000fd5b90815491600160401b831015610ede57826133f591600161578b95018155615f41565b15615f9957565b60405162461bcd60e51b8152602060048201526011602482015270105b1c9958591e481899595b881c185a59607a1b6044820152606490fd5b15615fd957565b60405162461bcd60e51b81526020600482015260136024820152722cb7ba903234b2103737ba103a3934b3b3b2b960691b6044820152606490fd5b1561601b57565b60405162461bcd60e51b815260206004820152602d60248201527f596f7520617265206e6f74207468652063686f73656e2076657269666965722060448201526c1a5b881d1a1a5cc81c9bdd5b99609a1b6064820152608490fd5b9081602091031261060d57516001600160a01b038116810361060d5790565b600081815260046020908152604080832060058352818420601382015485528352818420600a810154600c90910154929392141580616232575b156161de57601481019060ff199160078382541617905561615c8360018060a01b0380885416908454169061612961611e61611360018801546015890154906158d9565b6002880154906158d9565b6017870154906158e6565b885163a9059cbb60e01b81526001600160a01b0390931660048401526024830152909283919082908a9082906044820190565b03925af180156161d457600b7f6d55d799468c2d702d8ff65d462b4e8dbbc88c728431aee69b205a3964362f07979695938195936001936161b7575b5001918254161790553384525281206161b18154615957565b905580a2565b6161cd90863d8811610b4657610b3781836155ef565b5038616198565b85513d88823e3d90fd5b50608491519062461bcd60e51b82526004820152602860248201527f5265717565737420697320616c726561647920696e20756e7375636365737366604482015267756c20737461746560c01b6064820152fd5b5060ff601482015416600981101561624d57600714156160cf565b634e487b7160e01b85526021600452602485fdfea26469706673582212202a6508890985359752ad1d40217870f2423ef90f424819dbd03c09bdfdbf427564736f6c63430008140033608034620003975760406001600160401b038282018181118482101762000381578252600883526020926710d3d35417d3919560c21b8482015282519183830183811082821117620003815784526004928381526310d3919560e21b868201528251908282116200036c576000968754926001958685811c9516801562000361575b838610146200034e578190601f95868111620002fb575b50839086831160011462000297578b926200028b575b5050600019600383901b1c191690861b1788555b8151938411620002785784548581811c911680156200026d575b828210146200025a57908184869594931162000203575b50809284116001146200019b575087926200018f575b5050600019600383901b1c191690821b1790555b33156200017a575060068054336001600160a01b03198216811790925591519290916001600160a01b0316907f8be0079c531659141344cd1fd0a4f28419497f9722a3daafe3b4186f6b6457e09080a3610f2b90816200039d8239f35b826024925191631e4fbdf760e01b8352820152fd5b01519050388062000109565b9190859450601f198416858a52838a20938a905b828210620001e95750508411620001cf575b505050811b0190556200011d565b015160001960f88460031b161c19169055388080620001c1565b8484015186558897909501949384019390810190620001af565b90919293508589528189208480870160051c82019284881062000250575b9187968992969594930160051c01915b82811062000241575050620000f3565b8b815587965088910162000231565b9250819262000221565b634e487b7160e01b895260228752602489fd5b90607f1690620000dc565b634e487b7160e01b885260418652602488fd5b015190503880620000ae565b8b8052848c208994509190601f1984168d5b87828210620002e45750508411620002ca575b505050811b018855620000c2565b015160001960f88460031b161c19169055388080620002bc565b8385015186558c97909501949384019301620002a9565b9091508a8052838b208680850160051c82019286861062000344575b918a91869594930160051c01915b8281106200033557505062000098565b8d81558594508a910162000325565b9250819262000317565b634e487b7160e01b8a526022885260248afd5b94607f169462000081565b604185634e487b7160e01b6000525260246000fd5b634e487b7160e01b600052604160045260246000fd5b600080fdfe6080604081815260048036101561001557600080fd5b600092833560e01c90816301ffc9a714610a295750806306fdde031461095e578063081812fc14610923578063095ea7b31461084757806323b872dd1461082f57806342842e0e146108005780636352211e146107cf5780636a6278421461056857806370a0823114610513578063715018a6146104b657806375794a3c146104975780638da5cb5b1461046e57806395d89b4114610355578063a22cb465146102b4578063b88d4fde14610220578063c87b56dd146101cd578063e985e9c51461017b5763f2fde38b146100e957600080fd5b3461017757602036600319011261017757610102610ad5565b9061010b610bab565b6001600160a01b03918216928315610161575050600654826bffffffffffffffffffffffff60a01b821617600655167f8be0079c531659141344cd1fd0a4f28419497f9722a3daafe3b4186f6b6457e08380a380f35b51631e4fbdf760e01b8152908101849052602490fd5b8280fd5b5050346101c957806003193601126101c95760ff8160209361019b610ad5565b6101a3610af0565b6001600160a01b0391821683526005875283832091168252855220549151911615158152f35b5080fd5b509190346101c95760203660031901126101c9576101ee61021c9335610d76565b508181516101fb81610b3b565b5280519161020883610b3b565b825251918291602083526020830190610a95565b0390f35b5090346101775760803660031901126101775761023b610ad5565b610243610af0565b60443591856064359567ffffffffffffffff87116101c957366023880112156101c9578601359561027f61027688610b8f565b96519687610b6d565b86865236602488830101116101c957866102b19760246020930183890137860101526102ac838383610bd7565b610db1565b80f35b5090346101775780600319360112610177576102ce610ad5565b9060243591821515809303610351576001600160a01b031692831561033c5750338452600560205280842083855260205280842060ff1981541660ff8416179055519081527f17307eab39ab6107e8899845ad3d59bd9653f200f220920489ca2b5937696c3160203392a380f35b836024925191630b61174360e31b8352820152fd5b8480fd5b50913461046b578060031936011261046b578151918160019283549384811c91818616958615610461575b602096878510811461044e578899509688969785829a5291826000146104275750506001146103cc575b50505061021c92916103bd910385610b6d565b51928284938452830190610a95565b91908693508083527fb10e2d527612073b26eecdfd717e6a320cf44b4afac2b0732d9fcbe2b7fa0cf65b82841061040f57505050820101816103bd61021c6103aa565b8054848a0186015288955087949093019281016103f6565b60ff19168782015293151560051b860190930193508492506103bd915061021c90506103aa565b634e487b7160e01b835260228a52602483fd5b92607f1692610380565b80fd5b5050346101c957816003193601126101c95760065490516001600160a01b039091168152602090f35b5050346101c957816003193601126101c9576020906007549051908152f35b833461046b578060031936011261046b576104cf610bab565b600680546001600160a01b0319811690915581906001600160a01b03167f8be0079c531659141344cd1fd0a4f28419497f9722a3daafe3b4186f6b6457e08280a380f35b50913461046b57602036600319011261046b576001600160a01b03610536610ad5565b169283156105535750806020938392526003845220549051908152f35b91516322718ad960e21b815291820152602490fd5b509190346101c9576020928360031936011261017757610586610ad5565b9261058f610bab565b60075493835161059e81610b3b565b8281526001600160a01b03828116929083156107b85787855260028952868520541687848215159283610785575b81885260038c528988208054600101905582885260028c5289882080546001600160a01b031916831790557fddf252ad1be2c89b69c2b068fc378daa952ba7f163c4a11628f55a4df523b3ef8880a461076d573b610655575b505060075491600019831461064257505060010160075551908152f35b634e487b7160e01b825260119052602490fd5b84939591945187818061068f630a85bd0160e11b95868352338c840152886024840152876044840152608060648401526084830190610a95565b0381878a5af184918161072d575b506106fb575050503d6000146106f3573d6106b781610b8f565b906106c484519283610b6d565b81528091863d92013e5b805194856106ed57505051633250574960e11b81529182015260249150fd5b85925001fd5b5060606106ce565b91959394916001600160e01b0319160361071757503880610625565b90506024925191633250574960e11b8352820152fd5b9091508881813d8311610766575b6107458183610b6d565b8101031261035157516001600160e01b03198116810361035157903861069d565b503d61073b565b505092516339e3563760e11b81529182015260249150fd5b600083815260046020526040902080546001600160a01b031916905580885260038c5289882080546000190190556105cc565b8651633250574960e11b8152808701869052602490fd5b50913461046b57602036600319011261046b57506107ef60209235610d76565b90516001600160a01b039091168152f35b5050346101c9576102b19061081436610b06565b9192519261082184610b3b565b8584526102ac838383610bd7565b833461046b576102b161084136610b06565b91610bd7565b509034610177578060031936011261017757610861610ad5565b9160243561086e81610d76565b33151580610910575b806108e7575b6108d1576001600160a01b039485169482918691167f8c5be1e5ebec7d5bd14f71427d1e84f3dd0314c0f7b2291e5b200ac8c7c3b9258880a48452602052822080546001600160a01b031916909117905580f35b835163a9fbf51f60e01b81523381850152602490fd5b506001600160a01b03811686526005602090815284872033885290528386205460ff161561087d565b506001600160a01b038116331415610877565b50346101775760203660031901126101775791826020933561094481610d76565b50825283528190205490516001600160a01b039091168152f35b50913461046b578060031936011261046b5781519181825492600184811c91818616958615610a1f575b602096878510811461044e578899509688969785829a5291826000146104275750506001146109c45750505061021c92916103bd910385610b6d565b91908693508280527f290decd9548b62a8d60345a988386fc84ba6bc95484008f6362f93160ef3e5635b828410610a0757505050820101816103bd61021c6103aa565b8054848a0186015288955087949093019281016109ee565b92607f1692610988565b92505034610177576020366003190112610177573563ffffffff60e01b811680910361017757602092506380ac58cd60e01b8114908115610a84575b8115610a73575b5015158152f35b6301ffc9a760e01b14905038610a6c565b635b5e139f60e01b81149150610a65565b919082519283825260005b848110610ac1575050826000602080949584010152601f8019910116010190565b602081830181015184830182015201610aa0565b600435906001600160a01b0382168203610aeb57565b600080fd5b602435906001600160a01b0382168203610aeb57565b6060906003190112610aeb576001600160a01b03906004358281168103610aeb57916024359081168103610aeb579060443590565b6020810190811067ffffffffffffffff821117610b5757604052565b634e487b7160e01b600052604160045260246000fd5b90601f8019910116810190811067ffffffffffffffff821117610b5757604052565b67ffffffffffffffff8111610b5757601f01601f191660200190565b6006546001600160a01b03163303610bbf57565b60405163118cdaa760e01b8152336004820152602490fd5b6001600160a01b039182169290918315610d5d57600092828452826020956002875260409684888820541696879133151580610cc7575b509060027fddf252ad1be2c89b69c2b068fc378daa952ba7f163c4a11628f55a4df523b3ef9284610c94575b858352600381528b8320805460010190558683525289812080546001600160a01b0319168517905580a41692838303610c735750505050565b6064945051926364283d7b60e01b8452600484015260248301526044820152fd5b600087815260046020526040902080546001600160a01b0319169055848352600381528b83208054600019019055610c3a565b91939450915080610d1c575b15610ce357859291879138610c0e565b878688610d00576024915190637e27328960e01b82526004820152fd5b604491519063177e802f60e01b82523360048301526024820152fd5b503387148015610d41575b80610cd35750858252600481523385898420541614610cd3565b5086825260058152878220338352815260ff8883205416610d27565b604051633250574960e11b815260006004820152602490fd5b6000818152600260205260409020546001600160a01b0316908115610d99575090565b60249060405190637e27328960e01b82526004820152fd5b813b610dbe575b50505050565b604051630a85bd0160e11b8082523360048301526001600160a01b03928316602483015260448201949094526080606482015260209592909116939092908390610e0c906084830190610a95565b039285816000958187895af1849181610eb5575b50610e80575050503d600014610e78573d610e3a81610b8f565b90610e486040519283610b6d565b81528091843d92013e5b80519283610e7357604051633250574960e11b815260048101849052602490fd5b019050fd5b506060610e52565b919450915063ffffffff60e01b1603610e9d575038808080610db8565b60249060405190633250574960e11b82526004820152fd5b9091508681813d8311610eee575b610ecd8183610b6d565b8101031261035157516001600160e01b031981168103610351579038610e20565b503d610ec356fea2646970667358221220f18b500def1133f16016858af07de42e416c6c9d579cabf3327af7b07c2a0e8f64736f6c6343000814003360808060405234601457608b908161001a8239f35b600080fdfe6080806040526004361015601257600080fd5b600090813560e01c63765a4a7a14602857600080fd5b3460515760203660031901126051576004356001600160a01b0381160360515780600160209252f35b5080fdfea26469706673582212206c29917100fa9085e84d68bd07d6bbb9f44a731663abb49bb655d04f2ad713d564736f6c63430008140033","opcodes":"PUSH1 0x80 CALLVALUE PUSH3 0x170 JUMPI PUSH1 0x1F PUSH3 0x7790 CODESIZE DUP2 SWAP1 SUB SWAP2 DUP3 ADD PUSH1 0x1F NOT AND DUP4 ADD SWAP3 PUSH1 0x1 PUSH1 0x1 PUSH1 0x40 SHL SUB SWAP3 SWAP1 SWAP2 DUP4 DUP6 GT DUP4 DUP7 LT OR PUSH3 0x175 JUMPI DUP2 PUSH1 0x20 SWAP3 DUP5 SWAP3 PUSH1 0x40 SWAP8 DUP9 MSTORE DUP4 CODECOPY DUP2 ADD SUB SLT PUSH3 0x170 JUMPI MLOAD PUSH1 0x1 PUSH1 0x1 PUSH1 0xA0 SHL SUB SWAP1 DUP2 DUP2 AND SWAP1 DUP2 SWAP1 SUB PUSH3 0x170 JUMPI DUP1 ISZERO PUSH3 0x12C JUMPI PUSH1 0x1 DUP1 PUSH1 0xA0 SHL SUB NOT SWAP3 PUSH1 0x0 SWAP2 DUP5 DUP4 SLOAD AND OR DUP3 SSTORE DUP5 MLOAD PUSH2 0x12C8 DUP1 DUP3 ADD SWAP1 DUP3 DUP3 LT DUP5 DUP4 GT OR PUSH3 0x118 JUMPI SWAP1 DUP3 SWAP2 PUSH3 0x6423 DUP4 CODECOPY SUB SWAP1 DUP4 CREATE DUP1 ISZERO PUSH3 0x10E JUMPI DUP4 AND DUP5 PUSH1 0x1 SLOAD AND OR PUSH1 0x1 SSTORE DUP5 MLOAD SWAP1 PUSH1 0xA5 DUP1 DUP4 ADD SWAP2 DUP4 DUP4 LT SWAP1 DUP4 GT OR PUSH3 0xFA JUMPI SWAP1 DUP3 SWAP2 PUSH3 0x76EB DUP4 CODECOPY SUB SWAP1 DUP3 CREATE SWAP1 DUP2 ISZERO PUSH3 0xEF JUMPI POP AND SWAP1 PUSH1 0x2 SLOAD AND OR PUSH1 0x2 SSTORE MLOAD PUSH2 0x6297 SWAP1 DUP2 PUSH3 0x18C DUP3 CODECOPY RETURN JUMPDEST DUP5 MLOAD SWAP1 RETURNDATASIZE SWAP1 DUP3 RETURNDATACOPY RETURNDATASIZE SWAP1 REVERT JUMPDEST PUSH4 0x4E487B71 PUSH1 0xE0 SHL DUP5 MSTORE PUSH1 0x41 PUSH1 0x4 MSTORE PUSH1 0x24 DUP5 REVERT JUMPDEST DUP6 MLOAD RETURNDATASIZE DUP5 DUP3 RETURNDATACOPY RETURNDATASIZE SWAP1 REVERT JUMPDEST PUSH4 0x4E487B71 PUSH1 0xE0 SHL DUP6 MSTORE PUSH1 0x41 PUSH1 0x4 MSTORE PUSH1 0x24 DUP6 REVERT JUMPDEST DUP4 MLOAD PUSH3 0x461BCD PUSH1 0xE5 SHL DUP2 MSTORE PUSH1 0x20 PUSH1 0x4 DUP3 ADD MSTORE PUSH1 0x15 PUSH1 0x24 DUP3 ADD MSTORE PUSH32 0x496E76616C696420746F6B656E20616464726573730000000000000000000000 PUSH1 0x44 DUP3 ADD MSTORE PUSH1 0x64 SWAP1 REVERT JUMPDEST PUSH1 0x0 DUP1 REVERT JUMPDEST PUSH4 0x4E487B71 PUSH1 0xE0 SHL PUSH1 0x0 MSTORE PUSH1 0x41 PUSH1 0x4 MSTORE PUSH1 0x24 PUSH1 0x0 REVERT INVALID PUSH2 0x240 DUP1 PUSH1 0x40 MSTORE PUSH1 0x4 CALLDATASIZE LT ISZERO PUSH2 0x14 JUMPI PUSH1 0x0 DUP1 REVERT JUMPDEST PUSH1 0x0 CALLDATALOAD PUSH1 0xE0 SHR SWAP1 DUP2 PUSH4 0x33D926D EQ PUSH2 0x5519 JUMPI POP DUP1 PUSH4 0x625F161 EQ PUSH2 0x51CD JUMPI DUP1 PUSH4 0xA39BF2C EQ PUSH2 0x5186 JUMPI DUP1 PUSH4 0x13F08BBF EQ PUSH2 0x514E JUMPI DUP1 PUSH4 0x175F4C0C EQ PUSH2 0x5107 JUMPI DUP1 PUSH4 0x253BD3E9 EQ PUSH2 0x4DF5 JUMPI DUP1 PUSH4 0x28DDE62E EQ PUSH2 0x4DC9 JUMPI DUP1 PUSH4 0x2D37463D EQ PUSH2 0x4DA0 JUMPI DUP1 PUSH4 0x3015394C EQ PUSH2 0x4D84 JUMPI DUP1 PUSH4 0x3295845C EQ PUSH2 0x4D68 JUMPI DUP1 PUSH4 0x38488ABC EQ PUSH2 0x4C28 JUMPI DUP1 PUSH4 0x4BEDA221 EQ PUSH2 0x4A13 JUMPI DUP1 PUSH4 0x5BADBE4C EQ PUSH2 0x49F5 JUMPI DUP1 PUSH4 0x6605DFA7 EQ PUSH2 0x49CC JUMPI DUP1 PUSH4 0x6D8F9A0E EQ PUSH2 0x440D JUMPI DUP1 PUSH4 0x81D12C58 EQ PUSH2 0x41D8 JUMPI DUP1 PUSH4 0x847ADA57 EQ PUSH2 0x3AAC JUMPI DUP1 PUSH4 0x8EA49ECA EQ PUSH2 0x39F0 JUMPI DUP1 PUSH4 0x951C5CE2 EQ PUSH2 0x325B JUMPI DUP1 PUSH4 0x958A1A4B EQ PUSH2 0x3232 JUMPI DUP1 PUSH4 0x975026AF EQ PUSH2 0x31EB JUMPI DUP1 PUSH4 0xA2BC069F EQ PUSH2 0x31B1 JUMPI DUP1 PUSH4 0xB10CEB59 EQ PUSH2 0x2F7F JUMPI DUP1 PUSH4 0xBA0FF7C3 EQ PUSH2 0x24FE JUMPI DUP1 PUSH4 0xBFDB3451 EQ PUSH2 0x1F93 JUMPI DUP1 PUSH4 0xD42C6712 EQ PUSH2 0x1F31 JUMPI DUP1 PUSH4 0xDDF3532C EQ PUSH2 0x1D8A JUMPI DUP1 PUSH4 0xE007657E EQ PUSH2 0xFE9 JUMPI DUP1 PUSH4 0xE03AD0D1 EQ PUSH2 0xC88 JUMPI DUP1 PUSH4 0xE2E7CBE6 EQ PUSH2 0x9DF JUMPI DUP1 PUSH4 0xE63D60CB EQ PUSH2 0x9A5 JUMPI DUP1 PUSH4 0xE6A3D9DC EQ PUSH2 0x799 JUMPI DUP1 PUSH4 0xE7B6C4EC EQ PUSH2 0x751 JUMPI DUP1 PUSH4 0xE819FF28 EQ PUSH2 0x612 JUMPI PUSH4 0xF34D4C63 EQ PUSH2 0x1A1 JUMPI PUSH1 0x0 DUP1 REVERT JUMPDEST CALLVALUE PUSH2 0x60D JUMPI PUSH1 0x20 CALLDATASIZE PUSH1 0x3 NOT ADD SLT PUSH2 0x60D JUMPI PUSH1 0x0 PUSH2 0x3A0 PUSH1 0x40 MLOAD PUSH2 0x1C3 DUP2 PUSH2 0x559D JUMP JUMPDEST DUP3 DUP2 MSTORE DUP3 PUSH1 0x20 DUP3 ADD MSTORE DUP3 PUSH1 0x40 DUP3 ADD MSTORE DUP3 PUSH1 0x60 DUP3 ADD MSTORE DUP3 PUSH1 0x80 DUP3 ADD MSTORE PUSH1 0x60 PUSH1 0xA0 DUP3 ADD MSTORE PUSH1 0x60 PUSH1 0xC0 DUP3 ADD MSTORE PUSH1 0x60 PUSH1 0xE0 DUP3 ADD MSTORE DUP3 PUSH2 0x100 DUP3 ADD MSTORE DUP3 PUSH2 0x120 DUP3 ADD MSTORE DUP3 PUSH2 0x140 DUP3 ADD MSTORE DUP3 PUSH2 0x160 DUP3 ADD MSTORE DUP3 PUSH2 0x180 DUP3 ADD MSTORE DUP3 PUSH2 0x1A0 DUP3 ADD MSTORE PUSH1 0x60 PUSH2 0x1C0 DUP3 ADD MSTORE PUSH1 0x60 PUSH2 0x1E0 DUP3 ADD MSTORE DUP3 PUSH2 0x200 DUP3 ADD MSTORE DUP3 PUSH2 0x220 DUP3 ADD MSTORE DUP3 PUSH2 0x240 DUP3 ADD MSTORE DUP3 PUSH2 0x260 DUP3 ADD MSTORE DUP3 PUSH2 0x280 DUP3 ADD MSTORE DUP3 PUSH2 0x2A0 DUP3 ADD MSTORE DUP3 PUSH2 0x2C0 DUP3 ADD MSTORE DUP3 PUSH2 0x2E0 DUP3 ADD MSTORE DUP3 PUSH2 0x300 DUP3 ADD MSTORE DUP3 PUSH2 0x320 DUP3 ADD MSTORE DUP3 PUSH2 0x340 DUP3 ADD MSTORE DUP3 PUSH2 0x360 DUP3 ADD MSTORE DUP3 PUSH2 0x380 DUP3 ADD MSTORE ADD MSTORE PUSH1 0x4 CALLDATALOAD PUSH1 0x0 MSTORE PUSH1 0x4 PUSH1 0x20 MSTORE PUSH1 0x40 PUSH1 0x0 KECCAK256 PUSH1 0x40 MLOAD SWAP1 PUSH2 0x2A7 DUP3 PUSH2 0x559D JUMP JUMPDEST DUP1 SLOAD PUSH1 0x1 PUSH1 0x1 PUSH1 0xA0 SHL SUB AND DUP3 MSTORE PUSH1 0x1 DUP2 ADD SLOAD PUSH1 0x20 DUP4 ADD MSTORE PUSH1 0x2 DUP2 ADD SLOAD PUSH1 0x40 DUP4 ADD MSTORE PUSH1 0x3 DUP2 ADD SLOAD PUSH1 0x60 DUP4 ADD MSTORE PUSH1 0x4 DUP2 ADD SLOAD PUSH1 0x80 DUP4 ADD MSTORE PUSH2 0x2E8 PUSH1 0x5 DUP3 ADD PUSH2 0x5966 JUMP JUMPDEST PUSH1 0xA0 DUP4 ADD MSTORE PUSH2 0x2F9 PUSH1 0x6 DUP3 ADD PUSH2 0x574D JUMP JUMPDEST PUSH1 0xC0 DUP4 ADD MSTORE PUSH2 0x30A PUSH1 0x7 DUP3 ADD PUSH2 0x5966 JUMP JUMPDEST PUSH1 0xE0 DUP4 ADD MSTORE PUSH1 0x8 DUP2 ADD SLOAD PUSH2 0x100 DUP4 ADD MSTORE PUSH1 0x9 DUP2 ADD SLOAD PUSH2 0x120 DUP4 ADD MSTORE PUSH1 0xA DUP2 ADD SLOAD PUSH2 0x140 DUP4 ADD MSTORE PUSH1 0xFF PUSH1 0xB DUP3 ADD SLOAD DUP2 DUP2 AND ISZERO ISZERO PUSH2 0x160 DUP6 ADD MSTORE PUSH1 0x8 SHR AND ISZERO ISZERO PUSH2 0x180 DUP4 ADD MSTORE PUSH1 0xC DUP2 ADD SLOAD PUSH2 0x1A0 DUP4 ADD MSTORE PUSH2 0x365 PUSH1 0xD DUP3 ADD PUSH2 0x59BB JUMP JUMPDEST PUSH2 0x1C0 DUP4 ADD MSTORE PUSH2 0x377 PUSH1 0xE DUP3 ADD PUSH2 0x59BB JUMP JUMPDEST PUSH2 0x1E0 DUP4 ADD MSTORE PUSH1 0xF DUP2 ADD SLOAD PUSH1 0x1 PUSH1 0x1 PUSH1 0xA0 SHL SUB AND PUSH2 0x200 DUP4 ADD MSTORE PUSH1 0x10 DUP2 ADD SLOAD PUSH2 0x220 DUP4 ADD MSTORE PUSH1 0x11 DUP2 ADD SLOAD PUSH2 0x240 DUP4 ADD MSTORE PUSH1 0x12 DUP2 ADD SLOAD PUSH2 0x260 DUP4 ADD MSTORE PUSH1 0x13 DUP2 ADD SLOAD PUSH2 0x280 DUP4 ADD MSTORE PUSH1 0x14 DUP2 ADD SLOAD PUSH1 0xFF AND SWAP1 PUSH1 0x9 DUP3 LT ISZERO PUSH2 0x5F7 JUMPI PUSH1 0x1C SWAP2 PUSH2 0x2A0 DUP5 ADD MSTORE PUSH1 0x15 DUP2 ADD SLOAD PUSH2 0x2C0 DUP5 ADD MSTORE PUSH1 0x16 DUP2 ADD SLOAD PUSH2 0x2E0 DUP5 ADD MSTORE PUSH1 0x17 DUP2 ADD SLOAD PUSH2 0x300 DUP5 ADD MSTORE PUSH1 0x18 DUP2 ADD SLOAD PUSH2 0x320 DUP5 ADD MSTORE PUSH1 0x19 DUP2 ADD SLOAD PUSH2 0x340 DUP5 ADD MSTORE PUSH1 0x1A DUP2 ADD SLOAD PUSH2 0x360 DUP5 ADD MSTORE PUSH1 0x1B DUP2 ADD SLOAD PUSH2 0x380 DUP5 ADD MSTORE ADD SLOAD PUSH2 0x3A0 DUP3 ADD MSTORE PUSH1 0x40 MLOAD DUP1 SWAP2 PUSH1 0x20 DUP3 MSTORE PUSH1 0x1 DUP1 PUSH1 0xA0 SHL SUB DUP2 MLOAD AND PUSH1 0x20 DUP4 ADD MSTORE PUSH1 0x20 DUP2 ADD MLOAD PUSH1 0x40 DUP4 ADD MSTORE PUSH1 0x40 DUP2 ADD MLOAD PUSH1 0x60 DUP4 ADD MSTORE PUSH1 0x60 DUP2 ADD MLOAD PUSH1 0x80 DUP4 ADD MSTORE PUSH1 0x80 DUP2 ADD MLOAD PUSH1 0xA0 DUP4 ADD MSTORE PUSH2 0x3A0 PUSH2 0x540 PUSH2 0x528 PUSH2 0x4C4 PUSH2 0x4AD PUSH2 0x497 PUSH1 0xA0 DUP8 ADD MLOAD PUSH2 0x3C0 PUSH1 0xC0 DUP11 ADD MSTORE PUSH2 0x3E0 DUP10 ADD SWAP1 PUSH2 0x5840 JUMP JUMPDEST PUSH1 0xC0 DUP8 ADD MLOAD DUP9 DUP3 SUB PUSH1 0x1F NOT ADD PUSH1 0xE0 DUP11 ADD MSTORE PUSH2 0x57F3 JUMP JUMPDEST PUSH1 0xE0 DUP7 ADD MLOAD DUP8 DUP3 SUB PUSH1 0x1F NOT ADD PUSH2 0x100 DUP10 ADD MSTORE PUSH2 0x5840 JUMP JUMPDEST PUSH2 0x100 DUP6 ADD MLOAD PUSH2 0x120 DUP8 ADD MSTORE PUSH2 0x120 DUP6 ADD MLOAD PUSH2 0x140 DUP8 ADD MSTORE PUSH2 0x140 DUP6 ADD MLOAD PUSH2 0x160 DUP8 ADD MSTORE PUSH2 0x160 DUP6 ADD MLOAD ISZERO ISZERO PUSH2 0x180 DUP8 ADD MSTORE PUSH2 0x180 DUP6 ADD MLOAD ISZERO ISZERO PUSH2 0x1A0 DUP8 ADD MSTORE PUSH2 0x1A0 DUP6 ADD MLOAD PUSH2 0x1C0 DUP8 ADD MSTORE PUSH2 0x1C0 DUP6 ADD MLOAD PUSH1 0x1F NOT DUP8 DUP4 SUB ADD PUSH2 0x1E0 DUP9 ADD MSTORE PUSH2 0x589C JUMP JUMPDEST PUSH2 0x1E0 DUP5 ADD MLOAD DUP6 DUP3 SUB PUSH1 0x1F NOT ADD PUSH2 0x200 DUP8 ADD MSTORE PUSH2 0x589C JUMP JUMPDEST SWAP2 PUSH1 0x1 DUP1 PUSH1 0xA0 SHL SUB PUSH2 0x200 DUP3 ADD MLOAD AND PUSH2 0x220 DUP6 ADD MSTORE PUSH2 0x220 DUP2 ADD MLOAD PUSH2 0x240 DUP6 ADD MSTORE PUSH2 0x240 DUP2 ADD MLOAD PUSH2 0x260 DUP6 ADD MSTORE PUSH2 0x260 DUP2 ADD MLOAD PUSH2 0x280 DUP6 ADD MSTORE PUSH2 0x280 DUP2 ADD MLOAD PUSH2 0x2A0 DUP6 ADD MSTORE PUSH2 0x599 PUSH2 0x2A0 DUP3 ADD MLOAD PUSH2 0x2C0 DUP7 ADD SWAP1 PUSH2 0x5833 JUMP JUMPDEST PUSH2 0x2C0 DUP2 ADD MLOAD PUSH2 0x2E0 DUP6 ADD MSTORE PUSH2 0x2E0 DUP2 ADD MLOAD PUSH2 0x300 DUP6 ADD MSTORE PUSH2 0x300 DUP2 ADD MLOAD PUSH2 0x320 DUP6 ADD MSTORE PUSH2 0x320 DUP2 ADD MLOAD PUSH2 0x340 DUP6 ADD MSTORE PUSH2 0x340 DUP2 ADD MLOAD PUSH2 0x360 DUP6 ADD MSTORE PUSH2 0x360 DUP2 ADD MLOAD PUSH2 0x380 DUP6 ADD MSTORE PUSH2 0x380 DUP2 ADD MLOAD DUP3 DUP6 ADD MSTORE ADD MLOAD PUSH2 0x3C0 DUP4 ADD MSTORE SUB SWAP1 RETURN JUMPDEST PUSH4 0x4E487B71 PUSH1 0xE0 SHL PUSH1 0x0 MSTORE PUSH1 0x21 PUSH1 0x4 MSTORE PUSH1 0x24 PUSH1 0x0 REVERT JUMPDEST PUSH1 0x0 DUP1 REVERT JUMPDEST CALLVALUE PUSH2 0x60D JUMPI PUSH1 0x60 CALLDATASIZE PUSH1 0x3 NOT ADD SLT PUSH2 0x60D JUMPI PUSH1 0x1 PUSH1 0x1 PUSH1 0xA0 SHL SUB PUSH1 0x44 CALLDATALOAD DUP2 DUP2 AND SWAP1 DUP2 SWAP1 SUB PUSH2 0x60D JUMPI PUSH2 0x100 SWAP2 PUSH1 0x40 MLOAD SWAP2 PUSH2 0x64A DUP4 PUSH2 0x5581 JUMP JUMPDEST PUSH1 0x0 DUP4 MSTORE PUSH1 0x0 PUSH1 0xE0 PUSH1 0x20 SWAP5 DUP3 DUP7 DUP3 ADD MSTORE DUP3 PUSH1 0x40 DUP3 ADD MSTORE DUP3 PUSH1 0x60 DUP3 ADD MSTORE DUP3 PUSH1 0x80 DUP3 ADD MSTORE DUP3 PUSH1 0xA0 DUP3 ADD MSTORE DUP3 PUSH1 0xC0 DUP3 ADD MSTORE ADD MSTORE PUSH1 0x4 CALLDATALOAD PUSH1 0x0 MSTORE PUSH1 0x6 DUP4 MSTORE PUSH1 0x40 PUSH1 0x0 KECCAK256 PUSH1 0x24 CALLDATALOAD PUSH1 0x0 MSTORE DUP4 MSTORE PUSH1 0x40 PUSH1 0x0 KECCAK256 SWAP1 PUSH1 0x0 MSTORE DUP3 MSTORE PUSH1 0x40 PUSH1 0x0 KECCAK256 PUSH1 0x40 MLOAD SWAP2 PUSH2 0x6AE DUP4 PUSH2 0x5581 JUMP JUMPDEST DUP2 SLOAD SWAP1 DUP2 AND SWAP4 DUP5 DUP5 MSTORE PUSH1 0xFF DUP2 DUP6 ADD SWAP3 PUSH1 0xA0 SHR AND ISZERO ISZERO DUP3 MSTORE PUSH1 0x1 DUP4 ADD SLOAD PUSH1 0x40 DUP6 ADD SWAP1 DUP2 MSTORE PUSH1 0x2 DUP5 ADD SLOAD SWAP1 PUSH1 0x60 DUP7 ADD SWAP2 DUP3 MSTORE PUSH1 0xFF PUSH1 0x3 DUP7 ADD SLOAD AND SWAP3 PUSH1 0x80 DUP8 ADD SWAP4 ISZERO ISZERO DUP5 MSTORE PUSH1 0x4 DUP7 ADD SLOAD SWAP5 PUSH1 0xA0 DUP9 ADD SWAP6 DUP7 MSTORE PUSH1 0xE0 PUSH1 0xFF PUSH1 0x6 PUSH1 0x5 DUP11 ADD SLOAD SWAP10 PUSH1 0xC0 DUP13 ADD SWAP11 DUP12 MSTORE ADD SLOAD AND SWAP9 ADD SWAP8 ISZERO ISZERO DUP9 MSTORE PUSH1 0x40 MLOAD SWAP9 DUP10 MSTORE MLOAD ISZERO ISZERO SWAP1 DUP9 ADD MSTORE MLOAD PUSH1 0x40 DUP8 ADD MSTORE MLOAD PUSH1 0x60 DUP7 ADD MSTORE MLOAD ISZERO ISZERO PUSH1 0x80 DUP6 ADD MSTORE MLOAD PUSH1 0xA0 DUP5 ADD MSTORE MLOAD PUSH1 0xC0 DUP4 ADD MSTORE MLOAD ISZERO ISZERO PUSH1 0xE0 DUP3 ADD MSTORE RETURN JUMPDEST CALLVALUE PUSH2 0x60D JUMPI PUSH1 0x60 CALLDATASIZE PUSH1 0x3 NOT ADD SLT PUSH2 0x60D JUMPI PUSH1 0x4 CALLDATALOAD PUSH1 0x0 MSTORE PUSH1 0x5 PUSH1 0x20 MSTORE PUSH1 0x40 PUSH1 0x0 KECCAK256 PUSH1 0x24 CALLDATALOAD PUSH1 0x0 MSTORE PUSH1 0x20 MSTORE PUSH1 0x40 PUSH1 0x0 KECCAK256 PUSH1 0x44 CALLDATALOAD PUSH1 0x0 MSTORE PUSH1 0x20 MSTORE PUSH1 0x20 PUSH1 0x40 PUSH1 0x0 KECCAK256 SLOAD PUSH1 0x40 MLOAD SWAP1 DUP2 MSTORE RETURN JUMPDEST CALLVALUE PUSH2 0x60D JUMPI PUSH1 0x40 CALLDATASIZE PUSH1 0x3 NOT ADD SLT PUSH2 0x60D JUMPI PUSH1 0x4 CALLDATALOAD DUP1 PUSH1 0x0 MSTORE PUSH1 0x20 PUSH1 0x4 DUP2 MSTORE PUSH1 0x40 PUSH1 0x0 KECCAK256 PUSH1 0x6 DUP3 MSTORE PUSH1 0x40 PUSH1 0x0 KECCAK256 SWAP2 PUSH1 0x13 DUP3 ADD SWAP1 DUP2 SLOAD SWAP4 DUP5 PUSH1 0x0 MSTORE DUP2 MSTORE PUSH1 0x40 PUSH1 0x0 KECCAK256 CALLER PUSH1 0x0 MSTORE DUP2 MSTORE PUSH1 0x40 PUSH1 0x0 KECCAK256 PUSH1 0x14 DUP5 ADD SWAP5 PUSH1 0xFF DUP7 SLOAD AND PUSH1 0x9 DUP2 LT ISZERO PUSH2 0x5F7 JUMPI PUSH1 0x3 SUB PUSH2 0x954 JUMPI DUP7 PUSH1 0x0 MSTORE PUSH1 0x5 DUP4 MSTORE PUSH1 0x40 PUSH1 0x0 KECCAK256 DUP2 PUSH1 0x0 MSTORE DUP4 MSTORE PUSH1 0x7 PUSH1 0x40 PUSH1 0x0 KECCAK256 ADD SLOAD TIMESTAMP GT PUSH2 0x916 JUMPI DUP7 PUSH1 0x0 MSTORE PUSH1 0x5 DUP4 MSTORE PUSH1 0x40 PUSH1 0x0 KECCAK256 DUP2 PUSH1 0x0 MSTORE DUP4 MSTORE PUSH1 0x3 PUSH1 0x40 PUSH1 0x0 KECCAK256 ADD CALLER PUSH1 0x0 MSTORE DUP4 MSTORE PUSH2 0x852 PUSH1 0xFF PUSH1 0x40 PUSH1 0x0 KECCAK256 SLOAD AND PUSH2 0x6014 JUMP JUMPDEST DUP7 PUSH1 0x0 MSTORE PUSH1 0x5 DUP4 MSTORE PUSH1 0x40 PUSH1 0x0 KECCAK256 SWAP1 PUSH1 0x0 MSTORE DUP3 MSTORE PUSH1 0x1 PUSH1 0x40 PUSH1 0x0 KECCAK256 ADD CALLER PUSH1 0x0 MSTORE DUP3 MSTORE PUSH2 0x884 PUSH1 0xFF PUSH1 0x40 PUSH1 0x0 KECCAK256 SLOAD AND PUSH2 0x5FD2 JUMP JUMPDEST PUSH1 0x4 PUSH1 0x24 CALLDATALOAD SWAP2 ADD SSTORE DUP5 PUSH1 0x0 MSTORE PUSH1 0x5 DUP2 MSTORE PUSH1 0x40 PUSH1 0x0 KECCAK256 DUP3 SLOAD PUSH1 0x0 MSTORE DUP2 MSTORE PUSH1 0xD PUSH1 0x40 PUSH1 0x0 KECCAK256 ADD PUSH2 0x8B2 DUP2 SLOAD PUSH2 0x5957 JUMP JUMPDEST SWAP1 SSTORE DUP5 PUSH1 0x0 MSTORE PUSH1 0x5 DUP2 MSTORE PUSH1 0x40 PUSH1 0x0 KECCAK256 SWAP2 SLOAD PUSH1 0x0 MSTORE MSTORE PUSH1 0xC PUSH1 0xD PUSH1 0x40 PUSH1 0x0 KECCAK256 ADD SLOAD SWAP2 ADD SLOAD EQ PUSH2 0x905 JUMPI JUMPDEST POP CALLER SWAP1 PUSH32 0x22D30F6DA93667100B64D15E5EA70AFEC217CAEAB1008706F57BFA4DEED12C63 PUSH1 0x0 DUP1 LOG3 STOP JUMPDEST DUP1 SLOAD PUSH1 0xFF NOT AND PUSH1 0x4 OR SWAP1 SSTORE DUP2 PUSH2 0x8DB JUMP JUMPDEST PUSH1 0x40 MLOAD PUSH3 0x461BCD PUSH1 0xE5 SHL DUP2 MSTORE PUSH1 0x4 DUP2 ADD DUP5 SWAP1 MSTORE PUSH1 0x16 PUSH1 0x24 DUP3 ADD MSTORE PUSH22 0x10DBDB5B5A5D1B595B9D081C1A185CD948195B991959 PUSH1 0x52 SHL PUSH1 0x44 DUP3 ADD MSTORE PUSH1 0x64 SWAP1 REVERT JUMPDEST PUSH1 0x40 MLOAD PUSH3 0x461BCD PUSH1 0xE5 SHL DUP2 MSTORE PUSH1 0x4 DUP2 ADD DUP5 SWAP1 MSTORE PUSH1 0x23 PUSH1 0x24 DUP3 ADD MSTORE PUSH32 0x52657175657374206E6F742079657420696E20636F6D6D69746D656E74207374 PUSH1 0x44 DUP3 ADD MSTORE PUSH3 0x617465 PUSH1 0xE8 SHL PUSH1 0x64 DUP3 ADD MSTORE PUSH1 0x84 SWAP1 REVERT JUMPDEST CALLVALUE PUSH2 0x60D JUMPI PUSH1 0x20 CALLDATASIZE PUSH1 0x3 NOT ADD SLT PUSH2 0x60D JUMPI PUSH1 0x1 PUSH1 0x1 PUSH1 0xA0 SHL SUB PUSH2 0x9C6 PUSH2 0x554F JUMP JUMPDEST AND PUSH1 0x0 MSTORE PUSH1 0xA PUSH1 0x20 MSTORE PUSH1 0x20 PUSH1 0x40 PUSH1 0x0 KECCAK256 SLOAD PUSH1 0x40 MLOAD SWAP1 DUP2 MSTORE RETURN JUMPDEST CALLVALUE PUSH2 0x60D JUMPI PUSH2 0x9ED CALLDATASIZE PUSH2 0x56FD JUMP JUMPDEST DUP2 PUSH1 0x0 MSTORE PUSH1 0x20 SWAP2 PUSH1 0x4 DUP4 MSTORE PUSH1 0x40 PUSH1 0x0 KECCAK256 PUSH1 0x5 DUP5 MSTORE PUSH1 0x40 PUSH1 0x0 KECCAK256 DUP4 PUSH1 0x0 MSTORE DUP5 MSTORE PUSH1 0x2 PUSH1 0x40 PUSH1 0x0 KECCAK256 ADD CALLER PUSH1 0x0 MSTORE DUP5 MSTORE PUSH1 0xFF PUSH1 0x40 PUSH1 0x0 KECCAK256 SLOAD AND ISZERO PUSH2 0xC33 JUMPI PUSH1 0x9 DUP2 ADD SLOAD PUSH1 0x10 DUP3 ADD SLOAD DUP1 PUSH1 0x3 MUL SWAP1 PUSH1 0x3 DUP3 DIV SUB PUSH2 0xC1D JUMPI PUSH2 0xA4A SWAP1 TIMESTAMP PUSH2 0x58D9 JUMP JUMPDEST GT ISZERO PUSH2 0xBB2 JUMPI PUSH1 0xFF PUSH1 0x14 DUP3 ADD SLOAD AND PUSH1 0x9 DUP2 LT ISZERO PUSH2 0x5F7 JUMPI PUSH1 0x2 SUB PUSH2 0xB59 JUMPI DUP4 PUSH2 0xADB PUSH1 0x0 SWAP3 DUP5 DUP5 MSTORE PUSH1 0x6 DUP4 MSTORE PUSH1 0x40 DUP5 KECCAK256 DUP7 DUP6 MSTORE DUP4 MSTORE PUSH1 0x40 DUP5 KECCAK256 CALLER DUP6 MSTORE DUP4 MSTORE PUSH2 0xA9C PUSH1 0xFF PUSH1 0x6 PUSH1 0x40 DUP8 KECCAK256 ADD SLOAD AND ISZERO PUSH2 0x5F92 JUMP JUMPDEST DUP4 SLOAD PUSH1 0x16 SWAP2 SWAP1 SWAP2 ADD SLOAD PUSH1 0x40 MLOAD PUSH4 0xA9059CBB PUSH1 0xE0 SHL DUP2 MSTORE CALLER PUSH1 0x4 DUP3 ADD MSTORE PUSH1 0x24 DUP2 ADD SWAP2 SWAP1 SWAP2 MSTORE SWAP4 DUP5 SWAP3 PUSH1 0x1 PUSH1 0x1 PUSH1 0xA0 SHL SUB SWAP1 SWAP3 AND SWAP2 DUP4 SWAP2 SWAP1 DUP3 SWAP1 PUSH1 0x44 DUP3 ADD SWAP1 JUMP JUMPDEST SUB SWAP3 GAS CALL DUP1 ISZERO PUSH2 0xB4D JUMPI PUSH2 0xB20 JUMPI JUMPDEST POP PUSH1 0x0 MSTORE PUSH1 0x6 DUP3 MSTORE PUSH1 0x40 PUSH1 0x0 KECCAK256 SWAP1 PUSH1 0x0 MSTORE DUP2 MSTORE PUSH1 0x40 PUSH1 0x0 KECCAK256 SWAP1 CALLER PUSH1 0x0 MSTORE MSTORE PUSH1 0x6 PUSH1 0x40 PUSH1 0x0 KECCAK256 ADD PUSH1 0x1 PUSH1 0xFF NOT DUP3 SLOAD AND OR SWAP1 SSTORE PUSH1 0x0 DUP1 RETURN JUMPDEST PUSH2 0xB3F SWAP1 DUP5 RETURNDATASIZE DUP7 GT PUSH2 0xB46 JUMPI JUMPDEST PUSH2 0xB37 DUP2 DUP4 PUSH2 0x55EF JUMP JUMPDEST DUP2 ADD SWAP1 PUSH2 0x5910 JUMP JUMPDEST POP DUP4 PUSH2 0xAEA JUMP JUMPDEST POP RETURNDATASIZE PUSH2 0xB2D JUMP JUMPDEST PUSH1 0x40 MLOAD RETURNDATASIZE PUSH1 0x0 DUP3 RETURNDATACOPY RETURNDATASIZE SWAP1 REVERT JUMPDEST PUSH1 0x40 MLOAD PUSH3 0x461BCD PUSH1 0xE5 SHL DUP2 MSTORE PUSH1 0x4 DUP2 ADD DUP6 SWAP1 MSTORE PUSH1 0x2B PUSH1 0x24 DUP3 ADD MSTORE PUSH32 0x52657175657374204D75737420626520696E2063686F6F73696E672076657269 PUSH1 0x44 DUP3 ADD MSTORE PUSH11 0x6669657273207374617465 PUSH1 0xA8 SHL PUSH1 0x64 DUP3 ADD MSTORE PUSH1 0x84 SWAP1 REVERT JUMPDEST PUSH1 0x40 MLOAD PUSH3 0x461BCD PUSH1 0xE5 SHL DUP2 MSTORE PUSH1 0x4 DUP2 ADD DUP6 SWAP1 MSTORE PUSH1 0x3F PUSH1 0x24 DUP3 ADD MSTORE PUSH32 0x5374696C6C20656E6F7567682074696D6520746F20706572666F726D20726F75 PUSH1 0x44 DUP3 ADD MSTORE PUSH32 0x6E64206265666F726520766572696669636174696F6E20646561646C696E6500 PUSH1 0x64 DUP3 ADD MSTORE PUSH1 0x84 SWAP1 REVERT JUMPDEST PUSH4 0x4E487B71 PUSH1 0xE0 SHL PUSH1 0x0 MSTORE PUSH1 0x11 PUSH1 0x4 MSTORE PUSH1 0x24 PUSH1 0x0 REVERT JUMPDEST PUSH1 0x40 MLOAD PUSH3 0x461BCD PUSH1 0xE5 SHL DUP2 MSTORE PUSH1 0x4 DUP2 ADD DUP6 SWAP1 MSTORE PUSH1 0x27 PUSH1 0x24 DUP3 ADD MSTORE PUSH32 0x596F7520617265206E6F742074686520766572696669657220666F7220746869 PUSH1 0x44 DUP3 ADD MSTORE PUSH7 0x1CC81C9BDD5B99 PUSH1 0xCA SHL PUSH1 0x64 DUP3 ADD MSTORE PUSH1 0x84 SWAP1 REVERT JUMPDEST CALLVALUE PUSH2 0x60D JUMPI PUSH1 0x20 DUP1 PUSH1 0x3 NOT CALLDATASIZE ADD SLT PUSH2 0x60D JUMPI PUSH1 0x4 CALLDATALOAD SWAP1 DUP2 PUSH1 0x0 MSTORE PUSH1 0x4 DUP2 MSTORE PUSH1 0x40 PUSH1 0x0 KECCAK256 SWAP1 PUSH2 0xCBC PUSH1 0x8 DUP4 ADD SLOAD TIMESTAMP GT ISZERO PUSH2 0x5C75 JUMP JUMPDEST PUSH1 0xF DUP3 ADD DUP1 SLOAD PUSH1 0x1 PUSH1 0x1 PUSH1 0xA0 SHL SUB SWAP4 SWAP1 DUP5 AND PUSH2 0xFA4 JUMPI PUSH1 0x15 DUP2 ADD SLOAD PUSH1 0x0 SLOAD PUSH1 0x40 MLOAD PUSH4 0x6EB1769F PUSH1 0xE1 SHL DUP2 MSTORE CALLER PUSH1 0x4 DUP3 ADD MSTORE ADDRESS PUSH1 0x24 DUP3 ADD MSTORE SWAP2 SWAP3 SWAP2 SWAP1 DUP7 AND DUP6 DUP3 PUSH1 0x44 DUP2 DUP5 GAS STATICCALL SWAP2 DUP3 ISZERO PUSH2 0xB4D JUMPI PUSH1 0x0 SWAP3 PUSH2 0xF75 JUMPI JUMPDEST POP PUSH1 0x40 MLOAD PUSH4 0x70A08231 PUSH1 0xE0 SHL DUP2 MSTORE CALLER PUSH1 0x4 DUP3 ADD MSTORE SWAP2 DUP7 DUP4 PUSH1 0x24 DUP2 DUP6 GAS STATICCALL SWAP1 DUP2 ISZERO PUSH2 0xB4D JUMPI DUP8 SWAP4 PUSH1 0x0 SWAP3 PUSH2 0xF41 JUMPI JUMPDEST POP SWAP5 PUSH2 0xD5E DUP2 PUSH2 0xD8E SWAP5 SWAP4 PUSH2 0xD57 DUP3 PUSH1 0x0 SWAP11 LT ISZERO PUSH2 0x5CC1 JUMP JUMPDEST LT ISZERO PUSH2 0x5CC1 JUMP JUMPDEST PUSH1 0x40 MLOAD PUSH4 0x23B872DD PUSH1 0xE0 SHL DUP2 MSTORE CALLER PUSH1 0x4 DUP3 ADD MSTORE ADDRESS PUSH1 0x24 DUP3 ADD MSTORE PUSH1 0x44 DUP2 ADD SWAP2 SWAP1 SWAP2 MSTORE SWAP5 DUP6 SWAP3 DUP4 SWAP2 SWAP1 DUP3 SWAP1 PUSH1 0x64 DUP3 ADD SWAP1 JUMP JUMPDEST SUB SWAP3 GAS CALL SWAP2 DUP3 ISZERO PUSH2 0xB4D JUMPI PUSH1 0x0 SWAP3 PUSH2 0xDAD SWAP2 DUP5 SWAP2 PUSH2 0xF24 JUMPI JUMPDEST POP PUSH2 0x5CC1 JUMP JUMPDEST PUSH1 0x1 PUSH1 0x1 PUSH1 0x60 SHL SUB PUSH1 0xA0 SHL SWAP3 CALLER DUP5 DUP3 SLOAD AND OR SWAP1 SSTORE PUSH1 0x14 DUP2 ADD PUSH1 0x1 PUSH1 0xFF NOT DUP3 SLOAD AND OR SWAP1 SSTORE DUP4 DUP6 PUSH1 0x1 SLOAD AND PUSH1 0x24 PUSH1 0x40 MLOAD DUP1 SWAP6 DUP2 SWAP4 PUSH4 0x35313C21 PUSH1 0xE1 SHL DUP4 MSTORE CALLER PUSH1 0x4 DUP5 ADD MSTORE GAS CALL SWAP2 DUP3 ISZERO PUSH2 0xB4D JUMPI PUSH1 0x0 SWAP3 PUSH2 0xEF4 JUMPI JUMPDEST POP PUSH1 0x1 ADD SLOAD SWAP1 PUSH1 0x40 MLOAD SWAP3 PUSH1 0xA0 DUP5 ADD SWAP6 DUP5 DUP8 LT PUSH1 0x1 PUSH1 0x1 PUSH1 0x40 SHL SUB DUP9 GT OR PUSH2 0xEDE JUMPI PUSH1 0x3 PUSH2 0xE94 SWAP6 PUSH1 0xC SWAP9 PUSH1 0x40 MSTORE DUP5 DUP2 MSTORE DUP8 DUP2 ADD SWAP6 DUP7 MSTORE PUSH1 0x40 DUP2 ADD DUP11 DUP2 MSTORE PUSH1 0x60 DUP3 ADD SWAP7 CALLER DUP9 MSTORE PUSH1 0x80 DUP4 ADD SWAP7 PUSH1 0x0 DUP9 MSTORE PUSH1 0x0 MSTORE PUSH1 0x8 DUP11 MSTORE PUSH1 0x40 PUSH1 0x0 KECCAK256 SWAP3 MLOAD DUP4 SSTORE MLOAD PUSH1 0x1 DUP4 ADD SSTORE MLOAD PUSH1 0x2 DUP3 ADD SSTORE ADD SWAP4 MLOAD AND SWAP1 DUP4 SLOAD AND OR DUP3 SSTORE MLOAD ISZERO ISZERO DUP2 SLOAD SWAP1 PUSH1 0xFF PUSH1 0xA0 SHL SWAP1 ISZERO ISZERO PUSH1 0xA0 SHL AND SWAP1 PUSH1 0xFF PUSH1 0xA0 SHL NOT AND OR SWAP1 SSTORE JUMP JUMPDEST PUSH1 0x9 DUP2 MSTORE DUP3 PUSH1 0x40 PUSH1 0x0 KECCAK256 SSTORE CALLER PUSH1 0x0 MSTORE MSTORE PUSH1 0x40 PUSH1 0x0 KECCAK256 PUSH2 0xEB3 DUP2 SLOAD PUSH2 0x5957 JUMP JUMPDEST SWAP1 SSTORE CALLER SWAP1 PUSH32 0x3C84569AE9BE7C8E6E8EDF0C0CBEB7E00CF9CB4D9B67849728BE8AB96E09BEC1 PUSH1 0x0 DUP1 LOG3 STOP JUMPDEST PUSH4 0x4E487B71 PUSH1 0xE0 SHL PUSH1 0x0 MSTORE PUSH1 0x41 PUSH1 0x4 MSTORE PUSH1 0x24 PUSH1 0x0 REVERT JUMPDEST SWAP1 SWAP2 POP DUP4 DUP2 DUP2 RETURNDATASIZE DUP4 GT PUSH2 0xF1D JUMPI JUMPDEST PUSH2 0xF0C DUP2 DUP4 PUSH2 0x55EF JUMP JUMPDEST DUP2 ADD SUB SLT PUSH2 0x60D JUMPI MLOAD SWAP1 PUSH1 0x1 PUSH2 0xE00 JUMP JUMPDEST POP RETURNDATASIZE PUSH2 0xF02 JUMP JUMPDEST PUSH2 0xF3B SWAP2 POP DUP7 RETURNDATASIZE DUP9 GT PUSH2 0xB46 JUMPI PUSH2 0xB37 DUP2 DUP4 PUSH2 0x55EF JUMP JUMPDEST DUP9 PUSH2 0xDA7 JUMP JUMPDEST DUP1 SWAP4 SWAP3 POP DUP5 SWAP2 SWAP5 RETURNDATASIZE DUP4 GT PUSH2 0xF6E JUMPI JUMPDEST PUSH2 0xF5A DUP2 DUP4 PUSH2 0x55EF JUMP JUMPDEST DUP2 ADD SUB SLT PUSH2 0x60D JUMPI SWAP1 MLOAD DUP7 SWAP3 PUSH2 0xD5E PUSH2 0xD3E JUMP JUMPDEST POP RETURNDATASIZE PUSH2 0xF50 JUMP JUMPDEST SWAP1 SWAP2 POP DUP6 DUP2 DUP2 RETURNDATASIZE DUP4 GT PUSH2 0xF9D JUMPI JUMPDEST PUSH2 0xF8D DUP2 DUP4 PUSH2 0x55EF JUMP JUMPDEST DUP2 ADD SUB SLT PUSH2 0x60D JUMPI MLOAD SWAP1 DUP9 PUSH2 0xD10 JUMP JUMPDEST POP RETURNDATASIZE PUSH2 0xF83 JUMP JUMPDEST PUSH1 0x40 MLOAD PUSH3 0x461BCD PUSH1 0xE5 SHL DUP2 MSTORE PUSH1 0x4 DUP2 ADD DUP5 SWAP1 MSTORE PUSH1 0x19 PUSH1 0x24 DUP3 ADD MSTORE PUSH32 0x50726F766964657220616C72656164792073656C656374656400000000000000 PUSH1 0x44 DUP3 ADD MSTORE PUSH1 0x64 SWAP1 REVERT JUMPDEST CALLVALUE PUSH2 0x60D JUMPI PUSH2 0x1C0 CALLDATASIZE PUSH1 0x3 NOT ADD SLT PUSH2 0x60D JUMPI PUSH1 0x84 CALLDATALOAD PUSH1 0x1 PUSH1 0x1 PUSH1 0x40 SHL SUB DUP2 GT PUSH2 0x60D JUMPI PUSH2 0x101A SWAP1 CALLDATASIZE SWAP1 PUSH1 0x4 ADD PUSH2 0x567D JUMP JUMPDEST PUSH1 0xA4 CALLDATALOAD PUSH1 0x1 PUSH1 0x1 PUSH1 0x40 SHL SUB DUP2 GT PUSH2 0x60D JUMPI PUSH2 0x1039 SWAP1 CALLDATASIZE SWAP1 PUSH1 0x4 ADD PUSH2 0x5627 JUMP JUMPDEST PUSH1 0x2 SLOAD SWAP2 PUSH2 0x104C PUSH2 0x164 CALLDATALOAD PUSH1 0x44 CALLDATALOAD PUSH2 0x58D9 JUMP JUMPDEST PUSH1 0x0 NOT DUP2 ADD SWAP1 DUP2 GT PUSH2 0xC1D JUMPI PUSH2 0x1066 SWAP1 PUSH2 0x164 CALLDATALOAD SWAP1 PUSH2 0x58F3 JUMP JUMPDEST SWAP2 PUSH2 0x107F DUP4 PUSH2 0x107A PUSH2 0x124 CALLDATALOAD PUSH1 0x24 CALLDATALOAD PUSH2 0x58FD JUMP JUMPDEST PUSH2 0x58FD JUMP JUMPDEST SWAP4 PUSH2 0x108C DUP6 PUSH1 0x4 CALLDATALOAD PUSH2 0x58D9 JUMP JUMPDEST PUSH1 0x0 SLOAD PUSH1 0x40 MLOAD PUSH4 0x6EB1769F PUSH1 0xE1 SHL DUP2 MSTORE CALLER PUSH1 0x4 DUP3 ADD MSTORE ADDRESS PUSH1 0x24 DUP3 ADD MSTORE SWAP2 SWAP3 SWAP2 PUSH1 0x1 PUSH1 0x1 PUSH1 0xA0 SHL SUB SWAP1 SWAP2 AND SWAP1 PUSH1 0x20 DUP2 PUSH1 0x44 DUP2 DUP6 GAS STATICCALL SWAP1 DUP2 ISZERO PUSH2 0xB4D JUMPI PUSH1 0x0 SWAP2 PUSH2 0x1D58 JUMPI JUMPDEST POP PUSH1 0x40 MLOAD PUSH4 0x70A08231 PUSH1 0xE0 SHL DUP2 MSTORE CALLER PUSH1 0x4 DUP3 ADD MSTORE PUSH1 0x20 DUP2 PUSH1 0x24 DUP2 DUP7 GAS STATICCALL SWAP2 DUP3 ISZERO PUSH2 0xB4D JUMPI DUP6 SWAP2 PUSH1 0x0 SWAP4 PUSH2 0x1D21 JUMPI JUMPDEST POP LT PUSH2 0x1CC0 JUMPI DUP4 GT PUSH2 0x1C61 JUMPI PUSH1 0x40 MLOAD PUSH4 0x23B872DD PUSH1 0xE0 SHL DUP2 MSTORE CALLER PUSH1 0x4 DUP3 ADD MSTORE ADDRESS PUSH1 0x24 DUP3 ADD MSTORE PUSH1 0x44 DUP2 ADD DUP5 SWAP1 MSTORE SWAP1 PUSH1 0x20 SWAP1 DUP3 SWAP1 PUSH1 0x64 SWAP1 DUP3 SWAP1 PUSH1 0x0 SWAP1 GAS CALL SWAP1 DUP2 ISZERO PUSH2 0xB4D JUMPI PUSH1 0x0 SWAP2 PUSH2 0x1C42 JUMPI JUMPDEST POP ISZERO PUSH2 0x1C0C JUMPI TIMESTAMP PUSH1 0xC4 CALLDATALOAD GT ISZERO PUSH2 0x1BA1 JUMPI PUSH2 0x104 CALLDATALOAD PUSH1 0x3 PUSH2 0x104 CALLDATALOAD MUL DIV PUSH1 0x3 EQ PUSH2 0x104 CALLDATALOAD ISZERO OR ISZERO PUSH2 0xC1D JUMPI PUSH2 0x118D PUSH2 0x1185 PUSH1 0x3 PUSH2 0x104 CALLDATALOAD MUL DUP8 PUSH2 0x58FD JUMP JUMPDEST PUSH1 0xC4 CALLDATALOAD PUSH2 0x58D9 JUMP JUMPDEST PUSH1 0xE4 CALLDATALOAD GT ISZERO PUSH2 0x1B26 JUMPI PUSH2 0x124 CALLDATALOAD PUSH1 0x64 CALLDATALOAD LT PUSH2 0x1A95 JUMPI PUSH1 0x3 SLOAD PUSH1 0x0 MSTORE PUSH1 0xD PUSH1 0x20 MSTORE PUSH4 0x765A4A7A PUSH1 0x40 PUSH1 0x0 KECCAK256 SWAP2 PUSH5 0x100000000 PUSH1 0x1 PUSH1 0xC0 SHL SUB SWAP1 PUSH1 0x20 SHL AND PUSH1 0x1 PUSH1 0x1 PUSH1 0x40 SHL SUB PUSH1 0xC0 SHL DUP4 SLOAD AND OR OR SWAP1 SSTORE PUSH1 0x40 MLOAD PUSH2 0x11E7 DUP2 PUSH2 0x55D4 JUMP JUMPDEST PUSH1 0x0 DUP2 MSTORE PUSH1 0x40 MLOAD SWAP3 PUSH2 0x11F8 DUP5 PUSH2 0x55D4 JUMP JUMPDEST PUSH1 0x0 DUP5 MSTORE PUSH1 0x40 MLOAD SWAP5 PUSH2 0x1209 DUP7 PUSH2 0x55D4 JUMP JUMPDEST PUSH1 0x0 DUP7 MSTORE PUSH1 0x40 MLOAD SWAP8 PUSH2 0x121A DUP10 PUSH2 0x559D JUMP JUMPDEST CALLER DUP10 MSTORE PUSH1 0x4 CALLDATALOAD PUSH1 0x20 DUP11 ADD MSTORE PUSH1 0x40 DUP10 ADD MSTORE PUSH1 0x44 CALLDATALOAD PUSH1 0x60 DUP10 ADD MSTORE PUSH1 0x64 CALLDATALOAD PUSH1 0x80 DUP10 ADD MSTORE PUSH1 0xA0 DUP9 ADD MSTORE PUSH1 0xC0 DUP8 ADD MSTORE PUSH1 0xE0 DUP7 ADD MSTORE PUSH1 0xC4 CALLDATALOAD PUSH2 0x100 DUP7 ADD MSTORE PUSH1 0xE4 CALLDATALOAD PUSH2 0x120 DUP7 ADD MSTORE PUSH2 0x140 DUP6 ADD MSTORE PUSH1 0x0 PUSH2 0x160 DUP6 ADD MSTORE PUSH1 0x0 PUSH2 0x180 DUP6 ADD MSTORE PUSH2 0x124 CALLDATALOAD PUSH2 0x1A0 DUP6 ADD MSTORE PUSH2 0x1C0 DUP5 ADD MSTORE PUSH2 0x1E0 DUP4 ADD MSTORE PUSH1 0x0 PUSH2 0x200 DUP4 ADD MSTORE PUSH2 0x104 CALLDATALOAD PUSH2 0x220 DUP4 ADD MSTORE PUSH2 0x240 DUP3 ADD MSTORE PUSH1 0x0 PUSH2 0x260 DUP3 ADD MSTORE PUSH1 0x0 PUSH2 0x280 DUP3 ADD MSTORE PUSH1 0x0 PUSH2 0x2A0 DUP3 ADD MSTORE PUSH2 0x1A4 CALLDATALOAD PUSH2 0x2C0 DUP3 ADD MSTORE PUSH1 0x24 CALLDATALOAD PUSH2 0x2E0 DUP3 ADD MSTORE PUSH1 0x0 PUSH2 0x300 DUP3 ADD MSTORE PUSH2 0x144 CALLDATALOAD PUSH2 0x320 DUP3 ADD MSTORE PUSH1 0x0 PUSH2 0x340 DUP3 ADD MSTORE PUSH1 0x0 PUSH2 0x360 DUP3 ADD MSTORE PUSH2 0x164 CALLDATALOAD PUSH2 0x380 DUP3 ADD MSTORE PUSH2 0x184 CALLDATALOAD PUSH2 0x3A0 DUP3 ADD MSTORE PUSH1 0x3 SLOAD PUSH1 0x0 MSTORE PUSH1 0x4 PUSH1 0x20 MSTORE PUSH1 0x40 PUSH1 0x0 KECCAK256 PUSH1 0x1 DUP1 PUSH1 0xA0 SHL SUB DUP3 MLOAD AND PUSH1 0x1 PUSH1 0x1 PUSH1 0x60 SHL SUB PUSH1 0xA0 SHL DUP3 SLOAD AND OR DUP2 SSTORE PUSH1 0x20 DUP3 ADD MLOAD PUSH1 0x1 DUP3 ADD SSTORE PUSH1 0x40 DUP3 ADD MLOAD PUSH1 0x2 DUP3 ADD SSTORE PUSH1 0x60 DUP3 ADD MLOAD PUSH1 0x3 DUP3 ADD SSTORE PUSH1 0x80 DUP3 ADD MLOAD PUSH1 0x4 DUP3 ADD SSTORE PUSH1 0xA0 DUP3 ADD MLOAD DUP1 MLOAD SWAP1 PUSH1 0x1 PUSH1 0x40 SHL DUP3 GT PUSH2 0xEDE JUMPI PUSH1 0x5 DUP4 ADD SLOAD DUP3 PUSH1 0x5 DUP6 ADD SSTORE DUP1 DUP4 LT PUSH2 0x1A1C JUMPI JUMPDEST POP PUSH1 0x20 ADD SWAP1 PUSH1 0x5 DUP4 ADD PUSH1 0x0 MSTORE PUSH1 0x20 PUSH1 0x0 KECCAK256 SWAP2 PUSH1 0x0 SWAP1 JUMPDEST DUP3 DUP3 LT PUSH2 0x18FE JUMPI DUP6 DUP6 PUSH1 0xC0 DUP3 ADD MLOAD SWAP2 DUP3 MLOAD PUSH1 0x1 PUSH1 0x1 PUSH1 0x40 SHL SUB DUP2 GT PUSH2 0xEDE JUMPI PUSH2 0x13BB PUSH1 0x6 DUP5 ADD SLOAD PUSH2 0x5713 JUMP JUMPDEST PUSH1 0x1F DUP2 GT PUSH2 0x18C9 JUMPI JUMPDEST POP PUSH1 0x20 PUSH1 0x1F DUP3 GT PUSH1 0x1 EQ PUSH2 0x185B JUMPI DUP2 SWAP3 SWAP4 SWAP5 PUSH1 0x0 SWAP3 PUSH2 0x1850 JUMPI JUMPDEST POP POP DUP2 PUSH1 0x1 SHL SWAP2 PUSH1 0x0 NOT SWAP1 PUSH1 0x3 SHL SHR NOT AND OR PUSH1 0x6 DUP4 ADD SSTORE JUMPDEST PUSH1 0xE0 DUP2 ADD MLOAD DUP1 MLOAD SWAP1 PUSH1 0x1 PUSH1 0x40 SHL DUP3 GT PUSH2 0xEDE JUMPI PUSH1 0x7 DUP5 ADD SLOAD DUP3 PUSH1 0x7 DUP7 ADD SSTORE DUP1 DUP4 LT PUSH2 0x17D8 JUMPI JUMPDEST POP PUSH1 0x20 ADD SWAP1 PUSH1 0x7 DUP5 ADD PUSH1 0x0 MSTORE PUSH1 0x20 PUSH1 0x0 KECCAK256 SWAP2 PUSH1 0x0 SWAP1 JUMPDEST DUP3 DUP3 LT PUSH2 0x16B8 JUMPI DUP6 DUP6 PUSH2 0x100 DUP2 ADD MLOAD PUSH1 0x8 DUP4 ADD SSTORE PUSH2 0x120 DUP2 ADD MLOAD PUSH1 0x9 DUP4 ADD SSTORE PUSH2 0x140 DUP2 ADD MLOAD PUSH1 0xA DUP4 ADD SSTORE PUSH2 0x149C PUSH1 0xB DUP4 ADD PUSH2 0x1480 PUSH2 0x160 DUP5 ADD MLOAD ISZERO ISZERO DUP3 SWAP1 PUSH1 0xFF DUP1 NOT DUP4 SLOAD AND SWAP2 ISZERO ISZERO AND OR SWAP1 SSTORE JUMP JUMPDEST PUSH2 0x180 DUP4 ADD MLOAD DUP2 SLOAD PUSH2 0xFF00 NOT AND SWAP1 ISZERO ISZERO PUSH1 0x8 SHL PUSH2 0xFF00 AND OR SWAP1 SSTORE JUMP JUMPDEST PUSH2 0x1A0 DUP2 ADD MLOAD PUSH1 0xC DUP4 ADD SSTORE PUSH2 0x1C0 DUP2 ADD MLOAD DUP1 MLOAD SWAP1 PUSH1 0x1 PUSH1 0x1 PUSH1 0x40 SHL SUB DUP3 GT PUSH2 0xEDE JUMPI PUSH1 0x1 PUSH1 0x40 SHL DUP3 GT PUSH2 0xEDE JUMPI PUSH1 0x20 SWAP1 PUSH1 0xD DUP6 ADD SLOAD DUP4 PUSH1 0xD DUP8 ADD SSTORE DUP1 DUP5 LT PUSH2 0x1698 JUMPI JUMPDEST POP ADD PUSH1 0xD DUP5 ADD PUSH1 0x0 MSTORE PUSH1 0x20 PUSH1 0x0 KECCAK256 PUSH1 0x0 JUMPDEST DUP4 DUP2 LT PUSH2 0x167B JUMPI DUP6 DUP6 PUSH2 0x1E0 DUP2 ADD MLOAD DUP1 MLOAD SWAP1 PUSH1 0x1 PUSH1 0x1 PUSH1 0x40 SHL SUB DUP3 GT PUSH2 0xEDE JUMPI PUSH1 0x1 PUSH1 0x40 SHL DUP3 GT PUSH2 0xEDE JUMPI PUSH1 0x20 PUSH1 0xE DUP6 ADD SWAP2 DUP3 SLOAD DUP5 DUP5 SSTORE DUP1 DUP6 LT PUSH2 0x165E JUMPI JUMPDEST POP ADD SWAP1 PUSH1 0x0 MSTORE PUSH1 0x20 PUSH1 0x0 KECCAK256 PUSH1 0x0 JUMPDEST DUP4 DUP2 LT PUSH2 0x1641 JUMPI DUP6 DUP6 PUSH1 0xF DUP3 ADD PUSH1 0x1 DUP1 PUSH1 0xA0 SHL SUB PUSH2 0x200 DUP4 ADD MLOAD AND PUSH1 0x1 PUSH1 0x1 PUSH1 0x60 SHL SUB PUSH1 0xA0 SHL DUP3 SLOAD AND OR SWAP1 SSTORE PUSH2 0x220 DUP2 ADD MLOAD PUSH1 0x10 DUP4 ADD SSTORE PUSH2 0x240 DUP2 ADD MLOAD PUSH1 0x11 DUP4 ADD SSTORE PUSH2 0x260 DUP2 ADD MLOAD PUSH1 0x12 DUP4 ADD SSTORE PUSH2 0x280 DUP2 ADD MLOAD PUSH1 0x13 DUP4 ADD SSTORE PUSH2 0x2A0 DUP2 ADD MLOAD PUSH1 0x9 DUP2 LT ISZERO PUSH2 0x5F7 JUMPI PUSH1 0x1C SWAP2 PUSH2 0x15B7 PUSH2 0x3A0 SWAP3 PUSH1 0x14 DUP7 ADD PUSH2 0x593F JUMP JUMPDEST PUSH2 0x2C0 DUP2 ADD MLOAD PUSH1 0x15 DUP6 ADD SSTORE PUSH2 0x2E0 DUP2 ADD MLOAD PUSH1 0x16 DUP6 ADD SSTORE PUSH2 0x300 DUP2 ADD MLOAD PUSH1 0x17 DUP6 ADD SSTORE PUSH2 0x320 DUP2 ADD MLOAD PUSH1 0x18 DUP6 ADD SSTORE PUSH2 0x340 DUP2 ADD MLOAD PUSH1 0x19 DUP6 ADD SSTORE PUSH2 0x360 DUP2 ADD MLOAD PUSH1 0x1A DUP6 ADD SSTORE PUSH2 0x380 DUP2 ADD MLOAD PUSH1 0x1B DUP6 ADD SSTORE ADD MLOAD SWAP2 ADD SSTORE PUSH2 0x1614 PUSH1 0x3 SLOAD PUSH2 0x5957 JUMP JUMPDEST DUP1 PUSH1 0x3 SSTORE CALLER SWAP1 PUSH32 0x233BB55FD57B21B8A3D15C9AD8FBBAB435FE4CF2865CC654F6A57D9D4D8CDA54 PUSH1 0x0 DUP1 LOG3 STOP JUMPDEST DUP3 MLOAD PUSH1 0x1 PUSH1 0x1 PUSH1 0xA0 SHL SUB AND DUP2 DUP4 ADD SSTORE PUSH1 0x20 SWAP1 SWAP3 ADD SWAP2 PUSH1 0x1 ADD PUSH2 0x153D JUMP JUMPDEST PUSH2 0x1675 SWAP1 DUP5 PUSH1 0x0 MSTORE DUP6 DUP5 PUSH1 0x0 KECCAK256 SWAP2 DUP3 ADD SWAP2 ADD PUSH2 0x5928 JUMP JUMPDEST DUP7 PUSH2 0x152F JUMP JUMPDEST DUP3 MLOAD PUSH1 0x1 PUSH1 0x1 PUSH1 0xA0 SHL SUB AND DUP2 DUP4 ADD SSTORE PUSH1 0x20 SWAP1 SWAP3 ADD SWAP2 PUSH1 0x1 ADD PUSH2 0x14F0 JUMP JUMPDEST PUSH2 0x16B2 SWAP1 PUSH1 0xD DUP8 ADD PUSH1 0x0 MSTORE DUP5 DUP5 PUSH1 0x0 KECCAK256 SWAP2 DUP3 ADD SWAP2 ADD PUSH2 0x5928 JUMP JUMPDEST DUP6 PUSH2 0x14DF JUMP JUMPDEST DUP1 MLOAD DUP1 MLOAD SWAP1 PUSH1 0x1 PUSH1 0x1 PUSH1 0x40 SHL SUB DUP3 GT PUSH2 0xEDE JUMPI PUSH2 0x16D5 DUP7 SLOAD PUSH2 0x5713 JUMP JUMPDEST PUSH1 0x1F DUP2 GT PUSH2 0x179B JUMPI JUMPDEST POP PUSH1 0x20 SWAP1 PUSH1 0x1F DUP4 GT PUSH1 0x1 EQ PUSH2 0x172B JUMPI SWAP3 DUP3 PUSH1 0x1 SWAP5 SWAP4 PUSH1 0x20 SWAP4 DUP7 SWAP6 PUSH1 0x0 SWAP3 PUSH2 0x1720 JUMPI JUMPDEST POP POP PUSH1 0x0 NOT PUSH1 0x3 DUP4 SWAP1 SHL SHR NOT AND SWAP1 DUP5 SHL OR DUP8 SSTORE JUMPDEST ADD SWAP5 ADD SWAP2 ADD SWAP1 SWAP3 PUSH2 0x1432 JUMP JUMPDEST ADD MLOAD SWAP1 POP DUP12 DUP1 PUSH2 0x1700 JUMP JUMPDEST SWAP1 DUP7 PUSH1 0x0 MSTORE PUSH1 0x20 PUSH1 0x0 KECCAK256 SWAP2 PUSH1 0x0 JUMPDEST PUSH1 0x1F NOT DUP6 AND DUP2 LT PUSH2 0x1783 JUMPI POP DUP4 PUSH1 0x20 SWAP4 PUSH1 0x1 SWAP7 SWAP4 DUP8 SWAP7 SWAP4 DUP8 SWAP5 PUSH1 0x1F NOT DUP2 AND LT PUSH2 0x176A JUMPI JUMPDEST POP POP POP DUP2 SHL ADD DUP8 SSTORE PUSH2 0x1714 JUMP JUMPDEST ADD MLOAD PUSH1 0x0 NOT PUSH1 0xF8 DUP5 PUSH1 0x3 SHL AND SHR NOT AND SWAP1 SSTORE DUP12 DUP1 DUP1 PUSH2 0x175D JUMP JUMPDEST SWAP2 SWAP3 PUSH1 0x20 PUSH1 0x1 DUP2 SWAP3 DUP7 DUP6 ADD MLOAD DUP2 SSTORE ADD SWAP5 ADD SWAP3 ADD PUSH2 0x1739 JUMP JUMPDEST PUSH2 0x17C8 SWAP1 DUP8 PUSH1 0x0 MSTORE PUSH1 0x20 PUSH1 0x0 KECCAK256 PUSH1 0x1F DUP6 ADD PUSH1 0x5 SHR DUP2 ADD SWAP2 PUSH1 0x20 DUP7 LT PUSH2 0x17CE JUMPI JUMPDEST PUSH1 0x1F ADD PUSH1 0x5 SHR ADD SWAP1 PUSH2 0x5928 JUMP JUMPDEST DUP9 PUSH2 0x16DE JUMP JUMPDEST SWAP1 SWAP2 POP DUP2 SWAP1 PUSH2 0x17BB JUMP JUMPDEST PUSH1 0x7 DUP6 ADD PUSH1 0x0 MSTORE PUSH1 0x20 PUSH1 0x0 KECCAK256 SWAP1 DUP4 DUP3 ADD JUMPDEST DUP2 DUP4 ADD DUP2 LT PUSH2 0x17F9 JUMPI POP POP PUSH2 0x141C JUMP JUMPDEST DUP1 PUSH2 0x1806 PUSH1 0x1 SWAP3 SLOAD PUSH2 0x5713 JUMP JUMPDEST DUP1 PUSH2 0x1813 JUMPI JUMPDEST POP ADD PUSH2 0x17E9 JUMP JUMPDEST PUSH1 0x1F DUP2 GT DUP4 EQ PUSH2 0x1829 JUMPI POP PUSH1 0x0 DUP2 SSTORE JUMPDEST DUP9 PUSH2 0x180C JUMP JUMPDEST PUSH1 0x0 SWAP1 DUP3 DUP3 MSTORE PUSH2 0x1847 PUSH1 0x1F PUSH1 0x20 DUP5 KECCAK256 SWAP3 ADD PUSH1 0x5 SHR DUP3 ADD DUP6 DUP4 ADD PUSH2 0x5928 JUMP JUMPDEST DUP2 DUP4 SSTORE SSTORE PUSH2 0x1823 JUMP JUMPDEST ADD MLOAD SWAP1 POP DUP5 DUP1 PUSH2 0x13DE JUMP JUMPDEST PUSH1 0x6 DUP5 ADD PUSH1 0x0 MSTORE PUSH1 0x20 PUSH1 0x0 KECCAK256 SWAP1 PUSH1 0x0 JUMPDEST PUSH1 0x1F NOT DUP5 AND DUP2 LT PUSH2 0x18B1 JUMPI POP PUSH1 0x1 SWAP4 SWAP5 SWAP6 DUP4 PUSH1 0x1F NOT DUP2 AND LT PUSH2 0x1898 JUMPI JUMPDEST POP POP POP DUP2 SHL ADD PUSH1 0x6 DUP4 ADD SSTORE PUSH2 0x13F6 JUMP JUMPDEST ADD MLOAD PUSH1 0x0 NOT PUSH1 0xF8 DUP5 PUSH1 0x3 SHL AND SHR NOT AND SWAP1 SSTORE DUP5 DUP1 DUP1 PUSH2 0x1888 JUMP JUMPDEST SWAP1 SWAP2 PUSH1 0x20 PUSH1 0x1 DUP2 SWAP3 DUP6 DUP11 ADD MLOAD DUP2 SSTORE ADD SWAP4 ADD SWAP2 ADD PUSH2 0x186B JUMP JUMPDEST PUSH2 0x18F8 SWAP1 PUSH1 0x6 DUP6 ADD PUSH1 0x0 MSTORE PUSH1 0x20 PUSH1 0x0 KECCAK256 PUSH1 0x1F DUP5 ADD PUSH1 0x5 SHR DUP2 ADD SWAP2 PUSH1 0x20 DUP6 LT PUSH2 0x17CE JUMPI PUSH1 0x1F ADD PUSH1 0x5 SHR ADD SWAP1 PUSH2 0x5928 JUMP JUMPDEST DUP5 PUSH2 0x13C4 JUMP JUMPDEST DUP1 MLOAD DUP1 MLOAD SWAP1 PUSH1 0x1 PUSH1 0x1 PUSH1 0x40 SHL SUB DUP3 GT PUSH2 0xEDE JUMPI PUSH2 0x191B DUP7 SLOAD PUSH2 0x5713 JUMP JUMPDEST SWAP1 PUSH1 0x1F SWAP2 DUP3 DUP2 GT PUSH2 0x19E2 JUMPI JUMPDEST POP PUSH1 0x20 SWAP2 DUP4 GT PUSH1 0x1 EQ PUSH2 0x1972 JUMPI SWAP3 DUP3 PUSH1 0x1 SWAP5 SWAP4 PUSH1 0x20 SWAP4 DUP7 SWAP6 PUSH1 0x0 SWAP3 PUSH2 0x1967 JUMPI JUMPDEST POP POP PUSH1 0x0 NOT PUSH1 0x3 DUP4 SWAP1 SHL SHR NOT AND SWAP1 DUP5 SHL OR DUP8 SSTORE JUMPDEST ADD SWAP5 ADD SWAP2 ADD SWAP1 SWAP3 PUSH2 0x138F JUMP JUMPDEST ADD MLOAD SWAP1 POP DUP12 DUP1 PUSH2 0x1947 JUMP JUMPDEST SWAP1 DUP7 PUSH1 0x0 MSTORE PUSH1 0x20 PUSH1 0x0 KECCAK256 SWAP2 PUSH1 0x0 JUMPDEST PUSH1 0x1F NOT DUP6 AND DUP2 LT PUSH2 0x19CA JUMPI POP DUP4 PUSH1 0x20 SWAP4 PUSH1 0x1 SWAP7 SWAP4 DUP8 SWAP7 SWAP4 DUP8 SWAP5 PUSH1 0x1F NOT DUP2 AND LT PUSH2 0x19B1 JUMPI JUMPDEST POP POP POP DUP2 SHL ADD DUP8 SSTORE PUSH2 0x195B JUMP JUMPDEST ADD MLOAD PUSH1 0x0 NOT PUSH1 0xF8 DUP5 PUSH1 0x3 SHL AND SHR NOT AND SWAP1 SSTORE DUP12 DUP1 DUP1 PUSH2 0x19A4 JUMP JUMPDEST SWAP2 SWAP3 PUSH1 0x20 PUSH1 0x1 DUP2 SWAP3 DUP7 DUP6 ADD MLOAD DUP2 SSTORE ADD SWAP5 ADD SWAP3 ADD PUSH2 0x1980 JUMP JUMPDEST PUSH2 0x1A0D SWAP1 DUP9 PUSH1 0x0 MSTORE PUSH1 0x20 PUSH1 0x0 KECCAK256 DUP5 DUP1 DUP8 ADD PUSH1 0x5 SHR DUP3 ADD SWAP3 PUSH1 0x20 DUP9 LT PUSH2 0x1A13 JUMPI JUMPDEST ADD PUSH1 0x5 SHR ADD SWAP1 PUSH2 0x5928 JUMP JUMPDEST DUP10 PUSH2 0x1927 JUMP JUMPDEST SWAP3 POP DUP2 SWAP3 PUSH2 0x1A02 JUMP JUMPDEST PUSH1 0x5 DUP5 ADD PUSH1 0x0 MSTORE PUSH1 0x20 PUSH1 0x0 KECCAK256 SWAP1 DUP4 DUP3 ADD JUMPDEST DUP2 DUP4 ADD DUP2 LT PUSH2 0x1A3D JUMPI POP POP PUSH2 0x1379 JUMP JUMPDEST DUP1 PUSH2 0x1A4A PUSH1 0x1 SWAP3 SLOAD PUSH2 0x5713 JUMP JUMPDEST DUP1 PUSH2 0x1A57 JUMPI JUMPDEST POP ADD PUSH2 0x1A2D JUMP JUMPDEST PUSH1 0x1F SWAP1 DUP2 DUP2 GT DUP5 EQ PUSH2 0x1A70 JUMPI POP POP PUSH1 0x0 DUP2 SSTORE JUMPDEST DUP9 PUSH2 0x1A50 JUMP JUMPDEST PUSH2 0x1A8C PUSH1 0x0 SWAP3 DUP5 DUP5 MSTORE PUSH1 0x20 DUP5 KECCAK256 SWAP3 ADD PUSH1 0x5 SHR DUP3 ADD DUP6 DUP4 ADD PUSH2 0x5928 JUMP JUMPDEST DUP2 DUP4 SSTORE SSTORE PUSH2 0x1A6A JUMP JUMPDEST PUSH1 0x40 MLOAD PUSH3 0x461BCD PUSH1 0xE5 SHL DUP2 MSTORE PUSH1 0x20 PUSH1 0x4 DUP3 ADD MSTORE PUSH1 0x5D PUSH1 0x24 DUP3 ADD MSTORE PUSH32 0x4E6F7420656E6F7567682076657269666965727320746F2063686F6F73652066 PUSH1 0x44 DUP3 ADD MSTORE PUSH32 0x726F6D2E206E756D566572696669657273206D75737420626520677265617465 PUSH1 0x64 DUP3 ADD MSTORE PUSH32 0x72207468616E206E756D56657269666965727353616D706C6553697A65000000 PUSH1 0x84 DUP3 ADD MSTORE PUSH1 0xA4 SWAP1 REVERT JUMPDEST PUSH1 0x40 MLOAD PUSH3 0x461BCD PUSH1 0xE5 SHL DUP2 MSTORE PUSH1 0x20 PUSH1 0x4 DUP3 ADD MSTORE PUSH1 0x47 PUSH1 0x24 DUP3 ADD MSTORE PUSH32 0x566572696669636174696F6E20646561646C696E65206D757374206265207375 PUSH1 0x44 DUP3 ADD MSTORE PUSH32 0x6666696369656E7420656E6F75676820666F7220616C6C20726F756E64732072 PUSH1 0x64 DUP3 ADD MSTORE PUSH7 0x195C5D5A5C9959 PUSH1 0xCA SHL PUSH1 0x84 DUP3 ADD MSTORE PUSH1 0xA4 SWAP1 REVERT JUMPDEST PUSH1 0x40 MLOAD PUSH3 0x461BCD PUSH1 0xE5 SHL DUP2 MSTORE PUSH1 0x20 PUSH1 0x4 DUP3 ADD MSTORE PUSH1 0x3C PUSH1 0x24 DUP3 ADD MSTORE PUSH32 0x436F6D7075746174696F6E616C20646561646C696E65206D7573742062652067 PUSH1 0x44 DUP3 ADD MSTORE PUSH32 0x726561746572207468616E207468652063757272656E742074696D6500000000 PUSH1 0x64 DUP3 ADD MSTORE PUSH1 0x84 SWAP1 REVERT JUMPDEST PUSH1 0x40 MLOAD PUSH3 0x461BCD PUSH1 0xE5 SHL DUP2 MSTORE PUSH1 0x20 PUSH1 0x4 DUP3 ADD MSTORE PUSH1 0xE PUSH1 0x24 DUP3 ADD MSTORE PUSH14 0x14185E5B595B9D0819985A5B1959 PUSH1 0x92 SHL PUSH1 0x44 DUP3 ADD MSTORE PUSH1 0x64 SWAP1 REVERT JUMPDEST PUSH2 0x1C5B SWAP2 POP PUSH1 0x20 RETURNDATASIZE PUSH1 0x20 GT PUSH2 0xB46 JUMPI PUSH2 0xB37 DUP2 DUP4 PUSH2 0x55EF JUMP JUMPDEST DUP8 PUSH2 0x1148 JUMP JUMPDEST PUSH1 0x40 MLOAD PUSH3 0x461BCD PUSH1 0xE5 SHL DUP2 MSTORE PUSH1 0x20 PUSH1 0x4 DUP3 ADD MSTORE PUSH1 0x31 PUSH1 0x24 DUP3 ADD MSTORE PUSH32 0x496E73756666696369656E742062616C616E636520617661696C61626C652074 PUSH1 0x44 DUP3 ADD MSTORE PUSH17 0x1BC818DBDB991D58DD081C995C5D595CDD PUSH1 0x7A SHL PUSH1 0x64 DUP3 ADD MSTORE PUSH1 0x84 SWAP1 REVERT JUMPDEST PUSH1 0x40 MLOAD PUSH3 0x461BCD PUSH1 0xE5 SHL DUP2 MSTORE PUSH1 0x20 PUSH1 0x4 DUP3 ADD MSTORE PUSH1 0x33 PUSH1 0x24 DUP3 ADD MSTORE PUSH32 0x496E73756666696369656E7420616C6C6F77616E636520617661696C61626C65 PUSH1 0x44 DUP3 ADD MSTORE PUSH19 0x81D1BC818DBDB991D58DD081C995C5D595CDD PUSH1 0x6A SHL PUSH1 0x64 DUP3 ADD MSTORE PUSH1 0x84 SWAP1 REVERT JUMPDEST SWAP2 POP SWAP2 POP PUSH1 0x20 DUP2 RETURNDATASIZE PUSH1 0x20 GT PUSH2 0x1D50 JUMPI JUMPDEST DUP2 PUSH2 0x1D3E PUSH1 0x20 SWAP4 DUP4 PUSH2 0x55EF JUMP JUMPDEST DUP2 ADD SUB SLT PUSH2 0x60D JUMPI DUP5 SWAP1 MLOAD SWAP2 DUP11 PUSH2 0x10FD JUMP JUMPDEST RETURNDATASIZE SWAP2 POP PUSH2 0x1D31 JUMP JUMPDEST SWAP1 POP PUSH1 0x20 DUP2 RETURNDATASIZE PUSH1 0x20 GT PUSH2 0x1D82 JUMPI JUMPDEST DUP2 PUSH2 0x1D73 PUSH1 0x20 SWAP4 DUP4 PUSH2 0x55EF JUMP JUMPDEST DUP2 ADD SUB SLT PUSH2 0x60D JUMPI MLOAD DUP9 PUSH2 0x10CF JUMP JUMPDEST RETURNDATASIZE SWAP2 POP PUSH2 0x1D66 JUMP JUMPDEST CALLVALUE PUSH2 0x60D JUMPI PUSH2 0x1D98 CALLDATASIZE PUSH2 0x56FD JUMP JUMPDEST SWAP1 PUSH1 0x0 PUSH2 0x180 PUSH1 0x40 MLOAD PUSH2 0x1DAA DUP2 PUSH2 0x5565 JUMP JUMPDEST DUP3 DUP2 MSTORE DUP3 PUSH1 0x20 DUP3 ADD MSTORE DUP3 PUSH1 0x40 DUP3 ADD MSTORE DUP3 PUSH1 0x60 DUP3 ADD MSTORE DUP3 PUSH1 0x80 DUP3 ADD MSTORE DUP3 PUSH1 0xA0 DUP3 ADD MSTORE DUP3 PUSH1 0xC0 DUP3 ADD MSTORE DUP3 PUSH1 0xE0 DUP3 ADD MSTORE DUP3 PUSH2 0x100 DUP3 ADD MSTORE DUP3 PUSH2 0x120 DUP3 ADD MSTORE DUP3 PUSH2 0x140 DUP3 ADD MSTORE DUP3 PUSH2 0x160 DUP3 ADD MSTORE ADD MSTORE PUSH1 0x0 MSTORE PUSH1 0x5 PUSH1 0x20 MSTORE PUSH1 0x40 PUSH1 0x0 KECCAK256 SWAP1 PUSH1 0x0 MSTORE PUSH1 0x20 MSTORE PUSH2 0x1A0 PUSH1 0x40 PUSH1 0x0 KECCAK256 PUSH2 0x180 PUSH2 0x1E6A PUSH1 0x4 DUP4 ADD SLOAD DUP4 PUSH1 0x5 DUP3 SWAP6 ADD SLOAD PUSH1 0x6 DUP3 ADD SLOAD PUSH1 0x7 DUP4 ADD SLOAD PUSH1 0x8 DUP5 ADD SLOAD PUSH1 0x9 DUP6 ADD SLOAD PUSH1 0xA DUP7 ADD SLOAD SWAP1 PUSH1 0xB DUP8 ADD SLOAD SWAP3 PUSH1 0xC DUP9 ADD SLOAD SWAP5 PUSH1 0xD DUP10 ADD SLOAD SWAP7 PUSH1 0xE DUP11 ADD SLOAD SWAP9 PUSH1 0x10 PUSH1 0xF DUP13 ADD SLOAD SWAP12 ADD SLOAD SWAP12 PUSH1 0x40 MLOAD SWAP14 DUP15 PUSH2 0x5565 JUMP JUMPDEST DUP14 MSTORE PUSH1 0x20 DUP14 ADD MSTORE PUSH1 0x40 DUP13 ADD MSTORE PUSH1 0x60 DUP12 ADD MSTORE PUSH1 0x80 DUP11 ADD MSTORE PUSH1 0xA0 DUP10 ADD MSTORE PUSH1 0xC0 DUP9 ADD MSTORE PUSH1 0xE0 DUP8 ADD MSTORE PUSH2 0x100 DUP7 ADD MSTORE PUSH2 0x120 DUP6 ADD MSTORE PUSH2 0x140 DUP5 ADD MSTORE PUSH2 0x160 DUP4 ADD MSTORE DUP3 DUP3 ADD MSTORE PUSH1 0x40 MLOAD SWAP3 DUP4 MSTORE PUSH1 0x20 DUP2 ADD MLOAD PUSH1 0x20 DUP5 ADD MSTORE PUSH1 0x40 DUP2 ADD MLOAD PUSH1 0x40 DUP5 ADD MSTORE PUSH1 0x60 DUP2 ADD MLOAD PUSH1 0x60 DUP5 ADD MSTORE PUSH1 0x80 DUP2 ADD MLOAD PUSH1 0x80 DUP5 ADD MSTORE PUSH1 0xA0 DUP2 ADD MLOAD PUSH1 0xA0 DUP5 ADD MSTORE PUSH1 0xC0 DUP2 ADD MLOAD PUSH1 0xC0 DUP5 ADD MSTORE PUSH1 0xE0 DUP2 ADD MLOAD PUSH1 0xE0 DUP5 ADD MSTORE PUSH2 0x100 DUP2 ADD MLOAD PUSH2 0x100 DUP5 ADD MSTORE PUSH2 0x120 DUP2 ADD MLOAD PUSH2 0x120 DUP5 ADD MSTORE PUSH2 0x140 DUP2 ADD MLOAD PUSH2 0x140 DUP5 ADD MSTORE PUSH2 0x160 DUP2 ADD MLOAD PUSH2 0x160 DUP5 ADD MSTORE ADD MLOAD PUSH2 0x180 DUP3 ADD MSTORE RETURN JUMPDEST CALLVALUE PUSH2 0x60D JUMPI PUSH1 0x20 CALLDATASIZE PUSH1 0x3 NOT ADD SLT PUSH2 0x60D JUMPI PUSH1 0x4 CALLDATALOAD PUSH1 0x0 MSTORE PUSH1 0x8 PUSH1 0x20 MSTORE PUSH1 0xA0 PUSH1 0x40 PUSH1 0x0 KECCAK256 PUSH1 0xFF DUP2 SLOAD SWAP2 PUSH1 0x1 DUP2 ADD SLOAD SWAP1 PUSH1 0x3 PUSH1 0x2 DUP3 ADD SLOAD SWAP2 ADD SLOAD SWAP2 PUSH1 0x40 MLOAD SWAP5 DUP6 MSTORE PUSH1 0x20 DUP6 ADD MSTORE PUSH1 0x40 DUP5 ADD MSTORE PUSH1 0x1 DUP1 DUP6 SHL SUB DUP2 AND PUSH1 0x60 DUP5 ADD MSTORE DUP4 SHR AND ISZERO ISZERO PUSH1 0x80 DUP3 ADD MSTORE RETURN JUMPDEST CALLVALUE PUSH2 0x60D JUMPI PUSH1 0x80 CALLDATASIZE PUSH1 0x3 NOT ADD SLT PUSH2 0x60D JUMPI PUSH1 0x24 CALLDATALOAD ISZERO ISZERO DUP1 PUSH1 0x24 CALLDATALOAD SUB PUSH2 0x60D JUMPI PUSH1 0x4 CALLDATALOAD PUSH1 0x0 MSTORE PUSH1 0x4 PUSH1 0x20 MSTORE PUSH1 0x40 PUSH1 0x0 KECCAK256 SWAP1 PUSH1 0x5 PUSH1 0x20 MSTORE PUSH1 0x40 PUSH1 0x0 KECCAK256 PUSH1 0x13 DUP4 ADD SLOAD SWAP1 DUP2 PUSH1 0x0 MSTORE PUSH1 0x20 MSTORE PUSH1 0x8 PUSH1 0x40 PUSH1 0x0 KECCAK256 ADD SLOAD TIMESTAMP GT DUP1 ISZERO PUSH2 0x24E4 JUMPI JUMPDEST ISZERO PUSH2 0x249F JUMPI PUSH1 0x4 CALLDATALOAD PUSH1 0x0 MSTORE PUSH1 0x5 PUSH1 0x20 MSTORE PUSH1 0x40 PUSH1 0x0 KECCAK256 DUP2 PUSH1 0x0 MSTORE PUSH1 0x20 MSTORE PUSH1 0x9 PUSH1 0x40 PUSH1 0x0 KECCAK256 ADD SLOAD TIMESTAMP GT PUSH2 0x2465 JUMPI PUSH1 0x4 CALLDATALOAD PUSH1 0x0 MSTORE PUSH1 0x5 PUSH1 0x20 MSTORE PUSH1 0x40 PUSH1 0x0 KECCAK256 DUP2 PUSH1 0x0 MSTORE PUSH1 0x20 MSTORE PUSH1 0x3 PUSH1 0x40 PUSH1 0x0 KECCAK256 ADD CALLER PUSH1 0x0 MSTORE PUSH1 0x20 MSTORE PUSH1 0xFF PUSH1 0x40 PUSH1 0x0 KECCAK256 SLOAD AND ISZERO PUSH2 0x2420 JUMPI PUSH1 0x4 CALLDATALOAD PUSH1 0x0 MSTORE PUSH1 0x5 PUSH1 0x20 MSTORE PUSH1 0x40 PUSH1 0x0 KECCAK256 DUP2 PUSH1 0x0 MSTORE PUSH1 0x20 MSTORE PUSH1 0x1 PUSH1 0x40 PUSH1 0x0 KECCAK256 ADD CALLER PUSH1 0x0 MSTORE PUSH1 0x20 MSTORE PUSH2 0x2082 PUSH1 0xFF PUSH1 0x40 PUSH1 0x0 KECCAK256 SLOAD AND PUSH2 0x5FD2 JUMP JUMPDEST PUSH1 0x4 CALLDATALOAD PUSH1 0x0 MSTORE PUSH1 0x6 PUSH1 0x20 MSTORE PUSH1 0x40 PUSH1 0x0 KECCAK256 SWAP1 PUSH1 0x0 MSTORE PUSH1 0x20 MSTORE PUSH1 0x40 PUSH1 0x0 KECCAK256 CALLER PUSH1 0x0 MSTORE PUSH1 0x20 MSTORE PUSH1 0x40 PUSH1 0x0 KECCAK256 SWAP1 PUSH1 0xFF PUSH1 0x3 DUP4 ADD SLOAD AND PUSH2 0x23DB JUMPI PUSH1 0x40 MLOAD PUSH1 0x20 DUP2 ADD SWAP1 PUSH1 0x44 CALLDATALOAD DUP3 MSTORE PUSH1 0x64 CALLDATALOAD PUSH1 0x40 DUP3 ADD MSTORE CALLER PUSH1 0x60 SHL PUSH1 0x60 DUP3 ADD MSTORE PUSH1 0x54 DUP2 MSTORE PUSH2 0x20E2 DUP2 PUSH2 0x55B9 JUMP JUMPDEST MLOAD SWAP1 KECCAK256 PUSH1 0x4 DUP4 ADD SLOAD SUB PUSH2 0x239E JUMPI PUSH1 0x40 MLOAD SWAP1 PUSH1 0x44 CALLDATALOAD PUSH1 0x20 DUP4 ADD MSTORE PUSH1 0xF8 SHL PUSH1 0x40 DUP3 ADD MSTORE PUSH1 0x21 DUP2 MSTORE DUP1 PUSH1 0x60 DUP2 ADD LT PUSH1 0x1 PUSH1 0x1 PUSH1 0x40 SHL SUB PUSH1 0x60 DUP4 ADD GT OR PUSH2 0xEDE JUMPI PUSH1 0x60 DUP2 ADD PUSH1 0x40 MSTORE DUP1 MLOAD PUSH1 0x20 DUP3 ADD KECCAK256 DUP3 SLOAD PUSH1 0xFF PUSH1 0xA0 SHL NOT AND PUSH1 0x24 CALLDATALOAD ISZERO ISZERO PUSH1 0xA0 SHL PUSH1 0xFF PUSH1 0xA0 SHL AND OR DUP4 SSTORE SWAP2 DUP3 SWAP1 PUSH1 0x5 SWAP1 PUSH1 0x44 CALLDATALOAD PUSH1 0x1 DUP3 ADD SSTORE PUSH1 0x64 CALLDATALOAD PUSH1 0x2 DUP3 ADD SSTORE PUSH1 0x1 PUSH1 0xFF NOT PUSH1 0x3 DUP4 ADD SLOAD AND OR PUSH1 0x3 DUP3 ADD SSTORE CALLER PUSH1 0x1 PUSH1 0x1 PUSH1 0x60 SHL SUB PUSH1 0xA0 SHL DUP3 SLOAD AND OR DUP2 SSTORE ADD SSTORE PUSH1 0x4 CALLDATALOAD PUSH1 0x0 MSTORE PUSH1 0x5 PUSH1 0x20 MSTORE PUSH1 0x40 PUSH1 0x0 KECCAK256 PUSH1 0x13 DUP5 ADD SLOAD PUSH1 0x0 MSTORE PUSH1 0x20 MSTORE PUSH1 0x40 PUSH1 0x0 KECCAK256 SWAP1 PUSH1 0x4 CALLDATALOAD PUSH1 0x0 MSTORE PUSH1 0xD PUSH1 0x20 MSTORE PUSH1 0x20 PUSH1 0x40 PUSH1 0x0 KECCAK256 SLOAD PUSH4 0xFFFFFFFF PUSH1 0xE0 SHL DUP2 PUSH1 0xE0 SHL AND PUSH1 0x60 DUP5 ADD MSTORE CALLER PUSH1 0x64 DUP5 ADD MSTORE PUSH1 0x24 PUSH1 0x60 DUP5 ADD SWAP2 PUSH1 0x60 DUP6 ADD SWAP1 PUSH1 0x1 DUP1 PUSH1 0xA0 SHL SUB SWAP1 DUP6 SHR AND GAS STATICCALL SWAP1 DUP2 ISZERO PUSH2 0xB4D JUMPI PUSH1 0x0 SWAP2 PUSH2 0x2366 JUMPI JUMPDEST POP DUP3 PUSH1 0x0 MSTORE DUP2 PUSH1 0x20 MSTORE PUSH2 0x220F PUSH1 0x40 PUSH1 0x0 KECCAK256 SWAP2 DUP3 SLOAD PUSH2 0x58D9 JUMP JUMPDEST SWAP1 SSTORE DUP2 PUSH1 0x0 MSTORE DUP1 PUSH1 0x20 MSTORE PUSH1 0x40 PUSH1 0x0 KECCAK256 SLOAD SWAP2 PUSH1 0xB DUP3 ADD SWAP3 DUP4 SLOAD SWAP1 DUP2 DUP2 EQ PUSH1 0x0 EQ PUSH2 0x231D JUMPI POP POP POP POP POP PUSH1 0x4 CALLDATALOAD PUSH1 0x0 MSTORE PUSH1 0x5 PUSH1 0x20 MSTORE PUSH1 0x40 PUSH1 0x0 KECCAK256 PUSH1 0x13 DUP3 ADD SLOAD PUSH1 0x0 MSTORE PUSH1 0x20 MSTORE PUSH1 0x0 PUSH1 0xA PUSH1 0x40 DUP3 KECCAK256 ADD SSTORE JUMPDEST PUSH1 0x4 CALLDATALOAD PUSH1 0x0 MSTORE PUSH1 0x5 PUSH1 0x20 MSTORE PUSH1 0x40 PUSH1 0x0 KECCAK256 PUSH1 0x13 DUP3 ADD SLOAD PUSH1 0x0 MSTORE PUSH1 0x20 MSTORE PUSH1 0xE PUSH1 0x40 PUSH1 0x0 KECCAK256 ADD PUSH2 0x228A DUP2 SLOAD PUSH2 0x5957 JUMP JUMPDEST SWAP1 SSTORE PUSH1 0x40 MLOAD TIMESTAMP DUP2 MSTORE CALLER SWAP1 PUSH32 0xB59F6416758D4763386B2C83D12C7C643131C90BEFF0CAEA486F303510702CE3 PUSH1 0x20 PUSH1 0x4 CALLDATALOAD SWAP3 LOG3 PUSH1 0x4 CALLDATALOAD PUSH1 0x0 MSTORE PUSH1 0x5 PUSH1 0x20 MSTORE PUSH1 0x40 PUSH1 0x0 KECCAK256 SWAP1 PUSH1 0x13 DUP2 ADD SLOAD SWAP2 DUP3 PUSH1 0x0 MSTORE PUSH1 0x20 MSTORE PUSH1 0xC PUSH1 0xE PUSH1 0x40 PUSH1 0x0 KECCAK256 ADD SLOAD SWAP2 ADD SLOAD EQ PUSH2 0x22EF JUMPI STOP JUMPDEST PUSH32 0x86379E876DFAEA4F98E183813A1A8FEA7B8212D0DC9598D4E09EE4B9CDF46133 PUSH1 0x20 PUSH1 0x40 MLOAD PUSH1 0x4 CALLDATALOAD DUP2 MSTORE LOG2 STOP JUMPDEST GT PUSH2 0x232B JUMPI JUMPDEST POP POP POP PUSH2 0x225D JUMP JUMPDEST PUSH1 0x4 CALLDATALOAD PUSH1 0x0 MSTORE PUSH1 0x5 PUSH1 0x20 MSTORE PUSH1 0x40 PUSH1 0x0 KECCAK256 PUSH1 0x13 DUP6 ADD SLOAD PUSH1 0x0 MSTORE PUSH1 0x20 MSTORE DUP1 PUSH1 0xA PUSH1 0x40 PUSH1 0x0 KECCAK256 ADD SSTORE PUSH1 0x0 MSTORE PUSH1 0x20 MSTORE PUSH1 0x40 PUSH1 0x0 KECCAK256 SLOAD SWAP1 SSTORE DUP2 DUP1 DUP1 PUSH2 0x2323 JUMP JUMPDEST SWAP1 POP PUSH1 0x20 DUP2 RETURNDATASIZE PUSH1 0x20 GT PUSH2 0x2396 JUMPI JUMPDEST DUP2 PUSH2 0x2384 PUSH1 0x20 SWAP4 PUSH1 0x60 DUP5 ADD PUSH2 0x55EF JUMP JUMPDEST DUP2 ADD SUB SLT PUSH2 0x60D JUMPI PUSH1 0x60 ADD MLOAD DUP5 PUSH2 0x21F6 JUMP JUMPDEST RETURNDATASIZE SWAP2 POP PUSH2 0x2374 JUMP JUMPDEST PUSH1 0x40 MLOAD PUSH3 0x461BCD PUSH1 0xE5 SHL DUP2 MSTORE PUSH1 0x20 PUSH1 0x4 DUP3 ADD MSTORE PUSH1 0x15 PUSH1 0x24 DUP3 ADD MSTORE PUSH21 0x496E76616C69642072657665616C2076616C756573 PUSH1 0x58 SHL PUSH1 0x44 DUP3 ADD MSTORE PUSH1 0x64 SWAP1 REVERT JUMPDEST PUSH1 0x40 MLOAD PUSH3 0x461BCD PUSH1 0xE5 SHL DUP2 MSTORE PUSH1 0x20 PUSH1 0x4 DUP3 ADD MSTORE PUSH1 0x1B PUSH1 0x24 DUP3 ADD MSTORE PUSH32 0x436F6D6D69746D656E7420616C72656164792072657665616C65640000000000 PUSH1 0x44 DUP3 ADD MSTORE PUSH1 0x64 SWAP1 REVERT JUMPDEST PUSH1 0x40 MLOAD PUSH3 0x461BCD PUSH1 0xE5 SHL DUP2 MSTORE PUSH1 0x20 PUSH1 0x4 DUP3 ADD MSTORE PUSH1 0x1F PUSH1 0x24 DUP3 ADD MSTORE PUSH32 0x596F7520617265206E6F74207468652063686F73656E20766572696669657200 PUSH1 0x44 DUP3 ADD MSTORE PUSH1 0x64 SWAP1 REVERT JUMPDEST PUSH1 0x40 MLOAD PUSH3 0x461BCD PUSH1 0xE5 SHL DUP2 MSTORE PUSH1 0x20 PUSH1 0x4 DUP3 ADD MSTORE PUSH1 0x12 PUSH1 0x24 DUP3 ADD MSTORE PUSH18 0x14995D99585B081C1A185CD948195B991959 PUSH1 0x72 SHL PUSH1 0x44 DUP3 ADD MSTORE PUSH1 0x64 SWAP1 REVERT JUMPDEST PUSH1 0x40 MLOAD PUSH3 0x461BCD PUSH1 0xE5 SHL DUP2 MSTORE PUSH1 0x20 PUSH1 0x4 DUP3 ADD MSTORE PUSH1 0x1F PUSH1 0x24 DUP3 ADD MSTORE PUSH32 0x50726F76696465722072657665616C207068617365206E6F7420656E64656400 PUSH1 0x44 DUP3 ADD MSTORE PUSH1 0x64 SWAP1 REVERT JUMPDEST POP PUSH1 0xFF PUSH1 0x14 DUP5 ADD SLOAD AND PUSH1 0x9 DUP2 LT ISZERO PUSH2 0x5F7 JUMPI PUSH1 0x5 EQ PUSH2 0x1FEC JUMP JUMPDEST CALLVALUE PUSH2 0x60D JUMPI PUSH2 0x1E0 CALLDATASIZE PUSH1 0x3 NOT ADD SLT PUSH2 0x60D JUMPI PUSH1 0x84 CALLDATALOAD PUSH1 0x1 PUSH1 0x1 PUSH1 0x40 SHL SUB DUP2 GT PUSH2 0x60D JUMPI PUSH2 0x252F SWAP1 CALLDATASIZE SWAP1 PUSH1 0x4 ADD PUSH2 0x567D JUMP JUMPDEST PUSH1 0xA4 CALLDATALOAD PUSH1 0x1 PUSH1 0x1 PUSH1 0x40 SHL SUB DUP2 GT PUSH2 0x60D JUMPI PUSH2 0x254E SWAP1 CALLDATASIZE SWAP1 PUSH1 0x4 ADD PUSH2 0x5627 JUMP JUMPDEST SWAP1 PUSH2 0x1C4 CALLDATALOAD PUSH8 0xFFFFFFFFFFFFFFFF NOT DUP2 AND SWAP1 SUB PUSH2 0x60D JUMPI PUSH2 0x2574 PUSH2 0x164 CALLDATALOAD PUSH1 0x44 CALLDATALOAD PUSH2 0x58D9 JUMP JUMPDEST PUSH1 0x0 NOT DUP2 ADD SWAP1 DUP2 GT PUSH2 0xC1D JUMPI PUSH2 0x258E SWAP1 PUSH2 0x164 CALLDATALOAD SWAP1 PUSH2 0x58F3 JUMP JUMPDEST SWAP1 PUSH2 0x25A2 DUP3 PUSH2 0x107A PUSH2 0x124 CALLDATALOAD PUSH1 0x24 CALLDATALOAD PUSH2 0x58FD JUMP JUMPDEST SWAP3 PUSH2 0x25AF DUP5 PUSH1 0x4 CALLDATALOAD PUSH2 0x58D9 JUMP JUMPDEST PUSH1 0x0 SLOAD PUSH1 0x40 MLOAD PUSH4 0x6EB1769F PUSH1 0xE1 SHL DUP2 MSTORE CALLER PUSH1 0x4 DUP3 ADD MSTORE ADDRESS PUSH1 0x24 DUP3 ADD MSTORE PUSH1 0x1 PUSH1 0x1 PUSH1 0xA0 SHL SUB SWAP1 SWAP2 AND SWAP1 PUSH1 0x20 DUP2 PUSH1 0x44 DUP2 DUP6 GAS STATICCALL SWAP1 DUP2 ISZERO PUSH2 0xB4D JUMPI PUSH1 0x0 SWAP2 PUSH2 0x2F4D JUMPI JUMPDEST POP PUSH1 0x40 MLOAD PUSH4 0x70A08231 PUSH1 0xE0 SHL DUP2 MSTORE CALLER PUSH1 0x4 DUP3 ADD MSTORE PUSH1 0x20 DUP2 PUSH1 0x24 DUP2 DUP7 GAS STATICCALL SWAP2 DUP3 ISZERO PUSH2 0xB4D JUMPI DUP5 SWAP2 PUSH1 0x0 SWAP4 PUSH2 0x2F16 JUMPI JUMPDEST POP LT PUSH2 0x1CC0 JUMPI DUP3 GT PUSH2 0x1C61 JUMPI PUSH1 0x40 MLOAD PUSH4 0x23B872DD PUSH1 0xE0 SHL DUP2 MSTORE CALLER PUSH1 0x4 DUP3 ADD MSTORE ADDRESS PUSH1 0x24 DUP3 ADD MSTORE PUSH1 0x44 DUP2 ADD DUP4 SWAP1 MSTORE SWAP1 PUSH1 0x20 SWAP1 DUP3 SWAP1 PUSH1 0x64 SWAP1 DUP3 SWAP1 PUSH1 0x0 SWAP1 GAS CALL SWAP1 DUP2 ISZERO PUSH2 0xB4D JUMPI PUSH1 0x0 SWAP2 PUSH2 0x2EF7 JUMPI JUMPDEST POP ISZERO PUSH2 0x1C0C JUMPI TIMESTAMP PUSH1 0xC4 CALLDATALOAD GT ISZERO PUSH2 0x1BA1 JUMPI PUSH2 0x104 CALLDATALOAD PUSH1 0x3 PUSH2 0x104 CALLDATALOAD MUL DIV PUSH1 0x3 EQ PUSH2 0x104 CALLDATALOAD ISZERO OR ISZERO PUSH2 0xC1D JUMPI PUSH2 0x26A5 PUSH2 0x1185 PUSH1 0x3 PUSH2 0x104 CALLDATALOAD MUL DUP7 PUSH2 0x58FD JUMP JUMPDEST PUSH1 0xE4 CALLDATALOAD GT ISZERO PUSH2 0x1B26 JUMPI PUSH2 0x124 CALLDATALOAD PUSH1 0x64 CALLDATALOAD LT PUSH2 0x1A95 JUMPI PUSH1 0x3 SLOAD PUSH1 0x0 MSTORE PUSH1 0xD PUSH1 0x20 MSTORE PUSH1 0x40 PUSH1 0x0 KECCAK256 PUSH1 0x1 PUSH1 0x1 PUSH1 0x40 SHL SUB PUSH1 0xC0 SHL DUP2 SLOAD AND PUSH2 0x1C4 CALLDATALOAD PUSH1 0x40 SHR PUSH4 0xFFFFFFFF PUSH5 0x100000000 PUSH1 0x1 PUSH1 0xC0 SHL SUB DUP3 AND SWAP2 AND OR OR SWAP1 SSTORE PUSH1 0x40 MLOAD PUSH2 0x2704 DUP2 PUSH2 0x55D4 JUMP JUMPDEST PUSH1 0x0 DUP2 MSTORE PUSH1 0x40 MLOAD SWAP3 PUSH2 0x2715 DUP5 PUSH2 0x55D4 JUMP JUMPDEST PUSH1 0x0 DUP5 MSTORE PUSH1 0x40 MLOAD SWAP5 PUSH2 0x2726 DUP7 PUSH2 0x55D4 JUMP JUMPDEST PUSH1 0x0 DUP7 MSTORE PUSH1 0x40 MLOAD SWAP8 PUSH2 0x2737 DUP10 PUSH2 0x559D JUMP JUMPDEST CALLER DUP10 MSTORE PUSH1 0x4 CALLDATALOAD PUSH1 0x20 DUP11 ADD MSTORE PUSH1 0x40 DUP10 ADD MSTORE PUSH1 0x44 CALLDATALOAD PUSH1 0x60 DUP10 ADD MSTORE PUSH1 0x64 CALLDATALOAD PUSH1 0x80 DUP10 ADD MSTORE PUSH1 0xA0 DUP9 ADD MSTORE PUSH1 0xC0 DUP8 ADD MSTORE PUSH1 0xE0 DUP7 ADD MSTORE PUSH1 0xC4 CALLDATALOAD PUSH2 0x100 DUP7 ADD MSTORE PUSH1 0xE4 CALLDATALOAD PUSH2 0x120 DUP7 ADD MSTORE PUSH2 0x140 DUP6 ADD MSTORE PUSH1 0x0 PUSH2 0x160 DUP6 ADD MSTORE PUSH1 0x0 PUSH2 0x180 DUP6 ADD MSTORE PUSH2 0x124 CALLDATALOAD PUSH2 0x1A0 DUP6 ADD MSTORE PUSH2 0x1C0 DUP5 ADD MSTORE PUSH2 0x1E0 DUP4 ADD MSTORE PUSH1 0x0 PUSH2 0x200 DUP4 ADD MSTORE PUSH2 0x104 CALLDATALOAD PUSH2 0x220 DUP4 ADD MSTORE PUSH2 0x240 DUP3 ADD MSTORE PUSH1 0x0 PUSH2 0x260 DUP3 ADD MSTORE PUSH1 0x0 PUSH2 0x280 DUP3 ADD MSTORE PUSH1 0x0 PUSH2 0x2A0 DUP3 ADD MSTORE PUSH2 0x1A4 CALLDATALOAD PUSH2 0x2C0 DUP3 ADD MSTORE PUSH1 0x24 CALLDATALOAD PUSH2 0x2E0 DUP3 ADD MSTORE PUSH1 0x0 PUSH2 0x300 DUP3 ADD MSTORE PUSH2 0x144 CALLDATALOAD PUSH2 0x320 DUP3 ADD MSTORE PUSH1 0x0 PUSH2 0x340 DUP3 ADD MSTORE PUSH1 0x0 PUSH2 0x360 DUP3 ADD MSTORE PUSH2 0x164 CALLDATALOAD PUSH2 0x380 DUP3 ADD MSTORE PUSH2 0x184 CALLDATALOAD PUSH2 0x3A0 DUP3 ADD MSTORE PUSH1 0x3 SLOAD PUSH1 0x0 MSTORE PUSH1 0x4 PUSH1 0x20 MSTORE PUSH1 0x40 PUSH1 0x0 KECCAK256 PUSH1 0x1 DUP1 PUSH1 0xA0 SHL SUB DUP3 MLOAD AND PUSH1 0x1 PUSH1 0x1 PUSH1 0x60 SHL SUB PUSH1 0xA0 SHL DUP3 SLOAD AND OR DUP2 SSTORE PUSH1 0x20 DUP3 ADD MLOAD PUSH1 0x1 DUP3 ADD SSTORE PUSH1 0x40 DUP3 ADD MLOAD PUSH1 0x2 DUP3 ADD SSTORE PUSH1 0x60 DUP3 ADD MLOAD PUSH1 0x3 DUP3 ADD SSTORE PUSH1 0x80 DUP3 ADD MLOAD PUSH1 0x4 DUP3 ADD SSTORE PUSH1 0xA0 DUP3 ADD MLOAD DUP1 MLOAD SWAP1 PUSH1 0x1 PUSH1 0x40 SHL DUP3 GT PUSH2 0xEDE JUMPI PUSH1 0x5 DUP4 ADD SLOAD DUP3 PUSH1 0x5 DUP6 ADD SSTORE DUP1 DUP4 LT PUSH2 0x2E7E JUMPI JUMPDEST POP PUSH1 0x20 ADD SWAP1 PUSH1 0x5 DUP4 ADD PUSH1 0x0 MSTORE PUSH1 0x20 PUSH1 0x0 KECCAK256 SWAP2 PUSH1 0x0 SWAP1 JUMPDEST DUP3 DUP3 LT PUSH2 0x2D6A JUMPI DUP6 DUP6 PUSH1 0xC0 DUP3 ADD MLOAD SWAP2 DUP3 MLOAD PUSH1 0x1 PUSH1 0x1 PUSH1 0x40 SHL SUB DUP2 GT PUSH2 0xEDE JUMPI PUSH2 0x28D8 PUSH1 0x6 DUP5 ADD SLOAD PUSH2 0x5713 JUMP JUMPDEST PUSH1 0x1F DUP2 GT PUSH2 0x2D35 JUMPI JUMPDEST POP PUSH1 0x20 PUSH1 0x1F DUP3 GT PUSH1 0x1 EQ PUSH2 0x2CC7 JUMPI DUP2 SWAP3 SWAP4 SWAP5 PUSH1 0x0 SWAP3 PUSH2 0x2CBC JUMPI JUMPDEST POP POP DUP2 PUSH1 0x1 SHL SWAP2 PUSH1 0x0 NOT SWAP1 PUSH1 0x3 SHL SHR NOT AND OR PUSH1 0x6 DUP4 ADD SSTORE JUMPDEST PUSH1 0xE0 DUP2 ADD MLOAD DUP1 MLOAD SWAP1 PUSH1 0x1 PUSH1 0x40 SHL DUP3 GT PUSH2 0xEDE JUMPI PUSH1 0x7 DUP5 ADD SLOAD DUP3 PUSH1 0x7 DUP7 ADD SSTORE DUP1 DUP4 LT PUSH2 0x2C44 JUMPI JUMPDEST POP PUSH1 0x20 ADD SWAP1 PUSH1 0x7 DUP5 ADD PUSH1 0x0 MSTORE PUSH1 0x20 PUSH1 0x0 KECCAK256 SWAP2 PUSH1 0x0 SWAP1 JUMPDEST DUP3 DUP3 LT PUSH2 0x2B2F JUMPI DUP6 DUP6 PUSH2 0x100 DUP2 ADD MLOAD PUSH1 0x8 DUP4 ADD SSTORE PUSH2 0x120 DUP2 ADD MLOAD PUSH1 0x9 DUP4 ADD SSTORE PUSH2 0x140 DUP2 ADD MLOAD PUSH1 0xA DUP4 ADD SSTORE PUSH2 0x299D PUSH1 0xB DUP4 ADD PUSH2 0x1480 PUSH2 0x160 DUP5 ADD MLOAD ISZERO ISZERO DUP3 SWAP1 PUSH1 0xFF DUP1 NOT DUP4 SLOAD AND SWAP2 ISZERO ISZERO AND OR SWAP1 SSTORE JUMP JUMPDEST PUSH2 0x1A0 DUP2 ADD MLOAD PUSH1 0xC DUP4 ADD SSTORE PUSH2 0x1C0 DUP2 ADD MLOAD DUP1 MLOAD SWAP1 PUSH1 0x1 PUSH1 0x1 PUSH1 0x40 SHL SUB DUP3 GT PUSH2 0xEDE JUMPI PUSH1 0x1 PUSH1 0x40 SHL DUP3 GT PUSH2 0xEDE JUMPI PUSH1 0x20 SWAP1 PUSH1 0xD DUP6 ADD SLOAD DUP4 PUSH1 0xD DUP8 ADD SSTORE DUP1 DUP5 LT PUSH2 0x2B0F JUMPI JUMPDEST POP ADD PUSH1 0xD DUP5 ADD PUSH1 0x0 MSTORE PUSH1 0x20 PUSH1 0x0 KECCAK256 PUSH1 0x0 JUMPDEST DUP4 DUP2 LT PUSH2 0x2AF2 JUMPI DUP6 DUP6 PUSH2 0x1E0 DUP2 ADD MLOAD DUP1 MLOAD SWAP1 PUSH1 0x1 PUSH1 0x1 PUSH1 0x40 SHL SUB DUP3 GT PUSH2 0xEDE JUMPI PUSH1 0x1 PUSH1 0x40 SHL DUP3 GT PUSH2 0xEDE JUMPI PUSH1 0x20 PUSH1 0xE DUP6 ADD SWAP2 DUP3 SLOAD DUP5 DUP5 SSTORE DUP1 DUP6 LT PUSH2 0x2AD5 JUMPI JUMPDEST POP ADD SWAP1 PUSH1 0x0 MSTORE PUSH1 0x20 PUSH1 0x0 KECCAK256 PUSH1 0x0 JUMPDEST DUP4 DUP2 LT PUSH2 0x2AB8 JUMPI DUP6 DUP6 PUSH1 0xF DUP3 ADD PUSH1 0x1 DUP1 PUSH1 0xA0 SHL SUB PUSH2 0x200 DUP4 ADD MLOAD AND PUSH1 0x1 PUSH1 0x1 PUSH1 0x60 SHL SUB PUSH1 0xA0 SHL DUP3 SLOAD AND OR SWAP1 SSTORE PUSH2 0x220 DUP2 ADD MLOAD PUSH1 0x10 DUP4 ADD SSTORE PUSH2 0x240 DUP2 ADD MLOAD PUSH1 0x11 DUP4 ADD SSTORE PUSH2 0x260 DUP2 ADD MLOAD PUSH1 0x12 DUP4 ADD SSTORE PUSH2 0x280 DUP2 ADD MLOAD PUSH1 0x13 DUP4 ADD SSTORE PUSH2 0x2A0 DUP2 ADD MLOAD PUSH1 0x9 DUP2 LT ISZERO PUSH2 0x5F7 JUMPI PUSH1 0x1C SWAP2 PUSH2 0x15B7 PUSH2 0x3A0 SWAP3 PUSH1 0x14 DUP7 ADD PUSH2 0x593F JUMP JUMPDEST DUP3 MLOAD PUSH1 0x1 PUSH1 0x1 PUSH1 0xA0 SHL SUB AND DUP2 DUP4 ADD SSTORE PUSH1 0x20 SWAP1 SWAP3 ADD SWAP2 PUSH1 0x1 ADD PUSH2 0x2A3E JUMP JUMPDEST PUSH2 0x2AEC SWAP1 DUP5 PUSH1 0x0 MSTORE DUP6 DUP5 PUSH1 0x0 KECCAK256 SWAP2 DUP3 ADD SWAP2 ADD PUSH2 0x5928 JUMP JUMPDEST DUP7 PUSH2 0x2A30 JUMP JUMPDEST DUP3 MLOAD PUSH1 0x1 PUSH1 0x1 PUSH1 0xA0 SHL SUB AND DUP2 DUP4 ADD SSTORE PUSH1 0x20 SWAP1 SWAP3 ADD SWAP2 PUSH1 0x1 ADD PUSH2 0x29F1 JUMP JUMPDEST PUSH2 0x2B29 SWAP1 PUSH1 0xD DUP8 ADD PUSH1 0x0 MSTORE DUP5 DUP5 PUSH1 0x0 KECCAK256 SWAP2 DUP3 ADD SWAP2 ADD PUSH2 0x5928 JUMP JUMPDEST DUP6 PUSH2 0x29E0 JUMP JUMPDEST DUP1 MLOAD DUP1 MLOAD SWAP1 PUSH1 0x1 PUSH1 0x1 PUSH1 0x40 SHL SUB DUP3 GT PUSH2 0xEDE JUMPI PUSH2 0x2B4C DUP7 SLOAD PUSH2 0x5713 JUMP JUMPDEST PUSH1 0x1F DUP2 GT PUSH2 0x2C12 JUMPI JUMPDEST POP PUSH1 0x20 SWAP1 PUSH1 0x1F DUP4 GT PUSH1 0x1 EQ PUSH2 0x2BA2 JUMPI SWAP3 DUP3 PUSH1 0x1 SWAP5 SWAP4 PUSH1 0x20 SWAP4 DUP7 SWAP6 PUSH1 0x0 SWAP3 PUSH2 0x2B97 JUMPI JUMPDEST POP POP PUSH1 0x0 NOT PUSH1 0x3 DUP4 SWAP1 SHL SHR NOT AND SWAP1 DUP5 SHL OR DUP8 SSTORE JUMPDEST ADD SWAP5 ADD SWAP2 ADD SWAP1 SWAP3 PUSH2 0x294F JUMP JUMPDEST ADD MLOAD SWAP1 POP DUP12 DUP1 PUSH2 0x2B77 JUMP JUMPDEST SWAP1 DUP7 PUSH1 0x0 MSTORE PUSH1 0x20 PUSH1 0x0 KECCAK256 SWAP2 PUSH1 0x0 JUMPDEST PUSH1 0x1F NOT DUP6 AND DUP2 LT PUSH2 0x2BFA JUMPI POP DUP4 PUSH1 0x20 SWAP4 PUSH1 0x1 SWAP7 SWAP4 DUP8 SWAP7 SWAP4 DUP8 SWAP5 PUSH1 0x1F NOT DUP2 AND LT PUSH2 0x2BE1 JUMPI JUMPDEST POP POP POP DUP2 SHL ADD DUP8 SSTORE PUSH2 0x2B8B JUMP JUMPDEST ADD MLOAD PUSH1 0x0 NOT PUSH1 0xF8 DUP5 PUSH1 0x3 SHL AND SHR NOT AND SWAP1 SSTORE DUP12 DUP1 DUP1 PUSH2 0x2BD4 JUMP JUMPDEST SWAP2 SWAP3 PUSH1 0x20 PUSH1 0x1 DUP2 SWAP3 DUP7 DUP6 ADD MLOAD DUP2 SSTORE ADD SWAP5 ADD SWAP3 ADD PUSH2 0x2BB0 JUMP JUMPDEST PUSH2 0x2C3E SWAP1 DUP8 PUSH1 0x0 MSTORE PUSH1 0x20 PUSH1 0x0 KECCAK256 PUSH1 0x1F DUP6 ADD PUSH1 0x5 SHR DUP2 ADD SWAP2 PUSH1 0x20 DUP7 LT PUSH2 0x17CE JUMPI PUSH1 0x1F ADD PUSH1 0x5 SHR ADD SWAP1 PUSH2 0x5928 JUMP JUMPDEST DUP9 PUSH2 0x2B55 JUMP JUMPDEST PUSH1 0x7 DUP6 ADD PUSH1 0x0 MSTORE PUSH1 0x20 PUSH1 0x0 KECCAK256 SWAP1 DUP4 DUP3 ADD JUMPDEST DUP2 DUP4 ADD DUP2 LT PUSH2 0x2C65 JUMPI POP POP PUSH2 0x2939 JUMP JUMPDEST DUP1 PUSH2 0x2C72 PUSH1 0x1 SWAP3 SLOAD PUSH2 0x5713 JUMP JUMPDEST DUP1 PUSH2 0x2C7F JUMPI JUMPDEST POP ADD PUSH2 0x2C55 JUMP JUMPDEST PUSH1 0x1F DUP2 GT DUP4 EQ PUSH2 0x2C95 JUMPI POP PUSH1 0x0 DUP2 SSTORE JUMPDEST DUP9 PUSH2 0x2C78 JUMP JUMPDEST PUSH1 0x0 SWAP1 DUP3 DUP3 MSTORE PUSH2 0x2CB3 PUSH1 0x1F PUSH1 0x20 DUP5 KECCAK256 SWAP3 ADD PUSH1 0x5 SHR DUP3 ADD DUP6 DUP4 ADD PUSH2 0x5928 JUMP JUMPDEST DUP2 DUP4 SSTORE SSTORE PUSH2 0x2C8F JUMP JUMPDEST ADD MLOAD SWAP1 POP DUP5 DUP1 PUSH2 0x28FB JUMP JUMPDEST PUSH1 0x6 DUP5 ADD PUSH1 0x0 MSTORE PUSH1 0x20 PUSH1 0x0 KECCAK256 SWAP1 PUSH1 0x0 JUMPDEST PUSH1 0x1F NOT DUP5 AND DUP2 LT PUSH2 0x2D1D JUMPI POP PUSH1 0x1 SWAP4 SWAP5 SWAP6 DUP4 PUSH1 0x1F NOT DUP2 AND LT PUSH2 0x2D04 JUMPI JUMPDEST POP POP POP DUP2 SHL ADD PUSH1 0x6 DUP4 ADD SSTORE PUSH2 0x2913 JUMP JUMPDEST ADD MLOAD PUSH1 0x0 NOT PUSH1 0xF8 DUP5 PUSH1 0x3 SHL AND SHR NOT AND SWAP1 SSTORE DUP5 DUP1 DUP1 PUSH2 0x2CF4 JUMP JUMPDEST SWAP1 SWAP2 PUSH1 0x20 PUSH1 0x1 DUP2 SWAP3 DUP6 DUP11 ADD MLOAD DUP2 SSTORE ADD SWAP4 ADD SWAP2 ADD PUSH2 0x2CD7 JUMP JUMPDEST PUSH2 0x2D64 SWAP1 PUSH1 0x6 DUP6 ADD PUSH1 0x0 MSTORE PUSH1 0x20 PUSH1 0x0 KECCAK256 PUSH1 0x1F DUP5 ADD PUSH1 0x5 SHR DUP2 ADD SWAP2 PUSH1 0x20 DUP6 LT PUSH2 0x17CE JUMPI PUSH1 0x1F ADD PUSH1 0x5 SHR ADD SWAP1 PUSH2 0x5928 JUMP JUMPDEST DUP5 PUSH2 0x28E1 JUMP JUMPDEST DUP1 MLOAD DUP1 MLOAD SWAP1 PUSH1 0x1 PUSH1 0x1 PUSH1 0x40 SHL SUB DUP3 GT PUSH2 0xEDE JUMPI PUSH2 0x2D87 DUP7 SLOAD PUSH2 0x5713 JUMP JUMPDEST SWAP1 PUSH1 0x1F SWAP2 DUP3 DUP2 GT PUSH2 0x2E4E JUMPI JUMPDEST POP PUSH1 0x20 SWAP2 DUP4 GT PUSH1 0x1 EQ PUSH2 0x2DDE JUMPI SWAP3 DUP3 PUSH1 0x1 SWAP5 SWAP4 PUSH1 0x20 SWAP4 DUP7 SWAP6 PUSH1 0x0 SWAP3 PUSH2 0x2DD3 JUMPI JUMPDEST POP POP PUSH1 0x0 NOT PUSH1 0x3 DUP4 SWAP1 SHL SHR NOT AND SWAP1 DUP5 SHL OR DUP8 SSTORE JUMPDEST ADD SWAP5 ADD SWAP2 ADD SWAP1 SWAP3 PUSH2 0x28AC JUMP JUMPDEST ADD MLOAD SWAP1 POP DUP12 DUP1 PUSH2 0x2DB3 JUMP JUMPDEST SWAP1 DUP7 PUSH1 0x0 MSTORE PUSH1 0x20 PUSH1 0x0 KECCAK256 SWAP2 PUSH1 0x0 JUMPDEST PUSH1 0x1F NOT DUP6 AND DUP2 LT PUSH2 0x2E36 JUMPI POP DUP4 PUSH1 0x20 SWAP4 PUSH1 0x1 SWAP7 SWAP4 DUP8 SWAP7 SWAP4 DUP8 SWAP5 PUSH1 0x1F NOT DUP2 AND LT PUSH2 0x2E1D JUMPI JUMPDEST POP POP POP DUP2 SHL ADD DUP8 SSTORE PUSH2 0x2DC7 JUMP JUMPDEST ADD MLOAD PUSH1 0x0 NOT PUSH1 0xF8 DUP5 PUSH1 0x3 SHL AND SHR NOT AND SWAP1 SSTORE DUP12 DUP1 DUP1 PUSH2 0x2E10 JUMP JUMPDEST SWAP2 SWAP3 PUSH1 0x20 PUSH1 0x1 DUP2 SWAP3 DUP7 DUP6 ADD MLOAD DUP2 SSTORE ADD SWAP5 ADD SWAP3 ADD PUSH2 0x2DEC JUMP JUMPDEST PUSH2 0x2E78 SWAP1 DUP9 PUSH1 0x0 MSTORE PUSH1 0x20 PUSH1 0x0 KECCAK256 DUP5 DUP1 DUP8 ADD PUSH1 0x5 SHR DUP3 ADD SWAP3 PUSH1 0x20 DUP9 LT PUSH2 0x1A13 JUMPI ADD PUSH1 0x5 SHR ADD SWAP1 PUSH2 0x5928 JUMP JUMPDEST DUP10 PUSH2 0x2D93 JUMP JUMPDEST PUSH1 0x5 DUP5 ADD PUSH1 0x0 MSTORE PUSH1 0x20 PUSH1 0x0 KECCAK256 SWAP1 DUP4 DUP3 ADD JUMPDEST DUP2 DUP4 ADD DUP2 LT PUSH2 0x2E9F JUMPI POP POP PUSH2 0x2896 JUMP JUMPDEST DUP1 PUSH2 0x2EAC PUSH1 0x1 SWAP3 SLOAD PUSH2 0x5713 JUMP JUMPDEST DUP1 PUSH2 0x2EB9 JUMPI JUMPDEST POP ADD PUSH2 0x2E8F JUMP JUMPDEST PUSH1 0x1F SWAP1 DUP2 DUP2 GT DUP5 EQ PUSH2 0x2ED2 JUMPI POP POP PUSH1 0x0 DUP2 SSTORE JUMPDEST DUP9 PUSH2 0x2EB2 JUMP JUMPDEST PUSH2 0x2EEE PUSH1 0x0 SWAP3 DUP5 DUP5 MSTORE PUSH1 0x20 DUP5 KECCAK256 SWAP3 ADD PUSH1 0x5 SHR DUP3 ADD DUP6 DUP4 ADD PUSH2 0x5928 JUMP JUMPDEST DUP2 DUP4 SSTORE SSTORE PUSH2 0x2ECC JUMP JUMPDEST PUSH2 0x2F10 SWAP2 POP PUSH1 0x20 RETURNDATASIZE PUSH1 0x20 GT PUSH2 0xB46 JUMPI PUSH2 0xB37 DUP2 DUP4 PUSH2 0x55EF JUMP JUMPDEST DUP7 PUSH2 0x2668 JUMP JUMPDEST SWAP2 POP SWAP2 POP PUSH1 0x20 DUP2 RETURNDATASIZE PUSH1 0x20 GT PUSH2 0x2F45 JUMPI JUMPDEST DUP2 PUSH2 0x2F33 PUSH1 0x20 SWAP4 DUP4 PUSH2 0x55EF JUMP JUMPDEST DUP2 ADD SUB SLT PUSH2 0x60D JUMPI DUP4 SWAP1 MLOAD SWAP2 DUP10 PUSH2 0x261D JUMP JUMPDEST RETURNDATASIZE SWAP2 POP PUSH2 0x2F26 JUMP JUMPDEST SWAP1 POP PUSH1 0x20 DUP2 RETURNDATASIZE PUSH1 0x20 GT PUSH2 0x2F77 JUMPI JUMPDEST DUP2 PUSH2 0x2F68 PUSH1 0x20 SWAP4 DUP4 PUSH2 0x55EF JUMP JUMPDEST DUP2 ADD SUB SLT PUSH2 0x60D JUMPI MLOAD DUP8 PUSH2 0x25EF JUMP JUMPDEST RETURNDATASIZE SWAP2 POP PUSH2 0x2F5B JUMP JUMPDEST CALLVALUE PUSH2 0x60D JUMPI PUSH1 0x20 DUP1 PUSH1 0x3 NOT CALLDATASIZE ADD SLT PUSH2 0x60D JUMPI PUSH1 0x4 CALLDATALOAD SWAP1 DUP2 PUSH1 0x0 MSTORE PUSH1 0x4 DUP2 MSTORE PUSH1 0x40 PUSH1 0x0 KECCAK256 SWAP1 PUSH1 0x9 DUP3 ADD SLOAD TIMESTAMP LT ISZERO DUP1 PUSH2 0x3196 JUMPI JUMPDEST DUP1 PUSH2 0x3187 JUMPI JUMPDEST ISZERO PUSH2 0x3130 JUMPI PUSH1 0xB DUP3 ADD PUSH1 0xFF NOT SWAP1 PUSH1 0x1 DUP3 DUP3 SLOAD AND OR SWAP1 SSTORE PUSH1 0x1 DUP1 PUSH1 0xA0 SHL SUB DUP1 PUSH1 0x1 SLOAD AND DUP6 PUSH1 0x0 MSTORE PUSH1 0x8 DUP5 MSTORE DUP4 PUSH1 0x40 PUSH1 0x0 KECCAK256 SLOAD PUSH1 0x24 PUSH1 0x40 MLOAD DUP1 SWAP5 DUP2 SWAP4 PUSH4 0x31A9108F PUSH1 0xE1 SHL DUP4 MSTORE PUSH1 0x4 DUP4 ADD MSTORE GAS STATICCALL DUP1 ISZERO PUSH2 0xB4D JUMPI PUSH2 0x3086 SWAP3 DUP6 SWAP3 PUSH1 0x0 SWAP3 PUSH2 0x3101 JUMPI JUMPDEST POP PUSH1 0x0 DUP9 DUP2 MSTORE PUSH1 0x8 DUP5 MSTORE PUSH1 0x40 DUP2 KECCAK256 PUSH1 0x3 ADD DUP1 SLOAD PUSH1 0xFF PUSH1 0xA0 SHL NOT AND PUSH1 0x1 PUSH1 0xA0 SHL OR SWAP1 SSTORE SLOAD PUSH1 0x15 DUP9 ADD SLOAD PUSH1 0x1 DUP10 ADD SLOAD SWAP3 SWAP1 SWAP2 AND SWAP2 PUSH2 0x3051 SWAP2 PUSH2 0x58D9 JUMP JUMPDEST PUSH1 0x40 MLOAD PUSH4 0xA9059CBB PUSH1 0xE0 SHL DUP2 MSTORE PUSH1 0x1 PUSH1 0x1 PUSH1 0xA0 SHL SUB SWAP1 SWAP4 AND PUSH1 0x4 DUP5 ADD MSTORE PUSH1 0x24 DUP4 ADD MSTORE SWAP1 SWAP3 DUP4 SWAP2 SWAP1 DUP3 SWAP1 PUSH1 0x0 SWAP1 DUP3 SWAP1 PUSH1 0x44 DUP3 ADD SWAP1 JUMP JUMPDEST SUB SWAP3 GAS CALL DUP1 ISZERO PUSH2 0xB4D JUMPI PUSH1 0xA SWAP5 PUSH1 0x6 SWAP3 PUSH1 0x14 SWAP3 PUSH2 0x30E4 JUMPI JUMPDEST POP ADD SWAP2 DUP3 SLOAD AND OR SWAP1 SSTORE CALLER PUSH1 0x0 MSTORE MSTORE PUSH1 0x40 PUSH1 0x0 KECCAK256 PUSH2 0x30BB DUP2 SLOAD PUSH2 0x5957 JUMP JUMPDEST SWAP1 SSTORE PUSH32 0x953601EBA1ACF6D4769AF39F3986A5BE6ACD796655930C93832C2F239FBCCABF PUSH1 0x0 DUP1 LOG2 STOP JUMPDEST PUSH2 0x30FA SWAP1 DUP7 RETURNDATASIZE DUP9 GT PUSH2 0xB46 JUMPI PUSH2 0xB37 DUP2 DUP4 PUSH2 0x55EF JUMP JUMPDEST POP DUP8 PUSH2 0x309E JUMP JUMPDEST PUSH2 0x3122 SWAP2 SWAP3 POP DUP4 RETURNDATASIZE DUP6 GT PUSH2 0x3129 JUMPI JUMPDEST PUSH2 0x311A DUP2 DUP4 PUSH2 0x55EF JUMP JUMPDEST DUP2 ADD SWAP1 PUSH2 0x6076 JUMP JUMPDEST SWAP1 DUP9 PUSH2 0x3016 JUMP JUMPDEST POP RETURNDATASIZE PUSH2 0x3110 JUMP JUMPDEST PUSH1 0x84 SWAP1 PUSH1 0x40 MLOAD SWAP1 PUSH3 0x461BCD PUSH1 0xE5 SHL DUP3 MSTORE PUSH1 0x4 DUP3 ADD MSTORE PUSH1 0x2A PUSH1 0x24 DUP3 ADD MSTORE PUSH32 0x566572696669636174696F6E20446561646C696E6520686173206E6F74206265 PUSH1 0x44 DUP3 ADD MSTORE PUSH10 0x32B7103830B9B9B2B217 PUSH1 0xB1 SHL PUSH1 0x64 DUP3 ADD MSTORE REVERT JUMPDEST POP PUSH1 0xFF PUSH1 0xB DUP4 ADD SLOAD AND ISZERO PUSH2 0x2FB7 JUMP JUMPDEST POP PUSH1 0xFF PUSH1 0x14 DUP4 ADD SLOAD AND PUSH1 0x9 DUP2 LT ISZERO PUSH2 0x5F7 JUMPI PUSH1 0x7 EQ ISZERO PUSH2 0x2FB1 JUMP JUMPDEST CALLVALUE PUSH2 0x60D JUMPI PUSH1 0x20 CALLDATASIZE PUSH1 0x3 NOT ADD SLT PUSH2 0x60D JUMPI PUSH1 0x1 PUSH1 0x1 PUSH1 0xA0 SHL SUB PUSH2 0x31D2 PUSH2 0x554F JUMP JUMPDEST AND PUSH1 0x0 MSTORE PUSH1 0xB PUSH1 0x20 MSTORE PUSH1 0x20 PUSH1 0x40 PUSH1 0x0 KECCAK256 SLOAD PUSH1 0x40 MLOAD SWAP1 DUP2 MSTORE RETURN JUMPDEST CALLVALUE PUSH2 0x60D JUMPI PUSH2 0x31F9 CALLDATASIZE PUSH2 0x56FD JUMP JUMPDEST SWAP1 PUSH1 0x0 MSTORE PUSH1 0x5 PUSH1 0x20 MSTORE PUSH1 0x40 PUSH1 0x0 KECCAK256 SWAP1 PUSH1 0x0 MSTORE PUSH1 0x20 MSTORE PUSH1 0x3 PUSH1 0x40 PUSH1 0x0 KECCAK256 ADD CALLER PUSH1 0x0 MSTORE PUSH1 0x20 MSTORE PUSH1 0x20 PUSH1 0xFF PUSH1 0x40 PUSH1 0x0 KECCAK256 SLOAD AND PUSH1 0x40 MLOAD SWAP1 ISZERO ISZERO DUP2 MSTORE RETURN JUMPDEST CALLVALUE PUSH2 0x60D JUMPI PUSH1 0x0 CALLDATASIZE PUSH1 0x3 NOT ADD SLT PUSH2 0x60D JUMPI PUSH1 0x2 SLOAD PUSH1 0x40 MLOAD PUSH1 0x1 PUSH1 0x1 PUSH1 0xA0 SHL SUB SWAP1 SWAP2 AND DUP2 MSTORE PUSH1 0x20 SWAP1 RETURN JUMPDEST CALLVALUE PUSH2 0x60D JUMPI PUSH1 0x20 CALLDATASIZE PUSH1 0x3 NOT ADD SLT PUSH2 0x60D JUMPI PUSH1 0x4 CALLDATALOAD PUSH1 0x0 MSTORE PUSH1 0x4 PUSH1 0x20 MSTORE PUSH1 0x40 PUSH1 0x0 KECCAK256 PUSH1 0xD DUP2 ADD SLOAD PUSH1 0x4 DUP3 ADD SLOAD DUP2 SUB PUSH2 0x39A1 JUMPI PUSH1 0xFF PUSH1 0xB DUP4 ADD SLOAD PUSH1 0x8 SHR AND ISZERO PUSH2 0x3952 JUMPI PUSH1 0xC DUP3 ADD SLOAD GT PUSH2 0x3901 JUMPI PUSH1 0x9 DUP2 ADD SLOAD PUSH1 0x10 DUP3 ADD SLOAD SWAP1 DUP2 PUSH1 0x3 MUL SWAP2 PUSH1 0x3 DUP4 DIV SUB PUSH2 0xC1D JUMPI PUSH2 0x32CC PUSH2 0x32D3 SWAP3 TIMESTAMP PUSH2 0x58D9 JUMP JUMPDEST GT ISZERO PUSH2 0x5ECF JUMP JUMPDEST PUSH1 0x4 CALLDATALOAD PUSH1 0x0 MSTORE PUSH1 0x5 PUSH1 0x20 MSTORE PUSH1 0x40 PUSH1 0x0 KECCAK256 PUSH1 0x13 DUP3 ADD SLOAD SWAP1 DUP2 PUSH1 0x0 MSTORE PUSH1 0x20 MSTORE PUSH1 0x1 PUSH1 0x40 PUSH1 0x0 KECCAK256 ADD CALLER PUSH1 0x0 MSTORE PUSH1 0x20 MSTORE PUSH1 0xFF PUSH1 0x40 PUSH1 0x0 KECCAK256 SLOAD AND PUSH2 0x38BC JUMPI PUSH1 0x4 CALLDATALOAD PUSH1 0x0 MSTORE PUSH1 0x5 PUSH1 0x20 MSTORE PUSH1 0x40 PUSH1 0x0 KECCAK256 SWAP1 PUSH1 0x0 MSTORE PUSH1 0x20 MSTORE PUSH1 0x1 PUSH1 0x40 PUSH1 0x0 KECCAK256 ADD CALLER PUSH1 0x0 MSTORE PUSH1 0x20 MSTORE PUSH1 0x40 PUSH1 0x0 KECCAK256 PUSH1 0x1 PUSH1 0xFF NOT DUP3 SLOAD AND OR SWAP1 SSTORE PUSH1 0x19 DUP2 ADD SLOAD PUSH1 0xC DUP3 ADD SLOAD DUP2 LT PUSH1 0x0 EQ PUSH2 0x3788 JUMPI POP PUSH1 0x4 DUP2 ADD SLOAD PUSH2 0x336A PUSH1 0x19 DUP4 ADD SLOAD DUP1 SWAP3 PUSH2 0x58E6 JUMP JUMPDEST PUSH1 0x40 MLOAD PUSH1 0x20 DUP2 ADD SWAP1 TIMESTAMP DUP3 MSTORE PREVRANDAO PUSH1 0x40 DUP3 ADD MSTORE CALLER PUSH1 0x60 SHL PUSH1 0x60 DUP3 ADD MSTORE PUSH1 0x54 DUP2 MSTORE PUSH2 0x3391 DUP2 PUSH2 0x55B9 JUMP JUMPDEST MLOAD SWAP1 KECCAK256 SWAP1 DUP1 ISZERO PUSH2 0x3772 JUMPI DUP3 PUSH2 0x33AA SWAP2 PUSH2 0x3414 SWAP4 MOD PUSH2 0x58D9 JUMP JUMPDEST PUSH2 0x33F5 PUSH2 0x33D9 PUSH2 0x33BD DUP4 PUSH1 0xD DUP9 ADD PUSH2 0x5F41 JUMP JUMPDEST SWAP1 SLOAD PUSH1 0x3 SWAP2 SWAP1 SWAP2 SHL SHR PUSH1 0x1 PUSH1 0x1 PUSH1 0xA0 SHL SUB AND SWAP5 PUSH1 0xD DUP8 ADD PUSH2 0x5F41 JUMP JUMPDEST SWAP1 SLOAD PUSH1 0x3 SWAP2 SWAP1 SWAP2 SHL SHR PUSH1 0x1 PUSH1 0x1 PUSH1 0xA0 SHL SUB AND SWAP2 PUSH1 0xD DUP7 ADD PUSH2 0x5F41 JUMP JUMPDEST SWAP1 SWAP2 SWAP1 DUP3 SLOAD SWAP1 PUSH1 0x3 SHL SWAP2 PUSH1 0x1 DUP1 PUSH1 0xA0 SHL SUB DUP1 SWAP2 AND DUP4 SHL SWAP3 SHL NOT AND OR SWAP1 SSTORE JUMP JUMPDEST PUSH2 0x3429 DUP2 PUSH2 0x33F5 PUSH1 0x19 DUP6 ADD SLOAD PUSH1 0xD DUP7 ADD PUSH2 0x5F41 JUMP JUMPDEST PUSH1 0x19 DUP3 ADD SLOAD PUSH2 0x343B DUP2 PUSH1 0xD DUP6 ADD PUSH2 0x5F41 JUMP JUMPDEST PUSH1 0x1 DUP1 PUSH1 0xA0 SHL SUB SWAP2 SLOAD SWAP1 PUSH1 0x3 SHL SHR AND PUSH1 0x12 DUP5 ADD SLOAD SWAP2 PUSH1 0x40 MLOAD SWAP1 DUP2 MSTORE PUSH32 0x441EA878E9821F31AF14375BEF585BAC76BBBDE0E10FEDDC036673243D01A1D7 PUSH1 0x20 PUSH1 0x4 CALLDATALOAD SWAP3 LOG4 PUSH1 0x4 CALLDATALOAD PUSH1 0x0 MSTORE PUSH1 0x5 PUSH1 0x20 MSTORE PUSH1 0x40 PUSH1 0x0 KECCAK256 PUSH1 0x13 DUP4 ADD SLOAD PUSH1 0x0 MSTORE PUSH1 0x20 MSTORE PUSH1 0x3 PUSH1 0x40 PUSH1 0x0 KECCAK256 ADD SWAP1 PUSH1 0x0 MSTORE PUSH1 0x20 MSTORE PUSH1 0x40 PUSH1 0x0 KECCAK256 PUSH1 0x1 PUSH1 0xFF NOT DUP3 SLOAD AND OR SWAP1 SSTORE PUSH2 0x34E7 PUSH2 0x34CC PUSH1 0x19 DUP4 ADD SLOAD PUSH1 0xD DUP5 ADD PUSH2 0x5F41 JUMP JUMPDEST SWAP1 SLOAD PUSH1 0x3 SWAP2 SWAP1 SWAP2 SHL SHR PUSH1 0x1 PUSH1 0x1 PUSH1 0xA0 SHL SUB AND PUSH1 0xE DUP4 ADD PUSH2 0x5F6F JUMP JUMPDEST PUSH1 0x16 DUP2 ADD SLOAD PUSH2 0x34FB PUSH1 0x17 DUP4 ADD SWAP2 DUP3 SLOAD PUSH2 0x58D9 JUMP JUMPDEST SWAP1 SSTORE JUMPDEST PUSH1 0x19 DUP2 ADD SLOAD SWAP1 PUSH1 0x1 DUP3 ADD DUP1 SWAP3 GT PUSH2 0xC1D JUMPI DUP1 DUP3 PUSH1 0x19 PUSH1 0xC SWAP4 ADD SSTORE ADD SLOAD EQ PUSH2 0x3521 JUMPI STOP JUMPDEST PUSH1 0x4 CALLDATALOAD PUSH1 0x0 MSTORE PUSH1 0x4 PUSH1 0x20 MSTORE PUSH1 0x40 PUSH1 0x0 KECCAK256 PUSH1 0x12 DUP2 ADD SWAP1 DUP2 SLOAD PUSH1 0x11 DUP3 ADD SLOAD GT ISZERO PUSH2 0x372D JUMPI PUSH1 0x9 DUP2 ADD SLOAD SWAP2 PUSH1 0x10 DUP3 ADD SWAP3 DUP4 SLOAD DUP1 PUSH1 0x3 MUL SWAP1 PUSH1 0x3 DUP3 DIV SUB PUSH2 0xC1D JUMPI PUSH2 0x3568 SWAP1 TIMESTAMP PUSH2 0x58D9 JUMP JUMPDEST LT ISZERO PUSH2 0x36CE JUMPI PUSH1 0x14 SWAP3 PUSH1 0x4 CALLDATALOAD PUSH1 0x0 MSTORE PUSH1 0x5 PUSH1 0x20 MSTORE PUSH1 0x40 PUSH1 0x0 KECCAK256 SWAP1 PUSH1 0x13 DUP5 ADD SWAP2 DUP3 SLOAD PUSH1 0x0 MSTORE PUSH1 0x20 MSTORE TIMESTAMP PUSH1 0x6 PUSH1 0x40 PUSH1 0x0 KECCAK256 ADD SSTORE PUSH2 0x35A4 DUP2 SLOAD TIMESTAMP PUSH2 0x58D9 JUMP JUMPDEST PUSH1 0x4 CALLDATALOAD PUSH1 0x0 MSTORE PUSH1 0x5 PUSH1 0x20 MSTORE PUSH1 0x40 PUSH1 0x0 KECCAK256 DUP4 SLOAD PUSH1 0x0 MSTORE PUSH1 0x20 MSTORE PUSH1 0x7 PUSH1 0x40 PUSH1 0x0 KECCAK256 ADD SSTORE PUSH1 0x4 CALLDATALOAD PUSH1 0x0 MSTORE PUSH1 0x5 PUSH1 0x20 MSTORE PUSH1 0x40 PUSH1 0x0 KECCAK256 DUP3 SLOAD SWAP1 DUP2 PUSH1 0x0 MSTORE PUSH1 0x20 MSTORE PUSH2 0x35F3 PUSH1 0x7 PUSH1 0x40 PUSH1 0x0 KECCAK256 ADD SLOAD DUP4 SLOAD SWAP1 PUSH2 0x58D9 JUMP JUMPDEST SWAP1 PUSH1 0x4 CALLDATALOAD PUSH1 0x0 MSTORE PUSH1 0x5 PUSH1 0x20 MSTORE PUSH1 0x40 PUSH1 0x0 KECCAK256 SWAP1 PUSH1 0x0 MSTORE PUSH1 0x20 MSTORE PUSH1 0x8 PUSH1 0x40 PUSH1 0x0 KECCAK256 ADD SSTORE PUSH1 0x4 CALLDATALOAD PUSH1 0x0 MSTORE PUSH1 0x5 PUSH1 0x20 MSTORE PUSH2 0x3643 PUSH1 0x40 PUSH1 0x0 KECCAK256 SWAP2 DUP4 SLOAD SWAP3 DUP4 PUSH1 0x0 MSTORE PUSH1 0x20 MSTORE PUSH1 0x8 PUSH1 0x40 PUSH1 0x0 KECCAK256 ADD SLOAD SWAP1 SLOAD SWAP1 PUSH2 0x58D9 JUMP JUMPDEST SWAP1 PUSH1 0x4 CALLDATALOAD PUSH1 0x0 MSTORE PUSH1 0x5 PUSH1 0x20 MSTORE PUSH1 0x40 PUSH1 0x0 KECCAK256 SWAP1 PUSH1 0x0 MSTORE PUSH1 0x20 MSTORE PUSH1 0x9 PUSH1 0x40 PUSH1 0x0 KECCAK256 ADD SSTORE PUSH1 0x4 CALLDATALOAD PUSH1 0x0 MSTORE PUSH1 0x5 PUSH1 0x20 MSTORE PUSH1 0x40 PUSH1 0x0 KECCAK256 SWAP1 SLOAD PUSH1 0x0 MSTORE PUSH1 0x20 MSTORE PUSH1 0x7 PUSH1 0x40 PUSH1 0x0 KECCAK256 ADD SLOAD SWAP1 SLOAD PUSH1 0x40 MLOAD SWAP2 TIMESTAMP DUP4 MSTORE PUSH1 0x20 DUP4 ADD MSTORE PUSH1 0x40 DUP3 ADD MSTORE PUSH32 0x27E90E135BB91BF6706A23381E6D0D480F8BB7D002D6E9A197B432B7B654245F PUSH1 0x60 PUSH1 0x4 CALLDATALOAD SWAP3 LOG2 ADD DUP1 SLOAD PUSH1 0xFF NOT AND PUSH1 0x3 OR SWAP1 SSTORE STOP JUMPDEST PUSH1 0x40 MLOAD PUSH3 0x461BCD PUSH1 0xE5 SHL DUP2 MSTORE PUSH1 0x20 PUSH1 0x4 DUP3 ADD MSTORE PUSH1 0x31 PUSH1 0x24 DUP3 ADD MSTORE PUSH32 0x566572696669636174696F6E20446561646C696E652068617320706173736564 PUSH1 0x44 DUP3 ADD MSTORE PUSH17 0x81D1BC81CDD185C9D0818481C9BDD5B99 PUSH1 0x7A SHL PUSH1 0x64 DUP3 ADD MSTORE PUSH1 0x84 SWAP1 REVERT JUMPDEST PUSH1 0x40 MLOAD PUSH3 0x461BCD PUSH1 0xE5 SHL DUP2 MSTORE PUSH1 0x20 PUSH1 0x4 DUP3 ADD MSTORE PUSH1 0x1E PUSH1 0x24 DUP3 ADD MSTORE PUSH32 0x416C6C206C61796572732068617665206265656E2070726F6365737365640000 PUSH1 0x44 DUP3 ADD MSTORE PUSH1 0x64 SWAP1 REVERT JUMPDEST PUSH4 0x4E487B71 PUSH1 0xE0 SHL PUSH1 0x0 MSTORE PUSH1 0x12 PUSH1 0x4 MSTORE PUSH1 0x24 PUSH1 0x0 REVERT JUMPDEST PUSH2 0x3835 PUSH1 0x20 PUSH2 0x379A DUP4 PUSH1 0xD DUP7 ADD PUSH2 0x5F41 JUMP JUMPDEST SWAP4 SWAP1 PUSH1 0x1 DUP1 PUSH1 0xA0 SHL SUB SWAP5 DUP6 SWAP2 SLOAD SWAP1 PUSH1 0x3 SHL SHR AND PUSH1 0x12 DUP7 ADD SLOAD SWAP1 PUSH1 0x40 MLOAD DUP4 DUP2 MSTORE PUSH32 0xD2673C2F320637ECD6E1E7A21780CB318C5A6C5B49398F8C5AE9D0AE0AAD4743 DUP6 PUSH1 0x4 CALLDATALOAD SWAP3 LOG4 DUP4 PUSH2 0x37F3 DUP2 PUSH1 0x0 SLOAD AND SWAP3 PUSH1 0xD DUP9 ADD PUSH2 0x5F41 JUMP JUMPDEST SWAP1 SLOAD SWAP1 PUSH1 0x3 SHL SHR AND SWAP1 PUSH1 0x16 DUP7 ADD SLOAD SWAP2 PUSH1 0x0 PUSH1 0x40 MLOAD DUP1 SWAP7 DUP2 SWAP6 DUP3 SWAP5 PUSH4 0xA9059CBB PUSH1 0xE0 SHL DUP5 MSTORE PUSH1 0x4 DUP5 ADD PUSH1 0x20 SWAP1 SWAP4 SWAP3 SWAP2 SWAP4 PUSH1 0x40 DUP2 ADD SWAP5 PUSH1 0x1 DUP1 PUSH1 0xA0 SHL SUB AND DUP2 MSTORE ADD MSTORE JUMP JUMPDEST SUB SWAP3 GAS CALL DUP1 ISZERO PUSH2 0xB4D JUMPI PUSH2 0x389D JUMPI JUMPDEST POP PUSH1 0x4 CALLDATALOAD PUSH1 0x0 MSTORE PUSH1 0x6 PUSH1 0x20 MSTORE PUSH1 0x40 PUSH1 0x0 KECCAK256 PUSH1 0x13 DUP4 ADD SLOAD PUSH1 0x0 MSTORE PUSH1 0x20 MSTORE PUSH1 0x40 PUSH1 0x0 KECCAK256 SWAP1 PUSH2 0x3877 PUSH1 0x19 DUP5 ADD SLOAD PUSH1 0xD DUP6 ADD PUSH2 0x5F41 JUMP JUMPDEST SWAP1 SLOAD SWAP1 PUSH1 0x3 SHL SHR AND PUSH1 0x0 MSTORE PUSH1 0x20 MSTORE PUSH1 0x6 PUSH1 0x40 PUSH1 0x0 KECCAK256 ADD PUSH1 0x1 PUSH1 0xFF NOT DUP3 SLOAD AND OR SWAP1 SSTORE PUSH2 0x34FE JUMP JUMPDEST PUSH2 0x38B5 SWAP1 PUSH1 0x20 RETURNDATASIZE PUSH1 0x20 GT PUSH2 0xB46 JUMPI PUSH2 0xB37 DUP2 DUP4 PUSH2 0x55EF JUMP JUMPDEST POP DUP3 PUSH2 0x3844 JUMP JUMPDEST PUSH1 0x40 MLOAD PUSH3 0x461BCD PUSH1 0xE5 SHL DUP2 MSTORE PUSH1 0x20 PUSH1 0x4 DUP3 ADD MSTORE PUSH1 0x1E PUSH1 0x24 DUP3 ADD MSTORE PUSH32 0x56657269666965722068617320616C7265616479207472696767657265640000 PUSH1 0x44 DUP3 ADD MSTORE PUSH1 0x64 SWAP1 REVERT JUMPDEST PUSH1 0x40 MLOAD PUSH3 0x461BCD PUSH1 0xE5 SHL DUP2 MSTORE PUSH1 0x20 PUSH1 0x4 DUP3 ADD MSTORE PUSH1 0x23 PUSH1 0x24 DUP3 ADD MSTORE PUSH32 0x4E6F7420656E6F7567682076657269666965727320746F2063686F6F73652066 PUSH1 0x44 DUP3 ADD MSTORE PUSH3 0x726F6D PUSH1 0xE8 SHL PUSH1 0x64 DUP3 ADD MSTORE PUSH1 0x84 SWAP1 REVERT JUMPDEST PUSH1 0x40 MLOAD PUSH3 0x461BCD PUSH1 0xE5 SHL DUP2 MSTORE PUSH1 0x20 PUSH1 0x4 DUP3 ADD MSTORE PUSH1 0x21 PUSH1 0x24 DUP3 ADD MSTORE PUSH32 0x5265717565737420686173206E6F74206265656E20636F6D7075746564207965 PUSH1 0x44 DUP3 ADD MSTORE PUSH1 0x1D PUSH1 0xFA SHL PUSH1 0x64 DUP3 ADD MSTORE PUSH1 0x84 SWAP1 REVERT JUMPDEST PUSH1 0x40 MLOAD PUSH3 0x461BCD PUSH1 0xE5 SHL DUP2 MSTORE PUSH1 0x20 PUSH1 0x4 DUP3 ADD MSTORE PUSH1 0x21 PUSH1 0x24 DUP3 ADD MSTORE PUSH32 0x5665726966696572206C69737420686173206E6F74206265656E2066696C6C65 PUSH1 0x44 DUP3 ADD MSTORE PUSH1 0x19 PUSH1 0xFA SHL PUSH1 0x64 DUP3 ADD MSTORE PUSH1 0x84 SWAP1 REVERT JUMPDEST CALLVALUE PUSH2 0x60D JUMPI PUSH2 0x39FE CALLDATASIZE PUSH2 0x56FD JUMP JUMPDEST SWAP1 PUSH1 0x0 MSTORE PUSH1 0x5 PUSH1 0x20 MSTORE PUSH1 0x40 PUSH1 0x0 KECCAK256 SWAP1 PUSH1 0x0 MSTORE PUSH1 0x20 MSTORE PUSH2 0x1A0 PUSH1 0x40 PUSH1 0x0 KECCAK256 PUSH1 0x4 DUP2 ADD SLOAD SWAP1 PUSH1 0x5 DUP2 ADD SLOAD SWAP1 PUSH1 0x6 DUP2 ADD SLOAD PUSH1 0x7 DUP3 ADD SLOAD PUSH1 0x8 DUP4 ADD SLOAD PUSH1 0x9 DUP5 ADD SLOAD PUSH1 0xA DUP6 ADD SLOAD PUSH1 0xB DUP7 ADD SLOAD SWAP2 PUSH1 0xC DUP8 ADD SLOAD SWAP4 PUSH1 0xD DUP9 ADD SLOAD SWAP6 PUSH1 0xE DUP10 ADD SLOAD SWAP8 PUSH1 0x10 PUSH1 0xF DUP12 ADD SLOAD SWAP11 ADD SLOAD SWAP11 PUSH1 0x40 MLOAD SWAP13 DUP14 MSTORE PUSH1 0x20 DUP14 ADD MSTORE PUSH1 0x40 DUP13 ADD MSTORE PUSH1 0x60 DUP12 ADD MSTORE PUSH1 0x80 DUP11 ADD MSTORE PUSH1 0xA0 DUP10 ADD MSTORE PUSH1 0xC0 DUP9 ADD MSTORE PUSH1 0xE0 DUP8 ADD MSTORE PUSH2 0x100 DUP7 ADD MSTORE PUSH2 0x120 DUP6 ADD MSTORE PUSH2 0x140 DUP5 ADD MSTORE PUSH2 0x160 DUP4 ADD MSTORE PUSH2 0x180 DUP3 ADD MSTORE RETURN JUMPDEST CALLVALUE PUSH2 0x60D JUMPI PUSH2 0x3ABA CALLDATASIZE PUSH2 0x56FD JUMP JUMPDEST DUP2 PUSH1 0x0 MSTORE PUSH1 0x20 PUSH1 0x4 DUP2 MSTORE PUSH1 0x40 PUSH1 0x0 KECCAK256 SWAP1 PUSH1 0x5 SWAP1 DUP2 DUP2 MSTORE PUSH1 0x40 PUSH1 0x0 KECCAK256 DUP5 PUSH1 0x0 MSTORE DUP2 MSTORE PUSH1 0x9 PUSH1 0x40 PUSH1 0x0 KECCAK256 ADD SLOAD TIMESTAMP LT DUP1 ISZERO SWAP1 PUSH2 0x41B1 JUMPI JUMPDEST ISZERO PUSH2 0x415E JUMPI DUP5 PUSH1 0x0 MSTORE DUP2 DUP2 MSTORE PUSH1 0x40 PUSH1 0x0 KECCAK256 DUP5 PUSH1 0x0 MSTORE DUP2 MSTORE PUSH1 0x3 PUSH1 0x40 PUSH1 0x0 KECCAK256 ADD CALLER PUSH1 0x0 MSTORE DUP2 MSTORE PUSH1 0xFF SWAP1 PUSH2 0x3B26 DUP3 PUSH1 0x40 PUSH1 0x0 KECCAK256 SLOAD AND PUSH2 0x6014 JUMP JUMPDEST DUP6 PUSH1 0x0 MSTORE PUSH1 0x6 SWAP1 DUP2 DUP2 MSTORE PUSH1 0x40 PUSH1 0x0 KECCAK256 DUP7 PUSH1 0x0 MSTORE DUP2 MSTORE PUSH1 0x40 PUSH1 0x0 KECCAK256 CALLER PUSH1 0x0 MSTORE DUP2 MSTORE DUP3 DUP3 PUSH1 0x40 PUSH1 0x0 KECCAK256 ADD SLOAD AND PUSH2 0x4106 JUMPI PUSH1 0x13 DUP6 ADD SWAP5 DUP6 SLOAD DUP8 GT PUSH2 0x409B JUMPI PUSH1 0x1 SWAP4 DUP5 DUP9 LT PUSH2 0x403E JUMPI DUP9 PUSH1 0x0 MSTORE DUP6 DUP4 MSTORE PUSH1 0x40 PUSH1 0x0 KECCAK256 DUP9 PUSH1 0x0 MSTORE DUP4 MSTORE DUP5 PUSH1 0x40 PUSH1 0x0 KECCAK256 ADD CALLER PUSH1 0x0 MSTORE DUP4 MSTORE PUSH2 0x3B9A DUP2 PUSH1 0x40 PUSH1 0x0 KECCAK256 SLOAD AND PUSH2 0x5FD2 JUMP JUMPDEST DUP9 PUSH1 0x0 MSTORE DUP4 DUP4 MSTORE PUSH1 0x40 PUSH1 0x0 KECCAK256 DUP9 PUSH1 0x0 MSTORE DUP4 MSTORE PUSH1 0x40 PUSH1 0x0 KECCAK256 CALLER PUSH1 0x0 MSTORE DUP4 MSTORE DUP4 PUSH1 0x40 PUSH1 0x0 KECCAK256 ADD SWAP6 PUSH1 0xFF NOT SWAP7 DUP7 DUP9 DUP3 SLOAD AND OR SWAP1 SSTORE DUP10 PUSH1 0x0 MSTORE DUP1 DUP5 MSTORE PUSH1 0x40 PUSH1 0x0 KECCAK256 DUP10 PUSH1 0x0 MSTORE DUP5 MSTORE PUSH1 0xA PUSH1 0x40 PUSH1 0x0 KECCAK256 ADD SLOAD SWAP1 DUP2 ISZERO PUSH1 0x0 EQ PUSH2 0x3C94 JUMPI POP POP PUSH1 0x0 DUP1 SLOAD PUSH1 0x16 SWAP4 SWAP1 SWAP4 ADD SLOAD PUSH1 0x40 MLOAD PUSH4 0xA9059CBB PUSH1 0xE0 SHL DUP2 MSTORE CALLER PUSH1 0x4 DUP3 ADD MSTORE PUSH1 0x24 DUP2 ADD SWAP2 SWAP1 SWAP2 MSTORE SWAP3 DUP5 SWAP3 POP DUP4 SWAP2 PUSH1 0x44 SWAP2 DUP4 SWAP2 SWAP1 PUSH1 0x1 PUSH1 0x1 PUSH1 0xA0 SHL SUB AND GAS CALL DUP1 ISZERO PUSH2 0xB4D JUMPI PUSH2 0x3C77 JUMPI JUMPDEST POP DUP7 PUSH1 0x0 MSTORE DUP2 DUP2 MSTORE PUSH1 0x40 PUSH1 0x0 KECCAK256 DUP7 PUSH1 0x0 MSTORE DUP2 MSTORE PUSH1 0x40 PUSH1 0x0 KECCAK256 SWAP1 CALLER PUSH1 0x0 MSTORE MSTORE PUSH1 0x40 PUSH1 0x0 KECCAK256 ADD SWAP2 DUP3 SLOAD AND OR SWAP1 SSTORE SLOAD EQ PUSH2 0x3C6E JUMPI JUMPDEST STOP JUMPDEST PUSH2 0x3C6C SWAP1 PUSH2 0x5D02 JUMP JUMPDEST PUSH2 0x3C8D SWAP1 DUP3 RETURNDATASIZE DUP5 GT PUSH2 0xB46 JUMPI PUSH2 0xB37 DUP2 DUP4 PUSH2 0x55EF JUMP JUMPDEST POP DUP8 PUSH2 0x3C3A JUMP JUMPDEST SWAP1 SWAP3 SWAP7 SWAP4 SWAP6 SWAP9 DUP1 SWAP3 SWAP9 DUP12 PUSH1 0x0 MSTORE DUP7 DUP9 MSTORE PUSH1 0x40 PUSH1 0x0 KECCAK256 DUP3 PUSH1 0x0 MSTORE DUP9 MSTORE PUSH1 0x40 PUSH1 0x0 KECCAK256 CALLER PUSH1 0x0 MSTORE DUP9 MSTORE DUP8 DUP13 DUP11 DUP14 DUP7 PUSH1 0x40 PUSH1 0x0 KECCAK256 ADD SLOAD DUP10 EQ PUSH2 0x3F5F JUMPI JUMPDEST POP POP POP POP SLOAD EQ PUSH2 0x3CD9 JUMPI STOP JUMPDEST PUSH1 0x0 DUP11 DUP2 MSTORE SWAP1 DUP7 MSTORE PUSH1 0x40 DUP1 DUP3 KECCAK256 SWAP3 DUP3 MSTORE SWAP2 DUP7 MSTORE KECCAK256 PUSH1 0xC ADD SLOAD EQ PUSH2 0x3D1B JUMPI POP POP POP PUSH1 0x14 ADD SLOAD AND SWAP1 POP PUSH1 0x9 DUP2 LT ISZERO PUSH2 0x5F7 JUMPI PUSH1 0x7 SUB PUSH2 0x3D12 JUMPI STOP JUMPDEST PUSH2 0x3C6C SWAP1 PUSH2 0x6095 JUMP JUMPDEST SWAP1 SWAP2 SWAP4 SWAP3 PUSH1 0x12 DUP2 ADD SWAP1 PUSH1 0x11 DUP3 SLOAD SWAP2 ADD SLOAD PUSH1 0x0 NOT DUP2 ADD DUP2 DUP2 GT PUSH2 0xC1D JUMPI DUP3 SUB PUSH2 0x3F3B JUMPI POP POP PUSH2 0x3D49 DUP2 SLOAD PUSH2 0x5957 JUMP JUMPDEST SWAP1 SSTORE DUP6 PUSH1 0x0 MSTORE PUSH1 0x4 DUP5 MSTORE PUSH1 0x40 PUSH1 0x0 KECCAK256 SWAP5 PUSH1 0x14 DUP7 ADD SWAP4 DUP1 DUP6 SLOAD AND PUSH1 0x9 DUP2 LT ISZERO PUSH2 0x5F7 JUMPI PUSH1 0x7 EQ PUSH2 0x3EF6 JUMPI PUSH1 0xB DUP8 ADD SWAP1 DUP2 SLOAD SWAP1 DUP2 AND PUSH2 0x3EB1 JUMPI DUP4 DUP4 SWAP2 AND OR SWAP1 SSTORE PUSH1 0x1 DUP1 PUSH1 0xA0 SHL SUB SWAP6 DUP7 DUP3 SLOAD AND SWAP2 DUP9 PUSH1 0x0 MSTORE PUSH1 0x8 DUP8 MSTORE DUP7 PUSH1 0x40 PUSH1 0x0 KECCAK256 SLOAD PUSH1 0x24 PUSH1 0x40 MLOAD DUP1 SWAP7 DUP2 SWAP4 PUSH4 0x31A9108F PUSH1 0xE1 SHL DUP4 MSTORE PUSH1 0x4 DUP4 ADD MSTORE GAS STATICCALL SWAP2 DUP3 ISZERO PUSH2 0xB4D JUMPI PUSH2 0x3E41 SWAP9 DUP9 SWAP5 PUSH1 0x0 SWAP5 PUSH2 0x3E8C JUMPI JUMPDEST POP PUSH1 0x0 DUP12 DUP2 MSTORE PUSH1 0x8 DUP7 MSTORE PUSH1 0x40 DUP2 KECCAK256 PUSH1 0x3 ADD DUP1 SLOAD PUSH1 0xFF PUSH1 0xA0 SHL NOT AND PUSH1 0x1 PUSH1 0xA0 SHL OR SWAP1 SSTORE SLOAD PUSH1 0x15 DUP4 ADD SLOAD SWAP4 SWAP1 SWAP3 ADD SLOAD SWAP2 AND SWAP2 PUSH2 0x3E0C SWAP2 SWAP1 PUSH2 0x58D9 JUMP JUMPDEST PUSH1 0x40 MLOAD PUSH4 0xA9059CBB PUSH1 0xE0 SHL DUP2 MSTORE PUSH1 0x1 PUSH1 0x1 PUSH1 0xA0 SHL SUB SWAP1 SWAP4 AND PUSH1 0x4 DUP5 ADD MSTORE PUSH1 0x24 DUP4 ADD MSTORE SWAP1 SWAP7 DUP8 SWAP2 SWAP1 DUP3 SWAP1 PUSH1 0x0 SWAP1 DUP3 SWAP1 PUSH1 0x44 DUP3 ADD SWAP1 JUMP JUMPDEST SUB SWAP3 GAS CALL SWAP5 DUP6 ISZERO PUSH2 0xB4D JUMPI PUSH1 0xA SWAP6 PUSH2 0x3E6F JUMPI JUMPDEST POP DUP3 SLOAD AND OR SWAP1 SSTORE CALLER PUSH1 0x0 MSTORE MSTORE PUSH1 0x40 PUSH1 0x0 KECCAK256 PUSH2 0x30BB DUP2 SLOAD PUSH2 0x5957 JUMP JUMPDEST PUSH2 0x3E85 SWAP1 DUP6 RETURNDATASIZE DUP8 GT PUSH2 0xB46 JUMPI PUSH2 0xB37 DUP2 DUP4 PUSH2 0x55EF JUMP JUMPDEST POP DUP7 PUSH2 0x3E54 JUMP JUMPDEST PUSH2 0x3E0C SWAP3 SWAP2 SWAP5 POP PUSH2 0x3EA9 SWAP1 DUP7 RETURNDATASIZE DUP9 GT PUSH2 0x3129 JUMPI PUSH2 0x311A DUP2 DUP4 PUSH2 0x55EF JUMP JUMPDEST SWAP4 SWAP1 SWAP2 PUSH2 0x3DD2 JUMP JUMPDEST PUSH1 0x40 MLOAD PUSH3 0x461BCD PUSH1 0xE5 SHL DUP2 MSTORE PUSH1 0x4 DUP2 ADD DUP9 SWAP1 MSTORE PUSH1 0x1C PUSH1 0x24 DUP3 ADD MSTORE PUSH32 0x5265717565737420697320616C726561647920636F6D706C6574656400000000 PUSH1 0x44 DUP3 ADD MSTORE PUSH1 0x64 SWAP1 REVERT JUMPDEST PUSH1 0x40 MLOAD PUSH3 0x461BCD PUSH1 0xE5 SHL DUP2 MSTORE PUSH1 0x4 DUP2 ADD DUP8 SWAP1 MSTORE PUSH1 0x17 PUSH1 0x24 DUP3 ADD MSTORE PUSH32 0x5265717565737420697320756E7375636365737366756C000000000000000000 PUSH1 0x44 DUP3 ADD MSTORE PUSH1 0x64 SWAP1 REVERT JUMPDEST SWAP5 POP SWAP7 SWAP6 POP SWAP4 POP POP POP DUP4 LT PUSH2 0x3F4C JUMPI STOP JUMPDEST PUSH2 0x3F58 PUSH2 0x3C6C SWAP4 PUSH2 0x5957 JUMP JUMPDEST SWAP1 SSTORE PUSH2 0x5D02 JUMP JUMPDEST PUSH1 0x0 SWAP6 POP DUP2 PUSH2 0x3FDB SWAP2 PUSH2 0x3FA5 PUSH2 0x3F82 PUSH1 0xC PUSH1 0x16 PUSH2 0x4005 SWAP9 SWAP8 ADD SLOAD SWAP5 ADD SLOAD DUP5 PUSH2 0x58FD JUMP JUMPDEST DUP6 DUP11 MSTORE DUP11 DUP9 MSTORE PUSH1 0x40 DUP11 KECCAK256 DUP13 DUP12 MSTORE DUP9 MSTORE PUSH1 0x40 DUP11 KECCAK256 DUP14 DUP12 MSTORE DUP9 MSTORE PUSH1 0x40 DUP11 KECCAK256 SLOAD SWAP1 PUSH2 0x58F3 JUMP JUMPDEST SWAP4 DUP9 MSTORE DUP13 DUP7 MSTORE PUSH1 0x40 DUP1 DUP10 KECCAK256 DUP12 DUP11 MSTORE DUP8 MSTORE DUP1 DUP10 KECCAK256 CALLER DUP11 MSTORE DUP8 MSTORE DUP9 KECCAK256 DUP14 ADD DUP1 SLOAD DUP14 AND SWAP1 SWAP2 OR SWAP1 SSTORE DUP7 SLOAD PUSH1 0x1 PUSH1 0x1 PUSH1 0xA0 SHL SUB AND SWAP3 PUSH2 0x58D9 JUMP JUMPDEST PUSH1 0x40 MLOAD PUSH4 0xA9059CBB PUSH1 0xE0 SHL DUP2 MSTORE CALLER PUSH1 0x4 DUP3 ADD MSTORE PUSH1 0x24 DUP2 ADD SWAP2 SWAP1 SWAP2 MSTORE SWAP5 DUP6 SWAP3 DUP4 SWAP2 SWAP1 DUP3 SWAP1 PUSH1 0x44 DUP3 ADD SWAP1 JUMP JUMPDEST SUB SWAP3 GAS CALL SWAP2 DUP3 ISZERO PUSH2 0xB4D JUMPI DUP5 SWAP3 PUSH2 0x4021 JUMPI JUMPDEST POP DUP8 DUP13 DUP11 DUP14 PUSH2 0x3CCD JUMP JUMPDEST PUSH2 0x4037 SWAP1 DUP10 RETURNDATASIZE DUP12 GT PUSH2 0xB46 JUMPI PUSH2 0xB37 DUP2 DUP4 PUSH2 0x55EF JUMP JUMPDEST POP DUP13 PUSH2 0x4017 JUMP JUMPDEST PUSH1 0x40 MLOAD PUSH3 0x461BCD PUSH1 0xE5 SHL DUP2 MSTORE PUSH1 0x4 DUP2 ADD DUP5 SWAP1 MSTORE PUSH1 0x2F PUSH1 0x24 DUP3 ADD MSTORE PUSH32 0x526F756E64206E756D626572206D757374206265206772656174657220746861 PUSH1 0x44 DUP3 ADD MSTORE PUSH15 0x6E206F7220657175616C20746F2031 PUSH1 0x88 SHL PUSH1 0x64 DUP3 ADD MSTORE PUSH1 0x84 SWAP1 REVERT JUMPDEST PUSH1 0x40 MLOAD PUSH3 0x461BCD PUSH1 0xE5 SHL DUP2 MSTORE PUSH1 0x4 DUP2 ADD DUP4 SWAP1 MSTORE PUSH1 0x3A PUSH1 0x24 DUP3 ADD MSTORE PUSH32 0x726F756E64206E756D206D757374206265206C657373207468616E206F722065 PUSH1 0x44 DUP3 ADD MSTORE PUSH32 0x7175616C20746F20726571756573742E726F756E64496E646578000000000000 PUSH1 0x64 DUP3 ADD MSTORE PUSH1 0x84 SWAP1 REVERT JUMPDEST PUSH1 0x84 SWAP1 PUSH1 0x40 MLOAD SWAP1 PUSH3 0x461BCD PUSH1 0xE5 SHL DUP3 MSTORE PUSH1 0x4 DUP3 ADD MSTORE PUSH1 0x2B PUSH1 0x24 DUP3 ADD MSTORE PUSH32 0x596F75206861766520616C7265616479206265656E207061696420666F722076 PUSH1 0x44 DUP3 ADD MSTORE PUSH11 0x32B934B334B1B0BA34B7B7 PUSH1 0xA9 SHL PUSH1 0x64 DUP3 ADD MSTORE REVERT JUMPDEST PUSH1 0x84 SWAP1 PUSH1 0x40 MLOAD SWAP1 PUSH3 0x461BCD PUSH1 0xE5 SHL DUP3 MSTORE PUSH1 0x4 DUP3 ADD MSTORE PUSH1 0x26 PUSH1 0x24 DUP3 ADD MSTORE PUSH32 0x636F6D6D69746D656E7420737461676520686173206E6F742079657420636F6D PUSH1 0x44 DUP3 ADD MSTORE PUSH6 0x1C1B195D1959 PUSH1 0xD2 SHL PUSH1 0x64 DUP3 ADD MSTORE REVERT JUMPDEST POP DUP5 PUSH1 0x0 MSTORE DUP2 DUP2 MSTORE PUSH1 0x40 PUSH1 0x0 KECCAK256 DUP5 PUSH1 0x0 MSTORE DUP2 MSTORE PUSH1 0xE PUSH1 0x40 PUSH1 0x0 KECCAK256 ADD SLOAD PUSH1 0xC DUP5 ADD SLOAD EQ PUSH2 0x3AEE JUMP JUMPDEST CALLVALUE PUSH2 0x60D JUMPI PUSH1 0x20 CALLDATASIZE PUSH1 0x3 NOT ADD SLT PUSH2 0x60D JUMPI PUSH1 0x4 CALLDATALOAD PUSH1 0x0 MSTORE PUSH1 0x4 PUSH1 0x20 MSTORE PUSH1 0x40 PUSH1 0x0 KECCAK256 DUP1 PUSH2 0x1A0 MSTORE PUSH1 0x1 PUSH1 0xA0 SHL PUSH1 0x1 SWAP1 SUB SWAP1 DUP2 DUP2 SLOAD AND PUSH1 0x1 DUP3 ADD SLOAD SWAP2 PUSH1 0x2 DUP2 ADD SLOAD PUSH1 0xE0 MSTORE PUSH1 0x3 DUP2 ADD SLOAD PUSH1 0xA0 MSTORE PUSH1 0x4 DUP2 ADD SLOAD PUSH2 0x180 MSTORE PUSH1 0x6 ADD PUSH2 0x4237 SWAP1 PUSH2 0x574D JUMP JUMPDEST SWAP2 PUSH2 0x1A0 MLOAD SWAP3 PUSH1 0x8 DUP5 ADD SLOAD PUSH2 0x1C0 MSTORE PUSH1 0x9 DUP5 ADD SLOAD SWAP5 PUSH1 0xA DUP6 ADD SLOAD SWAP1 PUSH1 0xB DUP7 ADD SLOAD SWAP1 PUSH1 0xC DUP8 ADD SLOAD SWAP1 PUSH1 0xF DUP9 ADD SLOAD AND SWAP2 PUSH1 0x10 DUP9 ADD SLOAD SWAP4 PUSH1 0x11 DUP10 ADD SLOAD SWAP6 PUSH1 0x12 DUP11 ADD SLOAD SWAP8 PUSH1 0x13 DUP12 ADD SLOAD SWAP10 PUSH1 0x14 DUP13 ADD SLOAD PUSH1 0xFF AND SWAP12 PUSH1 0x15 DUP2 ADD SLOAD PUSH2 0x120 MSTORE PUSH1 0x16 DUP2 ADD SLOAD PUSH2 0x100 MSTORE PUSH1 0x17 DUP2 ADD SLOAD PUSH1 0xC0 MSTORE PUSH1 0x18 DUP2 ADD SLOAD PUSH1 0x80 MSTORE PUSH1 0x19 DUP2 ADD SLOAD PUSH2 0x160 MSTORE PUSH1 0x1A DUP2 ADD SLOAD PUSH2 0x200 MSTORE PUSH1 0x1B DUP2 ADD SLOAD PUSH2 0x220 MSTORE PUSH1 0x1C ADD SLOAD PUSH2 0x1E0 MSTORE PUSH1 0x40 MLOAD DUP1 PUSH2 0x140 MSTORE MSTORE PUSH2 0x140 MLOAD PUSH1 0x20 ADD MSTORE PUSH1 0xE0 MLOAD PUSH2 0x140 MLOAD PUSH1 0x40 ADD MSTORE PUSH1 0xA0 MLOAD PUSH2 0x140 MLOAD PUSH1 0x60 ADD MSTORE PUSH2 0x180 MLOAD PUSH2 0x140 MLOAD PUSH1 0x80 ADD MSTORE PUSH2 0x340 DUP1 PUSH2 0x140 MLOAD PUSH1 0xA0 ADD MSTORE PUSH2 0x140 MLOAD ADD PUSH2 0x4318 SWAP2 PUSH2 0x57F3 JUMP JUMPDEST SWAP10 PUSH2 0x1C0 MLOAD PUSH2 0x140 MLOAD PUSH1 0xC0 ADD MSTORE PUSH2 0x140 MLOAD PUSH1 0xE0 ADD MSTORE PUSH2 0x140 MLOAD PUSH2 0x100 ADD MSTORE PUSH1 0xFF DUP2 AND ISZERO ISZERO PUSH2 0x140 MLOAD PUSH2 0x120 ADD MSTORE PUSH1 0x8 SHR PUSH1 0xFF AND ISZERO ISZERO PUSH2 0x140 MLOAD PUSH2 0x140 ADD MSTORE PUSH2 0x140 MLOAD PUSH2 0x160 ADD MSTORE PUSH2 0x140 MLOAD PUSH2 0x180 ADD MSTORE PUSH2 0x140 MLOAD PUSH2 0x1A0 ADD MSTORE PUSH2 0x140 MLOAD PUSH2 0x1C0 ADD MSTORE PUSH2 0x140 MLOAD PUSH2 0x1E0 ADD MSTORE PUSH2 0x140 MLOAD PUSH2 0x200 ADD MSTORE PUSH2 0x140 MLOAD PUSH2 0x220 ADD PUSH2 0x439D SWAP2 PUSH2 0x5833 JUMP JUMPDEST PUSH2 0x120 MLOAD PUSH2 0x140 MLOAD PUSH2 0x240 ADD MSTORE PUSH2 0x100 MLOAD PUSH2 0x140 MLOAD PUSH2 0x260 ADD MSTORE PUSH1 0xC0 MLOAD PUSH2 0x140 MLOAD PUSH2 0x280 ADD MSTORE PUSH1 0x80 MLOAD PUSH2 0x140 MLOAD PUSH2 0x2A0 ADD MSTORE PUSH2 0x160 MLOAD PUSH2 0x140 MLOAD PUSH2 0x2C0 ADD MSTORE PUSH2 0x200 MLOAD PUSH2 0x140 MLOAD PUSH2 0x2E0 ADD MSTORE PUSH2 0x220 MLOAD PUSH2 0x140 MLOAD PUSH2 0x300 ADD MSTORE PUSH2 0x1E0 MLOAD PUSH2 0x140 MLOAD PUSH2 0x320 ADD MSTORE PUSH2 0x140 MLOAD DUP1 SWAP2 SUB SWAP1 RETURN JUMPDEST CALLVALUE PUSH2 0x60D JUMPI PUSH1 0x20 DUP1 PUSH1 0x3 NOT CALLDATASIZE ADD SLT PUSH2 0x60D JUMPI PUSH1 0x4 CALLDATALOAD SWAP1 DUP2 PUSH1 0x0 MSTORE PUSH1 0x4 DUP2 MSTORE PUSH1 0x40 PUSH1 0x0 KECCAK256 SWAP1 PUSH1 0xD DUP2 MSTORE PUSH1 0x40 PUSH1 0x0 KECCAK256 SLOAD SWAP2 PUSH1 0x40 MLOAD SWAP1 PUSH4 0xFFFFFFFF PUSH1 0xE0 SHL DUP5 PUSH1 0xE0 SHL AND DUP3 MSTORE CALLER PUSH1 0x4 DUP4 ADD MSTORE PUSH1 0x24 SWAP2 DUP4 DUP2 DUP5 DUP2 PUSH1 0x1 DUP1 PUSH1 0xA0 SHL SUB DUP1 SWAP10 DUP6 SHR AND GAS STATICCALL SWAP1 DUP2 ISZERO PUSH2 0xB4D JUMPI PUSH1 0x0 SWAP2 PUSH2 0x499F JUMPI JUMPDEST POP ISZERO PUSH2 0x493F JUMPI PUSH1 0x1A DUP2 ADD SLOAD PUSH1 0x5 DUP2 ADD DUP1 SWAP2 GT PUSH2 0x46E9 JUMPI TIMESTAMP LT PUSH2 0x48E4 JUMPI PUSH1 0xFF PUSH1 0xB DUP3 ADD SLOAD PUSH1 0x8 SHR AND ISZERO PUSH2 0x48A0 JUMPI DUP4 PUSH1 0xF DUP3 ADD SLOAD AND CALLER EQ PUSH2 0x4840 JUMPI PUSH1 0xD DUP2 ADD SWAP2 DUP3 SLOAD SWAP5 PUSH1 0x4 DUP4 ADD SWAP6 DUP7 SLOAD GT ISZERO PUSH2 0x4803 JUMPI PUSH1 0xFF PUSH1 0x14 DUP5 ADD SLOAD AND PUSH1 0x9 DUP2 LT ISZERO PUSH2 0x47EE JUMPI PUSH1 0x2 SUB PUSH2 0x475E JUMPI PUSH1 0x0 SLOAD PUSH1 0x40 MLOAD PUSH4 0x6EB1769F PUSH1 0xE1 SHL DUP2 MSTORE CALLER PUSH1 0x4 DUP3 ADD MSTORE ADDRESS PUSH1 0x24 DUP3 ADD MSTORE SWAP2 AND SWAP1 DUP6 DUP2 PUSH1 0x44 DUP2 DUP6 GAS STATICCALL SWAP1 DUP2 ISZERO PUSH2 0xB4D JUMPI PUSH1 0x0 SWAP2 PUSH2 0x4731 JUMPI JUMPDEST POP PUSH1 0x40 MLOAD PUSH4 0x70A08231 PUSH1 0xE0 SHL DUP2 MSTORE CALLER PUSH1 0x4 DUP3 ADD MSTORE SWAP1 DUP7 DUP3 DUP6 DUP2 DUP7 GAS STATICCALL DUP1 ISZERO PUSH2 0xB4D JUMPI DUP8 SWAP3 PUSH1 0x0 SWAP2 PUSH2 0x46FE JUMPI JUMPDEST POP SWAP3 PUSH2 0xD57 PUSH2 0x4560 PUSH2 0x4590 SWAP4 PUSH1 0x0 SWAP7 PUSH1 0x16 DUP11 ADD SLOAD SWAP4 DUP5 DUP1 SWAP4 LT ISZERO PUSH2 0x5CC1 JUMP JUMPDEST PUSH1 0x40 MLOAD PUSH4 0x23B872DD PUSH1 0xE0 SHL DUP2 MSTORE CALLER PUSH1 0x4 DUP3 ADD MSTORE ADDRESS PUSH1 0x24 DUP3 ADD MSTORE PUSH1 0x44 DUP2 ADD SWAP2 SWAP1 SWAP2 MSTORE SWAP4 DUP5 SWAP3 DUP4 SWAP2 SWAP1 DUP3 SWAP1 PUSH1 0x64 DUP3 ADD SWAP1 JUMP JUMPDEST SUB SWAP3 GAS CALL DUP1 ISZERO PUSH2 0xB4D JUMPI PUSH2 0x45AB SWAP2 PUSH1 0x0 SWAP2 PUSH2 0xF24 JUMPI POP PUSH2 0x5CC1 JUMP JUMPDEST PUSH1 0x9 DUP3 ADD SLOAD PUSH1 0x10 DUP4 ADD SLOAD DUP1 PUSH1 0x3 MUL SWAP1 PUSH1 0x3 DUP3 DIV SUB PUSH2 0x46E9 JUMPI SWAP1 PUSH2 0x32CC PUSH2 0x45D1 SWAP3 TIMESTAMP PUSH2 0x58D9 JUMP JUMPDEST DUP6 PUSH1 0x0 MSTORE PUSH1 0x5 DUP5 MSTORE PUSH1 0x40 PUSH1 0x0 KECCAK256 SWAP1 PUSH1 0x13 DUP4 ADD SLOAD SWAP2 DUP3 PUSH1 0x0 MSTORE DUP6 MSTORE PUSH1 0x2 PUSH1 0x40 PUSH1 0x0 KECCAK256 ADD CALLER PUSH1 0x0 MSTORE DUP6 MSTORE PUSH1 0xFF PUSH1 0x40 PUSH1 0x0 KECCAK256 SLOAD AND PUSH2 0x46A6 JUMPI POP SWAP1 PUSH1 0x12 SWAP2 DUP7 PUSH1 0x0 MSTORE PUSH1 0x5 DUP6 MSTORE PUSH1 0x40 PUSH1 0x0 KECCAK256 SWAP1 PUSH1 0x0 MSTORE DUP5 MSTORE PUSH1 0x2 PUSH1 0x40 PUSH1 0x0 KECCAK256 ADD CALLER PUSH1 0x0 MSTORE DUP5 MSTORE PUSH1 0x40 PUSH1 0x0 KECCAK256 PUSH1 0x1 PUSH1 0xFF NOT DUP3 SLOAD AND OR SWAP1 SSTORE PUSH2 0x4646 CALLER DUP5 PUSH2 0x5F6F JUMP JUMPDEST ADD SLOAD SWAP3 PUSH1 0x40 MLOAD SWAP2 DUP5 CALLER DUP8 PUSH32 0x9E9159F67684B4639EF3D20A0878E965D2FA78DC33561FADB2485CD3D3447ABF PUSH1 0x0 DUP1 LOG4 SLOAD SWAP1 SLOAD EQ PUSH2 0x467F JUMPI STOP JUMPDEST PUSH32 0xAC6C772803856F8BE288C38A92349502C9D976DECCEFB05524C4EAFEDF049AEB SWAP3 DUP2 MSTORE LOG2 STOP JUMPDEST DUP5 PUSH1 0x18 PUSH1 0x64 SWAP3 PUSH1 0x40 MLOAD SWAP3 PUSH3 0x461BCD PUSH1 0xE5 SHL DUP5 MSTORE PUSH1 0x4 DUP5 ADD MSTORE DUP3 ADD MSTORE PUSH32 0x566572696669657220616C7265616479206170706C6965640000000000000000 PUSH1 0x44 DUP3 ADD MSTORE REVERT JUMPDEST DUP3 PUSH4 0x4E487B71 PUSH1 0xE0 SHL PUSH1 0x0 MSTORE PUSH1 0x11 PUSH1 0x4 MSTORE PUSH1 0x0 REVERT JUMPDEST DUP4 DUP2 SWAP4 SWAP5 SWAP3 POP RETURNDATASIZE DUP4 GT PUSH2 0x472A JUMPI JUMPDEST PUSH2 0x4716 DUP2 DUP4 PUSH2 0x55EF JUMP JUMPDEST DUP2 ADD SUB SLT PUSH2 0x60D JUMPI MLOAD DUP7 SWAP2 SWAP1 PUSH2 0xD57 PUSH2 0x4541 JUMP JUMPDEST POP RETURNDATASIZE PUSH2 0x470C JUMP JUMPDEST SWAP1 POP DUP6 DUP2 DUP2 RETURNDATASIZE DUP4 GT PUSH2 0x4757 JUMPI JUMPDEST PUSH2 0x4748 DUP2 DUP4 PUSH2 0x55EF JUMP JUMPDEST DUP2 ADD SUB SLT PUSH2 0x60D JUMPI MLOAD DUP9 PUSH2 0x4515 JUMP JUMPDEST POP RETURNDATASIZE PUSH2 0x473E JUMP JUMPDEST PUSH1 0x40 MLOAD PUSH3 0x461BCD PUSH1 0xE5 SHL DUP2 MSTORE PUSH1 0x4 DUP2 ADD DUP7 SWAP1 MSTORE PUSH1 0x59 DUP2 DUP5 ADD MSTORE PUSH32 0x56657269666965722063616E6E6F74206170706C7920666F7220766572696669 PUSH1 0x44 DUP3 ADD MSTORE PUSH32 0x636174696F6E2E2052657175657374207374617465206D75737420626520696E PUSH1 0x64 DUP3 ADD MSTORE PUSH32 0x2063686F6F73696E672076657269666965727320737461746500000000000000 PUSH1 0x84 DUP3 ADD MSTORE PUSH1 0xA4 SWAP1 REVERT JUMPDEST DUP3 PUSH4 0x4E487B71 PUSH1 0xE0 SHL PUSH1 0x0 MSTORE PUSH1 0x21 PUSH1 0x4 MSTORE PUSH1 0x0 REVERT JUMPDEST PUSH1 0x40 MLOAD PUSH3 0x461BCD PUSH1 0xE5 SHL DUP2 MSTORE PUSH1 0x4 DUP2 ADD DUP7 SWAP1 MSTORE PUSH1 0x16 DUP2 DUP5 ADD MSTORE PUSH22 0x15995C9A599A595C881B1A5B5A5D081C995858DA1959 PUSH1 0x52 SHL PUSH1 0x44 DUP3 ADD MSTORE PUSH1 0x64 SWAP1 REVERT JUMPDEST PUSH1 0x40 MLOAD PUSH3 0x461BCD PUSH1 0xE5 SHL DUP2 MSTORE PUSH1 0x4 DUP2 ADD DUP5 SWAP1 MSTORE PUSH1 0x33 DUP2 DUP5 ADD MSTORE PUSH32 0x546865206D61696E2070726F76696465722063616E6E6F74206170706C792074 PUSH1 0x44 DUP3 ADD MSTORE PUSH19 0x37903132B1B7B6B29030903B32B934B334B2B9 PUSH1 0x69 SHL PUSH1 0x64 DUP3 ADD MSTORE PUSH1 0x84 SWAP1 REVERT JUMPDEST PUSH1 0x40 MLOAD PUSH3 0x461BCD PUSH1 0xE5 SHL DUP2 MSTORE PUSH1 0x4 DUP2 ADD DUP5 SWAP1 MSTORE PUSH1 0x18 DUP2 DUP5 ADD MSTORE PUSH32 0x52657175657374206E6F742079657420636F6D70757465640000000000000000 PUSH1 0x44 DUP3 ADD MSTORE PUSH1 0x64 SWAP1 REVERT JUMPDEST PUSH1 0x40 MLOAD PUSH3 0x461BCD PUSH1 0xE5 SHL DUP2 MSTORE PUSH1 0x4 DUP2 ADD DUP5 SWAP1 MSTORE PUSH1 0x2E DUP2 DUP5 ADD MSTORE PUSH32 0x4D75737420776169742035207365636F6E6473206265666F7265207665726966 PUSH1 0x44 DUP3 ADD MSTORE PUSH14 0x696572732063616E206170706C79 PUSH1 0x90 SHL PUSH1 0x64 DUP3 ADD MSTORE PUSH1 0x84 SWAP1 REVERT JUMPDEST PUSH1 0x40 MLOAD PUSH3 0x461BCD PUSH1 0xE5 SHL DUP2 MSTORE PUSH1 0x4 DUP2 ADD DUP5 SWAP1 MSTORE PUSH1 0x33 DUP2 DUP5 ADD MSTORE PUSH32 0x6D73672E73656E646572206973206E6F7420616C6C6F77656420746F20617070 PUSH1 0x44 DUP3 ADD MSTORE PUSH19 0x363C903337B9103B32B934B334B1B0BA34B7B7 PUSH1 0x69 SHL PUSH1 0x64 DUP3 ADD MSTORE PUSH1 0x84 SWAP1 REVERT JUMPDEST SWAP1 POP DUP4 DUP2 DUP2 RETURNDATASIZE DUP4 GT PUSH2 0x49C5 JUMPI JUMPDEST PUSH2 0x49B6 DUP2 DUP4 PUSH2 0x55EF JUMP JUMPDEST DUP2 ADD SUB SLT PUSH2 0x60D JUMPI MLOAD DUP7 PUSH2 0x4479 JUMP JUMPDEST POP RETURNDATASIZE PUSH2 0x49AC JUMP JUMPDEST CALLVALUE PUSH2 0x60D JUMPI PUSH1 0x0 CALLDATASIZE PUSH1 0x3 NOT ADD SLT PUSH2 0x60D JUMPI PUSH1 0x0 SLOAD PUSH1 0x40 MLOAD PUSH1 0x1 PUSH1 0x1 PUSH1 0xA0 SHL SUB SWAP1 SWAP2 AND DUP2 MSTORE PUSH1 0x20 SWAP1 RETURN JUMPDEST CALLVALUE PUSH2 0x60D JUMPI PUSH1 0x0 CALLDATASIZE PUSH1 0x3 NOT ADD SLT PUSH2 0x60D JUMPI PUSH1 0x20 PUSH1 0x3 SLOAD PUSH1 0x40 MLOAD SWAP1 DUP2 MSTORE RETURN JUMPDEST CALLVALUE PUSH2 0x60D JUMPI PUSH2 0x4A21 CALLDATASIZE PUSH2 0x56FD JUMP JUMPDEST SWAP1 DUP1 PUSH1 0x0 MSTORE PUSH1 0x20 SWAP2 PUSH1 0x4 DUP4 MSTORE PUSH1 0x40 PUSH1 0x0 KECCAK256 SWAP2 PUSH1 0x9 DUP4 ADD SLOAD PUSH1 0x10 DUP5 ADD SLOAD DUP1 PUSH1 0x3 MUL SWAP1 PUSH1 0x3 DUP3 DIV SUB PUSH2 0xC1D JUMPI PUSH2 0x4A55 SWAP1 TIMESTAMP PUSH2 0x58D9 JUMP JUMPDEST GT ISZERO PUSH2 0x4BD2 JUMPI DUP1 PUSH1 0x0 MSTORE PUSH1 0x5 DUP5 MSTORE PUSH1 0x40 PUSH1 0x0 KECCAK256 DUP3 PUSH1 0x0 MSTORE DUP5 MSTORE PUSH1 0x2 PUSH1 0x40 PUSH1 0x0 KECCAK256 ADD CALLER PUSH1 0x0 MSTORE DUP5 MSTORE PUSH1 0xFF PUSH1 0x40 PUSH1 0x0 KECCAK256 SLOAD AND ISZERO PUSH2 0x4B51 JUMPI PUSH1 0x0 SWAP3 DUP5 SWAP3 DUP3 PUSH2 0x4B2B SWAP4 DUP7 MSTORE PUSH1 0x6 DUP6 MSTORE PUSH1 0x40 DUP7 KECCAK256 DUP3 DUP8 MSTORE DUP6 MSTORE PUSH1 0x40 DUP7 KECCAK256 CALLER DUP8 MSTORE DUP6 MSTORE PUSH2 0x4AC0 PUSH1 0xFF PUSH1 0x6 PUSH1 0x40 DUP10 KECCAK256 ADD SLOAD AND ISZERO PUSH2 0x5F92 JUMP JUMPDEST DUP6 MSTORE PUSH1 0x6 DUP5 MSTORE PUSH1 0x40 DUP6 KECCAK256 SWAP1 DUP6 MSTORE DUP4 MSTORE PUSH1 0x40 DUP5 KECCAK256 CALLER DUP6 MSTORE DUP4 MSTORE PUSH1 0x6 PUSH1 0x40 DUP6 KECCAK256 ADD PUSH1 0x1 PUSH1 0xFF NOT DUP3 SLOAD AND OR SWAP1 SSTORE PUSH1 0x16 PUSH1 0x1 DUP1 PUSH1 0xA0 SHL SUB DUP6 SLOAD AND SWAP2 ADD SLOAD PUSH1 0x40 MLOAD SWAP5 DUP6 DUP1 SWAP5 DUP2 SWAP4 PUSH4 0xA9059CBB PUSH1 0xE0 SHL DUP4 MSTORE CALLER PUSH1 0x4 DUP5 ADD PUSH1 0x20 SWAP1 SWAP4 SWAP3 SWAP2 SWAP4 PUSH1 0x40 DUP2 ADD SWAP5 PUSH1 0x1 DUP1 PUSH1 0xA0 SHL SUB AND DUP2 MSTORE ADD MSTORE JUMP JUMPDEST SUB SWAP3 GAS CALL DUP1 ISZERO PUSH2 0xB4D JUMPI PUSH2 0x4B3B JUMPI STOP JUMPDEST DUP2 PUSH2 0x3C6C SWAP3 SWAP1 RETURNDATASIZE LT PUSH2 0xB46 JUMPI PUSH2 0xB37 DUP2 DUP4 PUSH2 0x55EF JUMP JUMPDEST PUSH1 0x40 MLOAD PUSH3 0x461BCD PUSH1 0xE5 SHL DUP2 MSTORE PUSH1 0x4 DUP2 ADD DUP6 SWAP1 MSTORE PUSH1 0x4D PUSH1 0x24 DUP3 ADD MSTORE PUSH32 0x5665726966696572206861732065697468657220616C72656164792072656369 PUSH1 0x44 DUP3 ADD MSTORE PUSH32 0x65766564207374616B652C206F7220646964206E6F74206170706C7920666F72 PUSH1 0x64 DUP3 ADD MSTORE PUSH13 0x103B32B934B334B1B0BA34B7B7 PUSH1 0x99 SHL PUSH1 0x84 DUP3 ADD MSTORE PUSH1 0xA4 SWAP1 REVERT JUMPDEST PUSH1 0x40 MLOAD PUSH3 0x461BCD PUSH1 0xE5 SHL DUP2 MSTORE PUSH1 0x4 DUP2 ADD DUP6 SWAP1 MSTORE PUSH1 0x28 PUSH1 0x24 DUP3 ADD MSTORE PUSH32 0x566572696669636174696F6E20646561646C696E6520686173206E6F74207965 PUSH1 0x44 DUP3 ADD MSTORE PUSH8 0x1D081C185CDCD959 PUSH1 0xC2 SHL PUSH1 0x64 DUP3 ADD MSTORE PUSH1 0x84 SWAP1 REVERT JUMPDEST CALLVALUE PUSH2 0x60D JUMPI PUSH2 0x4C36 CALLDATASIZE PUSH2 0x56FD JUMP JUMPDEST DUP2 PUSH1 0x0 MSTORE PUSH1 0x20 SWAP2 PUSH1 0x5 DUP4 MSTORE PUSH1 0x40 PUSH1 0x0 KECCAK256 DUP3 PUSH1 0x0 MSTORE DUP4 MSTORE PUSH1 0x1 PUSH1 0x40 PUSH1 0x0 KECCAK256 ADD CALLER PUSH1 0x0 MSTORE DUP4 MSTORE PUSH2 0x4C6B PUSH1 0xFF PUSH1 0x40 PUSH1 0x0 KECCAK256 SLOAD AND PUSH2 0x5FD2 JUMP JUMPDEST DUP1 PUSH1 0x0 MSTORE PUSH1 0x5 DUP4 MSTORE PUSH1 0x40 PUSH1 0x0 KECCAK256 DUP3 PUSH1 0x0 MSTORE DUP4 MSTORE PUSH1 0x3 PUSH1 0x40 PUSH1 0x0 KECCAK256 ADD CALLER PUSH1 0x0 MSTORE DUP4 MSTORE PUSH1 0xFF PUSH1 0x40 PUSH1 0x0 KECCAK256 SLOAD AND PUSH2 0x4D17 JUMPI DUP1 PUSH1 0x0 MSTORE PUSH1 0x6 DUP4 MSTORE PUSH1 0x40 PUSH1 0x0 KECCAK256 DUP3 PUSH1 0x0 MSTORE DUP4 MSTORE PUSH1 0x40 PUSH1 0x0 KECCAK256 CALLER PUSH1 0x0 MSTORE DUP4 MSTORE PUSH2 0x4CCC PUSH1 0xFF PUSH1 0x6 PUSH1 0x40 PUSH1 0x0 KECCAK256 ADD SLOAD AND ISZERO PUSH2 0x5F92 JUMP JUMPDEST PUSH1 0x0 DUP1 SLOAD DUP3 DUP3 MSTORE PUSH1 0x4 DUP1 DUP7 MSTORE PUSH1 0x40 DUP1 DUP5 KECCAK256 PUSH1 0x16 ADD SLOAD SWAP1 MLOAD PUSH4 0xA9059CBB PUSH1 0xE0 SHL DUP2 MSTORE CALLER SWAP3 DUP2 ADD SWAP3 SWAP1 SWAP3 MSTORE PUSH1 0x24 DUP3 ADD MSTORE SWAP2 DUP6 SWAP2 DUP4 SWAP2 PUSH1 0x1 PUSH1 0x1 PUSH1 0xA0 SHL SUB SWAP1 SWAP2 AND SWAP1 DUP3 SWAP1 DUP2 PUSH1 0x44 DUP2 ADD PUSH2 0xADB JUMP JUMPDEST PUSH1 0x40 MLOAD PUSH3 0x461BCD PUSH1 0xE5 SHL DUP2 MSTORE PUSH1 0x4 DUP2 ADD DUP5 SWAP1 MSTORE PUSH1 0x23 PUSH1 0x24 DUP3 ADD MSTORE PUSH32 0x43686F73656E2076657269666569722063616E6E6F742072657475726E207374 PUSH1 0x44 DUP3 ADD MSTORE PUSH3 0x616B65 PUSH1 0xE8 SHL PUSH1 0x64 DUP3 ADD MSTORE PUSH1 0x84 SWAP1 REVERT JUMPDEST CALLVALUE PUSH2 0x60D JUMPI PUSH1 0x20 CALLDATASIZE PUSH1 0x3 NOT ADD SLT PUSH2 0x60D JUMPI PUSH2 0x3C6C PUSH1 0x4 CALLDATALOAD PUSH2 0x6095 JUMP JUMPDEST CALLVALUE PUSH2 0x60D JUMPI PUSH1 0x20 CALLDATASIZE PUSH1 0x3 NOT ADD SLT PUSH2 0x60D JUMPI PUSH2 0x3C6C PUSH1 0x4 CALLDATALOAD PUSH2 0x5A13 JUMP JUMPDEST CALLVALUE PUSH2 0x60D JUMPI PUSH1 0x0 CALLDATASIZE PUSH1 0x3 NOT ADD SLT PUSH2 0x60D JUMPI PUSH1 0x1 SLOAD PUSH1 0x40 MLOAD PUSH1 0x1 PUSH1 0x1 PUSH1 0xA0 SHL SUB SWAP1 SWAP2 AND DUP2 MSTORE PUSH1 0x20 SWAP1 RETURN JUMPDEST CALLVALUE PUSH2 0x60D JUMPI PUSH1 0x20 CALLDATASIZE PUSH1 0x3 NOT ADD SLT PUSH2 0x60D JUMPI PUSH1 0x4 CALLDATALOAD PUSH1 0x0 MSTORE PUSH1 0x9 PUSH1 0x20 MSTORE PUSH1 0x20 PUSH1 0x40 PUSH1 0x0 KECCAK256 SLOAD PUSH1 0x40 MLOAD SWAP1 DUP2 MSTORE RETURN JUMPDEST CALLVALUE PUSH2 0x60D JUMPI PUSH1 0x80 CALLDATASIZE PUSH1 0x3 NOT ADD SLT PUSH2 0x60D JUMPI PUSH1 0x4 CALLDATALOAD PUSH1 0x24 DUP1 CALLDATALOAD PUSH1 0x44 CALLDATALOAD SWAP1 PUSH1 0x64 CALLDATALOAD SWAP2 DUP5 PUSH1 0x0 MSTORE PUSH1 0x20 SWAP2 PUSH1 0x4 DUP4 MSTORE PUSH1 0x40 PUSH1 0x0 KECCAK256 PUSH1 0x1 DUP1 PUSH1 0xA0 SHL SUB PUSH1 0xF DUP3 ADD SLOAD AND CALLER SUB PUSH2 0x50A8 JUMPI DUP7 PUSH1 0x0 MSTORE PUSH1 0x5 DUP1 DUP6 MSTORE PUSH1 0x40 PUSH1 0x0 KECCAK256 SWAP5 PUSH1 0x13 DUP4 ADD DUP1 SLOAD SWAP7 DUP8 PUSH1 0x0 MSTORE DUP3 MSTORE PUSH1 0x7 PUSH1 0x40 PUSH1 0x0 KECCAK256 ADD SLOAD TIMESTAMP GT DUP1 ISZERO PUSH2 0x5079 JUMPI JUMPDEST ISZERO PUSH2 0x5035 JUMPI DUP10 PUSH1 0x0 MSTORE DUP3 DUP3 MSTORE PUSH1 0x40 PUSH1 0x0 KECCAK256 DUP8 PUSH1 0x0 MSTORE DUP3 MSTORE PUSH1 0x8 PUSH1 0x40 PUSH1 0x0 KECCAK256 ADD SLOAD TIMESTAMP GT PUSH2 0x4FF1 JUMPI DUP10 PUSH1 0x0 MSTORE PUSH1 0x7 DUP3 MSTORE PUSH1 0x40 PUSH1 0x0 KECCAK256 DUP6 PUSH1 0x0 MSTORE DUP3 MSTORE PUSH1 0xFF PUSH1 0x40 PUSH1 0x0 KECCAK256 SLOAD AND PUSH2 0x4FA3 JUMPI PUSH1 0x40 MLOAD SWAP7 DUP3 DUP9 ADD DUP10 DUP2 MSTORE PUSH1 0x1 PUSH1 0xF8 SHL PUSH1 0x40 DUP11 ADD MSTORE PUSH1 0x21 DUP10 MSTORE PUSH1 0x60 DUP10 ADD SWAP11 DUP10 DUP13 LT PUSH1 0x1 PUSH1 0x1 PUSH1 0x40 SHL SUB DUP14 GT OR PUSH2 0x4F8F JUMPI POP PUSH1 0x40 DUP12 DUP2 MSTORE DUP10 MLOAD SWAP1 SWAP2 KECCAK256 PUSH1 0x0 DUP14 DUP2 MSTORE DUP7 DUP7 MSTORE DUP3 DUP2 KECCAK256 SWAP4 DUP2 MSTORE SWAP3 DUP6 MSTORE DUP2 DUP4 KECCAK256 PUSH1 0xC ADD SSTORE DUP12 DUP3 MSTORE DUP5 DUP5 MSTORE DUP1 DUP3 KECCAK256 DUP4 SLOAD DUP4 MSTORE DUP5 MSTORE DUP1 DUP3 KECCAK256 PUSH1 0x10 ADD DUP9 SWAP1 SSTORE DUP12 DUP3 MSTORE DUP5 DUP5 MSTORE DUP1 DUP3 KECCAK256 SWAP3 SLOAD DUP3 MSTORE SWAP2 DUP4 MSTORE DUP2 DUP2 KECCAK256 PUSH1 0xF ADD DUP7 SWAP1 SSTORE DUP11 DUP2 MSTORE PUSH1 0x7 DUP4 MSTORE DUP2 DUP2 KECCAK256 DUP7 DUP3 MSTORE SWAP1 SWAP3 MSTORE SWAP1 KECCAK256 DUP1 SLOAD PUSH1 0xFF NOT SWAP1 DUP2 AND PUSH1 0x1 OR SWAP1 SWAP2 SSTORE PUSH1 0x14 SWAP1 SWAP3 ADD DUP1 SLOAD SWAP1 SWAP3 AND OR SWAP1 SSTORE DUP5 MSTORE PUSH1 0x80 DUP3 ADD MSTORE PUSH1 0xA0 ADD MSTORE PUSH32 0x2F06062EA665468A61997FD63A8EC957F95FDA34EE5DE1123656B796F400CF18 SWAP1 PUSH1 0x60 SWAP1 LOG2 STOP JUMPDEST PUSH4 0x4E487B71 PUSH1 0xE0 SHL PUSH1 0x0 SWAP1 DUP2 MSTORE PUSH1 0x41 PUSH1 0x4 MSTORE REVERT JUMPDEST PUSH1 0x40 MLOAD PUSH3 0x461BCD PUSH1 0xE5 SHL DUP2 MSTORE PUSH1 0x4 DUP2 ADD DUP4 SWAP1 MSTORE PUSH1 0x21 DUP2 DUP12 ADD MSTORE PUSH32 0x50726976617465206B65792068617320616C7265616479206265656E20757365 PUSH1 0x44 DUP3 ADD MSTORE PUSH1 0x19 PUSH1 0xFA SHL PUSH1 0x64 DUP3 ADD MSTORE PUSH1 0x84 SWAP1 REVERT JUMPDEST PUSH1 0x40 MLOAD PUSH3 0x461BCD PUSH1 0xE5 SHL DUP2 MSTORE PUSH1 0x4 DUP2 ADD DUP4 SWAP1 MSTORE PUSH1 0x1B DUP2 DUP12 ADD MSTORE PUSH32 0x50726F76696465722072657665616C20706861736520656E6465640000000000 PUSH1 0x44 DUP3 ADD MSTORE PUSH1 0x64 SWAP1 REVERT JUMPDEST PUSH1 0x40 MLOAD PUSH3 0x461BCD PUSH1 0xE5 SHL DUP2 MSTORE PUSH1 0x4 DUP2 ADD DUP4 SWAP1 MSTORE PUSH1 0x1A DUP2 DUP12 ADD MSTORE PUSH32 0x436F6D6D69746D656E74207068617365206E6F7420656E646564000000000000 PUSH1 0x44 DUP3 ADD MSTORE PUSH1 0x64 SWAP1 REVERT JUMPDEST POP PUSH1 0xFF PUSH1 0x14 DUP6 ADD SLOAD AND PUSH1 0x9 DUP2 LT ISZERO PUSH2 0x5093 JUMPI PUSH1 0x4 EQ PUSH2 0x4E66 JUMP JUMPDEST DUP10 PUSH4 0x4E487B71 PUSH1 0xE0 SHL PUSH1 0x0 MSTORE PUSH1 0x21 PUSH1 0x4 MSTORE PUSH1 0x0 REVERT JUMPDEST PUSH1 0x40 MLOAD PUSH3 0x461BCD PUSH1 0xE5 SHL DUP2 MSTORE PUSH1 0x4 DUP2 ADD DUP6 SWAP1 MSTORE PUSH1 0x32 DUP2 DUP9 ADD MSTORE PUSH32 0x4F6E6C7920746865206D61696E2070726F76696465722063616E207265766561 PUSH1 0x44 DUP3 ADD MSTORE PUSH18 0xD840E8D0CA40D6CAF240C2DCC840D0C2E6D PUSH1 0x73 SHL PUSH1 0x64 DUP3 ADD MSTORE PUSH1 0x84 SWAP1 REVERT JUMPDEST CALLVALUE PUSH2 0x60D JUMPI PUSH2 0x5115 CALLDATASIZE PUSH2 0x56FD JUMP JUMPDEST SWAP1 PUSH1 0x0 MSTORE PUSH1 0x5 PUSH1 0x20 MSTORE PUSH1 0x40 PUSH1 0x0 KECCAK256 SWAP1 PUSH1 0x0 MSTORE PUSH1 0x20 MSTORE PUSH1 0x2 PUSH1 0x40 PUSH1 0x0 KECCAK256 ADD CALLER PUSH1 0x0 MSTORE PUSH1 0x20 MSTORE PUSH1 0x20 PUSH1 0xFF PUSH1 0x40 PUSH1 0x0 KECCAK256 SLOAD AND PUSH1 0x40 MLOAD SWAP1 ISZERO ISZERO DUP2 MSTORE RETURN JUMPDEST CALLVALUE PUSH2 0x60D JUMPI PUSH2 0x515C CALLDATASIZE PUSH2 0x56FD JUMP JUMPDEST SWAP1 PUSH1 0x0 MSTORE PUSH1 0x7 PUSH1 0x20 MSTORE PUSH1 0x40 PUSH1 0x0 KECCAK256 SWAP1 PUSH1 0x0 MSTORE PUSH1 0x20 MSTORE PUSH1 0x20 PUSH1 0xFF PUSH1 0x40 PUSH1 0x0 KECCAK256 SLOAD AND PUSH1 0x40 MLOAD SWAP1 ISZERO ISZERO DUP2 MSTORE RETURN JUMPDEST CALLVALUE PUSH2 0x60D JUMPI PUSH2 0x5194 CALLDATASIZE PUSH2 0x56FD JUMP JUMPDEST SWAP1 PUSH1 0x0 MSTORE PUSH1 0x5 PUSH1 0x20 MSTORE PUSH1 0x40 PUSH1 0x0 KECCAK256 SWAP1 PUSH1 0x0 MSTORE PUSH1 0x20 MSTORE PUSH1 0x1 PUSH1 0x40 PUSH1 0x0 KECCAK256 ADD CALLER PUSH1 0x0 MSTORE PUSH1 0x20 MSTORE PUSH1 0x20 PUSH1 0xFF PUSH1 0x40 PUSH1 0x0 KECCAK256 SLOAD AND PUSH1 0x40 MLOAD SWAP1 ISZERO ISZERO DUP2 MSTORE RETURN JUMPDEST CALLVALUE PUSH2 0x60D JUMPI PUSH1 0x40 CALLDATASIZE PUSH1 0x3 NOT ADD SLT PUSH2 0x60D JUMPI PUSH1 0x4 CALLDATALOAD PUSH1 0x1 PUSH1 0x1 PUSH1 0x40 SHL SUB PUSH1 0x24 DUP1 CALLDATALOAD DUP3 DUP2 GT PUSH2 0x60D JUMPI PUSH2 0x5202 SWAP1 CALLDATASIZE SWAP1 PUSH1 0x4 ADD PUSH2 0x567D JUMP JUMPDEST DUP4 PUSH1 0x0 MSTORE PUSH1 0x20 PUSH1 0x4 DUP2 MSTORE PUSH1 0x40 PUSH1 0x0 KECCAK256 SWAP4 PUSH1 0xB DUP6 ADD DUP1 SLOAD PUSH1 0xFF DUP2 AND PUSH2 0x54CA JUMPI PUSH2 0x5230 PUSH1 0x8 DUP9 ADD SLOAD TIMESTAMP GT ISZERO PUSH2 0x5C75 JUMP JUMPDEST PUSH1 0xF DUP8 ADD SLOAD PUSH1 0x1 PUSH1 0x1 PUSH1 0xA0 SHL SUB AND CALLER SUB PUSH2 0x5474 JUMPI PUSH2 0xFF00 NOT AND PUSH2 0x100 OR SWAP1 SSTORE DUP3 MLOAD SWAP3 PUSH1 0x7 DUP7 ADD SWAP2 SWAP1 PUSH1 0x1 PUSH1 0x40 SHL DUP6 GT PUSH2 0x545F JUMPI DUP4 SWAP1 DUP4 SLOAD DUP7 DUP6 SSTORE DUP1 DUP8 LT PUSH2 0x53E5 JUMPI JUMPDEST POP PUSH1 0x0 SWAP4 DUP5 MSTORE DUP5 DUP5 KECCAK256 SWAP4 SWAP7 SWAP2 ADD JUMPDEST DUP6 DUP8 LT PUSH2 0x52C0 JUMPI TIMESTAMP PUSH1 0x1A DUP10 ADD SSTORE DUP9 PUSH2 0x5297 DUP2 PUSH2 0x5D02 JUMP JUMPDEST CALLER SWAP1 PUSH32 0xD8FCBB5EDDBA1B1984C4F12B2197B325CC19ED135C968033FFD714C7F4C2D6BD PUSH1 0x0 DUP1 LOG3 STOP JUMPDEST DUP1 MLOAD DUP1 MLOAD SWAP1 DUP5 DUP3 GT PUSH2 0x53D0 JUMPI SWAP1 DUP7 SWAP2 PUSH2 0x52D9 DUP8 SLOAD PUSH2 0x5713 JUMP JUMPDEST SWAP1 PUSH1 0x1F SWAP2 DUP3 DUP2 GT PUSH2 0x5398 JUMPI JUMPDEST POP DUP4 SWAP2 DUP4 GT PUSH1 0x1 EQ PUSH2 0x532D JUMPI SWAP2 DUP1 PUSH1 0x1 SWAP6 SWAP3 DUP7 SWAP6 SWAP5 PUSH1 0x0 SWAP3 PUSH2 0x5322 JUMPI JUMPDEST POP POP PUSH1 0x0 NOT PUSH1 0x3 DUP4 SWAP1 SHL SHR NOT AND SWAP1 DUP5 SHL OR DUP8 SSTORE JUMPDEST ADD SWAP5 ADD SWAP7 ADD SWAP6 SWAP3 PUSH2 0x5280 JUMP JUMPDEST ADD MLOAD SWAP1 POP DUP15 DUP1 PUSH2 0x5302 JUMP JUMPDEST SWAP1 PUSH1 0x1F NOT DUP4 AND SWAP2 DUP9 PUSH1 0x0 MSTORE DUP5 PUSH1 0x0 KECCAK256 SWAP3 PUSH1 0x0 JUMPDEST DUP2 DUP2 LT PUSH2 0x5380 JUMPI POP SWAP2 PUSH1 0x1 SWAP7 SWAP4 SWAP2 DUP6 DUP9 SWAP8 SWAP7 SWAP5 LT PUSH2 0x5367 JUMPI JUMPDEST POP POP POP DUP4 SHL DUP4 ADD DUP8 SSTORE PUSH2 0x5316 JUMP JUMPDEST ADD MLOAD PUSH1 0x0 NOT PUSH1 0xF8 DUP5 PUSH1 0x3 SHL AND SHR NOT AND SWAP1 SSTORE DUP14 DUP1 DUP1 PUSH2 0x5359 JUMP JUMPDEST DUP3 DUP5 ADD MLOAD DUP6 SSTORE DUP12 SWAP7 PUSH1 0x1 SWAP1 SWAP6 ADD SWAP5 SWAP4 DUP5 ADD SWAP4 ADD PUSH2 0x5340 JUMP JUMPDEST PUSH2 0x53C1 SWAP1 DUP10 PUSH1 0x0 MSTORE DUP6 PUSH1 0x0 KECCAK256 PUSH1 0x5 DUP6 DUP1 DUP9 ADD DUP3 SHR DUP4 ADD SWAP4 DUP10 DUP10 LT PUSH2 0x53C7 JUMPI JUMPDEST ADD SWAP1 SHR ADD SWAP1 PUSH2 0x5928 JUMP JUMPDEST DUP14 PUSH2 0x52E5 JUMP JUMPDEST SWAP4 POP DUP3 SWAP4 PUSH2 0x53B7 JUMP JUMPDEST DUP4 PUSH4 0x4E487B71 PUSH1 0xE0 SHL PUSH1 0x0 MSTORE PUSH1 0x41 PUSH1 0x4 MSTORE PUSH1 0x0 REVERT JUMPDEST DUP5 PUSH1 0x0 MSTORE DUP7 DUP4 PUSH1 0x0 KECCAK256 SWAP2 DUP3 ADD SWAP2 ADD JUMPDEST DUP2 DUP2 LT PUSH2 0x5401 JUMPI POP PUSH2 0x5272 JUMP JUMPDEST PUSH1 0x1 SWAP2 SWAP3 SWAP4 POP PUSH2 0x5411 DUP2 SLOAD PUSH2 0x5713 JUMP JUMPDEST DUP1 PUSH2 0x5422 JUMPI JUMPDEST POP ADD SWAP1 DUP6 SWAP3 SWAP2 PUSH2 0x53F4 JUMP JUMPDEST PUSH1 0x1F SWAP1 DUP2 DUP2 GT DUP5 EQ PUSH2 0x543B JUMPI POP POP PUSH1 0x0 DUP2 SSTORE JUMPDEST DUP12 PUSH2 0x5417 JUMP JUMPDEST PUSH2 0x5456 PUSH1 0x0 SWAP3 DUP5 DUP5 MSTORE DUP11 DUP5 KECCAK256 SWAP3 ADD PUSH1 0x5 SHR DUP3 ADD DUP6 DUP4 ADD PUSH2 0x5928 JUMP JUMPDEST DUP2 DUP4 SSTORE SSTORE PUSH2 0x5435 JUMP JUMPDEST DUP6 PUSH4 0x4E487B71 PUSH1 0xE0 SHL PUSH1 0x0 MSTORE PUSH1 0x41 PUSH1 0x4 MSTORE PUSH1 0x0 REVERT JUMPDEST PUSH1 0x40 MLOAD PUSH3 0x461BCD PUSH1 0xE5 SHL DUP2 MSTORE PUSH1 0x4 DUP2 ADD DUP6 SWAP1 MSTORE PUSH1 0x29 DUP2 DUP9 ADD MSTORE PUSH32 0x4F6E6C792063686F73656E2070726F76696465722063616E20636F6D706C6574 PUSH1 0x44 DUP3 ADD MSTORE PUSH9 0x19481C995C5D595CDD PUSH1 0xBA SHL PUSH1 0x64 DUP3 ADD MSTORE PUSH1 0x84 SWAP1 REVERT JUMPDEST PUSH1 0x40 MLOAD PUSH3 0x461BCD PUSH1 0xE5 SHL DUP2 MSTORE PUSH1 0x4 DUP2 ADD DUP6 SWAP1 MSTORE PUSH1 0x22 DUP2 DUP9 ADD MSTORE PUSH32 0x526571756573742068617320616C7265616479206265656E20636F6D706C6574 PUSH1 0x44 DUP3 ADD MSTORE PUSH2 0x1959 PUSH1 0xF2 SHL PUSH1 0x64 DUP3 ADD MSTORE PUSH1 0x84 SWAP1 REVERT JUMPDEST CALLVALUE PUSH2 0x60D JUMPI PUSH1 0x20 CALLDATASIZE PUSH1 0x3 NOT ADD SLT PUSH2 0x60D JUMPI PUSH1 0x20 SWAP1 PUSH1 0x1 PUSH1 0x1 PUSH1 0xA0 SHL SUB PUSH2 0x553D PUSH2 0x554F JUMP JUMPDEST AND PUSH1 0x0 MSTORE PUSH1 0xC DUP3 MSTORE PUSH1 0x40 PUSH1 0x0 KECCAK256 SLOAD DUP2 MSTORE RETURN JUMPDEST PUSH1 0x4 CALLDATALOAD SWAP1 PUSH1 0x1 PUSH1 0x1 PUSH1 0xA0 SHL SUB DUP3 AND DUP3 SUB PUSH2 0x60D JUMPI JUMP JUMPDEST PUSH2 0x1A0 DUP2 ADD SWAP1 DUP2 LT PUSH1 0x1 PUSH1 0x1 PUSH1 0x40 SHL SUB DUP3 GT OR PUSH2 0xEDE JUMPI PUSH1 0x40 MSTORE JUMP JUMPDEST PUSH2 0x100 DUP2 ADD SWAP1 DUP2 LT PUSH1 0x1 PUSH1 0x1 PUSH1 0x40 SHL SUB DUP3 GT OR PUSH2 0xEDE JUMPI PUSH1 0x40 MSTORE JUMP JUMPDEST PUSH2 0x3C0 DUP2 ADD SWAP1 DUP2 LT PUSH1 0x1 PUSH1 0x1 PUSH1 0x40 SHL SUB DUP3 GT OR PUSH2 0xEDE JUMPI PUSH1 0x40 MSTORE JUMP JUMPDEST PUSH1 0x80 DUP2 ADD SWAP1 DUP2 LT PUSH1 0x1 PUSH1 0x1 PUSH1 0x40 SHL SUB DUP3 GT OR PUSH2 0xEDE JUMPI PUSH1 0x40 MSTORE JUMP JUMPDEST PUSH1 0x20 DUP2 ADD SWAP1 DUP2 LT PUSH1 0x1 PUSH1 0x1 PUSH1 0x40 SHL SUB DUP3 GT OR PUSH2 0xEDE JUMPI PUSH1 0x40 MSTORE JUMP JUMPDEST SWAP1 PUSH1 0x1F DUP1 NOT SWAP2 ADD AND DUP2 ADD SWAP1 DUP2 LT PUSH1 0x1 PUSH1 0x1 PUSH1 0x40 SHL SUB DUP3 GT OR PUSH2 0xEDE JUMPI PUSH1 0x40 MSTORE JUMP JUMPDEST PUSH1 0x1 PUSH1 0x1 PUSH1 0x40 SHL SUB DUP2 GT PUSH2 0xEDE JUMPI PUSH1 0x5 SHL PUSH1 0x20 ADD SWAP1 JUMP JUMPDEST DUP2 PUSH1 0x1F DUP3 ADD SLT ISZERO PUSH2 0x60D JUMPI DUP1 CALLDATALOAD SWAP1 PUSH1 0x1 PUSH1 0x1 PUSH1 0x40 SHL SUB DUP3 GT PUSH2 0xEDE JUMPI PUSH1 0x40 MLOAD SWAP3 PUSH2 0x565B PUSH1 0x1F DUP5 ADD PUSH1 0x1F NOT AND PUSH1 0x20 ADD DUP6 PUSH2 0x55EF JUMP JUMPDEST DUP3 DUP5 MSTORE PUSH1 0x20 DUP4 DUP4 ADD ADD GT PUSH2 0x60D JUMPI DUP2 PUSH1 0x0 SWAP3 PUSH1 0x20 DUP1 SWAP4 ADD DUP4 DUP7 ADD CALLDATACOPY DUP4 ADD ADD MSTORE SWAP1 JUMP JUMPDEST SWAP1 DUP1 PUSH1 0x1F DUP4 ADD SLT ISZERO PUSH2 0x60D JUMPI DUP2 CALLDATALOAD SWAP1 PUSH2 0x5695 DUP3 PUSH2 0x5610 JUMP JUMPDEST SWAP3 PUSH2 0x56A3 PUSH1 0x40 MLOAD SWAP5 DUP6 PUSH2 0x55EF JUMP JUMPDEST DUP3 DUP5 MSTORE PUSH1 0x20 SWAP3 DUP4 DUP1 DUP7 ADD SWAP2 PUSH1 0x5 SHL DUP4 ADD ADD SWAP3 DUP1 DUP5 GT PUSH2 0x60D JUMPI DUP5 DUP4 ADD SWAP2 JUMPDEST DUP5 DUP4 LT PUSH2 0x56D1 JUMPI POP POP POP POP POP POP SWAP1 JUMP JUMPDEST DUP3 CALLDATALOAD PUSH1 0x1 PUSH1 0x1 PUSH1 0x40 SHL SUB DUP2 GT PUSH2 0x60D JUMPI DUP7 SWAP2 PUSH2 0x56F2 DUP5 DUP5 DUP1 SWAP5 DUP10 ADD ADD PUSH2 0x5627 JUMP JUMPDEST DUP2 MSTORE ADD SWAP3 ADD SWAP2 PUSH2 0x56C1 JUMP JUMPDEST PUSH1 0x40 SWAP1 PUSH1 0x3 NOT ADD SLT PUSH2 0x60D JUMPI PUSH1 0x4 CALLDATALOAD SWAP1 PUSH1 0x24 CALLDATALOAD SWAP1 JUMP JUMPDEST SWAP1 PUSH1 0x1 DUP3 DUP2 SHR SWAP3 AND DUP1 ISZERO PUSH2 0x5743 JUMPI JUMPDEST PUSH1 0x20 DUP4 LT EQ PUSH2 0x572D JUMPI JUMP JUMPDEST PUSH4 0x4E487B71 PUSH1 0xE0 SHL PUSH1 0x0 MSTORE PUSH1 0x22 PUSH1 0x4 MSTORE PUSH1 0x24 PUSH1 0x0 REVERT JUMPDEST SWAP2 PUSH1 0x7F AND SWAP2 PUSH2 0x5722 JUMP JUMPDEST SWAP1 PUSH1 0x40 MLOAD SWAP2 DUP3 PUSH1 0x0 DUP3 SLOAD SWAP3 PUSH2 0x5761 DUP5 PUSH2 0x5713 JUMP JUMPDEST SWAP1 DUP2 DUP5 MSTORE PUSH1 0x1 SWAP5 DUP6 DUP2 AND SWAP1 DUP2 PUSH1 0x0 EQ PUSH2 0x57D0 JUMPI POP PUSH1 0x1 EQ PUSH2 0x578D JUMPI JUMPDEST POP POP PUSH2 0x578B SWAP3 POP SUB DUP4 PUSH2 0x55EF JUMP JUMPDEST JUMP JUMPDEST SWAP1 SWAP4 SWAP2 POP PUSH1 0x0 MSTORE PUSH1 0x20 SWAP1 DUP2 PUSH1 0x0 KECCAK256 SWAP4 PUSH1 0x0 SWAP2 JUMPDEST DUP2 DUP4 LT PUSH2 0x57B8 JUMPI POP POP PUSH2 0x578B SWAP4 POP DUP3 ADD ADD CODESIZE DUP1 PUSH2 0x577D JUMP JUMPDEST DUP6 SLOAD DUP9 DUP5 ADD DUP6 ADD MSTORE SWAP5 DUP6 ADD SWAP5 DUP8 SWAP5 POP SWAP2 DUP4 ADD SWAP2 PUSH2 0x57A0 JUMP JUMPDEST SWAP2 POP POP PUSH2 0x578B SWAP5 POP PUSH1 0x20 SWAP3 POP PUSH1 0xFF NOT AND DUP3 DUP5 ADD MSTORE ISZERO ISZERO PUSH1 0x5 SHL DUP3 ADD ADD CODESIZE DUP1 PUSH2 0x577D JUMP JUMPDEST SWAP2 SWAP1 DUP3 MLOAD SWAP3 DUP4 DUP3 MSTORE PUSH1 0x0 JUMPDEST DUP5 DUP2 LT PUSH2 0x581F JUMPI POP POP DUP3 PUSH1 0x0 PUSH1 0x20 DUP1 SWAP5 SWAP6 DUP5 ADD ADD MSTORE PUSH1 0x1F DUP1 NOT SWAP2 ADD AND ADD ADD SWAP1 JUMP JUMPDEST PUSH1 0x20 DUP2 DUP4 ADD DUP2 ADD MLOAD DUP5 DUP4 ADD DUP3 ADD MSTORE ADD PUSH2 0x57FE JUMP JUMPDEST SWAP1 PUSH1 0x9 DUP3 LT ISZERO PUSH2 0x5F7 JUMPI MSTORE JUMP JUMPDEST SWAP1 DUP1 DUP3 MLOAD SWAP1 DUP2 DUP2 MSTORE PUSH1 0x20 DUP1 SWAP2 ADD SWAP3 DUP2 DUP1 DUP5 PUSH1 0x5 SHL DUP4 ADD ADD SWAP6 ADD SWAP4 PUSH1 0x0 SWAP2 JUMPDEST DUP5 DUP4 LT PUSH2 0x586E JUMPI POP POP POP POP POP POP SWAP1 JUMP JUMPDEST SWAP1 SWAP2 SWAP3 SWAP4 SWAP5 SWAP6 DUP5 DUP1 PUSH2 0x588C PUSH1 0x1 SWAP4 PUSH1 0x1F NOT DUP7 DUP3 SUB ADD DUP8 MSTORE DUP11 MLOAD PUSH2 0x57F3 JUMP JUMPDEST SWAP9 ADD SWAP4 ADD SWAP4 ADD SWAP2 SWAP5 SWAP4 SWAP3 SWAP1 PUSH2 0x585E JUMP JUMPDEST SWAP1 DUP2 MLOAD DUP1 DUP3 MSTORE PUSH1 0x20 DUP1 DUP1 SWAP4 ADD SWAP4 ADD SWAP2 PUSH1 0x0 JUMPDEST DUP3 DUP2 LT PUSH2 0x58BC JUMPI POP POP POP POP SWAP1 JUMP JUMPDEST DUP4 MLOAD PUSH1 0x1 PUSH1 0x1 PUSH1 0xA0 SHL SUB AND DUP6 MSTORE SWAP4 DUP2 ADD SWAP4 SWAP3 DUP2 ADD SWAP3 PUSH1 0x1 ADD PUSH2 0x58AE JUMP JUMPDEST SWAP2 SWAP1 DUP3 ADD DUP1 SWAP3 GT PUSH2 0xC1D JUMPI JUMP JUMPDEST SWAP2 SWAP1 DUP3 SUB SWAP2 DUP3 GT PUSH2 0xC1D JUMPI JUMP JUMPDEST DUP2 ISZERO PUSH2 0x3772 JUMPI DIV SWAP1 JUMP JUMPDEST DUP2 DUP2 MUL SWAP3 SWAP2 DUP2 ISZERO SWAP2 DUP5 DIV EQ OR ISZERO PUSH2 0xC1D JUMPI JUMP JUMPDEST SWAP1 DUP2 PUSH1 0x20 SWAP2 SUB SLT PUSH2 0x60D JUMPI MLOAD DUP1 ISZERO ISZERO DUP2 SUB PUSH2 0x60D JUMPI SWAP1 JUMP JUMPDEST DUP2 DUP2 LT PUSH2 0x5933 JUMPI POP POP JUMP JUMPDEST PUSH1 0x0 DUP2 SSTORE PUSH1 0x1 ADD PUSH2 0x5928 JUMP JUMPDEST SWAP1 PUSH1 0x9 DUP2 LT ISZERO PUSH2 0x5F7 JUMPI PUSH1 0xFF DUP1 NOT DUP4 SLOAD AND SWAP2 AND OR SWAP1 SSTORE JUMP JUMPDEST PUSH1 0x0 NOT DUP2 EQ PUSH2 0xC1D JUMPI PUSH1 0x1 ADD SWAP1 JUMP JUMPDEST SWAP1 DUP2 SLOAD PUSH2 0x5972 DUP2 PUSH2 0x5610 JUMP JUMPDEST SWAP3 PUSH2 0x5980 PUSH1 0x40 MLOAD SWAP5 DUP6 PUSH2 0x55EF JUMP JUMPDEST DUP2 DUP5 MSTORE PUSH1 0x0 SWAP1 DUP2 MSTORE PUSH1 0x20 DUP1 DUP3 KECCAK256 DUP2 DUP7 ADD JUMPDEST DUP5 DUP5 LT PUSH2 0x599F JUMPI POP POP POP POP POP JUMP JUMPDEST PUSH1 0x1 DUP4 DUP2 SWAP3 PUSH2 0x59AD DUP6 PUSH2 0x574D JUMP JUMPDEST DUP2 MSTORE ADD SWAP3 ADD SWAP4 ADD SWAP3 SWAP1 PUSH2 0x5991 JUMP JUMPDEST SWAP1 PUSH1 0x40 MLOAD SWAP2 DUP3 DUP2 SLOAD SWAP2 DUP3 DUP3 MSTORE PUSH1 0x20 SWAP3 DUP4 DUP4 ADD SWAP2 PUSH1 0x0 MSTORE DUP4 PUSH1 0x0 KECCAK256 SWAP4 PUSH1 0x0 SWAP1 JUMPDEST DUP3 DUP3 LT PUSH2 0x59F0 JUMPI POP POP POP PUSH2 0x578B SWAP3 POP SUB DUP4 PUSH2 0x55EF JUMP JUMPDEST DUP6 SLOAD PUSH1 0x1 PUSH1 0x1 PUSH1 0xA0 SHL SUB AND DUP5 MSTORE PUSH1 0x1 SWAP6 DUP7 ADD SWAP6 DUP9 SWAP6 POP SWAP4 DUP2 ADD SWAP4 SWAP1 SWAP2 ADD SWAP1 PUSH2 0x59DA JUMP JUMPDEST PUSH1 0x0 DUP2 DUP2 MSTORE PUSH1 0x4 PUSH1 0x20 DUP2 DUP2 MSTORE PUSH1 0x40 SWAP1 DUP2 DUP5 KECCAK256 SWAP2 PUSH1 0x1 DUP1 PUSH1 0xA0 SHL SUB SWAP4 DUP5 DUP5 SLOAD AND SWAP5 DUP6 CALLER SUB PUSH2 0x5C27 JUMPI PUSH1 0xB DUP6 ADD SWAP6 PUSH1 0xFF DUP8 SLOAD AND PUSH2 0x5BE4 JUMPI DUP5 SWAP1 DUP3 PUSH1 0xF DUP9 ADD SLOAD AND ISZERO PUSH2 0x5BA3 JUMPI POP POP PUSH1 0x8 DUP6 ADD SLOAD TIMESTAMP GT DUP1 PUSH2 0x5B94 JUMPI JUMPDEST ISZERO PUSH2 0x5B3C JUMPI PUSH2 0x5ABE SWAP3 SWAP2 DUP5 SWAP2 PUSH2 0x5A84 PUSH1 0xA DUP9 ADD SLOAD PUSH1 0x15 DUP10 ADD SLOAD SWAP1 PUSH2 0x58D9 JUMP JUMPDEST SWAP2 DUP10 DUP3 DUP2 SLOAD AND SWAP3 DUP10 SLOAD AND SWAP2 DUP7 MLOAD SWAP8 DUP9 SWAP6 DUP7 SWAP5 DUP6 SWAP4 PUSH4 0xA9059CBB PUSH1 0xE0 SHL DUP6 MSTORE DUP5 ADD PUSH1 0x20 SWAP1 SWAP4 SWAP3 SWAP2 SWAP4 PUSH1 0x40 DUP2 ADD SWAP5 PUSH1 0x1 DUP1 PUSH1 0xA0 SHL SUB AND DUP2 MSTORE ADD MSTORE JUMP JUMPDEST SUB SWAP3 GAS CALL SWAP1 DUP2 ISZERO PUSH2 0x5B33 JUMPI POP SWAP3 PUSH1 0x8 SWAP3 PUSH1 0x14 SWAP3 PUSH32 0xEE243F878B7FC2F54E934CA33783D4395D42BC07612E2BD4B8E0E178639F7A28 SWAP8 SWAP7 SWAP6 PUSH2 0x5B15 JUMPI JUMPDEST POP POP PUSH1 0xFF NOT SWAP4 PUSH1 0x1 DUP6 DUP3 SLOAD AND OR SWAP1 SSTORE ADD SWAP2 DUP3 SLOAD AND OR SWAP1 SSTORE DUP1 LOG2 JUMP JUMPDEST DUP2 PUSH2 0x5B2B SWAP3 SWAP1 RETURNDATASIZE LT PUSH2 0xB46 JUMPI PUSH2 0xB37 DUP2 DUP4 PUSH2 0x55EF JUMP JUMPDEST POP CODESIZE DUP1 PUSH2 0x5AFA JUMP JUMPDEST MLOAD RETURNDATASIZE DUP8 DUP3 RETURNDATACOPY RETURNDATASIZE SWAP1 REVERT JUMPDEST POP DUP3 PUSH1 0x84 SWAP3 MLOAD SWAP2 PUSH3 0x461BCD PUSH1 0xE5 SHL DUP4 MSTORE DUP3 ADD MSTORE PUSH1 0x2D PUSH1 0x24 DUP3 ADD MSTORE PUSH32 0x436F6D7075746174696F6E20646561646C696E6520686173206E6F7420796574 PUSH1 0x44 DUP3 ADD MSTORE PUSH13 0x81899595B881C995858DA1959 PUSH1 0x9A SHL PUSH1 0x64 DUP3 ADD MSTORE REVERT JUMPDEST POP PUSH1 0xFF DUP7 SLOAD PUSH1 0x8 SHR AND ISZERO PUSH2 0x5A65 JUMP JUMPDEST DUP9 SLOAD PUSH1 0xA DUP9 ADD SLOAD DUP7 MLOAD PUSH4 0xA9059CBB PUSH1 0xE0 SHL DUP2 MSTORE PUSH1 0x1 PUSH1 0x1 PUSH1 0xA0 SHL SUB SWAP1 SWAP4 AND SWAP6 DUP4 ADD SWAP6 DUP7 MSTORE PUSH1 0x20 DUP7 ADD MSTORE SWAP1 SWAP5 SWAP4 SWAP2 SWAP3 DUP6 SWAP3 SWAP2 AND SWAP1 DUP3 SWAP1 DUP11 SWAP1 DUP3 SWAP1 PUSH1 0x40 ADD PUSH2 0x5ABE JUMP JUMPDEST DUP4 MLOAD PUSH3 0x461BCD PUSH1 0xE5 SHL DUP2 MSTORE DUP1 DUP5 ADD DUP7 SWAP1 MSTORE PUSH1 0x19 PUSH1 0x24 DUP3 ADD MSTORE PUSH32 0x5265717565737420616C726561647920636F6D706C6574656400000000000000 PUSH1 0x44 DUP3 ADD MSTORE PUSH1 0x64 SWAP1 REVERT JUMPDEST POP DUP3 PUSH1 0x84 SWAP3 MLOAD SWAP2 PUSH3 0x461BCD PUSH1 0xE5 SHL DUP4 MSTORE DUP3 ADD MSTORE PUSH1 0x24 DUP1 DUP3 ADD MSTORE PUSH32 0x4F6E6C792074686520636F6E73756D65722063616E2077697468647261772066 PUSH1 0x44 DUP3 ADD MSTORE PUSH4 0x756E6473 PUSH1 0xE0 SHL PUSH1 0x64 DUP3 ADD MSTORE REVERT JUMPDEST ISZERO PUSH2 0x5C7C JUMPI JUMP JUMPDEST PUSH1 0x40 MLOAD PUSH3 0x461BCD PUSH1 0xE5 SHL DUP2 MSTORE PUSH1 0x20 PUSH1 0x4 DUP3 ADD MSTORE PUSH1 0x1B PUSH1 0x24 DUP3 ADD MSTORE PUSH32 0x436F6D7075746174696F6E20646561646C696E65207061737365640000000000 PUSH1 0x44 DUP3 ADD MSTORE PUSH1 0x64 SWAP1 REVERT JUMPDEST ISZERO PUSH2 0x5CC8 JUMPI JUMP JUMPDEST PUSH1 0x40 MLOAD PUSH3 0x461BCD PUSH1 0xE5 SHL DUP2 MSTORE PUSH1 0x20 PUSH1 0x4 DUP3 ADD MSTORE PUSH1 0x12 PUSH1 0x24 DUP3 ADD MSTORE PUSH18 0x496E73756666696369656E74207374616B65 PUSH1 0x70 SHL PUSH1 0x44 DUP3 ADD MSTORE PUSH1 0x64 SWAP1 REVERT JUMPDEST PUSH1 0x0 DUP2 DUP2 MSTORE PUSH1 0x4 PUSH1 0x20 SWAP1 DUP2 MSTORE PUSH1 0x40 DUP1 DUP4 KECCAK256 PUSH1 0xF DUP2 ADD SLOAD PUSH1 0x1 PUSH1 0x1 PUSH1 0xA0 SHL SUB AND ISZERO PUSH2 0x5E7B JUMPI DUP4 DUP3 MLOAD PUSH2 0x5D32 DUP2 PUSH2 0x55D4 JUMP JUMPDEST MSTORE PUSH1 0xD DUP2 ADD DUP1 SLOAD DUP6 DUP3 SSTORE DUP1 PUSH2 0x5E63 JUMPI JUMPDEST POP DUP5 MSTORE DUP4 DUP3 MLOAD PUSH2 0x5D51 DUP2 PUSH2 0x55D4 JUMP JUMPDEST MSTORE PUSH1 0xE DUP2 ADD DUP1 SLOAD DUP6 DUP3 SSTORE DUP1 PUSH2 0x5E4B JUMPI JUMPDEST POP DUP5 MSTORE PUSH1 0x14 DUP2 ADD PUSH1 0x2 PUSH1 0xFF NOT DUP3 SLOAD AND OR SWAP1 SSTORE PUSH1 0x13 DUP2 ADD DUP1 SLOAD SWAP1 PUSH1 0x1 DUP3 ADD DUP1 SWAP3 GT PUSH2 0x5E37 JUMPI SWAP4 DUP7 SWAP4 PUSH32 0xB39EBDE6D06658D2F25237A5031F2A70EADF752F8ECC1B74081C3768822F0272 SWAP4 PUSH1 0xA0 SWAP4 PUSH32 0x2D4E685F9AF8CF88FB3E3447F1EE8E4E5E68423A2C393DC8D6E9784AA67DDAFA SWAP9 SWAP8 SSTORE DUP7 PUSH1 0x19 DUP3 ADD SSTORE DUP6 PUSH32 0x7CDB7F0BD04877CAF5DDA7A202130926CDD67AD312DADA203661FF6D88068434 DUP5 PUSH1 0x12 DUP5 ADD SLOAD DUP6 MLOAD SWAP1 DUP2 MSTORE LOG2 PUSH1 0x16 DUP2 ADD SLOAD SWAP2 PUSH1 0x9 DUP3 ADD SLOAD SWAP1 PUSH1 0x4 PUSH1 0x10 DUP5 ADD SLOAD SWAP4 ADD SLOAD SWAP4 DUP2 MLOAD SWAP6 CALLER DUP8 MSTORE DUP7 ADD MSTORE DUP5 ADD MSTORE PUSH1 0x60 DUP4 ADD MSTORE PUSH1 0x80 DUP3 ADD MSTORE LOG2 DUP1 LOG2 JUMP JUMPDEST PUSH4 0x4E487B71 PUSH1 0xE0 SHL DUP7 MSTORE PUSH1 0x11 PUSH1 0x4 MSTORE PUSH1 0x24 DUP7 REVERT JUMPDEST DUP2 DUP7 MSTORE DUP5 DUP7 KECCAK256 PUSH2 0x5E5D SWAP2 DUP2 ADD SWAP1 PUSH2 0x5928 JUMP JUMPDEST CODESIZE PUSH2 0x5D61 JUMP JUMPDEST DUP2 DUP7 MSTORE DUP5 DUP7 KECCAK256 PUSH2 0x5E75 SWAP2 DUP2 ADD SWAP1 PUSH2 0x5928 JUMP JUMPDEST CODESIZE PUSH2 0x5D42 JUMP JUMPDEST DUP2 MLOAD PUSH3 0x461BCD PUSH1 0xE5 SHL DUP2 MSTORE PUSH1 0x4 DUP2 ADD DUP5 SWAP1 MSTORE PUSH1 0x27 PUSH1 0x24 DUP3 ADD MSTORE PUSH32 0x4D61696E2070726F766964657220686173206E6F7420796574206265656E2073 PUSH1 0x44 DUP3 ADD MSTORE PUSH7 0x195B1958DD1959 PUSH1 0xCA SHL PUSH1 0x64 DUP3 ADD MSTORE PUSH1 0x84 SWAP1 REVERT JUMPDEST ISZERO PUSH2 0x5ED6 JUMPI JUMP JUMPDEST PUSH1 0x40 MLOAD PUSH3 0x461BCD PUSH1 0xE5 SHL DUP2 MSTORE PUSH1 0x20 PUSH1 0x4 DUP3 ADD MSTORE PUSH1 0x3D PUSH1 0x24 DUP3 ADD MSTORE PUSH32 0x4E6F7420656E6F7567682074696D6520746F20706572666F726D20726F756E64 PUSH1 0x44 DUP3 ADD MSTORE PUSH32 0x206265666F726520766572696669636174696F6E20646561646C696E65000000 PUSH1 0x64 DUP3 ADD MSTORE PUSH1 0x84 SWAP1 REVERT JUMPDEST DUP1 SLOAD DUP3 LT ISZERO PUSH2 0x5F59 JUMPI PUSH1 0x0 MSTORE PUSH1 0x20 PUSH1 0x0 KECCAK256 ADD SWAP1 PUSH1 0x0 SWAP1 JUMP JUMPDEST PUSH4 0x4E487B71 PUSH1 0xE0 SHL PUSH1 0x0 MSTORE PUSH1 0x32 PUSH1 0x4 MSTORE PUSH1 0x24 PUSH1 0x0 REVERT JUMPDEST SWAP1 DUP2 SLOAD SWAP2 PUSH1 0x1 PUSH1 0x40 SHL DUP4 LT ISZERO PUSH2 0xEDE JUMPI DUP3 PUSH2 0x33F5 SWAP2 PUSH1 0x1 PUSH2 0x578B SWAP6 ADD DUP2 SSTORE PUSH2 0x5F41 JUMP JUMPDEST ISZERO PUSH2 0x5F99 JUMPI JUMP JUMPDEST PUSH1 0x40 MLOAD PUSH3 0x461BCD PUSH1 0xE5 SHL DUP2 MSTORE PUSH1 0x20 PUSH1 0x4 DUP3 ADD MSTORE PUSH1 0x11 PUSH1 0x24 DUP3 ADD MSTORE PUSH17 0x105B1C9958591E481899595B881C185A59 PUSH1 0x7A SHL PUSH1 0x44 DUP3 ADD MSTORE PUSH1 0x64 SWAP1 REVERT JUMPDEST ISZERO PUSH2 0x5FD9 JUMPI JUMP JUMPDEST PUSH1 0x40 MLOAD PUSH3 0x461BCD PUSH1 0xE5 SHL DUP2 MSTORE PUSH1 0x20 PUSH1 0x4 DUP3 ADD MSTORE PUSH1 0x13 PUSH1 0x24 DUP3 ADD MSTORE PUSH19 0x2CB7BA903234B2103737BA103A3934B3B3B2B9 PUSH1 0x69 SHL PUSH1 0x44 DUP3 ADD MSTORE PUSH1 0x64 SWAP1 REVERT JUMPDEST ISZERO PUSH2 0x601B JUMPI JUMP JUMPDEST PUSH1 0x40 MLOAD PUSH3 0x461BCD PUSH1 0xE5 SHL DUP2 MSTORE PUSH1 0x20 PUSH1 0x4 DUP3 ADD MSTORE PUSH1 0x2D PUSH1 0x24 DUP3 ADD MSTORE PUSH32 0x596F7520617265206E6F74207468652063686F73656E20766572696669657220 PUSH1 0x44 DUP3 ADD MSTORE PUSH13 0x1A5B881D1A1A5CC81C9BDD5B99 PUSH1 0x9A SHL PUSH1 0x64 DUP3 ADD MSTORE PUSH1 0x84 SWAP1 REVERT JUMPDEST SWAP1 DUP2 PUSH1 0x20 SWAP2 SUB SLT PUSH2 0x60D JUMPI MLOAD PUSH1 0x1 PUSH1 0x1 PUSH1 0xA0 SHL SUB DUP2 AND DUP2 SUB PUSH2 0x60D JUMPI SWAP1 JUMP JUMPDEST PUSH1 0x0 DUP2 DUP2 MSTORE PUSH1 0x4 PUSH1 0x20 SWAP1 DUP2 MSTORE PUSH1 0x40 DUP1 DUP4 KECCAK256 PUSH1 0x5 DUP4 MSTORE DUP2 DUP5 KECCAK256 PUSH1 0x13 DUP3 ADD SLOAD DUP6 MSTORE DUP4 MSTORE DUP2 DUP5 KECCAK256 PUSH1 0xA DUP2 ADD SLOAD PUSH1 0xC SWAP1 SWAP2 ADD SLOAD SWAP3 SWAP4 SWAP3 EQ ISZERO DUP1 PUSH2 0x6232 JUMPI JUMPDEST ISZERO PUSH2 0x61DE JUMPI PUSH1 0x14 DUP2 ADD SWAP1 PUSH1 0xFF NOT SWAP2 PUSH1 0x7 DUP4 DUP3 SLOAD AND OR SWAP1 SSTORE PUSH2 0x615C DUP4 PUSH1 0x1 DUP1 PUSH1 0xA0 SHL SUB DUP1 DUP9 SLOAD AND SWAP1 DUP5 SLOAD AND SWAP1 PUSH2 0x6129 PUSH2 0x611E PUSH2 0x6113 PUSH1 0x1 DUP9 ADD SLOAD PUSH1 0x15 DUP10 ADD SLOAD SWAP1 PUSH2 0x58D9 JUMP JUMPDEST PUSH1 0x2 DUP9 ADD SLOAD SWAP1 PUSH2 0x58D9 JUMP JUMPDEST PUSH1 0x17 DUP8 ADD SLOAD SWAP1 PUSH2 0x58E6 JUMP JUMPDEST DUP9 MLOAD PUSH4 0xA9059CBB PUSH1 0xE0 SHL DUP2 MSTORE PUSH1 0x1 PUSH1 0x1 PUSH1 0xA0 SHL SUB SWAP1 SWAP4 AND PUSH1 0x4 DUP5 ADD MSTORE PUSH1 0x24 DUP4 ADD MSTORE SWAP1 SWAP3 DUP4 SWAP2 SWAP1 DUP3 SWAP1 DUP11 SWAP1 DUP3 SWAP1 PUSH1 0x44 DUP3 ADD SWAP1 JUMP JUMPDEST SUB SWAP3 GAS CALL DUP1 ISZERO PUSH2 0x61D4 JUMPI PUSH1 0xB PUSH32 0x6D55D799468C2D702D8FF65D462B4E8DBBC88C728431AEE69B205A3964362F07 SWAP8 SWAP7 SWAP6 SWAP4 DUP2 SWAP6 SWAP4 PUSH1 0x1 SWAP4 PUSH2 0x61B7 JUMPI JUMPDEST POP ADD SWAP2 DUP3 SLOAD AND OR SWAP1 SSTORE CALLER DUP5 MSTORE MSTORE DUP2 KECCAK256 PUSH2 0x61B1 DUP2 SLOAD PUSH2 0x5957 JUMP JUMPDEST SWAP1 SSTORE DUP1 LOG2 JUMP JUMPDEST PUSH2 0x61CD SWAP1 DUP7 RETURNDATASIZE DUP9 GT PUSH2 0xB46 JUMPI PUSH2 0xB37 DUP2 DUP4 PUSH2 0x55EF JUMP JUMPDEST POP CODESIZE PUSH2 0x6198 JUMP JUMPDEST DUP6 MLOAD RETURNDATASIZE DUP9 DUP3 RETURNDATACOPY RETURNDATASIZE SWAP1 REVERT JUMPDEST POP PUSH1 0x84 SWAP2 MLOAD SWAP1 PUSH3 0x461BCD PUSH1 0xE5 SHL DUP3 MSTORE PUSH1 0x4 DUP3 ADD MSTORE PUSH1 0x28 PUSH1 0x24 DUP3 ADD MSTORE PUSH32 0x5265717565737420697320616C726561647920696E20756E7375636365737366 PUSH1 0x44 DUP3 ADD MSTORE PUSH8 0x756C207374617465 PUSH1 0xC0 SHL PUSH1 0x64 DUP3 ADD MSTORE REVERT JUMPDEST POP PUSH1 0xFF PUSH1 0x14 DUP3 ADD SLOAD AND PUSH1 0x9 DUP2 LT ISZERO PUSH2 0x624D JUMPI PUSH1 0x7 EQ ISZERO PUSH2 0x60CF JUMP JUMPDEST PUSH4 0x4E487B71 PUSH1 0xE0 SHL DUP6 MSTORE PUSH1 0x21 PUSH1 0x4 MSTORE PUSH1 0x24 DUP6 REVERT INVALID LOG2 PUSH5 0x6970667358 0x22 SLT KECCAK256 0x2A PUSH6 0x88909853597 MSTORE 0xAD SAR BLOCKHASH 0x21 PUSH25 0x70F2423EF90F424819DBD03C09BDFDBF427564736F6C634300 ADDMOD EQ STOP CALLER PUSH1 0x80 CALLVALUE PUSH3 0x397 JUMPI PUSH1 0x40 PUSH1 0x1 PUSH1 0x1 PUSH1 0x40 SHL SUB DUP3 DUP3 ADD DUP2 DUP2 GT DUP5 DUP3 LT OR PUSH3 0x381 JUMPI DUP3 MSTORE PUSH1 0x8 DUP4 MSTORE PUSH1 0x20 SWAP3 PUSH8 0x10D3D35417D39195 PUSH1 0xC2 SHL DUP5 DUP3 ADD MSTORE DUP3 MLOAD SWAP2 DUP4 DUP4 ADD DUP4 DUP2 LT DUP3 DUP3 GT OR PUSH3 0x381 JUMPI DUP5 MSTORE PUSH1 0x4 SWAP3 DUP4 DUP2 MSTORE PUSH4 0x10D39195 PUSH1 0xE2 SHL DUP7 DUP3 ADD MSTORE DUP3 MLOAD SWAP1 DUP3 DUP3 GT PUSH3 0x36C JUMPI PUSH1 0x0 SWAP7 DUP8 SLOAD SWAP3 PUSH1 0x1 SWAP6 DUP7 DUP6 DUP2 SHR SWAP6 AND DUP1 ISZERO PUSH3 0x361 JUMPI JUMPDEST DUP4 DUP7 LT EQ PUSH3 0x34E JUMPI DUP2 SWAP1 PUSH1 0x1F SWAP6 DUP7 DUP2 GT PUSH3 0x2FB JUMPI JUMPDEST POP DUP4 SWAP1 DUP7 DUP4 GT PUSH1 0x1 EQ PUSH3 0x297 JUMPI DUP12 SWAP3 PUSH3 0x28B JUMPI JUMPDEST POP POP PUSH1 0x0 NOT PUSH1 0x3 DUP4 SWAP1 SHL SHR NOT AND SWAP1 DUP7 SHL OR DUP9 SSTORE JUMPDEST DUP2 MLOAD SWAP4 DUP5 GT PUSH3 0x278 JUMPI DUP5 SLOAD DUP6 DUP2 DUP2 SHR SWAP2 AND DUP1 ISZERO PUSH3 0x26D JUMPI JUMPDEST DUP3 DUP3 LT EQ PUSH3 0x25A JUMPI SWAP1 DUP2 DUP5 DUP7 SWAP6 SWAP5 SWAP4 GT PUSH3 0x203 JUMPI JUMPDEST POP DUP1 SWAP3 DUP5 GT PUSH1 0x1 EQ PUSH3 0x19B JUMPI POP DUP8 SWAP3 PUSH3 0x18F JUMPI JUMPDEST POP POP PUSH1 0x0 NOT PUSH1 0x3 DUP4 SWAP1 SHL SHR NOT AND SWAP1 DUP3 SHL OR SWAP1 SSTORE JUMPDEST CALLER ISZERO PUSH3 0x17A JUMPI POP PUSH1 0x6 DUP1 SLOAD CALLER PUSH1 0x1 PUSH1 0x1 PUSH1 0xA0 SHL SUB NOT DUP3 AND DUP2 OR SWAP1 SWAP3 SSTORE SWAP2 MLOAD SWAP3 SWAP1 SWAP2 PUSH1 0x1 PUSH1 0x1 PUSH1 0xA0 SHL SUB AND SWAP1 PUSH32 0x8BE0079C531659141344CD1FD0A4F28419497F9722A3DAAFE3B4186F6B6457E0 SWAP1 DUP1 LOG3 PUSH2 0xF2B SWAP1 DUP2 PUSH3 0x39D DUP3 CODECOPY RETURN JUMPDEST DUP3 PUSH1 0x24 SWAP3 MLOAD SWAP2 PUSH4 0x1E4FBDF7 PUSH1 0xE0 SHL DUP4 MSTORE DUP3 ADD MSTORE REVERT JUMPDEST ADD MLOAD SWAP1 POP CODESIZE DUP1 PUSH3 0x109 JUMP JUMPDEST SWAP2 SWAP1 DUP6 SWAP5 POP PUSH1 0x1F NOT DUP5 AND DUP6 DUP11 MSTORE DUP4 DUP11 KECCAK256 SWAP4 DUP11 SWAP1 JUMPDEST DUP3 DUP3 LT PUSH3 0x1E9 JUMPI POP POP DUP5 GT PUSH3 0x1CF JUMPI JUMPDEST POP POP POP DUP2 SHL ADD SWAP1 SSTORE PUSH3 0x11D JUMP JUMPDEST ADD MLOAD PUSH1 0x0 NOT PUSH1 0xF8 DUP5 PUSH1 0x3 SHL AND SHR NOT AND SWAP1 SSTORE CODESIZE DUP1 DUP1 PUSH3 0x1C1 JUMP JUMPDEST DUP5 DUP5 ADD MLOAD DUP7 SSTORE DUP9 SWAP8 SWAP1 SWAP6 ADD SWAP5 SWAP4 DUP5 ADD SWAP4 SWAP1 DUP2 ADD SWAP1 PUSH3 0x1AF JUMP JUMPDEST SWAP1 SWAP2 SWAP3 SWAP4 POP DUP6 DUP10 MSTORE DUP2 DUP10 KECCAK256 DUP5 DUP1 DUP8 ADD PUSH1 0x5 SHR DUP3 ADD SWAP3 DUP5 DUP9 LT PUSH3 0x250 JUMPI JUMPDEST SWAP2 DUP8 SWAP7 DUP10 SWAP3 SWAP7 SWAP6 SWAP5 SWAP4 ADD PUSH1 0x5 SHR ADD SWAP2 JUMPDEST DUP3 DUP2 LT PUSH3 0x241 JUMPI POP POP PUSH3 0xF3 JUMP JUMPDEST DUP12 DUP2 SSTORE DUP8 SWAP7 POP DUP9 SWAP2 ADD PUSH3 0x231 JUMP JUMPDEST SWAP3 POP DUP2 SWAP3 PUSH3 0x221 JUMP JUMPDEST PUSH4 0x4E487B71 PUSH1 0xE0 SHL DUP10 MSTORE PUSH1 0x22 DUP8 MSTORE PUSH1 0x24 DUP10 REVERT JUMPDEST SWAP1 PUSH1 0x7F AND SWAP1 PUSH3 0xDC JUMP JUMPDEST PUSH4 0x4E487B71 PUSH1 0xE0 SHL DUP9 MSTORE PUSH1 0x41 DUP7 MSTORE PUSH1 0x24 DUP9 REVERT JUMPDEST ADD MLOAD SWAP1 POP CODESIZE DUP1 PUSH3 0xAE JUMP JUMPDEST DUP12 DUP1 MSTORE DUP5 DUP13 KECCAK256 DUP10 SWAP5 POP SWAP2 SWAP1 PUSH1 0x1F NOT DUP5 AND DUP14 JUMPDEST DUP8 DUP3 DUP3 LT PUSH3 0x2E4 JUMPI POP POP DUP5 GT PUSH3 0x2CA JUMPI JUMPDEST POP POP POP DUP2 SHL ADD DUP9 SSTORE PUSH3 0xC2 JUMP JUMPDEST ADD MLOAD PUSH1 0x0 NOT PUSH1 0xF8 DUP5 PUSH1 0x3 SHL AND SHR NOT AND SWAP1 SSTORE CODESIZE DUP1 DUP1 PUSH3 0x2BC JUMP JUMPDEST DUP4 DUP6 ADD MLOAD DUP7 SSTORE DUP13 SWAP8 SWAP1 SWAP6 ADD SWAP5 SWAP4 DUP5 ADD SWAP4 ADD PUSH3 0x2A9 JUMP JUMPDEST SWAP1 SWAP2 POP DUP11 DUP1 MSTORE DUP4 DUP12 KECCAK256 DUP7 DUP1 DUP6 ADD PUSH1 0x5 SHR DUP3 ADD SWAP3 DUP7 DUP7 LT PUSH3 0x344 JUMPI JUMPDEST SWAP2 DUP11 SWAP2 DUP7 SWAP6 SWAP5 SWAP4 ADD PUSH1 0x5 SHR ADD SWAP2 JUMPDEST DUP3 DUP2 LT PUSH3 0x335 JUMPI POP POP PUSH3 0x98 JUMP JUMPDEST DUP14 DUP2 SSTORE DUP6 SWAP5 POP DUP11 SWAP2 ADD PUSH3 0x325 JUMP JUMPDEST SWAP3 POP DUP2 SWAP3 PUSH3 0x317 JUMP JUMPDEST PUSH4 0x4E487B71 PUSH1 0xE0 SHL DUP11 MSTORE PUSH1 0x22 DUP9 MSTORE PUSH1 0x24 DUP11 REVERT JUMPDEST SWAP5 PUSH1 0x7F AND SWAP5 PUSH3 0x81 JUMP JUMPDEST PUSH1 0x41 DUP6 PUSH4 0x4E487B71 PUSH1 0xE0 SHL PUSH1 0x0 MSTORE MSTORE PUSH1 0x24 PUSH1 0x0 REVERT JUMPDEST PUSH4 0x4E487B71 PUSH1 0xE0 SHL PUSH1 0x0 MSTORE PUSH1 0x41 PUSH1 0x4 MSTORE PUSH1 0x24 PUSH1 0x0 REVERT JUMPDEST PUSH1 0x0 DUP1 REVERT INVALID PUSH1 0x80 PUSH1 0x40 DUP2 DUP2 MSTORE PUSH1 0x4 DUP1 CALLDATASIZE LT ISZERO PUSH2 0x15 JUMPI PUSH1 0x0 DUP1 REVERT JUMPDEST PUSH1 0x0 SWAP3 DUP4 CALLDATALOAD PUSH1 0xE0 SHR SWAP1 DUP2 PUSH4 0x1FFC9A7 EQ PUSH2 0xA29 JUMPI POP DUP1 PUSH4 0x6FDDE03 EQ PUSH2 0x95E JUMPI DUP1 PUSH4 0x81812FC EQ PUSH2 0x923 JUMPI DUP1 PUSH4 0x95EA7B3 EQ PUSH2 0x847 JUMPI DUP1 PUSH4 0x23B872DD EQ PUSH2 0x82F JUMPI DUP1 PUSH4 0x42842E0E EQ PUSH2 0x800 JUMPI DUP1 PUSH4 0x6352211E EQ PUSH2 0x7CF JUMPI DUP1 PUSH4 0x6A627842 EQ PUSH2 0x568 JUMPI DUP1 PUSH4 0x70A08231 EQ PUSH2 0x513 JUMPI DUP1 PUSH4 0x715018A6 EQ PUSH2 0x4B6 JUMPI DUP1 PUSH4 0x75794A3C EQ PUSH2 0x497 JUMPI DUP1 PUSH4 0x8DA5CB5B EQ PUSH2 0x46E JUMPI DUP1 PUSH4 0x95D89B41 EQ PUSH2 0x355 JUMPI DUP1 PUSH4 0xA22CB465 EQ PUSH2 0x2B4 JUMPI DUP1 PUSH4 0xB88D4FDE EQ PUSH2 0x220 JUMPI DUP1 PUSH4 0xC87B56DD EQ PUSH2 0x1CD JUMPI DUP1 PUSH4 0xE985E9C5 EQ PUSH2 0x17B JUMPI PUSH4 0xF2FDE38B EQ PUSH2 0xE9 JUMPI PUSH1 0x0 DUP1 REVERT JUMPDEST CALLVALUE PUSH2 0x177 JUMPI PUSH1 0x20 CALLDATASIZE PUSH1 0x3 NOT ADD SLT PUSH2 0x177 JUMPI PUSH2 0x102 PUSH2 0xAD5 JUMP JUMPDEST SWAP1 PUSH2 0x10B PUSH2 0xBAB JUMP JUMPDEST PUSH1 0x1 PUSH1 0x1 PUSH1 0xA0 SHL SUB SWAP2 DUP3 AND SWAP3 DUP4 ISZERO PUSH2 0x161 JUMPI POP POP PUSH1 0x6 SLOAD DUP3 PUSH12 0xFFFFFFFFFFFFFFFFFFFFFFFF PUSH1 0xA0 SHL DUP3 AND OR PUSH1 0x6 SSTORE AND PUSH32 0x8BE0079C531659141344CD1FD0A4F28419497F9722A3DAAFE3B4186F6B6457E0 DUP4 DUP1 LOG3 DUP1 RETURN JUMPDEST MLOAD PUSH4 0x1E4FBDF7 PUSH1 0xE0 SHL DUP2 MSTORE SWAP1 DUP2 ADD DUP5 SWAP1 MSTORE PUSH1 0x24 SWAP1 REVERT JUMPDEST DUP3 DUP1 REVERT JUMPDEST POP POP CALLVALUE PUSH2 0x1C9 JUMPI DUP1 PUSH1 0x3 NOT CALLDATASIZE ADD SLT PUSH2 0x1C9 JUMPI PUSH1 0xFF DUP2 PUSH1 0x20 SWAP4 PUSH2 0x19B PUSH2 0xAD5 JUMP JUMPDEST PUSH2 0x1A3 PUSH2 0xAF0 JUMP JUMPDEST PUSH1 0x1 PUSH1 0x1 PUSH1 0xA0 SHL SUB SWAP2 DUP3 AND DUP4 MSTORE PUSH1 0x5 DUP8 MSTORE DUP4 DUP4 KECCAK256 SWAP2 AND DUP3 MSTORE DUP6 MSTORE KECCAK256 SLOAD SWAP2 MLOAD SWAP2 AND ISZERO ISZERO DUP2 MSTORE RETURN JUMPDEST POP DUP1 REVERT JUMPDEST POP SWAP2 SWAP1 CALLVALUE PUSH2 0x1C9 JUMPI PUSH1 0x20 CALLDATASIZE PUSH1 0x3 NOT ADD SLT PUSH2 0x1C9 JUMPI PUSH2 0x1EE PUSH2 0x21C SWAP4 CALLDATALOAD PUSH2 0xD76 JUMP JUMPDEST POP DUP2 DUP2 MLOAD PUSH2 0x1FB DUP2 PUSH2 0xB3B JUMP JUMPDEST MSTORE DUP1 MLOAD SWAP2 PUSH2 0x208 DUP4 PUSH2 0xB3B JUMP JUMPDEST DUP3 MSTORE MLOAD SWAP2 DUP3 SWAP2 PUSH1 0x20 DUP4 MSTORE PUSH1 0x20 DUP4 ADD SWAP1 PUSH2 0xA95 JUMP JUMPDEST SUB SWAP1 RETURN JUMPDEST POP SWAP1 CALLVALUE PUSH2 0x177 JUMPI PUSH1 0x80 CALLDATASIZE PUSH1 0x3 NOT ADD SLT PUSH2 0x177 JUMPI PUSH2 0x23B PUSH2 0xAD5 JUMP JUMPDEST PUSH2 0x243 PUSH2 0xAF0 JUMP JUMPDEST PUSH1 0x44 CALLDATALOAD SWAP2 DUP6 PUSH1 0x64 CALLDATALOAD SWAP6 PUSH8 0xFFFFFFFFFFFFFFFF DUP8 GT PUSH2 0x1C9 JUMPI CALLDATASIZE PUSH1 0x23 DUP9 ADD SLT ISZERO PUSH2 0x1C9 JUMPI DUP7 ADD CALLDATALOAD SWAP6 PUSH2 0x27F PUSH2 0x276 DUP9 PUSH2 0xB8F JUMP JUMPDEST SWAP7 MLOAD SWAP7 DUP8 PUSH2 0xB6D JUMP JUMPDEST DUP7 DUP7 MSTORE CALLDATASIZE PUSH1 0x24 DUP9 DUP4 ADD ADD GT PUSH2 0x1C9 JUMPI DUP7 PUSH2 0x2B1 SWAP8 PUSH1 0x24 PUSH1 0x20 SWAP4 ADD DUP4 DUP10 ADD CALLDATACOPY DUP7 ADD ADD MSTORE PUSH2 0x2AC DUP4 DUP4 DUP4 PUSH2 0xBD7 JUMP JUMPDEST PUSH2 0xDB1 JUMP JUMPDEST DUP1 RETURN JUMPDEST POP SWAP1 CALLVALUE PUSH2 0x177 JUMPI DUP1 PUSH1 0x3 NOT CALLDATASIZE ADD SLT PUSH2 0x177 JUMPI PUSH2 0x2CE PUSH2 0xAD5 JUMP JUMPDEST SWAP1 PUSH1 0x24 CALLDATALOAD SWAP2 DUP3 ISZERO ISZERO DUP1 SWAP4 SUB PUSH2 0x351 JUMPI PUSH1 0x1 PUSH1 0x1 PUSH1 0xA0 SHL SUB AND SWAP3 DUP4 ISZERO PUSH2 0x33C JUMPI POP CALLER DUP5 MSTORE PUSH1 0x5 PUSH1 0x20 MSTORE DUP1 DUP5 KECCAK256 DUP4 DUP6 MSTORE PUSH1 0x20 MSTORE DUP1 DUP5 KECCAK256 PUSH1 0xFF NOT DUP2 SLOAD AND PUSH1 0xFF DUP5 AND OR SWAP1 SSTORE MLOAD SWAP1 DUP2 MSTORE PUSH32 0x17307EAB39AB6107E8899845AD3D59BD9653F200F220920489CA2B5937696C31 PUSH1 0x20 CALLER SWAP3 LOG3 DUP1 RETURN JUMPDEST DUP4 PUSH1 0x24 SWAP3 MLOAD SWAP2 PUSH4 0xB611743 PUSH1 0xE3 SHL DUP4 MSTORE DUP3 ADD MSTORE REVERT JUMPDEST DUP5 DUP1 REVERT JUMPDEST POP SWAP2 CALLVALUE PUSH2 0x46B JUMPI DUP1 PUSH1 0x3 NOT CALLDATASIZE ADD SLT PUSH2 0x46B JUMPI DUP2 MLOAD SWAP2 DUP2 PUSH1 0x1 SWAP3 DUP4 SLOAD SWAP4 DUP5 DUP2 SHR SWAP2 DUP2 DUP7 AND SWAP6 DUP7 ISZERO PUSH2 0x461 JUMPI JUMPDEST PUSH1 0x20 SWAP7 DUP8 DUP6 LT DUP2 EQ PUSH2 0x44E JUMPI DUP9 SWAP10 POP SWAP7 DUP9 SWAP7 SWAP8 DUP6 DUP3 SWAP11 MSTORE SWAP2 DUP3 PUSH1 0x0 EQ PUSH2 0x427 JUMPI POP POP PUSH1 0x1 EQ PUSH2 0x3CC JUMPI JUMPDEST POP POP POP PUSH2 0x21C SWAP3 SWAP2 PUSH2 0x3BD SWAP2 SUB DUP6 PUSH2 0xB6D JUMP JUMPDEST MLOAD SWAP3 DUP3 DUP5 SWAP4 DUP5 MSTORE DUP4 ADD SWAP1 PUSH2 0xA95 JUMP JUMPDEST SWAP2 SWAP1 DUP7 SWAP4 POP DUP1 DUP4 MSTORE PUSH32 0xB10E2D527612073B26EECDFD717E6A320CF44B4AFAC2B0732D9FCBE2B7FA0CF6 JUMPDEST DUP3 DUP5 LT PUSH2 0x40F JUMPI POP POP POP DUP3 ADD ADD DUP2 PUSH2 0x3BD PUSH2 0x21C PUSH2 0x3AA JUMP JUMPDEST DUP1 SLOAD DUP5 DUP11 ADD DUP7 ADD MSTORE DUP9 SWAP6 POP DUP8 SWAP5 SWAP1 SWAP4 ADD SWAP3 DUP2 ADD PUSH2 0x3F6 JUMP JUMPDEST PUSH1 0xFF NOT AND DUP8 DUP3 ADD MSTORE SWAP4 ISZERO ISZERO PUSH1 0x5 SHL DUP7 ADD SWAP1 SWAP4 ADD SWAP4 POP DUP5 SWAP3 POP PUSH2 0x3BD SWAP2 POP PUSH2 0x21C SWAP1 POP PUSH2 0x3AA JUMP JUMPDEST PUSH4 0x4E487B71 PUSH1 0xE0 SHL DUP4 MSTORE PUSH1 0x22 DUP11 MSTORE PUSH1 0x24 DUP4 REVERT JUMPDEST SWAP3 PUSH1 0x7F AND SWAP3 PUSH2 0x380 JUMP JUMPDEST DUP1 REVERT JUMPDEST POP POP CALLVALUE PUSH2 0x1C9 JUMPI DUP2 PUSH1 0x3 NOT CALLDATASIZE ADD SLT PUSH2 0x1C9 JUMPI PUSH1 0x6 SLOAD SWAP1 MLOAD PUSH1 0x1 PUSH1 0x1 PUSH1 0xA0 SHL SUB SWAP1 SWAP2 AND DUP2 MSTORE PUSH1 0x20 SWAP1 RETURN JUMPDEST POP POP CALLVALUE PUSH2 0x1C9 JUMPI DUP2 PUSH1 0x3 NOT CALLDATASIZE ADD SLT PUSH2 0x1C9 JUMPI PUSH1 0x20 SWAP1 PUSH1 0x7 SLOAD SWAP1 MLOAD SWAP1 DUP2 MSTORE RETURN JUMPDEST DUP4 CALLVALUE PUSH2 0x46B JUMPI DUP1 PUSH1 0x3 NOT CALLDATASIZE ADD SLT PUSH2 0x46B JUMPI PUSH2 0x4CF PUSH2 0xBAB JUMP JUMPDEST PUSH1 0x6 DUP1 SLOAD PUSH1 0x1 PUSH1 0x1 PUSH1 0xA0 SHL SUB NOT DUP2 AND SWAP1 SWAP2 SSTORE DUP2 SWAP1 PUSH1 0x1 PUSH1 0x1 PUSH1 0xA0 SHL SUB AND PUSH32 0x8BE0079C531659141344CD1FD0A4F28419497F9722A3DAAFE3B4186F6B6457E0 DUP3 DUP1 LOG3 DUP1 RETURN JUMPDEST POP SWAP2 CALLVALUE PUSH2 0x46B JUMPI PUSH1 0x20 CALLDATASIZE PUSH1 0x3 NOT ADD SLT PUSH2 0x46B JUMPI PUSH1 0x1 PUSH1 0x1 PUSH1 0xA0 SHL SUB PUSH2 0x536 PUSH2 0xAD5 JUMP JUMPDEST AND SWAP3 DUP4 ISZERO PUSH2 0x553 JUMPI POP DUP1 PUSH1 0x20 SWAP4 DUP4 SWAP3 MSTORE PUSH1 0x3 DUP5 MSTORE KECCAK256 SLOAD SWAP1 MLOAD SWAP1 DUP2 MSTORE RETURN JUMPDEST SWAP2 MLOAD PUSH4 0x22718AD9 PUSH1 0xE2 SHL DUP2 MSTORE SWAP2 DUP3 ADD MSTORE PUSH1 0x24 SWAP1 REVERT JUMPDEST POP SWAP2 SWAP1 CALLVALUE PUSH2 0x1C9 JUMPI PUSH1 0x20 SWAP3 DUP4 PUSH1 0x3 NOT CALLDATASIZE ADD SLT PUSH2 0x177 JUMPI PUSH2 0x586 PUSH2 0xAD5 JUMP JUMPDEST SWAP3 PUSH2 0x58F PUSH2 0xBAB JUMP JUMPDEST PUSH1 0x7 SLOAD SWAP4 DUP4 MLOAD PUSH2 0x59E DUP2 PUSH2 0xB3B JUMP JUMPDEST DUP3 DUP2 MSTORE PUSH1 0x1 PUSH1 0x1 PUSH1 0xA0 SHL SUB DUP3 DUP2 AND SWAP3 SWAP1 DUP4 ISZERO PUSH2 0x7B8 JUMPI DUP8 DUP6 MSTORE PUSH1 0x2 DUP10 MSTORE DUP7 DUP6 KECCAK256 SLOAD AND DUP8 DUP5 DUP3 ISZERO ISZERO SWAP3 DUP4 PUSH2 0x785 JUMPI JUMPDEST DUP2 DUP9 MSTORE PUSH1 0x3 DUP13 MSTORE DUP10 DUP9 KECCAK256 DUP1 SLOAD PUSH1 0x1 ADD SWAP1 SSTORE DUP3 DUP9 MSTORE PUSH1 0x2 DUP13 MSTORE DUP10 DUP9 KECCAK256 DUP1 SLOAD PUSH1 0x1 PUSH1 0x1 PUSH1 0xA0 SHL SUB NOT AND DUP4 OR SWAP1 SSTORE PUSH32 0xDDF252AD1BE2C89B69C2B068FC378DAA952BA7F163C4A11628F55A4DF523B3EF DUP9 DUP1 LOG4 PUSH2 0x76D JUMPI EXTCODESIZE PUSH2 0x655 JUMPI JUMPDEST POP POP PUSH1 0x7 SLOAD SWAP2 PUSH1 0x0 NOT DUP4 EQ PUSH2 0x642 JUMPI POP POP PUSH1 0x1 ADD PUSH1 0x7 SSTORE MLOAD SWAP1 DUP2 MSTORE RETURN JUMPDEST PUSH4 0x4E487B71 PUSH1 0xE0 SHL DUP3 MSTORE PUSH1 0x11 SWAP1 MSTORE PUSH1 0x24 SWAP1 REVERT JUMPDEST DUP5 SWAP4 SWAP6 SWAP2 SWAP5 MLOAD DUP8 DUP2 DUP1 PUSH2 0x68F PUSH4 0xA85BD01 PUSH1 0xE1 SHL SWAP6 DUP7 DUP4 MSTORE CALLER DUP13 DUP5 ADD MSTORE DUP9 PUSH1 0x24 DUP5 ADD MSTORE DUP8 PUSH1 0x44 DUP5 ADD MSTORE PUSH1 0x80 PUSH1 0x64 DUP5 ADD MSTORE PUSH1 0x84 DUP4 ADD SWAP1 PUSH2 0xA95 JUMP JUMPDEST SUB DUP2 DUP8 DUP11 GAS CALL DUP5 SWAP2 DUP2 PUSH2 0x72D JUMPI JUMPDEST POP PUSH2 0x6FB JUMPI POP POP POP RETURNDATASIZE PUSH1 0x0 EQ PUSH2 0x6F3 JUMPI RETURNDATASIZE PUSH2 0x6B7 DUP2 PUSH2 0xB8F JUMP JUMPDEST SWAP1 PUSH2 0x6C4 DUP5 MLOAD SWAP3 DUP4 PUSH2 0xB6D JUMP JUMPDEST DUP2 MSTORE DUP1 SWAP2 DUP7 RETURNDATASIZE SWAP3 ADD RETURNDATACOPY JUMPDEST DUP1 MLOAD SWAP5 DUP6 PUSH2 0x6ED JUMPI POP POP MLOAD PUSH4 0x32505749 PUSH1 0xE1 SHL DUP2 MSTORE SWAP2 DUP3 ADD MSTORE PUSH1 0x24 SWAP2 POP REVERT JUMPDEST DUP6 SWAP3 POP ADD REVERT JUMPDEST POP PUSH1 0x60 PUSH2 0x6CE JUMP JUMPDEST SWAP2 SWAP6 SWAP4 SWAP5 SWAP2 PUSH1 0x1 PUSH1 0x1 PUSH1 0xE0 SHL SUB NOT AND SUB PUSH2 0x717 JUMPI POP CODESIZE DUP1 PUSH2 0x625 JUMP JUMPDEST SWAP1 POP PUSH1 0x24 SWAP3 MLOAD SWAP2 PUSH4 0x32505749 PUSH1 0xE1 SHL DUP4 MSTORE DUP3 ADD MSTORE REVERT JUMPDEST SWAP1 SWAP2 POP DUP9 DUP2 DUP2 RETURNDATASIZE DUP4 GT PUSH2 0x766 JUMPI JUMPDEST PUSH2 0x745 DUP2 DUP4 PUSH2 0xB6D JUMP JUMPDEST DUP2 ADD SUB SLT PUSH2 0x351 JUMPI MLOAD PUSH1 0x1 PUSH1 0x1 PUSH1 0xE0 SHL SUB NOT DUP2 AND DUP2 SUB PUSH2 0x351 JUMPI SWAP1 CODESIZE PUSH2 0x69D JUMP JUMPDEST POP RETURNDATASIZE PUSH2 0x73B JUMP JUMPDEST POP POP SWAP3 MLOAD PUSH4 0x39E35637 PUSH1 0xE1 SHL DUP2 MSTORE SWAP2 DUP3 ADD MSTORE PUSH1 0x24 SWAP2 POP REVERT JUMPDEST PUSH1 0x0 DUP4 DUP2 MSTORE PUSH1 0x4 PUSH1 0x20 MSTORE PUSH1 0x40 SWAP1 KECCAK256 DUP1 SLOAD PUSH1 0x1 PUSH1 0x1 PUSH1 0xA0 SHL SUB NOT AND SWAP1 SSTORE DUP1 DUP9 MSTORE PUSH1 0x3 DUP13 MSTORE DUP10 DUP9 KECCAK256 DUP1 SLOAD PUSH1 0x0 NOT ADD SWAP1 SSTORE PUSH2 0x5CC JUMP JUMPDEST DUP7 MLOAD PUSH4 0x32505749 PUSH1 0xE1 SHL DUP2 MSTORE DUP1 DUP8 ADD DUP7 SWAP1 MSTORE PUSH1 0x24 SWAP1 REVERT JUMPDEST POP SWAP2 CALLVALUE PUSH2 0x46B JUMPI PUSH1 0x20 CALLDATASIZE PUSH1 0x3 NOT ADD SLT PUSH2 0x46B JUMPI POP PUSH2 0x7EF PUSH1 0x20 SWAP3 CALLDATALOAD PUSH2 0xD76 JUMP JUMPDEST SWAP1 MLOAD PUSH1 0x1 PUSH1 0x1 PUSH1 0xA0 SHL SUB SWAP1 SWAP2 AND DUP2 MSTORE RETURN JUMPDEST POP POP CALLVALUE PUSH2 0x1C9 JUMPI PUSH2 0x2B1 SWAP1 PUSH2 0x814 CALLDATASIZE PUSH2 0xB06 JUMP JUMPDEST SWAP2 SWAP3 MLOAD SWAP3 PUSH2 0x821 DUP5 PUSH2 0xB3B JUMP JUMPDEST DUP6 DUP5 MSTORE PUSH2 0x2AC DUP4 DUP4 DUP4 PUSH2 0xBD7 JUMP JUMPDEST DUP4 CALLVALUE PUSH2 0x46B JUMPI PUSH2 0x2B1 PUSH2 0x841 CALLDATASIZE PUSH2 0xB06 JUMP JUMPDEST SWAP2 PUSH2 0xBD7 JUMP JUMPDEST POP SWAP1 CALLVALUE PUSH2 0x177 JUMPI DUP1 PUSH1 0x3 NOT CALLDATASIZE ADD SLT PUSH2 0x177 JUMPI PUSH2 0x861 PUSH2 0xAD5 JUMP JUMPDEST SWAP2 PUSH1 0x24 CALLDATALOAD PUSH2 0x86E DUP2 PUSH2 0xD76 JUMP JUMPDEST CALLER ISZERO ISZERO DUP1 PUSH2 0x910 JUMPI JUMPDEST DUP1 PUSH2 0x8E7 JUMPI JUMPDEST PUSH2 0x8D1 JUMPI PUSH1 0x1 PUSH1 0x1 PUSH1 0xA0 SHL SUB SWAP5 DUP6 AND SWAP5 DUP3 SWAP2 DUP7 SWAP2 AND PUSH32 0x8C5BE1E5EBEC7D5BD14F71427D1E84F3DD0314C0F7B2291E5B200AC8C7C3B925 DUP9 DUP1 LOG4 DUP5 MSTORE PUSH1 0x20 MSTORE DUP3 KECCAK256 DUP1 SLOAD PUSH1 0x1 PUSH1 0x1 PUSH1 0xA0 SHL SUB NOT AND SWAP1 SWAP2 OR SWAP1 SSTORE DUP1 RETURN JUMPDEST DUP4 MLOAD PUSH4 0xA9FBF51F PUSH1 0xE0 SHL DUP2 MSTORE CALLER DUP2 DUP6 ADD MSTORE PUSH1 0x24 SWAP1 REVERT JUMPDEST POP PUSH1 0x1 PUSH1 0x1 PUSH1 0xA0 SHL SUB DUP2 AND DUP7 MSTORE PUSH1 0x5 PUSH1 0x20 SWAP1 DUP2 MSTORE DUP5 DUP8 KECCAK256 CALLER DUP9 MSTORE SWAP1 MSTORE DUP4 DUP7 KECCAK256 SLOAD PUSH1 0xFF AND ISZERO PUSH2 0x87D JUMP JUMPDEST POP PUSH1 0x1 PUSH1 0x1 PUSH1 0xA0 SHL SUB DUP2 AND CALLER EQ ISZERO PUSH2 0x877 JUMP JUMPDEST POP CALLVALUE PUSH2 0x177 JUMPI PUSH1 0x20 CALLDATASIZE PUSH1 0x3 NOT ADD SLT PUSH2 0x177 JUMPI SWAP2 DUP3 PUSH1 0x20 SWAP4 CALLDATALOAD PUSH2 0x944 DUP2 PUSH2 0xD76 JUMP JUMPDEST POP DUP3 MSTORE DUP4 MSTORE DUP2 SWAP1 KECCAK256 SLOAD SWAP1 MLOAD PUSH1 0x1 PUSH1 0x1 PUSH1 0xA0 SHL SUB SWAP1 SWAP2 AND DUP2 MSTORE RETURN JUMPDEST POP SWAP2 CALLVALUE PUSH2 0x46B JUMPI DUP1 PUSH1 0x3 NOT CALLDATASIZE ADD SLT PUSH2 0x46B JUMPI DUP2 MLOAD SWAP2 DUP2 DUP3 SLOAD SWAP3 PUSH1 0x1 DUP5 DUP2 SHR SWAP2 DUP2 DUP7 AND SWAP6 DUP7 ISZERO PUSH2 0xA1F JUMPI JUMPDEST PUSH1 0x20 SWAP7 DUP8 DUP6 LT DUP2 EQ PUSH2 0x44E JUMPI DUP9 SWAP10 POP SWAP7 DUP9 SWAP7 SWAP8 DUP6 DUP3 SWAP11 MSTORE SWAP2 DUP3 PUSH1 0x0 EQ PUSH2 0x427 JUMPI POP POP PUSH1 0x1 EQ PUSH2 0x9C4 JUMPI POP POP POP PUSH2 0x21C SWAP3 SWAP2 PUSH2 0x3BD SWAP2 SUB DUP6 PUSH2 0xB6D JUMP JUMPDEST SWAP2 SWAP1 DUP7 SWAP4 POP DUP3 DUP1 MSTORE PUSH32 0x290DECD9548B62A8D60345A988386FC84BA6BC95484008F6362F93160EF3E563 JUMPDEST DUP3 DUP5 LT PUSH2 0xA07 JUMPI POP POP POP DUP3 ADD ADD DUP2 PUSH2 0x3BD PUSH2 0x21C PUSH2 0x3AA JUMP JUMPDEST DUP1 SLOAD DUP5 DUP11 ADD DUP7 ADD MSTORE DUP9 SWAP6 POP DUP8 SWAP5 SWAP1 SWAP4 ADD SWAP3 DUP2 ADD PUSH2 0x9EE JUMP JUMPDEST SWAP3 PUSH1 0x7F AND SWAP3 PUSH2 0x988 JUMP JUMPDEST SWAP3 POP POP CALLVALUE PUSH2 0x177 JUMPI PUSH1 0x20 CALLDATASIZE PUSH1 0x3 NOT ADD SLT PUSH2 0x177 JUMPI CALLDATALOAD PUSH4 0xFFFFFFFF PUSH1 0xE0 SHL DUP2 AND DUP1 SWAP2 SUB PUSH2 0x177 JUMPI PUSH1 0x20 SWAP3 POP PUSH4 0x80AC58CD PUSH1 0xE0 SHL DUP2 EQ SWAP1 DUP2 ISZERO PUSH2 0xA84 JUMPI JUMPDEST DUP2 ISZERO PUSH2 0xA73 JUMPI JUMPDEST POP ISZERO ISZERO DUP2 MSTORE RETURN JUMPDEST PUSH4 0x1FFC9A7 PUSH1 0xE0 SHL EQ SWAP1 POP CODESIZE PUSH2 0xA6C JUMP JUMPDEST PUSH4 0x5B5E139F PUSH1 0xE0 SHL DUP2 EQ SWAP2 POP PUSH2 0xA65 JUMP JUMPDEST SWAP2 SWAP1 DUP3 MLOAD SWAP3 DUP4 DUP3 MSTORE PUSH1 0x0 JUMPDEST DUP5 DUP2 LT PUSH2 0xAC1 JUMPI POP POP DUP3 PUSH1 0x0 PUSH1 0x20 DUP1 SWAP5 SWAP6 DUP5 ADD ADD MSTORE PUSH1 0x1F DUP1 NOT SWAP2 ADD AND ADD ADD SWAP1 JUMP JUMPDEST PUSH1 0x20 DUP2 DUP4 ADD DUP2 ADD MLOAD DUP5 DUP4 ADD DUP3 ADD MSTORE ADD PUSH2 0xAA0 JUMP JUMPDEST PUSH1 0x4 CALLDATALOAD SWAP1 PUSH1 0x1 PUSH1 0x1 PUSH1 0xA0 SHL SUB DUP3 AND DUP3 SUB PUSH2 0xAEB JUMPI JUMP JUMPDEST PUSH1 0x0 DUP1 REVERT JUMPDEST PUSH1 0x24 CALLDATALOAD SWAP1 PUSH1 0x1 PUSH1 0x1 PUSH1 0xA0 SHL SUB DUP3 AND DUP3 SUB PUSH2 0xAEB JUMPI JUMP JUMPDEST PUSH1 0x60 SWAP1 PUSH1 0x3 NOT ADD SLT PUSH2 0xAEB JUMPI PUSH1 0x1 PUSH1 0x1 PUSH1 0xA0 SHL SUB SWAP1 PUSH1 0x4 CALLDATALOAD DUP3 DUP2 AND DUP2 SUB PUSH2 0xAEB JUMPI SWAP2 PUSH1 0x24 CALLDATALOAD SWAP1 DUP2 AND DUP2 SUB PUSH2 0xAEB JUMPI SWAP1 PUSH1 0x44 CALLDATALOAD SWAP1 JUMP JUMPDEST PUSH1 0x20 DUP2 ADD SWAP1 DUP2 LT PUSH8 0xFFFFFFFFFFFFFFFF DUP3 GT OR PUSH2 0xB57 JUMPI PUSH1 0x40 MSTORE JUMP JUMPDEST PUSH4 0x4E487B71 PUSH1 0xE0 SHL PUSH1 0x0 MSTORE PUSH1 0x41 PUSH1 0x4 MSTORE PUSH1 0x24 PUSH1 0x0 REVERT JUMPDEST SWAP1 PUSH1 0x1F DUP1 NOT SWAP2 ADD AND DUP2 ADD SWAP1 DUP2 LT PUSH8 0xFFFFFFFFFFFFFFFF DUP3 GT OR PUSH2 0xB57 JUMPI PUSH1 0x40 MSTORE JUMP JUMPDEST PUSH8 0xFFFFFFFFFFFFFFFF DUP2 GT PUSH2 0xB57 JUMPI PUSH1 0x1F ADD PUSH1 0x1F NOT AND PUSH1 0x20 ADD SWAP1 JUMP JUMPDEST PUSH1 0x6 SLOAD PUSH1 0x1 PUSH1 0x1 PUSH1 0xA0 SHL SUB AND CALLER SUB PUSH2 0xBBF JUMPI JUMP JUMPDEST PUSH1 0x40 MLOAD PUSH4 0x118CDAA7 PUSH1 0xE0 SHL DUP2 MSTORE CALLER PUSH1 0x4 DUP3 ADD MSTORE PUSH1 0x24 SWAP1 REVERT JUMPDEST PUSH1 0x1 PUSH1 0x1 PUSH1 0xA0 SHL SUB SWAP2 DUP3 AND SWAP3 SWAP1 SWAP2 DUP4 ISZERO PUSH2 0xD5D JUMPI PUSH1 0x0 SWAP3 DUP3 DUP5 MSTORE DUP3 PUSH1 0x20 SWAP6 PUSH1 0x2 DUP8 MSTORE PUSH1 0x40 SWAP7 DUP5 DUP9 DUP9 KECCAK256 SLOAD AND SWAP7 DUP8 SWAP2 CALLER ISZERO ISZERO DUP1 PUSH2 0xCC7 JUMPI JUMPDEST POP SWAP1 PUSH1 0x2 PUSH32 0xDDF252AD1BE2C89B69C2B068FC378DAA952BA7F163C4A11628F55A4DF523B3EF SWAP3 DUP5 PUSH2 0xC94 JUMPI JUMPDEST DUP6 DUP4 MSTORE PUSH1 0x3 DUP2 MSTORE DUP12 DUP4 KECCAK256 DUP1 SLOAD PUSH1 0x1 ADD SWAP1 SSTORE DUP7 DUP4 MSTORE MSTORE DUP10 DUP2 KECCAK256 DUP1 SLOAD PUSH1 0x1 PUSH1 0x1 PUSH1 0xA0 SHL SUB NOT AND DUP6 OR SWAP1 SSTORE DUP1 LOG4 AND SWAP3 DUP4 DUP4 SUB PUSH2 0xC73 JUMPI POP POP POP POP JUMP JUMPDEST PUSH1 0x64 SWAP5 POP MLOAD SWAP3 PUSH4 0x64283D7B PUSH1 0xE0 SHL DUP5 MSTORE PUSH1 0x4 DUP5 ADD MSTORE PUSH1 0x24 DUP4 ADD MSTORE PUSH1 0x44 DUP3 ADD MSTORE REVERT JUMPDEST PUSH1 0x0 DUP8 DUP2 MSTORE PUSH1 0x4 PUSH1 0x20 MSTORE PUSH1 0x40 SWAP1 KECCAK256 DUP1 SLOAD PUSH1 0x1 PUSH1 0x1 PUSH1 0xA0 SHL SUB NOT AND SWAP1 SSTORE DUP5 DUP4 MSTORE PUSH1 0x3 DUP2 MSTORE DUP12 DUP4 KECCAK256 DUP1 SLOAD PUSH1 0x0 NOT ADD SWAP1 SSTORE PUSH2 0xC3A JUMP JUMPDEST SWAP2 SWAP4 SWAP5 POP SWAP2 POP DUP1 PUSH2 0xD1C JUMPI JUMPDEST ISZERO PUSH2 0xCE3 JUMPI DUP6 SWAP3 SWAP2 DUP8 SWAP2 CODESIZE PUSH2 0xC0E JUMP JUMPDEST DUP8 DUP7 DUP9 PUSH2 0xD00 JUMPI PUSH1 0x24 SWAP2 MLOAD SWAP1 PUSH4 0x7E273289 PUSH1 0xE0 SHL DUP3 MSTORE PUSH1 0x4 DUP3 ADD MSTORE REVERT JUMPDEST PUSH1 0x44 SWAP2 MLOAD SWAP1 PUSH4 0x177E802F PUSH1 0xE0 SHL DUP3 MSTORE CALLER PUSH1 0x4 DUP4 ADD MSTORE PUSH1 0x24 DUP3 ADD MSTORE REVERT JUMPDEST POP CALLER DUP8 EQ DUP1 ISZERO PUSH2 0xD41 JUMPI JUMPDEST DUP1 PUSH2 0xCD3 JUMPI POP DUP6 DUP3 MSTORE PUSH1 0x4 DUP2 MSTORE CALLER DUP6 DUP10 DUP5 KECCAK256 SLOAD AND EQ PUSH2 0xCD3 JUMP JUMPDEST POP DUP7 DUP3 MSTORE PUSH1 0x5 DUP2 MSTORE DUP8 DUP3 KECCAK256 CALLER DUP4 MSTORE DUP2 MSTORE PUSH1 0xFF DUP9 DUP4 KECCAK256 SLOAD AND PUSH2 0xD27 JUMP JUMPDEST PUSH1 0x40 MLOAD PUSH4 0x32505749 PUSH1 0xE1 SHL DUP2 MSTORE PUSH1 0x0 PUSH1 0x4 DUP3 ADD MSTORE PUSH1 0x24 SWAP1 REVERT JUMPDEST PUSH1 0x0 DUP2 DUP2 MSTORE PUSH1 0x2 PUSH1 0x20 MSTORE PUSH1 0x40 SWAP1 KECCAK256 SLOAD PUSH1 0x1 PUSH1 0x1 PUSH1 0xA0 SHL SUB AND SWAP1 DUP2 ISZERO PUSH2 0xD99 JUMPI POP SWAP1 JUMP JUMPDEST PUSH1 0x24 SWAP1 PUSH1 0x40 MLOAD SWAP1 PUSH4 0x7E273289 PUSH1 0xE0 SHL DUP3 MSTORE PUSH1 0x4 DUP3 ADD MSTORE REVERT JUMPDEST DUP2 EXTCODESIZE PUSH2 0xDBE JUMPI JUMPDEST POP POP POP POP JUMP JUMPDEST PUSH1 0x40 MLOAD PUSH4 0xA85BD01 PUSH1 0xE1 SHL DUP1 DUP3 MSTORE CALLER PUSH1 0x4 DUP4 ADD MSTORE PUSH1 0x1 PUSH1 0x1 PUSH1 0xA0 SHL SUB SWAP3 DUP4 AND PUSH1 0x24 DUP4 ADD MSTORE PUSH1 0x44 DUP3 ADD SWAP5 SWAP1 SWAP5 MSTORE PUSH1 0x80 PUSH1 0x64 DUP3 ADD MSTORE PUSH1 0x20 SWAP6 SWAP3 SWAP1 SWAP2 AND SWAP4 SWAP1 SWAP3 SWAP1 DUP4 SWAP1 PUSH2 0xE0C SWAP1 PUSH1 0x84 DUP4 ADD SWAP1 PUSH2 0xA95 JUMP JUMPDEST SUB SWAP3 DUP6 DUP2 PUSH1 0x0 SWAP6 DUP2 DUP8 DUP10 GAS CALL DUP5 SWAP2 DUP2 PUSH2 0xEB5 JUMPI JUMPDEST POP PUSH2 0xE80 JUMPI POP POP POP RETURNDATASIZE PUSH1 0x0 EQ PUSH2 0xE78 JUMPI RETURNDATASIZE PUSH2 0xE3A DUP2 PUSH2 0xB8F JUMP JUMPDEST SWAP1 PUSH2 0xE48 PUSH1 0x40 MLOAD SWAP3 DUP4 PUSH2 0xB6D JUMP JUMPDEST DUP2 MSTORE DUP1 SWAP2 DUP5 RETURNDATASIZE SWAP3 ADD RETURNDATACOPY JUMPDEST DUP1 MLOAD SWAP3 DUP4 PUSH2 0xE73 JUMPI PUSH1 0x40 MLOAD PUSH4 0x32505749 PUSH1 0xE1 SHL DUP2 MSTORE PUSH1 0x4 DUP2 ADD DUP5 SWAP1 MSTORE PUSH1 0x24 SWAP1 REVERT JUMPDEST ADD SWAP1 POP REVERT JUMPDEST POP PUSH1 0x60 PUSH2 0xE52 JUMP JUMPDEST SWAP2 SWAP5 POP SWAP2 POP PUSH4 0xFFFFFFFF PUSH1 0xE0 SHL AND SUB PUSH2 0xE9D JUMPI POP CODESIZE DUP1 DUP1 DUP1 PUSH2 0xDB8 JUMP JUMPDEST PUSH1 0x24 SWAP1 PUSH1 0x40 MLOAD SWAP1 PUSH4 0x32505749 PUSH1 0xE1 SHL DUP3 MSTORE PUSH1 0x4 DUP3 ADD MSTORE REVERT JUMPDEST SWAP1 SWAP2 POP DUP7 DUP2 DUP2 RETURNDATASIZE DUP4 GT PUSH2 0xEEE JUMPI JUMPDEST PUSH2 0xECD DUP2 DUP4 PUSH2 0xB6D JUMP JUMPDEST DUP2 ADD SUB SLT PUSH2 0x351 JUMPI MLOAD PUSH1 0x1 PUSH1 0x1 PUSH1 0xE0 SHL SUB NOT DUP2 AND DUP2 SUB PUSH2 0x351 JUMPI SWAP1 CODESIZE PUSH2 0xE20 JUMP JUMPDEST POP RETURNDATASIZE PUSH2 0xEC3 JUMP INVALID LOG2 PUSH5 0x6970667358 0x22 SLT KECCAK256 CALL DUP12 POP 0xD 0xEF GT CALLER CALL PUSH1 0x16 DUP6 DUP11 CREATE PUSH30 0xE42E416C6C9D579CABF3327AF7B07C2A0E8F64736F6C6343000814003360 DUP1 DUP1 PUSH1 0x40 MSTORE CALLVALUE PUSH1 0x14 JUMPI PUSH1 0x8B SWAP1 DUP2 PUSH2 0x1A DUP3 CODECOPY RETURN JUMPDEST PUSH1 0x0 DUP1 REVERT INVALID PUSH1 0x80 DUP1 PUSH1 0x40 MSTORE PUSH1 0x4 CALLDATASIZE LT ISZERO PUSH1 0x12 JUMPI PUSH1 0x0 DUP1 REVERT JUMPDEST PUSH1 0x0 SWAP1 DUP2 CALLDATALOAD PUSH1 0xE0 SHR PUSH4 0x765A4A7A EQ PUSH1 0x28 JUMPI PUSH1 0x0 DUP1 REVERT JUMPDEST CALLVALUE PUSH1 0x51 JUMPI PUSH1 0x20 CALLDATASIZE PUSH1 0x3 NOT ADD SLT PUSH1 0x51 JUMPI PUSH1 0x4 CALLDATALOAD PUSH1 0x1 PUSH1 0x1 PUSH1 0xA0 SHL SUB DUP2 AND SUB PUSH1 0x51 JUMPI DUP1 PUSH1 0x1 PUSH1 0x20 SWAP3 MSTORE RETURN JUMPDEST POP DUP1 REVERT INVALID LOG2 PUSH5 0x6970667358 0x22 SLT KECCAK256 PUSH13 0x29917100FA9085E84D68BD07D6 0xBB 0xB9 DELEGATECALL 0x4A PUSH20 0x1663ABB49BB655D04F2AD713D564736F6C634300 ADDMOD EQ STOP CALLER "},"methodIdentifiers":{"NFTRequestID(uint256)":"28dde62e","applyForVerificationForRequest(uint256)":"6d8f9a0e","calculateMajorityAndReward(uint256,uint256)":"847ada57","cancelRequest(uint256)":"3015394c","chooseVerifiersForRequestTrigger(uint256)":"951c5ce2","compNFT()":"2d37463d","compToken()":"6605dfa7","completeRequest(uint256,string[])":"0625f161","createRequest(uint256,uint256,uint256,uint256,string[],string,uint256,uint256,uint256,uint256,uint256,uint256,bytes32,uint256)":"e007657e","createRequestWithAllowedVerifiers(uint256,uint256,uint256,uint256,string[],string,uint256,uint256,uint256,uint256,uint256,uint256,bytes32,uint256,function)":"ba0ff7c3","getRequestDetails(uint256)":"f34d4c63","getRoundDetails(uint256,uint256)":"ddf3532c","getVerificationDetails(uint256,uint256,address)":"e819ff28","getVerifiersAppliedForRound(uint256,uint256)":"175f4c0c","getVerifiersChosenForRound(uint256,uint256)":"975026af","getVerifiersTriggeredForRound(uint256,uint256)":"0a39bf2c","getVoteCountForHashForRound(uint256,uint256,bytes32)":"e7b6c4ec","handlerFunctions()":"958a1a4b","providerFailedRequestCount(address)":"a2bc069f","providerFailure(uint256)":"3295845c","providerNFTs(uint256)":"d42c6712","providerPickedUpRequestCount(address)":"033d926d","providerPrivateKeys(uint256,uint256)":"13f08bbf","providerSuccessCall(uint256)":"b10ceb59","providerSuccessfulRequestCount(address)":"e63d60cb","requestCount()":"5badbe4c","requests(uint256)":"81d12c58","returnStake(uint256,uint256)":"38488abc","returnStakeDueToTimeout(uint256,uint256)":"e2e7cbe6","revealCommitment(uint256,bool,bytes32,bytes32)":"bfdb3451","revealProviderKeyAndHash(uint256,uint256,uint256,bytes32)":"253bd3e9","roundDetails(uint256,uint256)":"8ea49eca","selectRequest(uint256)":"e03ad0d1","submitCommitment(uint256,bytes32)":"e6a3d9dc","verificationDeadlinePassedForVeryfying(uint256,uint256)":"4beda221"}}}}}