{"contracts/ComputationMarket.sol":{"CompNFT":{"abi":[{"inputs":[],"stateMutability":"nonpayable","type":"constructor"},{"inputs":[{"internalType":"address","name":"sender","type":"address"},{"internalType":"uint256","name":"tokenId","type":"uint256"},{"internalType":"address","name":"owner","type":"address"}],"name":"ERC721IncorrectOwner","type":"error"},{"inputs":[{"internalType":"address","name":"operator","type":"address"},{"internalType":"uint256","name":"tokenId","type":"uint256"}],"name":"ERC721InsufficientApproval","type":"error"},{"inputs":[{"internalType":"address","name":"approver","type":"address"}],"name":"ERC721InvalidApprover","type":"error"},{"inputs":[{"internalType":"address","name":"operator","type":"address"}],"name":"ERC721InvalidOperator","type":"error"},{"inputs":[{"internalType":"address","name":"owner","type":"address"}],"name":"ERC721InvalidOwner","type":"error"},{"inputs":[{"internalType":"address","name":"receiver","type":"address"}],"name":"ERC721InvalidReceiver","type":"error"},{"inputs":[{"internalType":"address","name":"sender","type":"address"}],"name":"ERC721InvalidSender","type":"error"},{"inputs":[{"internalType":"uint256","name":"tokenId","type":"uint256"}],"name":"ERC721NonexistentToken","type":"error"},{"inputs":[{"internalType":"address","name":"owner","type":"address"}],"name":"OwnableInvalidOwner","type":"error"},{"inputs":[{"internalType":"address","name":"account","type":"address"}],"name":"OwnableUnauthorizedAccount","type":"error"},{"anonymous":false,"inputs":[{"indexed":true,"internalType":"address","name":"owner","type":"address"},{"indexed":true,"internalType":"address","name":"approved","type":"address"},{"indexed":true,"internalType":"uint256","name":"tokenId","type":"uint256"}],"name":"Approval","type":"event"},{"anonymous":false,"inputs":[{"indexed":true,"internalType":"address","name":"owner","type":"address"},{"indexed":true,"internalType":"address","name":"operator","type":"address"},{"indexed":false,"internalType":"bool","name":"approved","type":"bool"}],"name":"ApprovalForAll","type":"event"},{"anonymous":false,"inputs":[{"indexed":true,"internalType":"address","name":"previousOwner","type":"address"},{"indexed":true,"internalType":"address","name":"newOwner","type":"address"}],"name":"OwnershipTransferred","type":"event"},{"anonymous":false,"inputs":[{"indexed":true,"internalType":"address","name":"from","type":"address"},{"indexed":true,"internalType":"address","name":"to","type":"address"},{"indexed":true,"internalType":"uint256","name":"tokenId","type":"uint256"}],"name":"Transfer","type":"event"},{"inputs":[{"internalType":"address","name":"to","type":"address"},{"internalType":"uint256","name":"tokenId","type":"uint256"}],"name":"approve","outputs":[],"stateMutability":"nonpayable","type":"function"},{"inputs":[{"internalType":"address","name":"owner","type":"address"}],"name":"balanceOf","outputs":[{"internalType":"uint256","name":"","type":"uint256"}],"stateMutability":"view","type":"function"},{"inputs":[{"internalType":"uint256","name":"tokenId","type":"uint256"}],"name":"getApproved","outputs":[{"internalType":"address","name":"","type":"address"}],"stateMutability":"view","type":"function"},{"inputs":[{"internalType":"address","name":"owner","type":"address"},{"internalType":"address","name":"operator","type":"address"}],"name":"isApprovedForAll","outputs":[{"internalType":"bool","name":"","type":"bool"}],"stateMutability":"view","type":"function"},{"inputs":[{"internalType":"address","name":"to","type":"address"}],"name":"mint","outputs":[{"internalType":"uint256","name":"","type":"uint256"}],"stateMutability":"nonpayable","type":"function"},{"inputs":[],"name":"name","outputs":[{"internalType":"string","name":"","type":"string"}],"stateMutability":"view","type":"function"},{"inputs":[],"name":"nextTokenId","outputs":[{"internalType":"uint256","name":"","type":"uint256"}],"stateMutability":"view","type":"function"},{"inputs":[],"name":"owner","outputs":[{"internalType":"address","name":"","type":"address"}],"stateMutability":"view","type":"function"},{"inputs":[{"internalType":"uint256","name":"tokenId","type":"uint256"}],"name":"ownerOf","outputs":[{"internalType":"address","name":"","type":"address"}],"stateMutability":"view","type":"function"},{"inputs":[],"name":"renounceOwnership","outputs":[],"stateMutability":"nonpayable","type":"function"},{"inputs":[{"internalType":"address","name":"from","type":"address"},{"internalType":"address","name":"to","type":"address"},{"internalType":"uint256","name":"tokenId","type":"uint256"}],"name":"safeTransferFrom","outputs":[],"stateMutability":"nonpayable","type":"function"},{"inputs":[{"internalType":"address","name":"from","type":"address"},{"internalType":"address","name":"to","type":"address"},{"internalType":"uint256","name":"tokenId","type":"uint256"},{"internalType":"bytes","name":"data","type":"bytes"}],"name":"safeTransferFrom","outputs":[],"stateMutability":"nonpayable","type":"function"},{"inputs":[{"internalType":"address","name":"operator","type":"address"},{"internalType":"bool","name":"approved","type":"bool"}],"name":"setApprovalForAll","outputs":[],"stateMutability":"nonpayable","type":"function"},{"inputs":[{"internalType":"bytes4","name":"interfaceId","type":"bytes4"}],"name":"supportsInterface","outputs":[{"internalType":"bool","name":"","type":"bool"}],"stateMutability":"view","type":"function"},{"inputs":[],"name":"symbol","outputs":[{"internalType":"string","name":"","type":"string"}],"stateMutability":"view","type":"function"},{"inputs":[{"internalType":"uint256","name":"tokenId","type":"uint256"}],"name":"tokenURI","outputs":[{"internalType":"string","name":"","type":"string"}],"stateMutability":"view","type":"function"},{"inputs":[{"internalType":"address","name":"from","type":"address"},{"internalType":"address","name":"to","type":"address"},{"internalType":"uint256","name":"tokenId","type":"uint256"}],"name":"transferFrom","outputs":[],"stateMutability":"nonpayable","type":"function"},{"inputs":[{"internalType":"address","name":"newOwner","type":"address"}],"name":"transferOwnership","outputs":[],"stateMutability":"nonpayable","type":"function"}],"evm":{"bytecode":{"linkReferences":{},"object":"608034620003975760406001600160401b038282018181118482101762000381578252600883526020926710d3d35417d3919560c21b8482015282519183830183811082821117620003815784526004928381526310d3919560e21b868201528251908282116200036c576000968754926001958685811c9516801562000361575b838610146200034e578190601f95868111620002fb575b50839086831160011462000297578b926200028b575b5050600019600383901b1c191690861b1788555b8151938411620002785784548581811c911680156200026d575b828210146200025a57908184869594931162000203575b50809284116001146200019b575087926200018f575b5050600019600383901b1c191690821b1790555b33156200017a575060068054336001600160a01b03198216811790925591519290916001600160a01b0316907f8be0079c531659141344cd1fd0a4f28419497f9722a3daafe3b4186f6b6457e09080a3610f2b90816200039d8239f35b826024925191631e4fbdf760e01b8352820152fd5b01519050388062000109565b9190859450601f198416858a52838a20938a905b828210620001e95750508411620001cf575b505050811b0190556200011d565b015160001960f88460031b161c19169055388080620001c1565b8484015186558897909501949384019390810190620001af565b90919293508589528189208480870160051c82019284881062000250575b9187968992969594930160051c01915b82811062000241575050620000f3565b8b815587965088910162000231565b9250819262000221565b634e487b7160e01b895260228752602489fd5b90607f1690620000dc565b634e487b7160e01b885260418652602488fd5b015190503880620000ae565b8b8052848c208994509190601f1984168d5b87828210620002e45750508411620002ca575b505050811b018855620000c2565b015160001960f88460031b161c19169055388080620002bc565b8385015186558c97909501949384019301620002a9565b9091508a8052838b208680850160051c82019286861062000344575b918a91869594930160051c01915b8281106200033557505062000098565b8d81558594508a910162000325565b9250819262000317565b634e487b7160e01b8a526022885260248afd5b94607f169462000081565b604185634e487b7160e01b6000525260246000fd5b634e487b7160e01b600052604160045260246000fd5b600080fdfe6080604081815260048036101561001557600080fd5b600092833560e01c90816301ffc9a714610a295750806306fdde031461095e578063081812fc14610923578063095ea7b31461084757806323b872dd1461082f57806342842e0e146108005780636352211e146107cf5780636a6278421461056857806370a0823114610513578063715018a6146104b657806375794a3c146104975780638da5cb5b1461046e57806395d89b4114610355578063a22cb465146102b4578063b88d4fde14610220578063c87b56dd146101cd578063e985e9c51461017b5763f2fde38b146100e957600080fd5b3461017757602036600319011261017757610102610ad5565b9061010b610bab565b6001600160a01b03918216928315610161575050600654826bffffffffffffffffffffffff60a01b821617600655167f8be0079c531659141344cd1fd0a4f28419497f9722a3daafe3b4186f6b6457e08380a380f35b51631e4fbdf760e01b8152908101849052602490fd5b8280fd5b5050346101c957806003193601126101c95760ff8160209361019b610ad5565b6101a3610af0565b6001600160a01b0391821683526005875283832091168252855220549151911615158152f35b5080fd5b509190346101c95760203660031901126101c9576101ee61021c9335610d76565b508181516101fb81610b3b565b5280519161020883610b3b565b825251918291602083526020830190610a95565b0390f35b5090346101775760803660031901126101775761023b610ad5565b610243610af0565b60443591856064359567ffffffffffffffff87116101c957366023880112156101c9578601359561027f61027688610b8f565b96519687610b6d565b86865236602488830101116101c957866102b19760246020930183890137860101526102ac838383610bd7565b610db1565b80f35b5090346101775780600319360112610177576102ce610ad5565b9060243591821515809303610351576001600160a01b031692831561033c5750338452600560205280842083855260205280842060ff1981541660ff8416179055519081527f17307eab39ab6107e8899845ad3d59bd9653f200f220920489ca2b5937696c3160203392a380f35b836024925191630b61174360e31b8352820152fd5b8480fd5b50913461046b578060031936011261046b578151918160019283549384811c91818616958615610461575b602096878510811461044e578899509688969785829a5291826000146104275750506001146103cc575b50505061021c92916103bd910385610b6d565b51928284938452830190610a95565b91908693508083527fb10e2d527612073b26eecdfd717e6a320cf44b4afac2b0732d9fcbe2b7fa0cf65b82841061040f57505050820101816103bd61021c6103aa565b8054848a0186015288955087949093019281016103f6565b60ff19168782015293151560051b860190930193508492506103bd915061021c90506103aa565b634e487b7160e01b835260228a52602483fd5b92607f1692610380565b80fd5b5050346101c957816003193601126101c95760065490516001600160a01b039091168152602090f35b5050346101c957816003193601126101c9576020906007549051908152f35b833461046b578060031936011261046b576104cf610bab565b600680546001600160a01b0319811690915581906001600160a01b03167f8be0079c531659141344cd1fd0a4f28419497f9722a3daafe3b4186f6b6457e08280a380f35b50913461046b57602036600319011261046b576001600160a01b03610536610ad5565b169283156105535750806020938392526003845220549051908152f35b91516322718ad960e21b815291820152602490fd5b509190346101c9576020928360031936011261017757610586610ad5565b9261058f610bab565b60075493835161059e81610b3b565b8281526001600160a01b03828116929083156107b85787855260028952868520541687848215159283610785575b81885260038c528988208054600101905582885260028c5289882080546001600160a01b031916831790557fddf252ad1be2c89b69c2b068fc378daa952ba7f163c4a11628f55a4df523b3ef8880a461076d573b610655575b505060075491600019831461064257505060010160075551908152f35b634e487b7160e01b825260119052602490fd5b84939591945187818061068f630a85bd0160e11b95868352338c840152886024840152876044840152608060648401526084830190610a95565b0381878a5af184918161072d575b506106fb575050503d6000146106f3573d6106b781610b8f565b906106c484519283610b6d565b81528091863d92013e5b805194856106ed57505051633250574960e11b81529182015260249150fd5b85925001fd5b5060606106ce565b91959394916001600160e01b0319160361071757503880610625565b90506024925191633250574960e11b8352820152fd5b9091508881813d8311610766575b6107458183610b6d565b8101031261035157516001600160e01b03198116810361035157903861069d565b503d61073b565b505092516339e3563760e11b81529182015260249150fd5b600083815260046020526040902080546001600160a01b031916905580885260038c5289882080546000190190556105cc565b8651633250574960e11b8152808701869052602490fd5b50913461046b57602036600319011261046b57506107ef60209235610d76565b90516001600160a01b039091168152f35b5050346101c9576102b19061081436610b06565b9192519261082184610b3b565b8584526102ac838383610bd7565b833461046b576102b161084136610b06565b91610bd7565b509034610177578060031936011261017757610861610ad5565b9160243561086e81610d76565b33151580610910575b806108e7575b6108d1576001600160a01b039485169482918691167f8c5be1e5ebec7d5bd14f71427d1e84f3dd0314c0f7b2291e5b200ac8c7c3b9258880a48452602052822080546001600160a01b031916909117905580f35b835163a9fbf51f60e01b81523381850152602490fd5b506001600160a01b03811686526005602090815284872033885290528386205460ff161561087d565b506001600160a01b038116331415610877565b50346101775760203660031901126101775791826020933561094481610d76565b50825283528190205490516001600160a01b039091168152f35b50913461046b578060031936011261046b5781519181825492600184811c91818616958615610a1f575b602096878510811461044e578899509688969785829a5291826000146104275750506001146109c45750505061021c92916103bd910385610b6d565b91908693508280527f290decd9548b62a8d60345a988386fc84ba6bc95484008f6362f93160ef3e5635b828410610a0757505050820101816103bd61021c6103aa565b8054848a0186015288955087949093019281016109ee565b92607f1692610988565b92505034610177576020366003190112610177573563ffffffff60e01b811680910361017757602092506380ac58cd60e01b8114908115610a84575b8115610a73575b5015158152f35b6301ffc9a760e01b14905038610a6c565b635b5e139f60e01b81149150610a65565b919082519283825260005b848110610ac1575050826000602080949584010152601f8019910116010190565b602081830181015184830182015201610aa0565b600435906001600160a01b0382168203610aeb57565b600080fd5b602435906001600160a01b0382168203610aeb57565b6060906003190112610aeb576001600160a01b03906004358281168103610aeb57916024359081168103610aeb579060443590565b6020810190811067ffffffffffffffff821117610b5757604052565b634e487b7160e01b600052604160045260246000fd5b90601f8019910116810190811067ffffffffffffffff821117610b5757604052565b67ffffffffffffffff8111610b5757601f01601f191660200190565b6006546001600160a01b03163303610bbf57565b60405163118cdaa760e01b8152336004820152602490fd5b6001600160a01b039182169290918315610d5d57600092828452826020956002875260409684888820541696879133151580610cc7575b509060027fddf252ad1be2c89b69c2b068fc378daa952ba7f163c4a11628f55a4df523b3ef9284610c94575b858352600381528b8320805460010190558683525289812080546001600160a01b0319168517905580a41692838303610c735750505050565b6064945051926364283d7b60e01b8452600484015260248301526044820152fd5b600087815260046020526040902080546001600160a01b0319169055848352600381528b83208054600019019055610c3a565b91939450915080610d1c575b15610ce357859291879138610c0e565b878688610d00576024915190637e27328960e01b82526004820152fd5b604491519063177e802f60e01b82523360048301526024820152fd5b503387148015610d41575b80610cd35750858252600481523385898420541614610cd3565b5086825260058152878220338352815260ff8883205416610d27565b604051633250574960e11b815260006004820152602490fd5b6000818152600260205260409020546001600160a01b0316908115610d99575090565b60249060405190637e27328960e01b82526004820152fd5b813b610dbe575b50505050565b604051630a85bd0160e11b8082523360048301526001600160a01b03928316602483015260448201949094526080606482015260209592909116939092908390610e0c906084830190610a95565b039285816000958187895af1849181610eb5575b50610e80575050503d600014610e78573d610e3a81610b8f565b90610e486040519283610b6d565b81528091843d92013e5b80519283610e7357604051633250574960e11b815260048101849052602490fd5b019050fd5b506060610e52565b919450915063ffffffff60e01b1603610e9d575038808080610db8565b60249060405190633250574960e11b82526004820152fd5b9091508681813d8311610eee575b610ecd8183610b6d565b8101031261035157516001600160e01b031981168103610351579038610e20565b503d610ec356fea2646970667358221220f18b500def1133f16016858af07de42e416c6c9d579cabf3327af7b07c2a0e8f64736f6c63430008140033","opcodes":"PUSH1 0x80 CALLVALUE PUSH3 0x397 JUMPI PUSH1 0x40 PUSH1 0x1 PUSH1 0x1 PUSH1 0x40 SHL SUB DUP3 DUP3 ADD DUP2 DUP2 GT DUP5 DUP3 LT OR PUSH3 0x381 JUMPI DUP3 MSTORE PUSH1 0x8 DUP4 MSTORE PUSH1 0x20 SWAP3 PUSH8 0x10D3D35417D39195 PUSH1 0xC2 SHL DUP5 DUP3 ADD MSTORE DUP3 MLOAD SWAP2 DUP4 DUP4 ADD DUP4 DUP2 LT DUP3 DUP3 GT OR PUSH3 0x381 JUMPI DUP5 MSTORE PUSH1 0x4 SWAP3 DUP4 DUP2 MSTORE PUSH4 0x10D39195 PUSH1 0xE2 SHL DUP7 DUP3 ADD MSTORE DUP3 MLOAD SWAP1 DUP3 DUP3 GT PUSH3 0x36C JUMPI PUSH1 0x0 SWAP7 DUP8 SLOAD SWAP3 PUSH1 0x1 SWAP6 DUP7 DUP6 DUP2 SHR SWAP6 AND DUP1 ISZERO PUSH3 0x361 JUMPI JUMPDEST DUP4 DUP7 LT EQ PUSH3 0x34E JUMPI DUP2 SWAP1 PUSH1 0x1F SWAP6 DUP7 DUP2 GT PUSH3 0x2FB JUMPI JUMPDEST POP DUP4 SWAP1 DUP7 DUP4 GT PUSH1 0x1 EQ PUSH3 0x297 JUMPI DUP12 SWAP3 PUSH3 0x28B JUMPI JUMPDEST POP POP PUSH1 0x0 NOT PUSH1 0x3 DUP4 SWAP1 SHL SHR NOT AND SWAP1 DUP7 SHL OR DUP9 SSTORE JUMPDEST DUP2 MLOAD SWAP4 DUP5 GT PUSH3 0x278 JUMPI DUP5 SLOAD DUP6 DUP2 DUP2 SHR SWAP2 AND DUP1 ISZERO PUSH3 0x26D JUMPI JUMPDEST DUP3 DUP3 LT EQ PUSH3 0x25A JUMPI SWAP1 DUP2 DUP5 DUP7 SWAP6 SWAP5 SWAP4 GT PUSH3 0x203 JUMPI JUMPDEST POP DUP1 SWAP3 DUP5 GT PUSH1 0x1 EQ PUSH3 0x19B JUMPI POP DUP8 SWAP3 PUSH3 0x18F JUMPI JUMPDEST POP POP PUSH1 0x0 NOT PUSH1 0x3 DUP4 SWAP1 SHL SHR NOT AND SWAP1 DUP3 SHL OR SWAP1 SSTORE JUMPDEST CALLER ISZERO PUSH3 0x17A JUMPI POP PUSH1 0x6 DUP1 SLOAD CALLER PUSH1 0x1 PUSH1 0x1 PUSH1 0xA0 SHL SUB NOT DUP3 AND DUP2 OR SWAP1 SWAP3 SSTORE SWAP2 MLOAD SWAP3 SWAP1 SWAP2 PUSH1 0x1 PUSH1 0x1 PUSH1 0xA0 SHL SUB AND SWAP1 PUSH32 0x8BE0079C531659141344CD1FD0A4F28419497F9722A3DAAFE3B4186F6B6457E0 SWAP1 DUP1 LOG3 PUSH2 0xF2B SWAP1 DUP2 PUSH3 0x39D DUP3 CODECOPY RETURN JUMPDEST DUP3 PUSH1 0x24 SWAP3 MLOAD SWAP2 PUSH4 0x1E4FBDF7 PUSH1 0xE0 SHL DUP4 MSTORE DUP3 ADD MSTORE REVERT JUMPDEST ADD MLOAD SWAP1 POP CODESIZE DUP1 PUSH3 0x109 JUMP JUMPDEST SWAP2 SWAP1 DUP6 SWAP5 POP PUSH1 0x1F NOT DUP5 AND DUP6 DUP11 MSTORE DUP4 DUP11 KECCAK256 SWAP4 DUP11 SWAP1 JUMPDEST DUP3 DUP3 LT PUSH3 0x1E9 JUMPI POP POP DUP5 GT PUSH3 0x1CF JUMPI JUMPDEST POP POP POP DUP2 SHL ADD SWAP1 SSTORE PUSH3 0x11D JUMP JUMPDEST ADD MLOAD PUSH1 0x0 NOT PUSH1 0xF8 DUP5 PUSH1 0x3 SHL AND SHR NOT AND SWAP1 SSTORE CODESIZE DUP1 DUP1 PUSH3 0x1C1 JUMP JUMPDEST DUP5 DUP5 ADD MLOAD DUP7 SSTORE DUP9 SWAP8 SWAP1 SWAP6 ADD SWAP5 SWAP4 DUP5 ADD SWAP4 SWAP1 DUP2 ADD SWAP1 PUSH3 0x1AF JUMP JUMPDEST SWAP1 SWAP2 SWAP3 SWAP4 POP DUP6 DUP10 MSTORE DUP2 DUP10 KECCAK256 DUP5 DUP1 DUP8 ADD PUSH1 0x5 SHR DUP3 ADD SWAP3 DUP5 DUP9 LT PUSH3 0x250 JUMPI JUMPDEST SWAP2 DUP8 SWAP7 DUP10 SWAP3 SWAP7 SWAP6 SWAP5 SWAP4 ADD PUSH1 0x5 SHR ADD SWAP2 JUMPDEST DUP3 DUP2 LT PUSH3 0x241 JUMPI POP POP PUSH3 0xF3 JUMP JUMPDEST DUP12 DUP2 SSTORE DUP8 SWAP7 POP DUP9 SWAP2 ADD PUSH3 0x231 JUMP JUMPDEST SWAP3 POP DUP2 SWAP3 PUSH3 0x221 JUMP JUMPDEST PUSH4 0x4E487B71 PUSH1 0xE0 SHL DUP10 MSTORE PUSH1 0x22 DUP8 MSTORE PUSH1 0x24 DUP10 REVERT JUMPDEST SWAP1 PUSH1 0x7F AND SWAP1 PUSH3 0xDC JUMP JUMPDEST PUSH4 0x4E487B71 PUSH1 0xE0 SHL DUP9 MSTORE PUSH1 0x41 DUP7 MSTORE PUSH1 0x24 DUP9 REVERT JUMPDEST ADD MLOAD SWAP1 POP CODESIZE DUP1 PUSH3 0xAE JUMP JUMPDEST DUP12 DUP1 MSTORE DUP5 DUP13 KECCAK256 DUP10 SWAP5 POP SWAP2 SWAP1 PUSH1 0x1F NOT DUP5 AND DUP14 JUMPDEST DUP8 DUP3 DUP3 LT PUSH3 0x2E4 JUMPI POP POP DUP5 GT PUSH3 0x2CA JUMPI JUMPDEST POP POP POP DUP2 SHL ADD DUP9 SSTORE PUSH3 0xC2 JUMP JUMPDEST ADD MLOAD PUSH1 0x0 NOT PUSH1 0xF8 DUP5 PUSH1 0x3 SHL AND SHR NOT AND SWAP1 SSTORE CODESIZE DUP1 DUP1 PUSH3 0x2BC JUMP JUMPDEST DUP4 DUP6 ADD MLOAD DUP7 SSTORE DUP13 SWAP8 SWAP1 SWAP6 ADD SWAP5 SWAP4 DUP5 ADD SWAP4 ADD PUSH3 0x2A9 JUMP JUMPDEST SWAP1 SWAP2 POP DUP11 DUP1 MSTORE DUP4 DUP12 KECCAK256 DUP7 DUP1 DUP6 ADD PUSH1 0x5 SHR DUP3 ADD SWAP3 DUP7 DUP7 LT PUSH3 0x344 JUMPI JUMPDEST SWAP2 DUP11 SWAP2 DUP7 SWAP6 SWAP5 SWAP4 ADD PUSH1 0x5 SHR ADD SWAP2 JUMPDEST DUP3 DUP2 LT PUSH3 0x335 JUMPI POP POP PUSH3 0x98 JUMP JUMPDEST DUP14 DUP2 SSTORE DUP6 SWAP5 POP DUP11 SWAP2 ADD PUSH3 0x325 JUMP JUMPDEST SWAP3 POP DUP2 SWAP3 PUSH3 0x317 JUMP JUMPDEST PUSH4 0x4E487B71 PUSH1 0xE0 SHL DUP11 MSTORE PUSH1 0x22 DUP9 MSTORE PUSH1 0x24 DUP11 REVERT JUMPDEST SWAP5 PUSH1 0x7F AND SWAP5 PUSH3 0x81 JUMP JUMPDEST PUSH1 0x41 DUP6 PUSH4 0x4E487B71 PUSH1 0xE0 SHL PUSH1 0x0 MSTORE MSTORE PUSH1 0x24 PUSH1 0x0 REVERT JUMPDEST PUSH4 0x4E487B71 PUSH1 0xE0 SHL PUSH1 0x0 MSTORE PUSH1 0x41 PUSH1 0x4 MSTORE PUSH1 0x24 PUSH1 0x0 REVERT JUMPDEST PUSH1 0x0 DUP1 REVERT INVALID PUSH1 0x80 PUSH1 0x40 DUP2 DUP2 MSTORE PUSH1 0x4 DUP1 CALLDATASIZE LT ISZERO PUSH2 0x15 JUMPI PUSH1 0x0 DUP1 REVERT JUMPDEST PUSH1 0x0 SWAP3 DUP4 CALLDATALOAD PUSH1 0xE0 SHR SWAP1 DUP2 PUSH4 0x1FFC9A7 EQ PUSH2 0xA29 JUMPI POP DUP1 PUSH4 0x6FDDE03 EQ PUSH2 0x95E JUMPI DUP1 PUSH4 0x81812FC EQ PUSH2 0x923 JUMPI DUP1 PUSH4 0x95EA7B3 EQ PUSH2 0x847 JUMPI DUP1 PUSH4 0x23B872DD EQ PUSH2 0x82F JUMPI DUP1 PUSH4 0x42842E0E EQ PUSH2 0x800 JUMPI DUP1 PUSH4 0x6352211E EQ PUSH2 0x7CF JUMPI DUP1 PUSH4 0x6A627842 EQ PUSH2 0x568 JUMPI DUP1 PUSH4 0x70A08231 EQ PUSH2 0x513 JUMPI DUP1 PUSH4 0x715018A6 EQ PUSH2 0x4B6 JUMPI DUP1 PUSH4 0x75794A3C EQ PUSH2 0x497 JUMPI DUP1 PUSH4 0x8DA5CB5B EQ PUSH2 0x46E JUMPI DUP1 PUSH4 0x95D89B41 EQ PUSH2 0x355 JUMPI DUP1 PUSH4 0xA22CB465 EQ PUSH2 0x2B4 JUMPI DUP1 PUSH4 0xB88D4FDE EQ PUSH2 0x220 JUMPI DUP1 PUSH4 0xC87B56DD EQ PUSH2 0x1CD JUMPI DUP1 PUSH4 0xE985E9C5 EQ PUSH2 0x17B JUMPI PUSH4 0xF2FDE38B EQ PUSH2 0xE9 JUMPI PUSH1 0x0 DUP1 REVERT JUMPDEST CALLVALUE PUSH2 0x177 JUMPI PUSH1 0x20 CALLDATASIZE PUSH1 0x3 NOT ADD SLT PUSH2 0x177 JUMPI PUSH2 0x102 PUSH2 0xAD5 JUMP JUMPDEST SWAP1 PUSH2 0x10B PUSH2 0xBAB JUMP JUMPDEST PUSH1 0x1 PUSH1 0x1 PUSH1 0xA0 SHL SUB SWAP2 DUP3 AND SWAP3 DUP4 ISZERO PUSH2 0x161 JUMPI POP POP PUSH1 0x6 SLOAD DUP3 PUSH12 0xFFFFFFFFFFFFFFFFFFFFFFFF PUSH1 0xA0 SHL DUP3 AND OR PUSH1 0x6 SSTORE AND PUSH32 0x8BE0079C531659141344CD1FD0A4F28419497F9722A3DAAFE3B4186F6B6457E0 DUP4 DUP1 LOG3 DUP1 RETURN JUMPDEST MLOAD PUSH4 0x1E4FBDF7 PUSH1 0xE0 SHL DUP2 MSTORE SWAP1 DUP2 ADD DUP5 SWAP1 MSTORE PUSH1 0x24 SWAP1 REVERT JUMPDEST DUP3 DUP1 REVERT JUMPDEST POP POP CALLVALUE PUSH2 0x1C9 JUMPI DUP1 PUSH1 0x3 NOT CALLDATASIZE ADD SLT PUSH2 0x1C9 JUMPI PUSH1 0xFF DUP2 PUSH1 0x20 SWAP4 PUSH2 0x19B PUSH2 0xAD5 JUMP JUMPDEST PUSH2 0x1A3 PUSH2 0xAF0 JUMP JUMPDEST PUSH1 0x1 PUSH1 0x1 PUSH1 0xA0 SHL SUB SWAP2 DUP3 AND DUP4 MSTORE PUSH1 0x5 DUP8 MSTORE DUP4 DUP4 KECCAK256 SWAP2 AND DUP3 MSTORE DUP6 MSTORE KECCAK256 SLOAD SWAP2 MLOAD SWAP2 AND ISZERO ISZERO DUP2 MSTORE RETURN JUMPDEST POP DUP1 REVERT JUMPDEST POP SWAP2 SWAP1 CALLVALUE PUSH2 0x1C9 JUMPI PUSH1 0x20 CALLDATASIZE PUSH1 0x3 NOT ADD SLT PUSH2 0x1C9 JUMPI PUSH2 0x1EE PUSH2 0x21C SWAP4 CALLDATALOAD PUSH2 0xD76 JUMP JUMPDEST POP DUP2 DUP2 MLOAD PUSH2 0x1FB DUP2 PUSH2 0xB3B JUMP JUMPDEST MSTORE DUP1 MLOAD SWAP2 PUSH2 0x208 DUP4 PUSH2 0xB3B JUMP JUMPDEST DUP3 MSTORE MLOAD SWAP2 DUP3 SWAP2 PUSH1 0x20 DUP4 MSTORE PUSH1 0x20 DUP4 ADD SWAP1 PUSH2 0xA95 JUMP JUMPDEST SUB SWAP1 RETURN JUMPDEST POP SWAP1 CALLVALUE PUSH2 0x177 JUMPI PUSH1 0x80 CALLDATASIZE PUSH1 0x3 NOT ADD SLT PUSH2 0x177 JUMPI PUSH2 0x23B PUSH2 0xAD5 JUMP JUMPDEST PUSH2 0x243 PUSH2 0xAF0 JUMP JUMPDEST PUSH1 0x44 CALLDATALOAD SWAP2 DUP6 PUSH1 0x64 CALLDATALOAD SWAP6 PUSH8 0xFFFFFFFFFFFFFFFF DUP8 GT PUSH2 0x1C9 JUMPI CALLDATASIZE PUSH1 0x23 DUP9 ADD SLT ISZERO PUSH2 0x1C9 JUMPI DUP7 ADD CALLDATALOAD SWAP6 PUSH2 0x27F PUSH2 0x276 DUP9 PUSH2 0xB8F JUMP JUMPDEST SWAP7 MLOAD SWAP7 DUP8 PUSH2 0xB6D JUMP JUMPDEST DUP7 DUP7 MSTORE CALLDATASIZE PUSH1 0x24 DUP9 DUP4 ADD ADD GT PUSH2 0x1C9 JUMPI DUP7 PUSH2 0x2B1 SWAP8 PUSH1 0x24 PUSH1 0x20 SWAP4 ADD DUP4 DUP10 ADD CALLDATACOPY DUP7 ADD ADD MSTORE PUSH2 0x2AC DUP4 DUP4 DUP4 PUSH2 0xBD7 JUMP JUMPDEST PUSH2 0xDB1 JUMP JUMPDEST DUP1 RETURN JUMPDEST POP SWAP1 CALLVALUE PUSH2 0x177 JUMPI DUP1 PUSH1 0x3 NOT CALLDATASIZE ADD SLT PUSH2 0x177 JUMPI PUSH2 0x2CE PUSH2 0xAD5 JUMP JUMPDEST SWAP1 PUSH1 0x24 CALLDATALOAD SWAP2 DUP3 ISZERO ISZERO DUP1 SWAP4 SUB PUSH2 0x351 JUMPI PUSH1 0x1 PUSH1 0x1 PUSH1 0xA0 SHL SUB AND SWAP3 DUP4 ISZERO PUSH2 0x33C JUMPI POP CALLER DUP5 MSTORE PUSH1 0x5 PUSH1 0x20 MSTORE DUP1 DUP5 KECCAK256 DUP4 DUP6 MSTORE PUSH1 0x20 MSTORE DUP1 DUP5 KECCAK256 PUSH1 0xFF NOT DUP2 SLOAD AND PUSH1 0xFF DUP5 AND OR SWAP1 SSTORE MLOAD SWAP1 DUP2 MSTORE PUSH32 0x17307EAB39AB6107E8899845AD3D59BD9653F200F220920489CA2B5937696C31 PUSH1 0x20 CALLER SWAP3 LOG3 DUP1 RETURN JUMPDEST DUP4 PUSH1 0x24 SWAP3 MLOAD SWAP2 PUSH4 0xB611743 PUSH1 0xE3 SHL DUP4 MSTORE DUP3 ADD MSTORE REVERT JUMPDEST DUP5 DUP1 REVERT JUMPDEST POP SWAP2 CALLVALUE PUSH2 0x46B JUMPI DUP1 PUSH1 0x3 NOT CALLDATASIZE ADD SLT PUSH2 0x46B JUMPI DUP2 MLOAD SWAP2 DUP2 PUSH1 0x1 SWAP3 DUP4 SLOAD SWAP4 DUP5 DUP2 SHR SWAP2 DUP2 DUP7 AND SWAP6 DUP7 ISZERO PUSH2 0x461 JUMPI JUMPDEST PUSH1 0x20 SWAP7 DUP8 DUP6 LT DUP2 EQ PUSH2 0x44E JUMPI DUP9 SWAP10 POP SWAP7 DUP9 SWAP7 SWAP8 DUP6 DUP3 SWAP11 MSTORE SWAP2 DUP3 PUSH1 0x0 EQ PUSH2 0x427 JUMPI POP POP PUSH1 0x1 EQ PUSH2 0x3CC JUMPI JUMPDEST POP POP POP PUSH2 0x21C SWAP3 SWAP2 PUSH2 0x3BD SWAP2 SUB DUP6 PUSH2 0xB6D JUMP JUMPDEST MLOAD SWAP3 DUP3 DUP5 SWAP4 DUP5 MSTORE DUP4 ADD SWAP1 PUSH2 0xA95 JUMP JUMPDEST SWAP2 SWAP1 DUP7 SWAP4 POP DUP1 DUP4 MSTORE PUSH32 0xB10E2D527612073B26EECDFD717E6A320CF44B4AFAC2B0732D9FCBE2B7FA0CF6 JUMPDEST DUP3 DUP5 LT PUSH2 0x40F JUMPI POP POP POP DUP3 ADD ADD DUP2 PUSH2 0x3BD PUSH2 0x21C PUSH2 0x3AA JUMP JUMPDEST DUP1 SLOAD DUP5 DUP11 ADD DUP7 ADD MSTORE DUP9 SWAP6 POP DUP8 SWAP5 SWAP1 SWAP4 ADD SWAP3 DUP2 ADD PUSH2 0x3F6 JUMP JUMPDEST PUSH1 0xFF NOT AND DUP8 DUP3 ADD MSTORE SWAP4 ISZERO ISZERO PUSH1 0x5 SHL DUP7 ADD SWAP1 SWAP4 ADD SWAP4 POP DUP5 SWAP3 POP PUSH2 0x3BD SWAP2 POP PUSH2 0x21C SWAP1 POP PUSH2 0x3AA JUMP JUMPDEST PUSH4 0x4E487B71 PUSH1 0xE0 SHL DUP4 MSTORE PUSH1 0x22 DUP11 MSTORE PUSH1 0x24 DUP4 REVERT JUMPDEST SWAP3 PUSH1 0x7F AND SWAP3 PUSH2 0x380 JUMP JUMPDEST DUP1 REVERT JUMPDEST POP POP CALLVALUE PUSH2 0x1C9 JUMPI DUP2 PUSH1 0x3 NOT CALLDATASIZE ADD SLT PUSH2 0x1C9 JUMPI PUSH1 0x6 SLOAD SWAP1 MLOAD PUSH1 0x1 PUSH1 0x1 PUSH1 0xA0 SHL SUB SWAP1 SWAP2 AND DUP2 MSTORE PUSH1 0x20 SWAP1 RETURN JUMPDEST POP POP CALLVALUE PUSH2 0x1C9 JUMPI DUP2 PUSH1 0x3 NOT CALLDATASIZE ADD SLT PUSH2 0x1C9 JUMPI PUSH1 0x20 SWAP1 PUSH1 0x7 SLOAD SWAP1 MLOAD SWAP1 DUP2 MSTORE RETURN JUMPDEST DUP4 CALLVALUE PUSH2 0x46B JUMPI DUP1 PUSH1 0x3 NOT CALLDATASIZE ADD SLT PUSH2 0x46B JUMPI PUSH2 0x4CF PUSH2 0xBAB JUMP JUMPDEST PUSH1 0x6 DUP1 SLOAD PUSH1 0x1 PUSH1 0x1 PUSH1 0xA0 SHL SUB NOT DUP2 AND SWAP1 SWAP2 SSTORE DUP2 SWAP1 PUSH1 0x1 PUSH1 0x1 PUSH1 0xA0 SHL SUB AND PUSH32 0x8BE0079C531659141344CD1FD0A4F28419497F9722A3DAAFE3B4186F6B6457E0 DUP3 DUP1 LOG3 DUP1 RETURN JUMPDEST POP SWAP2 CALLVALUE PUSH2 0x46B JUMPI PUSH1 0x20 CALLDATASIZE PUSH1 0x3 NOT ADD SLT PUSH2 0x46B JUMPI PUSH1 0x1 PUSH1 0x1 PUSH1 0xA0 SHL SUB PUSH2 0x536 PUSH2 0xAD5 JUMP JUMPDEST AND SWAP3 DUP4 ISZERO PUSH2 0x553 JUMPI POP DUP1 PUSH1 0x20 SWAP4 DUP4 SWAP3 MSTORE PUSH1 0x3 DUP5 MSTORE KECCAK256 SLOAD SWAP1 MLOAD SWAP1 DUP2 MSTORE RETURN JUMPDEST SWAP2 MLOAD PUSH4 0x22718AD9 PUSH1 0xE2 SHL DUP2 MSTORE SWAP2 DUP3 ADD MSTORE PUSH1 0x24 SWAP1 REVERT JUMPDEST POP SWAP2 SWAP1 CALLVALUE PUSH2 0x1C9 JUMPI PUSH1 0x20 SWAP3 DUP4 PUSH1 0x3 NOT CALLDATASIZE ADD SLT PUSH2 0x177 JUMPI PUSH2 0x586 PUSH2 0xAD5 JUMP JUMPDEST SWAP3 PUSH2 0x58F PUSH2 0xBAB JUMP JUMPDEST PUSH1 0x7 SLOAD SWAP4 DUP4 MLOAD PUSH2 0x59E DUP2 PUSH2 0xB3B JUMP JUMPDEST DUP3 DUP2 MSTORE PUSH1 0x1 PUSH1 0x1 PUSH1 0xA0 SHL SUB DUP3 DUP2 AND SWAP3 SWAP1 DUP4 ISZERO PUSH2 0x7B8 JUMPI DUP8 DUP6 MSTORE PUSH1 0x2 DUP10 MSTORE DUP7 DUP6 KECCAK256 SLOAD AND DUP8 DUP5 DUP3 ISZERO ISZERO SWAP3 DUP4 PUSH2 0x785 JUMPI JUMPDEST DUP2 DUP9 MSTORE PUSH1 0x3 DUP13 MSTORE DUP10 DUP9 KECCAK256 DUP1 SLOAD PUSH1 0x1 ADD SWAP1 SSTORE DUP3 DUP9 MSTORE PUSH1 0x2 DUP13 MSTORE DUP10 DUP9 KECCAK256 DUP1 SLOAD PUSH1 0x1 PUSH1 0x1 PUSH1 0xA0 SHL SUB NOT AND DUP4 OR SWAP1 SSTORE PUSH32 0xDDF252AD1BE2C89B69C2B068FC378DAA952BA7F163C4A11628F55A4DF523B3EF DUP9 DUP1 LOG4 PUSH2 0x76D JUMPI EXTCODESIZE PUSH2 0x655 JUMPI JUMPDEST POP POP PUSH1 0x7 SLOAD SWAP2 PUSH1 0x0 NOT DUP4 EQ PUSH2 0x642 JUMPI POP POP PUSH1 0x1 ADD PUSH1 0x7 SSTORE MLOAD SWAP1 DUP2 MSTORE RETURN JUMPDEST PUSH4 0x4E487B71 PUSH1 0xE0 SHL DUP3 MSTORE PUSH1 0x11 SWAP1 MSTORE PUSH1 0x24 SWAP1 REVERT JUMPDEST DUP5 SWAP4 SWAP6 SWAP2 SWAP5 MLOAD DUP8 DUP2 DUP1 PUSH2 0x68F PUSH4 0xA85BD01 PUSH1 0xE1 SHL SWAP6 DUP7 DUP4 MSTORE CALLER DUP13 DUP5 ADD MSTORE DUP9 PUSH1 0x24 DUP5 ADD MSTORE DUP8 PUSH1 0x44 DUP5 ADD MSTORE PUSH1 0x80 PUSH1 0x64 DUP5 ADD MSTORE PUSH1 0x84 DUP4 ADD SWAP1 PUSH2 0xA95 JUMP JUMPDEST SUB DUP2 DUP8 DUP11 GAS CALL DUP5 SWAP2 DUP2 PUSH2 0x72D JUMPI JUMPDEST POP PUSH2 0x6FB JUMPI POP POP POP RETURNDATASIZE PUSH1 0x0 EQ PUSH2 0x6F3 JUMPI RETURNDATASIZE PUSH2 0x6B7 DUP2 PUSH2 0xB8F JUMP JUMPDEST SWAP1 PUSH2 0x6C4 DUP5 MLOAD SWAP3 DUP4 PUSH2 0xB6D JUMP JUMPDEST DUP2 MSTORE DUP1 SWAP2 DUP7 RETURNDATASIZE SWAP3 ADD RETURNDATACOPY JUMPDEST DUP1 MLOAD SWAP5 DUP6 PUSH2 0x6ED JUMPI POP POP MLOAD PUSH4 0x32505749 PUSH1 0xE1 SHL DUP2 MSTORE SWAP2 DUP3 ADD MSTORE PUSH1 0x24 SWAP2 POP REVERT JUMPDEST DUP6 SWAP3 POP ADD REVERT JUMPDEST POP PUSH1 0x60 PUSH2 0x6CE JUMP JUMPDEST SWAP2 SWAP6 SWAP4 SWAP5 SWAP2 PUSH1 0x1 PUSH1 0x1 PUSH1 0xE0 SHL SUB NOT AND SUB PUSH2 0x717 JUMPI POP CODESIZE DUP1 PUSH2 0x625 JUMP JUMPDEST SWAP1 POP PUSH1 0x24 SWAP3 MLOAD SWAP2 PUSH4 0x32505749 PUSH1 0xE1 SHL DUP4 MSTORE DUP3 ADD MSTORE REVERT JUMPDEST SWAP1 SWAP2 POP DUP9 DUP2 DUP2 RETURNDATASIZE DUP4 GT PUSH2 0x766 JUMPI JUMPDEST PUSH2 0x745 DUP2 DUP4 PUSH2 0xB6D JUMP JUMPDEST DUP2 ADD SUB SLT PUSH2 0x351 JUMPI MLOAD PUSH1 0x1 PUSH1 0x1 PUSH1 0xE0 SHL SUB NOT DUP2 AND DUP2 SUB PUSH2 0x351 JUMPI SWAP1 CODESIZE PUSH2 0x69D JUMP JUMPDEST POP RETURNDATASIZE PUSH2 0x73B JUMP JUMPDEST POP POP SWAP3 MLOAD PUSH4 0x39E35637 PUSH1 0xE1 SHL DUP2 MSTORE SWAP2 DUP3 ADD MSTORE PUSH1 0x24 SWAP2 POP REVERT JUMPDEST PUSH1 0x0 DUP4 DUP2 MSTORE PUSH1 0x4 PUSH1 0x20 MSTORE PUSH1 0x40 SWAP1 KECCAK256 DUP1 SLOAD PUSH1 0x1 PUSH1 0x1 PUSH1 0xA0 SHL SUB NOT AND SWAP1 SSTORE DUP1 DUP9 MSTORE PUSH1 0x3 DUP13 MSTORE DUP10 DUP9 KECCAK256 DUP1 SLOAD PUSH1 0x0 NOT ADD SWAP1 SSTORE PUSH2 0x5CC JUMP JUMPDEST DUP7 MLOAD PUSH4 0x32505749 PUSH1 0xE1 SHL DUP2 MSTORE DUP1 DUP8 ADD DUP7 SWAP1 MSTORE PUSH1 0x24 SWAP1 REVERT JUMPDEST POP SWAP2 CALLVALUE PUSH2 0x46B JUMPI PUSH1 0x20 CALLDATASIZE PUSH1 0x3 NOT ADD SLT PUSH2 0x46B JUMPI POP PUSH2 0x7EF PUSH1 0x20 SWAP3 CALLDATALOAD PUSH2 0xD76 JUMP JUMPDEST SWAP1 MLOAD PUSH1 0x1 PUSH1 0x1 PUSH1 0xA0 SHL SUB SWAP1 SWAP2 AND DUP2 MSTORE RETURN JUMPDEST POP POP CALLVALUE PUSH2 0x1C9 JUMPI PUSH2 0x2B1 SWAP1 PUSH2 0x814 CALLDATASIZE PUSH2 0xB06 JUMP JUMPDEST SWAP2 SWAP3 MLOAD SWAP3 PUSH2 0x821 DUP5 PUSH2 0xB3B JUMP JUMPDEST DUP6 DUP5 MSTORE PUSH2 0x2AC DUP4 DUP4 DUP4 PUSH2 0xBD7 JUMP JUMPDEST DUP4 CALLVALUE PUSH2 0x46B JUMPI PUSH2 0x2B1 PUSH2 0x841 CALLDATASIZE PUSH2 0xB06 JUMP JUMPDEST SWAP2 PUSH2 0xBD7 JUMP JUMPDEST POP SWAP1 CALLVALUE PUSH2 0x177 JUMPI DUP1 PUSH1 0x3 NOT CALLDATASIZE ADD SLT PUSH2 0x177 JUMPI PUSH2 0x861 PUSH2 0xAD5 JUMP JUMPDEST SWAP2 PUSH1 0x24 CALLDATALOAD PUSH2 0x86E DUP2 PUSH2 0xD76 JUMP JUMPDEST CALLER ISZERO ISZERO DUP1 PUSH2 0x910 JUMPI JUMPDEST DUP1 PUSH2 0x8E7 JUMPI JUMPDEST PUSH2 0x8D1 JUMPI PUSH1 0x1 PUSH1 0x1 PUSH1 0xA0 SHL SUB SWAP5 DUP6 AND SWAP5 DUP3 SWAP2 DUP7 SWAP2 AND PUSH32 0x8C5BE1E5EBEC7D5BD14F71427D1E84F3DD0314C0F7B2291E5B200AC8C7C3B925 DUP9 DUP1 LOG4 DUP5 MSTORE PUSH1 0x20 MSTORE DUP3 KECCAK256 DUP1 SLOAD PUSH1 0x1 PUSH1 0x1 PUSH1 0xA0 SHL SUB NOT AND SWAP1 SWAP2 OR SWAP1 SSTORE DUP1 RETURN JUMPDEST DUP4 MLOAD PUSH4 0xA9FBF51F PUSH1 0xE0 SHL DUP2 MSTORE CALLER DUP2 DUP6 ADD MSTORE PUSH1 0x24 SWAP1 REVERT JUMPDEST POP PUSH1 0x1 PUSH1 0x1 PUSH1 0xA0 SHL SUB DUP2 AND DUP7 MSTORE PUSH1 0x5 PUSH1 0x20 SWAP1 DUP2 MSTORE DUP5 DUP8 KECCAK256 CALLER DUP9 MSTORE SWAP1 MSTORE DUP4 DUP7 KECCAK256 SLOAD PUSH1 0xFF AND ISZERO PUSH2 0x87D JUMP JUMPDEST POP PUSH1 0x1 PUSH1 0x1 PUSH1 0xA0 SHL SUB DUP2 AND CALLER EQ ISZERO PUSH2 0x877 JUMP JUMPDEST POP CALLVALUE PUSH2 0x177 JUMPI PUSH1 0x20 CALLDATASIZE PUSH1 0x3 NOT ADD SLT PUSH2 0x177 JUMPI SWAP2 DUP3 PUSH1 0x20 SWAP4 CALLDATALOAD PUSH2 0x944 DUP2 PUSH2 0xD76 JUMP JUMPDEST POP DUP3 MSTORE DUP4 MSTORE DUP2 SWAP1 KECCAK256 SLOAD SWAP1 MLOAD PUSH1 0x1 PUSH1 0x1 PUSH1 0xA0 SHL SUB SWAP1 SWAP2 AND DUP2 MSTORE RETURN JUMPDEST POP SWAP2 CALLVALUE PUSH2 0x46B JUMPI DUP1 PUSH1 0x3 NOT CALLDATASIZE ADD SLT PUSH2 0x46B JUMPI DUP2 MLOAD SWAP2 DUP2 DUP3 SLOAD SWAP3 PUSH1 0x1 DUP5 DUP2 SHR SWAP2 DUP2 DUP7 AND SWAP6 DUP7 ISZERO PUSH2 0xA1F JUMPI JUMPDEST PUSH1 0x20 SWAP7 DUP8 DUP6 LT DUP2 EQ PUSH2 0x44E JUMPI DUP9 SWAP10 POP SWAP7 DUP9 SWAP7 SWAP8 DUP6 DUP3 SWAP11 MSTORE SWAP2 DUP3 PUSH1 0x0 EQ PUSH2 0x427 JUMPI POP POP PUSH1 0x1 EQ PUSH2 0x9C4 JUMPI POP POP POP PUSH2 0x21C SWAP3 SWAP2 PUSH2 0x3BD SWAP2 SUB DUP6 PUSH2 0xB6D JUMP JUMPDEST SWAP2 SWAP1 DUP7 SWAP4 POP DUP3 DUP1 MSTORE PUSH32 0x290DECD9548B62A8D60345A988386FC84BA6BC95484008F6362F93160EF3E563 JUMPDEST DUP3 DUP5 LT PUSH2 0xA07 JUMPI POP POP POP DUP3 ADD ADD DUP2 PUSH2 0x3BD PUSH2 0x21C PUSH2 0x3AA JUMP JUMPDEST DUP1 SLOAD DUP5 DUP11 ADD DUP7 ADD MSTORE DUP9 SWAP6 POP DUP8 SWAP5 SWAP1 SWAP4 ADD SWAP3 DUP2 ADD PUSH2 0x9EE JUMP JUMPDEST SWAP3 PUSH1 0x7F AND SWAP3 PUSH2 0x988 JUMP JUMPDEST SWAP3 POP POP CALLVALUE PUSH2 0x177 JUMPI PUSH1 0x20 CALLDATASIZE PUSH1 0x3 NOT ADD SLT PUSH2 0x177 JUMPI CALLDATALOAD PUSH4 0xFFFFFFFF PUSH1 0xE0 SHL DUP2 AND DUP1 SWAP2 SUB PUSH2 0x177 JUMPI PUSH1 0x20 SWAP3 POP PUSH4 0x80AC58CD PUSH1 0xE0 SHL DUP2 EQ SWAP1 DUP2 ISZERO PUSH2 0xA84 JUMPI JUMPDEST DUP2 ISZERO PUSH2 0xA73 JUMPI JUMPDEST POP ISZERO ISZERO DUP2 MSTORE RETURN JUMPDEST PUSH4 0x1FFC9A7 PUSH1 0xE0 SHL EQ SWAP1 POP CODESIZE PUSH2 0xA6C JUMP JUMPDEST PUSH4 0x5B5E139F PUSH1 0xE0 SHL DUP2 EQ SWAP2 POP PUSH2 0xA65 JUMP JUMPDEST SWAP2 SWAP1 DUP3 MLOAD SWAP3 DUP4 DUP3 MSTORE PUSH1 0x0 JUMPDEST DUP5 DUP2 LT PUSH2 0xAC1 JUMPI POP POP DUP3 PUSH1 0x0 PUSH1 0x20 DUP1 SWAP5 SWAP6 DUP5 ADD ADD MSTORE PUSH1 0x1F DUP1 NOT SWAP2 ADD AND ADD ADD SWAP1 JUMP JUMPDEST PUSH1 0x20 DUP2 DUP4 ADD DUP2 ADD MLOAD DUP5 DUP4 ADD DUP3 ADD MSTORE ADD PUSH2 0xAA0 JUMP JUMPDEST PUSH1 0x4 CALLDATALOAD SWAP1 PUSH1 0x1 PUSH1 0x1 PUSH1 0xA0 SHL SUB DUP3 AND DUP3 SUB PUSH2 0xAEB JUMPI JUMP JUMPDEST PUSH1 0x0 DUP1 REVERT JUMPDEST PUSH1 0x24 CALLDATALOAD SWAP1 PUSH1 0x1 PUSH1 0x1 PUSH1 0xA0 SHL SUB DUP3 AND DUP3 SUB PUSH2 0xAEB JUMPI JUMP JUMPDEST PUSH1 0x60 SWAP1 PUSH1 0x3 NOT ADD SLT PUSH2 0xAEB JUMPI PUSH1 0x1 PUSH1 0x1 PUSH1 0xA0 SHL SUB SWAP1 PUSH1 0x4 CALLDATALOAD DUP3 DUP2 AND DUP2 SUB PUSH2 0xAEB JUMPI SWAP2 PUSH1 0x24 CALLDATALOAD SWAP1 DUP2 AND DUP2 SUB PUSH2 0xAEB JUMPI SWAP1 PUSH1 0x44 CALLDATALOAD SWAP1 JUMP JUMPDEST PUSH1 0x20 DUP2 ADD SWAP1 DUP2 LT PUSH8 0xFFFFFFFFFFFFFFFF DUP3 GT OR PUSH2 0xB57 JUMPI PUSH1 0x40 MSTORE JUMP JUMPDEST PUSH4 0x4E487B71 PUSH1 0xE0 SHL PUSH1 0x0 MSTORE PUSH1 0x41 PUSH1 0x4 MSTORE PUSH1 0x24 PUSH1 0x0 REVERT JUMPDEST SWAP1 PUSH1 0x1F DUP1 NOT SWAP2 ADD AND DUP2 ADD SWAP1 DUP2 LT PUSH8 0xFFFFFFFFFFFFFFFF DUP3 GT OR PUSH2 0xB57 JUMPI PUSH1 0x40 MSTORE JUMP JUMPDEST PUSH8 0xFFFFFFFFFFFFFFFF DUP2 GT PUSH2 0xB57 JUMPI PUSH1 0x1F ADD PUSH1 0x1F NOT AND PUSH1 0x20 ADD SWAP1 JUMP JUMPDEST PUSH1 0x6 SLOAD PUSH1 0x1 PUSH1 0x1 PUSH1 0xA0 SHL SUB AND CALLER SUB PUSH2 0xBBF JUMPI JUMP JUMPDEST PUSH1 0x40 MLOAD PUSH4 0x118CDAA7 PUSH1 0xE0 SHL DUP2 MSTORE CALLER PUSH1 0x4 DUP3 ADD MSTORE PUSH1 0x24 SWAP1 REVERT JUMPDEST PUSH1 0x1 PUSH1 0x1 PUSH1 0xA0 SHL SUB SWAP2 DUP3 AND SWAP3 SWAP1 SWAP2 DUP4 ISZERO PUSH2 0xD5D JUMPI PUSH1 0x0 SWAP3 DUP3 DUP5 MSTORE DUP3 PUSH1 0x20 SWAP6 PUSH1 0x2 DUP8 MSTORE PUSH1 0x40 SWAP7 DUP5 DUP9 DUP9 KECCAK256 SLOAD AND SWAP7 DUP8 SWAP2 CALLER ISZERO ISZERO DUP1 PUSH2 0xCC7 JUMPI JUMPDEST POP SWAP1 PUSH1 0x2 PUSH32 0xDDF252AD1BE2C89B69C2B068FC378DAA952BA7F163C4A11628F55A4DF523B3EF SWAP3 DUP5 PUSH2 0xC94 JUMPI JUMPDEST DUP6 DUP4 MSTORE PUSH1 0x3 DUP2 MSTORE DUP12 DUP4 KECCAK256 DUP1 SLOAD PUSH1 0x1 ADD SWAP1 SSTORE DUP7 DUP4 MSTORE MSTORE DUP10 DUP2 KECCAK256 DUP1 SLOAD PUSH1 0x1 PUSH1 0x1 PUSH1 0xA0 SHL SUB NOT AND DUP6 OR SWAP1 SSTORE DUP1 LOG4 AND SWAP3 DUP4 DUP4 SUB PUSH2 0xC73 JUMPI POP POP POP POP JUMP JUMPDEST PUSH1 0x64 SWAP5 POP MLOAD SWAP3 PUSH4 0x64283D7B PUSH1 0xE0 SHL DUP5 MSTORE PUSH1 0x4 DUP5 ADD MSTORE PUSH1 0x24 DUP4 ADD MSTORE PUSH1 0x44 DUP3 ADD MSTORE REVERT JUMPDEST PUSH1 0x0 DUP8 DUP2 MSTORE PUSH1 0x4 PUSH1 0x20 MSTORE PUSH1 0x40 SWAP1 KECCAK256 DUP1 SLOAD PUSH1 0x1 PUSH1 0x1 PUSH1 0xA0 SHL SUB NOT AND SWAP1 SSTORE DUP5 DUP4 MSTORE PUSH1 0x3 DUP2 MSTORE DUP12 DUP4 KECCAK256 DUP1 SLOAD PUSH1 0x0 NOT ADD SWAP1 SSTORE PUSH2 0xC3A JUMP JUMPDEST SWAP2 SWAP4 SWAP5 POP SWAP2 POP DUP1 PUSH2 0xD1C JUMPI JUMPDEST ISZERO PUSH2 0xCE3 JUMPI DUP6 SWAP3 SWAP2 DUP8 SWAP2 CODESIZE PUSH2 0xC0E JUMP JUMPDEST DUP8 DUP7 DUP9 PUSH2 0xD00 JUMPI PUSH1 0x24 SWAP2 MLOAD SWAP1 PUSH4 0x7E273289 PUSH1 0xE0 SHL DUP3 MSTORE PUSH1 0x4 DUP3 ADD MSTORE REVERT JUMPDEST PUSH1 0x44 SWAP2 MLOAD SWAP1 PUSH4 0x177E802F PUSH1 0xE0 SHL DUP3 MSTORE CALLER PUSH1 0x4 DUP4 ADD MSTORE PUSH1 0x24 DUP3 ADD MSTORE REVERT JUMPDEST POP CALLER DUP8 EQ DUP1 ISZERO PUSH2 0xD41 JUMPI JUMPDEST DUP1 PUSH2 0xCD3 JUMPI POP DUP6 DUP3 MSTORE PUSH1 0x4 DUP2 MSTORE CALLER DUP6 DUP10 DUP5 KECCAK256 SLOAD AND EQ PUSH2 0xCD3 JUMP JUMPDEST POP DUP7 DUP3 MSTORE PUSH1 0x5 DUP2 MSTORE DUP8 DUP3 KECCAK256 CALLER DUP4 MSTORE DUP2 MSTORE PUSH1 0xFF DUP9 DUP4 KECCAK256 SLOAD AND PUSH2 0xD27 JUMP JUMPDEST PUSH1 0x40 MLOAD PUSH4 0x32505749 PUSH1 0xE1 SHL DUP2 MSTORE PUSH1 0x0 PUSH1 0x4 DUP3 ADD MSTORE PUSH1 0x24 SWAP1 REVERT JUMPDEST PUSH1 0x0 DUP2 DUP2 MSTORE PUSH1 0x2 PUSH1 0x20 MSTORE PUSH1 0x40 SWAP1 KECCAK256 SLOAD PUSH1 0x1 PUSH1 0x1 PUSH1 0xA0 SHL SUB AND SWAP1 DUP2 ISZERO PUSH2 0xD99 JUMPI POP SWAP1 JUMP JUMPDEST PUSH1 0x24 SWAP1 PUSH1 0x40 MLOAD SWAP1 PUSH4 0x7E273289 PUSH1 0xE0 SHL DUP3 MSTORE PUSH1 0x4 DUP3 ADD MSTORE REVERT JUMPDEST DUP2 EXTCODESIZE PUSH2 0xDBE JUMPI JUMPDEST POP POP POP POP JUMP JUMPDEST PUSH1 0x40 MLOAD PUSH4 0xA85BD01 PUSH1 0xE1 SHL DUP1 DUP3 MSTORE CALLER PUSH1 0x4 DUP4 ADD MSTORE PUSH1 0x1 PUSH1 0x1 PUSH1 0xA0 SHL SUB SWAP3 DUP4 AND PUSH1 0x24 DUP4 ADD MSTORE PUSH1 0x44 DUP3 ADD SWAP5 SWAP1 SWAP5 MSTORE PUSH1 0x80 PUSH1 0x64 DUP3 ADD MSTORE PUSH1 0x20 SWAP6 SWAP3 SWAP1 SWAP2 AND SWAP4 SWAP1 SWAP3 SWAP1 DUP4 SWAP1 PUSH2 0xE0C SWAP1 PUSH1 0x84 DUP4 ADD SWAP1 PUSH2 0xA95 JUMP JUMPDEST SUB SWAP3 DUP6 DUP2 PUSH1 0x0 SWAP6 DUP2 DUP8 DUP10 GAS CALL DUP5 SWAP2 DUP2 PUSH2 0xEB5 JUMPI JUMPDEST POP PUSH2 0xE80 JUMPI POP POP POP RETURNDATASIZE PUSH1 0x0 EQ PUSH2 0xE78 JUMPI RETURNDATASIZE PUSH2 0xE3A DUP2 PUSH2 0xB8F JUMP JUMPDEST SWAP1 PUSH2 0xE48 PUSH1 0x40 MLOAD SWAP3 DUP4 PUSH2 0xB6D JUMP JUMPDEST DUP2 MSTORE DUP1 SWAP2 DUP5 RETURNDATASIZE SWAP3 ADD RETURNDATACOPY JUMPDEST DUP1 MLOAD SWAP3 DUP4 PUSH2 0xE73 JUMPI PUSH1 0x40 MLOAD PUSH4 0x32505749 PUSH1 0xE1 SHL DUP2 MSTORE PUSH1 0x4 DUP2 ADD DUP5 SWAP1 MSTORE PUSH1 0x24 SWAP1 REVERT JUMPDEST ADD SWAP1 POP REVERT JUMPDEST POP PUSH1 0x60 PUSH2 0xE52 JUMP JUMPDEST SWAP2 SWAP5 POP SWAP2 POP PUSH4 0xFFFFFFFF PUSH1 0xE0 SHL AND SUB PUSH2 0xE9D JUMPI POP CODESIZE DUP1 DUP1 DUP1 PUSH2 0xDB8 JUMP JUMPDEST PUSH1 0x24 SWAP1 PUSH1 0x40 MLOAD SWAP1 PUSH4 0x32505749 PUSH1 0xE1 SHL DUP3 MSTORE PUSH1 0x4 DUP3 ADD MSTORE REVERT JUMPDEST SWAP1 SWAP2 POP DUP7 DUP2 DUP2 RETURNDATASIZE DUP4 GT PUSH2 0xEEE JUMPI JUMPDEST PUSH2 0xECD DUP2 DUP4 PUSH2 0xB6D JUMP JUMPDEST DUP2 ADD SUB SLT PUSH2 0x351 JUMPI MLOAD PUSH1 0x1 PUSH1 0x1 PUSH1 0xE0 SHL SUB NOT DUP2 AND DUP2 SUB PUSH2 0x351 JUMPI SWAP1 CODESIZE PUSH2 0xE20 JUMP JUMPDEST POP RETURNDATASIZE PUSH2 0xEC3 JUMP INVALID LOG2 PUSH5 0x6970667358 0x22 SLT KECCAK256 CALL DUP12 POP 0xD 0xEF GT CALLER CALL PUSH1 0x16 DUP6 DUP11 CREATE PUSH30 0xE42E416C6C9D579CABF3327AF7B07C2A0E8F64736F6C6343000814003300 "},"methodIdentifiers":{"approve(address,uint256)":"095ea7b3","balanceOf(address)":"70a08231","getApproved(uint256)":"081812fc","isApprovedForAll(address,address)":"e985e9c5","mint(address)":"6a627842","name()":"06fdde03","nextTokenId()":"75794a3c","owner()":"8da5cb5b","ownerOf(uint256)":"6352211e","renounceOwnership()":"715018a6","safeTransferFrom(address,address,uint256)":"42842e0e","safeTransferFrom(address,address,uint256,bytes)":"b88d4fde","setApprovalForAll(address,bool)":"a22cb465","supportsInterface(bytes4)":"01ffc9a7","symbol()":"95d89b41","tokenURI(uint256)":"c87b56dd","transferFrom(address,address,uint256)":"23b872dd","transferOwnership(address)":"f2fde38b"}}}}}