{"abi":[{"type":"constructor","inputs":[{"name":"compTokenAddress","type":"address","internalType":"address"}],"stateMutability":"nonpayable"},{"type":"function","name":"MIN_VERIFIERS","inputs":[],"outputs":[{"name":"","type":"uint256","internalType":"uint256"}],"stateMutability":"view"},{"type":"function","name":"PROVIDER_STAKE_PERCENTAGE","inputs":[],"outputs":[{"name":"","type":"uint256","internalType":"uint256"}],"stateMutability":"view"},{"type":"function","name":"alertVerifiersOfCompletedRequest","inputs":[{"name":"requestId","type":"uint256","internalType":"uint256"}],"outputs":[],"stateMutability":"nonpayable"},{"type":"function","name":"applyForVerificationForRequest","inputs":[{"name":"requestId","type":"uint256","internalType":"uint256"}],"outputs":[],"stateMutability":"nonpayable"},{"type":"function","name":"calculateMajorityAndReward","inputs":[{"name":"requestId","type":"uint256","internalType":"uint256"},{"name":"roundNum","type":"uint256","internalType":"uint256"}],"outputs":[],"stateMutability":"nonpayable"},{"type":"function","name":"cancelRequest","inputs":[{"name":"requestId","type":"uint256","internalType":"uint256"}],"outputs":[],"stateMutability":"nonpayable"},{"type":"function","name":"chooseVerifiersForRequestTrigger","inputs":[{"name":"requestId","type":"uint256","internalType":"uint256"}],"outputs":[],"stateMutability":"nonpayable"},{"type":"function","name":"compToken","inputs":[],"outputs":[{"name":"","type":"address","internalType":"contract IERC20"}],"stateMutability":"view"},{"type":"function","name":"completeRequest","inputs":[{"name":"requestId","type":"uint256","internalType":"uint256"},{"name":"outputFileURLs","type":"string[]","internalType":"string[]"}],"outputs":[],"stateMutability":"nonpayable"},{"type":"function","name":"createRequest","inputs":[{"name":"paymentForProvider","type":"uint256","internalType":"uint256"},{"name":"paymentPerRoundForVerifiers","type":"uint256","internalType":"uint256"},{"name":"numOperations","type":"uint256","internalType":"uint256"},{"name":"numVerifiers","type":"uint256","internalType":"uint256"},{"name":"inputFileURLs","type":"string[]","internalType":"string[]"},{"name":"operationFileURL","type":"string","internalType":"string"},{"name":"computationDeadline","type":"uint256","internalType":"uint256"},{"name":"verificationDeadline","type":"uint256","internalType":"uint256"},{"name":"timeAllocatedForVerification","type":"uint256","internalType":"uint256"},{"name":"numVerifiersSampleSize","type":"uint256","internalType":"uint256"},{"name":"protocolVersion","type":"uint256","internalType":"uint256"},{"name":"layerSize","type":"uint256","internalType":"uint256"}],"outputs":[],"stateMutability":"nonpayable"},{"type":"function","name":"getRequestDetails","inputs":[{"name":"requestId","type":"uint256","internalType":"uint256"}],"outputs":[{"name":"","type":"tuple","internalType":"struct ComputationMarket.Request","components":[{"name":"consumer","type":"address","internalType":"address"},{"name":"paymentForProvider","type":"uint256","internalType":"uint256"},{"name":"totalPaymentForVerifiers","type":"uint256","internalType":"uint256"},{"name":"numOperations","type":"uint256","internalType":"uint256"},{"name":"numVerifiers","type":"uint256","internalType":"uint256"},{"name":"inputFileURLs","type":"string[]","internalType":"string[]"},{"name":"operationFileURL","type":"string","internalType":"string"},{"name":"outputFileURLs","type":"string[]","internalType":"string[]"},{"name":"computationDeadline","type":"uint256","internalType":"uint256"},{"name":"verificationDeadline","type":"uint256","internalType":"uint256"},{"name":"totalPayment","type":"uint256","internalType":"uint256"},{"name":"completed","type":"bool","internalType":"bool"},{"name":"hasBeenComputed","type":"bool","internalType":"bool"},{"name":"numVerifiersSampleSize","type":"uint256","internalType":"uint256"},{"name":"verifiers","type":"address[]","internalType":"address[]"},{"name":"chosenVerifiers","type":"address[]","internalType":"address[]"},{"name":"mainProvider","type":"address","internalType":"address"},{"name":"timeAllocatedForVerification","type":"uint256","internalType":"uint256"},{"name":"layerCount","type":"uint256","internalType":"uint256"},{"name":"layerComputeIndex","type":"uint256","internalType":"uint256"},{"name":"roundIndex","type":"uint256","internalType":"uint256"},{"name":"state","type":"uint8","internalType":"enum ComputationMarket.RequestStates"},{"name":"stake","type":"uint256","internalType":"uint256"},{"name":"paymentPerRoundForVerifiers","type":"uint256","internalType":"uint256"},{"name":"totalPaidForVerification","type":"uint256","internalType":"uint256"},{"name":"protocolVersion","type":"uint256","internalType":"uint256"},{"name":"verifierSelectionCount","type":"uint256","internalType":"uint256"},{"name":"computedTimeByProvider","type":"uint256","internalType":"uint256"},{"name":"layerSize","type":"uint256","internalType":"uint256"}]}],"stateMutability":"view"},{"type":"function","name":"getRoundDetails","inputs":[{"name":"requestId","type":"uint256","internalType":"uint256"},{"name":"roundIndex","type":"uint256","internalType":"uint256"}],"outputs":[{"name":"","type":"tuple","internalType":"struct ComputationMarket.RoundDetailsOutput","components":[{"name":"roundIndex","type":"uint256","internalType":"uint256"},{"name":"layerComputeIndex","type":"uint256","internalType":"uint256"},{"name":"verificationStartTime","type":"uint256","internalType":"uint256"},{"name":"commitEndTime","type":"uint256","internalType":"uint256"},{"name":"providerRevealEndTime","type":"uint256","internalType":"uint256"},{"name":"commitmentRevealEndTime","type":"uint256","internalType":"uint256"},{"name":"majorityVoteHash","type":"bytes32","internalType":"bytes32"},{"name":"majorityCount","type":"uint256","internalType":"uint256"},{"name":"mainProviderAnswerHash","type":"bytes32","internalType":"bytes32"}]}],"stateMutability":"view"},{"type":"function","name":"providerFailure","inputs":[{"name":"requestId","type":"uint256","internalType":"uint256"}],"outputs":[],"stateMutability":"nonpayable"},{"type":"function","name":"providerSuccessCall","inputs":[{"name":"requestId","type":"uint256","internalType":"uint256"}],"outputs":[],"stateMutability":"nonpayable"},{"type":"function","name":"requestCount","inputs":[],"outputs":[{"name":"","type":"uint256","internalType":"uint256"}],"stateMutability":"view"},{"type":"function","name":"requests","inputs":[{"name":"","type":"uint256","internalType":"uint256"}],"outputs":[{"name":"consumer","type":"address","internalType":"address"},{"name":"paymentForProvider","type":"uint256","internalType":"uint256"},{"name":"totalPaymentForVerifiers","type":"uint256","internalType":"uint256"},{"name":"numOperations","type":"uint256","internalType":"uint256"},{"name":"numVerifiers","type":"uint256","internalType":"uint256"},{"name":"operationFileURL","type":"string","internalType":"string"},{"name":"computationDeadline","type":"uint256","internalType":"uint256"},{"name":"verificationDeadline","type":"uint256","internalType":"uint256"},{"name":"totalPayment","type":"uint256","internalType":"uint256"},{"name":"completed","type":"bool","internalType":"bool"},{"name":"hasBeenComputed","type":"bool","internalType":"bool"},{"name":"numVerifiersSampleSize","type":"uint256","internalType":"uint256"},{"name":"mainProvider","type":"address","internalType":"address"},{"name":"timeAllocatedForVerification","type":"uint256","internalType":"uint256"},{"name":"layerCount","type":"uint256","internalType":"uint256"},{"name":"layerComputeIndex","type":"uint256","internalType":"uint256"},{"name":"roundIndex","type":"uint256","internalType":"uint256"},{"name":"state","type":"uint8","internalType":"enum ComputationMarket.RequestStates"},{"name":"stake","type":"uint256","internalType":"uint256"},{"name":"paymentPerRoundForVerifiers","type":"uint256","internalType":"uint256"},{"name":"totalPaidForVerification","type":"uint256","internalType":"uint256"},{"name":"protocolVersion","type":"uint256","internalType":"uint256"},{"name":"verifierSelectionCount","type":"uint256","internalType":"uint256"},{"name":"computedTimeByProvider","type":"uint256","internalType":"uint256"},{"name":"layerSize","type":"uint256","internalType":"uint256"}],"stateMutability":"view"},{"type":"function","name":"returnStake","inputs":[{"name":"requestId","type":"uint256","internalType":"uint256"},{"name":"roundNum","type":"uint256","internalType":"uint256"}],"outputs":[],"stateMutability":"nonpayable"},{"type":"function","name":"returnStakeDueToTimeout","inputs":[{"name":"requestId","type":"uint256","internalType":"uint256"},{"name":"roundNum","type":"uint256","internalType":"uint256"}],"outputs":[],"stateMutability":"nonpayable"},{"type":"function","name":"revealCommitment","inputs":[{"name":"requestId","type":"uint256","internalType":"uint256"},{"name":"agree","type":"bool","internalType":"bool"},{"name":"answer","type":"bytes32","internalType":"bytes32"},{"name":"nonce","type":"bytes32","internalType":"bytes32"}],"outputs":[],"stateMutability":"nonpayable"},{"type":"function","name":"revealProviderKeyAndHash","inputs":[{"name":"requestId","type":"uint256","internalType":"uint256"},{"name":"privateKey","type":"bytes32","internalType":"bytes32"},{"name":"answerHash","type":"bytes32","internalType":"bytes32"}],"outputs":[],"stateMutability":"nonpayable"},{"type":"function","name":"roundDetails","inputs":[{"name":"","type":"uint256","internalType":"uint256"},{"name":"","type":"uint256","internalType":"uint256"}],"outputs":[{"name":"roundIndex","type":"uint256","internalType":"uint256"},{"name":"layerComputeIndex","type":"uint256","internalType":"uint256"},{"name":"verificationStartTime","type":"uint256","internalType":"uint256"},{"name":"commitEndTime","type":"uint256","internalType":"uint256"},{"name":"providerRevealEndTime","type":"uint256","internalType":"uint256"},{"name":"commitmentRevealEndTime","type":"uint256","internalType":"uint256"},{"name":"majorityVoteHash","type":"bytes32","internalType":"bytes32"},{"name":"majorityCount","type":"uint256","internalType":"uint256"},{"name":"mainProviderAnswerHash","type":"bytes32","internalType":"bytes32"}],"stateMutability":"view"},{"type":"function","name":"selectRequest","inputs":[{"name":"requestId","type":"uint256","internalType":"uint256"}],"outputs":[],"stateMutability":"nonpayable"},{"type":"function","name":"startNextRound","inputs":[{"name":"requestId","type":"uint256","internalType":"uint256"}],"outputs":[],"stateMutability":"nonpayable"},{"type":"function","name":"submitCommitment","inputs":[{"name":"requestId","type":"uint256","internalType":"uint256"},{"name":"computedHash","type":"bytes32","internalType":"bytes32"}],"outputs":[],"stateMutability":"nonpayable"},{"type":"function","name":"verificationDeadlinePassedForVeryfying","inputs":[{"name":"requestId","type":"uint256","internalType":"uint256"},{"name":"roundNum","type":"uint256","internalType":"uint256"}],"outputs":[],"stateMutability":"nonpayable"},{"type":"event","name":"CommitmentPhaseStarted","inputs":[{"name":"requestId","type":"uint256","indexed":true,"internalType":"uint256"},{"name":"startTime","type":"uint256","indexed":false,"internalType":"uint256"},{"name":"endTime","type":"uint256","indexed":false,"internalType":"uint256"},{"name":"layerComputeIndex","type":"uint256","indexed":false,"internalType":"uint256"}],"anonymous":false},{"type":"event","name":"CommitmentSubmitted","inputs":[{"name":"requestId","type":"uint256","indexed":true,"internalType":"uint256"},{"name":"verifier","type":"address","indexed":true,"internalType":"address"}],"anonymous":false},{"type":"event","name":"NoMajorityForRound","inputs":[{"name":"requestId","type":"uint256","indexed":true,"internalType":"uint256"},{"name":"layerComputeIndex","type":"uint256","indexed":false,"internalType":"uint256"}],"anonymous":false},{"type":"event","name":"ProviderResultSuccessfullyVerified","inputs":[{"name":"requestId","type":"uint256","indexed":true,"internalType":"uint256"}],"anonymous":false},{"type":"event","name":"ProviderResultUnsuccessful","inputs":[{"name":"requestId","type":"uint256","indexed":true,"internalType":"uint256"}],"anonymous":false},{"type":"event","name":"ProviderRevealed","inputs":[{"name":"requestId","type":"uint256","indexed":true,"internalType":"uint256"},{"name":"privateKey","type":"bytes32","indexed":false,"internalType":"bytes32"},{"name":"answerHash","type":"bytes32","indexed":false,"internalType":"bytes32"}],"anonymous":false},{"type":"event","name":"ProviderSelected","inputs":[{"name":"requestId","type":"uint256","indexed":true,"internalType":"uint256"},{"name":"provider","type":"address","indexed":true,"internalType":"address"}],"anonymous":false},{"type":"event","name":"ProviderSlashed","inputs":[{"name":"requestId","type":"uint256","indexed":true,"internalType":"uint256"},{"name":"provider","type":"address","indexed":true,"internalType":"address"}],"anonymous":false},{"type":"event","name":"RequestCompleted","inputs":[{"name":"requestId","type":"uint256","indexed":true,"internalType":"uint256"},{"name":"provider","type":"address","indexed":true,"internalType":"address"}],"anonymous":false},{"type":"event","name":"RequestCreated","inputs":[{"name":"requestId","type":"uint256","indexed":true,"internalType":"uint256"},{"name":"consumer","type":"address","indexed":true,"internalType":"address"}],"anonymous":false},{"type":"event","name":"RevealVerificationDetails","inputs":[{"name":"requestId","type":"uint256","indexed":true,"internalType":"uint256"},{"name":"endTime","type":"uint256","indexed":false,"internalType":"uint256"},{"name":"verifier","type":"address","indexed":true,"internalType":"address"}],"anonymous":false},{"type":"event","name":"RoundInitialised","inputs":[{"name":"requestId","type":"uint256","indexed":true,"internalType":"uint256"}],"anonymous":false},{"type":"event","name":"RoundRevealStarted","inputs":[{"name":"requestId","type":"uint256","indexed":true,"internalType":"uint256"}],"anonymous":false},{"type":"event","name":"RoundStartedForVerificationSelection","inputs":[{"name":"requestId","type":"uint256","indexed":true,"internalType":"uint256"},{"name":"layerComputeIndex","type":"uint256","indexed":false,"internalType":"uint256"}],"anonymous":false},{"type":"event","name":"VerificationApplied","inputs":[{"name":"requestId","type":"uint256","indexed":true,"internalType":"uint256"},{"name":"verifier","type":"address","indexed":true,"internalType":"address"},{"name":"layerComputeIndex","type":"uint256","indexed":true,"internalType":"uint256"}],"anonymous":false},{"type":"event","name":"VerificationSelectionStarted","inputs":[{"name":"requestId","type":"uint256","indexed":true,"internalType":"uint256"},{"name":"layerComputeIndex","type":"uint256","indexed":false,"internalType":"uint256"}],"anonymous":false},{"type":"event","name":"VerifierChosen","inputs":[{"name":"requestId","type":"uint256","indexed":true,"internalType":"uint256"},{"name":"verifier","type":"address","indexed":true,"internalType":"address"},{"name":"layerComputeIndex","type":"uint256","indexed":true,"internalType":"uint256"},{"name":"verifierIndex","type":"uint256","indexed":false,"internalType":"uint256"}],"anonymous":false},{"type":"event","name":"VerifierUnchosen","inputs":[{"name":"requestId","type":"uint256","indexed":true,"internalType":"uint256"},{"name":"verifier","type":"address","indexed":true,"internalType":"address"},{"name":"layerComputeIndex","type":"uint256","indexed":true,"internalType":"uint256"},{"name":"verifierIndex","type":"uint256","indexed":false,"internalType":"uint256"}],"anonymous":false},{"type":"event","name":"VoteSubmitted","inputs":[{"name":"requestId","type":"uint256","indexed":true,"internalType":"uint256"},{"name":"verifier","type":"address","indexed":true,"internalType":"address"},{"name":"agree","type":"bool","indexed":false,"internalType":"bool"}],"anonymous":false},{"type":"event","name":"requestCancelled","inputs":[{"name":"requestId","type":"uint256","indexed":true,"internalType":"uint256"}],"anonymous":false}],"bytecode":{"object":"0x608034620000c657601f62004d6f38819003918201601f19168301916001600160401b03831184841017620000cb57808492602094604052833981010312620000c657516001600160a01b03811690819003620000c65780156200008157600080546001600160a01b031916919091179055604051614c8d9081620000e28239f35b60405162461bcd60e51b815260206004820152601560248201527f496e76616c696420746f6b656e206164647265737300000000000000000000006044820152606490fd5b600080fd5b634e487b7160e01b600052604160045260246000fdfe610220604052600436101561001357600080fd5b60003560e01c80630625f16114613c545780630900856314613aea5780633015394c14613ace5780633295845c14613ab257806338488abc1461391b5780634beda2211461375f57806353e2ba171461374357806358042f62146136925780635badbe4c146136745780635e16a9d8146136585780635f748f341461289c5780636605dfa7146128735780636d8f9a0e146123fe57806381d12c58146121b5578063847ada5714611be75780638ea49eca14611b59578063951c5ce2146114a1578063b10ceb591461130b578063bfdb345114610eff578063ddf3532c14610ddb578063e03ad0d114610bb3578063e20fb7a11461099b578063e2e7cbe61461072a578063e6a3d9dc146105835763f34d4c631461013057600080fd5b3461057e57602036600319011261057e57600061038060405161015281613fbc565b828152826020820152826040820152826060820152826080820152606060a0820152606060c0820152606060e08201528261010082015282610120820152826101408201528261016082015282610180820152826101a082015260606101c082015260606101e08201528261020082015282610220820152826102408201528261026082015282610280820152826102a0820152826102c0820152826102e0820152826103008201528261032082015282610340820152826103608201520152600435600052600260205260406000206040519061022f82613fbc565b80546001600160a01b031682526001810154602083015260028101546040830152600381015460608301526004810154608083015261027060058201614a2c565b60a083015261028160068201614187565b60c083015261029260078201614a2c565b60e083015260088101546101008301526009810154610120830152600a81015461014083015260ff600b820154818116151561016085015260081c161515610180830152600c8101546101a08301526102ed600d8201614a81565b6101c08301526102ff600e8201614a81565b6101e0830152600f8101546001600160a01b03166102008301526010810154610220830152601181015461024083015260128101546102608301526013810154610280830152601481015460ff1690600982101561056857601b916102a084015260158101546102c084015260168101546102e0840152601781015461030084015260188101546103208401526019810154610340840152601a810154610360840152015461038082015260405180916020825260018060a01b038151166020830152602081015160408301526040810151606083015260608101516080830152608081015160a08301526103806104bd6104a561044161042a61041460a08701516103a060c08a01526103c0890190614279565b60c0870151888203601f190160e08a015261422c565b60e0860151878203601f1901610100890152614279565b610100850151610120870152610120850151610140870152610140850151610160870152610160850151151561018087015261018085015115156101a08701526101a08501516101c08701526101c0850151601f19878303016101e08801526142d6565b6101e0840151858203601f19016102008701526142d6565b9160018060a01b03610200820151166102208501526102208101516102408501526102408101516102608501526102608101516102808501526102808101516102a08501526105166102a08201516102c086019061426c565b6102c08101516102e08501526102e08101516103008501526103008101516103208501526103208101516103408501526103408101516103608501526103608101518285015201516103a08301520390f35b634e487b7160e01b600052602160045260246000fd5b600080fd5b3461057e57604036600319011261057e5760043580600052602060028152604060002090600481526040600020601383015490816000528252604060002033600052825260ff60146040600020940154166009811015610568576003036106d95783600052600382526040600020816000528252600760406000200154421161069b5783600052600382526040600020816000528252600360406000200133600052825261063860ff604060002054166149ca565b83600052600382526040600020906000528152600160406000200190336000525261066a60ff6040600020541661482b565b600460243591015533907f22d30f6da93667100b64d15e5ea70afec217caeab1008706f57bfa4deed12c63600080a3005b60405162461bcd60e51b815260048101839052601660248201527510dbdb5b5a5d1b595b9d081c1a185cd948195b99195960521b6044820152606490fd5b60405162461bcd60e51b815260048101839052602360248201527f52657175657374206e6f742079657420696e20636f6d6d69746d656e7420737460448201526261746560e81b6064820152608490fd5b3461057e5761073836614137565b908060005260209160028352604060002091600384526040600020826000528452600260406000200133600052845260ff6040600020541615610946576009830154601084015480600302906003820403610930576107979042614313565b11156108c55760ff60148401541660098110156105685760020361086c576000928492610828928552600484526040852090855283526040842033855283526107e960ff60066040872001541661486d565b83546016919091015460405163a9059cbb60e01b815233600482015260248101919091529384926001600160a01b039092169183919082906044820190565b03925af180156108605761083857005b8161085792903d10610859575b61084f818361402a565b8101906143f1565b005b503d610845565b6040513d6000823e3d90fd5b60405162461bcd60e51b815260048101859052602b60248201527f52657175657374204d75737420626520696e2063686f6f73696e67207665726960448201526a666965727320737461746560a81b6064820152608490fd5b60405162461bcd60e51b815260048101859052603f60248201527f5374696c6c20656e6f7567682074696d6520746f20706572666f726d20726f7560448201527f6e64206265666f726520766572696669636174696f6e20646561646c696e65006064820152608490fd5b634e487b7160e01b600052601160045260246000fd5b60405162461bcd60e51b815260048101859052602760248201527f596f7520617265206e6f742074686520766572696669657220666f72207468696044820152661cc81c9bdd5b9960ca1b6064820152608490fd5b3461057e57606036600319011261057e576004356044358160005260206002815260406000209160018060a01b03600f840154163303610b53578360005260038252604060002090601384015491826000528352600760406000200154421115610b0e57846000526003835260406000208260005283526008604060002001544211610ac9576040519183830192828452600160f81b60408201526021815260608101938185106001600160401b03861117610ab3577f4b8ecdcde49a7d4d879a4bf5a6cc37c7086e65774f161d4bf99c01aaa1882f8996604096608094601493888a5285519020918b60005260038152896000209160005252600c88600020015501600460ff1982541617905560243584520152a2005b634e487b7160e01b600052604160045260246000fd5b60405162461bcd60e51b815260048101849052601b60248201527f50726f76696465722072657665616c20706861736520656e64656400000000006044820152606490fd5b60405162461bcd60e51b815260048101849052601a60248201527f436f6d6d69746d656e74207068617365206e6f7420656e6465640000000000006044820152606490fd5b60405162461bcd60e51b815260048101839052603260248201527f4f6e6c7920746865206d61696e2070726f76696465722063616e2072657665616044820152710d840e8d0ca40d6caf240c2dcc840d0c2e6d60731b6064820152608490fd5b3461057e5760208060031936011261057e576004359081600052600281526040600020610be66008820154421115614320565b600f810180546001600160a01b0393908416610d97576015830154600054604051636eb1769f60e11b8152336004820152306024820152919516908281604481855afa90811561086057600091610d6a575b506040516370a0823160e01b8152336004820152908382602481865afa91821561086057600092610d39575b509186610c8581610cb594610c7e60009b899810156148c6565b10156148c6565b6040516323b872dd60e01b8152336004820152306024820152604481019190915296879283919082906064820190565b03925af1801561086057601494610cd592600092610d1c575b50506148c6565b336001600160601b0360a01b82541617905501600160ff1982541617905533907f3c84569ae9be7c8e6e8edf0c0cbeb7e00cf9cb4d9b67849728be8ab96e09bec1600080a3005b610d329250803d106108595761084f818361402a565b8680610cce565b9150918382813d8311610d63575b610d51818361402a565b8101031261057e579051909186610c64565b503d610d47565b90508281813d8311610d90575b610d81818361402a565b8101031261057e575187610c38565b503d610d77565b6064906040519062461bcd60e51b82526004820152601960248201527f50726f766964657220616c72656164792073656c6563746564000000000000006044820152fd5b3461057e57610120610dec36614137565b60405191610df983613fd8565b6000835260006020840152600060408401526000606084015260006080840152600060a0840152600060c0840152600060e08401526000610100809401526000526003602052604060002090600052602052604060002090600482015491600581015490600681015460078201546008830154600984015491600a85015493600c600b8701549601549688604051610e9081613fd8565b8b81526020810192835260408101938452606081019485526080810195865260a0810196875260c0810197885260e0810198895201978852604051998a525160208a01525160408901525160608801525160808701525160a08601525160c08501525160e08401525190820152f35b3461057e57608036600319011261057e5760043560249081359182151580930361057e5760449081356064948535958560005260209660028852604060002094600393848a526040600020956013880196875490816000528c526008604060002001544211156112c9578a600052868c526040600020816000528c526009604060002001544211611292578a600052868c526040600020816000528c5286604060002001336000528c5260ff6040600020541615611250578a600052868c526040600020816000528c526001604060002001336000528c52610fe860ff6040600020541661482b565b8a60005260048c526040600020906000528b526040600020336000528b526040600020928684019586549a60ff8c16611210578d604051908101908582528860408201523360601b6060820152605481526110428161400f565b5190206004870154036111d85750506040518c8101918383528460f81b60408301526021825260608201908282106001600160401b038311176111c457509260149997959260059b999795928c9560405251902095869584549260018601556002850155600160ff19809e16179055339160ff60a01b9060a01b16906affffffffffffffffffffff60a81b1617178155015587600052818952604060002083546000528952604060002081600052808a52604060002061110281546148b7565b905581600052808a5260406000205491600b82019283549081811460001461117b5750505050508660005287526040600020905460005286526000600a6040822001555b01918254161790557fb59f6416758d4763386b2c83d12c7c643131c90beff0caea486f303510702ce3604051924284523393a3005b95929491939511611191575b5050505050611146565b896000528a5260406000209054600052895280600a60406000200155600052875260406000205490558680808080611187565b634e487b7160e01b60009081526041600452fd5b74496e76616c69642072657665616c2076616c75657360581b8e916015856040519462461bcd60e51b86526004860152840152820152fd5b7f436f6d6d69746d656e7420616c72656164792072657665616c656400000000008e91601b856040519462461bcd60e51b86526004860152840152820152fd5b60405162461bcd60e51b8152600481018d9052601f818601527f596f7520617265206e6f74207468652063686f73656e20766572696669657200818c01528690fd5b60405162461bcd60e51b8152600481018d90526012818601527114995d99585b081c1a185cd948195b99195960721b818c01528690fd5b60405162461bcd60e51b8152600481018d9052601f818601527f50726f76696465722072657665616c207068617365206e6f7420656e64656400818c01528690fd5b3461057e5760208060031936011261057e57600435908160005260028152604060002090600982015442101580611486575b80611477575b15611420576113bb90600b83019260ff19936001858254161790558160018060a01b03806000541690600f84015416906113866015850154600186015490614313565b60405163a9059cbb60e01b81526001600160a01b03909316600484015260248301529094859190829060009082906044820190565b03925af191821561086057600693601493611402575b505001918254161790557f953601eba1acf6d4769af39f3986a5be6acd796655930c93832c2f239fbccabf600080a2005b8161141892903d106108595761084f818361402a565b5085806113d1565b6084906040519062461bcd60e51b82526004820152602a60248201527f566572696669636174696f6e20446561646c696e6520686173206e6f7420626560448201526932b7103830b9b9b2b21760b11b6064820152fd5b5060ff600b8301541615611343565b5060ff6014830154166009811015610568576007141561133d565b3461057e5760208060031936011261057e5760043580600052600282526040600020600d8101918254600483019081548103611b0a5760ff600b85015460081c1615611abb57600c840190815411611a6a57600984015493601081015460039581870291878304036109305761151a6115219242614313565b1115614907565b8360005284875260406000206013820190815490816000528952600160406000200133600052895260ff60406000205416611a2557856000528689526040600020906000528852600160406000200133600052885260406000209660ff199760018982541617905560198301948986548654811060001461194f57505054906115ac8654809361466b565b906040518b8101904282524460408201523360601b6060820152605481526115d38161400f565b519020928215611939576116e59461164b6115f4836116d5968e9806614313565b61162d6116018287614979565b90546001600160a01b039991821b1c8916958991906116209089614979565b9054911b1c169186614979565b90919060018060a01b038084549260031b9316831b921b1916179055565b61165a8261162d8b5486614979565b88548d8b7f441ea878e9821f31af14375bef585bac76bbbde0e10feddc036673243d01a1d7888f61168b868a614979565b9054911b1c169260128c015494604051908152a4896000528a8d52604060002090546000528c5289604060002001906000528b52604060002060018b825416179055865490614979565b905490881b1c16600e83016149a7565b6116f9601760168301549201918254614313565b90555b8154916001830180931161093057829055541461171557005b8060005260028452604060002090601282018054601184015411156118f4576009830154601084019081548087029087820403610930576117569042614313565b10156118955760149495967f27e90e135bb91bf6706a23381e6d0d480f8bb7d002d6e9a197b432b7b654245f9260609285600052888352604060002090601388019182546000528452426006604060002001556117b4815442614313565b876000528a85526040600020835460005285526007604060002001558660005289845260406000208254908160005285526117f9600760406000200154835490614313565b90886000528b865260406000209060005285526008604060002001558660005289845261183f604060002091835492836000528652600860406000200154905490614313565b90876000528a8552604060002090600052845260096040600020015585600052888352604060002090546000528252600760406000200154905490604051924284528301526040820152a2018054909216179055005b60405162461bcd60e51b815260048101889052603160248201527f566572696669636174696f6e20446561646c696e652068617320706173736564604482015270081d1bc81cdd185c9d0818481c9bdd5b99607a1b6064820152608490fd5b60405162461bcd60e51b815260048101879052601e60248201527f416c6c206c61796572732068617665206265656e2070726f63657373656400006044820152606490fd5b634e487b7160e01b600052601260045260246000fd5b60169194508392506119b5611968826119f39896614979565b92908c60018060a01b0394859254911b1c166012870154908c7fd2673c2f320637ecd6e1e7a21780cb318c5a6c5b49398f8c5ae9d0ae0aad47438a604051868152a4826000541694614979565b9054908b1b1c1692015491600060405180968195829463a9059cbb60e01b84526004840160209093929193604081019460018060a01b031681520152565b03925af1801561086057611a08575b506116fc565b611a1e90873d89116108595761084f818361402a565b5086611a02565b60405162461bcd60e51b8152600481018a9052601e60248201527f56657269666965722068617320616c72656164792074726967676572656400006044820152606490fd5b60405162461bcd60e51b815260048101879052602360248201527f4e6f7420656e6f7567682076657269666965727320746f2063686f6f73652066604482015262726f6d60e81b6064820152608490fd5b60405162461bcd60e51b815260048101879052602160248201527f5265717565737420686173206e6f74206265656e20636f6d70757465642079656044820152601d60fa1b6064820152608490fd5b60405162461bcd60e51b815260048101879052602160248201527f5665726966696572206c69737420686173206e6f74206265656e2066696c6c656044820152601960fa1b6064820152608490fd5b3461057e57611b6736614137565b9060005260036020526040600020906000526020526101206040600020600481015490600581015490600681015460078201546008830154600984015491600a85015493600c600b87015496015496604051988952602089015260408801526060870152608086015260a085015260c084015260e0830152610100820152f35b3461057e57611bf536614137565b816000526020600281526040600020906003918282526040600020846000528252611c2a600960406000200154421015614396565b8460005282825260406000208460005282528260406000200133600052825260ff611c5b81604060002054166149ca565b856000526004835260406000208560005283526040600020336000528352806006604060002001541661215c576013820193845486116120f15760018610612094578660005280845260406000208660005284526001604060002001336000528452611ccd826040600020541661482b565b86600052600484526040600020866000528452604060002033600052845260066040600020019060ff1991600183825416179055876000528085526040600020876000528552600a604060002001548015600014611da0575050600080546016949094015460405163a9059cbb60e01b815233600482015260248101919091529385935084925060449183916001600160a01b03165af1801561086057611d82575b50505414611d7957005b61085790614adb565b81611d9892903d106108595761084f818361402a565b508380611d6f565b9092958860009998939596995260048952604060002083600052895260406000203360005289526005604060002001548214611fe2575b5492828414611de257005b600088815290895260408082208483528a529020600c015414611e25575050506014015491925016600981101561056857600703611e1c57005b61085790614678565b601284929394019260118454930154916000198301838111610930578403611fad5750505050611e5581546148b7565b90558260005260028452604060002093601485019280845416600981101561056857600714611f6857600b8601908154908116611f2357958291600185611ec39798991617905560018060a01b03611386816000541691600f84015416926001601582015491015490614313565b03925af192831561086057600693611f05575b50508254161790557f953601eba1acf6d4769af39f3986a5be6acd796655930c93832c2f239fbccabf600080a2005b81611f1b92903d106108595761084f818361402a565b508480611ed6565b60405162461bcd60e51b815260048101849052601c60248201527f5265717565737420697320616c726561647920636f6d706c65746564000000006044820152606490fd5b60405162461bcd60e51b815260048101839052601760248201527f5265717565737420697320756e7375636365737366756c0000000000000000006044820152606490fd5b9297509294509250149081611fd7575b50611fc457005b611fd0610857936148b7565b9055614adb565b905083141584611fbd565b600089612062886120386120268d612003600c60168601549501548561436c565b9087528a8652604087208a885286526040872089885286526040872054906148ad565b85546001600160a01b03169290614313565b60405163a9059cbb60e01b8152336004820152602481019190915293849283919082906044820190565b03925af1801561086057612077575b50611dd7565b61208d908a3d8c116108595761084f818361402a565b5089612071565b60405162461bcd60e51b815260048101859052602f60248201527f526f756e64206e756d626572206d75737420626520677265617465722074686160448201526e6e206f7220657175616c20746f203160881b6064820152608490fd5b60405162461bcd60e51b815260048101859052603a60248201527f726f756e64206e756d206d757374206265206c657373207468616e206f72206560448201527f7175616c20746f20726571756573742e726f756e64496e6465780000000000006064820152608490fd5b60405162461bcd60e51b815260048101849052602b60248201527f596f75206861766520616c7265616479206265656e207061696420666f72207660448201526a32b934b334b1b0ba34b7b760a91b6064820152608490fd5b3461057e57602036600319011261057e57600435600052600260205260406000206102005260018060a01b036102005154166123a3600161020051015460026102005101546101405260036102005101546101605260046102005101546101a05261222560066102005101614187565b92600861020051015461012052600961020051015493600a610200510154600b610200510154600c61020051015460018060a01b03600f610200510154169060ff60106102005101549360116102005101549561233160126102005101549860136102005101549a856014610200510154169c6015610200510154608052601661020051015460a052601761020051015460e05260186102005101546101e05260196102005101546101c052601a61020051015461018052601b6102005101546101005260405160c0526103209160c05152602060c051015261014051604060c051015261016051606060c05101526101a051608060c05101528060a060c051015260c051019061422c565b9b6101205160c08051015260e060c051015261010060c0510152818116151561012060c051015260081c16151561014060c051015261016060c051015261018060c05101526101a060c05101526101c060c05101526101e060c051015261020060c051015261022060c051019061426c565b60805161024060c051015260a05161026060c051015260e05161028060c05101526101e0516102a060c05101526101c0516102c060c0510152610180516102e060c05101526101005161030060c051015260c051900360c051f35b3461057e5760208060031936011261057e5760043590816000526002815260406000209060ff600b83015460081c161561282f57600f8201546001600160a01b039290831633146127ce57600d8101908154936004820194855411156127905760ff6014830154166009811015610568576002036126ff57600054604051636eb1769f60e11b81523360048201523060248201529116908481604481855afa908115610860576000916126d2575b506040516370a0823160e01b8152336004820152908582602481865afa801561086057869260009161269f575b5092610c7e6124f86125289360009660168901549384809310156148c6565b6040516323b872dd60e01b8152336004820152306024820152604481019190915293849283919082906064820190565b03925af180156108605761254491600091612682575b506148c6565b6009810154601082015490816003029160038304036109305761151a61256a9242614313565b84600052600383526040600020601382015490816000528452600260406000200133600052845260ff6040600020541661263d57906012918660005260038552604060002090600052845260026040600020013360005284526040600020600160ff198254161790556125dd33846149a7565b015492604051918433877f9e9159f67684b4639ef3d20a0878e965d2fa78dc33561fadb2485cd3d3447abf600080a45490541461261657005b7fac6c772803856f8be288c38a92349502c9d976deccefb05524c4eafedf049aeb928152a2005b60405162461bcd60e51b815260048101859052601860248201527f566572696669657220616c7265616479206170706c69656400000000000000006044820152606490fd5b6126999150853d87116108595761084f818361402a565b8761253e565b8381939492503d83116126cb575b6126b7818361402a565b8101031261057e5751859190610c7e6124d9565b503d6126ad565b90508481813d83116126f8575b6126e9818361402a565b8101031261057e5751876124ac565b503d6126df565b60405162461bcd60e51b815260048101859052605960248201527f56657269666965722063616e6e6f74206170706c7920666f722076657269666960448201527f636174696f6e2e2052657175657374207374617465206d75737420626520696e60648201527f2063686f6f73696e672076657269666965727320737461746500000000000000608482015260a490fd5b60405162461bcd60e51b815260048101859052601660248201527515995c9a599a595c881b1a5b5a5d081c995858da195960521b6044820152606490fd5b60405162461bcd60e51b815260048101839052603360248201527f546865206d61696e2070726f76696465722063616e6e6f74206170706c79207460448201527237903132b1b7b6b29030903b32b934b334b2b960691b6064820152608490fd5b6064906040519062461bcd60e51b82526004820152601860248201527f52657175657374206e6f742079657420636f6d707574656400000000000000006044820152fd5b3461057e57600036600319011261057e576000546040516001600160a01b039091168152602090f35b3461057e5761018036600319011261057e576084356001600160401b03811161057e576128cd9036906004016140b8565b60a4356001600160401b03811161057e576128ec903690600401614062565b906128fc61016435604435614313565b8060001981011161093057612919906101643590600019016148ad565b906129328261292d6101243560243561436c565b61436c565b9261293f84600435614313565b60036064351061361357600054604051636eb1769f60e11b81523360048201523060248201526001600160a01b0390911690602081604481855afa908115610860576000916135e1575b506040516370a0823160e01b8152336004820152602081602481865afa9182156108605784916000936135aa575b50106135495782116134ea576040516323b872dd60e01b81523360048201523060248201526044810183905290602090829060649082906000905af1908115610860576000916134cb575b5015613495574260c435111561342a576101043560036101043502046003146101043515171561093057612a47612a3f600361010435028661436c565b60c435614313565b60e43511156133af57610124356064351061331e57604051612a6881613ff4565b6000815260405192612a7984613ff4565b6000845260405194612a8a86613ff4565b60008652600435600a6004350204600a146004351517156109305760405197612ab289613fbc565b33895260043560208a015260408901526044356060890152606435608089015260a088015260c087015260e086015260c43561010086015260e43561012086015261014085015260006101608501526000610180850152610124356101a08501526101c08401526101e08301526000610200830152610104356102208301526102408201526000610260820152600061028082015260006102a08201526064600a60043502046102c08201526024356102e082015260006103008201526101443561032082015260006103408201526000610360820152610164356103808201526001546000526002602052604060002060018060a01b038251166001600160601b0360a01b8254161781556020820151600182015560408201516002820155606082015160038201556080820151600482015560a0820151805190600160401b8211610ab35760058301548260058501558083106132a5575b5060200190600583016000526020600020916000905b82821061318c57858560c08201519182516001600160401b038111610ab357612c4e600684015461414d565b601f8111613157575b506020601f82116001146130e9578190612c8a9394956000926130de575b50508160011b916000199060031b1c19161790565b60068301555b60e0810151805190600160401b8211610ab3576007840154826007860155808310613066575b5060200190600784016000526020600020916000905b828210612f4057858561010081015160088301556101208101516009830155610140810151600a830155600b82016101608201511515815460ff61ff00610180860151151560081b1692169061ffff1916171790556101a0810151600c8301556101c08101518051906001600160401b038211610ab357600160401b8211610ab357602090600d85015483600d870155808410612f20575b5001600d8401600052602060002060005b838110612f035785856101e08101518051906001600160401b038211610ab357600160401b8211610ab357602090600e85015483600e870155808410612ee3575b5001600e8401600052602060002060005b838110612ec6578585600f820160018060a01b03610200830151166001600160601b0360a01b825416179055610220810151601083015561024081015160118301556102608101516012830155610280810151601383015560148201906102a081015190600982101561056857601b926103809260ff801983541691161790556102c081015160158501556102e08101516016850155610300810151601785015561032081015160188501556103408101516019850155610360810151601a8501550151910155612e996001546148b7565b8060015533907f233bb55fd57b21b8a3d15c9ad8fbbab435fe4cf2865cc654f6a57d9d4d8cda54600080a3005b82516001600160a01b031681830155602090920191600101612dc7565b612efd90600e87016000528484600020918201910161437f565b85612db6565b82516001600160a01b031681830155602090920191600101612d75565b612f3a90600d87016000528484600020918201910161437f565b85612d64565b80518051906001600160401b038211610ab357612f5d865461414d565b601f8111613029575b50602090601f8311600114612fb95792612f9f83600195946020948796600092612fae5750508160011b916000199060031b1c19161790565b87555b01940191019092612ccc565b015190508c80612c75565b908660005260206000209160005b601f1985168110613011575083602093600196938796938794601f19811610612ff8575b505050811b018755612fa2565b015160001960f88460031b161c191690558b8080612feb565b91926020600181928685015181550194019201612fc7565b61305690876000526020600020601f850160051c8101916020861061305c575b601f0160051c019061437f565b88612f66565b9091508190613049565b600785016000526020600020908382015b8183018110613087575050612cb6565b806130946001925461414d565b806130a1575b5001613077565b601f811183146130b75750600081555b8861309a565b6000908282526130d5601f60208420920160051c820185830161437f565b818355556130b1565b015190508580612c75565b6006840160005260206000209060005b601f198416811061313f5750600193949583601f19811610613126575b505050811b016006830155612c90565b015160001960f88460031b161c19169055848080613116565b9091602060018192858a0151815501930191016130f9565b61318690600685016000526020600020601f840160051c8101916020851061305c57601f0160051c019061437f565b84612c57565b80518051906001600160401b038211610ab3576131a9865461414d565b90601f9182811161326b575b5060209183116001146131fb57926131ec83600195946020948796600092612fae5750508160011b916000199060031b1c19161790565b87555b01940191019092612c22565b908660005260206000209160005b601f1985168110613253575083602093600196938796938794601f1981161061323a575b505050811b0187556131ef565b015160001960f88460031b161c191690558b808061322d565b91926020600181928685015181550194019201613209565b613296908860005260206000208480870160051c8201926020881061329c575b0160051c019061437f565b896131b5565b9250819261328b565b600584016000526020600020908382015b81830181106132c6575050612c0c565b806132d36001925461414d565b806132e0575b50016132b6565b601f9081811184146132f9575050600081555b886132d9565b61331560009284845260208420920160051c820185830161437f565b818355556132f3565b60405162461bcd60e51b815260206004820152605d60248201527f4e6f7420656e6f7567682076657269666965727320746f2063686f6f7365206660448201527f726f6d2e206e756d566572696669657273206d7573742062652067726561746560648201527f72207468616e206e756d56657269666965727353616d706c6553697a65000000608482015260a490fd5b60405162461bcd60e51b815260206004820152604760248201527f566572696669636174696f6e20646561646c696e65206d75737420626520737560448201527f6666696369656e7420656e6f75676820666f7220616c6c20726f756e64732072606482015266195c5d5a5c995960ca1b608482015260a490fd5b60405162461bcd60e51b815260206004820152603c60248201527f436f6d7075746174696f6e616c20646561646c696e65206d757374206265206760448201527f726561746572207468616e207468652063757272656e742074696d65000000006064820152608490fd5b60405162461bcd60e51b815260206004820152600e60248201526d14185e5b595b9d0819985a5b195960921b6044820152606490fd5b6134e4915060203d6020116108595761084f818361402a565b86612a02565b60405162461bcd60e51b815260206004820152603160248201527f496e73756666696369656e742062616c616e636520617661696c61626c6520746044820152701bc818dbdb991d58dd081c995c5d595cdd607a1b6064820152608490fd5b60405162461bcd60e51b815260206004820152603360248201527f496e73756666696369656e7420616c6c6f77616e636520617661696c61626c65604482015272081d1bc818dbdb991d58dd081c995c5d595cdd606a1b6064820152608490fd5b915091506020813d6020116135d9575b816135c76020938361402a565b8101031261057e5783905191896129b7565b3d91506135ba565b90506020813d60201161360b575b816135fc6020938361402a565b8101031261057e575187612989565b3d91506135ef565b60405162461bcd60e51b815260206004820152601d60248201527f4174206c656173742033207665726966696572732072657175697265640000006044820152606490fd5b3461057e57600036600319011261057e576020604051600a8152f35b3461057e57600036600319011261057e576020600154604051908152f35b3461057e57602036600319011261057e5760405160043533817f1d961eb7779cdf87f83b3c5ca1e5a7b0b7832f5fc1f9b813fea6787daf0e884c600080a3600052600260205260406000209060ff600b830154166136f65750601a42910155600080f35b62461bcd60e51b815260206004820152602260248201527f526571756573742068617320616c7265616479206265656e20636f6d706c6574604482015261195960f21b6064820152608490fd5b3461057e57600036600319011261057e57602060405160038152f35b3461057e5761376d36614137565b9080600052602091600283526040600020916009830154601084015480600302906003820403610930576137a19042614313565b11156138c55780600052600384526040600020826000528452600260406000200133600052845260ff6040600020541615613844576000908152600384526040808220928252918452818120338083526002919091018552828220805460ff191690558154601690940154925163a9059cbb60e01b8152600481019190915260248101929092529091839183916001600160a01b03169082908160448101610828565b60405162461bcd60e51b815260048101859052604d60248201527f5665726966696572206861732065697468657220616c7265616479207265636960448201527f65766564207374616b652c206f7220646964206e6f74206170706c7920666f7260648201526c103b32b934b334b1b0ba34b7b760991b608482015260a490fd5b60405162461bcd60e51b815260048101859052602860248201527f566572696669636174696f6e20646561646c696e6520686173206e6f742079656044820152671d081c185cdcd95960c21b6064820152608490fd5b3461057e5761392936614137565b81600052602091600383526040600020826000528352600160406000200133600052835261395e60ff6040600020541661482b565b80600052600383526040600020826000528352600360406000200133600052835260ff60406000205416613a61578060005260048352604060002082600052835260406000203360005283526139bf60ff600660406000200154161561486d565b6000805482825260028552604080832060160154905163a9059cbb60e01b8152336004820152602481019190915291859183916044918391906001600160a01b03165af1801561086057613a44575b5060005260048252604060002090600052815260406000209033600052526006604060002001600160ff19825416179055600080f35b613a5a90843d86116108595761084f818361402a565b5083613a0e565b60405162461bcd60e51b815260048101849052602360248201527f43686f73656e2076657269666569722063616e6e6f742072657475726e207374604482015262616b6560e81b6064820152608490fd5b3461057e57602036600319011261057e57610857600435614678565b3461057e57602036600319011261057e57610857600435614409565b3461057e5760208060031936011261057e57600435908160005260028152604060002060ff601482015416600981101561056857600503613bfc5782600052600382526013604060002091015490816000528252613b52600960406000200154421015614396565b82600052600382526040600020816000528252600a604060002001549083600052600383526040600020906000528252600c6040600020015403613b995761085782614adb565b6084906040519062461bcd60e51b82526004820152603660248201527f50726f766964657220616e73776572206861736820646f6573206e6f74206d616044820152750e8c6d040dac2d4dee4d2e8f240ecdee8ca40d0c2e6d60531b6064820152fd5b60405162461bcd60e51b815260048101839052602a60248201527f52657175657374206e6f742079657420696e20636f6d6d69746d656e742072656044820152697665616c20737461746560b01b6064820152608490fd5b3461057e57604036600319011261057e5760246004356001600160401b03823581811161057e57613c899036906004016140b8565b82600052602060028152604060002092601a840193845460028101809111613fa7574210613f3d57613cc16008820154421115614320565b600f8101546001600160a01b03163303613ee75780600b6007920161010061ff00198254161790550190835193600160401b8511613ed25783908354868555808710613e58575b506000938452848420939891015b858910613d295742875561085788614adb565b8051805190848211613e435790869291613d43875461414d565b90601f91828111613e0b575b5084918311600114613d9d578260019593869593613d8393600092613d925750508160011b916000199060031b1c19161790565b87555b01940198019792613d16565b015190508f80612c75565b90601f9493941983169188600052846000209260005b818110613df35750916001969391858897969410613dda575b505050831b83018755613d86565b015160001960f88460031b161c191690558d8080613dcc565b8284015185558b966001909501949384019301613db3565b613e34908960005286600020600585808801821c8301938a8910613e3a575b01901c019061437f565b8d613d4f565b93508293613e2a565b83634e487b7160e01b60005260416004526000fd5b84600052868360002091820191015b818110613e745750613d08565b600191929350613e84815461414d565b80613e95575b500190859291613e67565b601f908181118414613eae575050600081555b8b613e8a565b613ec96000928484528a8420920160051c820185830161437f565b81835555613ea8565b87634e487b7160e01b60005260416004526000fd5b60405162461bcd60e51b8152600481018490526029818901527f4f6e6c792063686f73656e2070726f76696465722063616e20636f6d706c657460448201526819481c995c5d595cdd60ba1b6064820152608490fd5b60405162461bcd60e51b815260048101849052603d818901527f4d75737420776169742032207365636f6e6473206265666f726520726571756560448201527f73742063616e206265206d61726b656420617320636f6d706c657465640000006064820152608490fd5b87634e487b7160e01b60005260116004526000fd5b6103a081019081106001600160401b03821117610ab357604052565b61012081019081106001600160401b03821117610ab357604052565b602081019081106001600160401b03821117610ab357604052565b608081019081106001600160401b03821117610ab357604052565b90601f801991011681019081106001600160401b03821117610ab357604052565b6001600160401b038111610ab35760051b60200190565b81601f8201121561057e578035906001600160401b038211610ab35760405192614096601f8401601f19166020018561402a565b8284526020838301011161057e57816000926020809301838601378301015290565b81601f8201121561057e578035916020916140d28461404b565b936140e0604051958661402a565b808552838086019160051b8301019280841161057e57848301915b84831061410b5750505050505090565b82356001600160401b03811161057e57869161412c84848094890101614062565b8152019201916140fb565b604090600319011261057e576004359060243590565b90600182811c9216801561417d575b602083101461416757565b634e487b7160e01b600052602260045260246000fd5b91607f169161415c565b9060405191826000825461419a8161414d565b9081845260209460019160018116908160001461420a57506001146141cb575b5050506141c99250038361402a565b565b600090815285812095935091905b8183106141f25750506141c993508201013880806141ba565b855488840185015294850194879450918301916141d9565b925050506141c994925060ff191682840152151560051b8201013880806141ba565b919082519283825260005b848110614258575050826000602080949584010152601f8019910116010190565b602081830181015184830182015201614237565b9060098210156105685752565b90808251908181526020809101926020808460051b8301019501936000915b8483106142a85750505050505090565b90919293949584806142c6600193601f198682030187528a5161422c565b9801930193019194939290614298565b90815180825260208080930193019160005b8281106142f6575050505090565b83516001600160a01b0316855293810193928101926001016142e8565b9190820180921161093057565b1561432757565b60405162461bcd60e51b815260206004820152601b60248201527f436f6d7075746174696f6e20646561646c696e652070617373656400000000006044820152606490fd5b8181029291811591840414171561093057565b81811061438a575050565b6000815560010161437f565b1561439d57565b60405162461bcd60e51b815260206004820152602660248201527f636f6d6d69746d656e7420737461676520686173206e6f742079657420636f6d6044820152651c1b195d195960d21b6064820152608490fd5b9081602091031261057e5751801515810361057e5790565b600081815260026020908152604080832080546001600160a01b03908116939192903385900361461b57600b84019460ff8654166145d757839082600f870154161561459d575050600884015442118061458e575b156145345790826144b69261447c600a870154601588015490614313565b90808954169087541689855180978195829463a9059cbb60e01b84526004840160209093929193604081019460018060a01b031681520152565b03925af190811561452b5750926008926014927f1523a7600668f21efd095a2e4b78dc32da863f11b5b54ed0043034aeefd6442c97969561450d575b505060ff1993600185825416179055019182541617905580a2565b8161452392903d106108595761084f818361402a565b5038806144f2565b513d87823e3d90fd5b815162461bcd60e51b815260048101849052602d60248201527f436f6d7075746174696f6e20646561646c696e6520686173206e6f742079657460448201526c081899595b881c995858da1959609a1b6064820152608490fd5b5060ff855460081c161561445e565b8754600a870154855163a9059cbb60e01b81526001600160a01b0390931660048401526024830152909392849116818981604481016144b6565b825162461bcd60e51b815260048101859052601960248201527f5265717565737420616c726561647920636f6d706c65746564000000000000006044820152606490fd5b815162461bcd60e51b8152600481018490526024808201527f4f6e6c792074686520636f6e73756d65722063616e2077697468647261772066604482015263756e647360e01b6064820152608490fd5b9190820391821161093057565b600081815260026020908152604080832060038352818420601382015485528352818420600a810154600c90910154929391921415806147fc575b156147a857614740601483019360ff19946007868254161790558260018060a01b0380885416908654169061470d6147026146f760018a015460158b015490614313565b60028a015490614313565b60178901549061466b565b845163a9059cbb60e01b81526001600160a01b0390931660048401526024830152909384919082908a9082906044820190565b03925af190811561452b575092600192600b927f6d55d799468c2d702d8ff65d462b4e8dbbc88c728431aee69b205a3964362f0797969561478a575b5050019182541617905580a2565b816147a092903d106108595761084f818361402a565b50388061477c565b60849083519062461bcd60e51b82526004820152602860248201527f5265717565737420697320616c726561647920696e20756e7375636365737366604482015267756c20737461746560c01b6064820152fd5b5060ff601483015416600981101561481757600714156146b3565b634e487b7160e01b85526021600452602485fd5b1561483257565b60405162461bcd60e51b81526020600482015260136024820152722cb7ba903234b2103737ba103a3934b3b3b2b960691b6044820152606490fd5b1561487457565b60405162461bcd60e51b8152602060048201526011602482015270105b1c9958591e481899595b881c185a59607a1b6044820152606490fd5b8115611939570490565b60001981146109305760010190565b156148cd57565b60405162461bcd60e51b8152602060048201526012602482015271496e73756666696369656e74207374616b6560701b6044820152606490fd5b1561490e57565b60405162461bcd60e51b815260206004820152603d60248201527f4e6f7420656e6f7567682074696d6520746f20706572666f726d20726f756e6460448201527f206265666f726520766572696669636174696f6e20646561646c696e650000006064820152608490fd5b80548210156149915760005260206000200190600090565b634e487b7160e01b600052603260045260246000fd5b90815491600160401b831015610ab3578261162d9160016141c995018155614979565b156149d157565b60405162461bcd60e51b815260206004820152602d60248201527f596f7520617265206e6f74207468652063686f73656e2076657269666965722060448201526c1a5b881d1a1a5cc81c9bdd5b99609a1b6064820152608490fd5b908154614a388161404b565b92614a46604051948561402a565b818452600090815260208082208186015b848410614a65575050505050565b6001838192614a7385614187565b815201920193019290614a57565b90604051918281549182825260209260208301916000526020600020936000905b828210614ab8575050506141c99250038361402a565b85546001600160a01b031684526001958601958895509381019390910190614aa2565b6000818152600260205260408120600f8101546001600160a01b031615614c025781604051614b0981613ff4565b52600d8101805483825580614be9575b50825281604051614b2981613ff4565b52600e8101805483825580614bd0575b50825260148101600260ff198254161790556013810180549060018201809211614bbc576020927f7cdb7f0bd04877caf5dda7a202130926cdd67ad312dada203661ff6d88068434949260129255826019820155857f2d4e685f9af8cf88fb3e3447f1ee8e4e5e68423a2c393dc8d6e9784aa67ddafa6040519480a201548152a2565b634e487b7160e01b84526011600452602484fd5b81845260208420614be39181019061437f565b38614b39565b81845260208420614bfc9181019061437f565b38614b19565b60405162461bcd60e51b815260206004820152602760248201527f4d61696e2070726f766964657220686173206e6f7420796574206265656e2073604482015266195b1958dd195960ca1b6064820152608490fdfea26469706673582212202325558377b32b314a7514cefb423b1887a8ea20371e5ee06eadc981d63a284664736f6c63430008170033","linkReferences":{}},"methodIdentifiers":{"MIN_VERIFIERS()":"53e2ba17","PROVIDER_STAKE_PERCENTAGE()":"5e16a9d8","alertVerifiersOfCompletedRequest(uint256)":"58042f62","applyForVerificationForRequest(uint256)":"6d8f9a0e","calculateMajorityAndReward(uint256,uint256)":"847ada57","cancelRequest(uint256)":"3015394c","chooseVerifiersForRequestTrigger(uint256)":"951c5ce2","compToken()":"6605dfa7","completeRequest(uint256,string[])":"0625f161","createRequest(uint256,uint256,uint256,uint256,string[],string,uint256,uint256,uint256,uint256,uint256,uint256)":"5f748f34","getRequestDetails(uint256)":"f34d4c63","getRoundDetails(uint256,uint256)":"ddf3532c","providerFailure(uint256)":"3295845c","providerSuccessCall(uint256)":"b10ceb59","requestCount()":"5badbe4c","requests(uint256)":"81d12c58","returnStake(uint256,uint256)":"38488abc","returnStakeDueToTimeout(uint256,uint256)":"e2e7cbe6","revealCommitment(uint256,bool,bytes32,bytes32)":"bfdb3451","revealProviderKeyAndHash(uint256,bytes32,bytes32)":"e20fb7a1","roundDetails(uint256,uint256)":"8ea49eca","selectRequest(uint256)":"e03ad0d1","startNextRound(uint256)":"09008563","submitCommitment(uint256,bytes32)":"e6a3d9dc","verificationDeadlinePassedForVeryfying(uint256,uint256)":"4beda221"},"id":1}