{"abi":[{"type":"constructor","inputs":[{"name":"compTokenAddress","type":"address","internalType":"address"},{"name":"compNFTAddress","type":"address","internalType":"address"},{"name":"HandlerFunctionsCompMarketAdd","type":"address","internalType":"address"}],"stateMutability":"nonpayable"},{"type":"function","name":"applyForVerificationForRequest","inputs":[{"name":"requestId","type":"uint256","internalType":"uint256"}],"outputs":[],"stateMutability":"nonpayable"},{"type":"function","name":"calculateMajorityAndReward","inputs":[{"name":"requestId","type":"uint256","internalType":"uint256"},{"name":"roundNum","type":"uint256","internalType":"uint256"}],"outputs":[],"stateMutability":"nonpayable"},{"type":"function","name":"cancelRequest","inputs":[{"name":"requestId","type":"uint256","internalType":"uint256"}],"outputs":[],"stateMutability":"nonpayable"},{"type":"function","name":"chooseVerifiersForRequestTrigger","inputs":[{"name":"requestId","type":"uint256","internalType":"uint256"}],"outputs":[],"stateMutability":"nonpayable"},{"type":"function","name":"compNFT","inputs":[],"outputs":[{"name":"","type":"address","internalType":"contract CompNFT"}],"stateMutability":"view"},{"type":"function","name":"compToken","inputs":[],"outputs":[{"name":"","type":"address","internalType":"contract IERC20"}],"stateMutability":"view"},{"type":"function","name":"completeRequest","inputs":[{"name":"requestId","type":"uint256","internalType":"uint256"},{"name":"outputFileURLs","type":"string[]","internalType":"string[]"}],"outputs":[],"stateMutability":"nonpayable"},{"type":"function","name":"createRequest","inputs":[{"name":"paymentForProvider","type":"uint256","internalType":"uint256"},{"name":"paymentPerRoundForVerifiers","type":"uint256","internalType":"uint256"},{"name":"numOperations","type":"uint256","internalType":"uint256"},{"name":"numVerifiers","type":"uint256","internalType":"uint256"},{"name":"inputFileURLs","type":"string[]","internalType":"string[]"},{"name":"operationFileURL","type":"string","internalType":"string"},{"name":"computationDeadline","type":"uint256","internalType":"uint256"},{"name":"verificationDeadline","type":"uint256","internalType":"uint256"},{"name":"timeAllocatedForVerification","type":"uint256","internalType":"uint256"},{"name":"numVerifiersSampleSize","type":"uint256","internalType":"uint256"},{"name":"protocolVersion","type":"uint256","internalType":"uint256"},{"name":"layerSize","type":"uint256","internalType":"uint256"},{"name":"hashOfInputFiles","type":"bytes32","internalType":"bytes32"},{"name":"stake","type":"uint256","internalType":"uint256"}],"outputs":[],"stateMutability":"nonpayable"},{"type":"function","name":"createRequestWithAllowedVerifiers","inputs":[{"name":"paymentForProvider","type":"uint256","internalType":"uint256"},{"name":"paymentPerRoundForVerifiers","type":"uint256","internalType":"uint256"},{"name":"numOperations","type":"uint256","internalType":"uint256"},{"name":"numVerifiers","type":"uint256","internalType":"uint256"},{"name":"inputFileURLs","type":"string[]","internalType":"string[]"},{"name":"operationFileURL","type":"string","internalType":"string"},{"name":"computationDeadline","type":"uint256","internalType":"uint256"},{"name":"verificationDeadline","type":"uint256","internalType":"uint256"},{"name":"timeAllocatedForVerification","type":"uint256","internalType":"uint256"},{"name":"numVerifiersSampleSize","type":"uint256","internalType":"uint256"},{"name":"protocolVersion","type":"uint256","internalType":"uint256"},{"name":"layerSize","type":"uint256","internalType":"uint256"},{"name":"hashOfInputFiles","type":"bytes32","internalType":"bytes32"},{"name":"stake","type":"uint256","internalType":"uint256"},{"name":"verifierVoteCount","type":"function","internalType":"function (address) view external returns (uint256)"}],"outputs":[],"stateMutability":"nonpayable"},{"type":"function","name":"handlerFunctions","inputs":[],"outputs":[{"name":"","type":"address","internalType":"contract HandlerFunctionsCompMarket"}],"stateMutability":"view"},{"type":"function","name":"isVerifierChosenForRound","inputs":[{"name":"requestID","type":"uint256","internalType":"uint256"},{"name":"roundNum","type":"uint256","internalType":"uint256"},{"name":"verifier","type":"address","internalType":"address"}],"outputs":[{"name":"","type":"bool","internalType":"bool"}],"stateMutability":"view"},{"type":"function","name":"providerFailure","inputs":[{"name":"requestId","type":"uint256","internalType":"uint256"}],"outputs":[],"stateMutability":"nonpayable"},{"type":"function","name":"providerPrivateKeys","inputs":[{"name":"","type":"uint256","internalType":"uint256"},{"name":"","type":"uint256","internalType":"uint256"}],"outputs":[{"name":"","type":"bool","internalType":"bool"}],"stateMutability":"view"},{"type":"function","name":"providerSuccessCall","inputs":[{"name":"requestId","type":"uint256","internalType":"uint256"}],"outputs":[],"stateMutability":"nonpayable"},{"type":"function","name":"requestCount","inputs":[],"outputs":[{"name":"","type":"uint256","internalType":"uint256"}],"stateMutability":"view"},{"type":"function","name":"requests","inputs":[{"name":"","type":"uint256","internalType":"uint256"}],"outputs":[{"name":"consumer","type":"address","internalType":"address"},{"name":"paymentForProvider","type":"uint256","internalType":"uint256"},{"name":"totalPaymentForVerifiers","type":"uint256","internalType":"uint256"},{"name":"numOperations","type":"uint256","internalType":"uint256"},{"name":"numVerifiers","type":"uint256","internalType":"uint256"},{"name":"operationFileURL","type":"string","internalType":"string"},{"name":"computationDeadline","type":"uint256","internalType":"uint256"},{"name":"verificationDeadline","type":"uint256","internalType":"uint256"},{"name":"totalPayment","type":"uint256","internalType":"uint256"},{"name":"completed","type":"bool","internalType":"bool"},{"name":"hasBeenComputed","type":"bool","internalType":"bool"},{"name":"numVerifiersSampleSize","type":"uint256","internalType":"uint256"},{"name":"mainProvider","type":"address","internalType":"address"},{"name":"timeAllocatedForVerification","type":"uint256","internalType":"uint256"},{"name":"layerCount","type":"uint256","internalType":"uint256"},{"name":"layerComputeIndex","type":"uint256","internalType":"uint256"},{"name":"roundIndex","type":"uint256","internalType":"uint256"},{"name":"state","type":"uint8","internalType":"enum ComputationMarket.RequestStates"},{"name":"stake","type":"uint256","internalType":"uint256"},{"name":"paymentPerRoundForVerifiers","type":"uint256","internalType":"uint256"},{"name":"totalPaidForVerification","type":"uint256","internalType":"uint256"},{"name":"protocolVersion","type":"uint256","internalType":"uint256"},{"name":"verifierSelectionCount","type":"uint256","internalType":"uint256"},{"name":"firstinitialisedTime","type":"uint256","internalType":"uint256"},{"name":"layerSize","type":"uint256","internalType":"uint256"},{"name":"hashOfInputFiles","type":"bytes32","internalType":"bytes32"}],"stateMutability":"view"},{"type":"function","name":"returnStake","inputs":[{"name":"requestId","type":"uint256","internalType":"uint256"},{"name":"roundNum","type":"uint256","internalType":"uint256"}],"outputs":[],"stateMutability":"nonpayable"},{"type":"function","name":"returnStakeDueToTimeout","inputs":[{"name":"requestId","type":"uint256","internalType":"uint256"},{"name":"roundNum","type":"uint256","internalType":"uint256"}],"outputs":[],"stateMutability":"nonpayable"},{"type":"function","name":"revealCommitment","inputs":[{"name":"requestId","type":"uint256","internalType":"uint256"},{"name":"agree","type":"bool","internalType":"bool"},{"name":"answer","type":"bytes32","internalType":"bytes32"},{"name":"nonce","type":"bytes32","internalType":"bytes32"}],"outputs":[],"stateMutability":"nonpayable"},{"type":"function","name":"revealProviderKeyAndHash","inputs":[{"name":"requestId","type":"uint256","internalType":"uint256"},{"name":"privateKey","type":"uint256","internalType":"uint256"},{"name":"initialisationVector","type":"uint256","internalType":"uint256"},{"name":"answerHash","type":"bytes32","internalType":"bytes32"}],"outputs":[],"stateMutability":"nonpayable"},{"type":"function","name":"roundDetails","inputs":[{"name":"","type":"uint256","internalType":"uint256"},{"name":"","type":"uint256","internalType":"uint256"}],"outputs":[{"name":"roundIndex","type":"uint256","internalType":"uint256"},{"name":"layerComputeIndex","type":"uint256","internalType":"uint256"},{"name":"verificationStartTime","type":"uint256","internalType":"uint256"},{"name":"commitEndTime","type":"uint256","internalType":"uint256"},{"name":"providerRevealEndTime","type":"uint256","internalType":"uint256"},{"name":"commitmentRevealEndTime","type":"uint256","internalType":"uint256"},{"name":"majorityVoteHash","type":"bytes32","internalType":"bytes32"},{"name":"majorityCount","type":"uint256","internalType":"uint256"},{"name":"mainProviderAnswerHash","type":"bytes32","internalType":"bytes32"},{"name":"commitsSubmitted","type":"uint256","internalType":"uint256"},{"name":"commitsRevealed","type":"uint256","internalType":"uint256"},{"name":"providerPrivateKey","type":"uint256","internalType":"uint256"},{"name":"providerInitialisationVector","type":"uint256","internalType":"uint256"}],"stateMutability":"view"},{"type":"function","name":"selectRequest","inputs":[{"name":"requestId","type":"uint256","internalType":"uint256"}],"outputs":[],"stateMutability":"nonpayable"},{"type":"function","name":"submitCommitment","inputs":[{"name":"requestId","type":"uint256","internalType":"uint256"},{"name":"computedHash","type":"bytes32","internalType":"bytes32"}],"outputs":[],"stateMutability":"nonpayable"},{"type":"function","name":"verificationDeadlinePassedForVeryfying","inputs":[{"name":"requestId","type":"uint256","internalType":"uint256"},{"name":"roundNum","type":"uint256","internalType":"uint256"}],"outputs":[],"stateMutability":"nonpayable"},{"type":"function","name":"verifications","inputs":[{"name":"","type":"uint256","internalType":"uint256"},{"name":"","type":"uint256","internalType":"uint256"},{"name":"","type":"address","internalType":"address"}],"outputs":[{"name":"verifier","type":"address","internalType":"address"},{"name":"agree","type":"bool","internalType":"bool"},{"name":"answer","type":"bytes32","internalType":"bytes32"},{"name":"nonce","type":"bytes32","internalType":"bytes32"},{"name":"revealed","type":"bool","internalType":"bool"},{"name":"computedHash","type":"bytes32","internalType":"bytes32"},{"name":"voteHash","type":"bytes32","internalType":"bytes32"},{"name":"verifierPaid","type":"bool","internalType":"bool"}],"stateMutability":"view"},{"type":"event","name":"AlertVerifiers","inputs":[{"name":"requestId","type":"uint256","indexed":true,"internalType":"uint256"},{"name":"provider","type":"address","indexed":false,"internalType":"address"},{"name":"verificationPrice","type":"uint256","indexed":false,"internalType":"uint256"},{"name":"verificationDeadline","type":"uint256","indexed":false,"internalType":"uint256"},{"name":"timeAllocatedForVerification","type":"uint256","indexed":false,"internalType":"uint256"},{"name":"numVerifiers","type":"uint256","indexed":false,"internalType":"uint256"}],"anonymous":false},{"type":"event","name":"AllCommitmentsRevealed","inputs":[{"name":"indexedrequestId","type":"uint256","indexed":false,"internalType":"uint256"},{"name":"roundNum","type":"uint256","indexed":true,"internalType":"uint256"}],"anonymous":false},{"type":"event","name":"CommitmentPhaseStarted","inputs":[{"name":"requestId","type":"uint256","indexed":true,"internalType":"uint256"},{"name":"startTime","type":"uint256","indexed":false,"internalType":"uint256"},{"name":"endTime","type":"uint256","indexed":false,"internalType":"uint256"},{"name":"layerComputeIndex","type":"uint256","indexed":false,"internalType":"uint256"}],"anonymous":false},{"type":"event","name":"CommitmentSubmitted","inputs":[{"name":"requestId","type":"uint256","indexed":true,"internalType":"uint256"},{"name":"verifier","type":"address","indexed":true,"internalType":"address"}],"anonymous":false},{"type":"event","name":"NoMajorityForRound","inputs":[{"name":"requestId","type":"uint256","indexed":true,"internalType":"uint256"},{"name":"layerComputeIndex","type":"uint256","indexed":false,"internalType":"uint256"}],"anonymous":false},{"type":"event","name":"ProviderResultSuccessfullyVerified","inputs":[{"name":"requestId","type":"uint256","indexed":true,"internalType":"uint256"}],"anonymous":false},{"type":"event","name":"ProviderResultUnsuccessful","inputs":[{"name":"requestId","type":"uint256","indexed":true,"internalType":"uint256"}],"anonymous":false},{"type":"event","name":"ProviderRevealed","inputs":[{"name":"requestId","type":"uint256","indexed":true,"internalType":"uint256"},{"name":"privateKey","type":"uint256","indexed":false,"internalType":"uint256"},{"name":"initialisationVector","type":"uint256","indexed":false,"internalType":"uint256"},{"name":"answerHash","type":"bytes32","indexed":false,"internalType":"bytes32"}],"anonymous":false},{"type":"event","name":"ProviderSelected","inputs":[{"name":"requestId","type":"uint256","indexed":true,"internalType":"uint256"},{"name":"provider","type":"address","indexed":true,"internalType":"address"}],"anonymous":false},{"type":"event","name":"ProviderSlashed","inputs":[{"name":"requestId","type":"uint256","indexed":true,"internalType":"uint256"},{"name":"provider","type":"address","indexed":true,"internalType":"address"}],"anonymous":false},{"type":"event","name":"RequestCancelled","inputs":[{"name":"requestId","type":"uint256","indexed":true,"internalType":"uint256"}],"anonymous":false},{"type":"event","name":"RequestCompletedByProvider","inputs":[{"name":"requestId","type":"uint256","indexed":true,"internalType":"uint256"},{"name":"provider","type":"address","indexed":true,"internalType":"address"}],"anonymous":false},{"type":"event","name":"RequestCreated","inputs":[{"name":"requestId","type":"uint256","indexed":true,"internalType":"uint256"},{"name":"consumer","type":"address","indexed":true,"internalType":"address"}],"anonymous":false},{"type":"event","name":"RevealCommitmentFailed","inputs":[{"name":"requestId","type":"uint256","indexed":false,"internalType":"uint256"},{"name":"newHashComputed","type":"bytes32","indexed":false,"internalType":"bytes32"},{"name":"oldHashComputed","type":"bytes32","indexed":false,"internalType":"bytes32"}],"anonymous":false},{"type":"event","name":"RevealVerificationDetails","inputs":[{"name":"requestId","type":"uint256","indexed":true,"internalType":"uint256"},{"name":"endTime","type":"uint256","indexed":false,"internalType":"uint256"},{"name":"verifier","type":"address","indexed":true,"internalType":"address"}],"anonymous":false},{"type":"event","name":"RoundInitialised","inputs":[{"name":"requestId","type":"uint256","indexed":true,"internalType":"uint256"}],"anonymous":false},{"type":"event","name":"RoundRevealStarted","inputs":[{"name":"requestId","type":"uint256","indexed":true,"internalType":"uint256"}],"anonymous":false},{"type":"event","name":"RoundStartedForVerificationSelection","inputs":[{"name":"requestId","type":"uint256","indexed":true,"internalType":"uint256"},{"name":"layerComputeIndex","type":"uint256","indexed":false,"internalType":"uint256"}],"anonymous":false},{"type":"event","name":"VerificationApplied","inputs":[{"name":"requestId","type":"uint256","indexed":true,"internalType":"uint256"},{"name":"verifier","type":"address","indexed":true,"internalType":"address"},{"name":"layerComputeIndex","type":"uint256","indexed":true,"internalType":"uint256"}],"anonymous":false},{"type":"event","name":"VerificationSelectionStarted","inputs":[{"name":"requestId","type":"uint256","indexed":true,"internalType":"uint256"},{"name":"layerComputeIndex","type":"uint256","indexed":false,"internalType":"uint256"}],"anonymous":false},{"type":"event","name":"VerifierChosen","inputs":[{"name":"requestId","type":"uint256","indexed":true,"internalType":"uint256"},{"name":"verifier","type":"address","indexed":true,"internalType":"address"},{"name":"layerComputeIndex","type":"uint256","indexed":true,"internalType":"uint256"},{"name":"verifierIndex","type":"uint256","indexed":false,"internalType":"uint256"}],"anonymous":false},{"type":"event","name":"VerifierUnchosen","inputs":[{"name":"requestId","type":"uint256","indexed":true,"internalType":"uint256"},{"name":"verifier","type":"address","indexed":true,"internalType":"address"},{"name":"layerComputeIndex","type":"uint256","indexed":true,"internalType":"uint256"},{"name":"verifierIndex","type":"uint256","indexed":false,"internalType":"uint256"}],"anonymous":false},{"type":"event","name":"VoteSubmitted","inputs":[{"name":"requestId","type":"uint256","indexed":true,"internalType":"uint256"},{"name":"verifier","type":"address","indexed":true,"internalType":"address"},{"name":"agree","type":"bool","indexed":false,"internalType":"bool"}],"anonymous":false}],"bytecode":{"object":"0x60e034620001d157601f620061c038819003918201601f19168301916001600160401b03831184841017620001d657808492606094604052833981010312620001d1576200004d81620001ec565b906200006a60406200006260208401620001ec565b9201620001ec565b6001600160a01b039290919083169081156200019c578316908115620001675760805260a0521660c052604051615fbe908162000202823960805181818161077a0152818161091201528181610c8a01528181610cd70152818161125001528181612167015281816121b401528181612c01015281816134dc0152818161390101528181613b0801528181613cf7015281816142ba0152818161474001528181614a1601528181614c18015281816157160152818161584d0152615a7a015260a0518181816109e601528181612b6d01528181613aaf01528181614d5b01526159b8015260c051818181610d9001528181612d560152612ea90152f35b60405162461bcd60e51b815260206004820152600d60248201526c125b9d985b0813919508105111609a1b6044820152606490fd5b60405162461bcd60e51b815260206004820152600d60248201526c125b9d985b081512d388105111609a1b6044820152606490fd5b600080fd5b634e487b7160e01b600052604160045260246000fd5b51906001600160a01b0382168203620001d15756fe6102e0604052600436101561001357600080fd5b60003560e01c80630625f1611461506257806313f08bbf1461502a578063253bd3e914614d8a5780632d37463d14614d455780633015394c14614d295780633295845c14614d0d57806338488abc14614b165780634beda2211461478d5780635badbe4c1461476f5780636605dfa71461472a5780636d8f9a0e146141c9578063707324401461412757806381d12c5814613e58578063847ada57146137465780638ea49eca1461368a578063951c5ce214612d85578063958a1a4b14612d40578063b10ceb5914612af8578063ba0ff7c314612087578063bfdb3451146119c8578063d23759a714611979578063e007657e14610bbc578063e03ad0d1146108ab578063e2e7cbe6146104d85763e6a3d9dc1461013057600080fd5b346104d35760403660031901126104d35760043580600052602060018152604060002060405161015f81615385565b81546001600160a01b0390811682526001830154848301526002808401546040840152600384015460608401526004840154608084015290926101a460058201615bbd565b60a08401526101b560068201615543565b60c08401526101c660078201615bbd565b60e084015260088101546101008401526009810154610120840152600a81015461014084015260ff600b820154818116151561016086015260081c161515610180840152600c810154936101a08401948552610224600d8301615c12565b6101c0850152610236600e8301615c12565b6101e0850152600f8201541661020084015260108101546102208401526011810154610240840152601281015461026084015260138101549261028081019384526103a0601c60ff601485015416936102946102a085019586615c6c565b60158101546102c085015260168101546102e0850152601781015461030085015260188101546103208501526019810154610340850152601a810154610360850152601b81015461038085015201549101525160098110156104bd57600303610490578460005280845260406000208251600052845260076040600020015442116104655784600052808452604060002082516000528452600360406000200133600052845260ff604060002054161561043a5784600052808452604060002082516000528452600160406000200133600052845261037a60ff60406000205416615d7c565b8460005260038452604060002082516000528452604060002033600052845260243560046040600020015584600052808452604060002082516000528452600d6040600020016103ca8154615d4e565b9055846000528352604060002090516000528252600d60406000200154905114610419575b5033907f22d30f6da93667100b64d15e5ea70afec217caeab1008706f57bfa4deed12c63600080a3005b60019082600052526014604060002001600460ff19825416179055386103ef565b60405162461bcd60e51b815260048082018690526024820152632721ab1960e11b6044820152606490fd5b60405162461bcd60e51b815260048101859052600360248201526243504560e81b6044820152606490fd5b60405162461bcd60e51b815260048101859052600560248201526453213d435360d81b6044820152606490fd5b634e487b7160e01b600052602160045260246000fd5b600080fd5b346104d3576104e6366154c9565b90806000526020916001835260406000209060405161050481615385565b82546001600160a01b039081168252600184015486830152600284015460408301526003808501546060840152600485015460808401529094909161054b60058601615bbd565b60a082015261055c60068601615543565b60c082015261056d60078601615bbd565b60e0820152600885015461010082015260098501546101208201908152600a86015461014083015260ff600b870154818116151561016085015260081c161515610180830152600c8601546101a08301526105ca600d8701615c12565b6101c08301526105dc600e8701615c12565b6101e083015286600f87015416610200830152601086015490610220830191825260118701546102408401526012870154610260840152601387015461028084015260ff601488015416926106366102a082019485615c6c565b60158801546102c08201526103a0601c60168a0154996102e084019a8b52601781015461030085015260188101546103208501526019810154610340850152601a810154610360850152601b810154610380850152015491015283600052600289526040600020866000528952600260406000200133600052895260ff604060002054161561088057519051808502908582040361086a576106d89042615642565b1115610841575160098110156104bd5760026106f49114615c78565b806000528186526040600020836000528652604060002033600052865260ff60066040600020015416610817576000908152908552604080822092825291855281812033808352908652828220600601805460ff191660011790559251915163a9059cbb60e01b81526004810193909352602483019190915290918391839160449183917f0000000000000000000000000000000000000000000000000000000000000000165af190811561080b576000916107de575b50156107b357005b6064906040519062461bcd60e51b8252600482015260046024820152632a23189960e11b6044820152fd5b6107fe9150823d8411610804575b6107f681836153bc565b81019061562a565b826107ab565b503d6107ec565b6040513d6000823e3d90fd5b60405162461bcd60e51b8152600481018790526002602482015261041560f41b6044820152606490fd5b606487846040519162461bcd60e51b8352600483015260248201526244503360e81b6044820152fd5b634e487b7160e01b600052601160045260246000fd5b60405162461bcd60e51b815260048082018b90526024820152634e43563160e01b6044820152606490fd5b346104d3576020806003193601126104d357600435908160005260018152604060002060088101544211610b9157600f810180546001600160a01b039290838116610b66576015820154604051636eb1769f60e11b815233600482015230602482015290947f000000000000000000000000000000000000000000000000000000000000000081169391929091908784604481885afa93841561080b57600094610b37575b506040516370a0823160e01b81523360048201528881602481895afa801561080b5789958992600092610afb575b50926109a08360009a93610999606498966001981015615dae565b1015615dae565b33906001600160601b0360a01b16179055601481018260ff1982541617905501546040519586938492630ab714fb60e11b845233600485015260248401528a60448401527f0000000000000000000000000000000000000000000000000000000000000000165af191821561080b578492610acf575b506040516323b872dd60e01b81523360048201523060248201526044810193909352829060649082906000905af190811561080b57600091610ab2575b5015610a83575033907f3c84569ae9be7c8e6e8edf0c0cbeb7e00cf9cb4d9b67849728be8ab96e09bec1600080a3005b6064906040519062461bcd60e51b82526004820152600860248201526729b2b61d102a231b60c11b6044820152fd5b610ac99150823d8411610804576107f681836153bc565b83610a53565b8291923d8311610af4575b610ae481836153bc565b810103126104d357829085610a16565b503d610ada565b939684919593508092503d8311610b30575b610b1781836153bc565b810103126104d3579051889491928891906109a061097e565b503d610b0d565b9093508781813d8311610b5f575b610b4f81836153bc565b810103126104d357519289610950565b503d610b45565b60405162461bcd60e51b815260048101869052600360248201526250533160e81b6044820152606490fd5b60405162461bcd60e51b815260048082018490526024820152634344503160e01b6044820152606490fd5b346104d3576101c03660031901126104d3576084356001600160401b0381116104d357610bed90369060040161544a565b60a4356001600160401b0381116104d357610c0c9036906004016153f4565b90610c1c61016435604435615642565b8060001981011161086a57610c3990610164359060001901615d2e565b610c5181610c4c610124356024356155e8565b6155e8565b91610c5e83600435615642565b604051636eb1769f60e11b81523360048201523060248201529094906020816044816001600160a01b037f0000000000000000000000000000000000000000000000000000000000000000165afa90811561080b57600091611947575b506040516370a0823160e01b81523360048201526020816024817f00000000000000000000000000000000000000000000000000000000000000006001600160a01b03165afa91821561080b578791600093611910575b50106118e55785116118ba574260c435111561187f57600361010435026101043581046003146101043515171561086a57610d50610d5891856155e8565b60c435615642565b60e4351115611804576101243560643510611773576000546000526005602052604060002063765a4a7a640100000000600160c01b037f000000000000000000000000000000000000000000000000000000000000000060201b166001600160401b0360c01b83541617179055604051610dd1816153a1565b6000815260405191610de2836153a1565b6000835260405193610df3856153a1565b6000855260405196610e0488615385565b338852600435602089015260408801526044356060880152606435608088015260a087015260c086015260e085015260c43561010085015260e4356101208501528461014085015260006101608501526000610180850152610124356101a08501526101c08401526101e08301526000610200830152610104356102208301526102408201526000610260820152600061028082015260006102a08201526101a4356102c08201526024356102e08201526000610300820152610144356103208201526000610340820152600061036082015261016435610380820152610184356103a08201526000546000526001602052604060002060018060a01b038251166001600160601b0360a01b8254161781556020820151600182015560408201516002820155606082015160038201556080820151600482015560a0820151805190600160401b82116113415760058301548260058501558083106116fa575b5060200190600583016000526020600020916000905b8282106115e1575050505060c08201519283516001600160401b03811161134157610fa86006840154615509565b601f81116115ac575b506020601f821160011461153d578190610fe593949596600092611532575b50508160011b916000199060031b1c19161790565b60068301555b60e0830151805190600160401b82116113415760078401548260078601558083106114ba575b5060200190600784016000526020600020916000905b828210611394575050505061010083015160088301556101208301516009830155610140830151600a830155611093600b83016110776101608601511515829060ff801983541691151516179055565b610180850151815461ff00191690151560081b61ff0016179055565b6101a0830151600c8301556101c08301518051906001600160401b03821161134157600160401b821161134157602090600d85015483600d870155808410611374575b5001600d8401600052602060002060005b83811061135757505050506101e08301518051906001600160401b03821161134157600160401b821161134157602090600e85015483600e870155808410611321575b5001600e8401600052602060002060005b8381106113045750505050600f820160018060a01b03610200850151166001600160601b0360a01b82541617905561022083015160108301556102408301516011830155610260830151601283015561028083015160138301556102a08301519160098310156104bd57601c6103a061124a956111bd60209660148601615612565b6102c081015160158501556102e08101516016850155610300810151601785015561032081015160188501556103408101516019850155610360810151601a850155610380810151601b850155015191015561121a600054615d4e565b6000556040516323b872dd60e01b8152336004820152306024820152604481019190915291829081906064820190565b038160007f00000000000000000000000000000000000000000000000000000000000000006001600160a01b03165af190811561080b576000916112e5575b50156112ba57336000547f233bb55fd57b21b8a3d15c9ad8fbbab435fe4cf2865cc654f6a57d9d4d8cda54600080a3005b60405162461bcd60e51b815260206004820152600360248201526254463360e81b6044820152606490fd5b6112fe915060203d602011610804576107f681836153bc565b81611289565b82516001600160a01b03168183015560209092019160010161113b565b61133b90600e8701600052848460002091820191016155fb565b8661112a565b634e487b7160e01b600052604160045260246000fd5b82516001600160a01b0316818301556020909201916001016110e7565b61138e90600d8701600052848460002091820191016155fb565b866110d6565b80518051906001600160401b038211611341576113b18654615509565b601f811161147d575b50602090601f831160011461140d57926113f3836001959460209487966000926114025750508160011b916000199060031b1c19161790565b87555b01940191019092611027565b015190508d80610fd0565b908660005260206000209160005b601f1985168110611465575083602093600196938796938794601f1981161061144c575b505050811b0187556113f6565b015160001960f88460031b161c191690558c808061143f565b9192602060018192868501518155019401920161141b565b6114aa90876000526020600020601f850160051c810191602086106114b0575b601f0160051c01906155fb565b896113ba565b909150819061149d565b600785016000526020600020908382015b81830181106114db575050611011565b806114e860019254615509565b806114f5575b50016114cb565b601f8111831461150b5750600081555b896114ee565b600090828252611529601f60208420920160051c82018583016155fb565b81835555611505565b015190508680610fd0565b6006840160005260206000209060005b601f1984168110611594575060019394959683601f1981161061157b575b505050811b016006830155610feb565b015160001960f88460031b161c1916905585808061156b565b9091602060018192858b01518155019301910161154d565b6115db90600685016000526020600020601f840160051c810191602085106114b057601f0160051c01906155fb565b85610fb1565b80518051906001600160401b038211611341576115fe8654615509565b90601f918281116116c0575b5060209183116001146116505792611641836001959460209487966000926114025750508160011b916000199060031b1c19161790565b87555b01940191019092610f7a565b908660005260206000209160005b601f19851681106116a8575083602093600196938796938794601f1981161061168f575b505050811b018755611644565b015160001960f88460031b161c191690558c8080611682565b9192602060018192868501518155019401920161165e565b6116eb908860005260206000208480870160051c820192602088106116f1575b0160051c01906155fb565b8a61160a565b925081926116e0565b600584016000526020600020908382015b818301811061171b575050610f64565b8061172860019254615509565b80611735575b500161170b565b601f90818111841461174e575050600081555b8961172e565b61176a60009284845260208420920160051c82018583016155fb565b81835555611748565b60405162461bcd60e51b815260206004820152605d60248201527f4e6f7420656e6f7567682076657269666965727320746f2063686f6f7365206660448201527f726f6d2e206e756d566572696669657273206d7573742062652067726561746560648201527f72207468616e206e756d56657269666965727353616d706c6553697a65000000608482015260a490fd5b60405162461bcd60e51b815260206004820152604760248201527f566572696669636174696f6e20646561646c696e65206d75737420626520737560448201527f6666696369656e7420656e6f75676820666f7220616c6c20726f756e64732072606482015266195c5d5a5c995960ca1b608482015260a490fd5b60405162461bcd60e51b81526020600482015260136024820152720436f6d70757465203c2074696d657374616d7606c1b6044820152606490fd5b60405162461bcd60e51b81526020600482015260036024820152622a231960e91b6044820152606490fd5b60405162461bcd60e51b815260206004820152600360248201526254463160e81b6044820152606490fd5b915091506020813d60201161193f575b8161192d602093836153bc565b810103126104d3578690519188610d12565b3d9150611920565b90506020813d602011611971575b81611962602093836153bc565b810103126104d3575186610cbb565b3d9150611955565b346104d357611987366154df565b91600052600260205260406000209060005260205260036040600020019060018060a01b0316600052602052602060ff604060002054166040519015158152f35b346104d35760803660031901126104d35760243580151581036104d357600435600052600160205260406000209060405191611a0383615385565b80546001600160a01b0316835260018101546020840152600281015460408401526003810154606084015260048101546080840152611a4460058201615bbd565b60a0840152611a5560068201615543565b60c0840152611a6660078201615bbd565b60e084015260088101546101008401526009810154610120840152600a81015461014084015260ff600b820154818116151561016086015260081c161515610180840152600c8101546101a0840152611ac1600d8201615c12565b6101c0840152611ad3600e8201615c12565b6101e0840152600f8101546001600160a01b0316610200840152601081015461022084015260118101546102408401526012810154610260840152601381015461028084015260148101546102a0840191601c91611b349060ff1684615c6c565b60158101546102c086015260168101546102e0860152601781015461030086015260188101546103208601526019810154610340860152601a810154610360860152601b81015461038086015201546103a0840152600435600052600260205260406000206102808401516000526020526008604060002001544211908115612072575b50156120455760043560005260026020526040600020610280830151600052602052600960406000200154421161201a576004356000526002602052604060002061028083015160005260205260036040600020013360005260205260ff6040600020541615611fef5760043560005260026020526040600020610280830151600052602052600160406000200133600052602052611c5e60ff60406000205416615d7c565b600435600052600360205260406000206102808301516000526020526040600020336000526020526040600020600381015460ff8116611fc457604051604435602082015260643560408201523360601b6060820152605481528060808101106001600160401b03608083011117611341576080810160405280516020820120600484015403611f97575060405191604435602084015283151560f81b6040840152602183528260608101106001600160401b03606085011117611341576005906060840160405283516020850120948593600183549160443582860155606435600286015560ff1916176003840155339160ff60a01b90151560a01b16906affffffffffffffffffffff60a81b16171781550155600435600052600260205260406000206102808401516000526020526040600020906004356000526005602052602060406000205463ffffffff60e01b8160e01b16606084015233606484015260246060840191606085019060018060a01b0390851c165afa90811561080b57600091611f5f575b508260005281602052611e016040600020918254615642565b9055816000528060205260406000205491600b820192835490818114600014611f15575050505050600435600052600260205260406000206102808201516000526020526000600a6040822001555b60043560005260026020526040600020610280820151600052602052600e604060002001611e7e8154615d4e565b905560405142815233907fb59f6416758d4763386b2c83d12c7c643131c90beff0caea486f303510702ce3602060043592a360043560005260026020526040600020610280820151600052602052600e604060002001546101a082015114611ee257005b61028001517f86379e876dfaea4f98e183813a1a8fea7b8212d0dc9598d4e09ee4b9cdf4613360206040516004358152a2005b11611f23575b505050611e50565b6004356000526002602052604060002061028085015160005260205280600a604060002001556000526020526040600020549055818080611f1b565b90506020813d602011611f8f575b81611f7d602093606084016153bc565b810103126104d3576060015184611de8565b3d9150611f6d565b608060649162461bcd60e51b8282015260206084820152600360a48201526224a92b60e91b60c482015201fd5b60405162461bcd60e51b815260206004820152600360248201526221a0a960e91b6044820152606490fd5b606460405162461bcd60e51b81526020600482015260046024820152634e43563360e01b6044820152fd5b60405162461bcd60e51b815260206004820152600360248201526252504560e81b6044820152606490fd5b60405162461bcd60e51b81526020600482015260056024820152645052504e4560d81b6044820152606490fd5b90505160098110156104bd5760051483611bb8565b346104d3576101e03660031901126104d3576084356001600160401b0381116104d3576120b890369060040161544a565b60a4356001600160401b0381116104d3576120d79036906004016153f4565b6101c4359167ffffffffffffffff19831683036104d3576120fd61016435604435615642565b8060001981011161086a5761211a90610164359060001901615d2e565b9061212e82610c4c610124356024356155e8565b9261213b84600435615642565b604051636eb1769f60e11b81523360048201523060248201529095906020816044816001600160a01b037f0000000000000000000000000000000000000000000000000000000000000000165afa90811561080b57600091612ac6575b506040516370a0823160e01b81523360048201526020816024817f00000000000000000000000000000000000000000000000000000000000000006001600160a01b03165afa91821561080b578891600093612a8f575b50106118e55786116118ba574260c435111561187f576101043560036101043502046003146101043515171561086a57612232610d5060036101043502866155e8565b60e43511156118045761012435606435106117735760005460005260056020526040600020906001600160401b0360c01b8254169063ffffffff640100000000600160c01b038260401c169160401c1617179055604051612292816153a1565b60008152604051916122a3836153a1565b60008352604051936122b4856153a1565b60008552604051966122c588615385565b338852600435602089015260408801526044356060880152606435608088015260a087015260c086015260e085015260c43561010085015260e4356101208501528461014085015260006101608501526000610180850152610124356101a08501526101c08401526101e08301526000610200830152610104356102208301526102408201526000610260820152600061028082015260006102a08201526101a4356102c08201526024356102e08201526000610300820152610144356103208201526000610340820152600061036082015261016435610380820152610184356103a08201526000546000526001602052604060002060018060a01b038251166001600160601b0360a01b8254161781556020820151600182015560408201516002820155606082015160038201556080820151600482015560a0820151805190600160401b8211611341576005830154826005850155808310612a16575b5060200190600583016000526020600020916000905b828210612907575050505060c08201519283516001600160401b038111611341576124696006840154615509565b601f81116128d2575b506020601f82116001146128635781906124a5939495966000926115325750508160011b916000199060031b1c19161790565b60068301555b60e0830151805190600160401b82116113415760078401548260078601558083106127eb575b5060200190600784016000526020600020916000905b8282106126db575050505061010083015160088301556101208301516009830155610140830151600a830155612537600b83016110776101608601511515829060ff801983541691151516179055565b6101a0830151600c8301556101c08301518051906001600160401b03821161134157600160401b821161134157602090600d85015483600d8701558084106126bb575b5001600d8401600052602060002060005b83811061269e57505050506101e08301518051906001600160401b03821161134157600160401b821161134157602090600e85015483600e87015580841061267e575b5001600e8401600052602060002060005b8381106126615750505050600f820160018060a01b03610200850151166001600160601b0360a01b82541617905561022083015160108301556102408301516011830155610260830151601283015561028083015160138301556102a08301519160098310156104bd57601c6103a061124a956111bd60209660148601615612565b82516001600160a01b0316818301556020909201916001016125df565b61269890600e8701600052848460002091820191016155fb565b866125ce565b82516001600160a01b03168183015560209092019160010161258b565b6126d590600d8701600052848460002091820191016155fb565b8661257a565b80518051906001600160401b038211611341576126f88654615509565b601f81116127b9575b50602090601f8311600114612749579261273a836001959460209487966000926114025750508160011b916000199060031b1c19161790565b87555b019401910190926124e7565b908660005260206000209160005b601f19851681106127a1575083602093600196938796938794601f19811610612788575b505050811b01875561273d565b015160001960f88460031b161c191690558c808061277b565b91926020600181928685015181550194019201612757565b6127e590876000526020600020601f850160051c810191602086106114b057601f0160051c01906155fb565b89612701565b600785016000526020600020908382015b818301811061280c5750506124d1565b8061281960019254615509565b80612826575b50016127fc565b601f8111831461283c5750600081555b8961281f565b60009082825261285a601f60208420920160051c82018583016155fb565b81835555612836565b6006840160005260206000209060005b601f19841681106128ba575060019394959683601f198116106128a1575b505050811b0160068301556124ab565b015160001960f88460031b161c19169055858080612891565b9091602060018192858b015181550193019101612873565b61290190600685016000526020600020601f840160051c810191602085106114b057601f0160051c01906155fb565b85612472565b80518051906001600160401b038211611341576129248654615509565b90601f918281116129e6575b5060209183116001146129765792612967836001959460209487966000926114025750508160011b916000199060031b1c19161790565b87555b0194019101909261243b565b908660005260206000209160005b601f19851681106129ce575083602093600196938796938794601f198116106129b5575b505050811b01875561296a565b015160001960f88460031b161c191690558c80806129a8565b91926020600181928685015181550194019201612984565b612a10908860005260206000208480870160051c820192602088106116f1570160051c01906155fb565b8a612930565b600584016000526020600020908382015b8183018110612a37575050612425565b80612a4460019254615509565b80612a51575b5001612a27565b601f908181118414612a6a575050600081555b89612a4a565b612a8660009284845260208420920160051c82018583016155fb565b81835555612a64565b915091506020813d602011612abe575b81612aac602093836153bc565b810103126104d35787905191896121ef565b3d9150612a9f565b90506020813d602011612af0575b81612ae1602093836153bc565b810103126104d3575187612198565b3d9150612ad4565b346104d3576020806003193601126104d3576004359081600052600181526040600020600981015442101580612d25575b80612d16575b15612cdd57600b8101805460ff19908116600117909155604051635109e9c560e11b81526004810185905290916001600160a01b03848360248160007f000000000000000000000000000000000000000000000000000000000000000086165af191821561080b57612bfd948694600094612ca8575b5090612bc891600660148301918254161790556001601582015491015490615642565b60405163a9059cbb60e01b81526001600160a01b03909316600484015260248301529092839190829060009082906044820190565b03927f0000000000000000000000000000000000000000000000000000000000000000165af190811561080b57600091612c8b575b5015612c6057507f953601eba1acf6d4769af39f3986a5be6acd796655930c93832c2f239fbccabf600080a2005b6064906040519062461bcd60e51b8252600482015260046024820152635446313760e01b6044820152fd5b612ca29150823d8411610804576107f681836153bc565b83612c32565b612bc892919450612cce90863d8811612cd6575b612cc681836153bc565b810190615d5d565b939091612ba5565b503d612cbc565b60405162461bcd60e51b81526004810183905260116024820152702924a1903e3e103a34b6b2901e103b32b960791b6044820152606490fd5b5060ff600b8201541615612b2f565b5060ff60148201541660098110156104bd5760071415612b29565b346104d35760003660031901126104d3576040517f00000000000000000000000000000000000000000000000000000000000000006001600160a01b03168152602090f35b346104d35760203660031901126104d35760043560005260016020526040600020600d81015460048201908154810361365f5760ff600b84015460081c161561363257600c8301541161360757600982015460108301548060030290600382040361086a57612df49042615642565b116135dc57600435600052600260205260406000206013830154908160005260205260016040600020013360005260205260ff604060002054166135b15760043560005260026020526040600020906000526020526001604060002001336000526020526040600020600160ff198254161790556019820154600c8301548110600014613425575054612e8c60198301548092615945565b604051632cdc85e960e21b815260048101919091526020816024817f00000000000000000000000000000000000000000000000000000000000000006001600160a01b03165afa801561080b5782916000916133ee575b50612f5a91612ef191615642565b612f3c612f20612f0483600d8801615cac565b905460039190911b1c6001600160a01b031694600d8701615cac565b905460039190911b1c6001600160a01b031691600d8601615cac565b90919060018060a01b038084549260031b9316831b921b1916179055565b612f6f81612f3c6019850154600d8601615cac565b6004356000526002602052604060002060138301546000526020526003604060002001906000526020526040600020600160ff19825416179055612fd8612fbd6019830154600d8401615cac565b905460039190911b1c6001600160a01b0316600e8301615cda565b6016810154612fec60178301918254615642565b9055601981015461300081600d8401615cac565b60018060a01b0391549060031b1c166012830154916040519081527f441ea878e9821f31af14375bef585bac76bbbde0e10feddc036673243d01a1d7602060043592a45b6019810154906001820180921161086a5780826019600c93015501541461306757005b600435600052600160205260406000206040519061308482615385565b80546001600160a01b039081168352600182015460208401526002820154604084015260038201546060840152600482015460808401526130c760058301615bbd565b60a08401526130d860068301615543565b60c08401526130e960078301615bbd565b60e084015260088201546101008401526009820154906101208401918252600a83015461014085015260ff600b840154818116151561016087015260081c161515610180850152600c8301546101a0850152613147600d8401615c12565b6101c0850152613159600e8401615c12565b6101e0850152600f8301541661020084015260108201549061022084019182526011830154610240850190815260128401549461026081019586526103a0601c60138701549661028084019788526131bc60ff6014830154166102a08601615c6c565b60158101546102c085015260168101546102e0850152601781015461030085015260188101546103208501526019810154610340850152601a810154610360850152601b81015461038085015201549101528451905111156133c3575181518060030290600382040361086a576132339042615642565b101561339857613301906004356000526002602052604060002083516000526020524260066040600020015561326a815142615642565b6004356000526002602052604060002084516000526020526007604060002001556004356000526002602052604060002083516000526020526132b7600760406000200154825190615642565b600435600052600260205260406000208451600052602052600860406000200155600435600052600260205260406000208351600052602052600860406000200154905190615642565b60043560005260026020526040600020825160005260205260096040600020015560043560005260016020526014604060002001600360ff19825416179055600260205260406000209051600052602052600760406000200154905160405191428352602083015260408201527f27e90e135bb91bf6706a23381e6d0d480f8bb7d002d6e9a197b432b7b654245f606060043592a2005b60405162461bcd60e51b815260206004820152600360248201526211140d60ea1b6044820152606490fd5b60405162461bcd60e51b81526020600482015260036024820152620414c560ec1b6044820152606490fd5b9150506020813d60201161341d575b8161340a602093836153bc565b810103126104d357518190612f5a612ee3565b3d91506133fd565b9050600435600052600360205260406000206013830154600052602052613454604060002091600d8401615cac565b919060018060a01b03928391549060031b1c166000526020526006604060002001600160ff198254161790556134d56020826134976019860154600d8701615cac565b90549060031b1c16601685015490604051938492839263a9059cbb60e01b84526004840160209093929193604081019460018060a01b031681520152565b03816000867f0000000000000000000000000000000000000000000000000000000000000000165af190811561080b57600091613592575b50156135675760198201549061352682600d8501615cac565b90549060031b1c166012830154916040519081527fd2673c2f320637ecd6e1e7a21780cb318c5a6c5b49398f8c5ae9d0ae0aad4743602060043592a4613044565b606460405162461bcd60e51b81526020600482015260046024820152635446313160e01b6044820152fd5b6135ab915060203d602011610804576107f681836153bc565b8361350d565b60405162461bcd60e51b815260206004820152600360248201526256543160e81b6044820152606490fd5b60405162461bcd60e51b815260206004820152600360248201526222281960e91b6044820152606490fd5b606460405162461bcd60e51b81526020600482015260046024820152634e45563160e01b6044820152fd5b60405162461bcd60e51b8152602060048201526005602482015264524e59433160d81b6044820152606490fd5b60405162461bcd60e51b815260206004820152600360248201526241463160e81b6044820152606490fd5b346104d357613698366154c9565b9060005260026020526040600020906000526020526101a060406000206004810154906005810154906006810154600782015460088301546009840154600a850154600b86015491600c87015493600d88015495600e890154976010600f8b01549a01549a6040519c8d5260208d015260408c015260608b015260808a015260a089015260c088015260e0870152610100860152610120850152610140840152610160830152610180820152f35b346104d357613754366154c9565b816000526001602091818352604060002091600280855260406000208360005285526009604060002001544210801590613e31575b15613e06578560005280855260406000208360005285526003918260406000200133600052865260ff92836040600020541615613ddb5787600052808752604060002085600052875260406000203360005287528360066040600020015416613db25760138601936137fe8554871115615cfd565b61380a83871015615cfd565b88600052838852604060002086600052885282604060002001336000528852806040600020541615613d8957886000528188526040600020866000528852604060002033600052885260066040600020019360ff19948486825416179055896000528089526040600020876000528952600a6040600020015490811560001461399957505050928792601695928899956138fb999896600052885260406000208460005288526040600020336000528852600660406000200191825416179055541461398a575b50015460405163a9059cbb60e01b8152336004820152602481019190915291829081906044820190565b038160007f00000000000000000000000000000000000000000000000000000000000000006001600160a01b03165af190811561080b5760009161396d575b501561394257005b6064906040519062461bcd60e51b82526004820152600460248201526315118c4d60e21b6044820152fd5b6139849150823d8411610804576107f681836153bc565b8261393a565b61399390615de5565b856138d1565b919796929589888c8694979981600052808452604060002086600052845260406000203360005284526005604060002001548914613c4e575b5050505054146139df575b005b6000898152908852604080822092825291885220600c015414613a205750506014015416905060098110156104bd57600703613a1757005b6139dd90615952565b9091601281019060118254910154600019810181811161086a578203613c2b575050613a4c8154615d4e565b90558460005281845260406000209160148301938085541660098110156104bd57600714613c0057600b8401908154908116613bd557831682179055604051635109e9c560e11b815260048101879052926001600160a01b0390868560248160007f000000000000000000000000000000000000000000000000000000000000000087165af192831561080b57613b04968896600095613baf575b506006612bc8949596825416179055601582015491015490615642565b03927f0000000000000000000000000000000000000000000000000000000000000000165af190811561080b57600091613b92575b5015613b6757507f953601eba1acf6d4769af39f3986a5be6acd796655930c93832c2f239fbccabf600080a2005b6064906040519062461bcd60e51b8252600482015260046024820152632a23189b60e11b6044820152fd5b613ba99150823d8411610804576107f681836153bc565b83613b39565b612bc8949550613bcd600691893d8b11612cd657612cc681836153bc565b959450613ae7565b60405162461bcd60e51b815260048082018990526024820152632924a19960e11b6044820152606490fd5b60405162461bcd60e51b815260048082018890526024820152635249433160e01b6044820152606490fd5b93509594509250508310613c3b57005b613c476139dd93615d4e565b9055615de5565b613cf1949550908291613c99613c70600c6016613cca970154950154856155e8565b8360005289875260406000208b600052875260406000208c600052875260406000205490615d2e565b9160005284526040600020886000528452604060002033600052845260066040600020018b8b825416179055615642565b60405163a9059cbb60e01b8152336004820152602481019190915291829081906044820190565b038160007f00000000000000000000000000000000000000000000000000000000000000006001600160a01b03165af190811561080b57600091613d6c575b5015613d4157829089888c8e6139d2565b60405162461bcd60e51b815260048082018b90526024820152635446313560e01b6044820152606490fd5b613d8391508a3d8c11610804576107f681836153bc565b8b613d30565b606488836040519162461bcd60e51b835260048301526024820152624e543160e81b6044820152fd5b866064916040519162461bcd60e51b8352600483015260248201526244503560e81b6044820152fd5b60405162461bcd60e51b815260048082018990526024820152631390d58d60e21b6044820152606490fd5b60405162461bcd60e51b8152600480820187905260248201526343534e4360e01b6044820152606490fd5b50856000528085526040600020836000528552600e60406000200154600c85015414613789565b346104d35760203660031901126104d357600435600052600160205260406000206102c05260018060a01b036102c051541660016102c05101546101405260026102c05101546102805260036102c051015460046102c0510154613ec160066102c05101615543565b6102a05260086102c051015460096102c0510154600a6102c051015491600b6102c051015461020052600c6102c05101549360018060a01b03600f6102c0510154169560106102c05101549760116102c05101546102205260126102c05101546102405260136102c05101546102605260ff60146102c0510154166101e05260156102c05101546101205260166102c051015460a05260176102c051015460e05260186102c05101546101c05260196102c05101546101a052601a6102c051015461018052601b6102c051015461016052601c6102c05101546101005260405160c05260c0515261014051602060c051015261028051604060c0510152606060c0510152608060c051015261034060a060c05101526102a0515160805260805161034060c051015260005b608051811061410b5750600061036060805160c05101015260c08051015260e060c051015261010060c051015260ff6102005116151561012060c051015260ff6102005160081c16151561014060c051015261016060c051015261018060c05101526101a060c0510152610220516101c060c0510152610240516101e060c05101526102605161020060c051015260096101e05110156104bd576101e05161022060c05101526101205161024060c051015260a05161026060c051015260e05161028060c05101526101c0516102a060c05101526101a0516102c060c0510152610180516102e060c05101526101605161030060c05101526101005161032060c051015261036060c051601f19601f608051011660c05101030160c051f35b80602080926102a0510101516103608260c05101015201613fec565b346104d357610100614138366154df565b916000526003602052604060002090600052602052604060002060018060a01b0380921660005260205260406000208054906001810154600282015460ff6003840154169060048401549260ff80600660058801549701541696604051988116895260a01c1615156020880152604087015260608601521515608085015260a084015260c0830152151560e0820152f35b346104d3576020806003193601126104d3576004359081600052600181526040600020906005815260406000205460018060a01b03809183604051809263ffffffff60e01b8160e01b168252336004830152816024968792851c165afa90811561080b576000916146fd575b50156146c657601a840154600581018091116146b157421061467c5760ff600b85015460081c16156146505780600f85015416331461462657600d84018054916004860192835411156145fc5760ff60148701541660098110156145e757600261429f9114615c78565b604051636eb1769f60e11b81523360048201523060248201527f0000000000000000000000000000000000000000000000000000000000000000919091169290918583604481875afa92831561080b576000936145b8575b506040516370a0823160e01b81523360048201529286848781885afa93841561080b57600094614589575b506016880193845480921061455f5710614535576009870154601088015480600302906003820403614520576143589042615642565b116144f65787600052600286526040600020601388015490816000528752600260406000200133600052875260ff604060002054166144cc579261440b926000959288958b88526002875260408820908852865260026040882001338852865260408720600160ff198254161790556143d13382615cda565b54905414614498575b546040516323b872dd60e01b8152336004820152306024820152604481019190915293849283919082906064820190565b03925af190811561080b5760009161447b575b501561445257601283015433857f9e9159f67684b4639ef3d20a0878e965d2fa78dc33561fadb2485cd3d3447abf600080a4005b9060036064926040519262461bcd60e51b845260048401528201526254463960e81b6044820152fd5b6144929150833d8511610804576107f681836153bc565b8561441e565b887fac6c772803856f8be288c38a92349502c9d976deccefb05524c4eafedf049aeb8560128b0154604051908152a26143da565b60405162461bcd60e51b8152600481018890526003818801526256413160e81b6044820152606490fd5b60405162461bcd60e51b8152600481018790526003818701526244503160e81b6044820152606490fd5b86634e487b7160e01b60005260116004526000fd5b60405162461bcd60e51b815260048101879052600381870152620a88c760eb1b6044820152606490fd5b60405162461bcd60e51b8152600481018990526003818901526254463760e81b6044820152606490fd5b9093508681813d83116145b1575b6145a181836153bc565b810103126104d357519289614322565b503d614597565b9092508581813d83116145e0575b6145d081836153bc565b810103126104d3575191886142f7565b503d6145c6565b84634e487b7160e01b60005260216004526000fd5b60405162461bcd60e51b815260048101869052600381860152624c523160e81b6044820152606490fd5b60405162461bcd60e51b815260048181018590528184015263056213d560e41b6044820152606490fd5b60405162461bcd60e51b8152600481018490526005818401526429272ca19960d91b6044820152606490fd5b60405162461bcd60e51b815260048101849052600e818401526d54727920616761696e20696e203560901b6044820152606490fd5b82634e487b7160e01b60005260116004526000fd5b60405162461bcd60e51b8152600481018490526010818401526f15995c9a599a595c88109b1bd8dad95960821b6044820152606490fd5b90508381813d8311614723575b61471481836153bc565b810103126104d3575186614235565b503d61470a565b346104d35760003660031901126104d3576040517f00000000000000000000000000000000000000000000000000000000000000006001600160a01b03168152602090f35b346104d35760003660031901126104d3576020600054604051908152f35b346104d35761479b366154c9565b9080600052602091600183526040600020906040516147b981615385565b82546001600160a01b039081168252600184015486830152600284015460408301526003808501546060840152600485015460808401529094909161480060058601615bbd565b60a082015261481160068601615543565b60c082015261482260078601615bbd565b60e0820152600885015461010082015260098501546101208201908152600a86015461014083015260ff600b870154818116151561016085015260081c161515610180830152600c8601546101a083015261487f600d8701615c12565b6101c0830152614891600e8701615c12565b6101e083015286600f8701541661020083015260108601549161022081019283526011870154610240820152601287015461026082015260138701546102808201526148e860ff6014890154166102a08301615c6c565b60158701546102c08201526103a0601c6016890154986102e08401998a52601781015461030085015260188101546103208501526019810154610340850152601a810154610360850152601b8101546103808501520154910152519051808402908482040361086a5761495b9042615642565b1115614aeb5780600052600286526040600020836000528652600260406000200133600052865260ff6040600020541615614ac057806000528186526040600020836000528652604060002033600052865260ff60066040600020015416614a97576000908152908552604080822092825291855281812033808352908652828220600601805460ff191660011790559251915163a9059cbb60e01b81526004810193909352602483019190915290918391839160449183917f0000000000000000000000000000000000000000000000000000000000000000165af190811561080b57600091614a7a575b5015614a4f57005b6064906040519062461bcd60e51b8252600482015260046024820152630544631360e41b6044820152fd5b614a919150823d8411610804576107f681836153bc565b82614a47565b606486836040519162461bcd60e51b8352600483015260248201526241503160e81b6044820152fd5b60405162461bcd60e51b815260048082018890526024820152635644413160e01b6044820152606490fd5b60405162461bcd60e51b815260048082018890526024820152634e44503160e01b6044820152606490fd5b346104d357614b24366154c9565b9080600052602091600283526040600020816000528352600160406000200133600052835260ff6040600020541615614cd75781600052600283526040600020816000528352600360406000200133600052835260ff604060002054166104d35781600052600383526040600020816000528352604060002033600052835260ff60066040600020015416614ca157600082815260038452604080822092825291845281812033808352908552828220600601805460ff1916600190811790915593825292845281902060160154905163a9059cbb60e01b81526004810192909252602482015281818060448101038160007f00000000000000000000000000000000000000000000000000000000000000006001600160a01b03165af190811561080b57600091614c84575b5015614c5957005b6064906040519062461bcd60e51b8252600482015260046024820152635446313360e01b6044820152fd5b614c9b9150823d8411610804576107f681836153bc565b82614c51565b60405162461bcd60e51b815260048101849052600e60248201526d111bdd589b194814185e5b595b9d60921b6044820152606490fd5b60405162461bcd60e51b815260048101849052600e60248201526d14995d0814dd185ad94e8811139560921b6044820152606490fd5b346104d35760203660031901126104d3576139dd600435615952565b346104d35760203660031901126104d3576139dd60043561564f565b346104d35760003660031901126104d3576040517f00000000000000000000000000000000000000000000000000000000000000006001600160a01b03168152602090f35b346104d35760803660031901126104d3576004356024803560443590606435918460005260209160018352604060002060018060a01b03600f8201541633036150005786600052600284526040600020936013820180549586600052825260076040600020015442118015614fd1575b15614fa757886000526002825260406000208660005282526008604060002001544211614f7d578860005260048252604060002084600052825260ff60406000205416614f535760405195828701888152600160f81b6040890152602188526060880199888b106001600160401b038c1117614f3f57509260a095928a98959260609a98957f2f06062ea665468a61997fd63a8ec957f95fda34ee5de1123656b796f400cf189c60405287519020908d600052600284526040600020906000528352600c604060002001558b60005260028252604060002081546000528252846010604060002001558b6000526002825260406000209054600052815282600f604060002001558a6000526004815260406000209083600052526005601460406000209260ff19936001858254161790550191825416179055855260808201520152a2005b634e487b7160e01b60009081526041600452fd5b60405162461bcd60e51b81526004818101849052818a015263504b495560e01b6044820152606490fd5b60405162461bcd60e51b81526004818101849052818a0152635052504560e01b6044820152606490fd5b60405162461bcd60e51b81526004818101849052818a01526343504e4560e01b6044820152606490fd5b5060ff6014840154166009811015614feb57600414614dfa565b88634e487b7160e01b60005260216004526000fd5b60405162461bcd60e51b8152600481018590526003818801526204f4d560ec1b6044820152606490fd5b346104d357615038366154c9565b906000526004602052604060002090600052602052602060ff604060002054166040519015158152f35b346104d35760403660031901126104d3576004356001600160401b03602480358281116104d35761509790369060040161544a565b83600052600190602093828552604060002094600b8601805460ff811661535b576008880154421161533157600f8801546001600160a01b031633036153075761ff0019166101001790558251926007870190600160401b85116152f25782908254868455808710615275575b506000928352838320929491015b8585106151525742601a8a01558961512981615de5565b33907fd8fcbb5eddba1b1984c4f12b2197b325cc19ed135c968033ffd714c7f4c2d6bd600080a3005b8051908151838111615260578891869161516c8754615509565b94601f95868111615228575b50839582116001146151c257908085966151a8936000926151b75750508160011b916000199060031b1c19161790565b86555b01930194019391615112565b015190503880610fd0565b94601f1982169088600052846000209160005b81811061521157509086978488959493106151f8575b505050811b0186556151ab565b015160001960f88460031b161c191690558f80806151eb565b8289015184558e978c9794019392830192016151d5565b615251908960005285600020600589808701821c830193898810615257575b01901c01906155fb565b8f615178565b93508293615247565b89634e487b7160e01b60005260416004526000fd5b8360005287878460002092830192015b828110615293575050615104565b90919293506152a28154615509565b806152b4575b50019087859392615285565b601f908181116001146152ce575050600081555b8c6152a8565b6152e9600092848452898420920160051c82018583016155fb565b818355556152c8565b86634e487b7160e01b60005260416004526000fd5b60405162461bcd60e51b815260048101849052600381890152624e503160e81b6044820152606490fd5b60405162461bcd60e51b81526004818101859052818901526321a2281960e11b6044820152606490fd5b60405162461bcd60e51b8152600481018490526003818901526229219960e91b6044820152606490fd5b6103c081019081106001600160401b0382111761134157604052565b602081019081106001600160401b0382111761134157604052565b90601f801991011681019081106001600160401b0382111761134157604052565b6001600160401b0381116113415760051b60200190565b81601f820112156104d3578035906001600160401b0382116113415760405192615428601f8401601f1916602001856153bc565b828452602083830101116104d357816000926020809301838601378301015290565b81601f820112156104d357803591602091615464846153dd565b9361547260405195866153bc565b808552838086019160051b830101928084116104d357848301915b84831061549d5750505050505090565b82356001600160401b0381116104d35786916154be848480948901016153f4565b81520192019161548d565b60409060031901126104d3576004359060243590565b60609060031901126104d35760043590602435906044356001600160a01b03811681036104d35790565b90600182811c92168015615539575b602083101461552357565b634e487b7160e01b600052602260045260246000fd5b91607f1691615518565b9060405191826000825461555681615509565b908184526020946001916001811690816000146155c65750600114615587575b505050615585925003836153bc565b565b600090815285812095935091905b8183106155ae5750506155859350820101388080615576565b85548884018501529485019487945091830191615595565b9250505061558594925060ff191682840152151560051b820101388080615576565b8181029291811591840414171561086a57565b818110615606575050565b600081556001016155fb565b9060098110156104bd5760ff80198354169116179055565b908160209103126104d3575180151581036104d35790565b9190820180921161086a57565b600081815260016020908152604080832080546001600160a01b03908116913383900361591b57600b810192835460ff81166158f15790869184600f85015416156157fd5750505060088101544211806157ee575b156157c45791818592846156c4600a615712970154601583015490615642565b9360ff199060018282541617905560086014830191825416179055541687865180968195829463a9059cbb60e01b84526004840160209093929193604081019460018060a01b031681520152565b03927f0000000000000000000000000000000000000000000000000000000000000000165af19081156157ba57849161579d575b5015615774575050807fee243f878b7fc2f54e934ca33783d4395d42bc07612e2bd4b8e0e178639f7a2891a2565b60649250519062461bcd60e51b82526004820152600360248201526254463560e81b6044820152fd5b6157b49150833d8511610804576107f681836153bc565b38615746565b82513d86823e3d90fd5b835162461bcd60e51b8152600480820187905260248201526322272ca960e11b6044820152606490fd5b5060ff835460081c16156156a4565b60ff19908116600117909555601483018054909516600817909455600a90910154845163a9059cbb60e01b81526001600160a01b03909416600485015260248401529082908187816044810103927f0000000000000000000000000000000000000000000000000000000000000000165af19081156157ba5784916158d4575b50156158ab575050807fee243f878b7fc2f54e934ca33783d4395d42bc07612e2bd4b8e0e178639f7a2891a2565b60649250519062461bcd60e51b82526004820152600360248201526215118d60ea1b6044820152fd5b6158eb9150833d8511610804576107f681836153bc565b3861587d565b855162461bcd60e51b815260048101889052600360248201526252433160e81b6044820152606490fd5b835162461bcd60e51b81526004810186905260036024820152624f433160e81b6044820152606490fd5b9190820391821161086a57565b600081815260016020908152604080832060028352818420601382015485528352818420600a810154600c90910154141580615b8e575b15615b5d5760148101805460ff19908116600717909155600b8201805490911660011790556001600160a01b037f00000000000000000000000000000000000000000000000000000000000000008116803b15615b59578580916024865180948193630ca5611760e21b83528c60048401525af18015615b4f57615b1f575b508181615a438693615a76955416926017615a3a615a2f6001840154601585015490615642565b600284015490615642565b91015490615945565b855163a9059cbb60e01b81526001600160a01b039093166004840152602483015290928391908290889082906044820190565b03927f0000000000000000000000000000000000000000000000000000000000000000165af19081156157ba578491615b02575b5015615ad8575050807f6d55d799468c2d702d8ff65d462b4e8dbbc88c728431aee69b205a3964362f0791a2565b60649250519062461bcd60e51b8252600482015260046024820152630a88c62760e31b6044820152fd5b615b199150833d8511610804576107f681836153bc565b38615aaa565b6001600160401b038196929611615b3b57835293615a76615a08565b634e487b7160e01b82526041600452602482fd5b84513d88823e3d90fd5b8580fd5b815162461bcd60e51b815260048101849052600a6024820152692924aa903e3e102726ab60b11b6044820152606490fd5b5060ff6014820154166009811015615ba95760071415615989565b634e487b7160e01b85526021600452602485fd5b908154615bc9816153dd565b92615bd760405194856153bc565b818452600090815260208082208186015b848410615bf6575050505050565b6001838192615c0485615543565b815201920193019290615be8565b90604051918281549182825260209260208301916000526020600020936000905b828210615c4957505050615585925003836153bc565b85546001600160a01b031684526001958601958895509381019390910190615c33565b60098210156104bd5752565b15615c7f57565b60405162461bcd60e51b815260206004820152600560248201526429909ea1ab60d91b6044820152606490fd5b8054821015615cc45760005260206000200190600090565b634e487b7160e01b600052603260045260246000fd5b90815491600160401b8310156113415782612f3c91600161558595018155615cac565b15615d0457565b60405162461bcd60e51b8152602060048201526002602482015261524960f01b6044820152606490fd5b8115615d38570490565b634e487b7160e01b600052601260045260246000fd5b600019811461086a5760010190565b908160209103126104d357516001600160a01b03811681036104d35790565b15615d8357565b60405162461bcd60e51b815260206004820152600360248201526211139560ea1b6044820152606490fd5b15615db557565b60405162461bcd60e51b815260206004820152600860248201526750726f7620494e5360c01b6044820152606490fd5b6000818152600160209081526040808320600f8101546001600160a01b031615615f5e57838251615e15816153a1565b52600d8101805485825580615f46575b508452838251615e34816153a1565b52600e8101805485825580615f2e575b50845260148101600260ff198254161790556013810180549060018201809211615f1a579386937fb39ebde6d06658d2f25237a5031f2a70eadf752f8ecc1b74081c3768822f02729360a0937f2d4e685f9af8cf88fb3e3447f1ee8e4e5e68423a2c393dc8d6e9784aa67ddafa989755866019820155857f7cdb7f0bd04877caf5dda7a202130926cdd67ad312dada203661ff6d880684348460128401548551908152a2601681015491600982015490600460108401549301549381519533875286015284015260608301526080820152a280a2565b634e487b7160e01b86526011600452602486fd5b818652848620615f40918101906155fb565b38615e44565b818652848620615f58918101906155fb565b38615e25565b815162461bcd60e51b81526004808201859052602482015263214d505360e01b6044820152606490fdfea2646970667358221220f4938d728e63024d0864e265def9755f13f8bc86170f8db67151cb1d007a6c9e64736f6c63430008170033","linkReferences":{}},"methodIdentifiers":{"applyForVerificationForRequest(uint256)":"6d8f9a0e","calculateMajorityAndReward(uint256,uint256)":"847ada57","cancelRequest(uint256)":"3015394c","chooseVerifiersForRequestTrigger(uint256)":"951c5ce2","compNFT()":"2d37463d","compToken()":"6605dfa7","completeRequest(uint256,string[])":"0625f161","createRequest(uint256,uint256,uint256,uint256,string[],string,uint256,uint256,uint256,uint256,uint256,uint256,bytes32,uint256)":"e007657e","createRequestWithAllowedVerifiers(uint256,uint256,uint256,uint256,string[],string,uint256,uint256,uint256,uint256,uint256,uint256,bytes32,uint256,function)":"ba0ff7c3","handlerFunctions()":"958a1a4b","isVerifierChosenForRound(uint256,uint256,address)":"d23759a7","providerFailure(uint256)":"3295845c","providerPrivateKeys(uint256,uint256)":"13f08bbf","providerSuccessCall(uint256)":"b10ceb59","requestCount()":"5badbe4c","requests(uint256)":"81d12c58","returnStake(uint256,uint256)":"38488abc","returnStakeDueToTimeout(uint256,uint256)":"e2e7cbe6","revealCommitment(uint256,bool,bytes32,bytes32)":"bfdb3451","revealProviderKeyAndHash(uint256,uint256,uint256,bytes32)":"253bd3e9","roundDetails(uint256,uint256)":"8ea49eca","selectRequest(uint256)":"e03ad0d1","submitCommitment(uint256,bytes32)":"e6a3d9dc","verificationDeadlinePassedForVeryfying(uint256,uint256)":"4beda221","verifications(uint256,uint256,address)":"70732440"},"id":2}