{"abi":[{"type":"constructor","inputs":[{"name":"compTokenAddress","type":"address","internalType":"address"}],"stateMutability":"nonpayable"},{"type":"function","name":"MIN_VERIFIERS","inputs":[],"outputs":[{"name":"","type":"uint256","internalType":"uint256"}],"stateMutability":"view"},{"type":"function","name":"PROVIDER_STAKE_PERCENTAGE","inputs":[],"outputs":[{"name":"","type":"uint256","internalType":"uint256"}],"stateMutability":"view"},{"type":"function","name":"applyForVerificationForRequest","inputs":[{"name":"requestId","type":"uint256","internalType":"uint256"}],"outputs":[],"stateMutability":"nonpayable"},{"type":"function","name":"calculateMajorityAndReward","inputs":[{"name":"requestId","type":"uint256","internalType":"uint256"},{"name":"roundNum","type":"uint256","internalType":"uint256"}],"outputs":[],"stateMutability":"nonpayable"},{"type":"function","name":"cancelRequest","inputs":[{"name":"requestId","type":"uint256","internalType":"uint256"}],"outputs":[],"stateMutability":"nonpayable"},{"type":"function","name":"chooseVerifiersForRequestTrigger","inputs":[{"name":"requestId","type":"uint256","internalType":"uint256"}],"outputs":[],"stateMutability":"nonpayable"},{"type":"function","name":"compToken","inputs":[],"outputs":[{"name":"","type":"address","internalType":"contract IERC20"}],"stateMutability":"view"},{"type":"function","name":"completeRequest","inputs":[{"name":"requestId","type":"uint256","internalType":"uint256"},{"name":"outputFileURLs","type":"string[]","internalType":"string[]"}],"outputs":[],"stateMutability":"nonpayable"},{"type":"function","name":"createRequest","inputs":[{"name":"paymentForProvider","type":"uint256","internalType":"uint256"},{"name":"paymentPerRoundForVerifiers","type":"uint256","internalType":"uint256"},{"name":"numOperations","type":"uint256","internalType":"uint256"},{"name":"numVerifiers","type":"uint256","internalType":"uint256"},{"name":"inputFileURLs","type":"string[]","internalType":"string[]"},{"name":"operationFileURL","type":"string","internalType":"string"},{"name":"computationDeadline","type":"uint256","internalType":"uint256"},{"name":"verificationDeadline","type":"uint256","internalType":"uint256"},{"name":"timeAllocatedForVerification","type":"uint256","internalType":"uint256"},{"name":"numVerifiersSampleSize","type":"uint256","internalType":"uint256"},{"name":"protocolVersion","type":"uint256","internalType":"uint256"}],"outputs":[],"stateMutability":"nonpayable"},{"type":"function","name":"getRequestDetails","inputs":[{"name":"requestId","type":"uint256","internalType":"uint256"}],"outputs":[{"name":"","type":"tuple","internalType":"struct ComputationMarket.Request","components":[{"name":"consumer","type":"address","internalType":"address"},{"name":"paymentForProvider","type":"uint256","internalType":"uint256"},{"name":"totalPaymentForVerifiers","type":"uint256","internalType":"uint256"},{"name":"numOperations","type":"uint256","internalType":"uint256"},{"name":"numVerifiers","type":"uint256","internalType":"uint256"},{"name":"inputFileURLs","type":"string[]","internalType":"string[]"},{"name":"operationFileURL","type":"string","internalType":"string"},{"name":"outputFileURLs","type":"string[]","internalType":"string[]"},{"name":"computationDeadline","type":"uint256","internalType":"uint256"},{"name":"verificationDeadline","type":"uint256","internalType":"uint256"},{"name":"totalPayment","type":"uint256","internalType":"uint256"},{"name":"completed","type":"bool","internalType":"bool"},{"name":"hasBeenComputed","type":"bool","internalType":"bool"},{"name":"numVerifiersSampleSize","type":"uint256","internalType":"uint256"},{"name":"verifiers","type":"address[]","internalType":"address[]"},{"name":"chosenVerifiers","type":"address[]","internalType":"address[]"},{"name":"mainProvider","type":"address","internalType":"address"},{"name":"timeAllocatedForVerification","type":"uint256","internalType":"uint256"},{"name":"layerCount","type":"uint256","internalType":"uint256"},{"name":"layerComputeIndex","type":"uint256","internalType":"uint256"},{"name":"roundIndex","type":"uint256","internalType":"uint256"},{"name":"state","type":"uint8","internalType":"enum ComputationMarket.RequestStates"},{"name":"stake","type":"uint256","internalType":"uint256"},{"name":"paymentPerRoundForVerifiers","type":"uint256","internalType":"uint256"},{"name":"totalPaidForVerification","type":"uint256","internalType":"uint256"},{"name":"protocolVersion","type":"uint256","internalType":"uint256"},{"name":"verifierSelectionCount","type":"uint256","internalType":"uint256"}]}],"stateMutability":"view"},{"type":"function","name":"getRoundDetails","inputs":[{"name":"requestId","type":"uint256","internalType":"uint256"},{"name":"roundIndex","type":"uint256","internalType":"uint256"}],"outputs":[{"name":"","type":"tuple","internalType":"struct ComputationMarket.RoundDetailsOutput","components":[{"name":"roundIndex","type":"uint256","internalType":"uint256"},{"name":"layerComputeIndex","type":"uint256","internalType":"uint256"},{"name":"verificationStartTime","type":"uint256","internalType":"uint256"},{"name":"commitEndTime","type":"uint256","internalType":"uint256"},{"name":"providerRevealEndTime","type":"uint256","internalType":"uint256"},{"name":"commitmentRevealEndTime","type":"uint256","internalType":"uint256"},{"name":"majorityVoteHash","type":"bytes32","internalType":"bytes32"},{"name":"majorityCount","type":"uint256","internalType":"uint256"},{"name":"mainProviderAnswerHash","type":"bytes32","internalType":"bytes32"}]}],"stateMutability":"view"},{"type":"function","name":"providerFailure","inputs":[{"name":"requestId","type":"uint256","internalType":"uint256"}],"outputs":[],"stateMutability":"nonpayable"},{"type":"function","name":"providerSuccessCall","inputs":[{"name":"requestId","type":"uint256","internalType":"uint256"}],"outputs":[],"stateMutability":"nonpayable"},{"type":"function","name":"requestCount","inputs":[],"outputs":[{"name":"","type":"uint256","internalType":"uint256"}],"stateMutability":"view"},{"type":"function","name":"requests","inputs":[{"name":"","type":"uint256","internalType":"uint256"}],"outputs":[{"name":"consumer","type":"address","internalType":"address"},{"name":"paymentForProvider","type":"uint256","internalType":"uint256"},{"name":"totalPaymentForVerifiers","type":"uint256","internalType":"uint256"},{"name":"numOperations","type":"uint256","internalType":"uint256"},{"name":"numVerifiers","type":"uint256","internalType":"uint256"},{"name":"operationFileURL","type":"string","internalType":"string"},{"name":"computationDeadline","type":"uint256","internalType":"uint256"},{"name":"verificationDeadline","type":"uint256","internalType":"uint256"},{"name":"totalPayment","type":"uint256","internalType":"uint256"},{"name":"completed","type":"bool","internalType":"bool"},{"name":"hasBeenComputed","type":"bool","internalType":"bool"},{"name":"numVerifiersSampleSize","type":"uint256","internalType":"uint256"},{"name":"mainProvider","type":"address","internalType":"address"},{"name":"timeAllocatedForVerification","type":"uint256","internalType":"uint256"},{"name":"layerCount","type":"uint256","internalType":"uint256"},{"name":"layerComputeIndex","type":"uint256","internalType":"uint256"},{"name":"roundIndex","type":"uint256","internalType":"uint256"},{"name":"state","type":"uint8","internalType":"enum ComputationMarket.RequestStates"},{"name":"stake","type":"uint256","internalType":"uint256"},{"name":"paymentPerRoundForVerifiers","type":"uint256","internalType":"uint256"},{"name":"totalPaidForVerification","type":"uint256","internalType":"uint256"},{"name":"protocolVersion","type":"uint256","internalType":"uint256"},{"name":"verifierSelectionCount","type":"uint256","internalType":"uint256"}],"stateMutability":"view"},{"type":"function","name":"returnStake","inputs":[{"name":"requestId","type":"uint256","internalType":"uint256"}],"outputs":[],"stateMutability":"nonpayable"},{"type":"function","name":"revealCommitment","inputs":[{"name":"requestId","type":"uint256","internalType":"uint256"},{"name":"agree","type":"bool","internalType":"bool"},{"name":"answer","type":"bytes32","internalType":"bytes32"},{"name":"nonce","type":"bytes32","internalType":"bytes32"}],"outputs":[],"stateMutability":"nonpayable"},{"type":"function","name":"revealProviderKeyAndHash","inputs":[{"name":"requestId","type":"uint256","internalType":"uint256"},{"name":"privateKey","type":"bytes32","internalType":"bytes32"},{"name":"answerHash","type":"bytes32","internalType":"bytes32"}],"outputs":[],"stateMutability":"nonpayable"},{"type":"function","name":"roundDetails","inputs":[{"name":"","type":"uint256","internalType":"uint256"},{"name":"","type":"uint256","internalType":"uint256"}],"outputs":[{"name":"roundIndex","type":"uint256","internalType":"uint256"},{"name":"layerComputeIndex","type":"uint256","internalType":"uint256"},{"name":"verificationStartTime","type":"uint256","internalType":"uint256"},{"name":"commitEndTime","type":"uint256","internalType":"uint256"},{"name":"providerRevealEndTime","type":"uint256","internalType":"uint256"},{"name":"commitmentRevealEndTime","type":"uint256","internalType":"uint256"},{"name":"majorityVoteHash","type":"bytes32","internalType":"bytes32"},{"name":"majorityCount","type":"uint256","internalType":"uint256"},{"name":"mainProviderAnswerHash","type":"bytes32","internalType":"bytes32"}],"stateMutability":"view"},{"type":"function","name":"selectRequest","inputs":[{"name":"requestId","type":"uint256","internalType":"uint256"}],"outputs":[],"stateMutability":"nonpayable"},{"type":"function","name":"startNextRound","inputs":[{"name":"requestId","type":"uint256","internalType":"uint256"}],"outputs":[],"stateMutability":"nonpayable"},{"type":"function","name":"submitCommitment","inputs":[{"name":"requestId","type":"uint256","internalType":"uint256"},{"name":"computedHash","type":"bytes32","internalType":"bytes32"}],"outputs":[],"stateMutability":"nonpayable"},{"type":"function","name":"verificationDeadlinePassedForVeryfying","inputs":[{"name":"requestId","type":"uint256","internalType":"uint256"},{"name":"roundNum","type":"uint256","internalType":"uint256"}],"outputs":[],"stateMutability":"nonpayable"},{"type":"event","name":"CommitmentPhaseStarted","inputs":[{"name":"requestId","type":"uint256","indexed":true,"internalType":"uint256"},{"name":"startTime","type":"uint256","indexed":false,"internalType":"uint256"},{"name":"endTime","type":"uint256","indexed":false,"internalType":"uint256"},{"name":"layerComputeIndex","type":"uint256","indexed":false,"internalType":"uint256"}],"anonymous":false},{"type":"event","name":"CommitmentSubmitted","inputs":[{"name":"requestId","type":"uint256","indexed":true,"internalType":"uint256"},{"name":"verifier","type":"address","indexed":true,"internalType":"address"}],"anonymous":false},{"type":"event","name":"NoMajorityForRound","inputs":[{"name":"requestId","type":"uint256","indexed":true,"internalType":"uint256"},{"name":"layerComputeIndex","type":"uint256","indexed":false,"internalType":"uint256"}],"anonymous":false},{"type":"event","name":"ProviderResultSuccessfullyVerified","inputs":[{"name":"requestId","type":"uint256","indexed":true,"internalType":"uint256"}],"anonymous":false},{"type":"event","name":"ProviderResultUnsuccessful","inputs":[{"name":"requestId","type":"uint256","indexed":true,"internalType":"uint256"}],"anonymous":false},{"type":"event","name":"ProviderRevealed","inputs":[{"name":"requestId","type":"uint256","indexed":true,"internalType":"uint256"},{"name":"privateKey","type":"bytes32","indexed":false,"internalType":"bytes32"},{"name":"answerHash","type":"bytes32","indexed":false,"internalType":"bytes32"}],"anonymous":false},{"type":"event","name":"ProviderSelected","inputs":[{"name":"requestId","type":"uint256","indexed":true,"internalType":"uint256"},{"name":"provider","type":"address","indexed":true,"internalType":"address"}],"anonymous":false},{"type":"event","name":"ProviderSlashed","inputs":[{"name":"requestId","type":"uint256","indexed":true,"internalType":"uint256"},{"name":"provider","type":"address","indexed":true,"internalType":"address"}],"anonymous":false},{"type":"event","name":"RequestCompleted","inputs":[{"name":"requestId","type":"uint256","indexed":true,"internalType":"uint256"},{"name":"provider","type":"address","indexed":true,"internalType":"address"}],"anonymous":false},{"type":"event","name":"RequestCreated","inputs":[{"name":"requestId","type":"uint256","indexed":true,"internalType":"uint256"},{"name":"consumer","type":"address","indexed":true,"internalType":"address"}],"anonymous":false},{"type":"event","name":"RevealVerificationDetails","inputs":[{"name":"requestId","type":"uint256","indexed":true,"internalType":"uint256"},{"name":"endTime","type":"uint256","indexed":false,"internalType":"uint256"},{"name":"verifier","type":"address","indexed":true,"internalType":"address"}],"anonymous":false},{"type":"event","name":"RoundInitialised","inputs":[{"name":"requestId","type":"uint256","indexed":true,"internalType":"uint256"}],"anonymous":false},{"type":"event","name":"RoundRevealStarted","inputs":[{"name":"requestId","type":"uint256","indexed":true,"internalType":"uint256"}],"anonymous":false},{"type":"event","name":"RoundStartedForVerificationSelection","inputs":[{"name":"requestId","type":"uint256","indexed":true,"internalType":"uint256"},{"name":"layerComputeIndex","type":"uint256","indexed":false,"internalType":"uint256"}],"anonymous":false},{"type":"event","name":"VerificationApplied","inputs":[{"name":"requestId","type":"uint256","indexed":true,"internalType":"uint256"},{"name":"verifier","type":"address","indexed":true,"internalType":"address"},{"name":"layerComputeIndex","type":"uint256","indexed":true,"internalType":"uint256"}],"anonymous":false},{"type":"event","name":"VerificationSelectionStarted","inputs":[{"name":"requestId","type":"uint256","indexed":true,"internalType":"uint256"},{"name":"layerComputeIndex","type":"uint256","indexed":false,"internalType":"uint256"}],"anonymous":false},{"type":"event","name":"VerifierChosen","inputs":[{"name":"requestId","type":"uint256","indexed":true,"internalType":"uint256"},{"name":"verifier","type":"address","indexed":true,"internalType":"address"},{"name":"layerComputeIndex","type":"uint256","indexed":true,"internalType":"uint256"},{"name":"verifierIndex","type":"uint256","indexed":false,"internalType":"uint256"}],"anonymous":false},{"type":"event","name":"VerifierUnchosen","inputs":[{"name":"requestId","type":"uint256","indexed":true,"internalType":"uint256"},{"name":"verifier","type":"address","indexed":true,"internalType":"address"},{"name":"layerComputeIndex","type":"uint256","indexed":true,"internalType":"uint256"},{"name":"verifierIndex","type":"uint256","indexed":false,"internalType":"uint256"}],"anonymous":false},{"type":"event","name":"VoteSubmitted","inputs":[{"name":"requestId","type":"uint256","indexed":true,"internalType":"uint256"},{"name":"verifier","type":"address","indexed":true,"internalType":"address"},{"name":"agree","type":"bool","indexed":false,"internalType":"bool"}],"anonymous":false},{"type":"event","name":"requestCancelled","inputs":[{"name":"requestId","type":"uint256","indexed":true,"internalType":"uint256"}],"anonymous":false}],"bytecode":{"object":"0x608034620000c657601f620048be38819003918201601f19168301916001600160401b03831184841017620000cb57808492602094604052833981010312620000c657516001600160a01b03811690819003620000c65780156200008157600080546001600160a01b0319169190911790556040516147dc9081620000e28239f35b60405162461bcd60e51b815260206004820152601560248201527f496e76616c696420746f6b656e206164647265737300000000000000000000006044820152606490fd5b600080fd5b634e487b7160e01b600052604160045260246000fdfe6101e0604052600436101561001357600080fd5b60003560e01c80630625f161146136b6578063090085631461354c578063275d95a1146133ef5780633015394c146133d35780633295845c146133b75780634beda221146131df57806353e2ba17146131c35780635badbe4c146131a55780635e16a9d8146131895780636605dfa7146131605780636d8f9a0e14612ceb57806381d12c5814612ad5578063847ada57146125355780638ea49eca146124a7578063951c5ce214611f42578063ad1279d914611197578063b10ceb5914611001578063bfdb345114610c26578063ddf3532c14610b02578063e03ad0d1146108be578063e20fb7a1146106a6578063e6a3d9dc146105315763f34d4c631461011a57600080fd5b3461052c57602036600319011261052c57600061034060405161013c81613998565b828152826020820152826040820152826060820152826080820152606060a0820152606060c0820152606060e08201528261010082015282610120820152826101408201528261016082015282610180820152826101a082015260606101c082015260606101e08201528261020082015282610220820152826102408201528261026082015282610280820152826102a0820152826102c0820152826102e082015282610300820152826103208201520152600435600052600260205260406000206040519061020b82613998565b80546001600160a01b031682526001810154602083015260028101546040830152600381015460608301526004810154608083015261024c6005820161437c565b60a083015261025d60068201613b63565b60c083015261026e6007820161437c565b60e083015260088101546101008301526009810154610120830152600a81015461014083015260ff600b820154818116151561016085015260081c161515610180830152600c8101546101a08301526102c9600d82016143d1565b6101c08301526102db600e82016143d1565b6101e0830152600f8101546001600160a01b03166102008301526010810154610220830152601181015461024083015260128101546102608301526013810154610280830152601481015460ff16906009821015610516576019916102a084015260158101546102c084015260168101546102e084015260178101546103008401526018810154610320840152015461034082015260405180916020825260018060a01b038151166020830152602081015160408301526040810151606083015260608101516080830152608081015160a083015261034061048361046b6104076103f06103da60a087015161036060c08a0152610380890190613c55565b60c0870151888203601f190160e08a0152613c08565b60e0860151878203601f1901610100890152613c55565b610100850151610120870152610120850151610140870152610140850151610160870152610160850151151561018087015261018085015115156101a08701526101a08501516101c08701526101c0850151601f19878303016101e0880152613cb2565b6101e0840151858203601f1901610200870152613cb2565b9160018060a01b03610200820151166102208501526102208101516102408501526102408101516102608501526102608101516102808501526102808101516102a08501526104dc6102a08201516102c0860190613c48565b6102c08101516102e08501526102e08101516103008501526103008101516103208501526103208101518285015201516103608301520390f35b634e487b7160e01b600052602160045260246000fd5b600080fd5b3461052c57604036600319011261052c5760043580600052602060028152604060002090600481526040600020601383015490816000528252604060002033600052825260ff601460406000209401541660098110156105165760030361065557836000526003825260406000208160005282526007604060002001544211610617578360005260038252604060002090600052815260036040600020019033600052526105e660ff6040600020541661430b565b600460243591015533907f22d30f6da93667100b64d15e5ea70afec217caeab1008706f57bfa4deed12c63600080a3005b60405162461bcd60e51b815260048101839052601660248201527510dbdb5b5a5d1b595b9d081c1a185cd948195b99195960521b6044820152606490fd5b60405162461bcd60e51b815260048101839052602360248201527f52657175657374206e6f742079657420696e20636f6d6d69746d656e7420737460448201526261746560e81b6064820152608490fd5b3461052c57606036600319011261052c576004356044358160005260206002815260406000209160018060a01b03600f84015416330361085e578360005260038252604060002090601384015491826000528352600760406000200154421115610819578460005260038352604060002082600052835260086040600020015442116107d4576040519183830192828452600160f81b60408201526021815260608101938185106001600160401b038611176107be577f4b8ecdcde49a7d4d879a4bf5a6cc37c7086e65774f161d4bf99c01aaa1882f8996604096608094601493888a5285519020918b60005260038152896000209160005252600c88600020015501600460ff1982541617905560243584520152a2005b634e487b7160e01b600052604160045260246000fd5b60405162461bcd60e51b815260048101849052601b60248201527f50726f76696465722072657665616c20706861736520656e64656400000000006044820152606490fd5b60405162461bcd60e51b815260048101849052601a60248201527f436f6d6d69746d656e74207068617365206e6f7420656e6465640000000000006044820152606490fd5b60405162461bcd60e51b815260048101839052603260248201527f4f6e6c7920746865206d61696e2070726f76696465722063616e2072657665616044820152710d840e8d0ca40d6caf240c2dcc840d0c2e6d60731b6064820152608490fd5b3461052c5760208060031936011261052c5760043590816000526002815260406000206108f16008820154421115613cef565b600f810180546001600160a01b0393908416610abe576015830154600054604051636eb1769f60e11b8152336004820152306024820152919516908281604481855afa908115610a5457600091610a91575b506040516370a0823160e01b8152336004820152908382602481865afa918215610a5457600092610a60575b509186610990816109c09461098960009b89981015614207565b1015614207565b6040516323b872dd60e01b8152336004820152306024820152604481019190915296879283919082906064820190565b03925af18015610a54576014946109e092600092610a27575b5050614207565b336001600160601b0360a01b82541617905501600160ff1982541617905533907f3c84569ae9be7c8e6e8edf0c0cbeb7e00cf9cb4d9b67849728be8ab96e09bec1600080a3005b610a469250803d10610a4d575b610a3e8183613a06565b810190613dc0565b86806109d9565b503d610a34565b6040513d6000823e3d90fd5b9150918382813d8311610a8a575b610a788183613a06565b8101031261052c57905190918661096f565b503d610a6e565b90508281813d8311610ab7575b610aa88183613a06565b8101031261052c575187610943565b503d610a9e565b6064906040519062461bcd60e51b82526004820152601960248201527f50726f766964657220616c72656164792073656c6563746564000000000000006044820152fd5b3461052c57610120610b1336613b13565b60405191610b20836139b4565b6000835260006020840152600060408401526000606084015260006080840152600060a0840152600060c0840152600060e08401526000610100809401526000526003602052604060002090600052602052604060002090600482015491600581015490600681015460078201546008830154600984015491600a85015493600c600b8701549601549688604051610bb7816139b4565b8b81526020810192835260408101938452606081019485526080810195865260a0810196875260c0810197885260e0810198895201978852604051998a525160208a01525160408901525160608801525160808701525160a08601525160c08501525160e08401525190820152f35b3461052c57608036600319011261052c5760043560249081359182151580930361052c5760449081356064948535958560005260209660028852604060002094600393848a526040600020956013880196875490816000528c52600860406000200154421115610fbf578a600052868c526040600020816000528c526009604060002001544211610f88578a600052868c526040600020816000528c5286604060002001336000528c5260ff6040600020541615610f46578a60005260048c526040600020906000528b526040600020336000528b526040600020928684019586549a60ff8c16610f06578d604051908101908582528860408201523360601b606082015260548152610d38816139d0565b519020600487015403610ece5750506040518c8101918383528460f81b60408301526021825260608201908282106001600160401b03831117610eba57509260149997959260059b999795928c9560405251902095869584549260018601556002850155600160ff19809e16179055339160ff60a01b9060a01b16906affffffffffffffffffffff60a81b1617178155015587600052818952604060002083546000528952604060002081600052808a526040600020610df8815461436d565b905581600052808a5260406000205491600b820192835490818114600014610e715750505050508660005287526040600020905460005286526000600a6040822001555b01918254161790557fb59f6416758d4763386b2c83d12c7c643131c90beff0caea486f303510702ce3604051924284523393a3005b95929491939511610e87575b5050505050610e3c565b896000528a5260406000209054600052895280600a60406000200155600052875260406000205490558680808080610e7d565b634e487b7160e01b60009081526041600452fd5b74496e76616c69642072657665616c2076616c75657360581b8e916015856040519462461bcd60e51b86526004860152840152820152fd5b7f436f6d6d69746d656e7420616c72656164792072657665616c656400000000008e91601b856040519462461bcd60e51b86526004860152840152820152fd5b60405162461bcd60e51b8152600481018d9052601f818601527f596f7520617265206e6f74207468652063686f73656e20766572696669657200818c01528690fd5b60405162461bcd60e51b8152600481018d90526012818601527114995d99585b081c1a185cd948195b99195960721b818c01528690fd5b60405162461bcd60e51b8152600481018d9052601f818601527f50726f76696465722072657665616c207068617365206e6f7420656e64656400818c01528690fd5b3461052c5760208060031936011261052c5760043590816000526002815260406000209060098201544210158061117c575b8061116d575b15611116576110b190600b83019260ff19936001858254161790558160018060a01b03806000541690600f840154169061107c6015850154600186015490613dd8565b60405163a9059cbb60e01b81526001600160a01b03909316600484015260248301529094859190829060009082906044820190565b03925af1918215610a54576006936014936110f8575b505001918254161790557f953601eba1acf6d4769af39f3986a5be6acd796655930c93832c2f239fbccabf600080a2005b8161110e92903d10610a4d57610a3e8183613a06565b5085806110c7565b6084906040519062461bcd60e51b82526004820152602a60248201527f566572696669636174696f6e20446561646c696e6520686173206e6f7420626560448201526932b7103830b9b9b2b21760b11b6064820152fd5b5060ff600b8301541615611039565b5060ff60148301541660098110156105165760071415611033565b3461052c5761016036600319011261052c576084356001600160401b03811161052c576111c8903690600401613a94565b60a4356001600160401b03811161052c576111e7903690600401613a3e565b906103e76044350160443511611bf2576112196103e86103e7604435010461121461012435602435613d3b565b613d3b565b9161122683600435613dd8565b600360643510611efd57600054604051636eb1769f60e11b81523360048201523060248201526001600160a01b0390911690602081604481855afa908115610a5457600091611ecb575b506040516370a0823160e01b8152336004820152602081602481865afa918215610a54578491600093611e94575b5010611e33578211611dd4576040516323b872dd60e01b81523360048201523060248201526044810183905290602090829060649082906000905af1908115610a5457600091611db5575b5015611d7f574260c4351115611d145761010435600361010435020460031461010435151715611bf257611338611330600361010435026103e86103e76044350104613d3b565b60c435613dd8565b60e4351115611c99576101243560643510611c0857604051611359816139eb565b600081526040519261136a846139eb565b600084526040519461137b866139eb565b60008652600435600a6004350204600a14600435151715611bf257604051966113a388613998565b338852600435602089015260408801526044356060880152606435608088015260a087015260c086015260e085015260c43561010085015260e43561012085015261014084015260006101608401526000610180840152610124356101a08401526101c08301526101e08201526000610200820152610104356102208201526103e86103e760443501046102408201526000610260820152600061028082015260006102a08201526064600a60043502046102c08201526024356102e082015260006103008201526101443561032082015260006103408201526001546000526002602052604060002060018060a01b038251166001600160601b0360a01b8254161781556020820151600182015560408201516002820155606082015160038201556080820151600482015560a0820151805190600160401b82116107be576005830154826005850155808310611b79575b5060200190600583016000526020600020916000905b828210611a6057858560c08201519182516001600160401b0381116107be576115386006840154613b29565b601f8111611a2b575b506020601f82116001146119bd5781906115749394956000926119b2575b50508160011b916000199060031b1c19161790565b60068301555b60e0810151805190600160401b82116107be57600784015482600786015580831061193a575b5060200190600784016000526020600020916000905b82821061181457858561010081015160088301556101208101516009830155610140810151600a830155600b82016101608201511515815460ff61ff00610180860151151560081b1692169061ffff1916171790556101a0810151600c8301556101c08101518051906001600160401b0382116107be57600160401b82116107be57602090600d85015483600d8701558084106117f4575b5001600d8401600052602060002060005b8381106117d75785856101e08101518051906001600160401b0382116107be57600160401b82116107be57602090600e85015483600e8701558084106117b7575b5001600e8401600052602060002060005b83811061179a578585600f820160018060a01b03610200830151166001600160601b0360a01b825416179055610220810151601083015561024081015160118301556102608101516012830155610280810151601383015560148201906102a0810151906009821015610516576019926103409260ff801983541691161790556102c081015160158501556102e0810151601685015561030081015160178501556103208101516018850155015191015561176d60015461436d565b8060015533907f233bb55fd57b21b8a3d15c9ad8fbbab435fe4cf2865cc654f6a57d9d4d8cda54600080a3005b82516001600160a01b0316818301556020909201916001016116b1565b6117d190600e870160005284846000209182019101613d4e565b856116a0565b82516001600160a01b03168183015560209092019160010161165f565b61180e90600d870160005284846000209182019101613d4e565b8561164e565b80518051906001600160401b0382116107be576118318654613b29565b601f81116118fd575b50602090601f831160011461188d5792611873836001959460209487966000926118825750508160011b916000199060031b1c19161790565b87555b019401910190926115b6565b015190508c8061155f565b908660005260206000209160005b601f19851681106118e5575083602093600196938796938794601f198116106118cc575b505050811b018755611876565b015160001960f88460031b161c191690558b80806118bf565b9192602060018192868501518155019401920161189b565b61192a90876000526020600020601f850160051c81019160208610611930575b601f0160051c0190613d4e565b8861183a565b909150819061191d565b600785016000526020600020908382015b818301811061195b5750506115a0565b8061196860019254613b29565b80611975575b500161194b565b601f8111831461198b5750600081555b8861196e565b6000908282526119a9601f60208420920160051c8201858301613d4e565b81835555611985565b01519050858061155f565b6006840160005260206000209060005b601f1984168110611a135750600193949583601f198116106119fa575b505050811b01600683015561157a565b015160001960f88460031b161c191690558480806119ea565b9091602060018192858a0151815501930191016119cd565b611a5a90600685016000526020600020601f840160051c8101916020851061193057601f0160051c0190613d4e565b84611541565b80518051906001600160401b0382116107be57611a7d8654613b29565b90601f91828111611b3f575b506020918311600114611acf5792611ac0836001959460209487966000926118825750508160011b916000199060031b1c19161790565b87555b0194019101909261150c565b908660005260206000209160005b601f1985168110611b27575083602093600196938796938794601f19811610611b0e575b505050811b018755611ac3565b015160001960f88460031b161c191690558b8080611b01565b91926020600181928685015181550194019201611add565b611b6a908860005260206000208480870160051c82019260208810611b70575b0160051c0190613d4e565b89611a89565b92508192611b5f565b600584016000526020600020908382015b8183018110611b9a5750506114f6565b80611ba760019254613b29565b80611bb4575b5001611b8a565b601f908181118414611bcd575050600081555b88611bad565b611be960009284845260208420920160051c8201858301613d4e565b81835555611bc7565b634e487b7160e01b600052601160045260246000fd5b60405162461bcd60e51b815260206004820152605d60248201527f4e6f7420656e6f7567682076657269666965727320746f2063686f6f7365206660448201527f726f6d2e206e756d566572696669657273206d7573742062652067726561746560648201527f72207468616e206e756d56657269666965727353616d706c6553697a65000000608482015260a490fd5b60405162461bcd60e51b815260206004820152604760248201527f566572696669636174696f6e20646561646c696e65206d75737420626520737560448201527f6666696369656e7420656e6f75676820666f7220616c6c20726f756e64732072606482015266195c5d5a5c995960ca1b608482015260a490fd5b60405162461bcd60e51b815260206004820152603c60248201527f436f6d7075746174696f6e616c20646561646c696e65206d757374206265206760448201527f726561746572207468616e207468652063757272656e742074696d65000000006064820152608490fd5b60405162461bcd60e51b815260206004820152600e60248201526d14185e5b595b9d0819985a5b195960921b6044820152606490fd5b611dce915060203d602011610a4d57610a3e8183613a06565b856112e9565b60405162461bcd60e51b815260206004820152603160248201527f496e73756666696369656e742062616c616e636520617661696c61626c6520746044820152701bc818dbdb991d58dd081c995c5d595cdd607a1b6064820152608490fd5b60405162461bcd60e51b815260206004820152603360248201527f496e73756666696369656e7420616c6c6f77616e636520617661696c61626c65604482015272081d1bc818dbdb991d58dd081c995c5d595cdd606a1b6064820152608490fd5b915091506020813d602011611ec3575b81611eb160209383613a06565b8101031261052c57839051918861129e565b3d9150611ea4565b90506020813d602011611ef5575b81611ee660209383613a06565b8101031261052c575186611270565b3d9150611ed9565b60405162461bcd60e51b815260206004820152601d60248201527f4174206c656173742033207665726966696572732072657175697265640000006044820152606490fd5b3461052c57602036600319011261052c5760043560005260026020526040600020600d81015460048201805482036124585760ff600b84015460081c161561240957600c8301918254116123b857600983015460108401549081600302916003830403611bf257611fb6611fbd9242613dd8565b1115614248565b600435600052600360205260406000206013840154908160005260205260016040600020013360005260205260ff604060002054166123735760043560005260036020526040600020906000526020526001604060002001336000526020526040600020600160ff1982541617905560198301548254908181106000146122255750505461205060198401548092614047565b60405160208101904282524460408201523360601b606082015260548152612077816139d0565b51902090801561220f5782612090916120f99306613dd8565b6120db6120bf6120a383600d89016142ba565b905460039190911b1c6001600160a01b031694600d88016142ba565b905460039190911b1c6001600160a01b031691600d87016142ba565b90919060018060a01b038084549260031b9316831b921b1916179055565b61210e816120db6019860154600d87016142ba565b601983015461212081600d86016142ba565b60018060a01b0391549060031b1c166012850154916040519081527f441ea878e9821f31af14375bef585bac76bbbde0e10feddc036673243d01a1d7602060043592a46004356000526003602052604060002060138401546000526020526003604060002001906000526020526040600020600160ff198254161790556121cc6121b16019840154600d85016142ba565b905460039190911b1c6001600160a01b0316600e84016142e8565b60168201546121e060178401918254613dd8565b90555b60198201549160018301809311611bf257601983910155541461220257005b61220d6004356145a7565b005b634e487b7160e01b600052601260045260246000fd5b149050612363575b60198201546122df602061224483600d87016142ba565b939060018060a01b03948591549060031b1c166012870154906040518381527fd2673c2f320637ecd6e1e7a21780cb318c5a6c5b49398f8c5ae9d0ae0aad47438560043592a48361229d816000541692600d89016142ba565b90549060031b1c1690601687015491600060405180968195829463a9059cbb60e01b84526004840160209093929193604081019460018060a01b031681520152565b03925af18015610a5457612344575b506004356000526005602052604060002060138401546000526020526040600020906123216019850154600d86016142ba565b90549060031b1c166000526020526040600020600160ff198254161790556121e3565b61235c9060203d602011610a4d57610a3e8183613a06565b50836122ee565b61236e6004356145a7565b61222d565b60405162461bcd60e51b815260206004820152601e60248201527f56657269666965722068617320616c72656164792074726967676572656400006044820152606490fd5b60405162461bcd60e51b815260206004820152602360248201527f4e6f7420656e6f7567682076657269666965727320746f2063686f6f73652066604482015262726f6d60e81b6064820152608490fd5b60405162461bcd60e51b815260206004820152602160248201527f5265717565737420686173206e6f74206265656e20636f6d70757465642079656044820152601d60fa1b6064820152608490fd5b60405162461bcd60e51b815260206004820152602160248201527f5665726966696572206c69737420686173206e6f74206265656e2066696c6c656044820152601960fa1b6064820152608490fd5b3461052c576124b536613b13565b9060005260036020526040600020906000526020526101206040600020600481015490600581015490600681015460078201546008830154600984015491600a85015493600c600b87015496015496604051988952602089015260408801526060870152608086015260a085015260c084015260e0830152610100820152f35b3461052c5761254336613b13565b816000526020600281526040600020906003918282526040600020846000528252612578600960406000200154421015613d65565b846000528282526040600020846000528252826040600020013360005282526125a860ff6040600020541661430b565b84600052600482526040600020846000528252604060002033600052825260ff60066040600020015416612a7c57601381019283548511612a1157600185106129b45785600052600483526040600020856000528352604060002033600052835260066040600020019060ff1991600183825416179055866000528084526040600020866000528452600a6040600020015480156000146126be575050600080546016939093015460405163a9059cbb60e01b815233600482015260248101919091529284925083916044918391906001600160a01b03165af18015610a54576126a0575b5050541461269757005b61220d9061442b565b816126b692903d10610a4d57610a3e8183613a06565b50838061268d565b909295919487600052600485526040600020836000528552604060002033600052855260056040600020015482146128fd575b54928284146126fc57005b6000888152908552604080822084835286529020600c01541461273f57505050506014015460ff1660098110156105165760070361273657005b61220d90614054565b6012859293949695019260118454930154916000198301838111611bf25784036128c95750505050612771815461436d565b90558160005260028152604060002092601484019160ff83541660098110156105165760071461288557600b8501805460ff8116612840579582916001856127e09798991617905560018060a01b0361107c816000541691600f84015416926001601582015491015490613dd8565b03925af1928315610a5457600693612822575b50508254161790557f953601eba1acf6d4769af39f3986a5be6acd796655930c93832c2f239fbccabf600080a2005b8161283892903d10610a4d57610a3e8183613a06565b5084806127f3565b60405162461bcd60e51b815260048101849052601c60248201527f5265717565737420697320616c726561647920636f6d706c65746564000000006044820152606490fd5b6064906040519062461bcd60e51b82526004820152601760248201527f5265717565737420697320756e7375636365737366756c0000000000000000006044820152fd5b919394509195501490816128f2575b506128df57005b6128eb61220d9361436d565b905561442b565b9050831415846128d8565b6016870154612910600c89015482613d3b565b90896000528587526040600020856000528752604060002084600052875260406000205490811561220f57600092612958612982928a9460018060a01b038754169304613dd8565b60405163a9059cbb60e01b8152336004820152602481019190915293849283919082906044820190565b03925af18015610a5457612997575b506126f1565b6129ad90863d8811610a4d57610a3e8183613a06565b5088612991565b60405162461bcd60e51b815260048101849052602f60248201527f526f756e64206e756d626572206d75737420626520677265617465722074686160448201526e6e206f7220657175616c20746f203160881b6064820152608490fd5b60405162461bcd60e51b815260048101849052603a60248201527f726f756e64206e756d206d757374206265206c657373207468616e206f72206560448201527f7175616c20746f20726571756573742e726f756e64496e6465780000000000006064820152608490fd5b60405162461bcd60e51b815260048101839052602b60248201527f596f75206861766520616c7265616479206265656e207061696420666f72207660448201526a32b934b334b1b0ba34b7b760a91b6064820152608490fd5b3461052c57602036600319011261052c57600435600052600260205260406000206101c05260018060a01b03612ca8816101c051541660016101c05101549060026101c05101546101405260036101c05101546101605260046101c05101546101a052612b4760066101c05101613b63565b60086101c05101546101205260096101c051015494600a6101c051015490600b6101c051015490600c6101c051015490600f6101c0510154169060ff60106101c05101549360116101c051015495612c3660126101c05101549860136101c05101549a8560146101c0510154169c60156101c051015460805260166101c051015460a05260176101c051015460e05260186101c05101546101805260196101c05101546101005260405160c0526102e09160c05152602060c051015261014051604060c051015261016051606060c05101526101a051608060c05101528060a060c051015260c0510190613c08565b9b6101205160c08051015260e060c051015261010060c0510152818116151561012060c051015260081c16151561014060c051015261016060c051015261018060c05101526101a060c05101526101c060c05101526101e060c051015261020060c051015261022060c0510190613c48565b60805161024060c051015260a05161026060c051015260e05161028060c0510152610180516102a060c0510152610100516102c060c051015260c051900360c051f35b3461052c5760208060031936011261052c5760043590816000526002815260406000209060ff600b83015460081c161561311c57600f8201546001600160a01b039290831633146130bb57600d81019081549360048201948554111561307d5760ff601483015416600981101561051657600203612fec57600054604051636eb1769f60e11b81523360048201523060248201529116908481604481855afa908115610a5457600091612fbf575b506040516370a0823160e01b8152336004820152908582602481865afa8015610a54578692600091612f8c575b5092610989612de5612e15936000966016890154938480931015614207565b6040516323b872dd60e01b8152336004820152306024820152604481019190915293849283919082906064820190565b03925af18015610a5457612e3191600091612f6f575b50614207565b600981015460108201549081600302916003830403611bf257611fb6612e579242613dd8565b84600052600383526040600020601382015490816000528452600260406000200133600052845260ff60406000205416612f2a57906012918660005260038552604060002090600052845260026040600020013360005284526040600020600160ff19825416179055612eca33846142e8565b015492604051918433877f9e9159f67684b4639ef3d20a0878e965d2fa78dc33561fadb2485cd3d3447abf600080a454905414612f0357005b7fac6c772803856f8be288c38a92349502c9d976deccefb05524c4eafedf049aeb928152a2005b60405162461bcd60e51b815260048101859052601860248201527f566572696669657220616c7265616479206170706c69656400000000000000006044820152606490fd5b612f869150853d8711610a4d57610a3e8183613a06565b87612e2b565b8381939492503d8311612fb8575b612fa48183613a06565b8101031261052c5751859190610989612dc6565b503d612f9a565b90508481813d8311612fe5575b612fd68183613a06565b8101031261052c575187612d99565b503d612fcc565b60405162461bcd60e51b815260048101859052605960248201527f56657269666965722063616e6e6f74206170706c7920666f722076657269666960448201527f636174696f6e2e2052657175657374207374617465206d75737420626520696e60648201527f2063686f6f73696e672076657269666965727320737461746500000000000000608482015260a490fd5b60405162461bcd60e51b815260048101859052601660248201527515995c9a599a595c881b1a5b5a5d081c995858da195960521b6044820152606490fd5b60405162461bcd60e51b815260048101839052603360248201527f546865206d61696e2070726f76696465722063616e6e6f74206170706c79207460448201527237903132b1b7b6b29030903b32b934b334b2b960691b6064820152608490fd5b6064906040519062461bcd60e51b82526004820152601860248201527f52657175657374206e6f742079657420636f6d707574656400000000000000006044820152fd5b3461052c57600036600319011261052c576000546040516001600160a01b039091168152602090f35b3461052c57600036600319011261052c576020604051600a8152f35b3461052c57600036600319011261052c576020600154604051908152f35b3461052c57600036600319011261052c57602060405160038152f35b3461052c576131ed36613b13565b9080600052602091600283526040600020916009830154601084015480600302906003820403611bf2576132219042613dd8565b11156133615780600052600384526040600020826000528452600260406000200133600052845260ff60406000205416156132e05760009081526003845260408082209282529184528181203380835260029091018552828220805460ff19169055815460169490940154925163a9059cbb60e01b81526004810191909152602481019290925290918391839160449183916001600160a01b03165af18015610a54576132ca57005b8161220d92903d10610a4d57610a3e8183613a06565b60405162461bcd60e51b815260048101859052604d60248201527f5665726966696572206861732065697468657220616c7265616479207265636960448201527f65766564207374616b652c206f7220646964206e6f74206170706c7920666f7260648201526c103b32b934b334b1b0ba34b7b760991b608482015260a490fd5b60405162461bcd60e51b815260048101859052602860248201527f566572696669636174696f6e20646561646c696e6520686173206e6f742079656044820152671d081c185cdcd95960c21b6064820152608490fd5b3461052c57602036600319011261052c5761220d600435614054565b3461052c57602036600319011261052c5761220d600435613de5565b3461052c5760208060031936011261052c57600435806000526002825260406000209060058352604060002091601381019283546000528452604060002033600052845260ff60406000205416156134d557600080546016929092015460405163a9059cbb60e01b81523360048201526024810191909152918591839160449183916001600160a01b03165af18015610a54576134b8575b50600052600582526040600020905460005281526040600020903360005252604060002060ff198154169055600080f35b6134ce90843d8611610a4d57610a3e8183613a06565b5083613487565b60405162461bcd60e51b815260048101859052604360248201527f456974686572207374616b652068617320616c7265616479206265656e20726560448201527f7475726e65642c206f72206e6f742074686520636f727265637420766572696660648201526234b2b960e91b608482015260a490fd5b3461052c5760208060031936011261052c57600435908160005260028152604060002060ff60148201541660098110156105165760050361365e57826000526003825260136040600020910154908160005282526135b4600960406000200154421015613d65565b82600052600382526040600020816000528252600a604060002001549083600052600383526040600020906000528252600c60406000200154036135fb5761220d8261442b565b6084906040519062461bcd60e51b82526004820152603660248201527f50726f766964657220616e73776572206861736820646f6573206e6f74206d616044820152750e8c6d040dac2d4dee4d2e8f240ecdee8ca40d0c2e6d60531b6064820152fd5b60405162461bcd60e51b815260048101839052602a60248201527f52657175657374206e6f742079657420696e20636f6d6d69746d656e742072656044820152697665616c20737461746560b01b6064820152608490fd5b3461052c57604036600319011261052c5760246004356001600160401b03823581811161052c576136eb903690600401613a94565b908260005260209060028252604060002061370c6008820154421115613cef565b600f8101546001600160a01b031633036139415780600b6007920161010061ff00198254161790550190835193600160401b85116107be57839083548685558087106138c7575b506000938452848420939791015b8588106137985761220d8733817f1d961eb7779cdf87f83b3c5ca1e5a7b0b7832f5fc1f9b813fea6787daf0e884c600080a361442b565b80518051908482116138b257908692916137b28754613b29565b90601f9182811161387a575b508491831160011461380c5782600195938695936137f2936000926138015750508160011b916000199060031b1c19161790565b87555b01940197019692613761565b015190508e8061155f565b90601f9493941983169188600052846000209260005b8181106138625750916001969391858897969410613849575b505050831b830187556137f5565b015160001960f88460031b161c191690558c808061383b565b8284015185558b966001909501949384019301613822565b6138a3908960005286600020600585808801821c8301938a89106138a9575b01901c0190613d4e565b8c6137be565b93508293613899565b83634e487b7160e01b60005260416004526000fd5b84600052868360002091820191015b8181106138e35750613753565b6001919293506138f38154613b29565b80613904575b5001908592916138d6565b601f90818111841461391d575050600081555b8a6138f9565b6139386000928484528a8420920160051c8201858301613d4e565b81835555613917565b60405162461bcd60e51b815260048101849052602960248201527f4f6e6c792063686f73656e2070726f76696465722063616e20636f6d706c657460448201526819481c995c5d595cdd60ba1b6064820152608490fd5b61036081019081106001600160401b038211176107be57604052565b61012081019081106001600160401b038211176107be57604052565b608081019081106001600160401b038211176107be57604052565b602081019081106001600160401b038211176107be57604052565b90601f801991011681019081106001600160401b038211176107be57604052565b6001600160401b0381116107be5760051b60200190565b81601f8201121561052c578035906001600160401b0382116107be5760405192613a72601f8401601f191660200185613a06565b8284526020838301011161052c57816000926020809301838601378301015290565b81601f8201121561052c57803591602091613aae84613a27565b93613abc6040519586613a06565b808552838086019160051b8301019280841161052c57848301915b848310613ae75750505050505090565b82356001600160401b03811161052c578691613b0884848094890101613a3e565b815201920191613ad7565b604090600319011261052c576004359060243590565b90600182811c92168015613b59575b6020831014613b4357565b634e487b7160e01b600052602260045260246000fd5b91607f1691613b38565b90604051918260008254613b7681613b29565b90818452602094600191600181169081600014613be65750600114613ba7575b505050613ba592500383613a06565b565b600090815285812095935091905b818310613bce575050613ba59350820101388080613b96565b85548884018501529485019487945091830191613bb5565b92505050613ba594925060ff191682840152151560051b820101388080613b96565b919082519283825260005b848110613c34575050826000602080949584010152601f8019910116010190565b602081830181015184830182015201613c13565b9060098210156105165752565b90808251908181526020809101926020808460051b8301019501936000915b848310613c845750505050505090565b9091929394958480613ca2600193601f198682030187528a51613c08565b9801930193019194939290613c74565b90815180825260208080930193019160005b828110613cd2575050505090565b83516001600160a01b031685529381019392810192600101613cc4565b15613cf657565b60405162461bcd60e51b815260206004820152601b60248201527f436f6d7075746174696f6e20646561646c696e652070617373656400000000006044820152606490fd5b81810292918115918404141715611bf257565b818110613d59575050565b60008155600101613d4e565b15613d6c57565b60405162461bcd60e51b815260206004820152602660248201527f636f6d6d69746d656e7420737461676520686173206e6f742079657420636f6d6044820152651c1b195d195960d21b6064820152608490fd5b9081602091031261052c5751801515810361052c5790565b91908201809211611bf257565b600081815260026020908152604080832080546001600160a01b039081169391929033859003613ff757600b84019460ff865416613fb357839082600f8701541615613f795750506008840154421180613f6a575b15613f10579082613e9292613e58600a870154601588015490613dd8565b90808954169087541689855180978195829463a9059cbb60e01b84526004840160209093929193604081019460018060a01b031681520152565b03925af1908115613f075750926008926014927f1523a7600668f21efd095a2e4b78dc32da863f11b5b54ed0043034aeefd6442c979695613ee9575b505060ff1993600185825416179055019182541617905580a2565b81613eff92903d10610a4d57610a3e8183613a06565b503880613ece565b513d87823e3d90fd5b815162461bcd60e51b815260048101849052602d60248201527f436f6d7075746174696f6e20646561646c696e6520686173206e6f742079657460448201526c081899595b881c995858da1959609a1b6064820152608490fd5b5060ff855460081c1615613e3a565b8754600a870154855163a9059cbb60e01b81526001600160a01b039093166004840152602483015290939284911681898160448101613e92565b825162461bcd60e51b815260048101859052601960248201527f5265717565737420616c726561647920636f6d706c65746564000000000000006044820152606490fd5b815162461bcd60e51b8152600481018490526024808201527f4f6e6c792074686520636f6e73756d65722063616e2077697468647261772066604482015263756e647360e01b6064820152608490fd5b91908203918211611bf257565b600081815260026020908152604080832060038352818420601382015485528352818420600a810154600c90910154929391921415806141d8575b156141845761411c601483019360ff19946007868254161790558260018060a01b038088541690865416906140e96140de6140d360018a015460158b015490613dd8565b60028a015490613dd8565b601789015490614047565b845163a9059cbb60e01b81526001600160a01b0390931660048401526024830152909384919082908a9082906044820190565b03925af1908115613f07575092600192600b927f6d55d799468c2d702d8ff65d462b4e8dbbc88c728431aee69b205a3964362f07979695614166575b5050019182541617905580a2565b8161417c92903d10610a4d57610a3e8183613a06565b503880614158565b60849083519062461bcd60e51b82526004820152602860248201527f5265717565737420697320616c726561647920696e20756e7375636365737366604482015267756c20737461746560c01b6064820152fd5b5060ff60148301541660098110156141f3576007141561408f565b634e487b7160e01b85526021600452602485fd5b1561420e57565b60405162461bcd60e51b8152602060048201526012602482015271496e73756666696369656e74207374616b6560701b6044820152606490fd5b1561424f57565b60405162461bcd60e51b815260206004820152603d60248201527f4e6f7420656e6f7567682074696d6520746f20706572666f726d20726f756e6460448201527f206265666f726520766572696669636174696f6e20646561646c696e650000006064820152608490fd5b80548210156142d25760005260206000200190600090565b634e487b7160e01b600052603260045260246000fd5b90815491600160401b8310156107be57826120db916001613ba5950181556142ba565b1561431257565b60405162461bcd60e51b815260206004820152602d60248201527f596f7520617265206e6f74207468652063686f73656e2076657269666965722060448201526c1a5b881d1a1a5cc81c9bdd5b99609a1b6064820152608490fd5b6000198114611bf25760010190565b90815461438881613a27565b926143966040519485613a06565b818452600090815260208082208186015b8484106143b5575050505050565b60018381926143c385613b63565b8152019201930192906143a7565b90604051918281549182825260209260208301916000526020600020936000905b82821061440857505050613ba592500383613a06565b85546001600160a01b0316845260019586019588955093810193909101906143f2565b6000818152600260205260408120600f8101546001600160a01b0316156145525781604051614459816139eb565b52600d8101805483825580614539575b50825281604051614479816139eb565b52600e8101805483825580614520575b50825260148101600260ff19825416179055601381018054906001820180921161450c576020927f7cdb7f0bd04877caf5dda7a202130926cdd67ad312dada203661ff6d88068434949260129255826019820155857f2d4e685f9af8cf88fb3e3447f1ee8e4e5e68423a2c393dc8d6e9784aa67ddafa6040519480a201548152a2565b634e487b7160e01b84526011600452602484fd5b8184526020842061453391810190613d4e565b38614489565b8184526020842061454c91810190613d4e565b38614469565b60405162461bcd60e51b815260206004820152602760248201527f4d61696e2070726f766964657220686173206e6f7420796574206265656e2073604482015266195b1958dd195960ca1b6064820152608490fd5b90600082815260206002815260409384832091601283018054601185015411156147625760098401549460108501805496600397808902908982040361450c576145f19042613dd8565b10156147045791886007601498999a84606096897f27e90e135bb91bf6706a23381e6d0d480f8bb7d002d6e9a197b432b7b654245f9997528c87528c8383209160138d0192835485528952426006868620015561464f815442613dd8565b8c8552828a52858520845486528a528686862001558b84528189528484208354908186528a52614686878787200154835490613dd8565b908d8652838b528686209086528a52600886862001558b84528189526146c0858520918454928387528b5260088787200154905490613dd8565b918c855289528484209084528852600984842001558982528c8752828220905482528652200154915491815193428552840152820152a2019060ff19825416179055565b885162461bcd60e51b815260048101859052603160248201527f566572696669636174696f6e20446561646c696e652068617320706173736564604482015270081d1bc81cdd185c9d0818481c9bdd5b99607a1b6064820152608490fd5b865162461bcd60e51b815260048101839052601e60248201527f416c6c206c61796572732068617665206265656e2070726f63657373656400006044820152606490fdfea2646970667358221220878ee07b071c722a85ac299d148f67eb62ff3df46f261299dde831ad41735ac064736f6c63430008170033","linkReferences":{}},"methodIdentifiers":{"MIN_VERIFIERS()":"53e2ba17","PROVIDER_STAKE_PERCENTAGE()":"5e16a9d8","applyForVerificationForRequest(uint256)":"6d8f9a0e","calculateMajorityAndReward(uint256,uint256)":"847ada57","cancelRequest(uint256)":"3015394c","chooseVerifiersForRequestTrigger(uint256)":"951c5ce2","compToken()":"6605dfa7","completeRequest(uint256,string[])":"0625f161","createRequest(uint256,uint256,uint256,uint256,string[],string,uint256,uint256,uint256,uint256,uint256)":"ad1279d9","getRequestDetails(uint256)":"f34d4c63","getRoundDetails(uint256,uint256)":"ddf3532c","providerFailure(uint256)":"3295845c","providerSuccessCall(uint256)":"b10ceb59","requestCount()":"5badbe4c","requests(uint256)":"81d12c58","returnStake(uint256)":"275d95a1","revealCommitment(uint256,bool,bytes32,bytes32)":"bfdb3451","revealProviderKeyAndHash(uint256,bytes32,bytes32)":"e20fb7a1","roundDetails(uint256,uint256)":"8ea49eca","selectRequest(uint256)":"e03ad0d1","startNextRound(uint256)":"09008563","submitCommitment(uint256,bytes32)":"e6a3d9dc","verificationDeadlinePassedForVeryfying(uint256,uint256)":"4beda221"},"id":0}