{"abi":[{"type":"constructor","inputs":[{"name":"compTokenAddress","type":"address","internalType":"address"},{"name":"compNFTAddress","type":"address","internalType":"address"},{"name":"HandlerFunctionsCompMarketAdd","type":"address","internalType":"address"}],"stateMutability":"nonpayable"},{"type":"function","name":"applyForVerificationForRequest","inputs":[{"name":"requestId","type":"uint256","internalType":"uint256"}],"outputs":[],"stateMutability":"nonpayable"},{"type":"function","name":"calculateMajorityAndReward","inputs":[{"name":"requestId","type":"uint256","internalType":"uint256"},{"name":"roundNum","type":"uint256","internalType":"uint256"}],"outputs":[],"stateMutability":"nonpayable"},{"type":"function","name":"cancelRequest","inputs":[{"name":"requestId","type":"uint256","internalType":"uint256"}],"outputs":[],"stateMutability":"nonpayable"},{"type":"function","name":"chooseVerifiersForRequestTrigger","inputs":[{"name":"requestId","type":"uint256","internalType":"uint256"}],"outputs":[],"stateMutability":"nonpayable"},{"type":"function","name":"compNFT","inputs":[],"outputs":[{"name":"","type":"address","internalType":"contract CompNFT"}],"stateMutability":"view"},{"type":"function","name":"compToken","inputs":[],"outputs":[{"name":"","type":"address","internalType":"contract IERC20"}],"stateMutability":"view"},{"type":"function","name":"completeRequest","inputs":[{"name":"requestId","type":"uint256","internalType":"uint256"},{"name":"outputFileURLs","type":"string[]","internalType":"string[]"}],"outputs":[],"stateMutability":"nonpayable"},{"type":"function","name":"createRequest","inputs":[{"name":"paymentForProvider","type":"uint256","internalType":"uint256"},{"name":"paymentPerRoundForVerifiers","type":"uint256","internalType":"uint256"},{"name":"numOperations","type":"uint256","internalType":"uint256"},{"name":"numVerifiers","type":"uint256","internalType":"uint256"},{"name":"inputFileURLs","type":"string[]","internalType":"string[]"},{"name":"operationFileURL","type":"string","internalType":"string"},{"name":"computationDeadline","type":"uint256","internalType":"uint256"},{"name":"verificationDeadline","type":"uint256","internalType":"uint256"},{"name":"timeAllocatedForVerification","type":"uint256","internalType":"uint256"},{"name":"numVerifiersSampleSize","type":"uint256","internalType":"uint256"},{"name":"protocolVersion","type":"uint256","internalType":"uint256"},{"name":"layerSize","type":"uint256","internalType":"uint256"},{"name":"hashOfInputFiles","type":"bytes32","internalType":"bytes32"},{"name":"stake","type":"uint256","internalType":"uint256"}],"outputs":[],"stateMutability":"nonpayable"},{"type":"function","name":"createRequestWithAllowedVerifiers","inputs":[{"name":"paymentForProvider","type":"uint256","internalType":"uint256"},{"name":"paymentPerRoundForVerifiers","type":"uint256","internalType":"uint256"},{"name":"numOperations","type":"uint256","internalType":"uint256"},{"name":"numVerifiers","type":"uint256","internalType":"uint256"},{"name":"inputFileURLs","type":"string[]","internalType":"string[]"},{"name":"operationFileURL","type":"string","internalType":"string"},{"name":"computationDeadline","type":"uint256","internalType":"uint256"},{"name":"verificationDeadline","type":"uint256","internalType":"uint256"},{"name":"timeAllocatedForVerification","type":"uint256","internalType":"uint256"},{"name":"numVerifiersSampleSize","type":"uint256","internalType":"uint256"},{"name":"protocolVersion","type":"uint256","internalType":"uint256"},{"name":"layerSize","type":"uint256","internalType":"uint256"},{"name":"hashOfInputFiles","type":"bytes32","internalType":"bytes32"},{"name":"stake","type":"uint256","internalType":"uint256"},{"name":"verifierVoteCount","type":"function","internalType":"function (address) view external returns (uint256)"}],"outputs":[],"stateMutability":"nonpayable"},{"type":"function","name":"handlerFunctions","inputs":[],"outputs":[{"name":"","type":"address","internalType":"contract HandlerFunctionsCompMarket"}],"stateMutability":"view"},{"type":"function","name":"isVerifierChosenForRound","inputs":[{"name":"requestID","type":"uint256","internalType":"uint256"},{"name":"roundNum","type":"uint256","internalType":"uint256"},{"name":"verifier","type":"address","internalType":"address"}],"outputs":[{"name":"","type":"bool","internalType":"bool"}],"stateMutability":"view"},{"type":"function","name":"providerFailure","inputs":[{"name":"requestId","type":"uint256","internalType":"uint256"}],"outputs":[],"stateMutability":"nonpayable"},{"type":"function","name":"providerPrivateKeys","inputs":[{"name":"","type":"uint256","internalType":"uint256"},{"name":"","type":"uint256","internalType":"uint256"}],"outputs":[{"name":"","type":"bool","internalType":"bool"}],"stateMutability":"view"},{"type":"function","name":"providerSuccessCall","inputs":[{"name":"requestId","type":"uint256","internalType":"uint256"}],"outputs":[],"stateMutability":"nonpayable"},{"type":"function","name":"requestCount","inputs":[],"outputs":[{"name":"","type":"uint256","internalType":"uint256"}],"stateMutability":"view"},{"type":"function","name":"requests","inputs":[{"name":"","type":"uint256","internalType":"uint256"}],"outputs":[{"name":"consumer","type":"address","internalType":"address"},{"name":"paymentForProvider","type":"uint256","internalType":"uint256"},{"name":"totalPaymentForVerifiers","type":"uint256","internalType":"uint256"},{"name":"numOperations","type":"uint256","internalType":"uint256"},{"name":"numVerifiers","type":"uint256","internalType":"uint256"},{"name":"operationFileURL","type":"string","internalType":"string"},{"name":"computationDeadline","type":"uint256","internalType":"uint256"},{"name":"verificationDeadline","type":"uint256","internalType":"uint256"},{"name":"totalPayment","type":"uint256","internalType":"uint256"},{"name":"completed","type":"bool","internalType":"bool"},{"name":"hasBeenComputed","type":"bool","internalType":"bool"},{"name":"numVerifiersSampleSize","type":"uint256","internalType":"uint256"},{"name":"mainProvider","type":"address","internalType":"address"},{"name":"timeAllocatedForVerification","type":"uint256","internalType":"uint256"},{"name":"layerCount","type":"uint256","internalType":"uint256"},{"name":"layerComputeIndex","type":"uint256","internalType":"uint256"},{"name":"roundIndex","type":"uint256","internalType":"uint256"},{"name":"state","type":"uint8","internalType":"enum ComputationMarket.RequestStates"},{"name":"stake","type":"uint256","internalType":"uint256"},{"name":"paymentPerRoundForVerifiers","type":"uint256","internalType":"uint256"},{"name":"totalPaidForVerification","type":"uint256","internalType":"uint256"},{"name":"protocolVersion","type":"uint256","internalType":"uint256"},{"name":"verifierSelectionCount","type":"uint256","internalType":"uint256"},{"name":"firstinitialisedTime","type":"uint256","internalType":"uint256"},{"name":"layerSize","type":"uint256","internalType":"uint256"},{"name":"hashOfInputFiles","type":"bytes32","internalType":"bytes32"}],"stateMutability":"view"},{"type":"function","name":"returnStake","inputs":[{"name":"requestId","type":"uint256","internalType":"uint256"},{"name":"roundNum","type":"uint256","internalType":"uint256"}],"outputs":[],"stateMutability":"nonpayable"},{"type":"function","name":"returnStakeDueToTimeout","inputs":[{"name":"requestId","type":"uint256","internalType":"uint256"},{"name":"roundNum","type":"uint256","internalType":"uint256"}],"outputs":[],"stateMutability":"nonpayable"},{"type":"function","name":"revealCommitment","inputs":[{"name":"requestId","type":"uint256","internalType":"uint256"},{"name":"agree","type":"bool","internalType":"bool"},{"name":"answer","type":"bytes32","internalType":"bytes32"},{"name":"nonce","type":"bytes32","internalType":"bytes32"}],"outputs":[],"stateMutability":"nonpayable"},{"type":"function","name":"revealProviderKeyAndHash","inputs":[{"name":"requestId","type":"uint256","internalType":"uint256"},{"name":"privateKey","type":"uint256","internalType":"uint256"},{"name":"initialisationVector","type":"uint256","internalType":"uint256"},{"name":"answerHash","type":"bytes32","internalType":"bytes32"}],"outputs":[],"stateMutability":"nonpayable"},{"type":"function","name":"roundDetails","inputs":[{"name":"","type":"uint256","internalType":"uint256"},{"name":"","type":"uint256","internalType":"uint256"}],"outputs":[{"name":"roundIndex","type":"uint256","internalType":"uint256"},{"name":"layerComputeIndex","type":"uint256","internalType":"uint256"},{"name":"verificationStartTime","type":"uint256","internalType":"uint256"},{"name":"commitEndTime","type":"uint256","internalType":"uint256"},{"name":"providerRevealEndTime","type":"uint256","internalType":"uint256"},{"name":"commitmentRevealEndTime","type":"uint256","internalType":"uint256"},{"name":"majorityVoteHash","type":"bytes32","internalType":"bytes32"},{"name":"majorityCount","type":"uint256","internalType":"uint256"},{"name":"mainProviderAnswerHash","type":"bytes32","internalType":"bytes32"},{"name":"commitsSubmitted","type":"uint256","internalType":"uint256"},{"name":"commitsRevealed","type":"uint256","internalType":"uint256"},{"name":"providerPrivateKey","type":"uint256","internalType":"uint256"},{"name":"providerInitialisationVector","type":"uint256","internalType":"uint256"}],"stateMutability":"view"},{"type":"function","name":"selectRequest","inputs":[{"name":"requestId","type":"uint256","internalType":"uint256"}],"outputs":[],"stateMutability":"nonpayable"},{"type":"function","name":"submitCommitment","inputs":[{"name":"requestId","type":"uint256","internalType":"uint256"},{"name":"computedHash","type":"bytes32","internalType":"bytes32"}],"outputs":[],"stateMutability":"nonpayable"},{"type":"function","name":"verificationDeadlinePassedForVeryfying","inputs":[{"name":"requestId","type":"uint256","internalType":"uint256"},{"name":"roundNum","type":"uint256","internalType":"uint256"}],"outputs":[],"stateMutability":"nonpayable"},{"type":"function","name":"verifications","inputs":[{"name":"","type":"uint256","internalType":"uint256"},{"name":"","type":"uint256","internalType":"uint256"},{"name":"","type":"address","internalType":"address"}],"outputs":[{"name":"verifier","type":"address","internalType":"address"},{"name":"agree","type":"bool","internalType":"bool"},{"name":"answer","type":"bytes32","internalType":"bytes32"},{"name":"nonce","type":"bytes32","internalType":"bytes32"},{"name":"revealed","type":"bool","internalType":"bool"},{"name":"computedHash","type":"bytes32","internalType":"bytes32"},{"name":"voteHash","type":"bytes32","internalType":"bytes32"},{"name":"verifierPaid","type":"bool","internalType":"bool"}],"stateMutability":"view"},{"type":"event","name":"AlertVerifiers","inputs":[{"name":"requestId","type":"uint256","indexed":true,"internalType":"uint256"},{"name":"provider","type":"address","indexed":false,"internalType":"address"},{"name":"verificationPrice","type":"uint256","indexed":false,"internalType":"uint256"},{"name":"verificationDeadline","type":"uint256","indexed":false,"internalType":"uint256"},{"name":"timeAllocatedForVerification","type":"uint256","indexed":false,"internalType":"uint256"},{"name":"numVerifiers","type":"uint256","indexed":false,"internalType":"uint256"}],"anonymous":false},{"type":"event","name":"AllCommitmentsRevealed","inputs":[{"name":"indexedrequestId","type":"uint256","indexed":false,"internalType":"uint256"},{"name":"roundNum","type":"uint256","indexed":true,"internalType":"uint256"}],"anonymous":false},{"type":"event","name":"CommitmentPhaseStarted","inputs":[{"name":"requestId","type":"uint256","indexed":true,"internalType":"uint256"},{"name":"startTime","type":"uint256","indexed":false,"internalType":"uint256"},{"name":"endTime","type":"uint256","indexed":false,"internalType":"uint256"},{"name":"layerComputeIndex","type":"uint256","indexed":false,"internalType":"uint256"}],"anonymous":false},{"type":"event","name":"CommitmentSubmitted","inputs":[{"name":"requestId","type":"uint256","indexed":true,"internalType":"uint256"},{"name":"verifier","type":"address","indexed":true,"internalType":"address"}],"anonymous":false},{"type":"event","name":"NoMajorityForRound","inputs":[{"name":"requestId","type":"uint256","indexed":true,"internalType":"uint256"},{"name":"layerComputeIndex","type":"uint256","indexed":false,"internalType":"uint256"}],"anonymous":false},{"type":"event","name":"ProviderResultSuccessfullyVerified","inputs":[{"name":"requestId","type":"uint256","indexed":true,"internalType":"uint256"}],"anonymous":false},{"type":"event","name":"ProviderResultUnsuccessful","inputs":[{"name":"requestId","type":"uint256","indexed":true,"internalType":"uint256"}],"anonymous":false},{"type":"event","name":"ProviderRevealed","inputs":[{"name":"requestId","type":"uint256","indexed":true,"internalType":"uint256"},{"name":"privateKey","type":"uint256","indexed":false,"internalType":"uint256"},{"name":"initialisationVector","type":"uint256","indexed":false,"internalType":"uint256"},{"name":"answerHash","type":"bytes32","indexed":false,"internalType":"bytes32"}],"anonymous":false},{"type":"event","name":"ProviderSelected","inputs":[{"name":"requestId","type":"uint256","indexed":true,"internalType":"uint256"},{"name":"provider","type":"address","indexed":true,"internalType":"address"}],"anonymous":false},{"type":"event","name":"ProviderSlashed","inputs":[{"name":"requestId","type":"uint256","indexed":true,"internalType":"uint256"},{"name":"provider","type":"address","indexed":true,"internalType":"address"}],"anonymous":false},{"type":"event","name":"RequestCancelled","inputs":[{"name":"requestId","type":"uint256","indexed":true,"internalType":"uint256"}],"anonymous":false},{"type":"event","name":"RequestCompletedByProvider","inputs":[{"name":"requestId","type":"uint256","indexed":true,"internalType":"uint256"},{"name":"provider","type":"address","indexed":true,"internalType":"address"}],"anonymous":false},{"type":"event","name":"RequestCreated","inputs":[{"name":"requestId","type":"uint256","indexed":true,"internalType":"uint256"},{"name":"consumer","type":"address","indexed":true,"internalType":"address"}],"anonymous":false},{"type":"event","name":"RevealCommitmentFailed","inputs":[{"name":"requestId","type":"uint256","indexed":false,"internalType":"uint256"},{"name":"newHashComputed","type":"bytes32","indexed":false,"internalType":"bytes32"},{"name":"oldHashComputed","type":"bytes32","indexed":false,"internalType":"bytes32"}],"anonymous":false},{"type":"event","name":"RevealVerificationDetails","inputs":[{"name":"requestId","type":"uint256","indexed":true,"internalType":"uint256"},{"name":"endTime","type":"uint256","indexed":false,"internalType":"uint256"},{"name":"verifier","type":"address","indexed":true,"internalType":"address"}],"anonymous":false},{"type":"event","name":"RoundInitialised","inputs":[{"name":"requestId","type":"uint256","indexed":true,"internalType":"uint256"}],"anonymous":false},{"type":"event","name":"RoundRevealStarted","inputs":[{"name":"requestId","type":"uint256","indexed":true,"internalType":"uint256"}],"anonymous":false},{"type":"event","name":"RoundStartedForVerificationSelection","inputs":[{"name":"requestId","type":"uint256","indexed":true,"internalType":"uint256"},{"name":"layerComputeIndex","type":"uint256","indexed":false,"internalType":"uint256"}],"anonymous":false},{"type":"event","name":"VerificationApplied","inputs":[{"name":"requestId","type":"uint256","indexed":true,"internalType":"uint256"},{"name":"verifier","type":"address","indexed":true,"internalType":"address"},{"name":"layerComputeIndex","type":"uint256","indexed":true,"internalType":"uint256"}],"anonymous":false},{"type":"event","name":"VerificationSelectionStarted","inputs":[{"name":"requestId","type":"uint256","indexed":true,"internalType":"uint256"},{"name":"layerComputeIndex","type":"uint256","indexed":false,"internalType":"uint256"}],"anonymous":false},{"type":"event","name":"VerifierChosen","inputs":[{"name":"requestId","type":"uint256","indexed":true,"internalType":"uint256"},{"name":"verifier","type":"address","indexed":true,"internalType":"address"},{"name":"layerComputeIndex","type":"uint256","indexed":true,"internalType":"uint256"},{"name":"verifierIndex","type":"uint256","indexed":false,"internalType":"uint256"}],"anonymous":false},{"type":"event","name":"VerifierUnchosen","inputs":[{"name":"requestId","type":"uint256","indexed":true,"internalType":"uint256"},{"name":"verifier","type":"address","indexed":true,"internalType":"address"},{"name":"layerComputeIndex","type":"uint256","indexed":true,"internalType":"uint256"},{"name":"verifierIndex","type":"uint256","indexed":false,"internalType":"uint256"}],"anonymous":false},{"type":"event","name":"VoteSubmitted","inputs":[{"name":"requestId","type":"uint256","indexed":true,"internalType":"uint256"},{"name":"verifier","type":"address","indexed":true,"internalType":"address"},{"name":"agree","type":"bool","indexed":false,"internalType":"bool"}],"anonymous":false}],"bytecode":{"object":"0x60e034620001d157601f6200593438819003918201601f19168301916001600160401b03831184841017620001d657808492606094604052833981010312620001d1576200004d81620001ec565b906200006a60406200006260208401620001ec565b9201620001ec565b6001600160a01b039290919083169081156200019c578316908115620001675760805260a0521660c0526040516157329081620002028239608051818181610464015281816106060152818161097e015281816109cb01528181610f4401528181611caa01528181611cf70152818161274401528181612e9b015281816132c0015281816134c7015281816136b601528181613d1e015281816141a4015281816142f2015281816144fe01528181614f430152818161507a01526152a7015260a0518181816106da015281816126b00152818161346e0152818161464101526151e5015260c051818181610a840152818161289901526129ec0152f35b60405162461bcd60e51b815260206004820152600d60248201526c125b9d985b0813919508105111609a1b6044820152606490fd5b60405162461bcd60e51b815260206004820152600d60248201526c125b9d985b081512d388105111609a1b6044820152606490fd5b600080fd5b634e487b7160e01b600052604160045260246000fd5b51906001600160a01b0382168203620001d15756fe6102e0604052600436101561001357600080fd5b60003560e01c80630625f1611461494857806313f08bbf14614910578063253bd3e9146146705780632d37463d1461462b5780633015394c1461460f5780633295845c146145f357806338488abc146143fc5780634beda221146141f15780635badbe4c146141d35780636605dfa71461418e5780636d8f9a0e14613c2d5780637073244014613b8b57806381d12c5814613817578063847ada57146131055780638ea49eca14613049578063951c5ce2146128c8578063958a1a4b14612883578063b10ceb591461263b578063ba0ff7c314611bca578063bfdb3451146116bc578063d23759a71461166d578063e007657e146108b0578063e03ad0d11461059f578063e2e7cbe61461034a5763e6a3d9dc1461013057600080fd5b3461034557604036600319011261034557600435806000526020600181526040600020601481019160ff835416600981101561032f57600303610303578360005260028152604060002090601383019182549081600052825260076040600020015442116102d85785600052600282526040600020816000528252600360406000200133600052825260ff60406000205416156102ad578560005260028252604060002081600052825260016040600020013360005282526101f960ff604060002054166154f0565b8560005260038252604060002090600052815260406000203360005281526024356004604060002001558460005260028152604060002082546000528152600d60406000200161024981546154c2565b905584600052600281526040600020915460005252600c600d604060002001549101541461029c575b5033907f22d30f6da93667100b64d15e5ea70afec217caeab1008706f57bfa4deed12c63600080a3005b805460ff1916600417905538610272565b60405162461bcd60e51b815260048082018490526024820152632721ab1960e11b6044820152606490fd5b60405162461bcd60e51b815260048101839052600360248201526243504560e81b6044820152606490fd5b6064906040519062461bcd60e51b82526004820152600560248201526453213d435360d81b6044820152fd5b634e487b7160e01b600052602160045260246000fd5b600080fd5b346103455761035836614d9b565b908060005260209160018352604060002091600284526040600020826000528452600260406000200133600052845260ff604060002054161561057457600983015460108401548060030290600382040361055e576103b79042614e6f565b11156105335760ff601484015416600981101561032f5760026103da91146153ea565b80600052600384526040600020826000528452604060002033600052845260ff600660406000200154166105095760009081526003845260408082209282529184528181203380835290855290829020600601805460ff19166001179055601690920154905163a9059cbb60e01b81526004810192909252602482015281818060448101038160007f00000000000000000000000000000000000000000000000000000000000000006001600160a01b03165af19081156104fd576000916104d0575b50156104a557005b6064906040519062461bcd60e51b8252600482015260046024820152632a23189960e11b6044820152fd5b6104f09150823d84116104f6575b6104e88183614ca2565b810190614e57565b8261049d565b503d6104de565b6040513d6000823e3d90fd5b60405162461bcd60e51b8152600481018590526002602482015261041560f41b6044820152606490fd5b60405162461bcd60e51b815260048101859052600360248201526244503360e81b6044820152606490fd5b634e487b7160e01b600052601160045260246000fd5b60405162461bcd60e51b815260048082018690526024820152634e43563160e01b6044820152606490fd5b34610345576020806003193601126103455760043590816000526001815260406000206008810154421161088557600f810180546001600160a01b03929083811661085a576015820154604051636eb1769f60e11b815233600482015230602482015290947f000000000000000000000000000000000000000000000000000000000000000081169391929091908784604481885afa9384156104fd5760009461082b575b506040516370a0823160e01b81523360048201528881602481895afa80156104fd57899589926000926107ef575b50926106948360009a9361068d606498966001981015615522565b1015615522565b33906001600160601b0360a01b16179055601481018260ff1982541617905501546040519586938492630ab714fb60e11b845233600485015260248401528a60448401527f0000000000000000000000000000000000000000000000000000000000000000165af19182156104fd5784926107c3575b506040516323b872dd60e01b81523360048201523060248201526044810193909352829060649082906000905af19081156104fd576000916107a6575b5015610777575033907f3c84569ae9be7c8e6e8edf0c0cbeb7e00cf9cb4d9b67849728be8ab96e09bec1600080a3005b6064906040519062461bcd60e51b82526004820152600860248201526729b2b61d102a231b60c11b6044820152fd5b6107bd9150823d84116104f6576104e88183614ca2565b83610747565b8291923d83116107e8575b6107d88183614ca2565b810103126103455782908561070a565b503d6107ce565b939684919593508092503d8311610824575b61080b8183614ca2565b8101031261034557905188949192889190610694610672565b503d610801565b9093508781813d8311610853575b6108438183614ca2565b8101031261034557519289610644565b503d610839565b60405162461bcd60e51b815260048101869052600360248201526250533160e81b6044820152606490fd5b60405162461bcd60e51b815260048082018490526024820152634344503160e01b6044820152606490fd5b34610345576101c0366003190112610345576084356001600160401b038111610345576108e1903690600401614d19565b60a4356001600160401b03811161034557610900903690600401614cc3565b9061091061016435604435614e6f565b8060001981011161055e5761092d906101643590600019016154a2565b6109458161094061012435602435614e15565b614e15565b9161095283600435614e6f565b604051636eb1769f60e11b81523360048201523060248201529094906020816044816001600160a01b037f0000000000000000000000000000000000000000000000000000000000000000165afa9081156104fd5760009161163b575b506040516370a0823160e01b81523360048201526020816024817f00000000000000000000000000000000000000000000000000000000000000006001600160a01b03165afa9182156104fd578791600093611604575b50106115d95785116115ae574260c435111561157357600361010435026101043581046003146101043515171561055e57610a44610a4c9185614e15565b60c435614e6f565b60e43511156114f8576101243560643510611467576000546000526005602052604060002063765a4a7a640100000000600160c01b037f000000000000000000000000000000000000000000000000000000000000000060201b166001600160401b0360c01b83541617179055604051610ac581614c87565b6000815260405191610ad683614c87565b6000835260405193610ae785614c87565b6000855260405196610af888614c6b565b338852600435602089015260408801526044356060880152606435608088015260a087015260c086015260e085015260c43561010085015260e4356101208501528461014085015260006101608501526000610180850152610124356101a08501526101c08401526101e08301526000610200830152610104356102208301526102408201526000610260820152600061028082015260006102a08201526101a4356102c08201526024356102e08201526000610300820152610144356103208201526000610340820152600061036082015261016435610380820152610184356103a08201526000546000526001602052604060002060018060a01b038251166001600160601b0360a01b8254161781556020820151600182015560408201516002820155606082015160038201556080820151600482015560a0820151805190600160401b82116110355760058301548260058501558083106113ee575b5060200190600583016000526020600020916000905b8282106112d5575050505060c08201519283516001600160401b03811161103557610c9c6006840154614ddb565b601f81116112a0575b506020601f8211600114611231578190610cd993949596600092611226575b50508160011b916000199060031b1c19161790565b60068301555b60e0830151805190600160401b82116110355760078401548260078601558083106111ae575b5060200190600784016000526020600020916000905b828210611088575050505061010083015160088301556101208301516009830155610140830151600a830155610d87600b8301610d6b6101608601511515829060ff801983541691151516179055565b610180850151815461ff00191690151560081b61ff0016179055565b6101a0830151600c8301556101c08301518051906001600160401b03821161103557600160401b821161103557602090600d85015483600d870155808410611068575b5001600d8401600052602060002060005b83811061104b57505050506101e08301518051906001600160401b03821161103557600160401b821161103557602090600e85015483600e870155808410611015575b5001600e8401600052602060002060005b838110610ff85750505050600f820160018060a01b03610200850151166001600160601b0360a01b82541617905561022083015160108301556102408301516011830155610260830151601283015561028083015160138301556102a083015191600983101561032f57601c6103a0610f3e95610eb160209660148601614e3f565b6102c081015160158501556102e08101516016850155610300810151601785015561032081015160188501556103408101516019850155610360810151601a850155610380810151601b8501550151910155610f0e6000546154c2565b6000556040516323b872dd60e01b8152336004820152306024820152604481019190915291829081906064820190565b038160007f00000000000000000000000000000000000000000000000000000000000000006001600160a01b03165af19081156104fd57600091610fd9575b5015610fae57336000547f233bb55fd57b21b8a3d15c9ad8fbbab435fe4cf2865cc654f6a57d9d4d8cda54600080a3005b60405162461bcd60e51b815260206004820152600360248201526254463360e81b6044820152606490fd5b610ff2915060203d6020116104f6576104e88183614ca2565b81610f7d565b82516001600160a01b031681830155602090920191600101610e2f565b61102f90600e870160005284846000209182019101614e28565b86610e1e565b634e487b7160e01b600052604160045260246000fd5b82516001600160a01b031681830155602090920191600101610ddb565b61108290600d870160005284846000209182019101614e28565b86610dca565b80518051906001600160401b038211611035576110a58654614ddb565b601f8111611171575b50602090601f831160011461110157926110e7836001959460209487966000926110f65750508160011b916000199060031b1c19161790565b87555b01940191019092610d1b565b015190508d80610cc4565b908660005260206000209160005b601f1985168110611159575083602093600196938796938794601f19811610611140575b505050811b0187556110ea565b015160001960f88460031b161c191690558c8080611133565b9192602060018192868501518155019401920161110f565b61119e90876000526020600020601f850160051c810191602086106111a4575b601f0160051c0190614e28565b896110ae565b9091508190611191565b600785016000526020600020908382015b81830181106111cf575050610d05565b806111dc60019254614ddb565b806111e9575b50016111bf565b601f811183146111ff5750600081555b896111e2565b60009082825261121d601f60208420920160051c8201858301614e28565b818355556111f9565b015190508680610cc4565b6006840160005260206000209060005b601f1984168110611288575060019394959683601f1981161061126f575b505050811b016006830155610cdf565b015160001960f88460031b161c1916905585808061125f565b9091602060018192858b015181550193019101611241565b6112cf90600685016000526020600020601f840160051c810191602085106111a457601f0160051c0190614e28565b85610ca5565b80518051906001600160401b038211611035576112f28654614ddb565b90601f918281116113b4575b5060209183116001146113445792611335836001959460209487966000926110f65750508160011b916000199060031b1c19161790565b87555b01940191019092610c6e565b908660005260206000209160005b601f198516811061139c575083602093600196938796938794601f19811610611383575b505050811b018755611338565b015160001960f88460031b161c191690558c8080611376565b91926020600181928685015181550194019201611352565b6113df908860005260206000208480870160051c820192602088106113e5575b0160051c0190614e28565b8a6112fe565b925081926113d4565b600584016000526020600020908382015b818301811061140f575050610c58565b8061141c60019254614ddb565b80611429575b50016113ff565b601f908181118414611442575050600081555b89611422565b61145e60009284845260208420920160051c8201858301614e28565b8183555561143c565b60405162461bcd60e51b815260206004820152605d60248201527f4e6f7420656e6f7567682076657269666965727320746f2063686f6f7365206660448201527f726f6d2e206e756d566572696669657273206d7573742062652067726561746560648201527f72207468616e206e756d56657269666965727353616d706c6553697a65000000608482015260a490fd5b60405162461bcd60e51b815260206004820152604760248201527f566572696669636174696f6e20646561646c696e65206d75737420626520737560448201527f6666696369656e7420656e6f75676820666f7220616c6c20726f756e64732072606482015266195c5d5a5c995960ca1b608482015260a490fd5b60405162461bcd60e51b81526020600482015260136024820152720436f6d70757465203c2074696d657374616d7606c1b6044820152606490fd5b60405162461bcd60e51b81526020600482015260036024820152622a231960e91b6044820152606490fd5b60405162461bcd60e51b815260206004820152600360248201526254463160e81b6044820152606490fd5b915091506020813d602011611633575b8161162160209383614ca2565b81010312610345578690519188610a06565b3d9150611614565b90506020813d602011611665575b8161165660209383614ca2565b810103126103455751866109af565b3d9150611649565b346103455761167b36614db1565b91600052600260205260406000209060005260205260036040600020019060018060a01b0316600052602052602060ff604060002054166040519015158152f35b34610345576080366003190112610345576024358015158103610345576004356000526001602052604060002090600260205260406000206013830154908160005260205260086040600020015442118015611bb0575b15611b835760043560005260026020526040600020816000526020526009604060002001544211611b5857600435600052600260205260406000208160005260205260036040600020013360005260205260ff6040600020541615611b2d5760043560005260026020526040600020816000526020526001604060002001336000526020526117a960ff604060002054166154f0565b60043560005260036020526040600020906000526020526040600020336000526020526040600020600381015460ff8116611b0257604051604435602082015260643560408201523360601b6060820152605481528060808101106001600160401b03608083011117611035576080810160405280516020820120600484015403611ad5575060405191604435602084015283151560f81b6040840152602183528260608101106001600160401b03606085011117611035576005906060840160405283516020850120948593600183549160443582860155606435600286015560ff1916176003840155339160ff60a01b90151560a01b16906affffffffffffffffffffff60a81b161717815501556004356000526002602052604060002060138401546000526020526040600020906004356000526005602052602060406000205463ffffffff60e01b8160e01b16606084015233606484015260246060840191606085019060018060a01b0390851c165afa9081156104fd57600091611a9d575b5082600052816020526119466040600020918254614e6f565b9055816000528060205260406000205491600b820192835490818114600014611a545750505050506004356000526002602052604060002060138201546000526020526000600a6040822001555b600435600052600260205260406000206013820154600052602052600e6040600020016119c181546154c2565b905560405142815233907fb59f6416758d4763386b2c83d12c7c643131c90beff0caea486f303510702ce3602060043592a3600435600052600260205260406000209060138101549182600052602052600c600e6040600020015491015414611a2657005b7f86379e876dfaea4f98e183813a1a8fea7b8212d0dc9598d4e09ee4b9cdf4613360206040516004358152a2005b11611a62575b505050611994565b60043560005260026020526040600020601385015460005260205280600a604060002001556000526020526040600020549055818080611a5a565b90506020813d602011611acd575b81611abb60209360608401614ca2565b8101031261034557606001518461192d565b3d9150611aab565b608060649162461bcd60e51b8282015260206084820152600360a48201526224a92b60e91b60c482015201fd5b60405162461bcd60e51b815260206004820152600360248201526221a0a960e91b6044820152606490fd5b606460405162461bcd60e51b81526020600482015260046024820152634e43563360e01b6044820152fd5b60405162461bcd60e51b815260206004820152600360248201526252504560e81b6044820152606490fd5b60405162461bcd60e51b81526020600482015260056024820152645052504e4560d81b6044820152606490fd5b5060ff601484015416600981101561032f57600514611713565b34610345576101e0366003190112610345576084356001600160401b03811161034557611bfb903690600401614d19565b60a4356001600160401b03811161034557611c1a903690600401614cc3565b6101c4359167ffffffffffffffff198316830361034557611c4061016435604435614e6f565b8060001981011161055e57611c5d906101643590600019016154a2565b90611c718261094061012435602435614e15565b92611c7e84600435614e6f565b604051636eb1769f60e11b81523360048201523060248201529095906020816044816001600160a01b037f0000000000000000000000000000000000000000000000000000000000000000165afa9081156104fd57600091612609575b506040516370a0823160e01b81523360048201526020816024817f00000000000000000000000000000000000000000000000000000000000000006001600160a01b03165afa9182156104fd5788916000936125d2575b50106115d95786116115ae574260c4351115611573576101043560036101043502046003146101043515171561055e57611d75610a446003610104350286614e15565b60e43511156114f85761012435606435106114675760005460005260056020526040600020906001600160401b0360c01b8254169063ffffffff640100000000600160c01b038260401c169160401c1617179055604051611dd581614c87565b6000815260405191611de683614c87565b6000835260405193611df785614c87565b6000855260405196611e0888614c6b565b338852600435602089015260408801526044356060880152606435608088015260a087015260c086015260e085015260c43561010085015260e4356101208501528461014085015260006101608501526000610180850152610124356101a08501526101c08401526101e08301526000610200830152610104356102208301526102408201526000610260820152600061028082015260006102a08201526101a4356102c08201526024356102e08201526000610300820152610144356103208201526000610340820152600061036082015261016435610380820152610184356103a08201526000546000526001602052604060002060018060a01b038251166001600160601b0360a01b8254161781556020820151600182015560408201516002820155606082015160038201556080820151600482015560a0820151805190600160401b8211611035576005830154826005850155808310612559575b5060200190600583016000526020600020916000905b82821061244a575050505060c08201519283516001600160401b03811161103557611fac6006840154614ddb565b601f8111612415575b506020601f82116001146123a6578190611fe8939495966000926112265750508160011b916000199060031b1c19161790565b60068301555b60e0830151805190600160401b821161103557600784015482600786015580831061232e575b5060200190600784016000526020600020916000905b82821061221e575050505061010083015160088301556101208301516009830155610140830151600a83015561207a600b8301610d6b6101608601511515829060ff801983541691151516179055565b6101a0830151600c8301556101c08301518051906001600160401b03821161103557600160401b821161103557602090600d85015483600d8701558084106121fe575b5001600d8401600052602060002060005b8381106121e157505050506101e08301518051906001600160401b03821161103557600160401b821161103557602090600e85015483600e8701558084106121c1575b5001600e8401600052602060002060005b8381106121a45750505050600f820160018060a01b03610200850151166001600160601b0360a01b82541617905561022083015160108301556102408301516011830155610260830151601283015561028083015160138301556102a083015191600983101561032f57601c6103a0610f3e95610eb160209660148601614e3f565b82516001600160a01b031681830155602090920191600101612122565b6121db90600e870160005284846000209182019101614e28565b86612111565b82516001600160a01b0316818301556020909201916001016120ce565b61221890600d870160005284846000209182019101614e28565b866120bd565b80518051906001600160401b0382116110355761223b8654614ddb565b601f81116122fc575b50602090601f831160011461228c579261227d836001959460209487966000926110f65750508160011b916000199060031b1c19161790565b87555b0194019101909261202a565b908660005260206000209160005b601f19851681106122e4575083602093600196938796938794601f198116106122cb575b505050811b018755612280565b015160001960f88460031b161c191690558c80806122be565b9192602060018192868501518155019401920161229a565b61232890876000526020600020601f850160051c810191602086106111a457601f0160051c0190614e28565b89612244565b600785016000526020600020908382015b818301811061234f575050612014565b8061235c60019254614ddb565b80612369575b500161233f565b601f8111831461237f5750600081555b89612362565b60009082825261239d601f60208420920160051c8201858301614e28565b81835555612379565b6006840160005260206000209060005b601f19841681106123fd575060019394959683601f198116106123e4575b505050811b016006830155611fee565b015160001960f88460031b161c191690558580806123d4565b9091602060018192858b0151815501930191016123b6565b61244490600685016000526020600020601f840160051c810191602085106111a457601f0160051c0190614e28565b85611fb5565b80518051906001600160401b038211611035576124678654614ddb565b90601f91828111612529575b5060209183116001146124b957926124aa836001959460209487966000926110f65750508160011b916000199060031b1c19161790565b87555b01940191019092611f7e565b908660005260206000209160005b601f1985168110612511575083602093600196938796938794601f198116106124f8575b505050811b0187556124ad565b015160001960f88460031b161c191690558c80806124eb565b919260206001819286850151815501940192016124c7565b612553908860005260206000208480870160051c820192602088106113e5570160051c0190614e28565b8a612473565b600584016000526020600020908382015b818301811061257a575050611f68565b8061258760019254614ddb565b80612594575b500161256a565b601f9081811184146125ad575050600081555b8961258d565b6125c960009284845260208420920160051c8201858301614e28565b818355556125a7565b915091506020813d602011612601575b816125ef60209383614ca2565b81010312610345578790519189611d32565b3d91506125e2565b90506020813d602011612633575b8161262460209383614ca2565b81010312610345575187611cdb565b3d9150612617565b3461034557602080600319360112610345576004359081600052600181526040600020600981015442101580612868575b80612859575b1561282057600b8101805460ff19908116600117909155604051635109e9c560e11b81526004810185905290916001600160a01b03848360248160007f000000000000000000000000000000000000000000000000000000000000000086165af19182156104fd576127409486946000946127eb575b509061270b91600660148301918254161790556001601582015491015490614e6f565b60405163a9059cbb60e01b81526001600160a01b03909316600484015260248301529092839190829060009082906044820190565b03927f0000000000000000000000000000000000000000000000000000000000000000165af19081156104fd576000916127ce575b50156127a357507f953601eba1acf6d4769af39f3986a5be6acd796655930c93832c2f239fbccabf600080a2005b6064906040519062461bcd60e51b8252600482015260046024820152635446313760e01b6044820152fd5b6127e59150823d84116104f6576104e88183614ca2565b83612775565b61270b9291945061281190863d8811612819575b6128098183614ca2565b8101906154d1565b9390916126e8565b503d6127ff565b60405162461bcd60e51b81526004810183905260116024820152702924a1903e3e103a34b6b2901e103b32b960791b6044820152606490fd5b5060ff600b8201541615612672565b5060ff601482015416600981101561032f576007141561266c565b34610345576000366003190112610345576040517f00000000000000000000000000000000000000000000000000000000000000006001600160a01b03168152602090f35b346103455760203660031901126103455760043560005260016020526040600020600d81015460048201908154810361301e5760ff600b84015460081c1615612ff157600c83015411612fc657600982015460108301548060030290600382040361055e576129379042614e6f565b11612f9b57600435600052600260205260406000206013830154908160005260205260016040600020013360005260205260ff60406000205416612f705760043560005260026020526040600020906000526020526001604060002001336000526020526040600020600160ff198254161790556019820154600c8301548110600014612de45750546129cf60198301548092615172565b604051632cdc85e960e21b815260048101919091526020816024817f00000000000000000000000000000000000000000000000000000000000000006001600160a01b03165afa80156104fd578291600091612dad575b50612a9d91612a3491614e6f565b612a7f612a63612a4783600d880161541e565b905460039190911b1c6001600160a01b031694600d870161541e565b905460039190911b1c6001600160a01b031691600d860161541e565b90919060018060a01b038084549260031b9316831b921b1916179055565b612ab281612a7f6019850154600d860161541e565b6004356000526002602052604060002060138301546000526020526003604060002001906000526020526040600020600160ff19825416179055612b1b612b006019830154600d840161541e565b905460039190911b1c6001600160a01b0316600e830161544c565b6016810154612b2f60178301918254614e6f565b90556019810154612b4381600d840161541e565b60018060a01b0391549060031b1c166012830154916040519081527f441ea878e9821f31af14375bef585bac76bbbde0e10feddc036673243d01a1d7602060043592a45b6019810154906001820180921161055e5780826019600c930155015414612baa57005b600435600052600160205260406000206012810190815460118201541115612d8257600981015490601081019182548060030290600382040361055e57612bf19042614e6f565b1015612d575760149060043560005260026020526040600020926013820193845460005260205242600660406000200155612c2d815442614e6f565b6004356000526002602052604060002085546000526020526007604060002001556004356000526002602052604060002084549081600052602052612c7c600760406000200154835490614e6f565b9060043560005260026020526040600020906000526020526008604060002001556004356000526002602052612ccc60406000209185549283600052602052600860406000200154905490614e6f565b90600435600052600260205260406000209060005260205260096040600020015501600360ff19825416179055600435600052600260205260406000209054600052602052600760406000200154905460405191428352602083015260408201527f27e90e135bb91bf6706a23381e6d0d480f8bb7d002d6e9a197b432b7b654245f606060043592a2005b60405162461bcd60e51b815260206004820152600360248201526211140d60ea1b6044820152606490fd5b60405162461bcd60e51b81526020600482015260036024820152620414c560ec1b6044820152606490fd5b9150506020813d602011612ddc575b81612dc960209383614ca2565b8101031261034557518190612a9d612a26565b3d9150612dbc565b9050600435600052600360205260406000206013830154600052602052612e13604060002091600d840161541e565b919060018060a01b03928391549060031b1c166000526020526006604060002001600160ff19825416179055612e94602082612e566019860154600d870161541e565b90549060031b1c16601685015490604051938492839263a9059cbb60e01b84526004840160209093929193604081019460018060a01b031681520152565b03816000867f0000000000000000000000000000000000000000000000000000000000000000165af19081156104fd57600091612f51575b5015612f2657601982015490612ee582600d850161541e565b90549060031b1c166012830154916040519081527fd2673c2f320637ecd6e1e7a21780cb318c5a6c5b49398f8c5ae9d0ae0aad4743602060043592a4612b87565b606460405162461bcd60e51b81526020600482015260046024820152635446313160e01b6044820152fd5b612f6a915060203d6020116104f6576104e88183614ca2565b83612ecc565b60405162461bcd60e51b815260206004820152600360248201526256543160e81b6044820152606490fd5b60405162461bcd60e51b815260206004820152600360248201526222281960e91b6044820152606490fd5b606460405162461bcd60e51b81526020600482015260046024820152634e45563160e01b6044820152fd5b60405162461bcd60e51b8152602060048201526005602482015264524e59433160d81b6044820152606490fd5b60405162461bcd60e51b815260206004820152600360248201526241463160e81b6044820152606490fd5b346103455761305736614d9b565b9060005260026020526040600020906000526020526101a060406000206004810154906005810154906006810154600782015460088301546009840154600a850154600b86015491600c87015493600d88015495600e890154976010600f8b01549a01549a6040519c8d5260208d015260408c015260608b015260808a015260a089015260c088015260e0870152610100860152610120850152610140840152610160830152610180820152f35b346103455761311336614d9b565b8160005260016020918183526040600020916002808552604060002083600052855260096040600020015442108015906137f0575b156137c5578560005280855260406000208360005285526003918260406000200133600052865260ff9283604060002054161561379a57876000528087526040600020856000528752604060002033600052875283600660406000200154166137715760138601936131bd8554871115615471565b6131c983871015615471565b8860005283885260406000208660005288528260406000200133600052885280604060002054161561374857886000528188526040600020866000528852604060002033600052885260066040600020019360ff19948486825416179055896000528089526040600020876000528952600a6040600020015490811560001461335857505050928792601695928899956132ba9998966000528852604060002084600052885260406000203360005288526006604060002001918254161790555414613349575b50015460405163a9059cbb60e01b8152336004820152602481019190915291829081906044820190565b038160007f00000000000000000000000000000000000000000000000000000000000000006001600160a01b03165af19081156104fd5760009161332c575b501561330157005b6064906040519062461bcd60e51b82526004820152600460248201526315118c4d60e21b6044820152fd5b6133439150823d84116104f6576104e88183614ca2565b826132f9565b61335290615559565b85613290565b919796929589888c869497998160005280845260406000208660005284526040600020336000528452600560406000200154891461360d575b50505050541461339e575b005b6000898152908852604080822092825291885220600c0154146133df57505060140154169050600981101561032f576007036133d657005b61339c9061517f565b9091601281019060118254910154600019810181811161055e5782036135ea57505061340b81546154c2565b905584600052818452604060002091601483019380855416600981101561032f576007146135bf57600b840190815490811661359457831682179055604051635109e9c560e11b815260048101879052926001600160a01b0390868560248160007f000000000000000000000000000000000000000000000000000000000000000087165af19283156104fd576134c396889660009561356e575b50600661270b949596825416179055601582015491015490614e6f565b03927f0000000000000000000000000000000000000000000000000000000000000000165af19081156104fd57600091613551575b501561352657507f953601eba1acf6d4769af39f3986a5be6acd796655930c93832c2f239fbccabf600080a2005b6064906040519062461bcd60e51b8252600482015260046024820152632a23189b60e11b6044820152fd5b6135689150823d84116104f6576104e88183614ca2565b836134f8565b61270b94955061358c600691893d8b11612819576128098183614ca2565b9594506134a6565b60405162461bcd60e51b815260048082018990526024820152632924a19960e11b6044820152606490fd5b60405162461bcd60e51b815260048082018890526024820152635249433160e01b6044820152606490fd5b935095945092505083106135fa57005b61360661339c936154c2565b9055615559565b6136b094955090829161365861362f600c601661368997015495015485614e15565b8360005289875260406000208b600052875260406000208c6000528752604060002054906154a2565b9160005284526040600020886000528452604060002033600052845260066040600020018b8b825416179055614e6f565b60405163a9059cbb60e01b8152336004820152602481019190915291829081906044820190565b038160007f00000000000000000000000000000000000000000000000000000000000000006001600160a01b03165af19081156104fd5760009161372b575b501561370057829089888c8e613391565b60405162461bcd60e51b815260048082018b90526024820152635446313560e01b6044820152606490fd5b61374291508a3d8c116104f6576104e88183614ca2565b8b6136ef565b606488836040519162461bcd60e51b835260048301526024820152624e543160e81b6044820152fd5b866064916040519162461bcd60e51b8352600483015260248201526244503560e81b6044820152fd5b60405162461bcd60e51b815260048082018990526024820152631390d58d60e21b6044820152606490fd5b60405162461bcd60e51b8152600480820187905260248201526343534e4360e01b6044820152606490fd5b50856000528085526040600020836000528552600e60406000200154600c85015414613148565b3461034557602036600319011261034557600435600052600160205260406000206102c05260018060a01b036102c051541660016102c05101546101405260026102c05101546102805260036102c051015460046102c05101546040516102a052600060066102c05101549061388c82614ddb565b91826102a05152600181169081600014613b665750600114613b1f575b6138bd91506102a05190036102a051614ca2565b60086102c051015460096102c0510154600a6102c051015491600b6102c051015461020052600c6102c05101549360018060a01b03600f6102c0510154169560106102c05101549760116102c05101546102205260126102c05101546102405260136102c05101546102605260ff60146102c0510154166101e05260156102c05101546101205260166102c051015460a05260176102c051015460e05260186102c05101546101c05260196102c05101546101a052601a6102c051015461018052601b6102c051015461016052601c6102c05101546101005260405160c05260c0515261014051602060c051015261028051604060c0510152606060c0510152608060c051015261034060a060c05101526102a0515160805260805161034060c051015260005b6080518110613b035750600061036060805160c05101015260c08051015260e060c051015261010060c051015260ff6102005116151561012060c051015260ff6102005160081c16151561014060c051015261016060c051015261018060c05101526101a060c0510152610220516101c060c0510152610240516101e060c05101526102605161020060c051015260096101e051101561032f576101e05161022060c05101526101205161024060c051015260a05161026060c051015260e05161028060c05101526101c0516102a060c05101526101a0516102c060c0510152610180516102e060c05101526101605161030060c05101526101005161032060c051015261036060c051601f19601f608051011660c05101030160c051f35b80602080926102a0510101516103608260c051010152016139e4565b5060066102c0510160005260206000206000905b828210613b4d57506102a0516138bd9250016020016138a9565b6001816020925483856102a05101015201910190613b33565b602092506138bd93915060ff1916826102a0510152151560051b6102a05101016138a9565b3461034557610100613b9c36614db1565b916000526003602052604060002090600052602052604060002060018060a01b0380921660005260205260406000208054906001810154600282015460ff6003840154169060048401549260ff80600660058801549701541696604051988116895260a01c1615156020880152604087015260608601521515608085015260a084015260c0830152151560e0820152f35b3461034557602080600319360112610345576004359081600052600181526040600020906005815260406000205460018060a01b03809183604051809263ffffffff60e01b8160e01b168252336004830152816024968792851c165afa9081156104fd57600091614161575b501561412a57601a840154600581018091116141155742106140e05760ff600b85015460081c16156140b45780600f85015416331461408a57600d84018054916004860192835411156140605760ff601487015416600981101561404b576002613d0391146153ea565b604051636eb1769f60e11b81523360048201523060248201527f0000000000000000000000000000000000000000000000000000000000000000919091169290918583604481875afa9283156104fd5760009361401c575b506040516370a0823160e01b81523360048201529286848781885afa9384156104fd57600094613fed575b5060168801938454809210613fc35710613f99576009870154601088015480600302906003820403613f8457613dbc9042614e6f565b11613f5a5787600052600286526040600020601388015490816000528752600260406000200133600052875260ff60406000205416613f305792613e6f926000959288958b88526002875260408820908852865260026040882001338852865260408720600160ff19825416179055613e35338261544c565b54905414613efc575b546040516323b872dd60e01b8152336004820152306024820152604481019190915293849283919082906064820190565b03925af19081156104fd57600091613edf575b5015613eb657601283015433857f9e9159f67684b4639ef3d20a0878e965d2fa78dc33561fadb2485cd3d3447abf600080a4005b9060036064926040519262461bcd60e51b845260048401528201526254463960e81b6044820152fd5b613ef69150833d85116104f6576104e88183614ca2565b85613e82565b887fac6c772803856f8be288c38a92349502c9d976deccefb05524c4eafedf049aeb8560128b0154604051908152a2613e3e565b60405162461bcd60e51b8152600481018890526003818801526256413160e81b6044820152606490fd5b60405162461bcd60e51b8152600481018790526003818701526244503160e81b6044820152606490fd5b86634e487b7160e01b60005260116004526000fd5b60405162461bcd60e51b815260048101879052600381870152620a88c760eb1b6044820152606490fd5b60405162461bcd60e51b8152600481018990526003818901526254463760e81b6044820152606490fd5b9093508681813d8311614015575b6140058183614ca2565b8101031261034557519289613d86565b503d613ffb565b9092508581813d8311614044575b6140348183614ca2565b8101031261034557519188613d5b565b503d61402a565b84634e487b7160e01b60005260216004526000fd5b60405162461bcd60e51b815260048101869052600381860152624c523160e81b6044820152606490fd5b60405162461bcd60e51b815260048181018590528184015263056213d560e41b6044820152606490fd5b60405162461bcd60e51b8152600481018490526005818401526429272ca19960d91b6044820152606490fd5b60405162461bcd60e51b815260048101849052600e818401526d54727920616761696e20696e203560901b6044820152606490fd5b82634e487b7160e01b60005260116004526000fd5b60405162461bcd60e51b8152600481018490526010818401526f15995c9a599a595c88109b1bd8dad95960821b6044820152606490fd5b90508381813d8311614187575b6141788183614ca2565b81010312610345575186613c99565b503d61416e565b34610345576000366003190112610345576040517f00000000000000000000000000000000000000000000000000000000000000006001600160a01b03168152602090f35b34610345576000366003190112610345576020600054604051908152f35b34610345576141ff36614d9b565b908060005260209160018352604060002091600983015460108401548060030290600382040361055e576142339042614e6f565b11156143d15780600052600284526040600020826000528452600260406000200133600052845260ff60406000205416156143a65780600052600384526040600020826000528452604060002033600052845260ff6006604060002001541661437b5760009081526003845260408082209282529184528181203380835290855290829020600601805460ff19166001179055601690920154905163a9059cbb60e01b81526004810192909252602482015281818060448101038160007f00000000000000000000000000000000000000000000000000000000000000006001600160a01b03165af19081156104fd5760009161435e575b501561433357005b6064906040519062461bcd60e51b8252600482015260046024820152630544631360e41b6044820152fd5b6143759150823d84116104f6576104e88183614ca2565b8261432b565b60405162461bcd60e51b815260048101859052600360248201526241503160e81b6044820152606490fd5b60405162461bcd60e51b815260048082018690526024820152635644413160e01b6044820152606490fd5b60405162461bcd60e51b815260048082018690526024820152634e44503160e01b6044820152606490fd5b346103455761440a36614d9b565b9080600052602091600283526040600020816000528352600160406000200133600052835260ff60406000205416156145bd5781600052600283526040600020816000528352600360406000200133600052835260ff604060002054166103455781600052600383526040600020816000528352604060002033600052835260ff6006604060002001541661458757600082815260038452604080822092825291845281812033808352908552828220600601805460ff1916600190811790915593825292845281902060160154905163a9059cbb60e01b81526004810192909252602482015281818060448101038160007f00000000000000000000000000000000000000000000000000000000000000006001600160a01b03165af19081156104fd5760009161456a575b501561453f57005b6064906040519062461bcd60e51b8252600482015260046024820152635446313360e01b6044820152fd5b6145819150823d84116104f6576104e88183614ca2565b82614537565b60405162461bcd60e51b815260048101849052600e60248201526d111bdd589b194814185e5b595b9d60921b6044820152606490fd5b60405162461bcd60e51b815260048101849052600e60248201526d14995d0814dd185ad94e8811139560921b6044820152606490fd5b346103455760203660031901126103455761339c60043561517f565b346103455760203660031901126103455761339c600435614e7c565b34610345576000366003190112610345576040517f00000000000000000000000000000000000000000000000000000000000000006001600160a01b03168152602090f35b34610345576080366003190112610345576004356024803560443590606435918460005260209160018352604060002060018060a01b03600f8201541633036148e657866000526002845260406000209360138201805495866000528252600760406000200154421180156148b7575b1561488d57886000526002825260406000208660005282526008604060002001544211614863578860005260048252604060002084600052825260ff604060002054166148395760405195828701888152600160f81b6040890152602188526060880199888b106001600160401b038c111761482557509260a095928a98959260609a98957f2f06062ea665468a61997fd63a8ec957f95fda34ee5de1123656b796f400cf189c60405287519020908d600052600284526040600020906000528352600c604060002001558b60005260028252604060002081546000528252846010604060002001558b6000526002825260406000209054600052815282600f604060002001558a6000526004815260406000209083600052526005601460406000209260ff19936001858254161790550191825416179055855260808201520152a2005b634e487b7160e01b60009081526041600452fd5b60405162461bcd60e51b81526004818101849052818a015263504b495560e01b6044820152606490fd5b60405162461bcd60e51b81526004818101849052818a0152635052504560e01b6044820152606490fd5b60405162461bcd60e51b81526004818101849052818a01526343504e4560e01b6044820152606490fd5b5060ff60148401541660098110156148d1576004146146e0565b88634e487b7160e01b60005260216004526000fd5b60405162461bcd60e51b8152600481018590526003818801526204f4d560ec1b6044820152606490fd5b346103455761491e36614d9b565b906000526004602052604060002090600052602052602060ff604060002054166040519015158152f35b34610345576040366003190112610345576004356001600160401b03602480358281116103455761497d903690600401614d19565b83600052600190602093828552604060002094600b8601805460ff8116614c415760088801544211614c1757600f8801546001600160a01b03163303614bed5761ff0019166101001790558251926007870190600160401b8511614bd85782908254868455808710614b5b575b506000928352838320929491015b858510614a385742601a8a015589614a0f81615559565b33907fd8fcbb5eddba1b1984c4f12b2197b325cc19ed135c968033ffd714c7f4c2d6bd600080a3005b8051908151838111614b465788918691614a528754614ddb565b94601f95868111614b0e575b5083958211600114614aa85790808596614a8e93600092614a9d5750508160011b916000199060031b1c19161790565b86555b019301940193916149f8565b015190503880610cc4565b94601f1982169088600052846000209160005b818110614af75750908697848895949310614ade575b505050811b018655614a91565b015160001960f88460031b161c191690558f8080614ad1565b8289015184558e978c979401939283019201614abb565b614b37908960005285600020600589808701821c830193898810614b3d575b01901c0190614e28565b8f614a5e565b93508293614b2d565b89634e487b7160e01b60005260416004526000fd5b8360005287878460002092830192015b828110614b795750506149ea565b9091929350614b888154614ddb565b80614b9a575b50019087859392614b6b565b601f90818111600114614bb4575050600081555b8c614b8e565b614bcf600092848452898420920160051c8201858301614e28565b81835555614bae565b86634e487b7160e01b60005260416004526000fd5b60405162461bcd60e51b815260048101849052600381890152624e503160e81b6044820152606490fd5b60405162461bcd60e51b81526004818101859052818901526321a2281960e11b6044820152606490fd5b60405162461bcd60e51b8152600481018490526003818901526229219960e91b6044820152606490fd5b6103c081019081106001600160401b0382111761103557604052565b602081019081106001600160401b0382111761103557604052565b90601f801991011681019081106001600160401b0382111761103557604052565b81601f82011215610345578035906001600160401b0382116110355760405192614cf7601f8401601f191660200185614ca2565b8284526020838301011161034557816000926020809301838601378301015290565b81601f82011215610345578035916020916001600160401b03808511611035578460051b9060405195614d4e86840188614ca2565b865284808701928401019380851161034557858401925b858410614d76575050505050505090565b8335838111610345578791614d90848480948a0101614cc3565b815201930192614d65565b6040906003190112610345576004359060243590565b60609060031901126103455760043590602435906044356001600160a01b03811681036103455790565b90600182811c92168015614e0b575b6020831014614df557565b634e487b7160e01b600052602260045260246000fd5b91607f1691614dea565b8181029291811591840414171561055e57565b818110614e33575050565b60008155600101614e28565b90600981101561032f5760ff80198354169116179055565b90816020910312610345575180151581036103455790565b9190820180921161055e57565b600081815260016020908152604080832080546001600160a01b03908116913383900361514857600b810192835460ff811661511e5790869184600f850154161561502a57505050600881015442118061501b575b15614ff1579181859284614ef1600a614f3f970154601583015490614e6f565b9360ff199060018282541617905560086014830191825416179055541687865180968195829463a9059cbb60e01b84526004840160209093929193604081019460018060a01b031681520152565b03927f0000000000000000000000000000000000000000000000000000000000000000165af1908115614fe7578491614fca575b5015614fa1575050807fee243f878b7fc2f54e934ca33783d4395d42bc07612e2bd4b8e0e178639f7a2891a2565b60649250519062461bcd60e51b82526004820152600360248201526254463560e81b6044820152fd5b614fe19150833d85116104f6576104e88183614ca2565b38614f73565b82513d86823e3d90fd5b835162461bcd60e51b8152600480820187905260248201526322272ca960e11b6044820152606490fd5b5060ff835460081c1615614ed1565b60ff19908116600117909555601483018054909516600817909455600a90910154845163a9059cbb60e01b81526001600160a01b03909416600485015260248401529082908187816044810103927f0000000000000000000000000000000000000000000000000000000000000000165af1908115614fe7578491615101575b50156150d8575050807fee243f878b7fc2f54e934ca33783d4395d42bc07612e2bd4b8e0e178639f7a2891a2565b60649250519062461bcd60e51b82526004820152600360248201526215118d60ea1b6044820152fd5b6151189150833d85116104f6576104e88183614ca2565b386150aa565b855162461bcd60e51b815260048101889052600360248201526252433160e81b6044820152606490fd5b835162461bcd60e51b81526004810186905260036024820152624f433160e81b6044820152606490fd5b9190820391821161055e57565b600081815260016020908152604080832060028352818420601382015485528352818420600a810154600c909101541415806153bb575b1561538a5760148101805460ff19908116600717909155600b8201805490911660011790556001600160a01b037f00000000000000000000000000000000000000000000000000000000000000008116803b15615386578580916024865180948193630ca5611760e21b83528c60048401525af1801561537c5761534c575b50818161527086936152a395541692601761526761525c6001840154601585015490614e6f565b600284015490614e6f565b91015490615172565b855163a9059cbb60e01b81526001600160a01b039093166004840152602483015290928391908290889082906044820190565b03927f0000000000000000000000000000000000000000000000000000000000000000165af1908115614fe757849161532f575b5015615305575050807f6d55d799468c2d702d8ff65d462b4e8dbbc88c728431aee69b205a3964362f0791a2565b60649250519062461bcd60e51b8252600482015260046024820152630a88c62760e31b6044820152fd5b6153469150833d85116104f6576104e88183614ca2565b386152d7565b6001600160401b038196929611615368578352936152a3615235565b634e487b7160e01b82526041600452602482fd5b84513d88823e3d90fd5b8580fd5b815162461bcd60e51b815260048101849052600a6024820152692924aa903e3e102726ab60b11b6044820152606490fd5b5060ff60148201541660098110156153d657600714156151b6565b634e487b7160e01b85526021600452602485fd5b156153f157565b60405162461bcd60e51b815260206004820152600560248201526429909ea1ab60d91b6044820152606490fd5b80548210156154365760005260206000200190600090565b634e487b7160e01b600052603260045260246000fd5b90815491600160401b8310156110355782612a7f91600161546f9501815561541e565b565b1561547857565b60405162461bcd60e51b8152602060048201526002602482015261524960f01b6044820152606490fd5b81156154ac570490565b634e487b7160e01b600052601260045260246000fd5b600019811461055e5760010190565b9081602091031261034557516001600160a01b03811681036103455790565b156154f757565b60405162461bcd60e51b815260206004820152600360248201526211139560ea1b6044820152606490fd5b1561552957565b60405162461bcd60e51b815260206004820152600860248201526750726f7620494e5360c01b6044820152606490fd5b6000818152600160209081526040808320600f8101546001600160a01b0316156156d25783825161558981614c87565b52600d81018054858255806156ba575b5084528382516155a881614c87565b52600e81018054858255806156a2575b50845260148101600260ff19825416179055601381018054906001820180921161568e579386937fb39ebde6d06658d2f25237a5031f2a70eadf752f8ecc1b74081c3768822f02729360a0937f2d4e685f9af8cf88fb3e3447f1ee8e4e5e68423a2c393dc8d6e9784aa67ddafa989755866019820155857f7cdb7f0bd04877caf5dda7a202130926cdd67ad312dada203661ff6d880684348460128401548551908152a2601681015491600982015490600460108401549301549381519533875286015284015260608301526080820152a280a2565b634e487b7160e01b86526011600452602486fd5b8186528486206156b491810190614e28565b386155b8565b8186528486206156cc91810190614e28565b38615599565b815162461bcd60e51b81526004808201859052602482015263214d505360e01b6044820152606490fdfea2646970667358221220c6973c77daa8ab5690076a4f7cf47a80fea6594bdd7dc63dd7d595f78df51f1a64736f6c63430008170033","linkReferences":{}},"methodIdentifiers":{"applyForVerificationForRequest(uint256)":"6d8f9a0e","calculateMajorityAndReward(uint256,uint256)":"847ada57","cancelRequest(uint256)":"3015394c","chooseVerifiersForRequestTrigger(uint256)":"951c5ce2","compNFT()":"2d37463d","compToken()":"6605dfa7","completeRequest(uint256,string[])":"0625f161","createRequest(uint256,uint256,uint256,uint256,string[],string,uint256,uint256,uint256,uint256,uint256,uint256,bytes32,uint256)":"e007657e","createRequestWithAllowedVerifiers(uint256,uint256,uint256,uint256,string[],string,uint256,uint256,uint256,uint256,uint256,uint256,bytes32,uint256,function)":"ba0ff7c3","handlerFunctions()":"958a1a4b","isVerifierChosenForRound(uint256,uint256,address)":"d23759a7","providerFailure(uint256)":"3295845c","providerPrivateKeys(uint256,uint256)":"13f08bbf","providerSuccessCall(uint256)":"b10ceb59","requestCount()":"5badbe4c","requests(uint256)":"81d12c58","returnStake(uint256,uint256)":"38488abc","returnStakeDueToTimeout(uint256,uint256)":"e2e7cbe6","revealCommitment(uint256,bool,bytes32,bytes32)":"bfdb3451","revealProviderKeyAndHash(uint256,uint256,uint256,bytes32)":"253bd3e9","roundDetails(uint256,uint256)":"8ea49eca","selectRequest(uint256)":"e03ad0d1","submitCommitment(uint256,bytes32)":"e6a3d9dc","verificationDeadlinePassedForVeryfying(uint256,uint256)":"4beda221","verifications(uint256,uint256,address)":"70732440"},"id":2}