{"abi":[{"type":"constructor","inputs":[{"name":"compTokenAddress","type":"address","internalType":"address"}],"stateMutability":"nonpayable"},{"type":"function","name":"applyForVerificationForRequest","inputs":[{"name":"requestId","type":"uint256","internalType":"uint256"}],"outputs":[],"stateMutability":"nonpayable"},{"type":"function","name":"calculateMajorityAndReward","inputs":[{"name":"requestId","type":"uint256","internalType":"uint256"},{"name":"roundNum","type":"uint256","internalType":"uint256"}],"outputs":[],"stateMutability":"nonpayable"},{"type":"function","name":"cancelRequest","inputs":[{"name":"requestId","type":"uint256","internalType":"uint256"}],"outputs":[],"stateMutability":"nonpayable"},{"type":"function","name":"chooseVerifiersForRequestTrigger","inputs":[{"name":"requestId","type":"uint256","internalType":"uint256"}],"outputs":[],"stateMutability":"nonpayable"},{"type":"function","name":"compToken","inputs":[],"outputs":[{"name":"","type":"address","internalType":"contract IERC20"}],"stateMutability":"view"},{"type":"function","name":"completeRequest","inputs":[{"name":"requestId","type":"uint256","internalType":"uint256"},{"name":"outputFileURLs","type":"string[]","internalType":"string[]"}],"outputs":[],"stateMutability":"nonpayable"},{"type":"function","name":"createRequest","inputs":[{"name":"paymentForProvider","type":"uint256","internalType":"uint256"},{"name":"paymentPerRoundForVerifiers","type":"uint256","internalType":"uint256"},{"name":"numOperations","type":"uint256","internalType":"uint256"},{"name":"numVerifiers","type":"uint256","internalType":"uint256"},{"name":"inputFileURLs","type":"string[]","internalType":"string[]"},{"name":"operationFileURL","type":"string","internalType":"string"},{"name":"computationDeadline","type":"uint256","internalType":"uint256"},{"name":"verificationDeadline","type":"uint256","internalType":"uint256"},{"name":"timeAllocatedForVerification","type":"uint256","internalType":"uint256"},{"name":"numVerifiersSampleSize","type":"uint256","internalType":"uint256"},{"name":"protocolVersion","type":"uint256","internalType":"uint256"},{"name":"layerSize","type":"uint256","internalType":"uint256"},{"name":"hashOfInputFiles","type":"bytes32","internalType":"bytes32"},{"name":"stake","type":"uint256","internalType":"uint256"}],"outputs":[],"stateMutability":"nonpayable"},{"type":"function","name":"createRequestWithAllowedVerifiers","inputs":[{"name":"paymentForProvider","type":"uint256","internalType":"uint256"},{"name":"paymentPerRoundForVerifiers","type":"uint256","internalType":"uint256"},{"name":"numOperations","type":"uint256","internalType":"uint256"},{"name":"numVerifiers","type":"uint256","internalType":"uint256"},{"name":"inputFileURLs","type":"string[]","internalType":"string[]"},{"name":"operationFileURL","type":"string","internalType":"string"},{"name":"computationDeadline","type":"uint256","internalType":"uint256"},{"name":"verificationDeadline","type":"uint256","internalType":"uint256"},{"name":"timeAllocatedForVerification","type":"uint256","internalType":"uint256"},{"name":"numVerifiersSampleSize","type":"uint256","internalType":"uint256"},{"name":"protocolVersion","type":"uint256","internalType":"uint256"},{"name":"layerSize","type":"uint256","internalType":"uint256"},{"name":"hashOfInputFiles","type":"bytes32","internalType":"bytes32"},{"name":"stake","type":"uint256","internalType":"uint256"},{"name":"verifierVoteCount","type":"function","internalType":"function (address) view external returns (uint256)"}],"outputs":[],"stateMutability":"nonpayable"},{"type":"function","name":"getRequestDetails","inputs":[{"name":"requestId","type":"uint256","internalType":"uint256"}],"outputs":[{"name":"","type":"tuple","internalType":"struct ComputationMarket.Request","components":[{"name":"consumer","type":"address","internalType":"address"},{"name":"paymentForProvider","type":"uint256","internalType":"uint256"},{"name":"totalPaymentForVerifiers","type":"uint256","internalType":"uint256"},{"name":"numOperations","type":"uint256","internalType":"uint256"},{"name":"numVerifiers","type":"uint256","internalType":"uint256"},{"name":"inputFileURLs","type":"string[]","internalType":"string[]"},{"name":"operationFileURL","type":"string","internalType":"string"},{"name":"outputFileURLs","type":"string[]","internalType":"string[]"},{"name":"computationDeadline","type":"uint256","internalType":"uint256"},{"name":"verificationDeadline","type":"uint256","internalType":"uint256"},{"name":"totalPayment","type":"uint256","internalType":"uint256"},{"name":"completed","type":"bool","internalType":"bool"},{"name":"hasBeenComputed","type":"bool","internalType":"bool"},{"name":"numVerifiersSampleSize","type":"uint256","internalType":"uint256"},{"name":"verifiers","type":"address[]","internalType":"address[]"},{"name":"chosenVerifiers","type":"address[]","internalType":"address[]"},{"name":"mainProvider","type":"address","internalType":"address"},{"name":"timeAllocatedForVerification","type":"uint256","internalType":"uint256"},{"name":"layerCount","type":"uint256","internalType":"uint256"},{"name":"layerComputeIndex","type":"uint256","internalType":"uint256"},{"name":"roundIndex","type":"uint256","internalType":"uint256"},{"name":"state","type":"uint8","internalType":"enum ComputationMarket.RequestStates"},{"name":"stake","type":"uint256","internalType":"uint256"},{"name":"paymentPerRoundForVerifiers","type":"uint256","internalType":"uint256"},{"name":"totalPaidForVerification","type":"uint256","internalType":"uint256"},{"name":"protocolVersion","type":"uint256","internalType":"uint256"},{"name":"verifierSelectionCount","type":"uint256","internalType":"uint256"},{"name":"firstinitialisedTime","type":"uint256","internalType":"uint256"},{"name":"layerSize","type":"uint256","internalType":"uint256"},{"name":"hashOfInputFiles","type":"bytes32","internalType":"bytes32"}]}],"stateMutability":"view"},{"type":"function","name":"getRoundDetails","inputs":[{"name":"requestId","type":"uint256","internalType":"uint256"},{"name":"roundIndex","type":"uint256","internalType":"uint256"}],"outputs":[{"name":"","type":"tuple","internalType":"struct ComputationMarket.RoundDetailsOutput","components":[{"name":"roundIndex","type":"uint256","internalType":"uint256"},{"name":"layerComputeIndex","type":"uint256","internalType":"uint256"},{"name":"verificationStartTime","type":"uint256","internalType":"uint256"},{"name":"commitEndTime","type":"uint256","internalType":"uint256"},{"name":"providerRevealEndTime","type":"uint256","internalType":"uint256"},{"name":"commitmentRevealEndTime","type":"uint256","internalType":"uint256"},{"name":"majorityVoteHash","type":"bytes32","internalType":"bytes32"},{"name":"majorityCount","type":"uint256","internalType":"uint256"},{"name":"mainProviderAnswerHash","type":"bytes32","internalType":"bytes32"},{"name":"commitsSubmitted","type":"uint256","internalType":"uint256"},{"name":"commitsRevealed","type":"uint256","internalType":"uint256"},{"name":"providerPrivateKey","type":"uint256","internalType":"uint256"},{"name":"providerInitialisationVector","type":"uint256","internalType":"uint256"}]}],"stateMutability":"view"},{"type":"function","name":"getVerificationDetails","inputs":[{"name":"requestId","type":"uint256","internalType":"uint256"},{"name":"roundNum","type":"uint256","internalType":"uint256"},{"name":"verifier","type":"address","internalType":"address"}],"outputs":[{"name":"","type":"tuple","internalType":"struct ComputationMarket.Verification","components":[{"name":"verifier","type":"address","internalType":"address"},{"name":"agree","type":"bool","internalType":"bool"},{"name":"answer","type":"bytes32","internalType":"bytes32"},{"name":"nonce","type":"bytes32","internalType":"bytes32"},{"name":"revealed","type":"bool","internalType":"bool"},{"name":"computedHash","type":"bytes32","internalType":"bytes32"},{"name":"voteHash","type":"bytes32","internalType":"bytes32"},{"name":"verifierPaid","type":"bool","internalType":"bool"}]}],"stateMutability":"view"},{"type":"function","name":"getVerifiersAppliedForRound","inputs":[{"name":"requestId","type":"uint256","internalType":"uint256"},{"name":"roundIndex","type":"uint256","internalType":"uint256"}],"outputs":[{"name":"","type":"bool","internalType":"bool"}],"stateMutability":"view"},{"type":"function","name":"getVerifiersChosenForRound","inputs":[{"name":"requestId","type":"uint256","internalType":"uint256"},{"name":"roundIndex","type":"uint256","internalType":"uint256"}],"outputs":[{"name":"","type":"bool","internalType":"bool"}],"stateMutability":"view"},{"type":"function","name":"getVerifiersTriggeredForRound","inputs":[{"name":"requestId","type":"uint256","internalType":"uint256"},{"name":"roundIndex","type":"uint256","internalType":"uint256"}],"outputs":[{"name":"","type":"bool","internalType":"bool"}],"stateMutability":"view"},{"type":"function","name":"getVoteCountForHashForRound","inputs":[{"name":"requestId","type":"uint256","internalType":"uint256"},{"name":"roundIndex","type":"uint256","internalType":"uint256"},{"name":"voteHash","type":"bytes32","internalType":"bytes32"}],"outputs":[{"name":"","type":"uint256","internalType":"uint256"}],"stateMutability":"view"},{"type":"function","name":"handlerFunctions","inputs":[],"outputs":[{"name":"","type":"address","internalType":"contract HandlerFunctionsCompMarket"}],"stateMutability":"view"},{"type":"function","name":"providerFailure","inputs":[{"name":"requestId","type":"uint256","internalType":"uint256"}],"outputs":[],"stateMutability":"nonpayable"},{"type":"function","name":"providerPrivateKeys","inputs":[{"name":"","type":"uint256","internalType":"uint256"},{"name":"","type":"uint256","internalType":"uint256"}],"outputs":[{"name":"","type":"bool","internalType":"bool"}],"stateMutability":"view"},{"type":"function","name":"providerSuccessCall","inputs":[{"name":"requestId","type":"uint256","internalType":"uint256"}],"outputs":[],"stateMutability":"nonpayable"},{"type":"function","name":"requestCount","inputs":[],"outputs":[{"name":"","type":"uint256","internalType":"uint256"}],"stateMutability":"view"},{"type":"function","name":"requests","inputs":[{"name":"","type":"uint256","internalType":"uint256"}],"outputs":[{"name":"consumer","type":"address","internalType":"address"},{"name":"paymentForProvider","type":"uint256","internalType":"uint256"},{"name":"totalPaymentForVerifiers","type":"uint256","internalType":"uint256"},{"name":"numOperations","type":"uint256","internalType":"uint256"},{"name":"numVerifiers","type":"uint256","internalType":"uint256"},{"name":"operationFileURL","type":"string","internalType":"string"},{"name":"computationDeadline","type":"uint256","internalType":"uint256"},{"name":"verificationDeadline","type":"uint256","internalType":"uint256"},{"name":"totalPayment","type":"uint256","internalType":"uint256"},{"name":"completed","type":"bool","internalType":"bool"},{"name":"hasBeenComputed","type":"bool","internalType":"bool"},{"name":"numVerifiersSampleSize","type":"uint256","internalType":"uint256"},{"name":"mainProvider","type":"address","internalType":"address"},{"name":"timeAllocatedForVerification","type":"uint256","internalType":"uint256"},{"name":"layerCount","type":"uint256","internalType":"uint256"},{"name":"layerComputeIndex","type":"uint256","internalType":"uint256"},{"name":"roundIndex","type":"uint256","internalType":"uint256"},{"name":"state","type":"uint8","internalType":"enum ComputationMarket.RequestStates"},{"name":"stake","type":"uint256","internalType":"uint256"},{"name":"paymentPerRoundForVerifiers","type":"uint256","internalType":"uint256"},{"name":"totalPaidForVerification","type":"uint256","internalType":"uint256"},{"name":"protocolVersion","type":"uint256","internalType":"uint256"},{"name":"verifierSelectionCount","type":"uint256","internalType":"uint256"},{"name":"firstinitialisedTime","type":"uint256","internalType":"uint256"},{"name":"layerSize","type":"uint256","internalType":"uint256"},{"name":"hashOfInputFiles","type":"bytes32","internalType":"bytes32"}],"stateMutability":"view"},{"type":"function","name":"returnStake","inputs":[{"name":"requestId","type":"uint256","internalType":"uint256"},{"name":"roundNum","type":"uint256","internalType":"uint256"}],"outputs":[],"stateMutability":"nonpayable"},{"type":"function","name":"returnStakeDueToTimeout","inputs":[{"name":"requestId","type":"uint256","internalType":"uint256"},{"name":"roundNum","type":"uint256","internalType":"uint256"}],"outputs":[],"stateMutability":"nonpayable"},{"type":"function","name":"revealCommitment","inputs":[{"name":"requestId","type":"uint256","internalType":"uint256"},{"name":"agree","type":"bool","internalType":"bool"},{"name":"answer","type":"bytes32","internalType":"bytes32"},{"name":"nonce","type":"bytes32","internalType":"bytes32"}],"outputs":[],"stateMutability":"nonpayable"},{"type":"function","name":"revealProviderKeyAndHash","inputs":[{"name":"requestId","type":"uint256","internalType":"uint256"},{"name":"privateKey","type":"uint256","internalType":"uint256"},{"name":"initialisationVector","type":"uint256","internalType":"uint256"},{"name":"answerHash","type":"bytes32","internalType":"bytes32"}],"outputs":[],"stateMutability":"nonpayable"},{"type":"function","name":"roundDetails","inputs":[{"name":"","type":"uint256","internalType":"uint256"},{"name":"","type":"uint256","internalType":"uint256"}],"outputs":[{"name":"roundIndex","type":"uint256","internalType":"uint256"},{"name":"layerComputeIndex","type":"uint256","internalType":"uint256"},{"name":"verificationStartTime","type":"uint256","internalType":"uint256"},{"name":"commitEndTime","type":"uint256","internalType":"uint256"},{"name":"providerRevealEndTime","type":"uint256","internalType":"uint256"},{"name":"commitmentRevealEndTime","type":"uint256","internalType":"uint256"},{"name":"majorityVoteHash","type":"bytes32","internalType":"bytes32"},{"name":"majorityCount","type":"uint256","internalType":"uint256"},{"name":"mainProviderAnswerHash","type":"bytes32","internalType":"bytes32"},{"name":"commitsSubmitted","type":"uint256","internalType":"uint256"},{"name":"commitsRevealed","type":"uint256","internalType":"uint256"},{"name":"providerPrivateKey","type":"uint256","internalType":"uint256"},{"name":"providerInitialisationVector","type":"uint256","internalType":"uint256"}],"stateMutability":"view"},{"type":"function","name":"selectRequest","inputs":[{"name":"requestId","type":"uint256","internalType":"uint256"}],"outputs":[],"stateMutability":"nonpayable"},{"type":"function","name":"submitCommitment","inputs":[{"name":"requestId","type":"uint256","internalType":"uint256"},{"name":"computedHash","type":"bytes32","internalType":"bytes32"}],"outputs":[],"stateMutability":"nonpayable"},{"type":"function","name":"verificationDeadlinePassedForVeryfying","inputs":[{"name":"requestId","type":"uint256","internalType":"uint256"},{"name":"roundNum","type":"uint256","internalType":"uint256"}],"outputs":[],"stateMutability":"nonpayable"},{"type":"event","name":"AlertVerifiers","inputs":[{"name":"requestId","type":"uint256","indexed":true,"internalType":"uint256"},{"name":"provider","type":"address","indexed":false,"internalType":"address"},{"name":"verificationPrice","type":"uint256","indexed":false,"internalType":"uint256"},{"name":"verificationDeadline","type":"uint256","indexed":false,"internalType":"uint256"},{"name":"timeAllocatedForVerification","type":"uint256","indexed":false,"internalType":"uint256"},{"name":"numVerifiers","type":"uint256","indexed":false,"internalType":"uint256"}],"anonymous":false},{"type":"event","name":"AllCommitmentsRevealed","inputs":[{"name":"indexedrequestId","type":"uint256","indexed":false,"internalType":"uint256"},{"name":"roundNum","type":"uint256","indexed":true,"internalType":"uint256"}],"anonymous":false},{"type":"event","name":"CommitmentPhaseStarted","inputs":[{"name":"requestId","type":"uint256","indexed":true,"internalType":"uint256"},{"name":"startTime","type":"uint256","indexed":false,"internalType":"uint256"},{"name":"endTime","type":"uint256","indexed":false,"internalType":"uint256"},{"name":"layerComputeIndex","type":"uint256","indexed":false,"internalType":"uint256"}],"anonymous":false},{"type":"event","name":"CommitmentSubmitted","inputs":[{"name":"requestId","type":"uint256","indexed":true,"internalType":"uint256"},{"name":"verifier","type":"address","indexed":true,"internalType":"address"}],"anonymous":false},{"type":"event","name":"NoMajorityForRound","inputs":[{"name":"requestId","type":"uint256","indexed":true,"internalType":"uint256"},{"name":"layerComputeIndex","type":"uint256","indexed":false,"internalType":"uint256"}],"anonymous":false},{"type":"event","name":"ProviderResultSuccessfullyVerified","inputs":[{"name":"requestId","type":"uint256","indexed":true,"internalType":"uint256"}],"anonymous":false},{"type":"event","name":"ProviderResultUnsuccessful","inputs":[{"name":"requestId","type":"uint256","indexed":true,"internalType":"uint256"}],"anonymous":false},{"type":"event","name":"ProviderRevealed","inputs":[{"name":"requestId","type":"uint256","indexed":true,"internalType":"uint256"},{"name":"privateKey","type":"uint256","indexed":false,"internalType":"uint256"},{"name":"initialisationVector","type":"uint256","indexed":false,"internalType":"uint256"},{"name":"answerHash","type":"bytes32","indexed":false,"internalType":"bytes32"}],"anonymous":false},{"type":"event","name":"ProviderSelected","inputs":[{"name":"requestId","type":"uint256","indexed":true,"internalType":"uint256"},{"name":"provider","type":"address","indexed":true,"internalType":"address"}],"anonymous":false},{"type":"event","name":"ProviderSlashed","inputs":[{"name":"requestId","type":"uint256","indexed":true,"internalType":"uint256"},{"name":"provider","type":"address","indexed":true,"internalType":"address"}],"anonymous":false},{"type":"event","name":"RequestCancelled","inputs":[{"name":"requestId","type":"uint256","indexed":true,"internalType":"uint256"}],"anonymous":false},{"type":"event","name":"RequestCompletedByProvider","inputs":[{"name":"requestId","type":"uint256","indexed":true,"internalType":"uint256"},{"name":"provider","type":"address","indexed":true,"internalType":"address"}],"anonymous":false},{"type":"event","name":"RequestCreated","inputs":[{"name":"requestId","type":"uint256","indexed":true,"internalType":"uint256"},{"name":"consumer","type":"address","indexed":true,"internalType":"address"}],"anonymous":false},{"type":"event","name":"RevealCommitmentFailed","inputs":[{"name":"requestId","type":"uint256","indexed":false,"internalType":"uint256"},{"name":"newHashComputed","type":"bytes32","indexed":false,"internalType":"bytes32"},{"name":"oldHashComputed","type":"bytes32","indexed":false,"internalType":"bytes32"}],"anonymous":false},{"type":"event","name":"RevealVerificationDetails","inputs":[{"name":"requestId","type":"uint256","indexed":true,"internalType":"uint256"},{"name":"endTime","type":"uint256","indexed":false,"internalType":"uint256"},{"name":"verifier","type":"address","indexed":true,"internalType":"address"}],"anonymous":false},{"type":"event","name":"RoundInitialised","inputs":[{"name":"requestId","type":"uint256","indexed":true,"internalType":"uint256"}],"anonymous":false},{"type":"event","name":"RoundRevealStarted","inputs":[{"name":"requestId","type":"uint256","indexed":true,"internalType":"uint256"}],"anonymous":false},{"type":"event","name":"RoundStartedForVerificationSelection","inputs":[{"name":"requestId","type":"uint256","indexed":true,"internalType":"uint256"},{"name":"layerComputeIndex","type":"uint256","indexed":false,"internalType":"uint256"}],"anonymous":false},{"type":"event","name":"VerificationApplied","inputs":[{"name":"requestId","type":"uint256","indexed":true,"internalType":"uint256"},{"name":"verifier","type":"address","indexed":true,"internalType":"address"},{"name":"layerComputeIndex","type":"uint256","indexed":true,"internalType":"uint256"}],"anonymous":false},{"type":"event","name":"VerificationSelectionStarted","inputs":[{"name":"requestId","type":"uint256","indexed":true,"internalType":"uint256"},{"name":"layerComputeIndex","type":"uint256","indexed":false,"internalType":"uint256"}],"anonymous":false},{"type":"event","name":"VerifierChosen","inputs":[{"name":"requestId","type":"uint256","indexed":true,"internalType":"uint256"},{"name":"verifier","type":"address","indexed":true,"internalType":"address"},{"name":"layerComputeIndex","type":"uint256","indexed":true,"internalType":"uint256"},{"name":"verifierIndex","type":"uint256","indexed":false,"internalType":"uint256"}],"anonymous":false},{"type":"event","name":"VerifierUnchosen","inputs":[{"name":"requestId","type":"uint256","indexed":true,"internalType":"uint256"},{"name":"verifier","type":"address","indexed":true,"internalType":"address"},{"name":"layerComputeIndex","type":"uint256","indexed":true,"internalType":"uint256"},{"name":"verifierIndex","type":"uint256","indexed":false,"internalType":"uint256"}],"anonymous":false},{"type":"event","name":"VoteSubmitted","inputs":[{"name":"requestId","type":"uint256","indexed":true,"internalType":"uint256"},{"name":"verifier","type":"address","indexed":true,"internalType":"address"},{"name":"agree","type":"bool","indexed":false,"internalType":"bool"}],"anonymous":false}],"bytecode":{"object":"0x60c03462000181576001600160401b0390601f6200638a38819003918201601f19168301918483118484101762000126578084926020946040528339810103126200018157516001600160a01b03811690819003620001815780156200013c576080526040519060b9908183019081118382101762000126578291620062d1833903906000f080156200011a5760a05260405161614a9081620001878239608051818181610a8701528181610ca001528181610f6201528181610faf0152818161152d015281816124e10152818161252e01528181612f320152818161368d01528181613ae101528181613dca0152818161431d015281816148610152818161583b0152615b42015260a05181818161106d01526130910152f35b6040513d6000823e3d90fd5b634e487b7160e01b600052604160045260246000fd5b60405162461bcd60e51b815260206004820152601560248201527f496e76616c696420746f6b656e206164647265737300000000000000000000006044820152606490fd5b600080fdfe610240604052600436101561001357600080fd5b60003560e01c80630625f16114614fbd5780630a39bf2c14614f7657806313f08bbf14614f3e578063175f4c0c14614ef7578063253bd3e914614bca5780633015394c14614bae5780633295845c14614b9257806338488abc14614a385780634beda221146148ae5780635badbe4c146148905780636605dfa71461484b5780636d8f9a0e1461423257806381d12c5814613fd1578063847ada571461392a5780638ea49eca1461386e578063951c5ce2146130c0578063958a1a4b1461307b578063975026af14613034578063b10ceb5914612e76578063ba0ff7c314612402578063bfdb345114611ea2578063ddf3532c14611cfb578063e007657e14610e94578063e03ad0d114610c35578063e2e7cbe614610960578063e6a3d9dc14610754578063e7b6c4ec1461070c578063e819ff28146105cd5763f34d4c631461015c57600080fd5b346105c85760203660031901126105c85760006103a060405161017e81615331565b828152826020820152826040820152826060820152826080820152606060a0820152606060c0820152606060e08201528261010082015282610120820152826101408201528261016082015282610180820152826101a082015260606101c082015260606101e08201528261020082015282610220820152826102408201528261026082015282610280820152826102a0820152826102c0820152826102e082015282610300820152826103208201528261034082015282610360820152826103808201520152600435600052600160205260406000206040519061026282615331565b80546001600160a01b03168252600181015460208301526002810154604083015260038101546060830152600481015460808301526102a360058201615e98565b60a08301526102b4600682016154e0565b60c08301526102c560078201615e98565b60e083015260088101546101008301526009810154610120830152600a81015461014083015260ff600b820154818116151561016085015260081c161515610180830152600c8101546101a0830152610320600d8201615eed565b6101c0830152610332600e8201615eed565b6101e0830152600f8101546001600160a01b03166102008301526010810154610220830152601181015461024083015260128101546102608301526013810154610280830152601481015460ff169060098210156105b257601c916102a084015260158101546102c084015260168101546102e0840152601781015461030084015260188101546103208401526019810154610340840152601a810154610360840152601b81015461038084015201546103a082015260405180916020825260018060a01b038151166020830152602081015160408301526040810151606083015260608101516080830152608081015160a08301526103a06104fb6104e361047f61046861045260a08701516103c060c08a01526103e08901906155d2565b60c0870151888203601f190160e08a0152615585565b60e0860151878203601f19016101008901526155d2565b610100850151610120870152610120850151610140870152610140850151610160870152610160850151151561018087015261018085015115156101a08701526101a08501516101c08701526101c0850151601f19878303016101e088015261562f565b6101e0840151858203601f190161020087015261562f565b9160018060a01b03610200820151166102208501526102208101516102408501526102408101516102608501526102608101516102808501526102808101516102a08501526105546102a08201516102c08601906155c5565b6102c08101516102e08501526102e08101516103008501526103008101516103208501526103208101516103408501526103408101516103608501526103608101516103808501526103808101518285015201516103c08301520390f35b634e487b7160e01b600052602160045260246000fd5b600080fd5b346105c85760603660031901126105c8576001600160a01b03604435818116908190036105c857610100916040519161060583615315565b60008352600060e060209482868201528260408201528260608201528260808201528260a08201528260c082015201526004356000526003835260406000206024356000528352604060002090600052825260406000206040519161066983615315565b81549081169384845260ff8185019260a01c16151582526001830154604085019081526002840154906060860191825260ff6003860154169260808701931515845260048601549460a0880195865260e060ff600660058a01549960c08c019a8b52015416980197151588526040519889525115159088015251604087015251606086015251151560808501525160a08401525160c083015251151560e0820152f35b346105c85760603660031901126105c8576004356000526002602052604060002060243560005260205260406000206044356000526020526020604060002054604051908152f35b346105c85760403660031901126105c85760043580600052602060018152604060002060038252604060002091601382019081549384600052815260406000203360005281526040600020601484019460ff86541660098110156105b25760030361090f578660005260028352604060002081600052835260076040600020015442116108d15786600052600283526040600020816000528352600360406000200133600052835261080d60ff60406000205416615e1d565b86600052600283526040600020906000528252600160406000200133600052825261083f60ff60406000205416615c41565b60046024359101558460005260028152604060002082546000528152600d60406000200161086d8154615e89565b905584600052600281526040600020915460005252600c600d60406000200154910154146108c0575b5033907f22d30f6da93667100b64d15e5ea70afec217caeab1008706f57bfa4deed12c63600080a3005b805460ff1916600417905581610896565b60405162461bcd60e51b815260048101849052601660248201527510dbdb5b5a5d1b595b9d081c1a185cd948195b99195960521b6044820152606490fd5b60405162461bcd60e51b815260048101849052602360248201527f52657175657374206e6f742079657420696e20636f6d6d69746d656e7420737460448201526261746560e81b6064820152608490fd5b346105c85761096e36615490565b908060005260209160018352604060002091600284526040600020826000528452600260406000200133600052845260ff6040600020541615610be0576009830154601084015480600302906003820403610bca576109cd904261576c565b1115610b5f5760ff60148401541660098110156105b257600203610b0657610a81928492826016936000526003855260406000208260005285526040600020336000528552610a2760ff6006604060002001541615615c83565b60009081526003855260408082209282529185528181203380835290865290829020600601805460ff191660011790559290910154905163a9059cbb60e01b81526004810192909252602482015291829081906044820190565b038160007f00000000000000000000000000000000000000000000000000000000000000006001600160a01b03165af1908115610afa57610acb92600092610acd575b5050615cc3565b005b610aec9250803d10610af3575b610ae48183615383565b8101906156fa565b8280610ac4565b503d610ada565b6040513d6000823e3d90fd5b60405162461bcd60e51b815260048101859052602b60248201527f52657175657374204d75737420626520696e2063686f6f73696e67207665726960448201526a666965727320737461746560a81b6064820152608490fd5b60405162461bcd60e51b815260048101859052603f60248201527f5374696c6c20656e6f7567682074696d6520746f20706572666f726d20726f7560448201527f6e64206265666f726520766572696669636174696f6e20646561646c696e65006064820152608490fd5b634e487b7160e01b600052601160045260246000fd5b60405162461bcd60e51b815260048101859052602760248201527f596f7520617265206e6f742074686520766572696669657220666f72207468696044820152661cc81c9bdd5b9960ca1b6064820152608490fd5b346105c8576020806003193601126105c8576004359081600052600181526040600020610c68600882015442111561566c565b600f8101805490916001600160a01b03808316610e4f576015820154604051636eb1769f60e11b8152336004820152306024820152937f0000000000000000000000000000000000000000000000000000000000000000929092169290918685604481875afa948515610afa57600095610e20575b506040516370a0823160e01b8152336004820152948786602481885afa908115610afa578896600092610de4575b5096601492610d3086809694610d29610d809a9960009d1015615d19565b1015615d19565b6001600160a01b031916339081179091559101805460ff191660011790556040516323b872dd60e01b81526004810191909152306024820152604481019190915293849283919082906064820190565b03925af1908115610afa57610d9e92600092610dc7575b5050615d19565b33907f3c84569ae9be7c8e6e8edf0c0cbeb7e00cf9cb4d9b67849728be8ab96e09bec1600080a3005b610ddd9250803d10610af357610ae48183615383565b8380610d97565b878194989297969593503d8311610e19575b610e008183615383565b810103126105c857905187959394929391926014610d0b565b503d610df6565b9094508681813d8311610e48575b610e388183615383565b810103126105c857519388610cdd565b503d610e2e565b60405162461bcd60e51b815260048101869052601960248201527f50726f766964657220616c72656164792073656c6563746564000000000000006044820152606490fd5b346105c8576101c03660031901126105c8576084356001600160401b0381116105c857610ec5903690600401615411565b60a4356001600160401b0381116105c857610ee49036906004016153bb565b90610ef46101643560443561576c565b80600019810111610bca57610f1190610164359060001901615e7f565b610f2981610f24610124356024356156b8565b6156b8565b91610f368360043561576c565b604051636eb1769f60e11b81523360048201523060248201529094906020816044816001600160a01b037f0000000000000000000000000000000000000000000000000000000000000000165afa908115610afa57600091611cc9575b506040516370a0823160e01b81523360048201526020816024817f00000000000000000000000000000000000000000000000000000000000000006001600160a01b03165afa918215610afa578791600093611c92575b5010611c31578511611bd2574260c4351115611b675761010435600361010435020460031461010435151715610bca5761103561102d60036101043502856156b8565b60c43561576c565b60e4351115611aec576101243560643510611a5b576000546000526005602052604060002063765a4a7a640100000000600160c01b037f000000000000000000000000000000000000000000000000000000000000000060201b166001600160401b0360c01b835416171790556040516110ae81615368565b60008152604051916110bf83615368565b60008352604051936110d085615368565b60008552604051966110e188615331565b338852600435602089015260408801526044356060880152606435608088015260a087015260c086015260e085015260c43561010085015260e4356101208501528461014085015260006101608501526000610180850152610124356101a08501526101c08401526101e08301526000610200830152610104356102208301526102408201526000610260820152600061028082015260006102a08201526101a4356102c08201526024356102e08201526000610300820152610144356103208201526000610340820152600061036082015261016435610380820152610184356103a08201526000546000526001602052604060002060018060a01b038251166001600160601b0360a01b8254161781556020820151600182015560408201516002820155606082015160038201556080820151600482015560a0820151805190600160401b82116116295760058301548260058501558083106119e2575b5060200190600583016000526020600020916000905b8282106118c9575050505060c08201519283516001600160401b0381116116295761128560068401546154a6565b601f8111611894575b506020601f82116001146118255781906112c29394959660009261181a575b50508160011b916000199060031b1c19161790565b60068301555b60e0830151805190600160401b82116116295760078401548260078601558083106117a2575b5060200190600784016000526020600020916000905b82821061167c575050505061010083015160088301556101208301516009830155610140830151600a830155611370600b83016113546101608601511515829060ff801983541691151516179055565b610180850151815461ff00191690151560081b61ff0016179055565b6101a0830151600c8301556101c08301518051906001600160401b03821161162957600160401b821161162957602090600d85015483600d87015580841061165c575b5001600d8401600052602060002060005b83811061163f57505050506101e08301518051906001600160401b03821161162957600160401b821161162957602090600e85015483600e870155808410611609575b5001600e8401600052602060002060005b8381106115ec5750505050600f820160018060a01b03610200850151166001600160601b0360a01b82541617905561022083015160108301556102408301516011830155610260830151601283015561028083015160138301556102a08301519160098310156105b257601c6103a06115279561149a602096601486016156e2565b6102c081015160158501556102e08101516016850155610300810151601785015561032081015160188501556103408101516019850155610360810151601a850155610380810151601b85015501519101556114f7600054615e89565b6000556040516323b872dd60e01b8152336004820152306024820152604481019190915291829081906064820190565b038160007f00000000000000000000000000000000000000000000000000000000000000006001600160a01b03165af1908115610afa576000916115cd575b501561159757336000547f233bb55fd57b21b8a3d15c9ad8fbbab435fe4cf2865cc654f6a57d9d4d8cda54600080a3005b60405162461bcd60e51b815260206004820152600e60248201526d14185e5b595b9d0819985a5b195960921b6044820152606490fd5b6115e6915060203d602011610af357610ae48183615383565b81611566565b82516001600160a01b031681830155602090920191600101611418565b61162390600e8701600052848460002091820191016156cb565b86611407565b634e487b7160e01b600052604160045260246000fd5b82516001600160a01b0316818301556020909201916001016113c4565b61167690600d8701600052848460002091820191016156cb565b866113b3565b80518051906001600160401b0382116116295761169986546154a6565b601f8111611765575b50602090601f83116001146116f557926116db836001959460209487966000926116ea5750508160011b916000199060031b1c19161790565b87555b01940191019092611304565b015190508d806112ad565b908660005260206000209160005b601f198516811061174d575083602093600196938796938794601f19811610611734575b505050811b0187556116de565b015160001960f88460031b161c191690558c8080611727565b91926020600181928685015181550194019201611703565b61179290876000526020600020601f850160051c81019160208610611798575b601f0160051c01906156cb565b896116a2565b9091508190611785565b600785016000526020600020908382015b81830181106117c35750506112ee565b806117d0600192546154a6565b806117dd575b50016117b3565b601f811183146117f35750600081555b896117d6565b600090828252611811601f60208420920160051c82018583016156cb565b818355556117ed565b0151905086806112ad565b6006840160005260206000209060005b601f198416811061187c575060019394959683601f19811610611863575b505050811b0160068301556112c8565b015160001960f88460031b161c19169055858080611853565b9091602060018192858b015181550193019101611835565b6118c390600685016000526020600020601f840160051c8101916020851061179857601f0160051c01906156cb565b8561128e565b80518051906001600160401b038211611629576118e686546154a6565b90601f918281116119a8575b5060209183116001146119385792611929836001959460209487966000926116ea5750508160011b916000199060031b1c19161790565b87555b01940191019092611257565b908660005260206000209160005b601f1985168110611990575083602093600196938796938794601f19811610611977575b505050811b01875561192c565b015160001960f88460031b161c191690558c808061196a565b91926020600181928685015181550194019201611946565b6119d3908860005260206000208480870160051c820192602088106119d9575b0160051c01906156cb565b8a6118f2565b925081926119c8565b600584016000526020600020908382015b8183018110611a03575050611241565b80611a10600192546154a6565b80611a1d575b50016119f3565b601f908181118414611a36575050600081555b89611a16565b611a5260009284845260208420920160051c82018583016156cb565b81835555611a30565b60405162461bcd60e51b815260206004820152605d60248201527f4e6f7420656e6f7567682076657269666965727320746f2063686f6f7365206660448201527f726f6d2e206e756d566572696669657273206d7573742062652067726561746560648201527f72207468616e206e756d56657269666965727353616d706c6553697a65000000608482015260a490fd5b60405162461bcd60e51b815260206004820152604760248201527f566572696669636174696f6e20646561646c696e65206d75737420626520737560448201527f6666696369656e7420656e6f75676820666f7220616c6c20726f756e64732072606482015266195c5d5a5c995960ca1b608482015260a490fd5b60405162461bcd60e51b815260206004820152603c60248201527f436f6d7075746174696f6e616c20646561646c696e65206d757374206265206760448201527f726561746572207468616e207468652063757272656e742074696d65000000006064820152608490fd5b60405162461bcd60e51b815260206004820152603160248201527f496e73756666696369656e742062616c616e636520617661696c61626c6520746044820152701bc818dbdb991d58dd081c995c5d595cdd607a1b6064820152608490fd5b60405162461bcd60e51b815260206004820152603360248201527f496e73756666696369656e7420616c6c6f77616e636520617661696c61626c65604482015272081d1bc818dbdb991d58dd081c995c5d595cdd606a1b6064820152608490fd5b915091506020813d602011611cc1575b81611caf60209383615383565b810103126105c8578690519188610fea565b3d9150611ca2565b90506020813d602011611cf3575b81611ce460209383615383565b810103126105c8575186610f93565b3d9150611cd7565b346105c857611d0936615490565b906000610180604051611d1b816152f9565b8281528260208201528260408201528260608201528260808201528260a08201528260c08201528260e082015282610100820152826101208201528261014082015282610160820152015260005260026020526040600020906000526020526101a06040600020610180611ddb6004830154836005829501546006820154600783015460088401546009850154600a86015490600b87015492600c88015494600d89015496600e8a0154986010600f8c01549b01549b6040519d8e6152f9565b8d5260208d015260408c015260608b015260808a015260a089015260c088015260e0870152610100860152610120850152610140840152610160830152828201526040519283526020810151602084015260408101516040840152606081015160608401526080810151608084015260a081015160a084015260c081015160c084015260e081015160e08401526101008101516101008401526101208101516101208401526101408101516101408401526101608101516101608401520151610180820152f35b346105c85760803660031901126105c85760243580151581036105c85760043560005260016020526040600020906002602052604060002060138301549081600052602052600860406000200154421180156123e8575b156123a3576004356000526002602052604060002081600052602052600960406000200154421161236957600435600052600260205260406000208160005260205260036040600020013360005260205260ff6040600020541615612324576004356000526002602052604060002081600052602052600160406000200133600052602052611f8f60ff60406000205416615c41565b60043560005260036020526040600020906000526020526040600020336000526020526040600020600381015460ff81166122df576040516020810190604435825260643560408201523360601b606082015260548152611fef8161534d565b5190206004830154036122a25760405191604435602084015283151560f81b6040840152602183528260608101106001600160401b03606085011117611629576005906060840160405283516020850120948593600183549160443582860155606435600286015560ff1916176003840155339160ff60a01b90151560a01b16906affffffffffffffffffffff60a81b161717815501556004356000526002602052604060002060138401546000526020526040600020906004356000526005602052602060406000205463ffffffff60e01b8160e01b16606084015233606484015260246060840191606085019060018060a01b0390851c165afa908115610afa5760009161226a575b508260005281602052612113604060002091825461576c565b9055816000528060205260406000205491600b8201928354908181146000146122215750505050506004356000526002602052604060002060138201546000526020526000600a6040822001555b600435600052600260205260406000206013820154600052602052600e60406000200161218e8154615e89565b905560405142815233907fb59f6416758d4763386b2c83d12c7c643131c90beff0caea486f303510702ce3602060043592a3600435600052600260205260406000209060138101549182600052602052600c600e60406000200154910154146121f357005b7f86379e876dfaea4f98e183813a1a8fea7b8212d0dc9598d4e09ee4b9cdf4613360206040516004358152a2005b1161222f575b505050612161565b60043560005260026020526040600020601385015460005260205280600a604060002001556000526020526040600020549055818080612227565b90506020813d60201161229a575b8161228860209360608401615383565b810103126105c85760600151846120fa565b3d9150612278565b60405162461bcd60e51b8152602060048201526015602482015274496e76616c69642072657665616c2076616c75657360581b6044820152606490fd5b60405162461bcd60e51b815260206004820152601b60248201527f436f6d6d69746d656e7420616c72656164792072657665616c656400000000006044820152606490fd5b60405162461bcd60e51b815260206004820152601f60248201527f596f7520617265206e6f74207468652063686f73656e207665726966696572006044820152606490fd5b60405162461bcd60e51b815260206004820152601260248201527114995d99585b081c1a185cd948195b99195960721b6044820152606490fd5b60405162461bcd60e51b815260206004820152601f60248201527f50726f76696465722072657665616c207068617365206e6f7420656e646564006044820152606490fd5b5060ff60148401541660098110156105b257600514611ef9565b346105c8576101e03660031901126105c8576084356001600160401b0381116105c857612433903690600401615411565b60a4356001600160401b0381116105c8576124529036906004016153bb565b906101c43567ffffffffffffffff19811690036105c8576124786101643560443561576c565b80600019810111610bca5761249590610164359060001901615e7f565b6124a881610f24610124356024356156b8565b916124b58360043561576c565b604051636eb1769f60e11b81523360048201523060248201529094906020816044816001600160a01b037f0000000000000000000000000000000000000000000000000000000000000000165afa908115610afa57600091612e44575b506040516370a0823160e01b81523360048201526020816024817f00000000000000000000000000000000000000000000000000000000000000006001600160a01b03165afa918215610afa578791600093612e0d575b5010611c31578511611bd2574260c4351115611b675761010435600361010435020460031461010435151715610bca576125ac61102d60036101043502856156b8565b60e4351115611aec576101243560643510611a5b57600054600052600560205260406000206001600160401b0360c01b815416640100000000600160c01b036101c43560401c1663ffffffff6101c43560401c161717905560405161261081615368565b600081526040519161262183615368565b600083526040519361263285615368565b600085526040519661264388615331565b338852600435602089015260408801526044356060880152606435608088015260a087015260c086015260e085015260c43561010085015260e4356101208501528461014085015260006101608501526000610180850152610124356101a08501526101c08401526101e08301526000610200830152610104356102208301526102408201526000610260820152600061028082015260006102a08201526101a4356102c08201526024356102e08201526000610300820152610144356103208201526000610340820152600061036082015261016435610380820152610184356103a08201526000546000526001602052604060002060018060a01b038251166001600160601b0360a01b8254161781556020820151600182015560408201516002820155606082015160038201556080820151600482015560a0820151805190600160401b8211611629576005830154826005850155808310612d94575b5060200190600583016000526020600020916000905b828210612c85575050505060c08201519283516001600160401b038111611629576127e760068401546154a6565b601f8111612c50575b506020601f8211600114612be15781906128239394959660009261181a5750508160011b916000199060031b1c19161790565b60068301555b60e0830151805190600160401b8211611629576007840154826007860155808310612b69575b5060200190600784016000526020600020916000905b828210612a59575050505061010083015160088301556101208301516009830155610140830151600a8301556128b5600b83016113546101608601511515829060ff801983541691151516179055565b6101a0830151600c8301556101c08301518051906001600160401b03821161162957600160401b821161162957602090600d85015483600d870155808410612a39575b5001600d8401600052602060002060005b838110612a1c57505050506101e08301518051906001600160401b03821161162957600160401b821161162957602090600e85015483600e8701558084106129fc575b5001600e8401600052602060002060005b8381106129df5750505050600f820160018060a01b03610200850151166001600160601b0360a01b82541617905561022083015160108301556102408301516011830155610260830151601283015561028083015160138301556102a08301519160098310156105b257601c6103a06115279561149a602096601486016156e2565b82516001600160a01b03168183015560209092019160010161295d565b612a1690600e8701600052848460002091820191016156cb565b8661294c565b82516001600160a01b031681830155602090920191600101612909565b612a5390600d8701600052848460002091820191016156cb565b866128f8565b80518051906001600160401b03821161162957612a7686546154a6565b601f8111612b37575b50602090601f8311600114612ac75792612ab8836001959460209487966000926116ea5750508160011b916000199060031b1c19161790565b87555b01940191019092612865565b908660005260206000209160005b601f1985168110612b1f575083602093600196938796938794601f19811610612b06575b505050811b018755612abb565b015160001960f88460031b161c191690558c8080612af9565b91926020600181928685015181550194019201612ad5565b612b6390876000526020600020601f850160051c8101916020861061179857601f0160051c01906156cb565b89612a7f565b600785016000526020600020908382015b8183018110612b8a57505061284f565b80612b97600192546154a6565b80612ba4575b5001612b7a565b601f81118314612bba5750600081555b89612b9d565b600090828252612bd8601f60208420920160051c82018583016156cb565b81835555612bb4565b6006840160005260206000209060005b601f1984168110612c38575060019394959683601f19811610612c1f575b505050811b016006830155612829565b015160001960f88460031b161c19169055858080612c0f565b9091602060018192858b015181550193019101612bf1565b612c7f90600685016000526020600020601f840160051c8101916020851061179857601f0160051c01906156cb565b856127f0565b80518051906001600160401b03821161162957612ca286546154a6565b90601f91828111612d64575b506020918311600114612cf45792612ce5836001959460209487966000926116ea5750508160011b916000199060031b1c19161790565b87555b019401910190926127b9565b908660005260206000209160005b601f1985168110612d4c575083602093600196938796938794601f19811610612d33575b505050811b018755612ce8565b015160001960f88460031b161c191690558c8080612d26565b91926020600181928685015181550194019201612d02565b612d8e908860005260206000208480870160051c820192602088106119d9570160051c01906156cb565b8a612cae565b600584016000526020600020908382015b8183018110612db55750506127a3565b80612dc2600192546154a6565b80612dcf575b5001612da5565b601f908181118414612de8575050600081555b89612dc8565b612e0460009284845260208420920160051c82018583016156cb565b81835555612de2565b915091506020813d602011612e3c575b81612e2a60209383615383565b810103126105c8578690519188612569565b3d9150612e1d565b90506020813d602011612e6e575b81612e5f60209383615383565b810103126105c8575186612512565b3d9150612e52565b346105c8576020806003193601126105c8576004359081600052600181526040600020600981015442101580613019575b8061300a575b15612fb2578181600b612f2e93019060ff1991600183825416179055612ef960018060a01b039182600f820154169360066014830191825416179055600160158201549101549061576c565b60405163a9059cbb60e01b81526001600160a01b03909316600484015260248301529092839190829060009082906044820190565b03927f0000000000000000000000000000000000000000000000000000000000000000165af1908115610afa57612f6e92600092612f95575b5050615a22565b7f953601eba1acf6d4769af39f3986a5be6acd796655930c93832c2f239fbccabf600080a2005b612fab9250803d10610af357610ae48183615383565b8380612f67565b60405162461bcd60e51b815260048101839052602a60248201527f566572696669636174696f6e20446561646c696e6520686173206e6f7420626560448201526932b7103830b9b9b2b21760b11b6064820152608490fd5b5060ff600b8201541615612ead565b5060ff60148201541660098110156105b25760071415612ea7565b346105c85761304236615490565b906000526002602052604060002090600052602052600360406000200133600052602052602060ff604060002054166040519015158152f35b346105c85760003660031901126105c8576040517f00000000000000000000000000000000000000000000000000000000000000006001600160a01b03168152602090f35b346105c85760203660031901126105c85760043560005260016020526040600020600d81015460048201908154810361381f5760ff600b84015460081c16156137d057600c8301541161377f57600982015460108301549081600302916003830403610bca5761313361313a924261576c565b1115615d5a565b600435600052600260205260406000206013830154908160005260205260016040600020013360005260205260ff6040600020541661373a5760043560005260026020526040600020906000526020526001604060002001336000526020526040600020600160ff198254161790556019820154600c83015481106000146135d65750546131cd60198301548092615a15565b9060405160208101904282524460408201523360601b6060820152605481526131f58161534d565b51902082156135c0576132108261325394613271930661576c565b61321d81600d8701615dcc565b90546001600160a01b039560039290921b1c851693859061324190600d8901615dcc565b90549060031b1c1691600d8701615dcc565b90919060018060a01b038084549260031b9316831b921b1916179055565b613286816132536019860154600d8701615dcc565b6004356000526002602052604060002060138401546000526020526003604060002001906000526020526040600020600160ff198254161790556132e6816132d56019850154600d8601615dcc565b90549060031b1c16600e8401615dfa565b60168201546132fa6017840191825461576c565b905560198201549061330f82600d8501615dcc565b90549060031b1c166012830154916040519081527f441ea878e9821f31af14375bef585bac76bbbde0e10feddc036673243d01a1d7602060043592a45b60198101549060018201809211610bca5780826019600c93015501541461336f57005b60043560005260016020526040600020601281019081546011820154111561357b576009810154906010810191825480600302906003820403610bca576133b6904261576c565b101561351c57601490600435600052600260205260406000209260138201938454600052602052426006604060002001556133f281544261576c565b600435600052600260205260406000208554600052602052600760406000200155600435600052600260205260406000208454908160005260205261344160076040600020015483549061576c565b90600435600052600260205260406000209060005260205260086040600020015560043560005260026020526134916040600020918554928360005260205260086040600020015490549061576c565b90600435600052600260205260406000209060005260205260096040600020015501600360ff19825416179055600435600052600260205260406000209054600052602052600760406000200154905460405191428352602083015260408201527f27e90e135bb91bf6706a23381e6d0d480f8bb7d002d6e9a197b432b7b654245f606060043592a2005b60405162461bcd60e51b815260206004820152603160248201527f566572696669636174696f6e20446561646c696e652068617320706173736564604482015270081d1bc81cdd185c9d0818481c9bdd5b99607a1b6064820152608490fd5b60405162461bcd60e51b815260206004820152601e60248201527f416c6c206c61796572732068617665206265656e2070726f63657373656400006044820152606490fd5b634e487b7160e01b600052601260045260246000fd5b9050600435600052600360205260406000206013830154600052602052613605604060002091600d8401615dcc565b919060018060a01b03928391549060031b1c166000526020526006604060002001600160ff198254161790556136866020826136486019860154600d8701615dcc565b90549060031b1c16601685015490604051938492839263a9059cbb60e01b84526004840160209093929193604081019460018060a01b031681520152565b03816000867f0000000000000000000000000000000000000000000000000000000000000000165af18015610afa576136c79160009161371b575b50615cc3565b6019820154906136da82600d8501615dcc565b90549060031b1c166012830154916040519081527fd2673c2f320637ecd6e1e7a21780cb318c5a6c5b49398f8c5ae9d0ae0aad4743602060043592a461334c565b613734915060203d602011610af357610ae48183615383565b846136c1565b60405162461bcd60e51b815260206004820152601e60248201527f56657269666965722068617320616c72656164792074726967676572656400006044820152606490fd5b60405162461bcd60e51b815260206004820152602360248201527f4e6f7420656e6f7567682076657269666965727320746f2063686f6f73652066604482015262726f6d60e81b6064820152608490fd5b60405162461bcd60e51b815260206004820152602160248201527f5265717565737420686173206e6f74206265656e20636f6d70757465642079656044820152601d60fa1b6064820152608490fd5b60405162461bcd60e51b815260206004820152602160248201527f5665726966696572206c69737420686173206e6f74206265656e2066696c6c656044820152601960fa1b6064820152608490fd5b346105c85761387c36615490565b9060005260026020526040600020906000526020526101a060406000206004810154906005810154906006810154600782015460088301546009840154600a850154600b86015491600c87015493600d88015495600e890154976010600f8b01549a01549a6040519c8d5260208d015260408c015260608b015260808a015260a089015260c088015260e0870152610100860152610120850152610140840152610160830152610180820152f35b346105c85761393836615490565b816000526001602091818352604060002091600280855260406000208360005285526009604060002001544210801590613faa575b15613f56578560005280855260406000208360005285526003918260406000200133600052865260ff926139a78460406000205416615e1d565b87600052808752604060002085600052875260406000203360005287528360066040600020015416613efd57601386019384548611613e9257828610613e355788600052838852604060002086600052885282604060002001336000528852613a168160406000205416615c41565b886000528188526040600020866000528852604060002033600052885260066040600020019360ff19948486825416179055896000528089526040600020876000528952600a60406000200154908115600014613b505750505092879260169592889995613adb9998966000528852604060002084600052885260406000203360005288526006604060002001918254161790555414613b41575b50015460405163a9059cbb60e01b8152336004820152602481019190915291829081906044820190565b038160007f00000000000000000000000000000000000000000000000000000000000000006001600160a01b03165af1908115610afa57610acb92600092613b24575050615a22565b613b3a9250803d10610af357610ae48183615383565b8280612f67565b613b4a90615f47565b85613ab1565b919796929589888c869497989981600052808452604060002086600052845260406000203360005284526005604060002001548914613d22575b505050505414613b9657005b6000898152908852604080822092825291885220600c015414613bd75750506014015416905060098110156105b257600703613bce57005b610acb90615a6d565b90916012810190601182549101546000198101818111610bca578203613cff575050613c038154615e89565b9055846000528084526040600020906014820180549480861660098110156105b257600714613cba57600b8401908154908116613c7557851683179055600f830154939094166006179093556015810154920154612f2e9284926001600160a01b03908116929091612ef9919061576c565b60405162461bcd60e51b815260048101899052601c60248201527f5265717565737420697320616c726561647920636f6d706c65746564000000006044820152606490fd5b60405162461bcd60e51b815260048101889052601760248201527f5265717565737420697320756e7375636365737366756c0000000000000000006044820152606490fd5b93509594509250508310613d0f57005b613d1b610acb93615e89565b9055615f47565b613dc49550908291613d6c613d43600c6016613d9d970154950154856156b8565b8360005289875260406000208b600052875260406000208c600052875260406000205490615e7f565b9160005284526040600020886000528452604060002033600052845260066040600020018a8c82541617905561576c565b60405163a9059cbb60e01b8152336004820152602481019190915292839081906044820190565b038160007f00000000000000000000000000000000000000000000000000000000000000006001600160a01b03165af1918215610afa578492613e0f91600091613e18575b50615a22565b89888c8e613b8a565b613e2f91508c8d3d10610af357610ae48183615383565b8d613e09565b60405162461bcd60e51b815260048101899052602f60248201527f526f756e64206e756d626572206d75737420626520677265617465722074686160448201526e6e206f7220657175616c20746f203160881b6064820152608490fd5b60405162461bcd60e51b815260048101899052603a60248201527f726f756e64206e756d206d757374206265206c657373207468616e206f72206560448201527f7175616c20746f20726571756573742e726f756e64496e6465780000000000006064820152608490fd5b60405162461bcd60e51b815260048101889052602b60248201527f596f75206861766520616c7265616479206265656e207061696420666f72207660448201526a32b934b334b1b0ba34b7b760a91b6064820152608490fd5b60405162461bcd60e51b815260048101869052602660248201527f636f6d6d69746d656e7420737461676520686173206e6f742079657420636f6d6044820152651c1b195d195960d21b6064820152608490fd5b50856000528085526040600020836000528552600e60406000200154600c8501541461396d565b346105c85760203660031901126105c857600435600052600160205260406000206102205260018060a01b036102205154166141cb600161022051015460026102205101546101405260036102205101546101605260046102205101546101a052614041600661022051016154e0565b92600861022051015461012052600961022051015493600a610220510154600b610220510154600c61022051015460018060a01b03600f610220510154169060ff60106102205101549360116102205101549561415960126102205101549860136102205101549a856014610220510154169c6015610220510154608052601661022051015460a052601761022051015460e05260186102205101546102005260196102205101546101e052601a6102205101546101c052601b61022051015461018052601c6102205101546101005260405160c0526103409160c05152602060c051015261014051604060c051015261016051606060c05101526101a051608060c05101528060a060c051015260c0510190615585565b9b6101205160c08051015260e060c051015261010060c0510152818116151561012060c051015260081c16151561014060c051015261016060c051015261018060c05101526101a060c05101526101c060c05101526101e060c051015261020060c051015261022060c05101906155c5565b60805161024060c051015260a05161026060c051015260e05161028060c0510152610200516102a060c05101526101e0516102c060c05101526101c0516102e060c05101526101805161030060c05101526101005161032060c051015260c051900360c051f35b346105c8576020806003193601126105c85760043580600052600182526040600020600583526040600020549260018060a01b03809482604051809263ffffffff60e01b8160e01b168252336004830152816024998a92851c165afa908115610afa5760009161481e575b50156147be57601a830154600581018091116147a957421061474e5760ff600b84015460081c161561470a5780600f8401541633146146aa57600d830180549160048501928354111561466d5760ff6014860154166009811015614658576002036145c857604051636eb1769f60e11b81523360048201523060248201527f0000000000000000000000000000000000000000000000000000000000000000919091169290918483604481875afa928315610afa57600093614599575b506040516370a0823160e01b81523360048201529285848a81885afa938415610afa57600094614568575b5061439d906016880194610d29865480931015615d19565b600986015460108701549081600302916003830403614553576131336143c3924261576c565b86600052600285526040600020601387015490816000528652600260406000200133600052865260ff6040600020541661450f57926144739286959260009897958a8a526002875260408a20908a528652600260408a2001338a52865260408920600160ff198254161790556144393382615dfa565b549054146144db575b546040516323b872dd60e01b8152336004820152306024820152604481019190915295869283919082906064820190565b03925af18015610afa57601293614492926000926144be575050615d19565b01549033907f9e9159f67684b4639ef3d20a0878e965d2fa78dc33561fadb2485cd3d3447abf600080a4005b6144d49250803d10610af357610ae48183615383565b8580610d97565b877fac6c772803856f8be288c38a92349502c9d976deccefb05524c4eafedf049aeb856012890154604051908152a2614442565b60405162461bcd60e51b8152600481018790526018818b01527f566572696669657220616c7265616479206170706c69656400000000000000006044820152606490fd5b89634e487b7160e01b60005260116004526000fd5b9093508581813d8311614592575b6145808183615383565b810103126105c857519261439d614385565b503d614576565b9092508481813d83116145c1575b6145b18183615383565b810103126105c85751918861435a565b503d6145a7565b60405162461bcd60e51b8152600481018590526059818901527f56657269666965722063616e6e6f74206170706c7920666f722076657269666960448201527f636174696f6e2e2052657175657374207374617465206d75737420626520696e60648201527f2063686f6f73696e672076657269666965727320737461746500000000000000608482015260a490fd5b87634e487b7160e01b60005260216004526000fd5b60405162461bcd60e51b8152600481018590526016818901527515995c9a599a595c881b1a5b5a5d081c995858da195960521b6044820152606490fd5b60405162461bcd60e51b8152600481018390526033818701527f546865206d61696e2070726f76696465722063616e6e6f74206170706c79207460448201527237903132b1b7b6b29030903b32b934b334b2b960691b6064820152608490fd5b60405162461bcd60e51b8152600481018390526018818701527f52657175657374206e6f742079657420636f6d707574656400000000000000006044820152606490fd5b60405162461bcd60e51b815260048101839052602e818701527f4d75737420776169742035207365636f6e6473206265666f726520766572696660448201526d696572732063616e206170706c7960901b6064820152608490fd5b85634e487b7160e01b60005260116004526000fd5b60405162461bcd60e51b8152600481018390526033818701527f6d73672e73656e646572206973206e6f7420616c6c6f77656420746f20617070604482015272363c903337b9103b32b934b334b1b0ba34b7b760691b6064820152608490fd5b90508281813d8311614844575b6148358183615383565b810103126105c857518661429d565b503d61482b565b346105c85760003660031901126105c8576040517f00000000000000000000000000000000000000000000000000000000000000006001600160a01b03168152602090f35b346105c85760003660031901126105c8576020600054604051908152f35b346105c8576148bc36615490565b9080600052602091600183526040600020916009830154601084015480600302906003820403610bca576148f0904261576c565b11156149e25780600052600284526040600020826000528452600260406000200133600052845260ff604060002054161561496157610a81928492826016936000526003855260406000208260005285526040600020336000528552610a2760ff6006604060002001541615615c83565b60405162461bcd60e51b815260048101859052604d60248201527f5665726966696572206861732065697468657220616c7265616479207265636960448201527f65766564207374616b652c206f7220646964206e6f74206170706c7920666f7260648201526c103b32b934b334b1b0ba34b7b760991b608482015260a490fd5b60405162461bcd60e51b815260048101859052602860248201527f566572696669636174696f6e20646561646c696e6520686173206e6f742079656044820152671d081c185cdcd95960c21b6064820152608490fd5b346105c857614a4636615490565b90806000526020916002835260406000208160005283526001604060002001336000528352614a7c60ff60406000205416615c41565b81600052600283526040600020816000528352600360406000200133600052835260ff60406000205416614b4157816000526003835260406000208160005283526040600020336000528352614add60ff6006604060002001541615615c83565b600082815260038452604080822092825291845281812033808352908552828220600601805460ff1916600190811790915593825292845281902060160154905163a9059cbb60e01b81526004810192909252602482015281818060448101610a81565b60405162461bcd60e51b815260048101849052602360248201527f43686f73656e2076657269666569722063616e6e6f742072657475726e207374604482015262616b6560e81b6064820152608490fd5b346105c85760203660031901126105c857610acb600435615a6d565b346105c85760203660031901126105c857610acb600435615779565b346105c85760803660031901126105c8576004356024803560443590606435918460005260209160018352604060002060018060a01b03600f820154163303614e985786600052600284526040600020936013820180549586600052825260076040600020015442118015614e69575b15614e2557886000526002825260406000208660005282526008604060002001544211614de1578860005260048252604060002084600052825260ff60406000205416614d935760405195828701888152600160f81b6040890152602188526060880199888b106001600160401b038c1117614d7f57509260a095928a98959260609a98957f2f06062ea665468a61997fd63a8ec957f95fda34ee5de1123656b796f400cf189c60405287519020908d600052600284526040600020906000528352600c604060002001558b60005260028252604060002081546000528252846010604060002001558b6000526002825260406000209054600052815282600f604060002001558a6000526004815260406000209083600052526005601460406000209260ff19936001858254161790550191825416179055855260808201520152a2005b634e487b7160e01b60009081526041600452fd5b60405162461bcd60e51b8152600481018390526021818a01527f50726976617465206b65792068617320616c7265616479206265656e207573656044820152601960fa1b6064820152608490fd5b60405162461bcd60e51b815260048101839052601b818a01527f50726f76696465722072657665616c20706861736520656e64656400000000006044820152606490fd5b60405162461bcd60e51b815260048101839052601a818a01527f436f6d6d69746d656e74207068617365206e6f7420656e6465640000000000006044820152606490fd5b5060ff6014840154166009811015614e8357600414614c3a565b88634e487b7160e01b60005260216004526000fd5b60405162461bcd60e51b8152600481018590526032818801527f4f6e6c7920746865206d61696e2070726f76696465722063616e2072657665616044820152710d840e8d0ca40d6caf240c2dcc840d0c2e6d60731b6064820152608490fd5b346105c857614f0536615490565b906000526002602052604060002090600052602052600260406000200133600052602052602060ff604060002054166040519015158152f35b346105c857614f4c36615490565b906000526004602052604060002090600052602052602060ff604060002054166040519015158152f35b346105c857614f8436615490565b906000526002602052604060002090600052602052600160406000200133600052602052602060ff604060002054166040519015158152f35b346105c85760403660031901126105c8576004356001600160401b03602480358281116105c857614ff2903690600401615411565b83600052600190602093828552604060002094600b8601805460ff81166152a957615023600889015442111561566c565b600f8801546001600160a01b031633036152525761ff0019166101001790558251926007870190600160401b851161162957829082548684558087106151d5575b506000928352838320929491015b8585106150b25742601a8a01558961508981615f47565b33907fd8fcbb5eddba1b1984c4f12b2197b325cc19ed135c968033ffd714c7f4c2d6bd600080a3005b80519081518381116151c057889186916150cc87546154a6565b94601f95868111615188575b50839582116001146151225790808596615108936000926151175750508160011b916000199060031b1c19161790565b86555b01930194019391615072565b0151905038806112ad565b94601f1982169088600052846000209160005b8181106151715750908697848895949310615158575b505050811b01865561510b565b015160001960f88460031b161c191690558f808061514b565b8289015184558e978c979401939283019201615135565b6151b1908960005285600020600589808701821c8301938988106151b7575b01901c01906156cb565b8f6150d8565b935082936151a7565b89634e487b7160e01b60005260416004526000fd5b8360005287878460002092830192015b8281106151f3575050615064565b909192935061520281546154a6565b80615214575b500190878593926151e5565b601f9081811160011461522e575050600081555b8c615208565b615249600092848452898420920160051c82018583016156cb565b81835555615228565b60405162461bcd60e51b815260048101849052602960248201527f4f6e6c792063686f73656e2070726f76696465722063616e20636f6d706c657460448201526819481c995c5d595cdd60ba1b6064820152608490fd5b60405162461bcd60e51b815260048101849052602260248201527f526571756573742068617320616c7265616479206265656e20636f6d706c6574604482015261195960f21b6064820152608490fd5b6101a081019081106001600160401b0382111761162957604052565b61010081019081106001600160401b0382111761162957604052565b6103c081019081106001600160401b0382111761162957604052565b608081019081106001600160401b0382111761162957604052565b602081019081106001600160401b0382111761162957604052565b90601f801991011681019081106001600160401b0382111761162957604052565b6001600160401b0381116116295760051b60200190565b81601f820112156105c8578035906001600160401b03821161162957604051926153ef601f8401601f191660200185615383565b828452602083830101116105c857816000926020809301838601378301015290565b81601f820112156105c85780359160209161542b846153a4565b936154396040519586615383565b808552838086019160051b830101928084116105c857848301915b8483106154645750505050505090565b82356001600160401b0381116105c8578691615485848480948901016153bb565b815201920191615454565b60409060031901126105c8576004359060243590565b90600182811c921680156154d6575b60208310146154c057565b634e487b7160e01b600052602260045260246000fd5b91607f16916154b5565b906040519182600082546154f3816154a6565b908184526020946001916001811690816000146155635750600114615524575b50505061552292500383615383565b565b600090815285812095935091905b81831061554b5750506155229350820101388080615513565b85548884018501529485019487945091830191615532565b9250505061552294925060ff191682840152151560051b820101388080615513565b919082519283825260005b8481106155b1575050826000602080949584010152601f8019910116010190565b602081830181015184830182015201615590565b9060098210156105b25752565b90808251908181526020809101926020808460051b8301019501936000915b8483106156015750505050505090565b909192939495848061561f600193601f198682030187528a51615585565b98019301930191949392906155f1565b90815180825260208080930193019160005b82811061564f575050505090565b83516001600160a01b031685529381019392810192600101615641565b1561567357565b60405162461bcd60e51b815260206004820152601b60248201527f436f6d7075746174696f6e20646561646c696e652070617373656400000000006044820152606490fd5b81810292918115918404141715610bca57565b8181106156d6575050565b600081556001016156cb565b9060098110156105b25760ff80198354169116179055565b908160209103126105c8575180151581036105c85790565b1561571957565b60405162461bcd60e51b815260206004820152602560248201527f4572726f722077697468204d61726b65742e204661696c656420746f207472616044820152643739b332b960d91b6064820152608490fd5b91908201809211610bca57565b600081815260206001815260409081832060018060a01b0380825416918233036159c557600b810192835460ff81166159815783600f840154161561592e575050600881015442118061591f575b156158c5579181849392836157e9600a6158379896015460158301549061576c565b9360ff199060018282541617905560086014830191825416179055541687875180978195829463a9059cbb60e01b84526004840160209093929193604081019460018060a01b031681520152565b03927f0000000000000000000000000000000000000000000000000000000000000000165af19283156158bc57509161589b9184937fee243f878b7fc2f54e934ca33783d4395d42bc07612e2bd4b8e0e178639f7a28959261589f575b5050615712565b80a2565b6158b59250803d10610af357610ae48183615383565b3880615894565b513d85823e3d90fd5b845162461bcd60e51b815260048101859052602d60248201527f436f6d7075746174696f6e20646561646c696e6520686173206e6f742079657460448201526c081899595b881c995858da1959609a1b6064820152608490fd5b5060ff835460081c16156157c7565b60ff19908116600117909455601482018054909416600817909355600a0154845163a9059cbb60e01b81526001600160a01b03909316600484015260248301529091908190839081878160448101615837565b865162461bcd60e51b815260048101879052601960248201527f5265717565737420616c726561647920636f6d706c65746564000000000000006044820152606490fd5b845162461bcd60e51b8152600481018590526024808201527f4f6e6c792074686520636f6e73756d65722063616e2077697468647261772066604482015263756e647360e01b6064820152608490fd5b91908203918211610bca57565b15615a2957565b606460405162461bcd60e51b815260206004820152602060248201527f4572726f7220696e204d61726b65742e205472616e73666572206661696c65646044820152fd5b600081815260016020908152604080832060028352818420601382015485528352818420600a810154600c90910154929392141580615c12575b15615bbe579080826014615b3e940160ff19906007828254161790556001600b83019182541617905560018060a01b03615b0b81835416926017615b02615af7600184015460158501549061576c565b60028401549061576c565b91015490615a15565b865163a9059cbb60e01b81526001600160a01b039093166004840152602483015290938491908290889082906044820190565b03927f0000000000000000000000000000000000000000000000000000000000000000165af19283156158bc57509161589b9184937f6d55d799468c2d702d8ff65d462b4e8dbbc88c728431aee69b205a3964362f079592615ba1575050615a22565b615bb79250803d10610af357610ae48183615383565b3880612f67565b50608491519062461bcd60e51b82526004820152602860248201527f5265717565737420697320616c726561647920696e20756e7375636365737366604482015267756c20737461746560c01b6064820152fd5b5060ff6014820154166009811015615c2d5760071415615aa7565b634e487b7160e01b85526021600452602485fd5b15615c4857565b60405162461bcd60e51b81526020600482015260136024820152722cb7ba903234b2103737ba103a3934b3b3b2b960691b6044820152606490fd5b15615c8a57565b60405162461bcd60e51b8152602060048201526011602482015270105b1c9958591e481899595b881c185a59607a1b6044820152606490fd5b15615cca57565b60405162461bcd60e51b815260206004820152602160248201527f4572726f7220696e204d61726b65742e205061796d656e74206e6f742073656e6044820152601d60fa1b6064820152608490fd5b15615d2057565b60405162461bcd60e51b8152602060048201526012602482015271496e73756666696369656e74207374616b6560701b6044820152606490fd5b15615d6157565b60405162461bcd60e51b815260206004820152603d60248201527f4e6f7420656e6f7567682074696d6520746f20706572666f726d20726f756e6460448201527f206265666f726520766572696669636174696f6e20646561646c696e650000006064820152608490fd5b8054821015615de45760005260206000200190600090565b634e487b7160e01b600052603260045260246000fd5b90815491600160401b831015611629578261325391600161552295018155615dcc565b15615e2457565b60405162461bcd60e51b815260206004820152602d60248201527f596f7520617265206e6f74207468652063686f73656e2076657269666965722060448201526c1a5b881d1a1a5cc81c9bdd5b99609a1b6064820152608490fd5b81156135c0570490565b6000198114610bca5760010190565b908154615ea4816153a4565b92615eb26040519485615383565b818452600090815260208082208186015b848410615ed1575050505050565b6001838192615edf856154e0565b815201920193019290615ec3565b90604051918281549182825260209260208301916000526020600020936000905b828210615f245750505061552292500383615383565b85546001600160a01b031684526001958601958895509381019390910190615f0e565b6000818152600160209081526040808320600f8101546001600160a01b0316156160c057838251615f7781615368565b52600d81018054858255806160a8575b508452838251615f9681615368565b52600e8101805485825580616090575b50845260148101600260ff19825416179055601381018054906001820180921161607c579386937fb39ebde6d06658d2f25237a5031f2a70eadf752f8ecc1b74081c3768822f02729360a0937f2d4e685f9af8cf88fb3e3447f1ee8e4e5e68423a2c393dc8d6e9784aa67ddafa989755866019820155857f7cdb7f0bd04877caf5dda7a202130926cdd67ad312dada203661ff6d880684348460128401548551908152a2601681015491600982015490600460108401549301549381519533875286015284015260608301526080820152a280a2565b634e487b7160e01b86526011600452602486fd5b8186528486206160a2918101906156cb565b38615fa6565b8186528486206160ba918101906156cb565b38615f87565b815162461bcd60e51b815260048101849052602760248201527f4d61696e2070726f766964657220686173206e6f7420796574206265656e2073604482015266195b1958dd195960ca1b6064820152608490fdfea2646970667358221220ccc9a9d20b519188962c28d538cfbcd1dc02bdff1d61ee40cb3441a44883086864736f6c6343000817003360808060405234601457609f908161001a8239f35b600080fdfe6080806040526004361015601257600080fd5b600090813560e01c63765a4a7a14602857600080fd5b3460655760203660031901126065576004356001600160a01b038116908190036061576020929015605a575060018152f35b60ff168152f35b8280fd5b5080fdfea26469706673582212202542112b0b8065b18002e10ab19a6032e7cdd345a6203703bd9770e8277f625e64736f6c63430008170033","linkReferences":{}},"methodIdentifiers":{"applyForVerificationForRequest(uint256)":"6d8f9a0e","calculateMajorityAndReward(uint256,uint256)":"847ada57","cancelRequest(uint256)":"3015394c","chooseVerifiersForRequestTrigger(uint256)":"951c5ce2","compToken()":"6605dfa7","completeRequest(uint256,string[])":"0625f161","createRequest(uint256,uint256,uint256,uint256,string[],string,uint256,uint256,uint256,uint256,uint256,uint256,bytes32,uint256)":"e007657e","createRequestWithAllowedVerifiers(uint256,uint256,uint256,uint256,string[],string,uint256,uint256,uint256,uint256,uint256,uint256,bytes32,uint256,function)":"ba0ff7c3","getRequestDetails(uint256)":"f34d4c63","getRoundDetails(uint256,uint256)":"ddf3532c","getVerificationDetails(uint256,uint256,address)":"e819ff28","getVerifiersAppliedForRound(uint256,uint256)":"175f4c0c","getVerifiersChosenForRound(uint256,uint256)":"975026af","getVerifiersTriggeredForRound(uint256,uint256)":"0a39bf2c","getVoteCountForHashForRound(uint256,uint256,bytes32)":"e7b6c4ec","handlerFunctions()":"958a1a4b","providerFailure(uint256)":"3295845c","providerPrivateKeys(uint256,uint256)":"13f08bbf","providerSuccessCall(uint256)":"b10ceb59","requestCount()":"5badbe4c","requests(uint256)":"81d12c58","returnStake(uint256,uint256)":"38488abc","returnStakeDueToTimeout(uint256,uint256)":"e2e7cbe6","revealCommitment(uint256,bool,bytes32,bytes32)":"bfdb3451","revealProviderKeyAndHash(uint256,uint256,uint256,bytes32)":"253bd3e9","roundDetails(uint256,uint256)":"8ea49eca","selectRequest(uint256)":"e03ad0d1","submitCommitment(uint256,bytes32)":"e6a3d9dc","verificationDeadlinePassedForVeryfying(uint256,uint256)":"4beda221"},"id":1}