{"abi":[{"type":"constructor","inputs":[],"stateMutability":"nonpayable"},{"type":"function","name":"approve","inputs":[{"name":"to","type":"address","internalType":"address"},{"name":"tokenId","type":"uint256","internalType":"uint256"}],"outputs":[],"stateMutability":"nonpayable"},{"type":"function","name":"balanceOf","inputs":[{"name":"owner","type":"address","internalType":"address"}],"outputs":[{"name":"","type":"uint256","internalType":"uint256"}],"stateMutability":"view"},{"type":"function","name":"getApproved","inputs":[{"name":"tokenId","type":"uint256","internalType":"uint256"}],"outputs":[{"name":"","type":"address","internalType":"address"}],"stateMutability":"view"},{"type":"function","name":"isApprovedForAll","inputs":[{"name":"owner","type":"address","internalType":"address"},{"name":"operator","type":"address","internalType":"address"}],"outputs":[{"name":"","type":"bool","internalType":"bool"}],"stateMutability":"view"},{"type":"function","name":"mint","inputs":[{"name":"to","type":"address","internalType":"address"}],"outputs":[{"name":"","type":"uint256","internalType":"uint256"}],"stateMutability":"nonpayable"},{"type":"function","name":"name","inputs":[],"outputs":[{"name":"","type":"string","internalType":"string"}],"stateMutability":"view"},{"type":"function","name":"nextTokenId","inputs":[],"outputs":[{"name":"","type":"uint256","internalType":"uint256"}],"stateMutability":"view"},{"type":"function","name":"owner","inputs":[],"outputs":[{"name":"","type":"address","internalType":"address"}],"stateMutability":"view"},{"type":"function","name":"ownerOf","inputs":[{"name":"tokenId","type":"uint256","internalType":"uint256"}],"outputs":[{"name":"","type":"address","internalType":"address"}],"stateMutability":"view"},{"type":"function","name":"renounceOwnership","inputs":[],"outputs":[],"stateMutability":"nonpayable"},{"type":"function","name":"safeTransferFrom","inputs":[{"name":"from","type":"address","internalType":"address"},{"name":"to","type":"address","internalType":"address"},{"name":"tokenId","type":"uint256","internalType":"uint256"}],"outputs":[],"stateMutability":"nonpayable"},{"type":"function","name":"safeTransferFrom","inputs":[{"name":"from","type":"address","internalType":"address"},{"name":"to","type":"address","internalType":"address"},{"name":"tokenId","type":"uint256","internalType":"uint256"},{"name":"data","type":"bytes","internalType":"bytes"}],"outputs":[],"stateMutability":"nonpayable"},{"type":"function","name":"setApprovalForAll","inputs":[{"name":"operator","type":"address","internalType":"address"},{"name":"approved","type":"bool","internalType":"bool"}],"outputs":[],"stateMutability":"nonpayable"},{"type":"function","name":"supportsInterface","inputs":[{"name":"interfaceId","type":"bytes4","internalType":"bytes4"}],"outputs":[{"name":"","type":"bool","internalType":"bool"}],"stateMutability":"view"},{"type":"function","name":"symbol","inputs":[],"outputs":[{"name":"","type":"string","internalType":"string"}],"stateMutability":"view"},{"type":"function","name":"tokenURI","inputs":[{"name":"tokenId","type":"uint256","internalType":"uint256"}],"outputs":[{"name":"","type":"string","internalType":"string"}],"stateMutability":"view"},{"type":"function","name":"transferFrom","inputs":[{"name":"from","type":"address","internalType":"address"},{"name":"to","type":"address","internalType":"address"},{"name":"tokenId","type":"uint256","internalType":"uint256"}],"outputs":[],"stateMutability":"nonpayable"},{"type":"function","name":"transferNFTContractOwnership","inputs":[{"name":"newOwner","type":"address","internalType":"address"}],"outputs":[],"stateMutability":"nonpayable"},{"type":"function","name":"transferOwnership","inputs":[{"name":"newOwner","type":"address","internalType":"address"}],"outputs":[],"stateMutability":"nonpayable"},{"type":"event","name":"Approval","inputs":[{"name":"owner","type":"address","indexed":true,"internalType":"address"},{"name":"approved","type":"address","indexed":true,"internalType":"address"},{"name":"tokenId","type":"uint256","indexed":true,"internalType":"uint256"}],"anonymous":false},{"type":"event","name":"ApprovalForAll","inputs":[{"name":"owner","type":"address","indexed":true,"internalType":"address"},{"name":"operator","type":"address","indexed":true,"internalType":"address"},{"name":"approved","type":"bool","indexed":false,"internalType":"bool"}],"anonymous":false},{"type":"event","name":"OwnershipTransferred","inputs":[{"name":"previousOwner","type":"address","indexed":true,"internalType":"address"},{"name":"newOwner","type":"address","indexed":true,"internalType":"address"}],"anonymous":false},{"type":"event","name":"Transfer","inputs":[{"name":"from","type":"address","indexed":true,"internalType":"address"},{"name":"to","type":"address","indexed":true,"internalType":"address"},{"name":"tokenId","type":"uint256","indexed":true,"internalType":"uint256"}],"anonymous":false},{"type":"error","name":"ERC721IncorrectOwner","inputs":[{"name":"sender","type":"address","internalType":"address"},{"name":"tokenId","type":"uint256","internalType":"uint256"},{"name":"owner","type":"address","internalType":"address"}]},{"type":"error","name":"ERC721InsufficientApproval","inputs":[{"name":"operator","type":"address","internalType":"address"},{"name":"tokenId","type":"uint256","internalType":"uint256"}]},{"type":"error","name":"ERC721InvalidApprover","inputs":[{"name":"approver","type":"address","internalType":"address"}]},{"type":"error","name":"ERC721InvalidOperator","inputs":[{"name":"operator","type":"address","internalType":"address"}]},{"type":"error","name":"ERC721InvalidOwner","inputs":[{"name":"owner","type":"address","internalType":"address"}]},{"type":"error","name":"ERC721InvalidReceiver","inputs":[{"name":"receiver","type":"address","internalType":"address"}]},{"type":"error","name":"ERC721InvalidSender","inputs":[{"name":"sender","type":"address","internalType":"address"}]},{"type":"error","name":"ERC721NonexistentToken","inputs":[{"name":"tokenId","type":"uint256","internalType":"uint256"}]},{"type":"error","name":"OwnableInvalidOwner","inputs":[{"name":"owner","type":"address","internalType":"address"}]},{"type":"error","name":"OwnableUnauthorizedAccount","inputs":[{"name":"account","type":"address","internalType":"address"}]}],"bytecode":{"object":"0x608034620003975760406001600160401b038282018181118482101762000381578252600883526020926710d3d35417d3919560c21b8482015282519183830183811082821117620003815784526004928381526310d3919560e21b868201528251908282116200036c576000968754926001958685811c9516801562000361575b838610146200034e578190601f95868111620002fb575b50839086831160011462000297578b926200028b575b5050600019600383901b1c191690861b1788555b8151938411620002785784548581811c911680156200026d575b828210146200025a57908184869594931162000203575b50809284116001146200019b575087926200018f575b5050600019600383901b1c191690821b1790555b33156200017a575060068054336001600160a01b03198216811790925591519290916001600160a01b0316907f8be0079c531659141344cd1fd0a4f28419497f9722a3daafe3b4186f6b6457e09080a3610f7390816200039d8239f35b826024925191631e4fbdf760e01b8352820152fd5b01519050388062000109565b9190859450601f198416858a52838a20938a905b828210620001e95750508411620001cf575b505050811b0190556200011d565b015160001960f88460031b161c19169055388080620001c1565b8484015186558897909501949384019390810190620001af565b90919293508589528189208480870160051c82019284881062000250575b9187968992969594930160051c01915b82811062000241575050620000f3565b8b815587965088910162000231565b9250819262000221565b634e487b7160e01b895260228752602489fd5b90607f1690620000dc565b634e487b7160e01b885260418652602488fd5b015190503880620000ae565b8b8052848c208994509190601f1984168d5b87828210620002e45750508411620002ca575b505050811b018855620000c2565b015160001960f88460031b161c19169055388080620002bc565b8385015186558c97909501949384019301620002a9565b9091508a8052838b208680850160051c82019286861062000344575b918a91869594930160051c01915b8281106200033557505062000098565b8d81558594508a910162000325565b9250819262000317565b634e487b7160e01b8a526022885260248afd5b94607f169462000081565b604185634e487b7160e01b6000525260246000fd5b634e487b7160e01b600052604160045260246000fd5b600080fdfe6080604081815260048036101561001557600080fd5b600092833560e01c90816301ffc9a714610a285750806306fdde031461095b578063081812fc14610920578063095ea7b31461084457806323b872dd1461082c57806342842e0e146107fd5780636352211e146107cc5780636a6278421461056557806370a0823114610510578063715018a6146104b357806375794a3c146104945780638da5cb5b1461046b57806395d89b411461034e578063a22cb465146102ad578063b88d4fde1461021c578063c87b56dd146101c9578063e985e9c514610177578063f2fde38b146101545763fd8ff4ad146100f457600080fd5b346101505760203660031901126101505761010d610ad4565b91610116610d84565b61011e610d84565b6001600160a01b0383161561013a578361013784610db0565b80f35b51631e4fbdf760e01b8152908101839052602490fd5b8280fd5b50346101505760203660031901126101505761016e610ad4565b9161011e610d84565b5050346101c557806003193601126101c55760ff81602093610197610ad4565b61019f610aef565b6001600160a01b0391821683526005875283832091168252855220549151911615158152f35b5080fd5b509190346101c55760203660031901126101c5576101ea6102189335610d49565b508181516101f781610b3a565b5280519161020483610b3a565b825251918291602083526020830190610a94565b0390f35b50903461015057608036600319011261015057610237610ad4565b61023f610aef565b60443591856064359567ffffffffffffffff87116101c557366023880112156101c5578601359561027b61027288610b8e565b96519687610b6c565b86865236602488830101116101c557866101379760246020930183890137860101526102a8838383610baa565b610df9565b5090346101505780600319360112610150576102c7610ad4565b906024359182151580930361034a576001600160a01b03169283156103355750338452600560205280842083855260205280842060ff1981541660ff8416179055519081527f17307eab39ab6107e8899845ad3d59bd9653f200f220920489ca2b5937696c3160203392a380f35b836024925191630b61174360e31b8352820152fd5b8480fd5b50913461046857806003193601126104685781519181600192600154938460011c916001861695861561045e575b602096878510811461044b578899509688969785829a5291826000146104245750506001146103c8575b50505061021892916103b9910385610b6c565b51928284938452830190610a94565b9190869350600183527fb10e2d527612073b26eecdfd717e6a320cf44b4afac2b0732d9fcbe2b7fa0cf65b82841061040c57505050820101816103b96102186103a6565b8054848a0186015288955087949093019281016103f3565b60ff19168782015293151560051b860190930193508492506103b9915061021890506103a6565b634e487b7160e01b835260228a52602483fd5b92607f169261037c565b80fd5b5050346101c557816003193601126101c55760065490516001600160a01b039091168152602090f35b5050346101c557816003193601126101c5576020906007549051908152f35b83346104685780600319360112610468576104cc610d84565b600680546001600160a01b0319811690915581906001600160a01b03167f8be0079c531659141344cd1fd0a4f28419497f9722a3daafe3b4186f6b6457e08280a380f35b509134610468576020366003190112610468576001600160a01b03610533610ad4565b169283156105505750806020938392526003845220549051908152f35b91516322718ad960e21b815291820152602490fd5b509190346101c5576020928360031936011261015057610583610ad4565b9261058c610d84565b60075493835161059b81610b3a565b8281526001600160a01b03828116929083156107b55787855260028952868520541687848215159283610782575b81885260038c528988208054600101905582885260028c5289882080546001600160a01b031916831790557fddf252ad1be2c89b69c2b068fc378daa952ba7f163c4a11628f55a4df523b3ef8880a461076a573b610652575b505060075491600019831461063f57505060010160075551908152f35b634e487b7160e01b825260119052602490fd5b84939591945187818061068c630a85bd0160e11b95868352338c840152886024840152876044840152608060648401526084830190610a94565b0381878a5af184918161072a575b506106f8575050503d6000146106f0573d6106b481610b8e565b906106c184519283610b6c565b81528091863d92013e5b805194856106ea57505051633250574960e11b81529182015260249150fd5b85925001fd5b5060606106cb565b91959394916001600160e01b0319160361071457503880610622565b90506024925191633250574960e11b8352820152fd5b9091508881813d8311610763575b6107428183610b6c565b8101031261034a57516001600160e01b03198116810361034a57903861069a565b503d610738565b505092516339e3563760e11b81529182015260249150fd5b600083815260046020526040902080546001600160a01b031916905580885260038c5289882080546000190190556105c9565b8651633250574960e11b8152808701869052602490fd5b50913461046857602036600319011261046857506107ec60209235610d49565b90516001600160a01b039091168152f35b5050346101c5576101379061081136610b05565b9192519261081e84610b3a565b8584526102a8838383610baa565b83346104685761013761083e36610b05565b91610baa565b50903461015057806003193601126101505761085e610ad4565b9160243561086b81610d49565b3315158061090d575b806108e4575b6108ce576001600160a01b039485169482918691167f8c5be1e5ebec7d5bd14f71427d1e84f3dd0314c0f7b2291e5b200ac8c7c3b9258880a48452602052822080546001600160a01b031916909117905580f35b835163a9fbf51f60e01b81523381850152602490fd5b506001600160a01b03811686526005602090815284872033885290528386205460ff161561087a565b506001600160a01b038116331415610874565b50346101505760203660031901126101505791826020933561094181610d49565b50825283528190205490516001600160a01b039091168152f35b5091346104685780600319360112610468578151918182549260018460011c9160018616958615610a1e575b602096878510811461044b578899509688969785829a5291826000146104245750506001146109c35750505061021892916103b9910385610b6c565b91908693508280527f290decd9548b62a8d60345a988386fc84ba6bc95484008f6362f93160ef3e5635b828410610a0657505050820101816103b96102186103a6565b8054848a0186015288955087949093019281016109ed565b92607f1692610987565b92505034610150576020366003190112610150573563ffffffff60e01b811680910361015057602092506380ac58cd60e01b8114908115610a83575b8115610a72575b5015158152f35b6301ffc9a760e01b14905038610a6b565b635b5e139f60e01b81149150610a64565b919082519283825260005b848110610ac0575050826000602080949584010152601f8019910116010190565b602081830181015184830182015201610a9f565b600435906001600160a01b0382168203610aea57565b600080fd5b602435906001600160a01b0382168203610aea57565b6060906003190112610aea576001600160a01b03906004358281168103610aea57916024359081168103610aea579060443590565b6020810190811067ffffffffffffffff821117610b5657604052565b634e487b7160e01b600052604160045260246000fd5b90601f8019910116810190811067ffffffffffffffff821117610b5657604052565b67ffffffffffffffff8111610b5657601f01601f191660200190565b6001600160a01b039182169290918315610d3057600092828452826020956002875260409684888820541696879133151580610c9a575b509060027fddf252ad1be2c89b69c2b068fc378daa952ba7f163c4a11628f55a4df523b3ef9284610c67575b858352600381528b8320805460010190558683525289812080546001600160a01b0319168517905580a41692838303610c465750505050565b6064945051926364283d7b60e01b8452600484015260248301526044820152fd5b600087815260046020526040902080546001600160a01b0319169055848352600381528b83208054600019019055610c0d565b91939450915080610cef575b15610cb657859291879138610be1565b878688610cd3576024915190637e27328960e01b82526004820152fd5b604491519063177e802f60e01b82523360048301526024820152fd5b503387148015610d14575b80610ca65750858252600481523385898420541614610ca6565b5086825260058152878220338352815260ff8883205416610cfa565b604051633250574960e11b815260006004820152602490fd5b6000818152600260205260409020546001600160a01b0316908115610d6c575090565b60249060405190637e27328960e01b82526004820152fd5b6006546001600160a01b03163303610d9857565b60405163118cdaa760e01b8152336004820152602490fd5b600680546001600160a01b039283166001600160a01b0319821681179092559091167f8be0079c531659141344cd1fd0a4f28419497f9722a3daafe3b4186f6b6457e0600080a3565b813b610e06575b50505050565b604051630a85bd0160e11b8082523360048301526001600160a01b03928316602483015260448201949094526080606482015260209592909116939092908390610e54906084830190610a94565b039285816000958187895af1849181610efd575b50610ec8575050503d600014610ec0573d610e8281610b8e565b90610e906040519283610b6c565b81528091843d92013e5b80519283610ebb57604051633250574960e11b815260048101849052602490fd5b019050fd5b506060610e9a565b919450915063ffffffff60e01b1603610ee5575038808080610e00565b60249060405190633250574960e11b82526004820152fd5b9091508681813d8311610f36575b610f158183610b6c565b8101031261034a57516001600160e01b03198116810361034a579038610e68565b503d610f0b56fea26469706673582212200a140cfdd5d05d8339f345dba47422e8a62812eff767886f3ec696a83a35c4cc64736f6c63430008170033","linkReferences":{}},"methodIdentifiers":{"approve(address,uint256)":"095ea7b3","balanceOf(address)":"70a08231","getApproved(uint256)":"081812fc","isApprovedForAll(address,address)":"e985e9c5","mint(address)":"6a627842","name()":"06fdde03","nextTokenId()":"75794a3c","owner()":"8da5cb5b","ownerOf(uint256)":"6352211e","renounceOwnership()":"715018a6","safeTransferFrom(address,address,uint256)":"42842e0e","safeTransferFrom(address,address,uint256,bytes)":"b88d4fde","setApprovalForAll(address,bool)":"a22cb465","supportsInterface(bytes4)":"01ffc9a7","symbol()":"95d89b41","tokenURI(uint256)":"c87b56dd","transferFrom(address,address,uint256)":"23b872dd","transferNFTContractOwnership(address)":"fd8ff4ad","transferOwnership(address)":"f2fde38b"},"id":1}