{"abi":[{"type":"constructor","inputs":[{"name":"compTokenAddress","type":"address","internalType":"address"}],"stateMutability":"nonpayable"},{"type":"function","name":"MIN_VERIFIERS","inputs":[],"outputs":[{"name":"","type":"uint256","internalType":"uint256"}],"stateMutability":"view"},{"type":"function","name":"NFTRequestID","inputs":[{"name":"","type":"uint256","internalType":"uint256"}],"outputs":[{"name":"","type":"uint256","internalType":"uint256"}],"stateMutability":"view"},{"type":"function","name":"applyForVerificationForRequest","inputs":[{"name":"requestId","type":"uint256","internalType":"uint256"}],"outputs":[],"stateMutability":"nonpayable"},{"type":"function","name":"calculateMajorityAndReward","inputs":[{"name":"requestId","type":"uint256","internalType":"uint256"},{"name":"roundNum","type":"uint256","internalType":"uint256"}],"outputs":[],"stateMutability":"nonpayable"},{"type":"function","name":"cancelRequest","inputs":[{"name":"requestId","type":"uint256","internalType":"uint256"}],"outputs":[],"stateMutability":"nonpayable"},{"type":"function","name":"chooseVerifiersForRequestTrigger","inputs":[{"name":"requestId","type":"uint256","internalType":"uint256"}],"outputs":[],"stateMutability":"nonpayable"},{"type":"function","name":"compNFT","inputs":[],"outputs":[{"name":"","type":"address","internalType":"contract CompNFT"}],"stateMutability":"view"},{"type":"function","name":"compToken","inputs":[],"outputs":[{"name":"","type":"address","internalType":"contract IERC20"}],"stateMutability":"view"},{"type":"function","name":"completeRequest","inputs":[{"name":"requestId","type":"uint256","internalType":"uint256"},{"name":"outputFileURLs","type":"string[]","internalType":"string[]"}],"outputs":[],"stateMutability":"nonpayable"},{"type":"function","name":"createRequest","inputs":[{"name":"paymentForProvider","type":"uint256","internalType":"uint256"},{"name":"paymentPerRoundForVerifiers","type":"uint256","internalType":"uint256"},{"name":"numOperations","type":"uint256","internalType":"uint256"},{"name":"numVerifiers","type":"uint256","internalType":"uint256"},{"name":"inputFileURLs","type":"string[]","internalType":"string[]"},{"name":"operationFileURL","type":"string","internalType":"string"},{"name":"computationDeadline","type":"uint256","internalType":"uint256"},{"name":"verificationDeadline","type":"uint256","internalType":"uint256"},{"name":"timeAllocatedForVerification","type":"uint256","internalType":"uint256"},{"name":"numVerifiersSampleSize","type":"uint256","internalType":"uint256"},{"name":"protocolVersion","type":"uint256","internalType":"uint256"},{"name":"layerSize","type":"uint256","internalType":"uint256"},{"name":"hashOfInputFiles","type":"bytes32","internalType":"bytes32"},{"name":"stake","type":"uint256","internalType":"uint256"}],"outputs":[],"stateMutability":"nonpayable"},{"type":"function","name":"getRequestDetails","inputs":[{"name":"requestId","type":"uint256","internalType":"uint256"}],"outputs":[{"name":"","type":"tuple","internalType":"struct ComputationMarket.Request","components":[{"name":"consumer","type":"address","internalType":"address"},{"name":"paymentForProvider","type":"uint256","internalType":"uint256"},{"name":"totalPaymentForVerifiers","type":"uint256","internalType":"uint256"},{"name":"numOperations","type":"uint256","internalType":"uint256"},{"name":"numVerifiers","type":"uint256","internalType":"uint256"},{"name":"inputFileURLs","type":"string[]","internalType":"string[]"},{"name":"operationFileURL","type":"string","internalType":"string"},{"name":"outputFileURLs","type":"string[]","internalType":"string[]"},{"name":"computationDeadline","type":"uint256","internalType":"uint256"},{"name":"verificationDeadline","type":"uint256","internalType":"uint256"},{"name":"totalPayment","type":"uint256","internalType":"uint256"},{"name":"completed","type":"bool","internalType":"bool"},{"name":"hasBeenComputed","type":"bool","internalType":"bool"},{"name":"numVerifiersSampleSize","type":"uint256","internalType":"uint256"},{"name":"verifiers","type":"address[]","internalType":"address[]"},{"name":"chosenVerifiers","type":"address[]","internalType":"address[]"},{"name":"mainProvider","type":"address","internalType":"address"},{"name":"timeAllocatedForVerification","type":"uint256","internalType":"uint256"},{"name":"layerCount","type":"uint256","internalType":"uint256"},{"name":"layerComputeIndex","type":"uint256","internalType":"uint256"},{"name":"roundIndex","type":"uint256","internalType":"uint256"},{"name":"state","type":"uint8","internalType":"enum ComputationMarket.RequestStates"},{"name":"stake","type":"uint256","internalType":"uint256"},{"name":"paymentPerRoundForVerifiers","type":"uint256","internalType":"uint256"},{"name":"totalPaidForVerification","type":"uint256","internalType":"uint256"},{"name":"protocolVersion","type":"uint256","internalType":"uint256"},{"name":"verifierSelectionCount","type":"uint256","internalType":"uint256"},{"name":"firstinitialisedTime","type":"uint256","internalType":"uint256"},{"name":"layerSize","type":"uint256","internalType":"uint256"},{"name":"hashOfInputFiles","type":"bytes32","internalType":"bytes32"}]}],"stateMutability":"view"},{"type":"function","name":"getRoundDetails","inputs":[{"name":"requestId","type":"uint256","internalType":"uint256"},{"name":"roundIndex","type":"uint256","internalType":"uint256"}],"outputs":[{"name":"","type":"tuple","internalType":"struct ComputationMarket.RoundDetailsOutput","components":[{"name":"roundIndex","type":"uint256","internalType":"uint256"},{"name":"layerComputeIndex","type":"uint256","internalType":"uint256"},{"name":"verificationStartTime","type":"uint256","internalType":"uint256"},{"name":"commitEndTime","type":"uint256","internalType":"uint256"},{"name":"providerRevealEndTime","type":"uint256","internalType":"uint256"},{"name":"commitmentRevealEndTime","type":"uint256","internalType":"uint256"},{"name":"majorityVoteHash","type":"bytes32","internalType":"bytes32"},{"name":"majorityCount","type":"uint256","internalType":"uint256"},{"name":"mainProviderAnswerHash","type":"bytes32","internalType":"bytes32"},{"name":"commitsSubmitted","type":"uint256","internalType":"uint256"},{"name":"commitsRevealed","type":"uint256","internalType":"uint256"},{"name":"providerPrivateKey","type":"uint256","internalType":"uint256"},{"name":"providerInitialisationVector","type":"uint256","internalType":"uint256"}]}],"stateMutability":"view"},{"type":"function","name":"getVerificationDetails","inputs":[{"name":"requestId","type":"uint256","internalType":"uint256"},{"name":"roundNum","type":"uint256","internalType":"uint256"},{"name":"verifier","type":"address","internalType":"address"}],"outputs":[{"name":"","type":"tuple","internalType":"struct ComputationMarket.Verification","components":[{"name":"verifier","type":"address","internalType":"address"},{"name":"agree","type":"bool","internalType":"bool"},{"name":"answer","type":"bytes32","internalType":"bytes32"},{"name":"nonce","type":"bytes32","internalType":"bytes32"},{"name":"revealed","type":"bool","internalType":"bool"},{"name":"computedHash","type":"bytes32","internalType":"bytes32"},{"name":"voteHash","type":"bytes32","internalType":"bytes32"},{"name":"verifierPaid","type":"bool","internalType":"bool"}]}],"stateMutability":"view"},{"type":"function","name":"getVerifiersAppliedForRound","inputs":[{"name":"requestId","type":"uint256","internalType":"uint256"},{"name":"roundIndex","type":"uint256","internalType":"uint256"}],"outputs":[{"name":"","type":"bool","internalType":"bool"}],"stateMutability":"view"},{"type":"function","name":"getVerifiersChosenForRound","inputs":[{"name":"requestId","type":"uint256","internalType":"uint256"},{"name":"roundIndex","type":"uint256","internalType":"uint256"}],"outputs":[{"name":"","type":"bool","internalType":"bool"}],"stateMutability":"view"},{"type":"function","name":"getVerifiersTriggeredForRound","inputs":[{"name":"requestId","type":"uint256","internalType":"uint256"},{"name":"roundIndex","type":"uint256","internalType":"uint256"}],"outputs":[{"name":"","type":"bool","internalType":"bool"}],"stateMutability":"view"},{"type":"function","name":"getVoteCountForHashForRound","inputs":[{"name":"requestId","type":"uint256","internalType":"uint256"},{"name":"roundIndex","type":"uint256","internalType":"uint256"},{"name":"voteHash","type":"bytes32","internalType":"bytes32"}],"outputs":[{"name":"","type":"uint256","internalType":"uint256"}],"stateMutability":"view"},{"type":"function","name":"providerFailure","inputs":[{"name":"requestId","type":"uint256","internalType":"uint256"}],"outputs":[],"stateMutability":"nonpayable"},{"type":"function","name":"providerNFTs","inputs":[{"name":"","type":"uint256","internalType":"uint256"}],"outputs":[{"name":"compNFT_id","type":"uint256","internalType":"uint256"},{"name":"amountToPay","type":"uint256","internalType":"uint256"},{"name":"requestID","type":"uint256","internalType":"uint256"},{"name":"originalProvider","type":"address","internalType":"address"},{"name":"hasBeenPaid","type":"bool","internalType":"bool"}],"stateMutability":"view"},{"type":"function","name":"providerPrivateKeys","inputs":[{"name":"","type":"uint256","internalType":"uint256"},{"name":"","type":"uint256","internalType":"uint256"}],"outputs":[{"name":"","type":"bool","internalType":"bool"}],"stateMutability":"view"},{"type":"function","name":"providerSuccessCall","inputs":[{"name":"requestId","type":"uint256","internalType":"uint256"}],"outputs":[],"stateMutability":"nonpayable"},{"type":"function","name":"requestCount","inputs":[],"outputs":[{"name":"","type":"uint256","internalType":"uint256"}],"stateMutability":"view"},{"type":"function","name":"requests","inputs":[{"name":"","type":"uint256","internalType":"uint256"}],"outputs":[{"name":"consumer","type":"address","internalType":"address"},{"name":"paymentForProvider","type":"uint256","internalType":"uint256"},{"name":"totalPaymentForVerifiers","type":"uint256","internalType":"uint256"},{"name":"numOperations","type":"uint256","internalType":"uint256"},{"name":"numVerifiers","type":"uint256","internalType":"uint256"},{"name":"operationFileURL","type":"string","internalType":"string"},{"name":"computationDeadline","type":"uint256","internalType":"uint256"},{"name":"verificationDeadline","type":"uint256","internalType":"uint256"},{"name":"totalPayment","type":"uint256","internalType":"uint256"},{"name":"completed","type":"bool","internalType":"bool"},{"name":"hasBeenComputed","type":"bool","internalType":"bool"},{"name":"numVerifiersSampleSize","type":"uint256","internalType":"uint256"},{"name":"mainProvider","type":"address","internalType":"address"},{"name":"timeAllocatedForVerification","type":"uint256","internalType":"uint256"},{"name":"layerCount","type":"uint256","internalType":"uint256"},{"name":"layerComputeIndex","type":"uint256","internalType":"uint256"},{"name":"roundIndex","type":"uint256","internalType":"uint256"},{"name":"state","type":"uint8","internalType":"enum ComputationMarket.RequestStates"},{"name":"stake","type":"uint256","internalType":"uint256"},{"name":"paymentPerRoundForVerifiers","type":"uint256","internalType":"uint256"},{"name":"totalPaidForVerification","type":"uint256","internalType":"uint256"},{"name":"protocolVersion","type":"uint256","internalType":"uint256"},{"name":"verifierSelectionCount","type":"uint256","internalType":"uint256"},{"name":"firstinitialisedTime","type":"uint256","internalType":"uint256"},{"name":"layerSize","type":"uint256","internalType":"uint256"},{"name":"hashOfInputFiles","type":"bytes32","internalType":"bytes32"}],"stateMutability":"view"},{"type":"function","name":"returnStake","inputs":[{"name":"requestId","type":"uint256","internalType":"uint256"},{"name":"roundNum","type":"uint256","internalType":"uint256"}],"outputs":[],"stateMutability":"nonpayable"},{"type":"function","name":"returnStakeDueToTimeout","inputs":[{"name":"requestId","type":"uint256","internalType":"uint256"},{"name":"roundNum","type":"uint256","internalType":"uint256"}],"outputs":[],"stateMutability":"nonpayable"},{"type":"function","name":"revealCommitment","inputs":[{"name":"requestId","type":"uint256","internalType":"uint256"},{"name":"agree","type":"bool","internalType":"bool"},{"name":"answer","type":"bytes32","internalType":"bytes32"},{"name":"nonce","type":"bytes32","internalType":"bytes32"}],"outputs":[],"stateMutability":"nonpayable"},{"type":"function","name":"revealProviderKeyAndHash","inputs":[{"name":"requestId","type":"uint256","internalType":"uint256"},{"name":"privateKey","type":"uint256","internalType":"uint256"},{"name":"initialisationVector","type":"uint256","internalType":"uint256"},{"name":"answerHash","type":"bytes32","internalType":"bytes32"}],"outputs":[],"stateMutability":"nonpayable"},{"type":"function","name":"roundDetails","inputs":[{"name":"","type":"uint256","internalType":"uint256"},{"name":"","type":"uint256","internalType":"uint256"}],"outputs":[{"name":"roundIndex","type":"uint256","internalType":"uint256"},{"name":"layerComputeIndex","type":"uint256","internalType":"uint256"},{"name":"verificationStartTime","type":"uint256","internalType":"uint256"},{"name":"commitEndTime","type":"uint256","internalType":"uint256"},{"name":"providerRevealEndTime","type":"uint256","internalType":"uint256"},{"name":"commitmentRevealEndTime","type":"uint256","internalType":"uint256"},{"name":"majorityVoteHash","type":"bytes32","internalType":"bytes32"},{"name":"majorityCount","type":"uint256","internalType":"uint256"},{"name":"mainProviderAnswerHash","type":"bytes32","internalType":"bytes32"},{"name":"commitsSubmitted","type":"uint256","internalType":"uint256"},{"name":"commitsRevealed","type":"uint256","internalType":"uint256"},{"name":"providerPrivateKey","type":"uint256","internalType":"uint256"},{"name":"providerInitialisationVector","type":"uint256","internalType":"uint256"}],"stateMutability":"view"},{"type":"function","name":"selectRequest","inputs":[{"name":"requestId","type":"uint256","internalType":"uint256"}],"outputs":[],"stateMutability":"nonpayable"},{"type":"function","name":"submitCommitment","inputs":[{"name":"requestId","type":"uint256","internalType":"uint256"},{"name":"computedHash","type":"bytes32","internalType":"bytes32"}],"outputs":[],"stateMutability":"nonpayable"},{"type":"function","name":"verificationDeadlinePassedForVeryfying","inputs":[{"name":"requestId","type":"uint256","internalType":"uint256"},{"name":"roundNum","type":"uint256","internalType":"uint256"}],"outputs":[],"stateMutability":"nonpayable"},{"type":"event","name":"AlertVerifiers","inputs":[{"name":"requestId","type":"uint256","indexed":true,"internalType":"uint256"},{"name":"provider","type":"address","indexed":false,"internalType":"address"},{"name":"verificationPrice","type":"uint256","indexed":false,"internalType":"uint256"},{"name":"verificationDeadline","type":"uint256","indexed":false,"internalType":"uint256"},{"name":"timeAllocatedForVerification","type":"uint256","indexed":false,"internalType":"uint256"},{"name":"numVerifiers","type":"uint256","indexed":false,"internalType":"uint256"}],"anonymous":false},{"type":"event","name":"AllCommitmentsRevealed","inputs":[{"name":"indexedrequestId","type":"uint256","indexed":false,"internalType":"uint256"},{"name":"roundNum","type":"uint256","indexed":true,"internalType":"uint256"}],"anonymous":false},{"type":"event","name":"CommitmentPhaseStarted","inputs":[{"name":"requestId","type":"uint256","indexed":true,"internalType":"uint256"},{"name":"startTime","type":"uint256","indexed":false,"internalType":"uint256"},{"name":"endTime","type":"uint256","indexed":false,"internalType":"uint256"},{"name":"layerComputeIndex","type":"uint256","indexed":false,"internalType":"uint256"}],"anonymous":false},{"type":"event","name":"CommitmentSubmitted","inputs":[{"name":"requestId","type":"uint256","indexed":true,"internalType":"uint256"},{"name":"verifier","type":"address","indexed":true,"internalType":"address"}],"anonymous":false},{"type":"event","name":"NoMajorityForRound","inputs":[{"name":"requestId","type":"uint256","indexed":true,"internalType":"uint256"},{"name":"layerComputeIndex","type":"uint256","indexed":false,"internalType":"uint256"}],"anonymous":false},{"type":"event","name":"ProviderResultSuccessfullyVerified","inputs":[{"name":"requestId","type":"uint256","indexed":true,"internalType":"uint256"}],"anonymous":false},{"type":"event","name":"ProviderResultUnsuccessful","inputs":[{"name":"requestId","type":"uint256","indexed":true,"internalType":"uint256"}],"anonymous":false},{"type":"event","name":"ProviderRevealed","inputs":[{"name":"requestId","type":"uint256","indexed":true,"internalType":"uint256"},{"name":"privateKey","type":"uint256","indexed":false,"internalType":"uint256"},{"name":"initialisationVector","type":"uint256","indexed":false,"internalType":"uint256"},{"name":"answerHash","type":"bytes32","indexed":false,"internalType":"bytes32"}],"anonymous":false},{"type":"event","name":"ProviderSelected","inputs":[{"name":"requestId","type":"uint256","indexed":true,"internalType":"uint256"},{"name":"provider","type":"address","indexed":true,"internalType":"address"}],"anonymous":false},{"type":"event","name":"ProviderSlashed","inputs":[{"name":"requestId","type":"uint256","indexed":true,"internalType":"uint256"},{"name":"provider","type":"address","indexed":true,"internalType":"address"}],"anonymous":false},{"type":"event","name":"RequestCancelled","inputs":[{"name":"requestId","type":"uint256","indexed":true,"internalType":"uint256"}],"anonymous":false},{"type":"event","name":"RequestCompletedByProvider","inputs":[{"name":"requestId","type":"uint256","indexed":true,"internalType":"uint256"},{"name":"provider","type":"address","indexed":true,"internalType":"address"}],"anonymous":false},{"type":"event","name":"RequestCreated","inputs":[{"name":"requestId","type":"uint256","indexed":true,"internalType":"uint256"},{"name":"consumer","type":"address","indexed":true,"internalType":"address"}],"anonymous":false},{"type":"event","name":"RevealCommitmentFailed","inputs":[{"name":"requestId","type":"uint256","indexed":false,"internalType":"uint256"},{"name":"newHashComputed","type":"bytes32","indexed":false,"internalType":"bytes32"},{"name":"oldHashComputed","type":"bytes32","indexed":false,"internalType":"bytes32"}],"anonymous":false},{"type":"event","name":"RevealVerificationDetails","inputs":[{"name":"requestId","type":"uint256","indexed":true,"internalType":"uint256"},{"name":"endTime","type":"uint256","indexed":false,"internalType":"uint256"},{"name":"verifier","type":"address","indexed":true,"internalType":"address"}],"anonymous":false},{"type":"event","name":"RoundInitialised","inputs":[{"name":"requestId","type":"uint256","indexed":true,"internalType":"uint256"}],"anonymous":false},{"type":"event","name":"RoundRevealStarted","inputs":[{"name":"requestId","type":"uint256","indexed":true,"internalType":"uint256"}],"anonymous":false},{"type":"event","name":"RoundStartedForVerificationSelection","inputs":[{"name":"requestId","type":"uint256","indexed":true,"internalType":"uint256"},{"name":"layerComputeIndex","type":"uint256","indexed":false,"internalType":"uint256"}],"anonymous":false},{"type":"event","name":"VerificationApplied","inputs":[{"name":"requestId","type":"uint256","indexed":true,"internalType":"uint256"},{"name":"verifier","type":"address","indexed":true,"internalType":"address"},{"name":"layerComputeIndex","type":"uint256","indexed":true,"internalType":"uint256"}],"anonymous":false},{"type":"event","name":"VerificationSelectionStarted","inputs":[{"name":"requestId","type":"uint256","indexed":true,"internalType":"uint256"},{"name":"layerComputeIndex","type":"uint256","indexed":false,"internalType":"uint256"}],"anonymous":false},{"type":"event","name":"VerifierChosen","inputs":[{"name":"requestId","type":"uint256","indexed":true,"internalType":"uint256"},{"name":"verifier","type":"address","indexed":true,"internalType":"address"},{"name":"layerComputeIndex","type":"uint256","indexed":true,"internalType":"uint256"},{"name":"verifierIndex","type":"uint256","indexed":false,"internalType":"uint256"}],"anonymous":false},{"type":"event","name":"VerifierUnchosen","inputs":[{"name":"requestId","type":"uint256","indexed":true,"internalType":"uint256"},{"name":"verifier","type":"address","indexed":true,"internalType":"address"},{"name":"layerComputeIndex","type":"uint256","indexed":true,"internalType":"uint256"},{"name":"verifierIndex","type":"uint256","indexed":false,"internalType":"uint256"}],"anonymous":false},{"type":"event","name":"VoteSubmitted","inputs":[{"name":"requestId","type":"uint256","indexed":true,"internalType":"uint256"},{"name":"verifier","type":"address","indexed":true,"internalType":"address"},{"name":"agree","type":"bool","indexed":false,"internalType":"bool"}],"anonymous":false}],"bytecode":{"object":"0x60803462000125576001600160401b0390601f620069b038819003918201601f1916830191848311848410176200012a578084926020946040528339810103126200012557516001600160a01b03908181169081900362000125578015620000e057600080546001600160a01b0319908116909217815560405191939091906112ce80830191821183831017620000cc57908291620056e28339039082f0908115620000c05750169060015416176001556040516155a19081620001418239f35b604051903d90823e3d90fd5b634e487b7160e01b84526041600452602484fd5b60405162461bcd60e51b815260206004820152601560248201527f496e76616c696420746f6b656e206164647265737300000000000000000000006044820152606490fd5b600080fd5b634e487b7160e01b600052604160045260246000fdfe610240604052600436101561001357600080fd5b60003560e01c80630625f1611461455c5780630a39bf2c1461451557806313f08bbf146144dd578063175f4c0c14614496578063253bd3e91461416957806328dde62e1461413d5780632d37463d146141145780633015394c146140f85780633295845c146140dc57806338488abc14613f9c5780634beda22114613d8557806353e2ba1714613d695780635badbe4c14613d4b5780636605dfa714613d225780636d8f9a0e1461383d57806381d12c58146135e8578063847ada5714612eaf5780638ea49eca14612df3578063951c5ce21461265f578063975026af14612618578063b10ceb59146123fa578063bfdb345114611f24578063d42c671214611ec2578063ddf3532c14611d1b578063e007657e14610f66578063e03ad0d114610c1f578063e2e7cbe614610976578063e6a3d9dc1461076a578063e7b6c4ec14610722578063e819ff28146105e35763f34d4c631461017257600080fd5b346105de5760203660031901126105de5760006103a0604051610194816148bb565b828152826020820152826040820152826060820152826080820152606060a0820152606060c0820152606060e08201528261010082015282610120820152826101408201528261016082015282610180820152826101a082015260606101c082015260606101e08201528261020082015282610220820152826102408201528261026082015282610280820152826102a0820152826102c0820152826102e0820152826103008201528261032082015282610340820152826103608201528261038082015201526004356000526005602052604060002060405190610278826148bb565b80546001600160a01b03168252600181015460208301526002810154604083015260038101546060830152600481015460808301526102b9600582016152ef565b60a08301526102ca60068201614a86565b60c08301526102db600782016152ef565b60e083015260088101546101008301526009810154610120830152600a81015461014083015260ff600b820154818116151561016085015260081c161515610180830152600c8101546101a0830152610336600d8201615344565b6101c0830152610348600e8201615344565b6101e0830152600f8101546001600160a01b03166102008301526010810154610220830152601181015461024083015260128101546102608301526013810154610280830152601481015460ff169060098210156105c857601c916102a084015260158101546102c084015260168101546102e0840152601781015461030084015260188101546103208401526019810154610340840152601a810154610360840152601b81015461038084015201546103a082015260405180916020825260018060a01b038151166020830152602081015160408301526040810151606083015260608101516080830152608081015160a08301526103a06105116104f961049561047e61046860a08701516103c060c08a01526103e0890190614b78565b60c0870151888203601f190160e08a0152614b2b565b60e0860151878203601f1901610100890152614b78565b610100850151610120870152610120850151610140870152610140850151610160870152610160850151151561018087015261018085015115156101a08701526101a08501516101c08701526101c0850151601f19878303016101e0880152614bd5565b6101e0840151858203601f1901610200870152614bd5565b9160018060a01b03610200820151166102208501526102208101516102408501526102408101516102608501526102608101516102808501526102808101516102a085015261056a6102a08201516102c0860190614b6b565b6102c08101516102e08501526102e08101516103008501526103008101516103208501526103208101516103408501526103408101516103608501526103608101516103808501526103808101518285015201516103c08301520390f35b634e487b7160e01b600052602160045260246000fd5b600080fd5b346105de5760603660031901126105de576001600160a01b03604435818116908190036105de57610100916040519161061b836148d7565b60008352600060e060209482868201528260408201528260608201528260808201528260a08201528260c082015201526004356000526007835260406000206024356000528352604060002090600052825260406000206040519161067f836148d7565b81549081169384845260ff8185019260a01c16151582526001830154604085019081526002840154906060860191825260ff6003860154169260808701931515845260048601549460a0880195865260e060ff600660058a01549960c08c019a8b52015416980197151588526040519889525115159088015251604087015251606086015251151560808501525160a08401525160c083015251151560e0820152f35b346105de5760603660031901126105de576004356000526006602052604060002060243560005260205260406000206044356000526020526020604060002054604051908152f35b346105de5760403660031901126105de5760043580600052602060058152604060002060078252604060002091601382019081549384600052815260406000203360005281526040600020601484019460ff86541660098110156105c857600303610925578660005260068352604060002081600052835260076040600020015442116108e75786600052600683526040600020816000528352600360406000200133600052835261082360ff60406000205416615255565b86600052600683526040600020906000528252600160406000200133600052825261085560ff604060002054166150cf565b60046024359101558460005260068152604060002082546000528152600d60406000200161088381546152c1565b905584600052600681526040600020915460005252600c600d60406000200154910154146108d6575b5033907f22d30f6da93667100b64d15e5ea70afec217caeab1008706f57bfa4deed12c63600080a3005b805460ff19166004179055816108ac565b60405162461bcd60e51b815260048101849052601660248201527510dbdb5b5a5d1b595b9d081c1a185cd948195b99195960521b6044820152606490fd5b60405162461bcd60e51b815260048101849052602360248201527f52657175657374206e6f742079657420696e20636f6d6d69746d656e7420737460448201526261746560e81b6064820152608490fd5b346105de5761098436614a36565b81600052602091600583526040600020600684526040600020836000528452600260406000200133600052845260ff6040600020541615610bca576009810154601082015480600302906003820403610bb4576109e19042614ca0565b1115610b495760ff60148201541660098110156105c857600203610af05783610a7260009284845260078352604084208685528352604084203385528352610a3360ff60066040872001541615615111565b83546016919091015460405163a9059cbb60e01b815233600482015260248101919091529384926001600160a01b039092169183919082906044820190565b03925af18015610ae457610ab7575b5060005260078252604060002090600052815260406000209033600052526006604060002001600160ff19825416179055600080f35b610ad690843d8611610add575b610ace8183614929565b810190614c88565b5083610a81565b503d610ac4565b6040513d6000823e3d90fd5b60405162461bcd60e51b815260048101859052602b60248201527f52657175657374204d75737420626520696e2063686f6f73696e67207665726960448201526a666965727320737461746560a81b6064820152608490fd5b60405162461bcd60e51b815260048101859052603f60248201527f5374696c6c20656e6f7567682074696d6520746f20706572666f726d20726f7560448201527f6e64206265666f726520766572696669636174696f6e20646561646c696e65006064820152608490fd5b634e487b7160e01b600052601160045260246000fd5b60405162461bcd60e51b815260048101859052602760248201527f596f7520617265206e6f742074686520766572696669657220666f72207468696044820152661cc81c9bdd5b9960ca1b6064820152608490fd5b346105de576020806003193601126105de57600435908160005260058152604060002090610c536008830154421115614c12565b600f820180546001600160a01b0393908416610f21576015810154600054604051636eb1769f60e11b81523360048201523060248201529192919086168582604481845afa918215610ae457600092610ef2575b506040516370a0823160e01b8152336004820152918683602481855afa908115610ae4578793600092610ebe575b5094610cf581610d259493610cee8260009a1015615151565b1015615151565b6040516323b872dd60e01b8152336004820152306024820152604481019190915294859283919082906064820190565b03925af1918215610ae457600092610d44918491610ea1575b50615151565b6001600160601b0360a01b92338482541617905560148101600160ff198254161790558385600154166024604051809581936335313c2160e11b83523360048401525af1918215610ae457600092610e71575b5060010154906040519260a08401958487106001600160401b03881117610e5b576003610e2a958198604052848152878101958652604081018a8152606082019633885260808301966000885260005260028a52604060002092518355516001830155516002820155019351169083541617825551151581549060ff60a01b90151560a01b169060ff60a01b1916179055565b528060406000205533907f3c84569ae9be7c8e6e8edf0c0cbeb7e00cf9cb4d9b67849728be8ab96e09bec1600080a3005b634e487b7160e01b600052604160045260246000fd5b9091508381813d8311610e9a575b610e898183614929565b810103126105de5751906001610d97565b503d610e7f565b610eb89150863d8811610add57610ace8183614929565b88610d3e565b809392508491943d8311610eeb575b610ed78183614929565b810103126105de5790518692610cf5610cd5565b503d610ecd565b9091508581813d8311610f1a575b610f0a8183614929565b810103126105de57519088610ca7565b503d610f00565b60405162461bcd60e51b815260048101849052601960248201527f50726f766964657220616c72656164792073656c6563746564000000000000006044820152606490fd5b346105de576101c03660031901126105de576084356001600160401b0381116105de57610f979036906004016149b7565b60a4356001600160401b0381116105de57610fb6903690600401614961565b90610fc661016435604435614ca0565b80600019810111610bb457610fe3906101643590600019016152b7565b90610ffc82610ff761012435602435614c5e565b614c5e565b9261100984600435614ca0565b600360643510611cd657600054604051636eb1769f60e11b81523360048201523060248201526001600160a01b0390911690602081604481855afa908115610ae457600091611ca4575b506040516370a0823160e01b8152336004820152602081602481865afa918215610ae4578491600093611c6d575b5010611c0c578211611bad576040516323b872dd60e01b81523360048201523060248201526044810183905290602090829060649082906000905af1908115610ae457600091611b8e575b5015611b58574260c4351115611aed5761010435600361010435020460031461010435151715610bb4576111116111096003610104350286614c5e565b60c435614ca0565b60e4351115611a725761012435606435106119e1576040516111328161490e565b60008152604051926111438461490e565b60008452604051946111548661490e565b6000865260405197611165896148bb565b33895260043560208a015260408901526044356060890152606435608089015260a088015260c087015260e086015260c43561010086015260e43561012086015261014085015260006101608501526000610180850152610124356101a08501526101c08401526101e08301526000610200830152610104356102208301526102408201526000610260820152600061028082015260006102a08201526101a4356102c08201526024356102e08201526000610300820152610144356103208201526000610340820152600061036082015261016435610380820152610184356103a08201526004546000526005602052604060002060018060a01b038251166001600160601b0360a01b8254161781556020820151600182015560408201516002820155606082015160038201556080820151600482015560a0820151805190600160401b8211610e5b576005830154826005850155808310611968575b5060200190600583016000526020600020916000905b82821061184f57858560c08201519182516001600160401b038111610e5b576113066006840154614a4c565b601f811161181a575b506020601f82116001146117ac5781906113429394956000926117a1575b50508160011b916000199060031b1c19161790565b60068301555b60e0810151805190600160401b8211610e5b576007840154826007860155808310611729575b5060200190600784016000526020600020916000905b82821061160357858561010081015160088301556101208101516009830155610140810151600a830155600b82016101608201511515815460ff61ff00610180860151151560081b1692169061ffff1916171790556101a0810151600c8301556101c08101518051906001600160401b038211610e5b57600160401b8211610e5b57602090600d85015483600d8701558084106115e3575b5001600d8401600052602060002060005b8381106115c65785856101e08101518051906001600160401b038211610e5b57600160401b8211610e5b57602090600e85015483600e8701558084106115a6575b5001600e8401600052602060002060005b838110611589578585600f820160018060a01b03610200830151166001600160601b0360a01b825416179055610220810151601083015561024081015160118301556102608101516012830155610280810151601383015560148201906102a08101519060098210156105c857601c926103a09260ff801983541691161790556102c081015160158501556102e08101516016850155610300810151601785015561032081015160188501556103408101516019850155610360810151601a850155610380810151601b850155015191015561155c6004546152c1565b8060045533907f233bb55fd57b21b8a3d15c9ad8fbbab435fe4cf2865cc654f6a57d9d4d8cda54600080a3005b82516001600160a01b03168183015560209092019160010161147f565b6115c090600e870160005284846000209182019101614c71565b8561146e565b82516001600160a01b03168183015560209092019160010161142d565b6115fd90600d870160005284846000209182019101614c71565b8561141c565b80518051906001600160401b038211610e5b576116208654614a4c565b601f81116116ec575b50602090601f831160011461167c5792611662836001959460209487966000926116715750508160011b916000199060031b1c19161790565b87555b01940191019092611384565b015190508c8061132d565b908660005260206000209160005b601f19851681106116d4575083602093600196938796938794601f198116106116bb575b505050811b018755611665565b015160001960f88460031b161c191690558b80806116ae565b9192602060018192868501518155019401920161168a565b61171990876000526020600020601f850160051c8101916020861061171f575b601f0160051c0190614c71565b88611629565b909150819061170c565b600785016000526020600020908382015b818301811061174a57505061136e565b8061175760019254614a4c565b80611764575b500161173a565b601f8111831461177a5750600081555b8861175d565b600090828252611798601f60208420920160051c8201858301614c71565b81835555611774565b01519050858061132d565b6006840160005260206000209060005b601f19841681106118025750600193949583601f198116106117e9575b505050811b016006830155611348565b015160001960f88460031b161c191690558480806117d9565b9091602060018192858a0151815501930191016117bc565b61184990600685016000526020600020601f840160051c8101916020851061171f57601f0160051c0190614c71565b8461130f565b80518051906001600160401b038211610e5b5761186c8654614a4c565b90601f9182811161192e575b5060209183116001146118be57926118af836001959460209487966000926116715750508160011b916000199060031b1c19161790565b87555b019401910190926112da565b908660005260206000209160005b601f1985168110611916575083602093600196938796938794601f198116106118fd575b505050811b0187556118b2565b015160001960f88460031b161c191690558b80806118f0565b919260206001819286850151815501940192016118cc565b611959908860005260206000208480870160051c8201926020881061195f575b0160051c0190614c71565b89611878565b9250819261194e565b600584016000526020600020908382015b81830181106119895750506112c4565b8061199660019254614a4c565b806119a3575b5001611979565b601f9081811184146119bc575050600081555b8861199c565b6119d860009284845260208420920160051c8201858301614c71565b818355556119b6565b60405162461bcd60e51b815260206004820152605d60248201527f4e6f7420656e6f7567682076657269666965727320746f2063686f6f7365206660448201527f726f6d2e206e756d566572696669657273206d7573742062652067726561746560648201527f72207468616e206e756d56657269666965727353616d706c6553697a65000000608482015260a490fd5b60405162461bcd60e51b815260206004820152604760248201527f566572696669636174696f6e20646561646c696e65206d75737420626520737560448201527f6666696369656e7420656e6f75676820666f7220616c6c20726f756e64732072606482015266195c5d5a5c995960ca1b608482015260a490fd5b60405162461bcd60e51b815260206004820152603c60248201527f436f6d7075746174696f6e616c20646561646c696e65206d757374206265206760448201527f726561746572207468616e207468652063757272656e742074696d65000000006064820152608490fd5b60405162461bcd60e51b815260206004820152600e60248201526d14185e5b595b9d0819985a5b195960921b6044820152606490fd5b611ba7915060203d602011610add57610ace8183614929565b866110cc565b60405162461bcd60e51b815260206004820152603160248201527f496e73756666696369656e742062616c616e636520617661696c61626c6520746044820152701bc818dbdb991d58dd081c995c5d595cdd607a1b6064820152608490fd5b60405162461bcd60e51b815260206004820152603360248201527f496e73756666696369656e7420616c6c6f77616e636520617661696c61626c65604482015272081d1bc818dbdb991d58dd081c995c5d595cdd606a1b6064820152608490fd5b915091506020813d602011611c9c575b81611c8a60209383614929565b810103126105de578390519189611081565b3d9150611c7d565b90506020813d602011611cce575b81611cbf60209383614929565b810103126105de575187611053565b3d9150611cb2565b60405162461bcd60e51b815260206004820152601d60248201527f4174206c656173742033207665726966696572732072657175697265640000006044820152606490fd5b346105de57611d2936614a36565b906000610180604051611d3b8161489f565b8281528260208201528260408201528260608201528260808201528260a08201528260c08201528260e082015282610100820152826101208201528261014082015282610160820152015260005260066020526040600020906000526020526101a06040600020610180611dfb6004830154836005829501546006820154600783015460088401546009850154600a86015490600b87015492600c88015494600d89015496600e8a0154986010600f8c01549b01549b6040519d8e61489f565b8d5260208d015260408c015260608b015260808a015260a089015260c088015260e0870152610100860152610120850152610140840152610160830152828201526040519283526020810151602084015260408101516040840152606081015160608401526080810151608084015260a081015160a084015260c081015160c084015260e081015160e08401526101008101516101008401526101208101516101208401526101408101516101408401526101608101516101608401520151610180820152f35b346105de5760203660031901126105de57600435600052600260205260a0604060002060ff815491600181015490600360028201549101549160405194855260208501526040840152600180851b0381166060840152831c1615156080820152f35b346105de5760803660031901126105de576024351515602435036105de57600435600052600560205260406000206006602052604060002060138201549081600052602052600860406000200154421180156123e0575b1561239b576004356000526006602052604060002081600052602052600960406000200154421161236157600435600052600660205260406000208160005260205260036040600020013360005260205260ff604060002054161561231c57600435600052600660205260406000208160005260205260016040600020013360005260205261201160ff604060002054166150cf565b600435600052600760205260406000209060005260205260406000203360005260205260406000206003810160ff8154166122d7576040516020810190604435825260643560408201523360601b606082015260548152612071816148f3565b51902060048301540361229a57604051602081016044358152602435151560f81b60408301526021825260608201918083106001600160401b03841117610e5b5760409290925290519020825460ff60a01b1916602435151560a01b60ff60a01b161783559182916005919060443560018301556064356002830155600160ff19825416179055336001600160601b0360a01b825416178155015560043560005260066020526040600020601383015460005260205260406000208160005280602052604060002061214381546152c1565b9055816000528060205260406000205491600b8201928354908181146000146122515750505050506004356000526006602052604060002060138201546000526020526000600a6040822001555b600435600052600660205260406000206013820154600052602052600e6040600020016121be81546152c1565b905560405142815233907fb59f6416758d4763386b2c83d12c7c643131c90beff0caea486f303510702ce3602060043592a3600435600052600660205260406000209060138101549182600052602052600c600e604060002001549101541461222357005b7f86379e876dfaea4f98e183813a1a8fea7b8212d0dc9598d4e09ee4b9cdf4613360206040516004358152a2005b1161225f575b505050612191565b60043560005260066020526040600020601385015460005260205280600a604060002001556000526020526040600020549055818080612257565b60405162461bcd60e51b8152602060048201526015602482015274496e76616c69642072657665616c2076616c75657360581b6044820152606490fd5b60405162461bcd60e51b815260206004820152601b60248201527f436f6d6d69746d656e7420616c72656164792072657665616c656400000000006044820152606490fd5b60405162461bcd60e51b815260206004820152601f60248201527f596f7520617265206e6f74207468652063686f73656e207665726966696572006044820152606490fd5b60405162461bcd60e51b815260206004820152601260248201527114995d99585b081c1a185cd948195b99195960721b6044820152606490fd5b60405162461bcd60e51b815260206004820152601f60248201527f50726f76696465722072657665616c207068617365206e6f7420656e646564006044820152606490fd5b5060ff60148301541660098110156105c857600514611f7b565b346105de576020806003193601126105de5760043590816000526005815260406000206009810154421015806125fd575b806125ee575b1561259657600b81019160ff199260018482541617905560018060a01b039182600154168560005260028352826040600020546024604051809481936331a9108f60e11b835260048301525afa8015610ae457612502948492600092612567575b5060008881526002845260408120600301805460ff60a01b1916600160a01b179055546015850154600186015492909116916124cd91614ca0565b60405163a9059cbb60e01b81526001600160a01b03909316600484015260248301529094859190829060009082906044820190565b03925af1918215610ae457600693601493612549575b505001918254161790557f953601eba1acf6d4769af39f3986a5be6acd796655930c93832c2f239fbccabf600080a2005b8161255f92903d10610add57610ace8183614929565b508580612518565b612588919250833d851161258f575b6125808183614929565b8101906152d0565b9088612492565b503d612576565b60405162461bcd60e51b815260048101839052602a60248201527f566572696669636174696f6e20446561646c696e6520686173206e6f7420626560448201526932b7103830b9b9b2b21760b11b6064820152608490fd5b5060ff600b8201541615612431565b5060ff60148201541660098110156105c8576007141561242b565b346105de5761262636614a36565b906000526006602052604060002090600052602052600360406000200133600052602052602060ff604060002054166040519015158152f35b346105de5760203660031901126105de5760043560005260056020526040600020600d81015460048201548103612da45760ff600b83015460081c1615612d5557600c82015411612d0457600981015460108201549081600302916003830403610bb4576126d06126d79242614ca0565b1115615192565b600435600052600660205260406000206013820154908160005260205260016040600020013360005260205260ff60406000205416612cbf5760043560005260066020526040600020906000526020526001604060002001336000526020526040600020600160ff198254161790556019810154600c8201548110600014612b8b5750600481015461276e60198301548092614f0f565b60405160208101904282524460408201523360601b606082015260548152612795816148f3565b519020908015612b7557826127ae916128179306614ca0565b6127f96127dd6127c183600d8801615204565b905460039190911b1c6001600160a01b031694600d8701615204565b905460039190911b1c6001600160a01b031691600d8601615204565b90919060018060a01b038084549260031b9316831b921b1916179055565b61282c816127f96019850154600d8601615204565b601982015461283e81600d8501615204565b60018060a01b0391549060031b1c166012840154916040519081527f441ea878e9821f31af14375bef585bac76bbbde0e10feddc036673243d01a1d7602060043592a46004356000526006602052604060002060138301546000526020526003604060002001906000526020526040600020600160ff198254161790556128ea6128cf6019830154600d8401615204565b905460039190911b1c6001600160a01b0316600e8301615232565b60168101546128fe60178301918254614ca0565b90555b60198101549060018201809211610bb45780826019600c93015501541461292457005b600435600052600560205260406000206012810190815460118201541115612b30576009810154916010820192835480600302906003820403610bb45761296b9042614ca0565b1015612ad157601492600435600052600660205260406000209060138401918254600052602052426006604060002001556129a7815442614ca0565b60043560005260066020526040600020835460005260205260076040600020015560043560005260066020526040600020825490816000526020526129f6600760406000200154835490614ca0565b9060043560005260066020526040600020906000526020526008604060002001556004356000526006602052612a4660406000209183549283600052602052600860406000200154905490614ca0565b906004356000526006602052604060002090600052602052600960406000200155600435600052600660205260406000209054600052602052600760406000200154905460405191428352602083015260408201527f27e90e135bb91bf6706a23381e6d0d480f8bb7d002d6e9a197b432b7b654245f606060043592a201805460ff19166003179055005b60405162461bcd60e51b815260206004820152603160248201527f566572696669636174696f6e20446561646c696e652068617320706173736564604482015270081d1bc81cdd185c9d0818481c9bdd5b99607a1b6064820152608490fd5b60405162461bcd60e51b815260206004820152601e60248201527f416c6c206c61796572732068617665206265656e2070726f63657373656400006044820152606490fd5b634e487b7160e01b600052601260045260246000fd5b612c386020612b9d83600d8601615204565b939060018060a01b03948591549060031b1c166012860154906040518381527fd2673c2f320637ecd6e1e7a21780cb318c5a6c5b49398f8c5ae9d0ae0aad47438560043592a483612bf6816000541692600d8801615204565b90549060031b1c1690601686015491600060405180968195829463a9059cbb60e01b84526004840160209093929193604081019460018060a01b031681520152565b03925af18015610ae457612ca0575b50600435600052600760205260406000206013830154600052602052604060002090612c7a6019840154600d8501615204565b90549060031b1c166000526020526006604060002001600160ff19825416179055612901565b612cb89060203d602011610add57610ace8183614929565b5082612c47565b60405162461bcd60e51b815260206004820152601e60248201527f56657269666965722068617320616c72656164792074726967676572656400006044820152606490fd5b60405162461bcd60e51b815260206004820152602360248201527f4e6f7420656e6f7567682076657269666965727320746f2063686f6f73652066604482015262726f6d60e81b6064820152608490fd5b60405162461bcd60e51b815260206004820152602160248201527f5265717565737420686173206e6f74206265656e20636f6d70757465642079656044820152601d60fa1b6064820152608490fd5b60405162461bcd60e51b815260206004820152602160248201527f5665726966696572206c69737420686173206e6f74206265656e2066696c6c656044820152601960fa1b6064820152608490fd5b346105de57612e0136614a36565b9060005260066020526040600020906000526020526101a060406000206004810154906005810154906006810154600782015460088301546009840154600a850154600b86015491600c87015493600d88015495600e890154976010600f8b01549a01549a6040519c8d5260208d015260408c015260608b015260808a015260a089015260c088015260e0870152610100860152610120850152610140840152610160830152610180820152f35b346105de57612ebd36614a36565b816000526020600581526040600020600690818352604060002084600052835260096040600020015442108015906135c1575b1561356d57846000528183526040600020846000528352600360406000200133600052835260ff91612f288360406000205416615255565b856000526007938481526040600020866000528152604060002033600052815283826040600020015416613515576013830194855487116134aa5760019384881061344d5788600052838352604060002088600052835284604060002001336000528352612f9c86604060002054166150cf565b8860005281835260406000208860005283526040600020336000528352836040600020019560ff19968688825416179055896000528484526040600020896000528452600a604060002001548015600014613092575050600080546016929092015460405163a9059cbb60e01b81523360048201526024810191909152918491839160449183916001600160a01b03165af18015610ae457613075575b508760005281526040600020866000528152604060002090336000525260406000200191825416179055541461306c575b005b61306a9061539e565b61308b90833d8511610add57610ace8183614929565b5088613039565b9196949592988091988b6000528a865260406000208260005286526040600020336000528652858c8a8d8b600560406000200154891461336e575b505050505054146130da57005b60008a8152868552604080822092825291855220600c0154146131195750505050601401541660098110156105c8570361311057005b61306a90614f1c565b90929491936012810190601182549101546000198101818111610bb457820361334957505061314881546152c1565b9055866000526005835260406000209160148301968188541660098110156105c8571461330457600b83019081549081166132bf578583911617905560018060a01b039182825416918860005260028552846040600020546024604051809681936331a9108f60e11b835260048301525afa918215610ae45761323e94869460009461329a575b5060008b81526002865260408120600301805460ff60a01b1916600160a01b17905554601583015493909201549116916132099190614ca0565b60405163a9059cbb60e01b81526001600160a01b03909316600484015260248301529092839190829060009082906044820190565b03925af18015610ae45761327c575b50508254161790557f953601eba1acf6d4769af39f3986a5be6acd796655930c93832c2f239fbccabf600080a2005b8161329292903d10610add57610ace8183614929565b50848061324d565b613209929194506132b790863d881161258f576125808183614929565b9390916131cf565b60405162461bcd60e51b815260048101869052601c60248201527f5265717565737420697320616c726561647920636f6d706c65746564000000006044820152606490fd5b60405162461bcd60e51b815260048101859052601760248201527f5265717565737420697320756e7375636365737366756c0000000000000000006044820152606490fd5b95509796509450505050831061335b57005b61336761306a936152c1565b905561539e565b60009650916133e9916133b56134139594613392600c601686015495015485614c5e565b90868b52885260408a208b8b52885260408a208c8b52885260408a2054906152b7565b938852855260408088208989528652808820338952865287208d0180548d168b17905586546001600160a01b031692614ca0565b60405163a9059cbb60e01b8152336004820152602481019190915294859283919082906044820190565b03925af1918215610ae4578392613430575b50858c8a8d8b6130cd565b61344690873d8911610add57610ace8183614929565b508c613425565b60405162461bcd60e51b815260048101849052602f60248201527f526f756e64206e756d626572206d75737420626520677265617465722074686160448201526e6e206f7220657175616c20746f203160881b6064820152608490fd5b60405162461bcd60e51b815260048101839052603a60248201527f726f756e64206e756d206d757374206265206c657373207468616e206f72206560448201527f7175616c20746f20726571756573742e726f756e64496e6465780000000000006064820152608490fd5b6084906040519062461bcd60e51b82526004820152602b60248201527f596f75206861766520616c7265616479206265656e207061696420666f72207660448201526a32b934b334b1b0ba34b7b760a91b6064820152fd5b60405162461bcd60e51b815260048101849052602660248201527f636f6d6d69746d656e7420737461676520686173206e6f742079657420636f6d6044820152651c1b195d195960d21b6064820152608490fd5b50846000528183526040600020846000528352600e60406000200154600c82015414612ef0565b346105de5760203660031901126105de5760048035600090815260056020526040902061022081905280546001820154600283015461014052600383015461016052928201546101a0526001600160a01b0316916137d69161364c90600601614a86565b92600861022051015461012052600961022051015493600a610220510154600b610220510154600c61022051015460018060a01b03600f610220510154169060ff60106102205101549360116102205101549561376460126102205101549860136102205101549a856014610220510154169c6015610220510154608052601661022051015460a052601761022051015460e05260186102205101546102005260196102205101546101e052601a6102205101546101c052601b61022051015461018052601c6102205101546101005260405160c0526103409160c05152602060c051015261014051604060c051015261016051606060c05101526101a051608060c05101528060a060c051015260c0510190614b2b565b9b6101205160c08051015260e060c051015261010060c0510152818116151561012060c051015260081c16151561014060c051015261016060c051015261018060c05101526101a060c05101526101c060c05101526101e060c051015261020060c051015261022060c0510190614b6b565b60805161024060c051015260a05161026060c051015260e05161028060c0510152610200516102a060c05101526101e0516102c060c05101526101c0516102e060c05101526101805161030060c05101526101005161032060c051015260c051900360c051f35b346105de576020806003193601126105de57600435908160005260058152604060002090601a82015460058101809111610bb4574210613cc75760ff600b83015460081c1615613c8357600f8201546001600160a01b03929083163314613c2257600d810190815493600482019485541115613be45760ff60148301541660098110156105c857600203613b5357600054604051636eb1769f60e11b81523360048201523060248201529116908481604481855afa908115610ae457600091613b26575b506040516370a0823160e01b8152336004820152908582602481865afa8015610ae4578692600091613af3575b5092610cee61394d61397d936000966016890154938480931015615151565b6040516323b872dd60e01b8152336004820152306024820152604481019190915293849283919082906064820190565b03925af18015610ae45761399891600091613ad65750615151565b600981015460108201549081600302916003830403610bb4576126d06139be9242614ca0565b84600052600683526040600020601382015490816000528452600260406000200133600052845260ff60406000205416613a9157906012918660005260068552604060002090600052845260026040600020013360005284526040600020600160ff19825416179055613a313384615232565b015492604051918433877f9e9159f67684b4639ef3d20a0878e965d2fa78dc33561fadb2485cd3d3447abf600080a454905414613a6a57005b7fac6c772803856f8be288c38a92349502c9d976deccefb05524c4eafedf049aeb928152a2005b60405162461bcd60e51b815260048101859052601860248201527f566572696669657220616c7265616479206170706c69656400000000000000006044820152606490fd5b613aed9150853d8711610add57610ace8183614929565b87610d3e565b8381939492503d8311613b1f575b613b0b8183614929565b810103126105de5751859190610cee61392e565b503d613b01565b90508481813d8311613b4c575b613b3d8183614929565b810103126105de575187613901565b503d613b33565b60405162461bcd60e51b815260048101859052605960248201527f56657269666965722063616e6e6f74206170706c7920666f722076657269666960448201527f636174696f6e2e2052657175657374207374617465206d75737420626520696e60648201527f2063686f6f73696e672076657269666965727320737461746500000000000000608482015260a490fd5b60405162461bcd60e51b815260048101859052601660248201527515995c9a599a595c881b1a5b5a5d081c995858da195960521b6044820152606490fd5b60405162461bcd60e51b815260048101839052603360248201527f546865206d61696e2070726f76696465722063616e6e6f74206170706c79207460448201527237903132b1b7b6b29030903b32b934b334b2b960691b6064820152608490fd5b6064906040519062461bcd60e51b82526004820152601860248201527f52657175657374206e6f742079657420636f6d707574656400000000000000006044820152fd5b6084906040519062461bcd60e51b82526004820152602e60248201527f4d75737420776169742035207365636f6e6473206265666f726520766572696660448201526d696572732063616e206170706c7960901b6064820152fd5b346105de5760003660031901126105de576000546040516001600160a01b039091168152602090f35b346105de5760003660031901126105de576020600454604051908152f35b346105de5760003660031901126105de57602060405160038152f35b346105de57613d9336614a36565b9080600052602091600583526040600020916009830154601084015480600302906003820403610bb457613dc79042614ca0565b1115613f465780600052600684526040600020826000528452600260406000200133600052845260ff6040600020541615613ec557600092849282613e9f93865260078552604086208287528552604086203387528552613e3260ff60066040892001541615615111565b855260078452604080862091865290845280852033808752908552818620600601805460ff19166001179055855460169390930154915163a9059cbb60e01b8152600481019190915260248101919091529384926001600160a01b03929092169183919082906044820190565b03925af18015610ae457613eaf57005b8161306a92903d10610add57610ace8183614929565b60405162461bcd60e51b815260048101859052604d60248201527f5665726966696572206861732065697468657220616c7265616479207265636960448201527f65766564207374616b652c206f7220646964206e6f74206170706c7920666f7260648201526c103b32b934b334b1b0ba34b7b760991b608482015260a490fd5b60405162461bcd60e51b815260048101859052602860248201527f566572696669636174696f6e20646561646c696e6520686173206e6f742079656044820152671d081c185cdcd95960c21b6064820152608490fd5b346105de57613faa36614a36565b816000526020916006835260406000208260005283526001604060002001336000528352613fdf60ff604060002054166150cf565b80600052600683526040600020826000528352600360406000200133600052835260ff6040600020541661408b5780600052600783526040600020826000528352604060002033600052835261404060ff6006604060002001541615615111565b6000805482825260058552604080832060160154905163a9059cbb60e01b8152336004820152602481019190915291859183916001600160a01b039091169082908160448101610a72565b60405162461bcd60e51b815260048101849052602360248201527f43686f73656e2076657269666569722063616e6e6f742072657475726e207374604482015262616b6560e81b6064820152608490fd5b346105de5760203660031901126105de5761306a600435614f1c565b346105de5760203660031901126105de5761306a600435614cad565b346105de5760003660031901126105de576001546040516001600160a01b039091168152602090f35b346105de5760203660031901126105de5760043560005260036020526020604060002054604051908152f35b346105de5760803660031901126105de576004356024803560443590606435918460005260209160058352604060002060018060a01b03600f8201541633036144375786600052600684526040600020936013820180549586600052825260076040600020015442118015614408575b156143c457886000526006825260406000208660005282526008604060002001544211614380578860005260088252604060002084600052825260ff604060002054166143325760405195828701888152600160f81b6040890152602188526060880199888b106001600160401b038c111761431e57509260a095928a98959260609a98957f2f06062ea665468a61997fd63a8ec957f95fda34ee5de1123656b796f400cf189c60405287519020908d600052600684526040600020906000528352600c604060002001558b60005260068252604060002081546000528252846010604060002001558b6000526006825260406000209054600052815282600f604060002001558a6000526008815260406000209083600052526005601460406000209260ff19936001858254161790550191825416179055855260808201520152a2005b634e487b7160e01b60009081526041600452fd5b60405162461bcd60e51b8152600481018390526021818a01527f50726976617465206b65792068617320616c7265616479206265656e207573656044820152601960fa1b6064820152608490fd5b60405162461bcd60e51b815260048101839052601b818a01527f50726f76696465722072657665616c20706861736520656e64656400000000006044820152606490fd5b60405162461bcd60e51b815260048101839052601a818a01527f436f6d6d69746d656e74207068617365206e6f7420656e6465640000000000006044820152606490fd5b5060ff6014840154166009811015614422576004146141d9565b88634e487b7160e01b60005260216004526000fd5b60405162461bcd60e51b8152600481018590526032818801527f4f6e6c7920746865206d61696e2070726f76696465722063616e2072657665616044820152710d840e8d0ca40d6caf240c2dcc840d0c2e6d60731b6064820152608490fd5b346105de576144a436614a36565b906000526006602052604060002090600052602052600260406000200133600052602052602060ff604060002054166040519015158152f35b346105de576144eb36614a36565b906000526008602052604060002090600052602052602060ff604060002054166040519015158152f35b346105de5761452336614a36565b906000526006602052604060002090600052602052600160406000200133600052602052602060ff604060002054166040519015158152f35b346105de5760403660031901126105de576004356001600160401b03602480358281116105de576145919036906004016149b7565b83600052600560209060058252604060002094600b8601805460ff811661484f576145c26008890154421115614c12565b600f8801546001600160a01b031633036147f85761ff001916610100179055835193600787019290600160401b8611610e5b578490845487865580881061477f575b506000948552858520949791015b8688106146525742601a8a0155896146298161539e565b33907fd8fcbb5eddba1b1984c4f12b2197b325cc19ed135c968033ffd714c7f4c2d6bd600080a3005b805180519085821161476a579087929161466c8854614a4c565b90601f91828111614734575b50849183116001146146c65782600195938695936146ac936000926146bb5750508160011b916000199060031b1c19161790565b88555b01950197019693614612565b01519050388061132d565b90601f9493941983169189600052846000209260005b81811061471c5750916001969391858897969410614703575b505050831b830188556146af565b015160001960f88460031b161c191690558e80806146f5565b8284015185558c9660019095019493840193016146dc565b61475b908a60005286600020848087018b1c820192898810614761575b018a1c0190614c71565b8e614678565b92508192614751565b83634e487b7160e01b60005260416004526000fd5b85600052878360002091820191015b81811061479b5750614604565b6001919293506147ab8154614a4c565b806147bc575b50019086929161478e565b601f9081811184146147d5575050600081555b8c6147b1565b6147ef6000928484528b84209201881c8201858301614c71565b818355556147cf565b60405162461bcd60e51b815260048101869052602960248201527f4f6e6c792063686f73656e2070726f76696465722063616e20636f6d706c657460448201526819481c995c5d595cdd60ba1b6064820152608490fd5b60405162461bcd60e51b815260048101869052602260248201527f526571756573742068617320616c7265616479206265656e20636f6d706c6574604482015261195960f21b6064820152608490fd5b6101a081019081106001600160401b03821117610e5b57604052565b6103c081019081106001600160401b03821117610e5b57604052565b61010081019081106001600160401b03821117610e5b57604052565b608081019081106001600160401b03821117610e5b57604052565b602081019081106001600160401b03821117610e5b57604052565b90601f801991011681019081106001600160401b03821117610e5b57604052565b6001600160401b038111610e5b5760051b60200190565b81601f820112156105de578035906001600160401b038211610e5b5760405192614995601f8401601f191660200185614929565b828452602083830101116105de57816000926020809301838601378301015290565b81601f820112156105de578035916020916149d18461494a565b936149df6040519586614929565b808552838086019160051b830101928084116105de57848301915b848310614a0a5750505050505090565b82356001600160401b0381116105de578691614a2b84848094890101614961565b8152019201916149fa565b60409060031901126105de576004359060243590565b90600182811c92168015614a7c575b6020831014614a6657565b634e487b7160e01b600052602260045260246000fd5b91607f1691614a5b565b90604051918260008254614a9981614a4c565b90818452602094600191600181169081600014614b095750600114614aca575b505050614ac892500383614929565b565b600090815285812095935091905b818310614af1575050614ac89350820101388080614ab9565b85548884018501529485019487945091830191614ad8565b92505050614ac894925060ff191682840152151560051b820101388080614ab9565b919082519283825260005b848110614b57575050826000602080949584010152601f8019910116010190565b602081830181015184830182015201614b36565b9060098210156105c85752565b90808251908181526020809101926020808460051b8301019501936000915b848310614ba75750505050505090565b9091929394958480614bc5600193601f198682030187528a51614b2b565b9801930193019194939290614b97565b90815180825260208080930193019160005b828110614bf5575050505090565b83516001600160a01b031685529381019392810192600101614be7565b15614c1957565b60405162461bcd60e51b815260206004820152601b60248201527f436f6d7075746174696f6e20646561646c696e652070617373656400000000006044820152606490fd5b81810292918115918404141715610bb457565b818110614c7c575050565b60008155600101614c71565b908160209103126105de575180151581036105de5790565b91908201809211610bb457565b600081815260056020908152604080832080546001600160a01b039081169391929033859003614ebf57600b84019460ff865416614e7b57839082600f8701541615614e415750506008840154421180614e32575b15614dd8579082614d5a92614d20600a870154601588015490614ca0565b90808954169087541689855180978195829463a9059cbb60e01b84526004840160209093929193604081019460018060a01b031681520152565b03925af1908115614dcf5750926008926014927fee243f878b7fc2f54e934ca33783d4395d42bc07612e2bd4b8e0e178639f7a28979695614db1575b505060ff1993600185825416179055019182541617905580a2565b81614dc792903d10610add57610ace8183614929565b503880614d96565b513d87823e3d90fd5b815162461bcd60e51b815260048101849052602d60248201527f436f6d7075746174696f6e20646561646c696e6520686173206e6f742079657460448201526c081899595b881c995858da1959609a1b6064820152608490fd5b5060ff855460081c1615614d02565b8754600a870154855163a9059cbb60e01b81526001600160a01b039093166004840152602483015290939284911681898160448101614d5a565b825162461bcd60e51b815260048101859052601960248201527f5265717565737420616c726561647920636f6d706c65746564000000000000006044820152606490fd5b815162461bcd60e51b8152600481018490526024808201527f4f6e6c792074686520636f6e73756d65722063616e2077697468647261772066604482015263756e647360e01b6064820152608490fd5b91908203918211610bb457565b600081815260056020908152604080832060068352818420601382015485528352818420600a810154600c90910154929391921415806150a0575b1561504c57614fe4601483019360ff19946007868254161790558260018060a01b03808854169086541690614fb1614fa6614f9b60018a015460158b015490614ca0565b60028a015490614ca0565b601789015490614f0f565b845163a9059cbb60e01b81526001600160a01b0390931660048401526024830152909384919082908a9082906044820190565b03925af1908115614dcf575092600192600b927f6d55d799468c2d702d8ff65d462b4e8dbbc88c728431aee69b205a3964362f0797969561502e575b5050019182541617905580a2565b8161504492903d10610add57610ace8183614929565b503880615020565b60849083519062461bcd60e51b82526004820152602860248201527f5265717565737420697320616c726561647920696e20756e7375636365737366604482015267756c20737461746560c01b6064820152fd5b5060ff60148301541660098110156150bb5760071415614f57565b634e487b7160e01b85526021600452602485fd5b156150d657565b60405162461bcd60e51b81526020600482015260136024820152722cb7ba903234b2103737ba103a3934b3b3b2b960691b6044820152606490fd5b1561511857565b60405162461bcd60e51b8152602060048201526011602482015270105b1c9958591e481899595b881c185a59607a1b6044820152606490fd5b1561515857565b60405162461bcd60e51b8152602060048201526012602482015271496e73756666696369656e74207374616b6560701b6044820152606490fd5b1561519957565b60405162461bcd60e51b815260206004820152603d60248201527f4e6f7420656e6f7567682074696d6520746f20706572666f726d20726f756e6460448201527f206265666f726520766572696669636174696f6e20646561646c696e650000006064820152608490fd5b805482101561521c5760005260206000200190600090565b634e487b7160e01b600052603260045260246000fd5b90815491600160401b831015610e5b57826127f9916001614ac895018155615204565b1561525c57565b60405162461bcd60e51b815260206004820152602d60248201527f596f7520617265206e6f74207468652063686f73656e2076657269666965722060448201526c1a5b881d1a1a5cc81c9bdd5b99609a1b6064820152608490fd5b8115612b75570490565b6000198114610bb45760010190565b908160209103126105de57516001600160a01b03811681036105de5790565b9081546152fb8161494a565b926153096040519485614929565b818452600090815260208082208186015b848410615328575050505050565b600183819261533685614a86565b81520192019301929061531a565b90604051918281549182825260209260208301916000526020600020936000905b82821061537b57505050614ac892500383614929565b85546001600160a01b031684526001958601958895509381019390910190615365565b6000818152600560209081526040808320600f8101546001600160a01b031615615517578382516153ce8161490e565b52600d81018054858255806154ff575b5084528382516153ed8161490e565b52600e81018054858255806154e7575b50845260148101600260ff1982541617905560138101805490600182018092116154d3579386937fb39ebde6d06658d2f25237a5031f2a70eadf752f8ecc1b74081c3768822f02729360a0937f2d4e685f9af8cf88fb3e3447f1ee8e4e5e68423a2c393dc8d6e9784aa67ddafa989755866019820155857f7cdb7f0bd04877caf5dda7a202130926cdd67ad312dada203661ff6d880684348460128401548551908152a2601681015491600982015490600460108401549301549381519533875286015284015260608301526080820152a280a2565b634e487b7160e01b86526011600452602486fd5b8186528486206154f991810190614c71565b386153fd565b81865284862061551191810190614c71565b386153de565b815162461bcd60e51b815260048101849052602760248201527f4d61696e2070726f766964657220686173206e6f7420796574206265656e2073604482015266195b1958dd195960ca1b6064820152608490fdfea2646970667358221220405f781b56690551fbf8323b38dadea5d7799404b406c98e93c38b681d2d3e5d64736f6c63430008170033608034620003975760406001600160401b038282018181118482101762000381578252600883526020926710d3d35417d3919560c21b8482015282519183830183811082821117620003815784526004928381526310d3919560e21b868201528251908282116200036c576000968754926001958685811c9516801562000361575b838610146200034e578190601f95868111620002fb575b50839086831160011462000297578b926200028b575b5050600019600383901b1c191690861b1788555b8151938411620002785784548581811c911680156200026d575b828210146200025a57908184869594931162000203575b50809284116001146200019b575087926200018f575b5050600019600383901b1c191690821b1790555b33156200017a575060068054336001600160a01b03198216811790925591519290916001600160a01b0316907f8be0079c531659141344cd1fd0a4f28419497f9722a3daafe3b4186f6b6457e09080a3610f3190816200039d8239f35b826024925191631e4fbdf760e01b8352820152fd5b01519050388062000109565b9190859450601f198416858a52838a20938a905b828210620001e95750508411620001cf575b505050811b0190556200011d565b015160001960f88460031b161c19169055388080620001c1565b8484015186558897909501949384019390810190620001af565b90919293508589528189208480870160051c82019284881062000250575b9187968992969594930160051c01915b82811062000241575050620000f3565b8b815587965088910162000231565b9250819262000221565b634e487b7160e01b895260228752602489fd5b90607f1690620000dc565b634e487b7160e01b885260418652602488fd5b015190503880620000ae565b8b8052848c208994509190601f1984168d5b87828210620002e45750508411620002ca575b505050811b018855620000c2565b015160001960f88460031b161c19169055388080620002bc565b8385015186558c97909501949384019301620002a9565b9091508a8052838b208680850160051c82019286861062000344575b918a91869594930160051c01915b8281106200033557505062000098565b8d81558594508a910162000325565b9250819262000317565b634e487b7160e01b8a526022885260248afd5b94607f169462000081565b604185634e487b7160e01b6000525260246000fd5b634e487b7160e01b600052604160045260246000fd5b600080fdfe6080604081815260048036101561001557600080fd5b600092833560e01c90816301ffc9a714610a2f5750806306fdde0314610962578063081812fc14610927578063095ea7b31461084b57806323b872dd1461083357806342842e0e146108045780636352211e146107d35780636a6278421461056c57806370a0823114610517578063715018a6146104ba57806375794a3c1461049b5780638da5cb5b1461047257806395d89b4114610355578063a22cb465146102b4578063b88d4fde14610220578063c87b56dd146101cd578063e985e9c51461017b5763f2fde38b146100e957600080fd5b3461017757602036600319011261017757610102610adb565b9061010b610d8b565b6001600160a01b03918216928315610161575050600654826bffffffffffffffffffffffff60a01b821617600655167f8be0079c531659141344cd1fd0a4f28419497f9722a3daafe3b4186f6b6457e08380a380f35b51631e4fbdf760e01b8152908101849052602490fd5b8280fd5b5050346101c957806003193601126101c95760ff8160209361019b610adb565b6101a3610af6565b6001600160a01b0391821683526005875283832091168252855220549151911615158152f35b5080fd5b509190346101c95760203660031901126101c9576101ee61021c9335610d50565b508181516101fb81610b41565b5280519161020883610b41565b825251918291602083526020830190610a9b565b0390f35b5090346101775760803660031901126101775761023b610adb565b610243610af6565b60443591856064359567ffffffffffffffff87116101c957366023880112156101c9578601359561027f61027688610b95565b96519687610b73565b86865236602488830101116101c957866102b19760246020930183890137860101526102ac838383610bb1565b610db7565b80f35b5090346101775780600319360112610177576102ce610adb565b9060243591821515809303610351576001600160a01b031692831561033c5750338452600560205280842083855260205280842060ff1981541660ff8416179055519081527f17307eab39ab6107e8899845ad3d59bd9653f200f220920489ca2b5937696c3160203392a380f35b836024925191630b61174360e31b8352820152fd5b8480fd5b50913461046f578060031936011261046f5781519181600192600154938460011c9160018616958615610465575b6020968785108114610452578899509688969785829a52918260001461042b5750506001146103cf575b50505061021c92916103c0910385610b73565b51928284938452830190610a9b565b9190869350600183527fb10e2d527612073b26eecdfd717e6a320cf44b4afac2b0732d9fcbe2b7fa0cf65b82841061041357505050820101816103c061021c6103ad565b8054848a0186015288955087949093019281016103fa565b60ff19168782015293151560051b860190930193508492506103c0915061021c90506103ad565b634e487b7160e01b835260228a52602483fd5b92607f1692610383565b80fd5b5050346101c957816003193601126101c95760065490516001600160a01b039091168152602090f35b5050346101c957816003193601126101c9576020906007549051908152f35b833461046f578060031936011261046f576104d3610d8b565b600680546001600160a01b0319811690915581906001600160a01b03167f8be0079c531659141344cd1fd0a4f28419497f9722a3daafe3b4186f6b6457e08280a380f35b50913461046f57602036600319011261046f576001600160a01b0361053a610adb565b169283156105575750806020938392526003845220549051908152f35b91516322718ad960e21b815291820152602490fd5b509190346101c957602092836003193601126101775761058a610adb565b92610593610d8b565b6007549383516105a281610b41565b8281526001600160a01b03828116929083156107bc5787855260028952868520541687848215159283610789575b81885260038c528988208054600101905582885260028c5289882080546001600160a01b031916831790557fddf252ad1be2c89b69c2b068fc378daa952ba7f163c4a11628f55a4df523b3ef8880a4610771573b610659575b505060075491600019831461064657505060010160075551908152f35b634e487b7160e01b825260119052602490fd5b849395919451878180610693630a85bd0160e11b95868352338c840152886024840152876044840152608060648401526084830190610a9b565b0381878a5af1849181610731575b506106ff575050503d6000146106f7573d6106bb81610b95565b906106c884519283610b73565b81528091863d92013e5b805194856106f157505051633250574960e11b81529182015260249150fd5b85925001fd5b5060606106d2565b91959394916001600160e01b0319160361071b57503880610629565b90506024925191633250574960e11b8352820152fd5b9091508881813d831161076a575b6107498183610b73565b8101031261035157516001600160e01b0319811681036103515790386106a1565b503d61073f565b505092516339e3563760e11b81529182015260249150fd5b600083815260046020526040902080546001600160a01b031916905580885260038c5289882080546000190190556105d0565b8651633250574960e11b8152808701869052602490fd5b50913461046f57602036600319011261046f57506107f360209235610d50565b90516001600160a01b039091168152f35b5050346101c9576102b19061081836610b0c565b9192519261082584610b41565b8584526102ac838383610bb1565b833461046f576102b161084536610b0c565b91610bb1565b509034610177578060031936011261017757610865610adb565b9160243561087281610d50565b33151580610914575b806108eb575b6108d5576001600160a01b039485169482918691167f8c5be1e5ebec7d5bd14f71427d1e84f3dd0314c0f7b2291e5b200ac8c7c3b9258880a48452602052822080546001600160a01b031916909117905580f35b835163a9fbf51f60e01b81523381850152602490fd5b506001600160a01b03811686526005602090815284872033885290528386205460ff1615610881565b506001600160a01b03811633141561087b565b50346101775760203660031901126101775791826020933561094881610d50565b50825283528190205490516001600160a01b039091168152f35b50913461046f578060031936011261046f578151918182549260018460011c9160018616958615610a25575b6020968785108114610452578899509688969785829a52918260001461042b5750506001146109ca5750505061021c92916103c0910385610b73565b91908693508280527f290decd9548b62a8d60345a988386fc84ba6bc95484008f6362f93160ef3e5635b828410610a0d57505050820101816103c061021c6103ad565b8054848a0186015288955087949093019281016109f4565b92607f169261098e565b92505034610177576020366003190112610177573563ffffffff60e01b811680910361017757602092506380ac58cd60e01b8114908115610a8a575b8115610a79575b5015158152f35b6301ffc9a760e01b14905038610a72565b635b5e139f60e01b81149150610a6b565b919082519283825260005b848110610ac7575050826000602080949584010152601f8019910116010190565b602081830181015184830182015201610aa6565b600435906001600160a01b0382168203610af157565b600080fd5b602435906001600160a01b0382168203610af157565b6060906003190112610af1576001600160a01b03906004358281168103610af157916024359081168103610af1579060443590565b6020810190811067ffffffffffffffff821117610b5d57604052565b634e487b7160e01b600052604160045260246000fd5b90601f8019910116810190811067ffffffffffffffff821117610b5d57604052565b67ffffffffffffffff8111610b5d57601f01601f191660200190565b6001600160a01b039182169290918315610d3757600092828452826020956002875260409684888820541696879133151580610ca1575b509060027fddf252ad1be2c89b69c2b068fc378daa952ba7f163c4a11628f55a4df523b3ef9284610c6e575b858352600381528b8320805460010190558683525289812080546001600160a01b0319168517905580a41692838303610c4d5750505050565b6064945051926364283d7b60e01b8452600484015260248301526044820152fd5b600087815260046020526040902080546001600160a01b0319169055848352600381528b83208054600019019055610c14565b91939450915080610cf6575b15610cbd57859291879138610be8565b878688610cda576024915190637e27328960e01b82526004820152fd5b604491519063177e802f60e01b82523360048301526024820152fd5b503387148015610d1b575b80610cad5750858252600481523385898420541614610cad565b5086825260058152878220338352815260ff8883205416610d01565b604051633250574960e11b815260006004820152602490fd5b6000818152600260205260409020546001600160a01b0316908115610d73575090565b60249060405190637e27328960e01b82526004820152fd5b6006546001600160a01b03163303610d9f57565b60405163118cdaa760e01b8152336004820152602490fd5b813b610dc4575b50505050565b604051630a85bd0160e11b8082523360048301526001600160a01b03928316602483015260448201949094526080606482015260209592909116939092908390610e12906084830190610a9b565b039285816000958187895af1849181610ebb575b50610e86575050503d600014610e7e573d610e4081610b95565b90610e4e6040519283610b73565b81528091843d92013e5b80519283610e7957604051633250574960e11b815260048101849052602490fd5b019050fd5b506060610e58565b919450915063ffffffff60e01b1603610ea3575038808080610dbe565b60249060405190633250574960e11b82526004820152fd5b9091508681813d8311610ef4575b610ed38183610b73565b8101031261035157516001600160e01b031981168103610351579038610e26565b503d610ec956fea2646970667358221220940d89c8a8f04b6798e4c287cbfd39ea66da616a773d26feb8962549f7c3b0fe64736f6c63430008170033","linkReferences":{}},"methodIdentifiers":{"MIN_VERIFIERS()":"53e2ba17","NFTRequestID(uint256)":"28dde62e","applyForVerificationForRequest(uint256)":"6d8f9a0e","calculateMajorityAndReward(uint256,uint256)":"847ada57","cancelRequest(uint256)":"3015394c","chooseVerifiersForRequestTrigger(uint256)":"951c5ce2","compNFT()":"2d37463d","compToken()":"6605dfa7","completeRequest(uint256,string[])":"0625f161","createRequest(uint256,uint256,uint256,uint256,string[],string,uint256,uint256,uint256,uint256,uint256,uint256,bytes32,uint256)":"e007657e","getRequestDetails(uint256)":"f34d4c63","getRoundDetails(uint256,uint256)":"ddf3532c","getVerificationDetails(uint256,uint256,address)":"e819ff28","getVerifiersAppliedForRound(uint256,uint256)":"175f4c0c","getVerifiersChosenForRound(uint256,uint256)":"975026af","getVerifiersTriggeredForRound(uint256,uint256)":"0a39bf2c","getVoteCountForHashForRound(uint256,uint256,bytes32)":"e7b6c4ec","providerFailure(uint256)":"3295845c","providerNFTs(uint256)":"d42c6712","providerPrivateKeys(uint256,uint256)":"13f08bbf","providerSuccessCall(uint256)":"b10ceb59","requestCount()":"5badbe4c","requests(uint256)":"81d12c58","returnStake(uint256,uint256)":"38488abc","returnStakeDueToTimeout(uint256,uint256)":"e2e7cbe6","revealCommitment(uint256,bool,bytes32,bytes32)":"bfdb3451","revealProviderKeyAndHash(uint256,uint256,uint256,bytes32)":"253bd3e9","roundDetails(uint256,uint256)":"8ea49eca","selectRequest(uint256)":"e03ad0d1","submitCommitment(uint256,bytes32)":"e6a3d9dc","verificationDeadlinePassedForVeryfying(uint256,uint256)":"4beda221"},"id":1}