{"abi":[{"type":"constructor","inputs":[{"name":"compTokenAddress","type":"address","internalType":"address"}],"stateMutability":"nonpayable"},{"type":"function","name":"MIN_VERIFIERS","inputs":[],"outputs":[{"name":"","type":"uint256","internalType":"uint256"}],"stateMutability":"view"},{"type":"function","name":"PROVIDER_STAKE_PERCENTAGE","inputs":[],"outputs":[{"name":"","type":"uint256","internalType":"uint256"}],"stateMutability":"view"},{"type":"function","name":"alertVerifiersOfCompletedRequest","inputs":[{"name":"requestId","type":"uint256","internalType":"uint256"}],"outputs":[],"stateMutability":"nonpayable"},{"type":"function","name":"applyForVerificationForRequest","inputs":[{"name":"requestId","type":"uint256","internalType":"uint256"}],"outputs":[],"stateMutability":"nonpayable"},{"type":"function","name":"calculateMajorityAndReward","inputs":[{"name":"requestId","type":"uint256","internalType":"uint256"},{"name":"roundNum","type":"uint256","internalType":"uint256"}],"outputs":[],"stateMutability":"nonpayable"},{"type":"function","name":"cancelRequest","inputs":[{"name":"requestId","type":"uint256","internalType":"uint256"}],"outputs":[],"stateMutability":"nonpayable"},{"type":"function","name":"chooseVerifiersForRequestTrigger","inputs":[{"name":"requestId","type":"uint256","internalType":"uint256"}],"outputs":[],"stateMutability":"nonpayable"},{"type":"function","name":"compToken","inputs":[],"outputs":[{"name":"","type":"address","internalType":"contract IERC20"}],"stateMutability":"view"},{"type":"function","name":"completeRequest","inputs":[{"name":"requestId","type":"uint256","internalType":"uint256"},{"name":"outputFileURLs","type":"string[]","internalType":"string[]"}],"outputs":[],"stateMutability":"nonpayable"},{"type":"function","name":"createRequest","inputs":[{"name":"paymentForProvider","type":"uint256","internalType":"uint256"},{"name":"paymentPerRoundForVerifiers","type":"uint256","internalType":"uint256"},{"name":"numOperations","type":"uint256","internalType":"uint256"},{"name":"numVerifiers","type":"uint256","internalType":"uint256"},{"name":"inputFileURLs","type":"string[]","internalType":"string[]"},{"name":"operationFileURL","type":"string","internalType":"string"},{"name":"computationDeadline","type":"uint256","internalType":"uint256"},{"name":"verificationDeadline","type":"uint256","internalType":"uint256"},{"name":"timeAllocatedForVerification","type":"uint256","internalType":"uint256"},{"name":"numVerifiersSampleSize","type":"uint256","internalType":"uint256"},{"name":"protocolVersion","type":"uint256","internalType":"uint256"}],"outputs":[],"stateMutability":"nonpayable"},{"type":"function","name":"getRequestDetails","inputs":[{"name":"requestId","type":"uint256","internalType":"uint256"}],"outputs":[{"name":"","type":"tuple","internalType":"struct ComputationMarket.Request","components":[{"name":"consumer","type":"address","internalType":"address"},{"name":"paymentForProvider","type":"uint256","internalType":"uint256"},{"name":"totalPaymentForVerifiers","type":"uint256","internalType":"uint256"},{"name":"numOperations","type":"uint256","internalType":"uint256"},{"name":"numVerifiers","type":"uint256","internalType":"uint256"},{"name":"inputFileURLs","type":"string[]","internalType":"string[]"},{"name":"operationFileURL","type":"string","internalType":"string"},{"name":"outputFileURLs","type":"string[]","internalType":"string[]"},{"name":"computationDeadline","type":"uint256","internalType":"uint256"},{"name":"verificationDeadline","type":"uint256","internalType":"uint256"},{"name":"totalPayment","type":"uint256","internalType":"uint256"},{"name":"completed","type":"bool","internalType":"bool"},{"name":"hasBeenComputed","type":"bool","internalType":"bool"},{"name":"numVerifiersSampleSize","type":"uint256","internalType":"uint256"},{"name":"verifiers","type":"address[]","internalType":"address[]"},{"name":"chosenVerifiers","type":"address[]","internalType":"address[]"},{"name":"mainProvider","type":"address","internalType":"address"},{"name":"timeAllocatedForVerification","type":"uint256","internalType":"uint256"},{"name":"layerCount","type":"uint256","internalType":"uint256"},{"name":"layerComputeIndex","type":"uint256","internalType":"uint256"},{"name":"roundIndex","type":"uint256","internalType":"uint256"},{"name":"state","type":"uint8","internalType":"enum ComputationMarket.RequestStates"},{"name":"stake","type":"uint256","internalType":"uint256"},{"name":"paymentPerRoundForVerifiers","type":"uint256","internalType":"uint256"},{"name":"totalPaidForVerification","type":"uint256","internalType":"uint256"},{"name":"protocolVersion","type":"uint256","internalType":"uint256"},{"name":"verifierSelectionCount","type":"uint256","internalType":"uint256"},{"name":"computedTimeByProvider","type":"uint256","internalType":"uint256"}]}],"stateMutability":"view"},{"type":"function","name":"getRoundDetails","inputs":[{"name":"requestId","type":"uint256","internalType":"uint256"},{"name":"roundIndex","type":"uint256","internalType":"uint256"}],"outputs":[{"name":"","type":"tuple","internalType":"struct ComputationMarket.RoundDetailsOutput","components":[{"name":"roundIndex","type":"uint256","internalType":"uint256"},{"name":"layerComputeIndex","type":"uint256","internalType":"uint256"},{"name":"verificationStartTime","type":"uint256","internalType":"uint256"},{"name":"commitEndTime","type":"uint256","internalType":"uint256"},{"name":"providerRevealEndTime","type":"uint256","internalType":"uint256"},{"name":"commitmentRevealEndTime","type":"uint256","internalType":"uint256"},{"name":"majorityVoteHash","type":"bytes32","internalType":"bytes32"},{"name":"majorityCount","type":"uint256","internalType":"uint256"},{"name":"mainProviderAnswerHash","type":"bytes32","internalType":"bytes32"}]}],"stateMutability":"view"},{"type":"function","name":"providerFailure","inputs":[{"name":"requestId","type":"uint256","internalType":"uint256"}],"outputs":[],"stateMutability":"nonpayable"},{"type":"function","name":"providerSuccessCall","inputs":[{"name":"requestId","type":"uint256","internalType":"uint256"}],"outputs":[],"stateMutability":"nonpayable"},{"type":"function","name":"requestCount","inputs":[],"outputs":[{"name":"","type":"uint256","internalType":"uint256"}],"stateMutability":"view"},{"type":"function","name":"requests","inputs":[{"name":"","type":"uint256","internalType":"uint256"}],"outputs":[{"name":"consumer","type":"address","internalType":"address"},{"name":"paymentForProvider","type":"uint256","internalType":"uint256"},{"name":"totalPaymentForVerifiers","type":"uint256","internalType":"uint256"},{"name":"numOperations","type":"uint256","internalType":"uint256"},{"name":"numVerifiers","type":"uint256","internalType":"uint256"},{"name":"operationFileURL","type":"string","internalType":"string"},{"name":"computationDeadline","type":"uint256","internalType":"uint256"},{"name":"verificationDeadline","type":"uint256","internalType":"uint256"},{"name":"totalPayment","type":"uint256","internalType":"uint256"},{"name":"completed","type":"bool","internalType":"bool"},{"name":"hasBeenComputed","type":"bool","internalType":"bool"},{"name":"numVerifiersSampleSize","type":"uint256","internalType":"uint256"},{"name":"mainProvider","type":"address","internalType":"address"},{"name":"timeAllocatedForVerification","type":"uint256","internalType":"uint256"},{"name":"layerCount","type":"uint256","internalType":"uint256"},{"name":"layerComputeIndex","type":"uint256","internalType":"uint256"},{"name":"roundIndex","type":"uint256","internalType":"uint256"},{"name":"state","type":"uint8","internalType":"enum ComputationMarket.RequestStates"},{"name":"stake","type":"uint256","internalType":"uint256"},{"name":"paymentPerRoundForVerifiers","type":"uint256","internalType":"uint256"},{"name":"totalPaidForVerification","type":"uint256","internalType":"uint256"},{"name":"protocolVersion","type":"uint256","internalType":"uint256"},{"name":"verifierSelectionCount","type":"uint256","internalType":"uint256"},{"name":"computedTimeByProvider","type":"uint256","internalType":"uint256"}],"stateMutability":"view"},{"type":"function","name":"returnStake","inputs":[{"name":"requestId","type":"uint256","internalType":"uint256"}],"outputs":[],"stateMutability":"nonpayable"},{"type":"function","name":"returnStakeDueToTimeout","inputs":[{"name":"requestId","type":"uint256","internalType":"uint256"}],"outputs":[],"stateMutability":"nonpayable"},{"type":"function","name":"revealCommitment","inputs":[{"name":"requestId","type":"uint256","internalType":"uint256"},{"name":"agree","type":"bool","internalType":"bool"},{"name":"answer","type":"bytes32","internalType":"bytes32"},{"name":"nonce","type":"bytes32","internalType":"bytes32"}],"outputs":[],"stateMutability":"nonpayable"},{"type":"function","name":"revealProviderKeyAndHash","inputs":[{"name":"requestId","type":"uint256","internalType":"uint256"},{"name":"privateKey","type":"bytes32","internalType":"bytes32"},{"name":"answerHash","type":"bytes32","internalType":"bytes32"}],"outputs":[],"stateMutability":"nonpayable"},{"type":"function","name":"roundDetails","inputs":[{"name":"","type":"uint256","internalType":"uint256"},{"name":"","type":"uint256","internalType":"uint256"}],"outputs":[{"name":"roundIndex","type":"uint256","internalType":"uint256"},{"name":"layerComputeIndex","type":"uint256","internalType":"uint256"},{"name":"verificationStartTime","type":"uint256","internalType":"uint256"},{"name":"commitEndTime","type":"uint256","internalType":"uint256"},{"name":"providerRevealEndTime","type":"uint256","internalType":"uint256"},{"name":"commitmentRevealEndTime","type":"uint256","internalType":"uint256"},{"name":"majorityVoteHash","type":"bytes32","internalType":"bytes32"},{"name":"majorityCount","type":"uint256","internalType":"uint256"},{"name":"mainProviderAnswerHash","type":"bytes32","internalType":"bytes32"}],"stateMutability":"view"},{"type":"function","name":"selectRequest","inputs":[{"name":"requestId","type":"uint256","internalType":"uint256"}],"outputs":[],"stateMutability":"nonpayable"},{"type":"function","name":"startNextRound","inputs":[{"name":"requestId","type":"uint256","internalType":"uint256"}],"outputs":[],"stateMutability":"nonpayable"},{"type":"function","name":"submitCommitment","inputs":[{"name":"requestId","type":"uint256","internalType":"uint256"},{"name":"computedHash","type":"bytes32","internalType":"bytes32"}],"outputs":[],"stateMutability":"nonpayable"},{"type":"function","name":"verificationDeadlinePassedForVeryfying","inputs":[{"name":"requestId","type":"uint256","internalType":"uint256"},{"name":"roundNum","type":"uint256","internalType":"uint256"}],"outputs":[],"stateMutability":"nonpayable"},{"type":"event","name":"CommitmentPhaseStarted","inputs":[{"name":"requestId","type":"uint256","indexed":true,"internalType":"uint256"},{"name":"startTime","type":"uint256","indexed":false,"internalType":"uint256"},{"name":"endTime","type":"uint256","indexed":false,"internalType":"uint256"},{"name":"layerComputeIndex","type":"uint256","indexed":false,"internalType":"uint256"}],"anonymous":false},{"type":"event","name":"CommitmentSubmitted","inputs":[{"name":"requestId","type":"uint256","indexed":true,"internalType":"uint256"},{"name":"verifier","type":"address","indexed":true,"internalType":"address"}],"anonymous":false},{"type":"event","name":"NoMajorityForRound","inputs":[{"name":"requestId","type":"uint256","indexed":true,"internalType":"uint256"},{"name":"layerComputeIndex","type":"uint256","indexed":false,"internalType":"uint256"}],"anonymous":false},{"type":"event","name":"ProviderResultSuccessfullyVerified","inputs":[{"name":"requestId","type":"uint256","indexed":true,"internalType":"uint256"}],"anonymous":false},{"type":"event","name":"ProviderResultUnsuccessful","inputs":[{"name":"requestId","type":"uint256","indexed":true,"internalType":"uint256"}],"anonymous":false},{"type":"event","name":"ProviderRevealed","inputs":[{"name":"requestId","type":"uint256","indexed":true,"internalType":"uint256"},{"name":"privateKey","type":"bytes32","indexed":false,"internalType":"bytes32"},{"name":"answerHash","type":"bytes32","indexed":false,"internalType":"bytes32"}],"anonymous":false},{"type":"event","name":"ProviderSelected","inputs":[{"name":"requestId","type":"uint256","indexed":true,"internalType":"uint256"},{"name":"provider","type":"address","indexed":true,"internalType":"address"}],"anonymous":false},{"type":"event","name":"ProviderSlashed","inputs":[{"name":"requestId","type":"uint256","indexed":true,"internalType":"uint256"},{"name":"provider","type":"address","indexed":true,"internalType":"address"}],"anonymous":false},{"type":"event","name":"RequestCompleted","inputs":[{"name":"requestId","type":"uint256","indexed":true,"internalType":"uint256"},{"name":"provider","type":"address","indexed":true,"internalType":"address"}],"anonymous":false},{"type":"event","name":"RequestCreated","inputs":[{"name":"requestId","type":"uint256","indexed":true,"internalType":"uint256"},{"name":"consumer","type":"address","indexed":true,"internalType":"address"}],"anonymous":false},{"type":"event","name":"RevealVerificationDetails","inputs":[{"name":"requestId","type":"uint256","indexed":true,"internalType":"uint256"},{"name":"endTime","type":"uint256","indexed":false,"internalType":"uint256"},{"name":"verifier","type":"address","indexed":true,"internalType":"address"}],"anonymous":false},{"type":"event","name":"RoundInitialised","inputs":[{"name":"requestId","type":"uint256","indexed":true,"internalType":"uint256"}],"anonymous":false},{"type":"event","name":"RoundRevealStarted","inputs":[{"name":"requestId","type":"uint256","indexed":true,"internalType":"uint256"}],"anonymous":false},{"type":"event","name":"RoundStartedForVerificationSelection","inputs":[{"name":"requestId","type":"uint256","indexed":true,"internalType":"uint256"},{"name":"layerComputeIndex","type":"uint256","indexed":false,"internalType":"uint256"}],"anonymous":false},{"type":"event","name":"VerificationApplied","inputs":[{"name":"requestId","type":"uint256","indexed":true,"internalType":"uint256"},{"name":"verifier","type":"address","indexed":true,"internalType":"address"},{"name":"layerComputeIndex","type":"uint256","indexed":true,"internalType":"uint256"}],"anonymous":false},{"type":"event","name":"VerificationSelectionStarted","inputs":[{"name":"requestId","type":"uint256","indexed":true,"internalType":"uint256"},{"name":"layerComputeIndex","type":"uint256","indexed":false,"internalType":"uint256"}],"anonymous":false},{"type":"event","name":"VerifierChosen","inputs":[{"name":"requestId","type":"uint256","indexed":true,"internalType":"uint256"},{"name":"verifier","type":"address","indexed":true,"internalType":"address"},{"name":"layerComputeIndex","type":"uint256","indexed":true,"internalType":"uint256"},{"name":"verifierIndex","type":"uint256","indexed":false,"internalType":"uint256"}],"anonymous":false},{"type":"event","name":"VerifierUnchosen","inputs":[{"name":"requestId","type":"uint256","indexed":true,"internalType":"uint256"},{"name":"verifier","type":"address","indexed":true,"internalType":"address"},{"name":"layerComputeIndex","type":"uint256","indexed":true,"internalType":"uint256"},{"name":"verifierIndex","type":"uint256","indexed":false,"internalType":"uint256"}],"anonymous":false},{"type":"event","name":"VoteSubmitted","inputs":[{"name":"requestId","type":"uint256","indexed":true,"internalType":"uint256"},{"name":"verifier","type":"address","indexed":true,"internalType":"address"},{"name":"agree","type":"bool","indexed":false,"internalType":"bool"}],"anonymous":false},{"type":"event","name":"requestCancelled","inputs":[{"name":"requestId","type":"uint256","indexed":true,"internalType":"uint256"}],"anonymous":false}],"bytecode":{"object":"0x608034620000c657601f62004cc638819003918201601f19168301916001600160401b03831184841017620000cb57808492602094604052833981010312620000c657516001600160a01b03811690819003620000c65780156200008157600080546001600160a01b031916919091179055604051614be49081620000e28239f35b60405162461bcd60e51b815260206004820152601560248201527f496e76616c696420746f6b656e206164647265737300000000000000000000006044820152606490fd5b600080fd5b634e487b7160e01b600052604160045260246000fdfe610200604052600436101561001357600080fd5b60003560e01c80630625f16114613a3857806309008563146138ce578063275d95a1146137c55780633015394c146137a95780633295845c1461378d5780633d8a8ea7146134c75780634beda221146132ef57806353e2ba17146132d357806358042f62146132225780635badbe4c146132045780635e16a9d8146131e85780636605dfa7146131bf5780636d8f9a0e14612d4a57806381d12c5814612b1c578063847ada571461257c5780638ea49eca146124ee578063951c5ce214611f89578063ad1279d9146111cb578063b10ceb5914611035578063bfdb345114610c5a578063ddf3532c14610b36578063e03ad0d1146108f2578063e20fb7a1146106da578063e6a3d9dc146105655763f34d4c631461013057600080fd5b3461056057602036600319011261056057600061036060405161015281613da0565b828152826020820152826040820152826060820152826080820152606060a0820152606060c0820152606060e08201528261010082015282610120820152826101408201528261016082015282610180820152826101a082015260606101c082015260606101e08201528261020082015282610220820152826102408201528261026082015282610280820152826102a0820152826102c0820152826102e08201528261030082015282610320820152826103408201520152600435600052600260205260406000206040519061022882613da0565b80546001600160a01b031682526001810154602083015260028101546040830152600381015460608301526004810154608083015261026960058201614784565b60a083015261027a60068201613f6b565b60c083015261028b60078201614784565b60e083015260088101546101008301526009810154610120830152600a81015461014083015260ff600b820154818116151561016085015260081c161515610180830152600c8101546101a08301526102e6600d82016147d9565b6101c08301526102f8600e82016147d9565b6101e0830152600f8101546001600160a01b03166102008301526010810154610220830152601181015461024083015260128101546102608301526013810154610280830152601481015460ff1690600982101561054a57601a916102a084015260158101546102c084015260168101546102e0840152601781015461030084015260188101546103208401526019810154610340840152015461036082015260405180916020825260018060a01b038151166020830152602081015160408301526040810151606083015260608101516080830152608081015160a08301526103606104ab61049361042f61041861040260a087015161038060c08a01526103a089019061405d565b60c0870151888203601f190160e08a0152614010565b60e0860151878203601f190161010089015261405d565b610100850151610120870152610120850151610140870152610140850151610160870152610160850151151561018087015261018085015115156101a08701526101a08501516101c08701526101c0850151601f19878303016101e08801526140ba565b6101e0840151858203601f19016102008701526140ba565b9160018060a01b03610200820151166102208501526102208101516102408501526102408101516102608501526102608101516102808501526102808101516102a08501526105046102a08201516102c0860190614050565b6102c08101516102e08501526102e08101516103008501526103008101516103208501526103208101516103408501526103408101518285015201516103808301520390f35b634e487b7160e01b600052602160045260246000fd5b600080fd5b346105605760403660031901126105605760043580600052602060028152604060002090600481526040600020601383015490816000528252604060002033600052825260ff6014604060002094015416600981101561054a576003036106895783600052600382526040600020816000528252600760406000200154421161064b5783600052600382526040600020906000528152600360406000200190336000525261061a60ff60406000205416614713565b600460243591015533907f22d30f6da93667100b64d15e5ea70afec217caeab1008706f57bfa4deed12c63600080a3005b60405162461bcd60e51b815260048101839052601660248201527510dbdb5b5a5d1b595b9d081c1a185cd948195b99195960521b6044820152606490fd5b60405162461bcd60e51b815260048101839052602360248201527f52657175657374206e6f742079657420696e20636f6d6d69746d656e7420737460448201526261746560e81b6064820152608490fd5b34610560576060366003190112610560576004356044358160005260206002815260406000209160018060a01b03600f84015416330361089257836000526003825260406000209060138401549182600052835260076040600020015442111561084d57846000526003835260406000208260005283526008604060002001544211610808576040519183830192828452600160f81b60408201526021815260608101938185106001600160401b038611176107f2577f4b8ecdcde49a7d4d879a4bf5a6cc37c7086e65774f161d4bf99c01aaa1882f8996604096608094601493888a5285519020918b60005260038152896000209160005252600c88600020015501600460ff1982541617905560243584520152a2005b634e487b7160e01b600052604160045260246000fd5b60405162461bcd60e51b815260048101849052601b60248201527f50726f76696465722072657665616c20706861736520656e64656400000000006044820152606490fd5b60405162461bcd60e51b815260048101849052601a60248201527f436f6d6d69746d656e74207068617365206e6f7420656e6465640000000000006044820152606490fd5b60405162461bcd60e51b815260048101839052603260248201527f4f6e6c7920746865206d61696e2070726f76696465722063616e2072657665616044820152710d840e8d0ca40d6caf240c2dcc840d0c2e6d60731b6064820152608490fd5b34610560576020806003193601126105605760043590816000526002815260406000206109256008820154421115614104565b600f810180546001600160a01b0393908416610af2576015830154600054604051636eb1769f60e11b8152336004820152306024820152919516908281604481855afa908115610a8857600091610ac5575b506040516370a0823160e01b8152336004820152908382602481865afa918215610a8857600092610a94575b5091866109c4816109f4946109bd60009b8998101561460f565b101561460f565b6040516323b872dd60e01b8152336004820152306024820152604481019190915296879283919082906064820190565b03925af18015610a8857601494610a1492600092610a5b575b505061460f565b336001600160601b0360a01b82541617905501600160ff1982541617905533907f3c84569ae9be7c8e6e8edf0c0cbeb7e00cf9cb4d9b67849728be8ab96e09bec1600080a3005b610a7a9250803d10610a81575b610a728183613e0e565b8101906141d5565b8680610a0d565b503d610a68565b6040513d6000823e3d90fd5b9150918382813d8311610abe575b610aac8183613e0e565b810103126105605790519091866109a3565b503d610aa2565b90508281813d8311610aeb575b610adc8183613e0e565b81010312610560575187610977565b503d610ad2565b6064906040519062461bcd60e51b82526004820152601960248201527f50726f766964657220616c72656164792073656c6563746564000000000000006044820152fd5b3461056057610120610b4736613f1b565b60405191610b5483613dbc565b6000835260006020840152600060408401526000606084015260006080840152600060a0840152600060c0840152600060e08401526000610100809401526000526003602052604060002090600052602052604060002090600482015491600581015490600681015460078201546008830154600984015491600a85015493600c600b8701549601549688604051610beb81613dbc565b8b81526020810192835260408101938452606081019485526080810195865260a0810196875260c0810197885260e0810198895201978852604051998a525160208a01525160408901525160608801525160808701525160a08601525160c08501525160e08401525190820152f35b34610560576080366003190112610560576004356024908135918215158093036105605760449081356064948535958560005260209660028852604060002094600393848a526040600020956013880196875490816000528c52600860406000200154421115610ff3578a600052868c526040600020816000528c526009604060002001544211610fbc578a600052868c526040600020816000528c5286604060002001336000528c5260ff6040600020541615610f7a578a60005260048c526040600020906000528b526040600020336000528b526040600020928684019586549a60ff8c16610f3a578d604051908101908582528860408201523360601b606082015260548152610d6c81613dd8565b519020600487015403610f025750506040518c8101918383528460f81b60408301526021825260608201908282106001600160401b03831117610eee57509260149997959260059b999795928c9560405251902095869584549260018601556002850155600160ff19809e16179055339160ff60a01b9060a01b16906affffffffffffffffffffff60a81b1617178155015587600052818952604060002083546000528952604060002081600052808a526040600020610e2c8154614775565b905581600052808a5260406000205491600b820192835490818114600014610ea55750505050508660005287526040600020905460005286526000600a6040822001555b01918254161790557fb59f6416758d4763386b2c83d12c7c643131c90beff0caea486f303510702ce3604051924284523393a3005b95929491939511610ebb575b5050505050610e70565b896000528a5260406000209054600052895280600a60406000200155600052875260406000205490558680808080610eb1565b634e487b7160e01b60009081526041600452fd5b74496e76616c69642072657665616c2076616c75657360581b8e916015856040519462461bcd60e51b86526004860152840152820152fd5b7f436f6d6d69746d656e7420616c72656164792072657665616c656400000000008e91601b856040519462461bcd60e51b86526004860152840152820152fd5b60405162461bcd60e51b8152600481018d9052601f818601527f596f7520617265206e6f74207468652063686f73656e20766572696669657200818c01528690fd5b60405162461bcd60e51b8152600481018d90526012818601527114995d99585b081c1a185cd948195b99195960721b818c01528690fd5b60405162461bcd60e51b8152600481018d9052601f818601527f50726f76696465722072657665616c207068617365206e6f7420656e64656400818c01528690fd5b3461056057602080600319360112610560576004359081600052600281526040600020906009820154421015806111b0575b806111a1575b1561114a576110e590600b83019260ff19936001858254161790558160018060a01b03806000541690600f84015416906110b060158501546001860154906140f7565b60405163a9059cbb60e01b81526001600160a01b03909316600484015260248301529094859190829060009082906044820190565b03925af1918215610a885760069360149361112c575b505001918254161790557f953601eba1acf6d4769af39f3986a5be6acd796655930c93832c2f239fbccabf600080a2005b8161114292903d10610a8157610a728183613e0e565b5085806110fb565b6084906040519062461bcd60e51b82526004820152602a60248201527f566572696669636174696f6e20446561646c696e6520686173206e6f7420626560448201526932b7103830b9b9b2b21760b11b6064820152fd5b5060ff600b830154161561106d565b5060ff601483015416600981101561054a5760071415611067565b3461056057610160366003190112610560576084356001600160401b038111610560576111fc903690600401613e9c565b60a4356001600160401b0381116105605761121b903690600401613e46565b906103e76044350160443511611c395761124d6103e86103e7604435010461124861012435602435614150565b614150565b9161125a836004356140f7565b600360643510611f4457600054604051636eb1769f60e11b81523360048201523060248201526001600160a01b0390911690602081604481855afa908115610a8857600091611f12575b506040516370a0823160e01b8152336004820152602081602481865afa918215610a88578491600093611edb575b5010611e7a578211611e1b576040516323b872dd60e01b81523360048201523060248201526044810183905290602090829060649082906000905af1908115610a8857600091611dfc575b5015611dc6574260c4351115611d5b5761010435600361010435020460031461010435151715611c395761136c611364600361010435026103e86103e76044350104614150565b60c4356140f7565b60e4351115611ce0576101243560643510611c4f5760405161138d81613df3565b600081526040519261139e84613df3565b60008452604051946113af86613df3565b60008652600435600a6004350204600a14600435151715611c3957604051966113d788613da0565b338852600435602089015260408801526044356060880152606435608088015260a087015260c086015260e085015260c43561010085015260e43561012085015261014084015260006101608401526000610180840152610124356101a08401526101c08301526101e08201526000610200820152610104356102208201526103e86103e760443501046102408201526000610260820152600061028082015260006102a08201526064600a60043502046102c08201526024356102e0820152600061030082015261014435610320820152600061034082015260006103608201526001546000526002602052604060002060018060a01b038251166001600160601b0360a01b8254161781556020820151600182015560408201516002820155606082015160038201556080820151600482015560a0820151805190600160401b82116107f2576005830154826005850155808310611bc0575b5060200190600583016000526020600020916000905b828210611aa757858560c08201519182516001600160401b0381116107f2576115746006840154613f31565b601f8111611a72575b506020601f8211600114611a045781906115b09394956000926119f9575b50508160011b916000199060031b1c19161790565b60068301555b60e0810151805190600160401b82116107f2576007840154826007860155808310611981575b5060200190600784016000526020600020916000905b82821061185b57858561010081015160088301556101208101516009830155610140810151600a830155600b82016101608201511515815460ff61ff00610180860151151560081b1692169061ffff1916171790556101a0810151600c8301556101c08101518051906001600160401b0382116107f257600160401b82116107f257602090600d85015483600d87015580841061183b575b5001600d8401600052602060002060005b83811061181e5785856101e08101518051906001600160401b0382116107f257600160401b82116107f257602090600e85015483600e8701558084106117fe575b5001600e8401600052602060002060005b8381106117e1578585600f820160018060a01b03610200830151166001600160601b0360a01b825416179055610220810151601083015561024081015160118301556102608101516012830155610280810151601383015560148201906102a081015190600982101561054a57601a926103609260ff801983541691161790556102c081015160158501556102e0810151601685015561030081015160178501556103208101516018850155610340810151601985015501519101556117b4600154614775565b8060015533907f233bb55fd57b21b8a3d15c9ad8fbbab435fe4cf2865cc654f6a57d9d4d8cda54600080a3005b82516001600160a01b0316818301556020909201916001016116ed565b61181890600e870160005284846000209182019101614163565b856116dc565b82516001600160a01b03168183015560209092019160010161169b565b61185590600d870160005284846000209182019101614163565b8561168a565b80518051906001600160401b0382116107f2576118788654613f31565b601f8111611944575b50602090601f83116001146118d457926118ba836001959460209487966000926118c95750508160011b916000199060031b1c19161790565b87555b019401910190926115f2565b015190508c8061159b565b908660005260206000209160005b601f198516811061192c575083602093600196938796938794601f19811610611913575b505050811b0187556118bd565b015160001960f88460031b161c191690558b8080611906565b919260206001819286850151815501940192016118e2565b61197190876000526020600020601f850160051c81019160208610611977575b601f0160051c0190614163565b88611881565b9091508190611964565b600785016000526020600020908382015b81830181106119a25750506115dc565b806119af60019254613f31565b806119bc575b5001611992565b601f811183146119d25750600081555b886119b5565b6000908282526119f0601f60208420920160051c8201858301614163565b818355556119cc565b01519050858061159b565b6006840160005260206000209060005b601f1984168110611a5a5750600193949583601f19811610611a41575b505050811b0160068301556115b6565b015160001960f88460031b161c19169055848080611a31565b9091602060018192858a015181550193019101611a14565b611aa190600685016000526020600020601f840160051c8101916020851061197757601f0160051c0190614163565b8461157d565b80518051906001600160401b0382116107f257611ac48654613f31565b90601f91828111611b86575b506020918311600114611b165792611b07836001959460209487966000926118c95750508160011b916000199060031b1c19161790565b87555b01940191019092611548565b908660005260206000209160005b601f1985168110611b6e575083602093600196938796938794601f19811610611b55575b505050811b018755611b0a565b015160001960f88460031b161c191690558b8080611b48565b91926020600181928685015181550194019201611b24565b611bb1908860005260206000208480870160051c82019260208810611bb7575b0160051c0190614163565b89611ad0565b92508192611ba6565b600584016000526020600020908382015b8183018110611be1575050611532565b80611bee60019254613f31565b80611bfb575b5001611bd1565b601f908181118414611c14575050600081555b88611bf4565b611c3060009284845260208420920160051c8201858301614163565b81835555611c0e565b634e487b7160e01b600052601160045260246000fd5b60405162461bcd60e51b815260206004820152605d60248201527f4e6f7420656e6f7567682076657269666965727320746f2063686f6f7365206660448201527f726f6d2e206e756d566572696669657273206d7573742062652067726561746560648201527f72207468616e206e756d56657269666965727353616d706c6553697a65000000608482015260a490fd5b60405162461bcd60e51b815260206004820152604760248201527f566572696669636174696f6e20646561646c696e65206d75737420626520737560448201527f6666696369656e7420656e6f75676820666f7220616c6c20726f756e64732072606482015266195c5d5a5c995960ca1b608482015260a490fd5b60405162461bcd60e51b815260206004820152603c60248201527f436f6d7075746174696f6e616c20646561646c696e65206d757374206265206760448201527f726561746572207468616e207468652063757272656e742074696d65000000006064820152608490fd5b60405162461bcd60e51b815260206004820152600e60248201526d14185e5b595b9d0819985a5b195960921b6044820152606490fd5b611e15915060203d602011610a8157610a728183613e0e565b8561131d565b60405162461bcd60e51b815260206004820152603160248201527f496e73756666696369656e742062616c616e636520617661696c61626c6520746044820152701bc818dbdb991d58dd081c995c5d595cdd607a1b6064820152608490fd5b60405162461bcd60e51b815260206004820152603360248201527f496e73756666696369656e7420616c6c6f77616e636520617661696c61626c65604482015272081d1bc818dbdb991d58dd081c995c5d595cdd606a1b6064820152608490fd5b915091506020813d602011611f0a575b81611ef860209383613e0e565b810103126105605783905191886112d2565b3d9150611eeb565b90506020813d602011611f3c575b81611f2d60209383613e0e565b810103126105605751866112a4565b3d9150611f20565b60405162461bcd60e51b815260206004820152601d60248201527f4174206c656173742033207665726966696572732072657175697265640000006044820152606490fd5b346105605760203660031901126105605760043560005260026020526040600020600d810154600482018054820361249f5760ff600b84015460081c161561245057600c8301918254116123ff57600983015460108401549081600302916003830403611c3957611ffd61200492426140f7565b1115614650565b600435600052600360205260406000206013840154908160005260205260016040600020013360005260205260ff604060002054166123ba5760043560005260036020526040600020906000526020526001604060002001336000526020526040600020600160ff19825416179055601983015482549081811060001461226c575050546120976019840154809261444f565b60405160208101904282524460408201523360601b6060820152605481526120be81613dd8565b51902090801561225657826120d79161214093066140f7565b6121226121066120ea83600d89016146c2565b905460039190911b1c6001600160a01b031694600d88016146c2565b905460039190911b1c6001600160a01b031691600d87016146c2565b90919060018060a01b038084549260031b9316831b921b1916179055565b612155816121226019860154600d87016146c2565b601983015461216781600d86016146c2565b60018060a01b0391549060031b1c166012850154916040519081527f441ea878e9821f31af14375bef585bac76bbbde0e10feddc036673243d01a1d7602060043592a46004356000526003602052604060002060138401546000526020526003604060002001906000526020526040600020600160ff198254161790556122136121f86019840154600d85016146c2565b905460039190911b1c6001600160a01b0316600e84016146f0565b6016820154612227601784019182546140f7565b90555b60198201549160018301809311611c3957601983910155541461224957005b6122546004356149af565b005b634e487b7160e01b600052601260045260246000fd5b1490506123aa575b6019820154612326602061228b83600d87016146c2565b939060018060a01b03948591549060031b1c166012870154906040518381527fd2673c2f320637ecd6e1e7a21780cb318c5a6c5b49398f8c5ae9d0ae0aad47438560043592a4836122e4816000541692600d89016146c2565b90549060031b1c1690601687015491600060405180968195829463a9059cbb60e01b84526004840160209093929193604081019460018060a01b031681520152565b03925af18015610a885761238b575b506004356000526005602052604060002060138401546000526020526040600020906123686019850154600d86016146c2565b90549060031b1c166000526020526040600020600160ff1982541617905561222a565b6123a39060203d602011610a8157610a728183613e0e565b5083612335565b6123b56004356149af565b612274565b60405162461bcd60e51b815260206004820152601e60248201527f56657269666965722068617320616c72656164792074726967676572656400006044820152606490fd5b60405162461bcd60e51b815260206004820152602360248201527f4e6f7420656e6f7567682076657269666965727320746f2063686f6f73652066604482015262726f6d60e81b6064820152608490fd5b60405162461bcd60e51b815260206004820152602160248201527f5265717565737420686173206e6f74206265656e20636f6d70757465642079656044820152601d60fa1b6064820152608490fd5b60405162461bcd60e51b815260206004820152602160248201527f5665726966696572206c69737420686173206e6f74206265656e2066696c6c656044820152601960fa1b6064820152608490fd5b34610560576124fc36613f1b565b9060005260036020526040600020906000526020526101206040600020600481015490600581015490600681015460078201546008830154600984015491600a85015493600c600b87015496015496604051988952602089015260408801526060870152608086015260a085015260c084015260e0830152610100820152f35b346105605761258a36613f1b565b8160005260206002815260406000209060039182825260406000208460005282526125bf60096040600020015442101561417a565b846000528282526040600020846000528252826040600020013360005282526125ef60ff60406000205416614713565b84600052600482526040600020846000528252604060002033600052825260ff60066040600020015416612ac357601381019283548511612a5857600185106129fb5785600052600483526040600020856000528352604060002033600052835260066040600020019060ff1991600183825416179055866000528084526040600020866000528452600a604060002001548015600014612705575050600080546016939093015460405163a9059cbb60e01b815233600482015260248101919091529284925083916044918391906001600160a01b03165af18015610a88576126e7575b505054146126de57005b61225490614833565b816126fd92903d10610a8157610a728183613e0e565b5083806126d4565b90929591948760005260048552604060002083600052855260406000203360005285526005604060002001548214612944575b549282841461274357005b6000888152908552604080822084835286529020600c01541461278657505050506014015460ff16600981101561054a5760070361277d57005b6122549061445c565b6012859293949695019260118454930154916000198301838111611c3957840361291057505050506127b88154614775565b90558160005260028152604060002092601484019160ff835416600981101561054a576007146128cc57600b8501805460ff8116612887579582916001856128279798991617905560018060a01b036110b0816000541691600f840154169260016015820154910154906140f7565b03925af1928315610a8857600693612869575b50508254161790557f953601eba1acf6d4769af39f3986a5be6acd796655930c93832c2f239fbccabf600080a2005b8161287f92903d10610a8157610a728183613e0e565b50848061283a565b60405162461bcd60e51b815260048101849052601c60248201527f5265717565737420697320616c726561647920636f6d706c65746564000000006044820152606490fd5b6064906040519062461bcd60e51b82526004820152601760248201527f5265717565737420697320756e7375636365737366756c0000000000000000006044820152fd5b91939450919550149081612939575b5061292657005b61293261225493614775565b9055614833565b90508314158461291f565b6016870154612957600c89015482614150565b9089600052858752604060002085600052875260406000208460005287526040600020549081156122565760009261299f6129c9928a9460018060a01b0387541693046140f7565b60405163a9059cbb60e01b8152336004820152602481019190915293849283919082906044820190565b03925af18015610a88576129de575b50612738565b6129f490863d8811610a8157610a728183613e0e565b50886129d8565b60405162461bcd60e51b815260048101849052602f60248201527f526f756e64206e756d626572206d75737420626520677265617465722074686160448201526e6e206f7220657175616c20746f203160881b6064820152608490fd5b60405162461bcd60e51b815260048101849052603a60248201527f726f756e64206e756d206d757374206265206c657373207468616e206f72206560448201527f7175616c20746f20726571756573742e726f756e64496e6465780000000000006064820152608490fd5b60405162461bcd60e51b815260048101839052602b60248201527f596f75206861766520616c7265616479206265656e207061696420666f72207660448201526a32b934b334b1b0ba34b7b760a91b6064820152608490fd5b3461056057602036600319011261056057600435600052600260205260406000206101e05260018060a01b03612cfb816101e051541660016101e05101549060026101e05101546101405260036101e05101546101605260046101e05101546101a052612b8e60066101e05101613f6b565b60086101e05101546101205260096101e051015494600a6101e051015490600b6101e051015490600c6101e051015490600f6101e0510154169060ff60106101e05101549360116101e051015495612c8960126101e05101549860136101e05101549a8560146101e0510154169c60156101e051015460805260166101e051015460a05260176101e051015460e05260186101e05101546101c05260196101e051015461018052601a6101e05101546101005260405160c0526103009160c05152602060c051015261014051604060c051015261016051606060c05101526101a051608060c05101528060a060c051015260c0510190614010565b9b6101205160c08051015260e060c051015261010060c0510152818116151561012060c051015260081c16151561014060c051015261016060c051015261018060c05101526101a060c05101526101c060c05101526101e060c051015261020060c051015261022060c0510190614050565b60805161024060c051015260a05161026060c051015260e05161028060c05101526101c0516102a060c0510152610180516102c060c0510152610100516102e060c051015260c051900360c051f35b34610560576020806003193601126105605760043590816000526002815260406000209060ff600b83015460081c161561317b57600f8201546001600160a01b0392908316331461311a57600d8101908154936004820194855411156130dc5760ff601483015416600981101561054a5760020361304b57600054604051636eb1769f60e11b81523360048201523060248201529116908481604481855afa908115610a885760009161301e575b506040516370a0823160e01b8152336004820152908582602481865afa8015610a88578692600091612feb575b50926109bd612e44612e7493600096601689015493848093101561460f565b6040516323b872dd60e01b8152336004820152306024820152604481019190915293849283919082906064820190565b03925af18015610a8857612e9091600091612fce575b5061460f565b600981015460108201549081600302916003830403611c3957611ffd612eb692426140f7565b84600052600383526040600020601382015490816000528452600260406000200133600052845260ff60406000205416612f8957906012918660005260038552604060002090600052845260026040600020013360005284526040600020600160ff19825416179055612f2933846146f0565b015492604051918433877f9e9159f67684b4639ef3d20a0878e965d2fa78dc33561fadb2485cd3d3447abf600080a454905414612f6257005b7fac6c772803856f8be288c38a92349502c9d976deccefb05524c4eafedf049aeb928152a2005b60405162461bcd60e51b815260048101859052601860248201527f566572696669657220616c7265616479206170706c69656400000000000000006044820152606490fd5b612fe59150853d8711610a8157610a728183613e0e565b87612e8a565b8381939492503d8311613017575b6130038183613e0e565b8101031261056057518591906109bd612e25565b503d612ff9565b90508481813d8311613044575b6130358183613e0e565b81010312610560575187612df8565b503d61302b565b60405162461bcd60e51b815260048101859052605960248201527f56657269666965722063616e6e6f74206170706c7920666f722076657269666960448201527f636174696f6e2e2052657175657374207374617465206d75737420626520696e60648201527f2063686f6f73696e672076657269666965727320737461746500000000000000608482015260a490fd5b60405162461bcd60e51b815260048101859052601660248201527515995c9a599a595c881b1a5b5a5d081c995858da195960521b6044820152606490fd5b60405162461bcd60e51b815260048101839052603360248201527f546865206d61696e2070726f76696465722063616e6e6f74206170706c79207460448201527237903132b1b7b6b29030903b32b934b334b2b960691b6064820152608490fd5b6064906040519062461bcd60e51b82526004820152601860248201527f52657175657374206e6f742079657420636f6d707574656400000000000000006044820152fd5b34610560576000366003190112610560576000546040516001600160a01b039091168152602090f35b34610560576000366003190112610560576020604051600a8152f35b34610560576000366003190112610560576020600154604051908152f35b346105605760203660031901126105605760405160043533817f1d961eb7779cdf87f83b3c5ca1e5a7b0b7832f5fc1f9b813fea6787daf0e884c600080a3600052600260205260406000209060ff600b830154166132865750601a42910155600080f35b62461bcd60e51b815260206004820152602260248201527f526571756573742068617320616c7265616479206265656e20636f6d706c6574604482015261195960f21b6064820152608490fd5b3461056057600036600319011261056057602060405160038152f35b34610560576132fd36613f1b565b9080600052602091600283526040600020916009830154601084015480600302906003820403611c395761333190426140f7565b11156134715780600052600384526040600020826000528452600260406000200133600052845260ff60406000205416156133f05760009081526003845260408082209282529184528181203380835260029091018552828220805460ff19169055815460169490940154925163a9059cbb60e01b81526004810191909152602481019290925290918391839160449183916001600160a01b03165af18015610a88576133da57005b8161225492903d10610a8157610a728183613e0e565b60405162461bcd60e51b815260048101859052604d60248201527f5665726966696572206861732065697468657220616c7265616479207265636960448201527f65766564207374616b652c206f7220646964206e6f74206170706c7920666f7260648201526c103b32b934b334b1b0ba34b7b760991b608482015260a490fd5b60405162461bcd60e51b815260048101859052602860248201527f566572696669636174696f6e20646561646c696e6520686173206e6f742079656044820152671d081c185cdcd95960c21b6064820152608490fd5b3461056057602080600319360112610560576004358060005260028252604060002090600383526040600020916013810192835490816000528552600260406000200133600052855260ff6040600020541615613738576009820154601083015480600302906003820403611c395761354090426140f7565b11156136cd5760ff601483015416600981101561054a576002036136745790849183600052600583526040600020906000528252604060002033600052825260ff6040600020541660001461362a576000805460169092015460405163a9059cbb60e01b81523360048201526024810191909152929183916001600160a01b039190911690829081604481015b03925af18015610a885761360d575b50600052600582526040600020905460005281526040600020903360005252604060002060ff198154169055600080f35b61362390843d8611610a8157610a728183613e0e565b50836135dc565b600080546016929092015460405163a9059cbb60e01b81523360048201526024810191909152945091925083916044918391906001600160a01b03165af18015610a88576133da57005b60405162461bcd60e51b815260048101869052602b60248201527f52657175657374204d75737420626520696e2063686f6f73696e67207665726960448201526a666965727320737461746560a81b6064820152608490fd5b60405162461bcd60e51b815260048101869052603f60248201527f5374696c6c20656e6f7567682074696d6520746f20706572666f726d20726f7560448201527f6e64206265666f726520766572696669636174696f6e20646561646c696e65006064820152608490fd5b60405162461bcd60e51b815260048101869052602760248201527f596f7520617265206e6f742074686520766572696669657220666f72207468696044820152661cc81c9bdd5b9960ca1b6064820152608490fd5b346105605760203660031901126105605761225460043561445c565b34610560576020366003190112610560576122546004356141ed565b346105605760208060031936011261056057600435806000526002825260406000209060058352604060002091601381019283546000528452604060002033600052845260ff6040600020541615613857576000805460169092015460405163a9059cbb60e01b8152336004820152602481019190915291859183916001600160a01b031690829081604481016135cd565b60405162461bcd60e51b815260048101859052604360248201527f456974686572207374616b652068617320616c7265616479206265656e20726560448201527f7475726e65642c206f72206e6f742074686520636f727265637420766572696660648201526234b2b960e91b608482015260a490fd5b346105605760208060031936011261056057600435908160005260028152604060002060ff601482015416600981101561054a576005036139e0578260005260038252601360406000209101549081600052825261393660096040600020015442101561417a565b82600052600382526040600020816000528252600a604060002001549083600052600383526040600020906000528252600c604060002001540361397d5761225482614833565b6084906040519062461bcd60e51b82526004820152603660248201527f50726f766964657220616e73776572206861736820646f6573206e6f74206d616044820152750e8c6d040dac2d4dee4d2e8f240ecdee8ca40d0c2e6d60531b6064820152fd5b60405162461bcd60e51b815260048101839052602a60248201527f52657175657374206e6f742079657420696e20636f6d6d69746d656e742072656044820152697665616c20737461746560b01b6064820152608490fd5b346105605760403660031901126105605760246004356001600160401b03823581811161056057613a6d903690600401613e9c565b82600052602060028152604060002092601a840193845460028101809111613d8b574210613d2157613aa56008820154421115614104565b600f8101546001600160a01b03163303613ccb5780600b6007920161010061ff00198254161790550190835193600160401b8511613cb65783908354868555808710613c3c575b506000938452848420939891015b858910613b0d5742875561225488614833565b8051805190848211613c275790869291613b278754613f31565b90601f91828111613bef575b5084918311600114613b81578260019593869593613b6793600092613b765750508160011b916000199060031b1c19161790565b87555b01940198019792613afa565b015190508f8061159b565b90601f9493941983169188600052846000209260005b818110613bd75750916001969391858897969410613bbe575b505050831b83018755613b6a565b015160001960f88460031b161c191690558d8080613bb0565b8284015185558b966001909501949384019301613b97565b613c18908960005286600020600585808801821c8301938a8910613c1e575b01901c0190614163565b8d613b33565b93508293613c0e565b83634e487b7160e01b60005260416004526000fd5b84600052868360002091820191015b818110613c585750613aec565b600191929350613c688154613f31565b80613c79575b500190859291613c4b565b601f908181118414613c92575050600081555b8b613c6e565b613cad6000928484528a8420920160051c8201858301614163565b81835555613c8c565b87634e487b7160e01b60005260416004526000fd5b60405162461bcd60e51b8152600481018490526029818901527f4f6e6c792063686f73656e2070726f76696465722063616e20636f6d706c657460448201526819481c995c5d595cdd60ba1b6064820152608490fd5b60405162461bcd60e51b815260048101849052603d818901527f4d75737420776169742032207365636f6e6473206265666f726520726571756560448201527f73742063616e206265206d61726b656420617320636f6d706c657465640000006064820152608490fd5b87634e487b7160e01b60005260116004526000fd5b61038081019081106001600160401b038211176107f257604052565b61012081019081106001600160401b038211176107f257604052565b608081019081106001600160401b038211176107f257604052565b602081019081106001600160401b038211176107f257604052565b90601f801991011681019081106001600160401b038211176107f257604052565b6001600160401b0381116107f25760051b60200190565b81601f82011215610560578035906001600160401b0382116107f25760405192613e7a601f8401601f191660200185613e0e565b8284526020838301011161056057816000926020809301838601378301015290565b81601f8201121561056057803591602091613eb684613e2f565b93613ec46040519586613e0e565b808552838086019160051b8301019280841161056057848301915b848310613eef5750505050505090565b82356001600160401b038111610560578691613f1084848094890101613e46565b815201920191613edf565b6040906003190112610560576004359060243590565b90600182811c92168015613f61575b6020831014613f4b57565b634e487b7160e01b600052602260045260246000fd5b91607f1691613f40565b90604051918260008254613f7e81613f31565b90818452602094600191600181169081600014613fee5750600114613faf575b505050613fad92500383613e0e565b565b600090815285812095935091905b818310613fd6575050613fad9350820101388080613f9e565b85548884018501529485019487945091830191613fbd565b92505050613fad94925060ff191682840152151560051b820101388080613f9e565b919082519283825260005b84811061403c575050826000602080949584010152601f8019910116010190565b60208183018101518483018201520161401b565b90600982101561054a5752565b90808251908181526020809101926020808460051b8301019501936000915b84831061408c5750505050505090565b90919293949584806140aa600193601f198682030187528a51614010565b980193019301919493929061407c565b90815180825260208080930193019160005b8281106140da575050505090565b83516001600160a01b0316855293810193928101926001016140cc565b91908201809211611c3957565b1561410b57565b60405162461bcd60e51b815260206004820152601b60248201527f436f6d7075746174696f6e20646561646c696e652070617373656400000000006044820152606490fd5b81810292918115918404141715611c3957565b81811061416e575050565b60008155600101614163565b1561418157565b60405162461bcd60e51b815260206004820152602660248201527f636f6d6d69746d656e7420737461676520686173206e6f742079657420636f6d6044820152651c1b195d195960d21b6064820152608490fd5b90816020910312610560575180151581036105605790565b600081815260026020908152604080832080546001600160a01b0390811693919290338590036143ff57600b84019460ff8654166143bb57839082600f87015416156143815750506008840154421180614372575b1561431857908261429a92614260600a8701546015880154906140f7565b90808954169087541689855180978195829463a9059cbb60e01b84526004840160209093929193604081019460018060a01b031681520152565b03925af190811561430f5750926008926014927f1523a7600668f21efd095a2e4b78dc32da863f11b5b54ed0043034aeefd6442c9796956142f1575b505060ff1993600185825416179055019182541617905580a2565b8161430792903d10610a8157610a728183613e0e565b5038806142d6565b513d87823e3d90fd5b815162461bcd60e51b815260048101849052602d60248201527f436f6d7075746174696f6e20646561646c696e6520686173206e6f742079657460448201526c081899595b881c995858da1959609a1b6064820152608490fd5b5060ff855460081c1615614242565b8754600a870154855163a9059cbb60e01b81526001600160a01b03909316600484015260248301529093928491168189816044810161429a565b825162461bcd60e51b815260048101859052601960248201527f5265717565737420616c726561647920636f6d706c65746564000000000000006044820152606490fd5b815162461bcd60e51b8152600481018490526024808201527f4f6e6c792074686520636f6e73756d65722063616e2077697468647261772066604482015263756e647360e01b6064820152608490fd5b91908203918211611c3957565b600081815260026020908152604080832060038352818420601382015485528352818420600a810154600c90910154929391921415806145e0575b1561458c57614524601483019360ff19946007868254161790558260018060a01b038088541690865416906144f16144e66144db60018a015460158b0154906140f7565b60028a0154906140f7565b60178901549061444f565b845163a9059cbb60e01b81526001600160a01b0390931660048401526024830152909384919082908a9082906044820190565b03925af190811561430f575092600192600b927f6d55d799468c2d702d8ff65d462b4e8dbbc88c728431aee69b205a3964362f0797969561456e575b5050019182541617905580a2565b8161458492903d10610a8157610a728183613e0e565b503880614560565b60849083519062461bcd60e51b82526004820152602860248201527f5265717565737420697320616c726561647920696e20756e7375636365737366604482015267756c20737461746560c01b6064820152fd5b5060ff60148301541660098110156145fb5760071415614497565b634e487b7160e01b85526021600452602485fd5b1561461657565b60405162461bcd60e51b8152602060048201526012602482015271496e73756666696369656e74207374616b6560701b6044820152606490fd5b1561465757565b60405162461bcd60e51b815260206004820152603d60248201527f4e6f7420656e6f7567682074696d6520746f20706572666f726d20726f756e6460448201527f206265666f726520766572696669636174696f6e20646561646c696e650000006064820152608490fd5b80548210156146da5760005260206000200190600090565b634e487b7160e01b600052603260045260246000fd5b90815491600160401b8310156107f25782612122916001613fad950181556146c2565b1561471a57565b60405162461bcd60e51b815260206004820152602d60248201527f596f7520617265206e6f74207468652063686f73656e2076657269666965722060448201526c1a5b881d1a1a5cc81c9bdd5b99609a1b6064820152608490fd5b6000198114611c395760010190565b90815461479081613e2f565b9261479e6040519485613e0e565b818452600090815260208082208186015b8484106147bd575050505050565b60018381926147cb85613f6b565b8152019201930192906147af565b90604051918281549182825260209260208301916000526020600020936000905b82821061481057505050613fad92500383613e0e565b85546001600160a01b0316845260019586019588955093810193909101906147fa565b6000818152600260205260408120600f8101546001600160a01b03161561495a578160405161486181613df3565b52600d8101805483825580614941575b5082528160405161488181613df3565b52600e8101805483825580614928575b50825260148101600260ff198254161790556013810180549060018201809211614914576020927f7cdb7f0bd04877caf5dda7a202130926cdd67ad312dada203661ff6d88068434949260129255826019820155857f2d4e685f9af8cf88fb3e3447f1ee8e4e5e68423a2c393dc8d6e9784aa67ddafa6040519480a201548152a2565b634e487b7160e01b84526011600452602484fd5b8184526020842061493b91810190614163565b38614891565b8184526020842061495491810190614163565b38614871565b60405162461bcd60e51b815260206004820152602760248201527f4d61696e2070726f766964657220686173206e6f7420796574206265656e2073604482015266195b1958dd195960ca1b6064820152608490fd5b9060008281526020600281526040938483209160128301805460118501541115614b6a57600984015494601085018054966003978089029089820403614914576149f990426140f7565b1015614b0c5791886007601498999a84606096897f27e90e135bb91bf6706a23381e6d0d480f8bb7d002d6e9a197b432b7b654245f9997528c87528c8383209160138d01928354855289524260068686200155614a578154426140f7565b8c8552828a52858520845486528a528686862001558b84528189528484208354908186528a52614a8e8787872001548354906140f7565b908d8652838b528686209086528a52600886862001558b8452818952614ac8858520918454928387528b52600887872001549054906140f7565b918c855289528484209084528852600984842001558982528c8752828220905482528652200154915491815193428552840152820152a2019060ff19825416179055565b885162461bcd60e51b815260048101859052603160248201527f566572696669636174696f6e20446561646c696e652068617320706173736564604482015270081d1bc81cdd185c9d0818481c9bdd5b99607a1b6064820152608490fd5b865162461bcd60e51b815260048101839052601e60248201527f416c6c206c61796572732068617665206265656e2070726f63657373656400006044820152606490fdfea26469706673582212206a9ca38ee9b67b4c20fa23b17811823b440166fbb5af508f5edb23f4b24f392464736f6c63430008170033","linkReferences":{}},"methodIdentifiers":{"MIN_VERIFIERS()":"53e2ba17","PROVIDER_STAKE_PERCENTAGE()":"5e16a9d8","alertVerifiersOfCompletedRequest(uint256)":"58042f62","applyForVerificationForRequest(uint256)":"6d8f9a0e","calculateMajorityAndReward(uint256,uint256)":"847ada57","cancelRequest(uint256)":"3015394c","chooseVerifiersForRequestTrigger(uint256)":"951c5ce2","compToken()":"6605dfa7","completeRequest(uint256,string[])":"0625f161","createRequest(uint256,uint256,uint256,uint256,string[],string,uint256,uint256,uint256,uint256,uint256)":"ad1279d9","getRequestDetails(uint256)":"f34d4c63","getRoundDetails(uint256,uint256)":"ddf3532c","providerFailure(uint256)":"3295845c","providerSuccessCall(uint256)":"b10ceb59","requestCount()":"5badbe4c","requests(uint256)":"81d12c58","returnStake(uint256)":"275d95a1","returnStakeDueToTimeout(uint256)":"3d8a8ea7","revealCommitment(uint256,bool,bytes32,bytes32)":"bfdb3451","revealProviderKeyAndHash(uint256,bytes32,bytes32)":"e20fb7a1","roundDetails(uint256,uint256)":"8ea49eca","selectRequest(uint256)":"e03ad0d1","startNextRound(uint256)":"09008563","submitCommitment(uint256,bytes32)":"e6a3d9dc","verificationDeadlinePassedForVeryfying(uint256,uint256)":"4beda221"},"id":0}