{"abi":[{"type":"constructor","inputs":[{"name":"compTokenAddress","type":"address","internalType":"address"}],"stateMutability":"nonpayable"},{"type":"function","name":"MIN_VERIFIERS","inputs":[],"outputs":[{"name":"","type":"uint256","internalType":"uint256"}],"stateMutability":"view"},{"type":"function","name":"applyForVerificationForRequest","inputs":[{"name":"requestId","type":"uint256","internalType":"uint256"}],"outputs":[],"stateMutability":"nonpayable"},{"type":"function","name":"calculateMajorityAndReward","inputs":[{"name":"requestId","type":"uint256","internalType":"uint256"},{"name":"roundNum","type":"uint256","internalType":"uint256"}],"outputs":[],"stateMutability":"nonpayable"},{"type":"function","name":"cancelRequest","inputs":[{"name":"requestId","type":"uint256","internalType":"uint256"}],"outputs":[],"stateMutability":"nonpayable"},{"type":"function","name":"chooseVerifiersForRequestTrigger","inputs":[{"name":"requestId","type":"uint256","internalType":"uint256"}],"outputs":[],"stateMutability":"nonpayable"},{"type":"function","name":"compToken","inputs":[],"outputs":[{"name":"","type":"address","internalType":"contract IERC20"}],"stateMutability":"view"},{"type":"function","name":"completeRequest","inputs":[{"name":"requestId","type":"uint256","internalType":"uint256"},{"name":"outputFileURLs","type":"string[]","internalType":"string[]"}],"outputs":[],"stateMutability":"nonpayable"},{"type":"function","name":"createRequest","inputs":[{"name":"paymentForProvider","type":"uint256","internalType":"uint256"},{"name":"paymentPerRoundForVerifiers","type":"uint256","internalType":"uint256"},{"name":"numOperations","type":"uint256","internalType":"uint256"},{"name":"numVerifiers","type":"uint256","internalType":"uint256"},{"name":"inputFileURLs","type":"string[]","internalType":"string[]"},{"name":"operationFileURL","type":"string","internalType":"string"},{"name":"computationDeadline","type":"uint256","internalType":"uint256"},{"name":"verificationDeadline","type":"uint256","internalType":"uint256"},{"name":"timeAllocatedForVerification","type":"uint256","internalType":"uint256"},{"name":"numVerifiersSampleSize","type":"uint256","internalType":"uint256"},{"name":"protocolVersion","type":"uint256","internalType":"uint256"},{"name":"layerSize","type":"uint256","internalType":"uint256"},{"name":"hashOfInputFiles","type":"bytes32","internalType":"bytes32"},{"name":"stake","type":"uint256","internalType":"uint256"}],"outputs":[],"stateMutability":"nonpayable"},{"type":"function","name":"getRequestDetails","inputs":[{"name":"requestId","type":"uint256","internalType":"uint256"}],"outputs":[{"name":"","type":"tuple","internalType":"struct ComputationMarket.Request","components":[{"name":"consumer","type":"address","internalType":"address"},{"name":"paymentForProvider","type":"uint256","internalType":"uint256"},{"name":"totalPaymentForVerifiers","type":"uint256","internalType":"uint256"},{"name":"numOperations","type":"uint256","internalType":"uint256"},{"name":"numVerifiers","type":"uint256","internalType":"uint256"},{"name":"inputFileURLs","type":"string[]","internalType":"string[]"},{"name":"operationFileURL","type":"string","internalType":"string"},{"name":"outputFileURLs","type":"string[]","internalType":"string[]"},{"name":"computationDeadline","type":"uint256","internalType":"uint256"},{"name":"verificationDeadline","type":"uint256","internalType":"uint256"},{"name":"totalPayment","type":"uint256","internalType":"uint256"},{"name":"completed","type":"bool","internalType":"bool"},{"name":"hasBeenComputed","type":"bool","internalType":"bool"},{"name":"numVerifiersSampleSize","type":"uint256","internalType":"uint256"},{"name":"verifiers","type":"address[]","internalType":"address[]"},{"name":"chosenVerifiers","type":"address[]","internalType":"address[]"},{"name":"mainProvider","type":"address","internalType":"address"},{"name":"timeAllocatedForVerification","type":"uint256","internalType":"uint256"},{"name":"layerCount","type":"uint256","internalType":"uint256"},{"name":"layerComputeIndex","type":"uint256","internalType":"uint256"},{"name":"roundIndex","type":"uint256","internalType":"uint256"},{"name":"state","type":"uint8","internalType":"enum ComputationMarket.RequestStates"},{"name":"stake","type":"uint256","internalType":"uint256"},{"name":"paymentPerRoundForVerifiers","type":"uint256","internalType":"uint256"},{"name":"totalPaidForVerification","type":"uint256","internalType":"uint256"},{"name":"protocolVersion","type":"uint256","internalType":"uint256"},{"name":"verifierSelectionCount","type":"uint256","internalType":"uint256"},{"name":"firstinitialisedTime","type":"uint256","internalType":"uint256"},{"name":"layerSize","type":"uint256","internalType":"uint256"},{"name":"hashOfInputFiles","type":"bytes32","internalType":"bytes32"}]}],"stateMutability":"view"},{"type":"function","name":"getRoundDetails","inputs":[{"name":"requestId","type":"uint256","internalType":"uint256"},{"name":"roundIndex","type":"uint256","internalType":"uint256"}],"outputs":[{"name":"","type":"tuple","internalType":"struct ComputationMarket.RoundDetailsOutput","components":[{"name":"roundIndex","type":"uint256","internalType":"uint256"},{"name":"layerComputeIndex","type":"uint256","internalType":"uint256"},{"name":"verificationStartTime","type":"uint256","internalType":"uint256"},{"name":"commitEndTime","type":"uint256","internalType":"uint256"},{"name":"providerRevealEndTime","type":"uint256","internalType":"uint256"},{"name":"commitmentRevealEndTime","type":"uint256","internalType":"uint256"},{"name":"majorityVoteHash","type":"bytes32","internalType":"bytes32"},{"name":"majorityCount","type":"uint256","internalType":"uint256"},{"name":"mainProviderAnswerHash","type":"bytes32","internalType":"bytes32"},{"name":"commitsSubmitted","type":"uint256","internalType":"uint256"},{"name":"commitsRevealed","type":"uint256","internalType":"uint256"},{"name":"providerPrivateKey","type":"uint256","internalType":"uint256"},{"name":"providerInitialisationVector","type":"uint256","internalType":"uint256"}]}],"stateMutability":"view"},{"type":"function","name":"getVerificationDetails","inputs":[{"name":"requestId","type":"uint256","internalType":"uint256"},{"name":"roundNum","type":"uint256","internalType":"uint256"},{"name":"verifier","type":"address","internalType":"address"}],"outputs":[{"name":"","type":"tuple","internalType":"struct ComputationMarket.Verification","components":[{"name":"verifier","type":"address","internalType":"address"},{"name":"agree","type":"bool","internalType":"bool"},{"name":"answer","type":"bytes32","internalType":"bytes32"},{"name":"nonce","type":"bytes32","internalType":"bytes32"},{"name":"revealed","type":"bool","internalType":"bool"},{"name":"computedHash","type":"bytes32","internalType":"bytes32"},{"name":"voteHash","type":"bytes32","internalType":"bytes32"},{"name":"verifierPaid","type":"bool","internalType":"bool"}]}],"stateMutability":"view"},{"type":"function","name":"getVerifiersAppliedForRound","inputs":[{"name":"requestId","type":"uint256","internalType":"uint256"},{"name":"roundIndex","type":"uint256","internalType":"uint256"}],"outputs":[{"name":"","type":"bool","internalType":"bool"}],"stateMutability":"view"},{"type":"function","name":"getVerifiersChosenForRound","inputs":[{"name":"requestId","type":"uint256","internalType":"uint256"},{"name":"roundIndex","type":"uint256","internalType":"uint256"}],"outputs":[{"name":"","type":"bool","internalType":"bool"}],"stateMutability":"view"},{"type":"function","name":"getVerifiersTriggeredForRound","inputs":[{"name":"requestId","type":"uint256","internalType":"uint256"},{"name":"roundIndex","type":"uint256","internalType":"uint256"}],"outputs":[{"name":"","type":"bool","internalType":"bool"}],"stateMutability":"view"},{"type":"function","name":"getVoteCountForHashForRound","inputs":[{"name":"requestId","type":"uint256","internalType":"uint256"},{"name":"roundIndex","type":"uint256","internalType":"uint256"},{"name":"voteHash","type":"bytes32","internalType":"bytes32"}],"outputs":[{"name":"","type":"uint256","internalType":"uint256"}],"stateMutability":"view"},{"type":"function","name":"providerFailure","inputs":[{"name":"requestId","type":"uint256","internalType":"uint256"}],"outputs":[],"stateMutability":"nonpayable"},{"type":"function","name":"providerPrivateKeys","inputs":[{"name":"","type":"uint256","internalType":"uint256"},{"name":"","type":"uint256","internalType":"uint256"}],"outputs":[{"name":"","type":"bool","internalType":"bool"}],"stateMutability":"view"},{"type":"function","name":"providerSuccessCall","inputs":[{"name":"requestId","type":"uint256","internalType":"uint256"}],"outputs":[],"stateMutability":"nonpayable"},{"type":"function","name":"requestCount","inputs":[],"outputs":[{"name":"","type":"uint256","internalType":"uint256"}],"stateMutability":"view"},{"type":"function","name":"requests","inputs":[{"name":"","type":"uint256","internalType":"uint256"}],"outputs":[{"name":"consumer","type":"address","internalType":"address"},{"name":"paymentForProvider","type":"uint256","internalType":"uint256"},{"name":"totalPaymentForVerifiers","type":"uint256","internalType":"uint256"},{"name":"numOperations","type":"uint256","internalType":"uint256"},{"name":"numVerifiers","type":"uint256","internalType":"uint256"},{"name":"operationFileURL","type":"string","internalType":"string"},{"name":"computationDeadline","type":"uint256","internalType":"uint256"},{"name":"verificationDeadline","type":"uint256","internalType":"uint256"},{"name":"totalPayment","type":"uint256","internalType":"uint256"},{"name":"completed","type":"bool","internalType":"bool"},{"name":"hasBeenComputed","type":"bool","internalType":"bool"},{"name":"numVerifiersSampleSize","type":"uint256","internalType":"uint256"},{"name":"mainProvider","type":"address","internalType":"address"},{"name":"timeAllocatedForVerification","type":"uint256","internalType":"uint256"},{"name":"layerCount","type":"uint256","internalType":"uint256"},{"name":"layerComputeIndex","type":"uint256","internalType":"uint256"},{"name":"roundIndex","type":"uint256","internalType":"uint256"},{"name":"state","type":"uint8","internalType":"enum ComputationMarket.RequestStates"},{"name":"stake","type":"uint256","internalType":"uint256"},{"name":"paymentPerRoundForVerifiers","type":"uint256","internalType":"uint256"},{"name":"totalPaidForVerification","type":"uint256","internalType":"uint256"},{"name":"protocolVersion","type":"uint256","internalType":"uint256"},{"name":"verifierSelectionCount","type":"uint256","internalType":"uint256"},{"name":"firstinitialisedTime","type":"uint256","internalType":"uint256"},{"name":"layerSize","type":"uint256","internalType":"uint256"},{"name":"hashOfInputFiles","type":"bytes32","internalType":"bytes32"}],"stateMutability":"view"},{"type":"function","name":"returnStake","inputs":[{"name":"requestId","type":"uint256","internalType":"uint256"},{"name":"roundNum","type":"uint256","internalType":"uint256"}],"outputs":[],"stateMutability":"nonpayable"},{"type":"function","name":"returnStakeDueToTimeout","inputs":[{"name":"requestId","type":"uint256","internalType":"uint256"},{"name":"roundNum","type":"uint256","internalType":"uint256"}],"outputs":[],"stateMutability":"nonpayable"},{"type":"function","name":"revealCommitment","inputs":[{"name":"requestId","type":"uint256","internalType":"uint256"},{"name":"agree","type":"bool","internalType":"bool"},{"name":"answer","type":"bytes32","internalType":"bytes32"},{"name":"nonce","type":"bytes32","internalType":"bytes32"}],"outputs":[],"stateMutability":"nonpayable"},{"type":"function","name":"revealProviderKeyAndHash","inputs":[{"name":"requestId","type":"uint256","internalType":"uint256"},{"name":"privateKey","type":"uint256","internalType":"uint256"},{"name":"initialisationVector","type":"uint256","internalType":"uint256"},{"name":"answerHash","type":"bytes32","internalType":"bytes32"}],"outputs":[],"stateMutability":"nonpayable"},{"type":"function","name":"roundDetails","inputs":[{"name":"","type":"uint256","internalType":"uint256"},{"name":"","type":"uint256","internalType":"uint256"}],"outputs":[{"name":"roundIndex","type":"uint256","internalType":"uint256"},{"name":"layerComputeIndex","type":"uint256","internalType":"uint256"},{"name":"verificationStartTime","type":"uint256","internalType":"uint256"},{"name":"commitEndTime","type":"uint256","internalType":"uint256"},{"name":"providerRevealEndTime","type":"uint256","internalType":"uint256"},{"name":"commitmentRevealEndTime","type":"uint256","internalType":"uint256"},{"name":"majorityVoteHash","type":"bytes32","internalType":"bytes32"},{"name":"majorityCount","type":"uint256","internalType":"uint256"},{"name":"mainProviderAnswerHash","type":"bytes32","internalType":"bytes32"},{"name":"commitsSubmitted","type":"uint256","internalType":"uint256"},{"name":"commitsRevealed","type":"uint256","internalType":"uint256"},{"name":"providerPrivateKey","type":"uint256","internalType":"uint256"},{"name":"providerInitialisationVector","type":"uint256","internalType":"uint256"}],"stateMutability":"view"},{"type":"function","name":"selectRequest","inputs":[{"name":"requestId","type":"uint256","internalType":"uint256"}],"outputs":[],"stateMutability":"nonpayable"},{"type":"function","name":"submitCommitment","inputs":[{"name":"requestId","type":"uint256","internalType":"uint256"},{"name":"computedHash","type":"bytes32","internalType":"bytes32"}],"outputs":[],"stateMutability":"nonpayable"},{"type":"function","name":"verificationDeadlinePassedForVeryfying","inputs":[{"name":"requestId","type":"uint256","internalType":"uint256"},{"name":"roundNum","type":"uint256","internalType":"uint256"}],"outputs":[],"stateMutability":"nonpayable"},{"type":"event","name":"AlertVerifiers","inputs":[{"name":"requestId","type":"uint256","indexed":true,"internalType":"uint256"},{"name":"provider","type":"address","indexed":false,"internalType":"address"},{"name":"verificationPrice","type":"uint256","indexed":false,"internalType":"uint256"},{"name":"verificationDeadline","type":"uint256","indexed":false,"internalType":"uint256"},{"name":"timeAllocatedForVerification","type":"uint256","indexed":false,"internalType":"uint256"},{"name":"numVerifiers","type":"uint256","indexed":false,"internalType":"uint256"}],"anonymous":false},{"type":"event","name":"AllCommitmentsRevealed","inputs":[{"name":"indexedrequestId","type":"uint256","indexed":false,"internalType":"uint256"},{"name":"roundNum","type":"uint256","indexed":true,"internalType":"uint256"}],"anonymous":false},{"type":"event","name":"CommitmentPhaseStarted","inputs":[{"name":"requestId","type":"uint256","indexed":true,"internalType":"uint256"},{"name":"startTime","type":"uint256","indexed":false,"internalType":"uint256"},{"name":"endTime","type":"uint256","indexed":false,"internalType":"uint256"},{"name":"layerComputeIndex","type":"uint256","indexed":false,"internalType":"uint256"}],"anonymous":false},{"type":"event","name":"CommitmentSubmitted","inputs":[{"name":"requestId","type":"uint256","indexed":true,"internalType":"uint256"},{"name":"verifier","type":"address","indexed":true,"internalType":"address"}],"anonymous":false},{"type":"event","name":"NoMajorityForRound","inputs":[{"name":"requestId","type":"uint256","indexed":true,"internalType":"uint256"},{"name":"layerComputeIndex","type":"uint256","indexed":false,"internalType":"uint256"}],"anonymous":false},{"type":"event","name":"ProviderResultSuccessfullyVerified","inputs":[{"name":"requestId","type":"uint256","indexed":true,"internalType":"uint256"}],"anonymous":false},{"type":"event","name":"ProviderResultUnsuccessful","inputs":[{"name":"requestId","type":"uint256","indexed":true,"internalType":"uint256"}],"anonymous":false},{"type":"event","name":"ProviderRevealed","inputs":[{"name":"requestId","type":"uint256","indexed":true,"internalType":"uint256"},{"name":"privateKey","type":"uint256","indexed":false,"internalType":"uint256"},{"name":"initialisationVector","type":"uint256","indexed":false,"internalType":"uint256"},{"name":"answerHash","type":"bytes32","indexed":false,"internalType":"bytes32"}],"anonymous":false},{"type":"event","name":"ProviderSelected","inputs":[{"name":"requestId","type":"uint256","indexed":true,"internalType":"uint256"},{"name":"provider","type":"address","indexed":true,"internalType":"address"}],"anonymous":false},{"type":"event","name":"ProviderSlashed","inputs":[{"name":"requestId","type":"uint256","indexed":true,"internalType":"uint256"},{"name":"provider","type":"address","indexed":true,"internalType":"address"}],"anonymous":false},{"type":"event","name":"RequestCancelled","inputs":[{"name":"requestId","type":"uint256","indexed":true,"internalType":"uint256"}],"anonymous":false},{"type":"event","name":"RequestCompletedByProvider","inputs":[{"name":"requestId","type":"uint256","indexed":true,"internalType":"uint256"},{"name":"provider","type":"address","indexed":true,"internalType":"address"}],"anonymous":false},{"type":"event","name":"RequestCreated","inputs":[{"name":"requestId","type":"uint256","indexed":true,"internalType":"uint256"},{"name":"consumer","type":"address","indexed":true,"internalType":"address"}],"anonymous":false},{"type":"event","name":"RevealCommitmentFailed","inputs":[{"name":"requestId","type":"uint256","indexed":false,"internalType":"uint256"},{"name":"newHashComputed","type":"bytes32","indexed":false,"internalType":"bytes32"},{"name":"oldHashComputed","type":"bytes32","indexed":false,"internalType":"bytes32"}],"anonymous":false},{"type":"event","name":"RevealVerificationDetails","inputs":[{"name":"requestId","type":"uint256","indexed":true,"internalType":"uint256"},{"name":"endTime","type":"uint256","indexed":false,"internalType":"uint256"},{"name":"verifier","type":"address","indexed":true,"internalType":"address"}],"anonymous":false},{"type":"event","name":"RoundInitialised","inputs":[{"name":"requestId","type":"uint256","indexed":true,"internalType":"uint256"}],"anonymous":false},{"type":"event","name":"RoundRevealStarted","inputs":[{"name":"requestId","type":"uint256","indexed":true,"internalType":"uint256"}],"anonymous":false},{"type":"event","name":"RoundStartedForVerificationSelection","inputs":[{"name":"requestId","type":"uint256","indexed":true,"internalType":"uint256"},{"name":"layerComputeIndex","type":"uint256","indexed":false,"internalType":"uint256"}],"anonymous":false},{"type":"event","name":"VerificationApplied","inputs":[{"name":"requestId","type":"uint256","indexed":true,"internalType":"uint256"},{"name":"verifier","type":"address","indexed":true,"internalType":"address"},{"name":"layerComputeIndex","type":"uint256","indexed":true,"internalType":"uint256"}],"anonymous":false},{"type":"event","name":"VerificationSelectionStarted","inputs":[{"name":"requestId","type":"uint256","indexed":true,"internalType":"uint256"},{"name":"layerComputeIndex","type":"uint256","indexed":false,"internalType":"uint256"}],"anonymous":false},{"type":"event","name":"VerifierChosen","inputs":[{"name":"requestId","type":"uint256","indexed":true,"internalType":"uint256"},{"name":"verifier","type":"address","indexed":true,"internalType":"address"},{"name":"layerComputeIndex","type":"uint256","indexed":true,"internalType":"uint256"},{"name":"verifierIndex","type":"uint256","indexed":false,"internalType":"uint256"}],"anonymous":false},{"type":"event","name":"VerifierUnchosen","inputs":[{"name":"requestId","type":"uint256","indexed":true,"internalType":"uint256"},{"name":"verifier","type":"address","indexed":true,"internalType":"address"},{"name":"layerComputeIndex","type":"uint256","indexed":true,"internalType":"uint256"},{"name":"verifierIndex","type":"uint256","indexed":false,"internalType":"uint256"}],"anonymous":false},{"type":"event","name":"VoteSubmitted","inputs":[{"name":"requestId","type":"uint256","indexed":true,"internalType":"uint256"},{"name":"verifier","type":"address","indexed":true,"internalType":"address"},{"name":"agree","type":"bool","indexed":false,"internalType":"bool"}],"anonymous":false}],"bytecode":{"object":"0x608034620000c657601f620052aa38819003918201601f19168301916001600160401b03831184841017620000cb57808492602094604052833981010312620000c657516001600160a01b03811690819003620000c65780156200008157600080546001600160a01b0319169190911790556040516151c89081620000e28239f35b60405162461bcd60e51b815260206004820152601560248201527f496e76616c696420746f6b656e206164647265737300000000000000000000006044820152606490fd5b600080fd5b634e487b7160e01b600052604160045260246000fdfe610240604052600436101561001357600080fd5b60003560e01c80630625f161146141a25780630a39bf2c1461415b57806313f08bbf14614123578063175f4c0c146140dc578063253bd3e914613daf5780633015394c14613d935780633295845c14613d7757806338488abc14613c375780634beda22114613a2357806353e2ba1714613a075780635badbe4c146139e95780636605dfa7146139c05780636d8f9a0e146134da57806381d12c5814613279578063847ada5714612bf05780638ea49eca14612b34578063951c5ce21461243d578063975026af146123f6578063b10ceb5914612260578063bfdb345114611d95578063ddf3532c14611bee578063e007657e14610e23578063e03ad0d114610bfb578063e2e7cbe614610952578063e6a3d9dc14610749578063e7b6c4ec14610701578063e819ff28146105c25763f34d4c631461015157600080fd5b346105bd5760203660031901126105bd5760006103a060405161017381614501565b828152826020820152826040820152826060820152826080820152606060a0820152606060c0820152606060e08201528261010082015282610120820152826101408201528261016082015282610180820152826101a082015260606101c082015260606101e08201528261020082015282610220820152826102408201528261026082015282610280820152826102a0820152826102c0820152826102e082015282610300820152826103208201528261034082015282610360820152826103808201520152600435600052600260205260406000206040519061025782614501565b80546001600160a01b031682526001810154602083015260028101546040830152600381015460608301526004810154608083015261029860058201614f16565b60a08301526102a9600682016146cc565b60c08301526102ba60078201614f16565b60e083015260088101546101008301526009810154610120830152600a81015461014083015260ff600b820154818116151561016085015260081c161515610180830152600c8101546101a0830152610315600d8201614f6b565b6101c0830152610327600e8201614f6b565b6101e0830152600f8101546001600160a01b03166102008301526010810154610220830152601181015461024083015260128101546102608301526013810154610280830152601481015460ff169060098210156105a757601c916102a084015260158101546102c084015260168101546102e0840152601781015461030084015260188101546103208401526019810154610340840152601a810154610360840152601b81015461038084015201546103a082015260405180916020825260018060a01b038151166020830152602081015160408301526040810151606083015260608101516080830152608081015160a08301526103a06104f06104d861047461045d61044760a08701516103c060c08a01526103e08901906147be565b60c0870151888203601f190160e08a0152614771565b60e0860151878203601f19016101008901526147be565b610100850151610120870152610120850151610140870152610140850151610160870152610160850151151561018087015261018085015115156101a08701526101a08501516101c08701526101c0850151601f19878303016101e088015261481b565b6101e0840151858203601f190161020087015261481b565b9160018060a01b03610200820151166102208501526102208101516102408501526102408101516102608501526102608101516102808501526102808101516102a08501526105496102a08201516102c08601906147b1565b6102c08101516102e08501526102e08101516103008501526103008101516103208501526103208101516103408501526103408101516103608501526103608101516103808501526103808101518285015201516103c08301520390f35b634e487b7160e01b600052602160045260246000fd5b600080fd5b346105bd5760603660031901126105bd576001600160a01b03604435818116908190036105bd5761010091604051916105fa8361451d565b60008352600060e060209482868201528260408201528260608201528260808201528260a08201528260c082015201526004356000526004835260406000206024356000528352604060002090600052825260406000206040519161065e8361451d565b81549081169384845260ff8185019260a01c16151582526001830154604085019081526002840154906060860191825260ff6003860154169260808701931515845260048601549460a0880195865260e060ff600660058a01549960c08c019a8b52015416980197151588526040519889525115159088015251604087015251606086015251151560808501525160a08401525160c083015251151560e0820152f35b346105bd5760603660031901126105bd576004356000526003602052604060002060243560005260205260406000206044356000526020526020604060002054604051908152f35b346105bd5760403660031901126105bd576004358060005260206002815260406000206004825260406000209160138201908154938460005281526040600020336000528152604060002093601484019460ff8654169160098310156105a75760038093036109015787600052828452604060002081600052845260076040600020015442116108c3578760005282845260406000208160005284528260406000200133600052845261080360ff60406000205416614e9b565b876000528284526040600020906000528352600160406000200133600052835261083460ff60406000205416614d15565b600460243591015585600052808252604060002083546000528252600d6040600020016108618154614f07565b90558560005281526040600020915460005252600c600d60406000200154910154146108b2575b5033907f22d30f6da93667100b64d15e5ea70afec217caeab1008706f57bfa4deed12c63600080a3005b805460ff1916600417905581610888565b60405162461bcd60e51b815260048101859052601660248201527510dbdb5b5a5d1b595b9d081c1a185cd948195b99195960521b6044820152606490fd5b60405162461bcd60e51b815260048101859052602360248201527f52657175657374206e6f742079657420696e20636f6d6d69746d656e7420737460448201526261746560e81b6064820152608490fd5b346105bd576109603661467c565b81600052602091600283526040600020600384526040600020836000528452600260406000200133600052845260ff6040600020541615610ba6576009810154601082015480600302906003820403610b90576109bd90426148e6565b1115610b255760ff60148201541660098110156105a757600203610acc5783610a4e60009284845260048352604084208685528352604084203385528352610a0f60ff60066040872001541615614d57565b83546016919091015460405163a9059cbb60e01b815233600482015260248101919091529384926001600160a01b039092169183919082906044820190565b03925af18015610ac057610a93575b5060005260048252604060002090600052815260406000209033600052526006604060002001600160ff19825416179055600080f35b610ab290843d8611610ab9575b610aaa818361456f565b8101906148ce565b5083610a5d565b503d610aa0565b6040513d6000823e3d90fd5b60405162461bcd60e51b815260048101859052602b60248201527f52657175657374204d75737420626520696e2063686f6f73696e67207665726960448201526a666965727320737461746560a81b6064820152608490fd5b60405162461bcd60e51b815260048101859052603f60248201527f5374696c6c20656e6f7567682074696d6520746f20706572666f726d20726f7560448201527f6e64206265666f726520766572696669636174696f6e20646561646c696e65006064820152608490fd5b634e487b7160e01b600052601160045260246000fd5b60405162461bcd60e51b815260048101859052602760248201527f596f7520617265206e6f742074686520766572696669657220666f72207468696044820152661cc81c9bdd5b9960ca1b6064820152608490fd5b346105bd576020806003193601126105bd576004359081600052600281526040600020610c2e6008820154421115614858565b600f810180546001600160a01b0393908416610ddf576015830154600054604051636eb1769f60e11b8152336004820152306024820152919516908281604481855afa908115610ac057600091610db2575b506040516370a0823160e01b8152336004820152908382602481865afa918215610ac057600092610d81575b509186610ccd81610cfd94610cc660009b89981015614d97565b1015614d97565b6040516323b872dd60e01b8152336004820152306024820152604481019190915296879283919082906064820190565b03925af18015610ac057601494610d1d92600092610d64575b5050614d97565b336001600160601b0360a01b82541617905501600160ff1982541617905533907f3c84569ae9be7c8e6e8edf0c0cbeb7e00cf9cb4d9b67849728be8ab96e09bec1600080a3005b610d7a9250803d10610ab957610aaa818361456f565b8680610d16565b9150918382813d8311610dab575b610d99818361456f565b810103126105bd579051909186610cac565b503d610d8f565b90508281813d8311610dd8575b610dc9818361456f565b810103126105bd575187610c80565b503d610dbf565b6064906040519062461bcd60e51b82526004820152601960248201527f50726f766964657220616c72656164792073656c6563746564000000000000006044820152fd5b346105bd576101c03660031901126105bd576084356001600160401b0381116105bd57610e549036906004016145fd565b60a4356001600160401b0381116105bd57610e739036906004016145a7565b90610e83610164356044356148e6565b80600019810111610b9057610ea090610164359060001901614efd565b90610eb982610eb4610124356024356148a4565b6148a4565b92610ec6846004356148e6565b600360643510611ba957600054604051636eb1769f60e11b81523360048201523060248201526001600160a01b0390911690602081604481855afa908115610ac057600091611b77575b506040516370a0823160e01b8152336004820152602081602481865afa918215610ac0578491600093611b40575b5010611adf578211611a80576040516323b872dd60e01b81523360048201523060248201526044810183905290602090829060649082906000905af1908115610ac057600091611a61575b5015611a2b574260c43511156119c05761010435600361010435020460031461010435151715610b9057610fce610fc660036101043502866148a4565b60c4356148e6565b60e43511156119455761012435606435106118b457604051610fef81614554565b600081526040519261100084614554565b600084526040519461101186614554565b600086526040519761102289614501565b33895260043560208a015260408901526044356060890152606435608089015260a088015260c087015260e086015260c43561010086015260e43561012086015261014085015260006101608501526000610180850152610124356101a08501526101c08401526101e08301526000610200830152610104356102208301526102408201526000610260820152600061028082015260006102a08201526101a4356102c08201526024356102e08201526000610300820152610144356103208201526000610340820152600061036082015261016435610380820152610184356103a08201526001546000526002602052604060002060018060a01b038251166001600160601b0360a01b8254161781556020820151600182015560408201516002820155606082015160038201556080820151600482015560a0820151805190600160401b821161148357600583015482600585015580831061183b575b5060200190600583016000526020600020916000905b82821061172257858560c08201519182516001600160401b038111611483576111c36006840154614692565b601f81116116ed575b506020601f821160011461167f5781906111ff939495600092611674575b50508160011b916000199060031b1c19161790565b60068301555b60e0810151805190600160401b82116114835760078401548260078601558083106115fc575b5060200190600784016000526020600020916000905b8282106114d657858561010081015160088301556101208101516009830155610140810151600a830155600b82016101608201511515815460ff61ff00610180860151151560081b1692169061ffff1916171790556101a0810151600c8301556101c08101518051906001600160401b03821161148357600160401b821161148357602090600d85015483600d8701558084106114b6575b5001600d8401600052602060002060005b8381106114995785856101e08101518051906001600160401b03821161148357600160401b821161148357602090600e85015483600e870155808410611463575b5001600e8401600052602060002060005b838110611446578585600f820160018060a01b03610200830151166001600160601b0360a01b825416179055610220810151601083015561024081015160118301556102608101516012830155610280810151601383015560148201906102a08101519060098210156105a757601c926103a09260ff801983541691161790556102c081015160158501556102e08101516016850155610300810151601785015561032081015160188501556103408101516019850155610360810151601a850155610380810151601b8501550151910155611419600154614f07565b8060015533907f233bb55fd57b21b8a3d15c9ad8fbbab435fe4cf2865cc654f6a57d9d4d8cda54600080a3005b82516001600160a01b03168183015560209092019160010161133c565b61147d90600e8701600052848460002091820191016148b7565b8561132b565b634e487b7160e01b600052604160045260246000fd5b82516001600160a01b0316818301556020909201916001016112ea565b6114d090600d8701600052848460002091820191016148b7565b856112d9565b80518051906001600160401b038211611483576114f38654614692565b601f81116115bf575b50602090601f831160011461154f5792611535836001959460209487966000926115445750508160011b916000199060031b1c19161790565b87555b01940191019092611241565b015190508c806111ea565b908660005260206000209160005b601f19851681106115a7575083602093600196938796938794601f1981161061158e575b505050811b018755611538565b015160001960f88460031b161c191690558b8080611581565b9192602060018192868501518155019401920161155d565b6115ec90876000526020600020601f850160051c810191602086106115f2575b601f0160051c01906148b7565b886114fc565b90915081906115df565b600785016000526020600020908382015b818301811061161d57505061122b565b8061162a60019254614692565b80611637575b500161160d565b601f8111831461164d5750600081555b88611630565b60009082825261166b601f60208420920160051c82018583016148b7565b81835555611647565b0151905085806111ea565b6006840160005260206000209060005b601f19841681106116d55750600193949583601f198116106116bc575b505050811b016006830155611205565b015160001960f88460031b161c191690558480806116ac565b9091602060018192858a01518155019301910161168f565b61171c90600685016000526020600020601f840160051c810191602085106115f257601f0160051c01906148b7565b846111cc565b80518051906001600160401b0382116114835761173f8654614692565b90601f91828111611801575b5060209183116001146117915792611782836001959460209487966000926115445750508160011b916000199060031b1c19161790565b87555b01940191019092611197565b908660005260206000209160005b601f19851681106117e9575083602093600196938796938794601f198116106117d0575b505050811b018755611785565b015160001960f88460031b161c191690558b80806117c3565b9192602060018192868501518155019401920161179f565b61182c908860005260206000208480870160051c82019260208810611832575b0160051c01906148b7565b8961174b565b92508192611821565b600584016000526020600020908382015b818301811061185c575050611181565b8061186960019254614692565b80611876575b500161184c565b601f90818111841461188f575050600081555b8861186f565b6118ab60009284845260208420920160051c82018583016148b7565b81835555611889565b60405162461bcd60e51b815260206004820152605d60248201527f4e6f7420656e6f7567682076657269666965727320746f2063686f6f7365206660448201527f726f6d2e206e756d566572696669657273206d7573742062652067726561746560648201527f72207468616e206e756d56657269666965727353616d706c6553697a65000000608482015260a490fd5b60405162461bcd60e51b815260206004820152604760248201527f566572696669636174696f6e20646561646c696e65206d75737420626520737560448201527f6666696369656e7420656e6f75676820666f7220616c6c20726f756e64732072606482015266195c5d5a5c995960ca1b608482015260a490fd5b60405162461bcd60e51b815260206004820152603c60248201527f436f6d7075746174696f6e616c20646561646c696e65206d757374206265206760448201527f726561746572207468616e207468652063757272656e742074696d65000000006064820152608490fd5b60405162461bcd60e51b815260206004820152600e60248201526d14185e5b595b9d0819985a5b195960921b6044820152606490fd5b611a7a915060203d602011610ab957610aaa818361456f565b86610f89565b60405162461bcd60e51b815260206004820152603160248201527f496e73756666696369656e742062616c616e636520617661696c61626c6520746044820152701bc818dbdb991d58dd081c995c5d595cdd607a1b6064820152608490fd5b60405162461bcd60e51b815260206004820152603360248201527f496e73756666696369656e7420616c6c6f77616e636520617661696c61626c65604482015272081d1bc818dbdb991d58dd081c995c5d595cdd606a1b6064820152608490fd5b915091506020813d602011611b6f575b81611b5d6020938361456f565b810103126105bd578390519189610f3e565b3d9150611b50565b90506020813d602011611ba1575b81611b926020938361456f565b810103126105bd575187610f10565b3d9150611b85565b60405162461bcd60e51b815260206004820152601d60248201527f4174206c656173742033207665726966696572732072657175697265640000006044820152606490fd5b346105bd57611bfc3661467c565b906000610180604051611c0e816144e5565b8281528260208201528260408201528260608201528260808201528260a08201528260c08201528260e082015282610100820152826101208201528261014082015282610160820152015260005260036020526040600020906000526020526101a06040600020610180611cce6004830154836005829501546006820154600783015460088401546009850154600a86015490600b87015492600c88015494600d89015496600e8a0154986010600f8c01549b01549b6040519d8e6144e5565b8d5260208d015260408c015260608b015260808a015260a089015260c088015260e0870152610100860152610120850152610140840152610160830152828201526040519283526020810151602084015260408101516040840152606081015160608401526080810151608084015260a081015160a084015260c081015160c084015260e081015160e08401526101008101516101008401526101208101516101208401526101408101516101408401526101608101516101608401520151610180820152f35b346105bd5760803660031901126105bd5760243580151581036105bd576004356000526002602052604060002090600360205260406000206013830154908160005260205260086040600020015442118015612246575b1561220157600435600052600360205260406000208160005260205260096040600020015442116121c757600435600052600360205260406000208160005260205260036040600020013360005260205260ff6040600020541615612182576004356000526003602052604060002081600052602052600160406000200133600052602052611e8260ff60406000205416614d15565b6004356000526004602052604060002090600052602052604060002033600052602052604060002090600382019081549260ff841661213d576040516020810190604435825260643560408201523360601b606082015260548152611ee681614539565b519020600482015403612100576040519160208301604435815281151560f81b60408501526021845260608401938085106001600160401b0386111761148357600594604052519020948594600184549260443582870155606435600287015560ff1916179055339160ff60a01b90151560a01b16906affffffffffffffffffffff60a81b16171781550155600435600052600360205260406000206013830154600052602052604060002081600052806020526040600020611fa98154614f07565b9055816000528060205260406000205491600b8201928354908181146000146120b75750505050506004356000526003602052604060002060138201546000526020526000600a6040822001555b600435600052600360205260406000206013820154600052602052600e6040600020016120248154614f07565b905560405142815233907fb59f6416758d4763386b2c83d12c7c643131c90beff0caea486f303510702ce3602060043592a3600435600052600360205260406000209060138101549182600052602052600c600e604060002001549101541461208957005b7f86379e876dfaea4f98e183813a1a8fea7b8212d0dc9598d4e09ee4b9cdf4613360206040516004358152a2005b116120c5575b505050611ff7565b60043560005260036020526040600020601385015460005260205280600a6040600020015560005260205260406000205490558180806120bd565b60405162461bcd60e51b8152602060048201526015602482015274496e76616c69642072657665616c2076616c75657360581b6044820152606490fd5b60405162461bcd60e51b815260206004820152601b60248201527f436f6d6d69746d656e7420616c72656164792072657665616c656400000000006044820152606490fd5b60405162461bcd60e51b815260206004820152601f60248201527f596f7520617265206e6f74207468652063686f73656e207665726966696572006044820152606490fd5b60405162461bcd60e51b815260206004820152601260248201527114995d99585b081c1a185cd948195b99195960721b6044820152606490fd5b60405162461bcd60e51b815260206004820152601f60248201527f50726f76696465722072657665616c207068617365206e6f7420656e646564006044820152606490fd5b5060ff60148401541660098110156105a757600514611dec565b346105bd576020806003193601126105bd576004359081600052600281526040600020906009820154421015806123db575b806123cc575b156123755761231090600b83019260ff19936001858254161790558160018060a01b03806000541690600f84015416906122db60158501546001860154906148e6565b60405163a9059cbb60e01b81526001600160a01b03909316600484015260248301529094859190829060009082906044820190565b03925af1918215610ac057600693601493612357575b505001918254161790557f953601eba1acf6d4769af39f3986a5be6acd796655930c93832c2f239fbccabf600080a2005b8161236d92903d10610ab957610aaa818361456f565b508580612326565b6084906040519062461bcd60e51b82526004820152602a60248201527f566572696669636174696f6e20446561646c696e6520686173206e6f7420626560448201526932b7103830b9b9b2b21760b11b6064820152fd5b5060ff600b8301541615612298565b5060ff60148301541660098110156105a75760071415612292565b346105bd576124043661467c565b906000526003602052604060002090600052602052600360406000200133600052602052602060ff604060002054166040519015158152f35b346105bd576020806003193601126105bd5760043580600052600282526040600020600d810191825491600481019283548103612ae55760ff600b83015460081c1615612a9657600c820190815411612a455760098201549360108301546003958187029187830403610b90576124b76124be92426148e6565b1115614dd8565b836000528487526040600020926013810180549485600052895260019485604060002001336000528a5260ff60406000205416612a005786600052878a5260406000209060005289528460406000200133600052895260406000209760ff1998868a825416179055601983019384548b875482106000146128e8575050549061254985548093614b55565b906040518c8101904282524460408201523360601b60608201526054815261257081614539565b5190209282156128d257612680948b8e6125e961259585612670986125cb9a066148e6565b61259f8188614e4a565b90546001600160a01b039a91861b1c8a16968a906125bd908a614e4a565b905490871b1c169188614e4a565b90919060018060a01b038084549260031b9316831b921b1916179055565b6125f8846125cb8c5488614e4a565b8954898e7f441ea878e9821f31af14375bef585bac76bbbde0e10feddc036673243d01a1d78460128c61262b878d614e4a565b9054908a1b1c1694015494604051908152a48c60005252604060002090546000528d528a604060002001906000528c526040600020888c825416179055855490614e4a565b905490891b1c16600e8301614e78565b6126946017601683015492019182546148e6565b90555b8054928301809311610b905782905554146126ae57005b80600052600284526040600020906012820180546011840154111561288d576009830154601084019081548087029087820403610b90576126ef90426148e6565b101561282e5760149495967f27e90e135bb91bf6706a23381e6d0d480f8bb7d002d6e9a197b432b7b654245f92606092856000528883526040600020906013880191825460005284524260066040600020015561274d8154426148e6565b876000528a85526040600020835460005285526007604060002001558660005289845260406000208254908160005285526127926007604060002001548354906148e6565b90886000528b86526040600020906000528552600860406000200155866000528984526127d86040600020918354928360005286526008604060002001549054906148e6565b90876000528a8552604060002090600052845260096040600020015585600052888352604060002090546000528252600760406000200154905490604051924284528301526040820152a2018054909216179055005b60405162461bcd60e51b815260048101889052603160248201527f566572696669636174696f6e20446561646c696e652068617320706173736564604482015270081d1bc81cdd185c9d0818481c9bdd5b99607a1b6064820152608490fd5b60405162461bcd60e51b815260048101879052601e60248201527f416c6c206c61796572732068617665206265656e2070726f63657373656400006044820152606490fd5b634e487b7160e01b600052601260045260246000fd5b9093929461298d92506128fb8587614e4a565b95908c60018060a01b0397889254911b1c166012830154908c7fd2673c2f320637ecd6e1e7a21780cb318c5a6c5b49398f8c5ae9d0ae0aad474386604051868152a46016868d6129508260005416948b614e4a565b9054911b1c1692015491600060405180968195829463a9059cbb60e01b84526004840160209093929193604081019460018060a01b031681520152565b03925af18015610ac0576129e3575b508660005260048a526040600020905460005289526129c2604060002092845490614e4a565b905490881b1c16600052875260066040600020018387825416179055612697565b6129f9908b3d8d11610ab957610aaa818361456f565b508a61299c565b60405162461bcd60e51b8152600481018b9052601e60248201527f56657269666965722068617320616c72656164792074726967676572656400006044820152606490fd5b60405162461bcd60e51b815260048101879052602360248201527f4e6f7420656e6f7567682076657269666965727320746f2063686f6f73652066604482015262726f6d60e81b6064820152608490fd5b60405162461bcd60e51b815260048101879052602160248201527f5265717565737420686173206e6f74206265656e20636f6d70757465642079656044820152601d60fa1b6064820152608490fd5b60405162461bcd60e51b815260048101879052602160248201527f5665726966696572206c69737420686173206e6f74206265656e2066696c6c656044820152601960fa1b6064820152608490fd5b346105bd57612b423661467c565b9060005260036020526040600020906000526020526101a060406000206004810154906005810154906006810154600782015460088301546009840154600a850154600b86015491600c87015493600d88015495600e890154976010600f8b01549a01549a6040519c8d5260208d015260408c015260608b015260808a015260a089015260c088015260e0870152610100860152610120850152610140840152610160830152610180820152f35b346105bd57612bfe3661467c565b8160005260206002815260406000209060039081815260406000208460005281526009604060002001544210801590613252575b156131ff578460005281815260406000208460005281528160406000200133600052815260ff90612c698260406000205416614e9b565b85600052600481526040600020856000528152604060002033600052815281600660406000200154166131a75760138401938454861161313c576001928387106130df5787600052848352604060002087600052835283604060002001336000528352612cdc8160406000205416614d15565b87600052600483526040600020876000528352604060002033600052835260066040600020019460ff19958587825416179055886000528084526040600020886000528452600a60406000200154908115600014612ddb575050600080546016939093015460405163a9059cbb60e01b815233600482015260248101919091529284925083916044918391906001600160a01b03165af18015610ac057612dbe575b508560005260048152604060002085600052815260406000209033600052526006604060002001918254161790555414612db5575b005b612db390614fc5565b612dd490823d8411610ab957610aaa818361456f565b5086612d7e565b90929596978092988a60009796975260048752604060002082600052875260406000203360005287526005604060002001548514613003575b5414612e1c57005b6000898152908552604080822092825291855220600c015414612e5d5750506014915001541660098110156105a757600703612e5457005b612db390614b62565b90916012810190601182549101546000198101818111610b90578203612fe0575050612e898154614f07565b90558460005260028252604060002060148101948086541660098110156105a757600714612f9b57600b8201908154908116612f5657851683179055600054600f82015460158301549390920154612ef695949384936001600160a01b039081169316916122db916148e6565b03925af1928315610ac057600693612f38575b50508254161790557f953601eba1acf6d4769af39f3986a5be6acd796655930c93832c2f239fbccabf600080a2005b81612f4e92903d10610ab957610aaa818361456f565b508480612f09565b60405162461bcd60e51b815260048101869052601c60248201527f5265717565737420697320616c726561647920636f6d706c65746564000000006044820152606490fd5b60405162461bcd60e51b815260048101859052601760248201527f5265717565737420697320756e7375636365737366756c0000000000000000006044820152606490fd5b93509594509250508310612ff057005b612ffc612db393614f07565b9055614fc5565b60009150866130aa8c6130808b613049613026600c6016840154930154836148a4565b848952898752604089208b8a528752604089208c8a528752604089205490614efd565b9287526004855260408088208a895286528088203389528652872060060180548f168c17905586546001600160a01b0316926148e6565b60405163a9059cbb60e01b8152336004820152602481019190915294859283919082906044820190565b03925af1918215610ac05784926130c2575b50612e14565b6130d890883d8a11610ab957610aaa818361456f565b508b6130bc565b60405162461bcd60e51b815260048101849052602f60248201527f526f756e64206e756d626572206d75737420626520677265617465722074686160448201526e6e206f7220657175616c20746f203160881b6064820152608490fd5b60405162461bcd60e51b815260048101839052603a60248201527f726f756e64206e756d206d757374206265206c657373207468616e206f72206560448201527f7175616c20746f20726571756573742e726f756e64496e6465780000000000006064820152608490fd5b6084906040519062461bcd60e51b82526004820152602b60248201527f596f75206861766520616c7265616479206265656e207061696420666f72207660448201526a32b934b334b1b0ba34b7b760a91b6064820152fd5b6084906040519062461bcd60e51b82526004820152602660248201527f636f6d6d69746d656e7420737461676520686173206e6f742079657420636f6d6044820152651c1b195d195960d21b6064820152fd5b50846000528181526040600020846000528152600e60406000200154600c84015414612c32565b346105bd5760203660031901126105bd57600435600052600260205260406000206102205260018060a01b03610220515416613473600161022051015460026102205101546101405260036102205101546101605260046102205101546101a0526132e9600661022051016146cc565b92600861022051015461012052600961022051015493600a610220510154600b610220510154600c61022051015460018060a01b03600f610220510154169060ff60106102205101549360116102205101549561340160126102205101549860136102205101549a856014610220510154169c6015610220510154608052601661022051015460a052601761022051015460e05260186102205101546102005260196102205101546101e052601a6102205101546101c052601b61022051015461018052601c6102205101546101005260405160c0526103409160c05152602060c051015261014051604060c051015261016051606060c05101526101a051608060c05101528060a060c051015260c0510190614771565b9b6101205160c08051015260e060c051015261010060c0510152818116151561012060c051015260081c16151561014060c051015261016060c051015261018060c05101526101a060c05101526101c060c05101526101e060c051015261020060c051015261022060c05101906147b1565b60805161024060c051015260a05161026060c051015260e05161028060c0510152610200516102a060c05101526101e0516102c060c05101526101c0516102e060c05101526101805161030060c05101526101005161032060c051015260c051900360c051f35b346105bd576020806003193601126105bd57600435908160005260028152604060002090601a82015460058101809111610b905742106139655760ff600b83015460081c161561392157600f8201546001600160a01b039290831633146138c057600d8101908154936004820194855411156138825760ff60148301541660098110156105a7576002036137f157600054604051636eb1769f60e11b81523360048201523060248201529116908481604481855afa908115610ac0576000916137c4575b506040516370a0823160e01b8152336004820152908582602481865afa8015610ac0578692600091613791575b5092610cc66135ea61361a936000966016890154938480931015614d97565b6040516323b872dd60e01b8152336004820152306024820152604481019190915293849283919082906064820190565b03925af18015610ac05761363691600091613774575b50614d97565b600981015460108201549081600302916003830403610b90576124b761365c92426148e6565b84600052600383526040600020601382015490816000528452600260406000200133600052845260ff6040600020541661372f57906012918660005260038552604060002090600052845260026040600020013360005284526040600020600160ff198254161790556136cf3384614e78565b015492604051918433877f9e9159f67684b4639ef3d20a0878e965d2fa78dc33561fadb2485cd3d3447abf600080a45490541461370857005b7fac6c772803856f8be288c38a92349502c9d976deccefb05524c4eafedf049aeb928152a2005b60405162461bcd60e51b815260048101859052601860248201527f566572696669657220616c7265616479206170706c69656400000000000000006044820152606490fd5b61378b9150853d8711610ab957610aaa818361456f565b87613630565b8381939492503d83116137bd575b6137a9818361456f565b810103126105bd5751859190610cc66135cb565b503d61379f565b90508481813d83116137ea575b6137db818361456f565b810103126105bd57518761359e565b503d6137d1565b60405162461bcd60e51b815260048101859052605960248201527f56657269666965722063616e6e6f74206170706c7920666f722076657269666960448201527f636174696f6e2e2052657175657374207374617465206d75737420626520696e60648201527f2063686f6f73696e672076657269666965727320737461746500000000000000608482015260a490fd5b60405162461bcd60e51b815260048101859052601660248201527515995c9a599a595c881b1a5b5a5d081c995858da195960521b6044820152606490fd5b60405162461bcd60e51b815260048101839052603360248201527f546865206d61696e2070726f76696465722063616e6e6f74206170706c79207460448201527237903132b1b7b6b29030903b32b934b334b2b960691b6064820152608490fd5b6064906040519062461bcd60e51b82526004820152601860248201527f52657175657374206e6f742079657420636f6d707574656400000000000000006044820152fd5b6084906040519062461bcd60e51b82526004820152602e60248201527f4d75737420776169742035207365636f6e6473206265666f726520766572696660448201526d696572732063616e206170706c7960901b6064820152fd5b346105bd5760003660031901126105bd576000546040516001600160a01b039091168152602090f35b346105bd5760003660031901126105bd576020600154604051908152f35b346105bd5760003660031901126105bd57602060405160038152f35b346105bd57613a313661467c565b9080600052602091600283526040600020916009830154601084015480600302906003820403610b9057613a6590426148e6565b1115613be15780600052600384526040600020826000528452600260406000200133600052845260ff6040600020541615613b6057600092849282613b3a93865260048552604086208287528552604086203387528552613ad060ff60066040892001541615614d57565b85526004808552604080872092875291855281862033808852908652828720600601805460ff19166001179055865460169490940154925163a9059cbb60e01b81529182015260248101919091529384926001600160a01b03929092169183919082906044820190565b03925af18015610ac057613b4a57005b81612db392903d10610ab957610aaa818361456f565b60405162461bcd60e51b815260048101859052604d60248201527f5665726966696572206861732065697468657220616c7265616479207265636960448201527f65766564207374616b652c206f7220646964206e6f74206170706c7920666f7260648201526c103b32b934b334b1b0ba34b7b760991b608482015260a490fd5b60405162461bcd60e51b815260048101859052602860248201527f566572696669636174696f6e20646561646c696e6520686173206e6f742079656044820152671d081c185cdcd95960c21b6064820152608490fd5b346105bd57613c453661467c565b816000526020916003835260406000208260005283526001604060002001336000528352613c7a60ff60406000205416614d15565b80600052600383526040600020826000528352600360406000200133600052835260ff60406000205416613d2657806000526004835260406000208260005283526040600020336000528352613cdb60ff6006604060002001541615614d57565b6000805482825260028552604080832060160154905163a9059cbb60e01b8152336004820152602481019190915291859183916001600160a01b039091169082908160448101610a4e565b60405162461bcd60e51b815260048101849052602360248201527f43686f73656e2076657269666569722063616e6e6f742072657475726e207374604482015262616b6560e81b6064820152608490fd5b346105bd5760203660031901126105bd57612db3600435614b62565b346105bd5760203660031901126105bd57612db36004356148f3565b346105bd5760803660031901126105bd576004356024803560443590606435918460005260209160028352604060002060018060a01b03600f82015416330361407d578660005260038452604060002093601382018054958660005282526007604060002001544211801561404e575b1561400a57886000526003825260406000208660005282526008604060002001544211613fc6578860005260058252604060002084600052825260ff60406000205416613f785760405195828701888152600160f81b6040890152602188526060880199888b106001600160401b038c1117613f6457509260a095928a98959260609a98957f2f06062ea665468a61997fd63a8ec957f95fda34ee5de1123656b796f400cf189c60405287519020908d600052600384526040600020906000528352600c604060002001558b60005260038252604060002081546000528252846010604060002001558b6000526003825260406000209054600052815282600f604060002001558a6000526005815260406000209083600052526005601460406000209260ff19936001858254161790550191825416179055855260808201520152a2005b634e487b7160e01b60009081526041600452fd5b60405162461bcd60e51b8152600481018390526021818a01527f50726976617465206b65792068617320616c7265616479206265656e207573656044820152601960fa1b6064820152608490fd5b60405162461bcd60e51b815260048101839052601b818a01527f50726f76696465722072657665616c20706861736520656e64656400000000006044820152606490fd5b60405162461bcd60e51b815260048101839052601a818a01527f436f6d6d69746d656e74207068617365206e6f7420656e6465640000000000006044820152606490fd5b5060ff601484015416600981101561406857600414613e1f565b88634e487b7160e01b60005260216004526000fd5b60405162461bcd60e51b8152600481018590526032818801527f4f6e6c7920746865206d61696e2070726f76696465722063616e2072657665616044820152710d840e8d0ca40d6caf240c2dcc840d0c2e6d60731b6064820152608490fd5b346105bd576140ea3661467c565b906000526003602052604060002090600052602052600260406000200133600052602052602060ff604060002054166040519015158152f35b346105bd576141313661467c565b906000526005602052604060002090600052602052602060ff604060002054166040519015158152f35b346105bd576141693661467c565b906000526003602052604060002090600052602052600160406000200133600052602052602060ff604060002054166040519015158152f35b346105bd5760403660031901126105bd576004356001600160401b03602480358281116105bd576141d79036906004016145fd565b83600052602060028152604060002093600b8501805460ff8116614495576142056008880154421115614858565b600f8701546001600160a01b0316330361443e5761ff001916610100179055825192600786019190600160401b851161148357839083548685558087106143c4575b506000938452848420939691015b8587106142955742601a8901558861426c81614fc5565b33907fd8fcbb5eddba1b1984c4f12b2197b325cc19ed135c968033ffd714c7f4c2d6bd600080a3005b80518051908482116143af57908692916142af8754614692565b90601f91828111614377575b50849183116001146143095782600195938695936142ef936000926142fe5750508160011b916000199060031b1c19161790565b87555b01940196019592614255565b015190508f806111ea565b90601f9493941983169188600052846000209260005b81811061435f5750916001969391858897969410614346575b505050831b830187556142f2565b015160001960f88460031b161c191690558d8080614338565b8284015185558b96600190950194938401930161431f565b6143a0908960005286600020600585808801821c8301938a89106143a6575b01901c01906148b7565b8d6142bb565b93508293614396565b83634e487b7160e01b60005260416004526000fd5b84600052868360002091820191015b8181106143e05750614247565b6001919293506143f08154614692565b80614401575b5001908592916143d3565b601f90818111841461441a575050600081555b8b6143f6565b6144356000928484528a8420920160051c82018583016148b7565b81835555614414565b60405162461bcd60e51b815260048101859052602960248201527f4f6e6c792063686f73656e2070726f76696465722063616e20636f6d706c657460448201526819481c995c5d595cdd60ba1b6064820152608490fd5b60405162461bcd60e51b815260048101859052602260248201527f526571756573742068617320616c7265616479206265656e20636f6d706c6574604482015261195960f21b6064820152608490fd5b6101a081019081106001600160401b0382111761148357604052565b6103c081019081106001600160401b0382111761148357604052565b61010081019081106001600160401b0382111761148357604052565b608081019081106001600160401b0382111761148357604052565b602081019081106001600160401b0382111761148357604052565b90601f801991011681019081106001600160401b0382111761148357604052565b6001600160401b0381116114835760051b60200190565b81601f820112156105bd578035906001600160401b03821161148357604051926145db601f8401601f19166020018561456f565b828452602083830101116105bd57816000926020809301838601378301015290565b81601f820112156105bd5780359160209161461784614590565b93614625604051958661456f565b808552838086019160051b830101928084116105bd57848301915b8483106146505750505050505090565b82356001600160401b0381116105bd578691614671848480948901016145a7565b815201920191614640565b60409060031901126105bd576004359060243590565b90600182811c921680156146c2575b60208310146146ac57565b634e487b7160e01b600052602260045260246000fd5b91607f16916146a1565b906040519182600082546146df81614692565b9081845260209460019160018116908160001461474f5750600114614710575b50505061470e9250038361456f565b565b600090815285812095935091905b81831061473757505061470e93508201013880806146ff565b8554888401850152948501948794509183019161471e565b9250505061470e94925060ff191682840152151560051b8201013880806146ff565b919082519283825260005b84811061479d575050826000602080949584010152601f8019910116010190565b60208183018101518483018201520161477c565b9060098210156105a75752565b90808251908181526020809101926020808460051b8301019501936000915b8483106147ed5750505050505090565b909192939495848061480b600193601f198682030187528a51614771565b98019301930191949392906147dd565b90815180825260208080930193019160005b82811061483b575050505090565b83516001600160a01b03168552938101939281019260010161482d565b1561485f57565b60405162461bcd60e51b815260206004820152601b60248201527f436f6d7075746174696f6e20646561646c696e652070617373656400000000006044820152606490fd5b81810292918115918404141715610b9057565b8181106148c2575050565b600081556001016148b7565b908160209103126105bd575180151581036105bd5790565b91908201809211610b9057565b600081815260026020908152604080832080546001600160a01b039081169391929033859003614b0557600b84019460ff865416614ac157839082600f8701541615614a875750506008840154421180614a78575b15614a1e5790826149a092614966600a8701546015880154906148e6565b90808954169087541689855180978195829463a9059cbb60e01b84526004840160209093929193604081019460018060a01b031681520152565b03925af1908115614a155750926008926014927fee243f878b7fc2f54e934ca33783d4395d42bc07612e2bd4b8e0e178639f7a289796956149f7575b505060ff1993600185825416179055019182541617905580a2565b81614a0d92903d10610ab957610aaa818361456f565b5038806149dc565b513d87823e3d90fd5b815162461bcd60e51b815260048101849052602d60248201527f436f6d7075746174696f6e20646561646c696e6520686173206e6f742079657460448201526c081899595b881c995858da1959609a1b6064820152608490fd5b5060ff855460081c1615614948565b8754600a870154855163a9059cbb60e01b81526001600160a01b0390931660048401526024830152909392849116818981604481016149a0565b825162461bcd60e51b815260048101859052601960248201527f5265717565737420616c726561647920636f6d706c65746564000000000000006044820152606490fd5b815162461bcd60e51b8152600481018490526024808201527f4f6e6c792074686520636f6e73756d65722063616e2077697468647261772066604482015263756e647360e01b6064820152608490fd5b91908203918211610b9057565b600081815260026020908152604080832060038352818420601382015485528352818420600a810154600c9091015492939192141580614ce6575b15614c9257614c2a601483019360ff19946007868254161790558260018060a01b03808854169086541690614bf7614bec614be160018a015460158b0154906148e6565b60028a0154906148e6565b601789015490614b55565b845163a9059cbb60e01b81526001600160a01b0390931660048401526024830152909384919082908a9082906044820190565b03925af1908115614a15575092600192600b927f6d55d799468c2d702d8ff65d462b4e8dbbc88c728431aee69b205a3964362f07979695614c74575b5050019182541617905580a2565b81614c8a92903d10610ab957610aaa818361456f565b503880614c66565b60849083519062461bcd60e51b82526004820152602860248201527f5265717565737420697320616c726561647920696e20756e7375636365737366604482015267756c20737461746560c01b6064820152fd5b5060ff6014830154166009811015614d015760071415614b9d565b634e487b7160e01b85526021600452602485fd5b15614d1c57565b60405162461bcd60e51b81526020600482015260136024820152722cb7ba903234b2103737ba103a3934b3b3b2b960691b6044820152606490fd5b15614d5e57565b60405162461bcd60e51b8152602060048201526011602482015270105b1c9958591e481899595b881c185a59607a1b6044820152606490fd5b15614d9e57565b60405162461bcd60e51b8152602060048201526012602482015271496e73756666696369656e74207374616b6560701b6044820152606490fd5b15614ddf57565b60405162461bcd60e51b815260206004820152603d60248201527f4e6f7420656e6f7567682074696d6520746f20706572666f726d20726f756e6460448201527f206265666f726520766572696669636174696f6e20646561646c696e650000006064820152608490fd5b8054821015614e625760005260206000200190600090565b634e487b7160e01b600052603260045260246000fd5b90815491600160401b83101561148357826125cb91600161470e95018155614e4a565b15614ea257565b60405162461bcd60e51b815260206004820152602d60248201527f596f7520617265206e6f74207468652063686f73656e2076657269666965722060448201526c1a5b881d1a1a5cc81c9bdd5b99609a1b6064820152608490fd5b81156128d2570490565b6000198114610b905760010190565b908154614f2281614590565b92614f30604051948561456f565b818452600090815260208082208186015b848410614f4f575050505050565b6001838192614f5d856146cc565b815201920193019290614f41565b90604051918281549182825260209260208301916000526020600020936000905b828210614fa25750505061470e9250038361456f565b85546001600160a01b031684526001958601958895509381019390910190614f8c565b6000818152600260209081526040808320600f8101546001600160a01b03161561513e57838251614ff581614554565b52600d8101805485825580615126575b50845283825161501481614554565b52600e810180548582558061510e575b50845260148101600260ff1982541617905560138101805490600182018092116150fa579386937fb39ebde6d06658d2f25237a5031f2a70eadf752f8ecc1b74081c3768822f02729360a0937f2d4e685f9af8cf88fb3e3447f1ee8e4e5e68423a2c393dc8d6e9784aa67ddafa989755866019820155857f7cdb7f0bd04877caf5dda7a202130926cdd67ad312dada203661ff6d880684348460128401548551908152a2601681015491600982015490600460108401549301549381519533875286015284015260608301526080820152a280a2565b634e487b7160e01b86526011600452602486fd5b818652848620615120918101906148b7565b38615024565b818652848620615138918101906148b7565b38615005565b815162461bcd60e51b815260048101849052602760248201527f4d61696e2070726f766964657220686173206e6f7420796574206265656e2073604482015266195b1958dd195960ca1b6064820152608490fdfea26469706673582212207700903032cb2c030f1af88d0351211d57c959964baa848674170df235a3a46864736f6c63430008170033","linkReferences":{}},"methodIdentifiers":{"MIN_VERIFIERS()":"53e2ba17","applyForVerificationForRequest(uint256)":"6d8f9a0e","calculateMajorityAndReward(uint256,uint256)":"847ada57","cancelRequest(uint256)":"3015394c","chooseVerifiersForRequestTrigger(uint256)":"951c5ce2","compToken()":"6605dfa7","completeRequest(uint256,string[])":"0625f161","createRequest(uint256,uint256,uint256,uint256,string[],string,uint256,uint256,uint256,uint256,uint256,uint256,bytes32,uint256)":"e007657e","getRequestDetails(uint256)":"f34d4c63","getRoundDetails(uint256,uint256)":"ddf3532c","getVerificationDetails(uint256,uint256,address)":"e819ff28","getVerifiersAppliedForRound(uint256,uint256)":"175f4c0c","getVerifiersChosenForRound(uint256,uint256)":"975026af","getVerifiersTriggeredForRound(uint256,uint256)":"0a39bf2c","getVoteCountForHashForRound(uint256,uint256,bytes32)":"e7b6c4ec","providerFailure(uint256)":"3295845c","providerPrivateKeys(uint256,uint256)":"13f08bbf","providerSuccessCall(uint256)":"b10ceb59","requestCount()":"5badbe4c","requests(uint256)":"81d12c58","returnStake(uint256,uint256)":"38488abc","returnStakeDueToTimeout(uint256,uint256)":"e2e7cbe6","revealCommitment(uint256,bool,bytes32,bytes32)":"bfdb3451","revealProviderKeyAndHash(uint256,uint256,uint256,bytes32)":"253bd3e9","roundDetails(uint256,uint256)":"8ea49eca","selectRequest(uint256)":"e03ad0d1","submitCommitment(uint256,bytes32)":"e6a3d9dc","verificationDeadlinePassedForVeryfying(uint256,uint256)":"4beda221"},"id":1}