{"abi":[{"type":"constructor","inputs":[{"name":"compTokenAddress","type":"address","internalType":"address"}],"stateMutability":"nonpayable"},{"type":"function","name":"MIN_VERIFIERS","inputs":[],"outputs":[{"name":"","type":"uint256","internalType":"uint256"}],"stateMutability":"view"},{"type":"function","name":"applyForVerificationForRequest","inputs":[{"name":"requestId","type":"uint256","internalType":"uint256"}],"outputs":[],"stateMutability":"nonpayable"},{"type":"function","name":"calculateMajorityAndReward","inputs":[{"name":"requestId","type":"uint256","internalType":"uint256"},{"name":"roundNum","type":"uint256","internalType":"uint256"}],"outputs":[],"stateMutability":"nonpayable"},{"type":"function","name":"cancelRequest","inputs":[{"name":"requestId","type":"uint256","internalType":"uint256"}],"outputs":[],"stateMutability":"nonpayable"},{"type":"function","name":"chooseVerifiersForRequestTrigger","inputs":[{"name":"requestId","type":"uint256","internalType":"uint256"}],"outputs":[],"stateMutability":"nonpayable"},{"type":"function","name":"compToken","inputs":[],"outputs":[{"name":"","type":"address","internalType":"contract IERC20"}],"stateMutability":"view"},{"type":"function","name":"completeRequest","inputs":[{"name":"requestId","type":"uint256","internalType":"uint256"},{"name":"outputFileURLs","type":"string[]","internalType":"string[]"}],"outputs":[],"stateMutability":"nonpayable"},{"type":"function","name":"createRequest","inputs":[{"name":"paymentForProvider","type":"uint256","internalType":"uint256"},{"name":"paymentPerRoundForVerifiers","type":"uint256","internalType":"uint256"},{"name":"numOperations","type":"uint256","internalType":"uint256"},{"name":"numVerifiers","type":"uint256","internalType":"uint256"},{"name":"inputFileURLs","type":"string[]","internalType":"string[]"},{"name":"operationFileURL","type":"string","internalType":"string"},{"name":"computationDeadline","type":"uint256","internalType":"uint256"},{"name":"verificationDeadline","type":"uint256","internalType":"uint256"},{"name":"timeAllocatedForVerification","type":"uint256","internalType":"uint256"},{"name":"numVerifiersSampleSize","type":"uint256","internalType":"uint256"},{"name":"protocolVersion","type":"uint256","internalType":"uint256"},{"name":"layerSize","type":"uint256","internalType":"uint256"},{"name":"hashOfInputFiles","type":"bytes32","internalType":"bytes32"},{"name":"stake","type":"uint256","internalType":"uint256"}],"outputs":[],"stateMutability":"nonpayable"},{"type":"function","name":"getRequestDetails","inputs":[{"name":"requestId","type":"uint256","internalType":"uint256"}],"outputs":[{"name":"","type":"tuple","internalType":"struct ComputationMarket.Request","components":[{"name":"consumer","type":"address","internalType":"address"},{"name":"paymentForProvider","type":"uint256","internalType":"uint256"},{"name":"totalPaymentForVerifiers","type":"uint256","internalType":"uint256"},{"name":"numOperations","type":"uint256","internalType":"uint256"},{"name":"numVerifiers","type":"uint256","internalType":"uint256"},{"name":"inputFileURLs","type":"string[]","internalType":"string[]"},{"name":"operationFileURL","type":"string","internalType":"string"},{"name":"outputFileURLs","type":"string[]","internalType":"string[]"},{"name":"computationDeadline","type":"uint256","internalType":"uint256"},{"name":"verificationDeadline","type":"uint256","internalType":"uint256"},{"name":"totalPayment","type":"uint256","internalType":"uint256"},{"name":"completed","type":"bool","internalType":"bool"},{"name":"hasBeenComputed","type":"bool","internalType":"bool"},{"name":"numVerifiersSampleSize","type":"uint256","internalType":"uint256"},{"name":"verifiers","type":"address[]","internalType":"address[]"},{"name":"chosenVerifiers","type":"address[]","internalType":"address[]"},{"name":"mainProvider","type":"address","internalType":"address"},{"name":"timeAllocatedForVerification","type":"uint256","internalType":"uint256"},{"name":"layerCount","type":"uint256","internalType":"uint256"},{"name":"layerComputeIndex","type":"uint256","internalType":"uint256"},{"name":"roundIndex","type":"uint256","internalType":"uint256"},{"name":"state","type":"uint8","internalType":"enum ComputationMarket.RequestStates"},{"name":"stake","type":"uint256","internalType":"uint256"},{"name":"paymentPerRoundForVerifiers","type":"uint256","internalType":"uint256"},{"name":"totalPaidForVerification","type":"uint256","internalType":"uint256"},{"name":"protocolVersion","type":"uint256","internalType":"uint256"},{"name":"verifierSelectionCount","type":"uint256","internalType":"uint256"},{"name":"firstinitialisedTime","type":"uint256","internalType":"uint256"},{"name":"layerSize","type":"uint256","internalType":"uint256"},{"name":"hashOfInputFiles","type":"bytes32","internalType":"bytes32"}]}],"stateMutability":"view"},{"type":"function","name":"getRoundDetails","inputs":[{"name":"requestId","type":"uint256","internalType":"uint256"},{"name":"roundIndex","type":"uint256","internalType":"uint256"}],"outputs":[{"name":"","type":"tuple","internalType":"struct ComputationMarket.RoundDetailsOutput","components":[{"name":"roundIndex","type":"uint256","internalType":"uint256"},{"name":"layerComputeIndex","type":"uint256","internalType":"uint256"},{"name":"verificationStartTime","type":"uint256","internalType":"uint256"},{"name":"commitEndTime","type":"uint256","internalType":"uint256"},{"name":"providerRevealEndTime","type":"uint256","internalType":"uint256"},{"name":"commitmentRevealEndTime","type":"uint256","internalType":"uint256"},{"name":"majorityVoteHash","type":"bytes32","internalType":"bytes32"},{"name":"majorityCount","type":"uint256","internalType":"uint256"},{"name":"mainProviderAnswerHash","type":"bytes32","internalType":"bytes32"}]}],"stateMutability":"view"},{"type":"function","name":"getVerificationDetails","inputs":[{"name":"requestId","type":"uint256","internalType":"uint256"},{"name":"roundNum","type":"uint256","internalType":"uint256"},{"name":"verifier","type":"address","internalType":"address"}],"outputs":[{"name":"","type":"tuple","internalType":"struct ComputationMarket.Verification","components":[{"name":"verifier","type":"address","internalType":"address"},{"name":"agree","type":"bool","internalType":"bool"},{"name":"answer","type":"bytes32","internalType":"bytes32"},{"name":"nonce","type":"bytes32","internalType":"bytes32"},{"name":"revealed","type":"bool","internalType":"bool"},{"name":"computedHash","type":"bytes32","internalType":"bytes32"},{"name":"voteHash","type":"bytes32","internalType":"bytes32"},{"name":"verifierPaid","type":"bool","internalType":"bool"}]}],"stateMutability":"view"},{"type":"function","name":"providerFailure","inputs":[{"name":"requestId","type":"uint256","internalType":"uint256"}],"outputs":[],"stateMutability":"nonpayable"},{"type":"function","name":"providerPrivateKeys","inputs":[{"name":"","type":"uint256","internalType":"uint256"},{"name":"","type":"bytes32","internalType":"bytes32"}],"outputs":[{"name":"","type":"bool","internalType":"bool"}],"stateMutability":"view"},{"type":"function","name":"providerSuccessCall","inputs":[{"name":"requestId","type":"uint256","internalType":"uint256"}],"outputs":[],"stateMutability":"nonpayable"},{"type":"function","name":"requestCount","inputs":[],"outputs":[{"name":"","type":"uint256","internalType":"uint256"}],"stateMutability":"view"},{"type":"function","name":"requests","inputs":[{"name":"","type":"uint256","internalType":"uint256"}],"outputs":[{"name":"consumer","type":"address","internalType":"address"},{"name":"paymentForProvider","type":"uint256","internalType":"uint256"},{"name":"totalPaymentForVerifiers","type":"uint256","internalType":"uint256"},{"name":"numOperations","type":"uint256","internalType":"uint256"},{"name":"numVerifiers","type":"uint256","internalType":"uint256"},{"name":"operationFileURL","type":"string","internalType":"string"},{"name":"computationDeadline","type":"uint256","internalType":"uint256"},{"name":"verificationDeadline","type":"uint256","internalType":"uint256"},{"name":"totalPayment","type":"uint256","internalType":"uint256"},{"name":"completed","type":"bool","internalType":"bool"},{"name":"hasBeenComputed","type":"bool","internalType":"bool"},{"name":"numVerifiersSampleSize","type":"uint256","internalType":"uint256"},{"name":"mainProvider","type":"address","internalType":"address"},{"name":"timeAllocatedForVerification","type":"uint256","internalType":"uint256"},{"name":"layerCount","type":"uint256","internalType":"uint256"},{"name":"layerComputeIndex","type":"uint256","internalType":"uint256"},{"name":"roundIndex","type":"uint256","internalType":"uint256"},{"name":"state","type":"uint8","internalType":"enum ComputationMarket.RequestStates"},{"name":"stake","type":"uint256","internalType":"uint256"},{"name":"paymentPerRoundForVerifiers","type":"uint256","internalType":"uint256"},{"name":"totalPaidForVerification","type":"uint256","internalType":"uint256"},{"name":"protocolVersion","type":"uint256","internalType":"uint256"},{"name":"verifierSelectionCount","type":"uint256","internalType":"uint256"},{"name":"firstinitialisedTime","type":"uint256","internalType":"uint256"},{"name":"layerSize","type":"uint256","internalType":"uint256"},{"name":"hashOfInputFiles","type":"bytes32","internalType":"bytes32"}],"stateMutability":"view"},{"type":"function","name":"returnStake","inputs":[{"name":"requestId","type":"uint256","internalType":"uint256"},{"name":"roundNum","type":"uint256","internalType":"uint256"}],"outputs":[],"stateMutability":"nonpayable"},{"type":"function","name":"returnStakeDueToTimeout","inputs":[{"name":"requestId","type":"uint256","internalType":"uint256"},{"name":"roundNum","type":"uint256","internalType":"uint256"}],"outputs":[],"stateMutability":"nonpayable"},{"type":"function","name":"revealCommitment","inputs":[{"name":"requestId","type":"uint256","internalType":"uint256"},{"name":"agree","type":"bool","internalType":"bool"},{"name":"answer","type":"bytes32","internalType":"bytes32"},{"name":"nonce","type":"bytes32","internalType":"bytes32"}],"outputs":[],"stateMutability":"nonpayable"},{"type":"function","name":"revealProviderKeyAndHash","inputs":[{"name":"requestId","type":"uint256","internalType":"uint256"},{"name":"privateKey","type":"bytes32","internalType":"bytes32"},{"name":"answerHash","type":"bytes32","internalType":"bytes32"}],"outputs":[],"stateMutability":"nonpayable"},{"type":"function","name":"roundDetails","inputs":[{"name":"","type":"uint256","internalType":"uint256"},{"name":"","type":"uint256","internalType":"uint256"}],"outputs":[{"name":"roundIndex","type":"uint256","internalType":"uint256"},{"name":"layerComputeIndex","type":"uint256","internalType":"uint256"},{"name":"verificationStartTime","type":"uint256","internalType":"uint256"},{"name":"commitEndTime","type":"uint256","internalType":"uint256"},{"name":"providerRevealEndTime","type":"uint256","internalType":"uint256"},{"name":"commitmentRevealEndTime","type":"uint256","internalType":"uint256"},{"name":"majorityVoteHash","type":"bytes32","internalType":"bytes32"},{"name":"majorityCount","type":"uint256","internalType":"uint256"},{"name":"mainProviderAnswerHash","type":"bytes32","internalType":"bytes32"}],"stateMutability":"view"},{"type":"function","name":"selectRequest","inputs":[{"name":"requestId","type":"uint256","internalType":"uint256"}],"outputs":[],"stateMutability":"nonpayable"},{"type":"function","name":"startNextRound","inputs":[{"name":"requestId","type":"uint256","internalType":"uint256"}],"outputs":[],"stateMutability":"nonpayable"},{"type":"function","name":"submitCommitment","inputs":[{"name":"requestId","type":"uint256","internalType":"uint256"},{"name":"computedHash","type":"bytes32","internalType":"bytes32"}],"outputs":[],"stateMutability":"nonpayable"},{"type":"function","name":"verificationDeadlinePassedForVeryfying","inputs":[{"name":"requestId","type":"uint256","internalType":"uint256"},{"name":"roundNum","type":"uint256","internalType":"uint256"}],"outputs":[],"stateMutability":"nonpayable"},{"type":"event","name":"AlertVerifiers","inputs":[{"name":"requestId","type":"uint256","indexed":false,"internalType":"uint256"},{"name":"provider","type":"address","indexed":false,"internalType":"address"},{"name":"verificationPrice","type":"uint256","indexed":false,"internalType":"uint256"},{"name":"verificationDeadline","type":"uint256","indexed":false,"internalType":"uint256"},{"name":"timeAllocatedForVerification","type":"uint256","indexed":false,"internalType":"uint256"}],"anonymous":false},{"type":"event","name":"CommitmentPhaseStarted","inputs":[{"name":"requestId","type":"uint256","indexed":true,"internalType":"uint256"},{"name":"startTime","type":"uint256","indexed":false,"internalType":"uint256"},{"name":"endTime","type":"uint256","indexed":false,"internalType":"uint256"},{"name":"layerComputeIndex","type":"uint256","indexed":false,"internalType":"uint256"}],"anonymous":false},{"type":"event","name":"CommitmentSubmitted","inputs":[{"name":"requestId","type":"uint256","indexed":true,"internalType":"uint256"},{"name":"verifier","type":"address","indexed":true,"internalType":"address"}],"anonymous":false},{"type":"event","name":"NoMajorityForRound","inputs":[{"name":"requestId","type":"uint256","indexed":true,"internalType":"uint256"},{"name":"layerComputeIndex","type":"uint256","indexed":false,"internalType":"uint256"}],"anonymous":false},{"type":"event","name":"ProviderResultSuccessfullyVerified","inputs":[{"name":"requestId","type":"uint256","indexed":true,"internalType":"uint256"}],"anonymous":false},{"type":"event","name":"ProviderResultUnsuccessful","inputs":[{"name":"requestId","type":"uint256","indexed":true,"internalType":"uint256"}],"anonymous":false},{"type":"event","name":"ProviderRevealed","inputs":[{"name":"requestId","type":"uint256","indexed":true,"internalType":"uint256"},{"name":"privateKey","type":"bytes32","indexed":false,"internalType":"bytes32"},{"name":"answerHash","type":"bytes32","indexed":false,"internalType":"bytes32"}],"anonymous":false},{"type":"event","name":"ProviderSelected","inputs":[{"name":"requestId","type":"uint256","indexed":true,"internalType":"uint256"},{"name":"provider","type":"address","indexed":true,"internalType":"address"}],"anonymous":false},{"type":"event","name":"ProviderSlashed","inputs":[{"name":"requestId","type":"uint256","indexed":true,"internalType":"uint256"},{"name":"provider","type":"address","indexed":true,"internalType":"address"}],"anonymous":false},{"type":"event","name":"RequestCancelled","inputs":[{"name":"requestId","type":"uint256","indexed":true,"internalType":"uint256"}],"anonymous":false},{"type":"event","name":"RequestCompletedByProvider","inputs":[{"name":"requestId","type":"uint256","indexed":true,"internalType":"uint256"},{"name":"provider","type":"address","indexed":true,"internalType":"address"}],"anonymous":false},{"type":"event","name":"RequestCreated","inputs":[{"name":"requestId","type":"uint256","indexed":true,"internalType":"uint256"},{"name":"consumer","type":"address","indexed":true,"internalType":"address"}],"anonymous":false},{"type":"event","name":"RevealVerificationDetails","inputs":[{"name":"requestId","type":"uint256","indexed":true,"internalType":"uint256"},{"name":"endTime","type":"uint256","indexed":false,"internalType":"uint256"},{"name":"verifier","type":"address","indexed":true,"internalType":"address"}],"anonymous":false},{"type":"event","name":"RoundInitialised","inputs":[{"name":"requestId","type":"uint256","indexed":true,"internalType":"uint256"}],"anonymous":false},{"type":"event","name":"RoundRevealStarted","inputs":[{"name":"requestId","type":"uint256","indexed":true,"internalType":"uint256"}],"anonymous":false},{"type":"event","name":"RoundStartedForVerificationSelection","inputs":[{"name":"requestId","type":"uint256","indexed":true,"internalType":"uint256"},{"name":"layerComputeIndex","type":"uint256","indexed":false,"internalType":"uint256"}],"anonymous":false},{"type":"event","name":"VerificationApplied","inputs":[{"name":"requestId","type":"uint256","indexed":true,"internalType":"uint256"},{"name":"verifier","type":"address","indexed":true,"internalType":"address"},{"name":"layerComputeIndex","type":"uint256","indexed":true,"internalType":"uint256"}],"anonymous":false},{"type":"event","name":"VerificationSelectionStarted","inputs":[{"name":"requestId","type":"uint256","indexed":true,"internalType":"uint256"},{"name":"layerComputeIndex","type":"uint256","indexed":false,"internalType":"uint256"}],"anonymous":false},{"type":"event","name":"VerifierChosen","inputs":[{"name":"requestId","type":"uint256","indexed":true,"internalType":"uint256"},{"name":"verifier","type":"address","indexed":true,"internalType":"address"},{"name":"layerComputeIndex","type":"uint256","indexed":true,"internalType":"uint256"},{"name":"verifierIndex","type":"uint256","indexed":false,"internalType":"uint256"}],"anonymous":false},{"type":"event","name":"VerifierUnchosen","inputs":[{"name":"requestId","type":"uint256","indexed":true,"internalType":"uint256"},{"name":"verifier","type":"address","indexed":true,"internalType":"address"},{"name":"layerComputeIndex","type":"uint256","indexed":true,"internalType":"uint256"},{"name":"verifierIndex","type":"uint256","indexed":false,"internalType":"uint256"}],"anonymous":false},{"type":"event","name":"VoteSubmitted","inputs":[{"name":"requestId","type":"uint256","indexed":true,"internalType":"uint256"},{"name":"verifier","type":"address","indexed":true,"internalType":"address"},{"name":"agree","type":"bool","indexed":false,"internalType":"bool"}],"anonymous":false}],"bytecode":{"object":"0x608034620000c657601f62004fc238819003918201601f19168301916001600160401b03831184841017620000cb57808492602094604052833981010312620000c657516001600160a01b03811690819003620000c65780156200008157600080546001600160a01b031916919091179055604051614ee09081620000e28239f35b60405162461bcd60e51b815260206004820152601560248201527f496e76616c696420746f6b656e206164647265737300000000000000000000006044820152606490fd5b600080fd5b634e487b7160e01b600052604160045260246000fdfe610240604052600436101561001357600080fd5b60003560e01c80630625f16114613e655780630900856314613cfb5780633015394c14613cdf5780633295845c14613cc357806338488abc14613b8357806342c2e85414613b4b5780634beda2211461397357806353e2ba17146139575780635badbe4c146139395780636605dfa7146139105780636d8f9a0e1461342a57806381d12c58146131c9578063847ada5714612bfa5780638ea49eca14612b6c578063951c5ce214612475578063b10ceb59146122df578063bfdb345114611ee7578063ddf3532c14611dc3578063e007657e14610ff8578063e03ad0d114610dd0578063e20fb7a114610b29578063e2e7cbe614610880578063e6a3d9dc146106e0578063e819ff28146105a15763f34d4c631461013057600080fd5b3461059c57602036600319011261059c5760006103a0604051610152816141c4565b828152826020820152826040820152826060820152826080820152606060a0820152606060c0820152606060e08201528261010082015282610120820152826101408201528261016082015282610180820152826101a082015260606101c082015260606101e08201528261020082015282610220820152826102408201528261026082015282610280820152826102a0820152826102c0820152826102e0820152826103008201528261032082015282610340820152826103608201528261038082015201526004356000526002602052604060002060405190610236826141c4565b80546001600160a01b031682526001810154602083015260028101546040830152600381015460608301526004810154608083015261027760058201614c34565b60a08301526102886006820161438f565b60c083015261029960078201614c34565b60e083015260088101546101008301526009810154610120830152600a81015461014083015260ff600b820154818116151561016085015260081c161515610180830152600c8101546101a08301526102f4600d8201614c89565b6101c0830152610306600e8201614c89565b6101e0830152600f8101546001600160a01b03166102008301526010810154610220830152601181015461024083015260128101546102608301526013810154610280830152601481015460ff1690600982101561058657601c916102a084015260158101546102c084015260168101546102e0840152601781015461030084015260188101546103208401526019810154610340840152601a810154610360840152601b81015461038084015201546103a082015260405180916020825260018060a01b038151166020830152602081015160408301526040810151606083015260608101516080830152608081015160a08301526103a06104cf6104b761045361043c61042660a08701516103c060c08a01526103e0890190614481565b60c0870151888203601f190160e08a0152614434565b60e0860151878203601f1901610100890152614481565b610100850151610120870152610120850151610140870152610140850151610160870152610160850151151561018087015261018085015115156101a08701526101a08501516101c08701526101c0850151601f19878303016101e08801526144de565b6101e0840151858203601f19016102008701526144de565b9160018060a01b03610200820151166102208501526102208101516102408501526102408101516102608501526102608101516102808501526102808101516102a08501526105286102a08201516102c0860190614474565b6102c08101516102e08501526102e08101516103008501526103008101516103208501526103208101516103408501526103408101516103608501526103608101516103808501526103808101518285015201516103c08301520390f35b634e487b7160e01b600052602160045260246000fd5b600080fd5b3461059c57606036600319011261059c576001600160a01b036044358181169081900361059c5761010091604051916105d9836141e0565b60008352600060e060209482868201528260408201528260608201528260808201528260a08201528260c082015201526004356000526004835260406000206024356000528352604060002090600052825260406000206040519161063d836141e0565b81549081169384845260ff8185019260a01c16151582526001830154604085019081526002840154906060860191825260ff6003860154169260808701931515845260048601549460a0880195865260e060ff600660058a01549960c08c019a8b52015416980197151588526040519889525115159088015251604087015251606086015251151560808501525160a08401525160c083015251151560e0820152f35b3461059c576106ee3661433f565b81600052602060028152604060002090600481526040600020601383015490816000528252604060002033600052825260ff601460406000209401541660098110156105865760030361082f578460005260038252604060002081600052825260076040600020015442116107f157906004929185600052600382526040600020816000528252600360406000200133600052825261079460ff60406000205416614bb9565b8560005260038252604060002090600052815260016040600020019033600052526107c660ff60406000205416614a33565b015533907f22d30f6da93667100b64d15e5ea70afec217caeab1008706f57bfa4deed12c63600080a3005b60405162461bcd60e51b815260048101839052601660248201527510dbdb5b5a5d1b595b9d081c1a185cd948195b99195960521b6044820152606490fd5b60405162461bcd60e51b815260048101839052602360248201527f52657175657374206e6f742079657420696e20636f6d6d69746d656e7420737460448201526261746560e81b6064820152608490fd5b3461059c5761088e3661433f565b81600052602091600283526040600020600384526040600020836000528452600260406000200133600052845260ff6040600020541615610ad4576009810154601082015480600302906003820403610abe576108eb9042614604565b1115610a535760ff6014820154166009811015610586576002036109fa578361097c6000928484526004835260408420868552835260408420338552835261093d60ff60066040872001541615614a75565b83546016919091015460405163a9059cbb60e01b815233600482015260248101919091529384926001600160a01b039092169183919082906044820190565b03925af180156109ee576109c1575b5060005260048252604060002090600052815260406000209033600052526006604060002001600160ff19825416179055600080f35b6109e090843d86116109e7575b6109d88183614232565b8101906145ec565b508361098b565b503d6109ce565b6040513d6000823e3d90fd5b60405162461bcd60e51b815260048101859052602b60248201527f52657175657374204d75737420626520696e2063686f6f73696e67207665726960448201526a666965727320737461746560a81b6064820152608490fd5b60405162461bcd60e51b815260048101859052603f60248201527f5374696c6c20656e6f7567682074696d6520746f20706572666f726d20726f7560448201527f6e64206265666f726520766572696669636174696f6e20646561646c696e65006064820152608490fd5b634e487b7160e01b600052601160045260246000fd5b60405162461bcd60e51b815260048101859052602760248201527f596f7520617265206e6f742074686520766572696669657220666f72207468696044820152661cc81c9bdd5b9960ca1b6064820152608490fd5b3461059c57606036600319011261059c5760043560248035604435908360005260209060028252604060002060018060a01b03600f820154163303610d71578560005260038352604060002092601382015493846000528152600760406000200154421115610d2e57866000526003815260406000208460005281526008604060002001544211610ceb578660005260058152604060002083600052815260ff60406000205416610c9e5760405193818501868152600160f81b60408701526021865260608601978689106001600160401b038a1117610c8a57509287959260409795926080957f4b8ecdcde49a7d4d879a4bf5a6cc37c7086e65774f161d4bf99c01aaa1882f899a8a5285519020908b6000526003835289600020906000528252600c89600020015589600052600581528760002090836000525260046014886000209260ff1993600185825416179055019182541617905584520152a2005b634e487b7160e01b60009081526041600452fd5b6084906021876040519262461bcd60e51b845260048401528201527f50726976617465206b65792068617320616c7265616479206265656e207573656044820152601960fa1b6064820152fd5b606490601b876040519262461bcd60e51b845260048401528201527f50726f76696465722072657665616c20706861736520656e64656400000000006044820152fd5b606490601a876040519262461bcd60e51b845260048401528201527f436f6d6d69746d656e74207068617365206e6f7420656e6465640000000000006044820152fd5b60405162461bcd60e51b8152600481018490526032818701527f4f6e6c7920746865206d61696e2070726f76696465722063616e2072657665616044820152710d840e8d0ca40d6caf240c2dcc840d0c2e6d60731b6064820152608490fd5b3461059c5760208060031936011261059c576004359081600052600281526040600020610e03600882015442111561451b565b600f810180546001600160a01b0393908416610fb4576015830154600054604051636eb1769f60e11b8152336004820152306024820152919516908281604481855afa9081156109ee57600091610f87575b506040516370a0823160e01b8152336004820152908382602481865afa9182156109ee57600092610f56575b509186610ea281610ed294610e9b60009b89981015614ab5565b1015614ab5565b6040516323b872dd60e01b8152336004820152306024820152604481019190915296879283919082906064820190565b03925af180156109ee57601494610ef292600092610f39575b5050614ab5565b336001600160601b0360a01b82541617905501600160ff1982541617905533907f3c84569ae9be7c8e6e8edf0c0cbeb7e00cf9cb4d9b67849728be8ab96e09bec1600080a3005b610f4f9250803d106109e7576109d88183614232565b8680610eeb565b9150918382813d8311610f80575b610f6e8183614232565b8101031261059c579051909186610e81565b503d610f64565b90508281813d8311610fad575b610f9e8183614232565b8101031261059c575187610e55565b503d610f94565b6064906040519062461bcd60e51b82526004820152601960248201527f50726f766964657220616c72656164792073656c6563746564000000000000006044820152fd5b3461059c576101c036600319011261059c576084356001600160401b03811161059c576110299036906004016142c0565b60a4356001600160401b03811161059c5761104890369060040161426a565b9061105861016435604435614604565b80600019810111610abe5761107590610164359060001901614c1b565b9061108e8261108961012435602435614567565b614567565b9261109b84600435614604565b600360643510611d7e57600054604051636eb1769f60e11b81523360048201523060248201526001600160a01b0390911690602081604481855afa9081156109ee57600091611d4c575b506040516370a0823160e01b8152336004820152602081602481865afa9182156109ee578491600093611d15575b5010611cb4578211611c55576040516323b872dd60e01b81523360048201523060248201526044810183905290602090829060649082906000905af19081156109ee57600091611c36575b5015611c00574260c4351115611b955761010435600361010435020460031461010435151715610abe576111a361119b6003610104350286614567565b60c435614604565b60e4351115611b1a576101243560643510611a89576040516111c481614217565b60008152604051926111d584614217565b60008452604051946111e686614217565b60008652604051976111f7896141c4565b33895260043560208a015260408901526044356060890152606435608089015260a088015260c087015260e086015260c43561010086015260e43561012086015261014085015260006101608501526000610180850152610124356101a08501526101c08401526101e08301526000610200830152610104356102208301526102408201526000610260820152600061028082015260006102a08201526101a4356102c08201526024356102e08201526000610300820152610144356103208201526000610340820152600061036082015261016435610380820152610184356103a08201526001546000526002602052604060002060018060a01b038251166001600160601b0360a01b8254161781556020820151600182015560408201516002820155606082015160038201556080820151600482015560a0820151805190600160401b8211611658576005830154826005850155808310611a10575b5060200190600583016000526020600020916000905b8282106118f757858560c08201519182516001600160401b038111611658576113986006840154614355565b601f81116118c2575b506020601f82116001146118545781906113d4939495600092611849575b50508160011b916000199060031b1c19161790565b60068301555b60e0810151805190600160401b82116116585760078401548260078601558083106117d1575b5060200190600784016000526020600020916000905b8282106116ab57858561010081015160088301556101208101516009830155610140810151600a830155600b82016101608201511515815460ff61ff00610180860151151560081b1692169061ffff1916171790556101a0810151600c8301556101c08101518051906001600160401b03821161165857600160401b821161165857602090600d85015483600d87015580841061168b575b5001600d8401600052602060002060005b83811061166e5785856101e08101518051906001600160401b03821161165857600160401b821161165857602090600e85015483600e870155808410611638575b5001600e8401600052602060002060005b83811061161b578585600f820160018060a01b03610200830151166001600160601b0360a01b825416179055610220810151601083015561024081015160118301556102608101516012830155610280810151601383015560148201906102a081015190600982101561058657601c926103a09260ff801983541691161790556102c081015160158501556102e08101516016850155610300810151601785015561032081015160188501556103408101516019850155610360810151601a850155610380810151601b85015501519101556115ee600154614c25565b8060015533907f233bb55fd57b21b8a3d15c9ad8fbbab435fe4cf2865cc654f6a57d9d4d8cda54600080a3005b82516001600160a01b031681830155602090920191600101611511565b61165290600e87016000528484600020918201910161457a565b85611500565b634e487b7160e01b600052604160045260246000fd5b82516001600160a01b0316818301556020909201916001016114bf565b6116a590600d87016000528484600020918201910161457a565b856114ae565b80518051906001600160401b038211611658576116c88654614355565b601f8111611794575b50602090601f8311600114611724579261170a836001959460209487966000926117195750508160011b916000199060031b1c19161790565b87555b01940191019092611416565b015190508c806113bf565b908660005260206000209160005b601f198516811061177c575083602093600196938796938794601f19811610611763575b505050811b01875561170d565b015160001960f88460031b161c191690558b8080611756565b91926020600181928685015181550194019201611732565b6117c190876000526020600020601f850160051c810191602086106117c7575b601f0160051c019061457a565b886116d1565b90915081906117b4565b600785016000526020600020908382015b81830181106117f2575050611400565b806117ff60019254614355565b8061180c575b50016117e2565b601f811183146118225750600081555b88611805565b600090828252611840601f60208420920160051c820185830161457a565b8183555561181c565b0151905085806113bf565b6006840160005260206000209060005b601f19841681106118aa5750600193949583601f19811610611891575b505050811b0160068301556113da565b015160001960f88460031b161c19169055848080611881565b9091602060018192858a015181550193019101611864565b6118f190600685016000526020600020601f840160051c810191602085106117c757601f0160051c019061457a565b846113a1565b80518051906001600160401b038211611658576119148654614355565b90601f918281116119d6575b5060209183116001146119665792611957836001959460209487966000926117195750508160011b916000199060031b1c19161790565b87555b0194019101909261136c565b908660005260206000209160005b601f19851681106119be575083602093600196938796938794601f198116106119a5575b505050811b01875561195a565b015160001960f88460031b161c191690558b8080611998565b91926020600181928685015181550194019201611974565b611a01908860005260206000208480870160051c82019260208810611a07575b0160051c019061457a565b89611920565b925081926119f6565b600584016000526020600020908382015b8183018110611a31575050611356565b80611a3e60019254614355565b80611a4b575b5001611a21565b601f908181118414611a64575050600081555b88611a44565b611a8060009284845260208420920160051c820185830161457a565b81835555611a5e565b60405162461bcd60e51b815260206004820152605d60248201527f4e6f7420656e6f7567682076657269666965727320746f2063686f6f7365206660448201527f726f6d2e206e756d566572696669657273206d7573742062652067726561746560648201527f72207468616e206e756d56657269666965727353616d706c6553697a65000000608482015260a490fd5b60405162461bcd60e51b815260206004820152604760248201527f566572696669636174696f6e20646561646c696e65206d75737420626520737560448201527f6666696369656e7420656e6f75676820666f7220616c6c20726f756e64732072606482015266195c5d5a5c995960ca1b608482015260a490fd5b60405162461bcd60e51b815260206004820152603c60248201527f436f6d7075746174696f6e616c20646561646c696e65206d757374206265206760448201527f726561746572207468616e207468652063757272656e742074696d65000000006064820152608490fd5b60405162461bcd60e51b815260206004820152600e60248201526d14185e5b595b9d0819985a5b195960921b6044820152606490fd5b611c4f915060203d6020116109e7576109d88183614232565b8661115e565b60405162461bcd60e51b815260206004820152603160248201527f496e73756666696369656e742062616c616e636520617661696c61626c6520746044820152701bc818dbdb991d58dd081c995c5d595cdd607a1b6064820152608490fd5b60405162461bcd60e51b815260206004820152603360248201527f496e73756666696369656e7420616c6c6f77616e636520617661696c61626c65604482015272081d1bc818dbdb991d58dd081c995c5d595cdd606a1b6064820152608490fd5b915091506020813d602011611d44575b81611d3260209383614232565b8101031261059c578390519189611113565b3d9150611d25565b90506020813d602011611d76575b81611d6760209383614232565b8101031261059c5751876110e5565b3d9150611d5a565b60405162461bcd60e51b815260206004820152601d60248201527f4174206c656173742033207665726966696572732072657175697265640000006044820152606490fd5b3461059c57610120611dd43661433f565b60405191611de1836141a8565b6000835260006020840152600060408401526000606084015260006080840152600060a0840152600060c0840152600060e08401526000610100809401526000526003602052604060002090600052602052604060002090600482015491600581015490600681015460078201546008830154600984015491600a85015493600c600b8701549601549688604051611e78816141a8565b8b81526020810192835260408101938452606081019485526080810195865260a0810196875260c0810197885260e0810198895201978852604051998a525160208a01525160408901525160608801525160808701525160a08601525160c08501525160e08401525190820152f35b3461059c57608036600319011261059c5760043560249081359182151580930361059c5760449081356064948535958560005260209660028852604060002094600393848a526040600020956013880196875490816000528c5260086040600020015442111561229d578a600052868c526040600020816000528c526009604060002001544211612266578a600052868c526040600020816000528c5286604060002001336000528c5260ff6040600020541615612224578a600052868c526040600020816000528c526001604060002001336000528c52611fd060ff60406000205416614a33565b8a60005260048c526040600020906000528b526040600020336000528b526040600020928684019586549a60ff8c166121e4578d604051908101908582528860408201523360601b60608201526054815261202a816141fc565b5190206004870154036121ac5750506040518c8101918383528460f81b60408301526021825260608201908282106001600160401b03831117610c8a57509260149997959260059b999795928c9560405251902095869584549260018601556002850155600160ff19809e16179055339160ff60a01b9060a01b16906affffffffffffffffffffff60a81b1617178155015587600052818952604060002083546000528952604060002081600052808a5260406000206120ea8154614c25565b905581600052808a5260406000205491600b8201928354908181146000146121635750505050508660005287526040600020905460005286526000600a6040822001555b01918254161790557fb59f6416758d4763386b2c83d12c7c643131c90beff0caea486f303510702ce3604051924284523393a3005b95929491939511612179575b505050505061212e565b896000528a5260406000209054600052895280600a6040600020015560005287526040600020549055868080808061216f565b74496e76616c69642072657665616c2076616c75657360581b8e916015856040519462461bcd60e51b86526004860152840152820152fd5b7f436f6d6d69746d656e7420616c72656164792072657665616c656400000000008e91601b856040519462461bcd60e51b86526004860152840152820152fd5b60405162461bcd60e51b8152600481018d9052601f818601527f596f7520617265206e6f74207468652063686f73656e20766572696669657200818c01528690fd5b60405162461bcd60e51b8152600481018d90526012818601527114995d99585b081c1a185cd948195b99195960721b818c01528690fd5b60405162461bcd60e51b8152600481018d9052601f818601527f50726f76696465722072657665616c207068617365206e6f7420656e64656400818c01528690fd5b3461059c5760208060031936011261059c5760043590816000526002815260406000209060098201544210158061245a575b8061244b575b156123f45761238f90600b83019260ff19936001858254161790558160018060a01b03806000541690600f840154169061235a6015850154600186015490614604565b60405163a9059cbb60e01b81526001600160a01b03909316600484015260248301529094859190829060009082906044820190565b03925af19182156109ee576006936014936123d6575b505001918254161790557f953601eba1acf6d4769af39f3986a5be6acd796655930c93832c2f239fbccabf600080a2005b816123ec92903d106109e7576109d88183614232565b5085806123a5565b6084906040519062461bcd60e51b82526004820152602a60248201527f566572696669636174696f6e20446561646c696e6520686173206e6f7420626560448201526932b7103830b9b9b2b21760b11b6064820152fd5b5060ff600b8301541615612317565b5060ff60148301541660098110156105865760071415612311565b3461059c5760208060031936011261059c5760043580600052600282526040600020600d810191825491600481019283548103612b1d5760ff600b83015460081c1615612ace57600c820190815411612a7d5760098201549360108301546003958187029187830403610abe576124ef6124f69242614604565b1115614af6565b836000528487526040600020926013810180549485600052895260019485604060002001336000528a5260ff60406000205416612a385786600052878a5260406000209060005289528460406000200133600052895260406000209760ff1998868a825416179055601983019384548b87548210600014612920575050549061258185548093614873565b906040518c8101904282524460408201523360601b6060820152605481526125a8816141fc565b51902092821561290a576126b8948b8e6126216125cd856126a8986126039a06614604565b6125d78188614b68565b90546001600160a01b039a91861b1c8a16968a906125f5908a614b68565b905490871b1c169188614b68565b90919060018060a01b038084549260031b9316831b921b1916179055565b612630846126038c5488614b68565b8954898e7f441ea878e9821f31af14375bef585bac76bbbde0e10feddc036673243d01a1d78460128c612663878d614b68565b9054908a1b1c1694015494604051908152a48c60005252604060002090546000528d528a604060002001906000528c526040600020888c825416179055855490614b68565b905490891b1c16600e8301614b96565b6126cc601760168301549201918254614604565b90555b8054928301809311610abe5782905554146126e657005b8060005260028452604060002090601282018054601184015411156128c5576009830154601084019081548087029087820403610abe576127279042614604565b10156128665760149495967f27e90e135bb91bf6706a23381e6d0d480f8bb7d002d6e9a197b432b7b654245f926060928560005288835260406000209060138801918254600052845242600660406000200155612785815442614604565b876000528a85526040600020835460005285526007604060002001558660005289845260406000208254908160005285526127ca600760406000200154835490614604565b90886000528b8652604060002090600052855260086040600020015586600052898452612810604060002091835492836000528652600860406000200154905490614604565b90876000528a8552604060002090600052845260096040600020015585600052888352604060002090546000528252600760406000200154905490604051924284528301526040820152a2018054909216179055005b60405162461bcd60e51b815260048101889052603160248201527f566572696669636174696f6e20446561646c696e652068617320706173736564604482015270081d1bc81cdd185c9d0818481c9bdd5b99607a1b6064820152608490fd5b60405162461bcd60e51b815260048101879052601e60248201527f416c6c206c61796572732068617665206265656e2070726f63657373656400006044820152606490fd5b634e487b7160e01b600052601260045260246000fd5b909392946129c592506129338587614b68565b95908c60018060a01b0397889254911b1c166012830154908c7fd2673c2f320637ecd6e1e7a21780cb318c5a6c5b49398f8c5ae9d0ae0aad474386604051868152a46016868d6129888260005416948b614b68565b9054911b1c1692015491600060405180968195829463a9059cbb60e01b84526004840160209093929193604081019460018060a01b031681520152565b03925af180156109ee57612a1b575b508660005260048a526040600020905460005289526129fa604060002092845490614b68565b905490881b1c166000528752600660406000200183878254161790556126cf565b612a31908b3d8d116109e7576109d88183614232565b508a6129d4565b60405162461bcd60e51b8152600481018b9052601e60248201527f56657269666965722068617320616c72656164792074726967676572656400006044820152606490fd5b60405162461bcd60e51b815260048101879052602360248201527f4e6f7420656e6f7567682076657269666965727320746f2063686f6f73652066604482015262726f6d60e81b6064820152608490fd5b60405162461bcd60e51b815260048101879052602160248201527f5265717565737420686173206e6f74206265656e20636f6d70757465642079656044820152601d60fa1b6064820152608490fd5b60405162461bcd60e51b815260048101879052602160248201527f5665726966696572206c69737420686173206e6f74206265656e2066696c6c656044820152601960fa1b6064820152608490fd5b3461059c57612b7a3661433f565b9060005260036020526040600020906000526020526101206040600020600481015490600581015490600681015460078201546008830154600984015491600a85015493600c600b87015496015496604051988952602089015260408801526060870152608086015260a085015260c084015260e0830152610100820152f35b3461059c57612c083661433f565b816000526020600281526040600020906003918282526040600020846000528252612c3d600960406000200154421015614591565b8460005282825260406000208460005282528260406000200133600052825260ff612c6e8160406000205416614bb9565b85600052600483526040600020856000528352604060002033600052835280600660406000200154166131705760138201938454861161310557600186106130a8578660005280845260406000208660005284526001604060002001336000528452612ce08260406000205416614a33565b86600052600484526040600020866000528452604060002033600052845260066040600020019060ff1991600183825416179055876000528085526040600020876000528552600a604060002001548015600014612db4575050600080546016949094015460405163a9059cbb60e01b815233600482015260248101919091529385935084925060449183916001600160a01b03165af180156109ee57612d96575b50505414612d8d575b005b612d8b90614ce3565b81612dac92903d106109e7576109d88183614232565b508380612d82565b9092958860009998939596995260048952604060002083600052895260406000203360005289526005604060002001548214612ff6575b5492828414612df657005b600088815290895260408082208483528a529020600c015414612e39575050506014015491925016600981101561058657600703612e3057005b612d8b90614880565b601284929394019260118454930154916000198301838111610abe578403612fc15750505050612e698154614c25565b90558260005260028452604060002093601485019280845416600981101561058657600714612f7c57600b8601908154908116612f3757958291600185612ed79798991617905560018060a01b0361235a816000541691600f84015416926001601582015491015490614604565b03925af19283156109ee57600693612f19575b50508254161790557f953601eba1acf6d4769af39f3986a5be6acd796655930c93832c2f239fbccabf600080a2005b81612f2f92903d106109e7576109d88183614232565b508480612eea565b60405162461bcd60e51b815260048101849052601c60248201527f5265717565737420697320616c726561647920636f6d706c65746564000000006044820152606490fd5b60405162461bcd60e51b815260048101839052601760248201527f5265717565737420697320756e7375636365737366756c0000000000000000006044820152606490fd5b9297509294509250149081612feb575b50612fd857005b612fe4612d8b93614c25565b9055614ce3565b905083141584612fd1565b6000896130768861304c61303a8d613017600c601686015495015485614567565b9087528a8652604087208a88528652604087208988528652604087205490614c1b565b85546001600160a01b03169290614604565b60405163a9059cbb60e01b8152336004820152602481019190915293849283919082906044820190565b03925af180156109ee5761308b575b50612deb565b6130a1908a3d8c116109e7576109d88183614232565b5089613085565b60405162461bcd60e51b815260048101859052602f60248201527f526f756e64206e756d626572206d75737420626520677265617465722074686160448201526e6e206f7220657175616c20746f203160881b6064820152608490fd5b60405162461bcd60e51b815260048101859052603a60248201527f726f756e64206e756d206d757374206265206c657373207468616e206f72206560448201527f7175616c20746f20726571756573742e726f756e64496e6465780000000000006064820152608490fd5b60405162461bcd60e51b815260048101849052602b60248201527f596f75206861766520616c7265616479206265656e207061696420666f72207660448201526a32b934b334b1b0ba34b7b760a91b6064820152608490fd5b3461059c57602036600319011261059c57600435600052600260205260406000206102205260018060a01b036102205154166133c3600161022051015460026102205101546101405260036102205101546101605260046102205101546101a0526132396006610220510161438f565b92600861022051015461012052600961022051015493600a610220510154600b610220510154600c61022051015460018060a01b03600f610220510154169060ff60106102205101549360116102205101549561335160126102205101549860136102205101549a856014610220510154169c6015610220510154608052601661022051015460a052601761022051015460e05260186102205101546102005260196102205101546101e052601a6102205101546101c052601b61022051015461018052601c6102205101546101005260405160c0526103409160c05152602060c051015261014051604060c051015261016051606060c05101526101a051608060c05101528060a060c051015260c0510190614434565b9b6101205160c08051015260e060c051015261010060c0510152818116151561012060c051015260081c16151561014060c051015261016060c051015261018060c05101526101a060c05101526101c060c05101526101e060c051015261020060c051015261022060c0510190614474565b60805161024060c051015260a05161026060c051015260e05161028060c0510152610200516102a060c05101526101e0516102c060c05101526101c0516102e060c05101526101805161030060c05101526101005161032060c051015260c051900360c051f35b3461059c5760208060031936011261059c57600435908160005260028152604060002090601a82015460058101809111610abe5742106138b55760ff600b83015460081c161561387157600f8201546001600160a01b0392908316331461381057600d8101908154936004820194855411156137d25760ff60148301541660098110156105865760020361374157600054604051636eb1769f60e11b81523360048201523060248201529116908481604481855afa9081156109ee57600091613714575b506040516370a0823160e01b8152336004820152908582602481865afa80156109ee5786926000916136e1575b5092610e9b61353a61356a936000966016890154938480931015614ab5565b6040516323b872dd60e01b8152336004820152306024820152604481019190915293849283919082906064820190565b03925af180156109ee57613586916000916136c4575b50614ab5565b600981015460108201549081600302916003830403610abe576124ef6135ac9242614604565b84600052600383526040600020601382015490816000528452600260406000200133600052845260ff6040600020541661367f57906012918660005260038552604060002090600052845260026040600020013360005284526040600020600160ff1982541617905561361f3384614b96565b015492604051918433877f9e9159f67684b4639ef3d20a0878e965d2fa78dc33561fadb2485cd3d3447abf600080a45490541461365857005b7fac6c772803856f8be288c38a92349502c9d976deccefb05524c4eafedf049aeb928152a2005b60405162461bcd60e51b815260048101859052601860248201527f566572696669657220616c7265616479206170706c69656400000000000000006044820152606490fd5b6136db9150853d87116109e7576109d88183614232565b87613580565b8381939492503d831161370d575b6136f98183614232565b8101031261059c5751859190610e9b61351b565b503d6136ef565b90508481813d831161373a575b61372b8183614232565b8101031261059c5751876134ee565b503d613721565b60405162461bcd60e51b815260048101859052605960248201527f56657269666965722063616e6e6f74206170706c7920666f722076657269666960448201527f636174696f6e2e2052657175657374207374617465206d75737420626520696e60648201527f2063686f6f73696e672076657269666965727320737461746500000000000000608482015260a490fd5b60405162461bcd60e51b815260048101859052601660248201527515995c9a599a595c881b1a5b5a5d081c995858da195960521b6044820152606490fd5b60405162461bcd60e51b815260048101839052603360248201527f546865206d61696e2070726f76696465722063616e6e6f74206170706c79207460448201527237903132b1b7b6b29030903b32b934b334b2b960691b6064820152608490fd5b6064906040519062461bcd60e51b82526004820152601860248201527f52657175657374206e6f742079657420636f6d707574656400000000000000006044820152fd5b6084906040519062461bcd60e51b82526004820152602e60248201527f4d75737420776169742035207365636f6e6473206265666f726520766572696660448201526d696572732063616e206170706c7960901b6064820152fd5b3461059c57600036600319011261059c576000546040516001600160a01b039091168152602090f35b3461059c57600036600319011261059c576020600154604051908152f35b3461059c57600036600319011261059c57602060405160038152f35b3461059c576139813661433f565b9080600052602091600283526040600020916009830154601084015480600302906003820403610abe576139b59042614604565b1115613af55780600052600384526040600020826000528452600260406000200133600052845260ff6040600020541615613a745760009081526003845260408082209282529184528181203380835260029091018552828220805460ff19169055815460169490940154925163a9059cbb60e01b81526004810191909152602481019290925290918391839160449183916001600160a01b03165af180156109ee57613a5e57005b81612d8b92903d106109e7576109d88183614232565b60405162461bcd60e51b815260048101859052604d60248201527f5665726966696572206861732065697468657220616c7265616479207265636960448201527f65766564207374616b652c206f7220646964206e6f74206170706c7920666f7260648201526c103b32b934b334b1b0ba34b7b760991b608482015260a490fd5b60405162461bcd60e51b815260048101859052602860248201527f566572696669636174696f6e20646561646c696e6520686173206e6f742079656044820152671d081c185cdcd95960c21b6064820152608490fd5b3461059c57613b593661433f565b906000526005602052604060002090600052602052602060ff604060002054166040519015158152f35b3461059c57613b913661433f565b816000526020916003835260406000208260005283526001604060002001336000528352613bc660ff60406000205416614a33565b80600052600383526040600020826000528352600360406000200133600052835260ff60406000205416613c7257806000526004835260406000208260005283526040600020336000528352613c2760ff6006604060002001541615614a75565b6000805482825260028552604080832060160154905163a9059cbb60e01b8152336004820152602481019190915291859183916001600160a01b03909116908290816044810161097c565b60405162461bcd60e51b815260048101849052602360248201527f43686f73656e2076657269666569722063616e6e6f742072657475726e207374604482015262616b6560e81b6064820152608490fd5b3461059c57602036600319011261059c57612d8b600435614880565b3461059c57602036600319011261059c57612d8b600435614611565b3461059c5760208060031936011261059c57600435908160005260028152604060002060ff601482015416600981101561058657600503613e0d5782600052600382526013604060002091015490816000528252613d63600960406000200154421015614591565b82600052600382526040600020816000528252600a604060002001549083600052600383526040600020906000528252600c6040600020015403613daa57612d8b82614ce3565b6084906040519062461bcd60e51b82526004820152603660248201527f50726f766964657220616e73776572206861736820646f6573206e6f74206d616044820152750e8c6d040dac2d4dee4d2e8f240ecdee8ca40d0c2e6d60531b6064820152fd5b60405162461bcd60e51b815260048101839052602a60248201527f52657175657374206e6f742079657420696e20636f6d6d69746d656e742072656044820152697665616c20737461746560b01b6064820152608490fd5b3461059c57604036600319011261059c576004356001600160401b036024803582811161059c57613e9a9036906004016142c0565b83600052602060028152604060002093600b8501805460ff811661415857613ec8600888015442111561451b565b600f8701546001600160a01b031633036141015761ff001916610100179055825192600786019190600160401b85116116585783908354868555808710614087575b506000938452848420939691015b858710613f585742601a89015588613f2f81614ce3565b33907fd8fcbb5eddba1b1984c4f12b2197b325cc19ed135c968033ffd714c7f4c2d6bd600080a3005b80518051908482116140725790869291613f728754614355565b90601f9182811161403a575b5084918311600114613fcc578260019593869593613fb293600092613fc15750508160011b916000199060031b1c19161790565b87555b01940196019592613f18565b015190508f806113bf565b90601f9493941983169188600052846000209260005b8181106140225750916001969391858897969410614009575b505050831b83018755613fb5565b015160001960f88460031b161c191690558d8080613ffb565b8284015185558b966001909501949384019301613fe2565b614063908960005286600020600585808801821c8301938a8910614069575b01901c019061457a565b8d613f7e565b93508293614059565b83634e487b7160e01b60005260416004526000fd5b84600052868360002091820191015b8181106140a35750613f0a565b6001919293506140b38154614355565b806140c4575b500190859291614096565b601f9081811184146140dd575050600081555b8b6140b9565b6140f86000928484528a8420920160051c820185830161457a565b818355556140d7565b60405162461bcd60e51b815260048101859052602960248201527f4f6e6c792063686f73656e2070726f76696465722063616e20636f6d706c657460448201526819481c995c5d595cdd60ba1b6064820152608490fd5b60405162461bcd60e51b815260048101859052602260248201527f526571756573742068617320616c7265616479206265656e20636f6d706c6574604482015261195960f21b6064820152608490fd5b61012081019081106001600160401b0382111761165857604052565b6103c081019081106001600160401b0382111761165857604052565b61010081019081106001600160401b0382111761165857604052565b608081019081106001600160401b0382111761165857604052565b602081019081106001600160401b0382111761165857604052565b90601f801991011681019081106001600160401b0382111761165857604052565b6001600160401b0381116116585760051b60200190565b81601f8201121561059c578035906001600160401b038211611658576040519261429e601f8401601f191660200185614232565b8284526020838301011161059c57816000926020809301838601378301015290565b81601f8201121561059c578035916020916142da84614253565b936142e86040519586614232565b808552838086019160051b8301019280841161059c57848301915b8483106143135750505050505090565b82356001600160401b03811161059c5786916143348484809489010161426a565b815201920191614303565b604090600319011261059c576004359060243590565b90600182811c92168015614385575b602083101461436f57565b634e487b7160e01b600052602260045260246000fd5b91607f1691614364565b906040519182600082546143a281614355565b9081845260209460019160018116908160001461441257506001146143d3575b5050506143d192500383614232565b565b600090815285812095935091905b8183106143fa5750506143d193508201013880806143c2565b855488840185015294850194879450918301916143e1565b925050506143d194925060ff191682840152151560051b8201013880806143c2565b919082519283825260005b848110614460575050826000602080949584010152601f8019910116010190565b60208183018101518483018201520161443f565b9060098210156105865752565b90808251908181526020809101926020808460051b8301019501936000915b8483106144b05750505050505090565b90919293949584806144ce600193601f198682030187528a51614434565b98019301930191949392906144a0565b90815180825260208080930193019160005b8281106144fe575050505090565b83516001600160a01b0316855293810193928101926001016144f0565b1561452257565b60405162461bcd60e51b815260206004820152601b60248201527f436f6d7075746174696f6e20646561646c696e652070617373656400000000006044820152606490fd5b81810292918115918404141715610abe57565b818110614585575050565b6000815560010161457a565b1561459857565b60405162461bcd60e51b815260206004820152602660248201527f636f6d6d69746d656e7420737461676520686173206e6f742079657420636f6d6044820152651c1b195d195960d21b6064820152608490fd5b9081602091031261059c5751801515810361059c5790565b91908201809211610abe57565b600081815260026020908152604080832080546001600160a01b03908116939192903385900361482357600b84019460ff8654166147df57839082600f87015416156147a55750506008840154421180614796575b1561473c5790826146be92614684600a870154601588015490614604565b90808954169087541689855180978195829463a9059cbb60e01b84526004840160209093929193604081019460018060a01b031681520152565b03925af19081156147335750926008926014927fee243f878b7fc2f54e934ca33783d4395d42bc07612e2bd4b8e0e178639f7a28979695614715575b505060ff1993600185825416179055019182541617905580a2565b8161472b92903d106109e7576109d88183614232565b5038806146fa565b513d87823e3d90fd5b815162461bcd60e51b815260048101849052602d60248201527f436f6d7075746174696f6e20646561646c696e6520686173206e6f742079657460448201526c081899595b881c995858da1959609a1b6064820152608490fd5b5060ff855460081c1615614666565b8754600a870154855163a9059cbb60e01b81526001600160a01b0390931660048401526024830152909392849116818981604481016146be565b825162461bcd60e51b815260048101859052601960248201527f5265717565737420616c726561647920636f6d706c65746564000000000000006044820152606490fd5b815162461bcd60e51b8152600481018490526024808201527f4f6e6c792074686520636f6e73756d65722063616e2077697468647261772066604482015263756e647360e01b6064820152608490fd5b91908203918211610abe57565b600081815260026020908152604080832060038352818420601382015485528352818420600a810154600c9091015492939192141580614a04575b156149b057614948601483019360ff19946007868254161790558260018060a01b0380885416908654169061491561490a6148ff60018a015460158b015490614604565b60028a015490614604565b601789015490614873565b845163a9059cbb60e01b81526001600160a01b0390931660048401526024830152909384919082908a9082906044820190565b03925af1908115614733575092600192600b927f6d55d799468c2d702d8ff65d462b4e8dbbc88c728431aee69b205a3964362f07979695614992575b5050019182541617905580a2565b816149a892903d106109e7576109d88183614232565b503880614984565b60849083519062461bcd60e51b82526004820152602860248201527f5265717565737420697320616c726561647920696e20756e7375636365737366604482015267756c20737461746560c01b6064820152fd5b5060ff6014830154166009811015614a1f57600714156148bb565b634e487b7160e01b85526021600452602485fd5b15614a3a57565b60405162461bcd60e51b81526020600482015260136024820152722cb7ba903234b2103737ba103a3934b3b3b2b960691b6044820152606490fd5b15614a7c57565b60405162461bcd60e51b8152602060048201526011602482015270105b1c9958591e481899595b881c185a59607a1b6044820152606490fd5b15614abc57565b60405162461bcd60e51b8152602060048201526012602482015271496e73756666696369656e74207374616b6560701b6044820152606490fd5b15614afd57565b60405162461bcd60e51b815260206004820152603d60248201527f4e6f7420656e6f7567682074696d6520746f20706572666f726d20726f756e6460448201527f206265666f726520766572696669636174696f6e20646561646c696e650000006064820152608490fd5b8054821015614b805760005260206000200190600090565b634e487b7160e01b600052603260045260246000fd5b90815491600160401b83101561165857826126039160016143d195018155614b68565b15614bc057565b60405162461bcd60e51b815260206004820152602d60248201527f596f7520617265206e6f74207468652063686f73656e2076657269666965722060448201526c1a5b881d1a1a5cc81c9bdd5b99609a1b6064820152608490fd5b811561290a570490565b6000198114610abe5760010190565b908154614c4081614253565b92614c4e6040519485614232565b818452600090815260208082208186015b848410614c6d575050505050565b6001838192614c7b8561438f565b815201920193019290614c5f565b90604051918281549182825260209260208301916000526020600020936000905b828210614cc0575050506143d192500383614232565b85546001600160a01b031684526001958601958895509381019390910190614caa565b6000818152600260209081526040808320600f8101546001600160a01b031615614e5657838251614d1381614217565b52600d8101805485825580614e3e575b508452838251614d3281614217565b52600e8101805485825580614e26575b50845260148101600260ff198254161790556013810180549060018201809211614e12579260a0927f2d4e685f9af8cf88fb3e3447f1ee8e4e5e68423a2c393dc8d6e9784aa67ddafa9695927f1650867f690215ad60b8dbbbcac101f48be0a5c1387b70e0747548ee85e743459555856019820155877f7cdb7f0bd04877caf5dda7a202130926cdd67ad312dada203661ff6d880684348460128401548551908152a2601681015460106009830154920154928051948a8652339086015284015260608301526080820152a180a2565b634e487b7160e01b86526011600452602486fd5b818652848620614e389181019061457a565b38614d42565b818652848620614e509181019061457a565b38614d23565b815162461bcd60e51b815260048101849052602760248201527f4d61696e2070726f766964657220686173206e6f7420796574206265656e2073604482015266195b1958dd195960ca1b6064820152608490fdfea2646970667358221220e18a30a8f1ef39e3913e3c9e572621011b2fe01a6f568c04cd39eb44bf79a11964736f6c63430008170033","linkReferences":{}},"methodIdentifiers":{"MIN_VERIFIERS()":"53e2ba17","applyForVerificationForRequest(uint256)":"6d8f9a0e","calculateMajorityAndReward(uint256,uint256)":"847ada57","cancelRequest(uint256)":"3015394c","chooseVerifiersForRequestTrigger(uint256)":"951c5ce2","compToken()":"6605dfa7","completeRequest(uint256,string[])":"0625f161","createRequest(uint256,uint256,uint256,uint256,string[],string,uint256,uint256,uint256,uint256,uint256,uint256,bytes32,uint256)":"e007657e","getRequestDetails(uint256)":"f34d4c63","getRoundDetails(uint256,uint256)":"ddf3532c","getVerificationDetails(uint256,uint256,address)":"e819ff28","providerFailure(uint256)":"3295845c","providerPrivateKeys(uint256,bytes32)":"42c2e854","providerSuccessCall(uint256)":"b10ceb59","requestCount()":"5badbe4c","requests(uint256)":"81d12c58","returnStake(uint256,uint256)":"38488abc","returnStakeDueToTimeout(uint256,uint256)":"e2e7cbe6","revealCommitment(uint256,bool,bytes32,bytes32)":"bfdb3451","revealProviderKeyAndHash(uint256,bytes32,bytes32)":"e20fb7a1","roundDetails(uint256,uint256)":"8ea49eca","selectRequest(uint256)":"e03ad0d1","startNextRound(uint256)":"09008563","submitCommitment(uint256,bytes32)":"e6a3d9dc","verificationDeadlinePassedForVeryfying(uint256,uint256)":"4beda221"},"id":1}