{"abi":[{"type":"constructor","inputs":[{"name":"compTokenAddress","type":"address","internalType":"address"}],"stateMutability":"nonpayable"},{"type":"function","name":"MIN_VERIFIERS","inputs":[],"outputs":[{"name":"","type":"uint256","internalType":"uint256"}],"stateMutability":"view"},{"type":"function","name":"PROVIDER_STAKE_PERCENTAGE","inputs":[],"outputs":[{"name":"","type":"uint256","internalType":"uint256"}],"stateMutability":"view"},{"type":"function","name":"applyForVerificationForRequest","inputs":[{"name":"requestId","type":"uint256","internalType":"uint256"}],"outputs":[],"stateMutability":"nonpayable"},{"type":"function","name":"calculateMajorityAndReward","inputs":[{"name":"requestId","type":"uint256","internalType":"uint256"}],"outputs":[],"stateMutability":"nonpayable"},{"type":"function","name":"cancelRequest","inputs":[{"name":"requestId","type":"uint256","internalType":"uint256"}],"outputs":[],"stateMutability":"nonpayable"},{"type":"function","name":"compToken","inputs":[],"outputs":[{"name":"","type":"address","internalType":"contract IERC20"}],"stateMutability":"view"},{"type":"function","name":"completeRequest","inputs":[{"name":"requestId","type":"uint256","internalType":"uint256"},{"name":"outputFileURLs","type":"string[]","internalType":"string[]"}],"outputs":[],"stateMutability":"nonpayable"},{"type":"function","name":"createRequest","inputs":[{"name":"paymentForProvider","type":"uint256","internalType":"uint256"},{"name":"paymentPerRoundForVerifiers","type":"uint256","internalType":"uint256"},{"name":"numOperations","type":"uint256","internalType":"uint256"},{"name":"numVerifiers","type":"uint256","internalType":"uint256"},{"name":"inputFileURLs","type":"string[]","internalType":"string[]"},{"name":"operationFileURL","type":"string","internalType":"string"},{"name":"computationDeadline","type":"uint256","internalType":"uint256"},{"name":"verificationDeadline","type":"uint256","internalType":"uint256"},{"name":"timeAllocatedForVerification","type":"uint256","internalType":"uint256"},{"name":"numVerifiersSampleSize","type":"uint256","internalType":"uint256"}],"outputs":[],"stateMutability":"nonpayable"},{"type":"function","name":"getRequestDetails","inputs":[{"name":"requestId","type":"uint256","internalType":"uint256"}],"outputs":[{"name":"","type":"tuple","internalType":"struct ComputationMarket.Request","components":[{"name":"consumer","type":"address","internalType":"address"},{"name":"paymentForProvider","type":"uint256","internalType":"uint256"},{"name":"totalPaymentForVerifiers","type":"uint256","internalType":"uint256"},{"name":"numOperations","type":"uint256","internalType":"uint256"},{"name":"numVerifiers","type":"uint256","internalType":"uint256"},{"name":"inputFileURLs","type":"string[]","internalType":"string[]"},{"name":"operationFileURL","type":"string","internalType":"string"},{"name":"outputFileURLs","type":"string[]","internalType":"string[]"},{"name":"computationDeadline","type":"uint256","internalType":"uint256"},{"name":"verificationDeadline","type":"uint256","internalType":"uint256"},{"name":"totalPayment","type":"uint256","internalType":"uint256"},{"name":"completed","type":"bool","internalType":"bool"},{"name":"hasBeenComputed","type":"bool","internalType":"bool"},{"name":"numVerifiersSampleSize","type":"uint256","internalType":"uint256"},{"name":"verifiers","type":"address[]","internalType":"address[]"},{"name":"chosenVerifiers","type":"address[]","internalType":"address[]"},{"name":"mainProvider","type":"address","internalType":"address"},{"name":"timeAllocatedForVerification","type":"uint256","internalType":"uint256"},{"name":"layerCount","type":"uint256","internalType":"uint256"},{"name":"layerComputeIndex","type":"uint256","internalType":"uint256"},{"name":"verificationStartTime","type":"uint256","internalType":"uint256"},{"name":"commitEndTime","type":"uint256","internalType":"uint256"},{"name":"commitmentRevealEndTime","type":"uint256","internalType":"uint256"},{"name":"providerRevealEndTime","type":"uint256","internalType":"uint256"},{"name":"roundIndex","type":"uint256","internalType":"uint256"},{"name":"mainProviderAnswerHash","type":"bytes32","internalType":"bytes32"},{"name":"state","type":"uint8","internalType":"enum ComputationMarket.RequestStates"},{"name":"stake","type":"uint256","internalType":"uint256"},{"name":"paymentPerRoundForVerifiers","type":"uint256","internalType":"uint256"},{"name":"totalPaidForVerification","type":"uint256","internalType":"uint256"}]}],"stateMutability":"view"},{"type":"function","name":"getVerificationDetails","inputs":[{"name":"requestId","type":"uint256","internalType":"uint256"},{"name":"verifier","type":"address","internalType":"address"}],"outputs":[{"name":"","type":"tuple","internalType":"struct ComputationMarket.Verification","components":[{"name":"verifier","type":"address","internalType":"address"},{"name":"agree","type":"bool","internalType":"bool"},{"name":"answer","type":"bytes32","internalType":"bytes32"},{"name":"nonce","type":"bytes32","internalType":"bytes32"},{"name":"revealed","type":"bool","internalType":"bool"},{"name":"computedHash","type":"bytes32","internalType":"bytes32"}]}],"stateMutability":"view"},{"type":"function","name":"requestCount","inputs":[],"outputs":[{"name":"","type":"uint256","internalType":"uint256"}],"stateMutability":"view"},{"type":"function","name":"requests","inputs":[{"name":"","type":"uint256","internalType":"uint256"}],"outputs":[{"name":"consumer","type":"address","internalType":"address"},{"name":"paymentForProvider","type":"uint256","internalType":"uint256"},{"name":"totalPaymentForVerifiers","type":"uint256","internalType":"uint256"},{"name":"numOperations","type":"uint256","internalType":"uint256"},{"name":"numVerifiers","type":"uint256","internalType":"uint256"},{"name":"operationFileURL","type":"string","internalType":"string"},{"name":"computationDeadline","type":"uint256","internalType":"uint256"},{"name":"verificationDeadline","type":"uint256","internalType":"uint256"},{"name":"totalPayment","type":"uint256","internalType":"uint256"},{"name":"completed","type":"bool","internalType":"bool"},{"name":"hasBeenComputed","type":"bool","internalType":"bool"},{"name":"numVerifiersSampleSize","type":"uint256","internalType":"uint256"},{"name":"mainProvider","type":"address","internalType":"address"},{"name":"timeAllocatedForVerification","type":"uint256","internalType":"uint256"},{"name":"layerCount","type":"uint256","internalType":"uint256"},{"name":"layerComputeIndex","type":"uint256","internalType":"uint256"},{"name":"verificationStartTime","type":"uint256","internalType":"uint256"},{"name":"commitEndTime","type":"uint256","internalType":"uint256"},{"name":"commitmentRevealEndTime","type":"uint256","internalType":"uint256"},{"name":"providerRevealEndTime","type":"uint256","internalType":"uint256"},{"name":"roundIndex","type":"uint256","internalType":"uint256"},{"name":"mainProviderAnswerHash","type":"bytes32","internalType":"bytes32"},{"name":"state","type":"uint8","internalType":"enum ComputationMarket.RequestStates"},{"name":"stake","type":"uint256","internalType":"uint256"},{"name":"paymentPerRoundForVerifiers","type":"uint256","internalType":"uint256"},{"name":"totalPaidForVerification","type":"uint256","internalType":"uint256"}],"stateMutability":"view"},{"type":"function","name":"revealCommitment","inputs":[{"name":"requestId","type":"uint256","internalType":"uint256"},{"name":"agree","type":"bool","internalType":"bool"},{"name":"answer","type":"bytes32","internalType":"bytes32"},{"name":"nonce","type":"bytes32","internalType":"bytes32"}],"outputs":[],"stateMutability":"nonpayable"},{"type":"function","name":"revealProviderKeyAndHash","inputs":[{"name":"requestId","type":"uint256","internalType":"uint256"},{"name":"privateKey","type":"bytes32","internalType":"bytes32"},{"name":"answerHash","type":"bytes32","internalType":"bytes32"}],"outputs":[],"stateMutability":"nonpayable"},{"type":"function","name":"selectRequest","inputs":[{"name":"requestId","type":"uint256","internalType":"uint256"}],"outputs":[],"stateMutability":"nonpayable"},{"type":"function","name":"submitCommitment","inputs":[{"name":"requestId","type":"uint256","internalType":"uint256"},{"name":"computedHash","type":"bytes32","internalType":"bytes32"}],"outputs":[],"stateMutability":"nonpayable"},{"type":"function","name":"verificationDeadlinePassedForVeryfying","inputs":[{"name":"requestId","type":"uint256","internalType":"uint256"}],"outputs":[],"stateMutability":"nonpayable"},{"type":"function","name":"verifications","inputs":[{"name":"","type":"uint256","internalType":"uint256"},{"name":"","type":"address","internalType":"address"}],"outputs":[{"name":"verifier","type":"address","internalType":"address"},{"name":"agree","type":"bool","internalType":"bool"},{"name":"answer","type":"bytes32","internalType":"bytes32"},{"name":"nonce","type":"bytes32","internalType":"bytes32"},{"name":"revealed","type":"bool","internalType":"bool"},{"name":"computedHash","type":"bytes32","internalType":"bytes32"}],"stateMutability":"view"},{"type":"event","name":"CommitmentPhaseStarted","inputs":[{"name":"requestId","type":"uint256","indexed":true,"internalType":"uint256"},{"name":"startTime","type":"uint256","indexed":false,"internalType":"uint256"},{"name":"endTime","type":"uint256","indexed":false,"internalType":"uint256"},{"name":"layerComputeIndex","type":"uint256","indexed":false,"internalType":"uint256"}],"anonymous":false},{"type":"event","name":"CommitmentSubmitted","inputs":[{"name":"requestId","type":"uint256","indexed":true,"internalType":"uint256"},{"name":"verifier","type":"address","indexed":true,"internalType":"address"}],"anonymous":false},{"type":"event","name":"NoMajorityForRound","inputs":[{"name":"requestId","type":"uint256","indexed":true,"internalType":"uint256"},{"name":"layerComputeIndex","type":"uint256","indexed":false,"internalType":"uint256"}],"anonymous":false},{"type":"event","name":"ProviderResultSuccessfullyVerified","inputs":[{"name":"requestId","type":"uint256","indexed":true,"internalType":"uint256"}],"anonymous":false},{"type":"event","name":"ProviderResultUnsuccessful","inputs":[{"name":"requestId","type":"uint256","indexed":true,"internalType":"uint256"}],"anonymous":false},{"type":"event","name":"ProviderRevealed","inputs":[{"name":"requestId","type":"uint256","indexed":true,"internalType":"uint256"},{"name":"privateKey","type":"bytes32","indexed":false,"internalType":"bytes32"},{"name":"answerHash","type":"bytes32","indexed":false,"internalType":"bytes32"}],"anonymous":false},{"type":"event","name":"ProviderSelected","inputs":[{"name":"requestId","type":"uint256","indexed":true,"internalType":"uint256"},{"name":"provider","type":"address","indexed":true,"internalType":"address"}],"anonymous":false},{"type":"event","name":"ProviderSlashed","inputs":[{"name":"requestId","type":"uint256","indexed":true,"internalType":"uint256"},{"name":"provider","type":"address","indexed":true,"internalType":"address"}],"anonymous":false},{"type":"event","name":"RequestCompleted","inputs":[{"name":"requestId","type":"uint256","indexed":true,"internalType":"uint256"},{"name":"provider","type":"address","indexed":true,"internalType":"address"}],"anonymous":false},{"type":"event","name":"RequestCreated","inputs":[{"name":"requestId","type":"uint256","indexed":true,"internalType":"uint256"},{"name":"consumer","type":"address","indexed":true,"internalType":"address"}],"anonymous":false},{"type":"event","name":"RevealVerificationDetails","inputs":[{"name":"requestId","type":"uint256","indexed":true,"internalType":"uint256"},{"name":"endTime","type":"uint256","indexed":false,"internalType":"uint256"},{"name":"verifier","type":"address","indexed":true,"internalType":"address"}],"anonymous":false},{"type":"event","name":"RoundInitialised","inputs":[{"name":"requestId","type":"uint256","indexed":true,"internalType":"uint256"}],"anonymous":false},{"type":"event","name":"RoundRevealStarted","inputs":[{"name":"requestId","type":"uint256","indexed":true,"internalType":"uint256"}],"anonymous":false},{"type":"event","name":"RoundStartedForVerificationSelection","inputs":[{"name":"requestId","type":"uint256","indexed":true,"internalType":"uint256"},{"name":"layerComputeIndex","type":"uint256","indexed":false,"internalType":"uint256"}],"anonymous":false},{"type":"event","name":"VerificationApplied","inputs":[{"name":"requestId","type":"uint256","indexed":true,"internalType":"uint256"},{"name":"verifier","type":"address","indexed":true,"internalType":"address"}],"anonymous":false},{"type":"event","name":"VerifierChosen","inputs":[{"name":"requestId","type":"uint256","indexed":true,"internalType":"uint256"},{"name":"verifier","type":"address","indexed":true,"internalType":"address"}],"anonymous":false},{"type":"event","name":"VoteSubmitted","inputs":[{"name":"requestId","type":"uint256","indexed":true,"internalType":"uint256"},{"name":"verifier","type":"address","indexed":true,"internalType":"address"},{"name":"agree","type":"bool","indexed":false,"internalType":"bool"}],"anonymous":false},{"type":"event","name":"requestCancelled","inputs":[{"name":"requestId","type":"uint256","indexed":true,"internalType":"uint256"}],"anonymous":false}],"bytecode":{"object":"0x608034620000c657601f62003ca438819003918201601f19168301916001600160401b03831184841017620000cb57808492602094604052833981010312620000c657516001600160a01b03811690819003620000c65780156200008157600080546001600160a01b031916919091179055604051613bc29081620000e28239f35b60405162461bcd60e51b815260206004820152601560248201527f496e76616c696420746f6b656e206164647265737300000000000000000000006044820152606490fd5b600080fd5b634e487b7160e01b600052604160045260246000fdfe61024080604052600436101561001457600080fd5b60003560e01c90816304ae469b14612004575080630625f16114611d225780633015394c14611d065780633e0fafef1461106e5780634da0d13914610ff357806353e2ba1714610fd75780635badbe4c14610fb95780635e16a9d814610f9d5780636605dfa714610f745780636d8f9a0e14610f5857806381d12c5814610cf8578063bfdb345114610ac2578063daf2a65a14610aa4578063e03ad0d114610942578063e20fb7a114610777578063e6a3d9dc1461063c578063f34d4c63146101d05763f38f1047146100e657600080fd5b346101cb5760c06100f63661283c565b90600060a0604051610107816126de565b82815282602082015282604082015282606082015282608082015201526000526003602052604060002060018060a01b03809216600052602052604060002060405190610153826126de565b80549283169283835260ff602084019160a01c16151581526001820154604084019081526002830154916060850192835260a0600460ff6003870154169560808801961515875201549501948552604051958652511515602086015251604085015251606084015251151560808301525160a0820152f35b600080fd5b346101cb5760203660031901126101cb5760006103a06040516101f2816126c2565b828152826020820152826040820152826060820152826080820152606060a0820152606060c0820152606060e08201528261010082015282610120820152826101408201528261016082015282610180820152826101a082015260606101c082015260606101e08201528261020082015282610220820152826102408201528261026082015282610280820152826102a0820152826102c0820152826102e08201528261030082015282610320820152826103408201528261036082015282610380820152015260043560005260026020526040600020604051906102d6826126c2565b80546001600160a01b031682526001810154602083015260028101546040830152600381015460608301526004810154608083015261031760058201613790565b60a08301526103286006820161289c565b60c083015261033960078201613790565b60e083015260088101546101008301526009810154610120830152600a81015461014083015260ff600b820154818116151561016085015260081c161515610180830152600c8101546101a0830152610394600d82016137e5565b6101c08301526103a6600e82016137e5565b6101e0830152600f8101546001600160a01b0316610200830152601081015461022083015260118101546102408301526012810154610260830152601381015461028083015260148101546102a083015260158101546102c083015260168101546102e083015260178101546103008301526018810154610320830152601981015460ff1690600982101561062657601c91610340840152601a810154610360840152601b81015461038084015201546103a082015260405180916020825260018060a01b038151166020830152602081015160408301526040810151606083015260608101516080830152608081015160a08301526103a061056f6105576104f36104dc6104c660a08701516103c060c08a01526103e089019061298e565b60c0870151888203601f190160e08a0152612941565b60e0860151878203601f190161010089015261298e565b610100850151610120870152610120850151610140870152610140850151610160870152610160850151151561018087015261018085015115156101a08701526101a08501516101c08701526101c0850151601f19878303016101e08801526129eb565b6101e0840151858203601f19016102008701526129eb565b9160018060a01b03610200820151166102208501526102208101516102408501526102408101516102608501526102608101516102808501526102808101516102a08501526102a08101516102c08501526102c08101516102e08501526102e0810151610300850152610300810151610320850152610320810151610340850152610604610340820151610360860190612981565b6103608101516103808501526103808101518285015201516103c08301520390f35b634e487b7160e01b600052602160045260246000fd5b346101cb5760403660031901126101cb57600435806000526002602052604060002060ff601982015416600981101561062657600303610726576014015442116106e85761069261068d3383613a49565b6134ea565b8060005260036020526040600020336000526020526003604060002060243560048201550160ff19815416905533907f22d30f6da93667100b64d15e5ea70afec217caeab1008706f57bfa4deed12c63600080a3005b60405162461bcd60e51b815260206004820152601660248201527510dbdb5b5a5d1b595b9d081c1a185cd948195b99195960521b6044820152606490fd5b60405162461bcd60e51b815260206004820152602360248201527f52657175657374206e6f742079657420696e20636f6d6d69746d656e7420737460448201526261746560e81b6064820152608490fd5b346101cb5760603660031901126101cb576004356000818152600260205260409020600f810154604435906001600160a01b031633036108e257601482015442111561089d576016820154421161085857604051916020830191808352600160408501526040845260608401918483106001600160401b03841117610842577f4b8ecdcde49a7d4d879a4bf5a6cc37c7086e65774f161d4bf99c01aaa1882f8994601960809260409686885283519020601882015501600460ff1982541617905560243584520152a2005b634e487b7160e01b600052604160045260246000fd5b60405162461bcd60e51b815260206004820152601b60248201527f50726f76696465722072657665616c20706861736520656e64656400000000006044820152606490fd5b60405162461bcd60e51b815260206004820152601a60248201527f436f6d6d69746d656e74207068617365206e6f7420656e6465640000000000006044820152606490fd5b60405162461bcd60e51b815260206004820152603260248201527f4f6e6c7920746865206d61696e2070726f76696465722063616e2072657665616044820152710d840e8d0ca40d6caf240c2dcc840d0c2e6d60731b6064820152608490fd5b346101cb576020806003193601126101cb57600435806000526002825260406000206109746008820154421115612ab3565b600f810180546001600160a01b03908116610a5f5760008054601a8501546040516323b872dd60e01b8152336004820152306024820152604481019190915295969283928792606492849291165af18015610a53576019946109df92600092610a26575b5050612dad565b336001600160601b0360a01b82541617905501600160ff1982541617905533907f3c84569ae9be7c8e6e8edf0c0cbeb7e00cf9cb4d9b67849728be8ab96e09bec1600080a3005b610a459250803d10610a4c575b610a3d818361272f565b810190612b29565b86806109d8565b503d610a33565b6040513d6000823e3d90fd5b60405162461bcd60e51b815260048101869052601960248201527f50726f766964657220616c72656164792073656c6563746564000000000000006044820152606490fd5b346101cb5760203660031901126101cb57610ac0600435613543565b005b346101cb5760803660031901126101cb57600435602435908115158092036101cb57604435916064359082600052602093600285526040600020916016830154421115610cb35760158301544211610c7957610b2161068d3387613a49565b846000526003865260406000203360005286526040600020916003830180549560ff8716610c34576040518981019085825284604082015282606082015233608082015260808152610b7281612714565b519020600486015403610bf7579160059593918593601996549260018601556002850155600160ff19809916179055339160ff60a01b9060a01b16906affffffffffffffffffffff60a81b161717905501918254161790557fb59f6416758d4763386b2c83d12c7c643131c90beff0caea486f303510702ce3604051924284523393a3005b60405162461bcd60e51b8152600481018a90526015602482015274496e76616c69642072657665616c2076616c75657360581b6044820152606490fd5b60405162461bcd60e51b8152600481018a9052601b60248201527f436f6d6d69746d656e7420616c72656164792072657665616c656400000000006044820152606490fd5b60405162461bcd60e51b815260048101879052601260248201527114995d99585b081c1a185cd948195b99195960721b6044820152606490fd5b60405162461bcd60e51b815260048101879052601f60248201527f50726f76696465722072657665616c207068617365206e6f7420656e646564006044820152606490fd5b346101cb5760203660031901126101cb57600435600052600260205260406000206102205260018060a01b03610220515416600161022051015460026102205101546101405260036102205101546101605260046102205101546101a052610d656006610220510161289c565b91600861022051015461012052600961022051015492600a610220510154600b610220510154600c61022051015460018060a01b03600f610220510154169060ff601061022051015493601161022051015495610e7d60126102205101549860136102205101549a60146102205101549c6015610220510154608052601661022051015460a052601761022051015460e052601861022051015461020052866019610220510154166101e052601a6102205101546101c052601b61022051015461018052601c6102205101546101005260405160c0526103409160c05152602060c051015261014051604060c051015261016051606060c05101526101a051608060c05101528060a060c051015260c0510190612941565b9a6101205160c08051015260e060c051015261010060c0510152818116151561012060c051015260081c16151561014060c051015261016060c051015261018060c05101526101a060c05101526101c060c05101526101e060c051015261020060c051015261022060c051015260805161024060c051015260a05161026060c051015260e05161028060c0510152610200516102a060c0510152610f2a6102c060c051016101e051612981565b6101c0516102e060c05101526101805161030060c05101526101005161032060c051015260c051900360c051f35b346101cb5760203660031901126101cb57610ac0600435612dee565b346101cb5760003660031901126101cb576000546040516001600160a01b039091168152602090f35b346101cb5760003660031901126101cb576020604051600a8152f35b346101cb5760003660031901126101cb576020600154604051908152f35b346101cb5760003660031901126101cb57602060405160038152f35b346101cb5760c06110033661283c565b906000526003602052604060002060018060a01b038092166000526020526040600020805490600181015460028201549060ff60048160038601541694015494604051968116875260a01c1615156020860152604085015260608401521515608083015260a0820152f35b346101cb576101403660031901126101cb5760446084356001600160401b0381116101cb576110a19036906004016127bd565b9060a4356001600160401b0381116101cb576110c1903690600401612767565b916103e78235019081833511611aa0576110ed6103e883046110e861012435602435612aff565b612aff565b936110fa85600435612a28565b600360643510611cc2576001806064351603611c7e57600080546040516323b872dd60e01b8152336004820152306024820152604481018490529160209183916064918391906001600160a01b03165af1908115610a5357600091611c5f575b5015611c2a574260c4351115611bc05761010435600361010435020460031461010435151715611aa0576111a361119b600361010435026103e88704612aff565b60c435612a28565b60e4351115611b46576101243560643510611ab6576040516111c4816126f9565b600081526111d460c43542612a28565b6111e060e43542612a28565b91604051946111ee866126f9565b60008652604051966111ff886126f9565b60008852600435600a6004350204600a14600435151715611aa0576103e8996040519b61122b8d6126c2565b338d528c602060043591015260408d01523560608c015260643560808c015260a08b015260c08a015260e089015261010088015261012087015261014086015260006101608601526000610180860152610124356101a08601526101c08501526101e0840152600061020084015261010435610220840152046102408201526000610260820152600061028082015260006102a082015260006102c082015260006102e08201526000610300820152600061032082015260006103408201526064600a600435020461036082015260243561038082015260006103a08201526001546000526002602052604060002060018060a01b038251166001600160601b0360a01b8254161781556020820151600182015560408201516002820155606082015160038201556080820151600482015560a0820151805190600160401b8211610842576005830154826005850155808310611a27575b5060200190600583016000526020600020916000905b82821061190e57858560c08201519182516001600160401b038111610842576113c56006840154612862565b601f81116118d9575b506020601f821160011461186b578190611401939495600092611860575b50508160011b916000199060031b1c19161790565b60068301555b60e0810151805190600160401b82116108425760078401548260078601558083106117e8575b5060200190600784016000526020600020916000905b8282106116c257858561010081015160088301556101208101516009830155610140810151600a830155600b82016101608201511515815460ff61ff00610180860151151560081b1692169061ffff1916171790556101a0810151600c8301556101c08101518051906001600160401b03821161084257600160401b821161084257602090600d85015483600d8701558084106116a2575b5001600d8401600052602060002060005b8381106116855785856101e08101518051906001600160401b03821161084257600160401b821161084257602090600e85015483600e870155808410611665575b5001600e8401600052602060002060005b838110611648578585600f820160018060a01b03610200830151166001600160601b0360a01b82541617905561022081015160108301556102408101516011830155610260810151601283015561028081015160138301556102a081015160148301556102c081015160158301556102e0810151601683015561030081015160178301556103208101516018830155601982019061034081015190600982101561062657601c926103a09260ff80198354169116179055610360810151601a850155610380810151601b850155015191015561161b600154612a63565b8060015533907f233bb55fd57b21b8a3d15c9ad8fbbab435fe4cf2865cc654f6a57d9d4d8cda54600080a3005b82516001600160a01b03168183015560209092019160010161153e565b61167f90600e870160005284846000209182019101612b12565b8561152d565b82516001600160a01b0316818301556020909201916001016114ec565b6116bc90600d870160005284846000209182019101612b12565b856114db565b80518051906001600160401b038211610842576116df8654612862565b601f81116117ab575b50602090601f831160011461173b5792611721836001959460209487966000926117305750508160011b916000199060031b1c19161790565b87555b01940191019092611443565b015190508c806113ec565b908660005260206000209160005b601f1985168110611793575083602093600196938796938794601f1981161061177a575b505050811b018755611724565b015160001960f88460031b161c191690558b808061176d565b91926020600181928685015181550194019201611749565b6117d890876000526020600020601f850160051c810191602086106117de575b601f0160051c0190612b12565b886116e8565b90915081906117cb565b600785016000526020600020908382015b818301811061180957505061142d565b8061181660019254612862565b80611823575b50016117f9565b601f811183146118395750600081555b8861181c565b600090828252611857601f60208420920160051c8201858301612b12565b81835555611833565b0151905085806113ec565b6006840160005260206000209060005b601f19841681106118c15750600193949583601f198116106118a8575b505050811b016006830155611407565b015160001960f88460031b161c19169055848080611898565b9091602060018192858a01518155019301910161187b565b61190890600685016000526020600020601f840160051c810191602085106117de57601f0160051c0190612b12565b846113ce565b80518051906001600160401b0382116108425761192b8654612862565b90601f918281116119ed575b50602091831160011461197d579261196e836001959460209487966000926117305750508160011b916000199060031b1c19161790565b87555b01940191019092611399565b908660005260206000209160005b601f19851681106119d5575083602093600196938796938794601f198116106119bc575b505050811b018755611971565b015160001960f88460031b161c191690558b80806119af565b9192602060018192868501518155019401920161198b565b611a18908860005260206000208480870160051c82019260208810611a1e575b0160051c0190612b12565b89611937565b92508192611a0d565b600584016000526020600020908382015b8183018110611a48575050611383565b80611a5560019254612862565b80611a62575b5001611a38565b601f908181118414611a7b575050600081555b88611a5b565b611a9760009284845260208420920160051c8201858301612b12565b81835555611a75565b634e487b7160e01b600052601160045260246000fd5b60405162461bcd60e51b815260206004820152605d60248201527f4e6f7420656e6f7567682076657269666965727320746f2063686f6f73652066818701527f726f6d2e206e756d566572696669657273206d7573742062652067726561746560648201527f72207468616e206e756d56657269666965727353616d706c6553697a65000000608482015260a490fd5b60405162461bcd60e51b815260206004820152604760248201527f566572696669636174696f6e20646561646c696e65206d757374206265207375818701527f6666696369656e7420656e6f75676820666f7220616c6c20726f756e64732072606482015266195c5d5a5c995960ca1b608482015260a490fd5b60405162461bcd60e51b815260206004820152603c60248201527f436f6d7075746174696f6e616c20646561646c696e65206d7573742062652067818701527f726561746572207468616e207468652063757272656e742074696d65000000006064820152608490fd5b60405162461bcd60e51b815260206004820152600e60248201526d14185e5b595b9d0819985a5b195960921b81870152606490fd5b611c78915060203d602011610a4c57610a3d818361272f565b8761115a565b60405162461bcd60e51b815260206004820152601f60248201527f4e756d626572206f6620766572696669657273206d757374206265206f64640081870152606490fd5b60405162461bcd60e51b815260206004820152601d60248201527f4174206c6561737420332076657269666965727320726571756972656400000081870152606490fd5b346101cb5760203660031901126101cb57610ac0600435612b41565b346101cb5760403660031901126101cb5760246004356001600160401b0382358181116101cb57611d579036906004016127bd565b9082600052602090600282526040600020611d786008820154421115612ab3565b600f8101546001600160a01b03163303611fad5780600b6007920161010061ff00198254161790550190835193600160401b85116108425783908354868555808710611f33575b506000938452848420939791015b858810611e0457610ac08733817f1d961eb7779cdf87f83b3c5ca1e5a7b0b7832f5fc1f9b813fea6787daf0e884c600080a361388b565b8051805190848211611f1e5790869291611e1e8754612862565b90601f91828111611ee6575b5084918311600114611e78578260019593869593611e5e93600092611e6d5750508160011b916000199060031b1c19161790565b87555b01940197019692611dcd565b015190508e806113ec565b90601f9493941983169188600052846000209260005b818110611ece5750916001969391858897969410611eb5575b505050831b83018755611e61565b015160001960f88460031b161c191690558c8080611ea7565b8284015185558b966001909501949384019301611e8e565b611f0f908960005286600020600585808801821c8301938a8910611f15575b01901c0190612b12565b8c611e2a565b93508293611f05565b83634e487b7160e01b60005260416004526000fd5b84600052868360002091820191015b818110611f4f5750611dbf565b600191929350611f5f8154612862565b80611f70575b500190859291611f42565b601f908181118414611f89575050600081555b8a611f65565b611fa46000928484528a8420920160051c8201858301612b12565b81835555611f83565b60405162461bcd60e51b815260048101849052602960248201527f4f6e6c792063686f73656e2070726f76696465722063616e20636f6d706c657460448201526819481c995c5d595cdd60ba1b6064820152608490fd5b346101cb5760203660031901126101cb57600435600052600260205260406000209060158201544210612671575060ff9060ff60198201541660098110156106265760050361260f57600090600090600192601782015460018101809111611aa0576017830155600c82019360005b855481101561224657600435600052600380602052604060002061209a83600e8801612a35565b60018060a01b03915490841b1c1660005260205287604060002091820154166120c7575b50600101612073565b600181015488825460a01c1660405191602083015215156040820152604081528060608101106001600160401b03606083011117610842578060606121879201604052602081519101209160043560005260046020526040600020836000526020526040600020601788015460005260205260406000206121488154612a63565b905560043560005260056020526040600020836000526020526040600020601788015460005260205260406000209060018060a01b0390541690612a72565b600435600052600460205260406000208160005260205260406000206017860154908160005260205286604060002054146000146121cf575050905060016000915b906120be565b60043560005260046020526040600020826000526020526040600020816000526020528660406000205411612209575b50506001906121c9565b92509450915060019060043560005260046020526040600020856000526020526040600020906000526020526001604060002054949290886121ff565b50156125115760043560005260026020526040600020600560205260406000208260005260205260406000206017820154600052602052604060002090601b81015491612297600c83015484612aff565b81549081156124fb570490601c830160005b8254811015612368576122c66122bf8786612a28565b8354612a28565b82556000546001600160a01b0390811691906020906122e58387612a35565b94905460006122f48c8b612a28565b9661232f6040519889968795869463a9059cbb60e01b865260031b1c166004840160209093929193604081019460018060a01b031681520152565b03925af1918215610a5357600192612349575b50016122a9565b6123619060203d602011610a4c57610a3d818361272f565b5088612342565b505050506018915001541460043560005260026020526040600020601281019182549061239b601184019283541161383f565b156123f757825490546000198101908111611aa0578110156123d05750506123c38154612a63565b9055610ac060043561388b565b916123dc601993612a63565b90556123e9600435613a9f565b01805460ff19166006179055005b50505060043560005260026020526040600020612484602060018060a01b038060005416908454169061244f6124446124396001880154601a89015490612a28565b600288015490612a28565b601c87015490613536565b60405163a9059cbb60e01b81526001600160a01b03909316600484015260248301529092839190829060009082906044820190565b03925af18015610a53576124dc575b5060076019600b83019260ff199360018582541617905501918254161790556004357f6d55d799468c2d702d8ff65d462b4e8dbbc88c728431aee69b205a3964362f07600080a2005b6124f49060203d602011610a4c57610a3d818361272f565b5081612493565b634e487b7160e01b600052601260045260246000fd5b5060043560005260026020526040600020600090600e8101601b8201925b81548110156125ce576000546001600160a01b0390811691906020906125558386612a35565b9054885460405163a9059cbb60e01b815260039390931b9190911c929092166001600160a01b031660048201526024810191909152928390816000816044810103925af1918215610a53576001926125af575b500161252f565b6125c79060203d602011610a4c57610a3d818361272f565b50856125a8565b50506012915001546040519081527fea43ae306415066aa09d5402571eb6506530e7a6011f5d797c85825dd9a6ef54602060043592a2610ac060043561388b565b60405162461bcd60e51b815260206004820152603460248201527f52657175657374206e6f7420696e20636f727265637420737461746520666f726044820152732063616c63756c6174696e67207265776172647360601b6064820152608490fd5b62461bcd60e51b815260206004820152602660248201527f636f6d6d69746d656e7420737461676520686173206e6f742079657420636f6d6044820152651c1b195d195960d21b6064820152608490fd5b6103c081019081106001600160401b0382111761084257604052565b60c081019081106001600160401b0382111761084257604052565b602081019081106001600160401b0382111761084257604052565b60a081019081106001600160401b0382111761084257604052565b90601f801991011681019081106001600160401b0382111761084257604052565b6001600160401b0381116108425760051b60200190565b81601f820112156101cb578035906001600160401b038211610842576040519261279b601f8401601f19166020018561272f565b828452602083830101116101cb57816000926020809301838601378301015290565b81601f820112156101cb578035916020916127d784612750565b936127e5604051958661272f565b808552838086019160051b830101928084116101cb57848301915b8483106128105750505050505090565b82356001600160401b0381116101cb57869161283184848094890101612767565b815201920191612800565b60409060031901126101cb57600435906024356001600160a01b03811681036101cb5790565b90600182811c92168015612892575b602083101461287c57565b634e487b7160e01b600052602260045260246000fd5b91607f1691612871565b906040519182600082546128af81612862565b9081845260209460019160018116908160001461291f57506001146128e0575b5050506128de9250038361272f565b565b600090815285812095935091905b8183106129075750506128de93508201013880806128cf565b855488840185015294850194879450918301916128ee565b925050506128de94925060ff191682840152151560051b8201013880806128cf565b919082519283825260005b84811061296d575050826000602080949584010152601f8019910116010190565b60208183018101518483018201520161294c565b9060098210156106265752565b90808251908181526020809101926020808460051b8301019501936000915b8483106129bd5750505050505090565b90919293949584806129db600193601f198682030187528a51612941565b98019301930191949392906129ad565b90815180825260208080930193019160005b828110612a0b575050505090565b83516001600160a01b0316855293810193928101926001016129fd565b91908201809211611aa057565b8054821015612a4d5760005260206000200190600090565b634e487b7160e01b600052603260045260246000fd5b6000198114611aa05760010190565b90815491600160401b8310156108425782612a959160016128de95018155612a35565b90919060018060a01b038084549260031b9316831b921b1916179055565b15612aba57565b60405162461bcd60e51b815260206004820152601b60248201527f436f6d7075746174696f6e20646561646c696e652070617373656400000000006044820152606490fd5b81810292918115918404141715611aa057565b818110612b1d575050565b60008155600101612b12565b908160209103126101cb575180151581036101cb5790565b600081815260026020908152604080832080546001600160a01b039081169391929033859003612d5357600b84019460ff865416612d0f57839082600f8701541615612cd55750506008840154421180612cc6575b15612c6c579082612bee92612bb4600a870154601a88015490612a28565b90808954169087541689855180978195829463a9059cbb60e01b84526004840160209093929193604081019460018060a01b031681520152565b03925af1908115612c635750926008926019927f1523a7600668f21efd095a2e4b78dc32da863f11b5b54ed0043034aeefd6442c979695612c45575b505060ff1993600185825416179055019182541617905580a2565b81612c5b92903d10610a4c57610a3d818361272f565b503880612c2a565b513d87823e3d90fd5b815162461bcd60e51b815260048101849052602d60248201527f436f6d7075746174696f6e20646561646c696e6520686173206e6f742079657460448201526c081899595b881c995858da1959609a1b6064820152608490fd5b5060ff855460081c1615612b96565b8754600a870154855163a9059cbb60e01b81526001600160a01b039093166004840152602483015290939284911681898160448101612bee565b825162461bcd60e51b815260048101859052601960248201527f5265717565737420616c726561647920636f6d706c65746564000000000000006044820152606490fd5b815162461bcd60e51b8152600481018490526024808201527f4f6e6c792074686520636f6e73756d65722063616e2077697468647261772066604482015263756e647360e01b6064820152608490fd5b81156124fb570690565b15612db457565b60405162461bcd60e51b8152602060048201526012602482015271496e73756666696369656e74207374616b6560701b6044820152606490fd5b60008181526020906002825260409081812060ff600b82015460081c16156134a657600f8101546001600160a01b0391908216331461344657600d810194855494600495868401908154111561340a578554601b85015483516323b872dd60e01b815233818b019081523060208201526040810192909252918591839189169082908b90829060600103925af19081156134005790612e949188916133e3575b50612dad565b612e9e338a6139d6565b6133a0576010600985015494015493600394808602908682040361338d57612ec69042612a28565b101561337c57612ed63389612a72565b815197338a7f660dbb250d8df8b80242049410e015bda88628ca9994256731c0c9e879fbed7f8980a354905414612f12575b5050505050505050565b9091929394959697888652600283528186209760ff600b8a015460081c16156133315750600d880192835497600c8a019889548082106132e257612f5990829c9b9c613536565b90612f6382612750565b90612f708751928361272f565b828252601f19612f7f84612750565b01368684013760609033821b8c5b85811061329057505050508990601b8c01915b83811061314e5750505050600e889901985b8a54811015613005578088612fc960019389612a35565b9054908a1b1c16612fda818d612a72565b8d7fe74b92fa3513e730f6b115620841d966b7cd25a13c613ebe544861f2a01731608c80a301612fb2565b509350939650965096925082845260028252868420936012850154916130306011870154841061383f565b600986015460108701549283890290898204850361313b57506130539042612a28565b10156130de57509160609160199697987f27e90e135bb91bf6706a23381e6d0d480f8bb7d002d6e9a197b432b7b654245f944260138901556130b46130988242612a28565b918260148b01556130a98184612a28565b8060168c0155612a28565b6015890155815193428552840152820152a2019060ff198254161790553880808080808080612f08565b885162461bcd60e51b8152908101849052603160248201527f566572696669636174696f6e20446561646c696e652068617320706173736564604482015270081d1bc81cdd185c9d0818481c9bdd5b99607a1b6064820152608490fd5b634e487b7160e01b815260118452602490fd5b8861315c9d9e9d8284613a35565b518c8c61317f6131788554946131728887613536565b90612da3565b8095612a35565b9054911b1c16916000199180830190811161327c57612a958f928f938f93946131b46131ae8a6131c098613536565b86612a35565b9054911b1c1692612a35565b8a5490810190811161326957898e838f6131ee8f96612a95613224988f988b6131e891613536565b90612a35565b825416918a895494519687958694859363a9059cbb60e01b8552840160209093929193604081019460018060a01b031681520152565b03925af1801561325f579060019291613242575b50019c9b9c612fa0565b61325890883d8a11610a4c57610a3d818361272f565b5038613238565b89513d8f823e3d90fd5b634e487b7160e01b8e526011875260248efd5b50634e487b7160e01b8f526011885260248ffd5b9d9e9d6001906132cb848c80999899518c810191428352449082015286898201526074858183015281526132c381612714565b519020612da3565b6132d58289613a35565b52019e9d9e949394612f8d565b855162461bcd60e51b8152808401859052602360248201527f4e6f7420656e6f7567682076657269666965727320746f2063686f6f73652066604482015262726f6d60e81b6064820152608490fd5b62461bcd60e51b8152878101849052602160248201527f5265717565737420686173206e6f74206265656e20636f6d70757465642079656044820152601d60fa1b6064820152608490fd5b50505050505050506128de90613543565b634e487b7160e01b885260118952602488fd5b815162461bcd60e51b8152808801849052601860248201527f566572696669657220616c7265616479206170706c69656400000000000000006044820152606490fd5b6133fa9150853d8711610a4c57610a3d818361272f565b38612e8e565b83513d89823e3d90fd5b815162461bcd60e51b8152808801849052601660248201527515995c9a599a595c881b1a5b5a5d081c995858da195960521b6044820152606490fd5b835162461bcd60e51b815260048101869052603360248201527f546865206d61696e2070726f76696465722063616e6e6f74206170706c79207460448201527237903132b1b7b6b29030903b32b934b334b2b960691b6064820152608490fd5b825162461bcd60e51b815260048101859052601860248201527f52657175657374206e6f742079657420636f6d707574656400000000000000006044820152606490fd5b156134f157565b60405162461bcd60e51b815260206004820152601d60248201527f596f7520617265206e6f7420612063686f73656e2076657269666965720000006044820152606490fd5b91908203918211611aa057565b9060009180835260209060028252604090604085209360098501546010860154906003918060030290600382040361377c5761357f9042612a28565b11156137265760ff6019870154166009811015613712576002036136b9579094601b81019190600d01875b8154808210156136a6576000198101818111613692576135ca8185612a35565b90546001600160a01b0391871b1c8116929091901561367e57918991836135f461363c9588612a35565b8154908a1b84901b1916905586558c5488548b5163a9059cbb60e01b81526001600160a01b0390941660048501526024840152919384929091169082908e9082906044820190565b03925af18015613674579060019291613657575b50016135aa565b61366d90893d8b11610a4c57610a3d818361272f565b5038613650565b87513d8c823e3d90fd5b634e487b7160e01b8c52603160045260248cfd5b634e487b7160e01b8b52601160045260248bfd5b50505050509150506128de919250613a9f565b60405162461bcd60e51b815260048101869052602b60248201527f52657175657374206d75737420626520696e2063686f6f73696e67207665726960448201526a666965727320737461746560a81b6064820152608490fd5b634e487b7160e01b88526021600452602488fd5b60405162461bcd60e51b815260048101869052602860248201527f566572696669636174696f6e20646561646c696e6520686173206e6f742079656044820152671d081c185cdcd95960c21b6064820152608490fd5b634e487b7160e01b89526011600452602489fd5b90815461379c81612750565b926137aa604051948561272f565b818452600090815260208082208186015b8484106137c9575050505050565b60018381926137d78561289c565b8152019201930192906137bb565b90604051918281549182825260209260208301916000526020600020936000905b82821061381c575050506128de9250038361272f565b85546001600160a01b031684526001958601958895509381019390910190613806565b1561384657565b60405162461bcd60e51b815260206004820152601e60248201527f416c6c206c61796572732068617665206265656e2070726f63657373656400006044820152606490fd5b6000818152600260205260408120600f8101546001600160a01b031615613981578160126020927f7cdb7f0bd04877caf5dda7a202130926cdd67ad312dada203661ff6d88068434946040516138e0816126f9565b52600d8101805484825580613969575b50835282604051613900816126f9565b52600e8101805484825580613951575b50835260198101600260ff19825416179055857f2d4e685f9af8cf88fb3e3447f1ee8e4e5e68423a2c393dc8d6e9784aa67ddafa6040519480a201548152a2565b81855285852061396391810190612b12565b38613910565b81855285852061397b91810190612b12565b386138f0565b60405162461bcd60e51b815260206004820152602760248201527f4d61696e2070726f766964657220686173206e6f7420796574206265656e2073604482015266195b1958dd195960ca1b6064820152608490fd5b6000526002602052604060002090600d600092018054925b8381106139fe5750505050600090565b613a088183612a35565b905460039190911b1c6001600160a01b0390811690841614613a2c576001016139ee565b50505050600190565b8051821015612a4d5760209160051b010190565b6000526002602052604060002090600e600092018054925b838110613a715750505050600090565b613a7b8183612a35565b905460039190911b1c6001600160a01b0390811690841614613a2c57600101613a61565b60008181526002602052613b2a60206040832060198101600660ff1980835416906001600b86019182541617905517905560018060a01b03613af68186541691600f84015416926001601a82015491015490612a28565b60405163a9059cbb60e01b81526001600160a01b039093166004840152602483015290928391908290869082906044820190565b03925af18015613b8157907f953601eba1acf6d4769af39f3986a5be6acd796655930c93832c2f239fbccabf9291613b62575b5080a2565b613b7a9060203d602011610a4c57610a3d818361272f565b5038613b5d565b6040513d84823e3d90fdfea264697066735822122029def451159a89816c418f8de7758c0aa02ce0935a3de8497355749cf28471ff64736f6c63430008170033","linkReferences":{}},"methodIdentifiers":{"MIN_VERIFIERS()":"53e2ba17","PROVIDER_STAKE_PERCENTAGE()":"5e16a9d8","applyForVerificationForRequest(uint256)":"6d8f9a0e","calculateMajorityAndReward(uint256)":"04ae469b","cancelRequest(uint256)":"3015394c","compToken()":"6605dfa7","completeRequest(uint256,string[])":"0625f161","createRequest(uint256,uint256,uint256,uint256,string[],string,uint256,uint256,uint256,uint256)":"3e0fafef","getRequestDetails(uint256)":"f34d4c63","getVerificationDetails(uint256,address)":"f38f1047","requestCount()":"5badbe4c","requests(uint256)":"81d12c58","revealCommitment(uint256,bool,bytes32,bytes32)":"bfdb3451","revealProviderKeyAndHash(uint256,bytes32,bytes32)":"e20fb7a1","selectRequest(uint256)":"e03ad0d1","submitCommitment(uint256,bytes32)":"e6a3d9dc","verificationDeadlinePassedForVeryfying(uint256)":"daf2a65a","verifications(uint256,address)":"4da0d139"},"id":0}