{"abi":[{"type":"constructor","inputs":[{"name":"compTokenAddress","type":"address","internalType":"address"}],"stateMutability":"nonpayable"},{"type":"function","name":"MIN_VERIFIERS","inputs":[],"outputs":[{"name":"","type":"uint256","internalType":"uint256"}],"stateMutability":"view"},{"type":"function","name":"PROVIDER_STAKE_PERCENTAGE","inputs":[],"outputs":[{"name":"","type":"uint256","internalType":"uint256"}],"stateMutability":"view"},{"type":"function","name":"applyForVerificationForRequest","inputs":[{"name":"requestId","type":"uint256","internalType":"uint256"}],"outputs":[],"stateMutability":"nonpayable"},{"type":"function","name":"calculateMajorityAndReward","inputs":[{"name":"requestId","type":"uint256","internalType":"uint256"}],"outputs":[],"stateMutability":"nonpayable"},{"type":"function","name":"cancelRequest","inputs":[{"name":"requestId","type":"uint256","internalType":"uint256"}],"outputs":[],"stateMutability":"nonpayable"},{"type":"function","name":"compToken","inputs":[],"outputs":[{"name":"","type":"address","internalType":"contract IERC20"}],"stateMutability":"view"},{"type":"function","name":"completeRequest","inputs":[{"name":"requestId","type":"uint256","internalType":"uint256"},{"name":"outputFileURLs","type":"string[]","internalType":"string[]"}],"outputs":[],"stateMutability":"nonpayable"},{"type":"function","name":"createRequest","inputs":[{"name":"paymentForProvider","type":"uint256","internalType":"uint256"},{"name":"paymentPerRoundForVerifiers","type":"uint256","internalType":"uint256"},{"name":"numOperations","type":"uint256","internalType":"uint256"},{"name":"numVerifiers","type":"uint256","internalType":"uint256"},{"name":"inputFileURLs","type":"string[]","internalType":"string[]"},{"name":"operationFileURL","type":"string","internalType":"string"},{"name":"computationDeadline","type":"uint256","internalType":"uint256"},{"name":"verificationDeadline","type":"uint256","internalType":"uint256"},{"name":"timeAllocatedForVerification","type":"uint256","internalType":"uint256"},{"name":"numVerifiersSampleSize","type":"uint256","internalType":"uint256"}],"outputs":[],"stateMutability":"nonpayable"},{"type":"function","name":"getRequestDetails","inputs":[{"name":"requestId","type":"uint256","internalType":"uint256"}],"outputs":[{"name":"","type":"tuple","internalType":"struct ComputationMarket.Request","components":[{"name":"consumer","type":"address","internalType":"address"},{"name":"paymentForProvider","type":"uint256","internalType":"uint256"},{"name":"totalPaymentForVerifiers","type":"uint256","internalType":"uint256"},{"name":"numOperations","type":"uint256","internalType":"uint256"},{"name":"numVerifiers","type":"uint256","internalType":"uint256"},{"name":"inputFileURLs","type":"string[]","internalType":"string[]"},{"name":"operationFileURL","type":"string","internalType":"string"},{"name":"outputFileURLs","type":"string[]","internalType":"string[]"},{"name":"computationDeadline","type":"uint256","internalType":"uint256"},{"name":"verificationDeadline","type":"uint256","internalType":"uint256"},{"name":"totalPayment","type":"uint256","internalType":"uint256"},{"name":"completed","type":"bool","internalType":"bool"},{"name":"hasBeenComputed","type":"bool","internalType":"bool"},{"name":"numVerifiersSampleSize","type":"uint256","internalType":"uint256"},{"name":"verifiers","type":"address[]","internalType":"address[]"},{"name":"chosenVerifiers","type":"address[]","internalType":"address[]"},{"name":"mainProvider","type":"address","internalType":"address"},{"name":"timeAllocatedForVerification","type":"uint256","internalType":"uint256"},{"name":"layerCount","type":"uint256","internalType":"uint256"},{"name":"layerComputeIndex","type":"uint256","internalType":"uint256"},{"name":"verificationStartTime","type":"uint256","internalType":"uint256"},{"name":"commitEndTime","type":"uint256","internalType":"uint256"},{"name":"commitmentRevealEndTime","type":"uint256","internalType":"uint256"},{"name":"providerRevealEndTime","type":"uint256","internalType":"uint256"},{"name":"roundIndex","type":"uint256","internalType":"uint256"},{"name":"mainProviderAnswerHash","type":"bytes32","internalType":"bytes32"},{"name":"state","type":"uint8","internalType":"enum ComputationMarket.RequestStates"},{"name":"stake","type":"uint256","internalType":"uint256"},{"name":"paymentPerRoundForVerifiers","type":"uint256","internalType":"uint256"},{"name":"totalPaidForVerification","type":"uint256","internalType":"uint256"}]}],"stateMutability":"view"},{"type":"function","name":"getVerificationDetails","inputs":[{"name":"requestId","type":"uint256","internalType":"uint256"},{"name":"verifier","type":"address","internalType":"address"}],"outputs":[{"name":"","type":"tuple","internalType":"struct ComputationMarket.Verification","components":[{"name":"verifier","type":"address","internalType":"address"},{"name":"agree","type":"bool","internalType":"bool"},{"name":"answer","type":"bytes32","internalType":"bytes32"},{"name":"nonce","type":"bytes32","internalType":"bytes32"},{"name":"revealed","type":"bool","internalType":"bool"},{"name":"computedHash","type":"bytes32","internalType":"bytes32"}]}],"stateMutability":"view"},{"type":"function","name":"requestCount","inputs":[],"outputs":[{"name":"","type":"uint256","internalType":"uint256"}],"stateMutability":"view"},{"type":"function","name":"requests","inputs":[{"name":"","type":"uint256","internalType":"uint256"}],"outputs":[{"name":"consumer","type":"address","internalType":"address"},{"name":"paymentForProvider","type":"uint256","internalType":"uint256"},{"name":"totalPaymentForVerifiers","type":"uint256","internalType":"uint256"},{"name":"numOperations","type":"uint256","internalType":"uint256"},{"name":"numVerifiers","type":"uint256","internalType":"uint256"},{"name":"operationFileURL","type":"string","internalType":"string"},{"name":"computationDeadline","type":"uint256","internalType":"uint256"},{"name":"verificationDeadline","type":"uint256","internalType":"uint256"},{"name":"totalPayment","type":"uint256","internalType":"uint256"},{"name":"completed","type":"bool","internalType":"bool"},{"name":"hasBeenComputed","type":"bool","internalType":"bool"},{"name":"numVerifiersSampleSize","type":"uint256","internalType":"uint256"},{"name":"mainProvider","type":"address","internalType":"address"},{"name":"timeAllocatedForVerification","type":"uint256","internalType":"uint256"},{"name":"layerCount","type":"uint256","internalType":"uint256"},{"name":"layerComputeIndex","type":"uint256","internalType":"uint256"},{"name":"verificationStartTime","type":"uint256","internalType":"uint256"},{"name":"commitEndTime","type":"uint256","internalType":"uint256"},{"name":"commitmentRevealEndTime","type":"uint256","internalType":"uint256"},{"name":"providerRevealEndTime","type":"uint256","internalType":"uint256"},{"name":"roundIndex","type":"uint256","internalType":"uint256"},{"name":"mainProviderAnswerHash","type":"bytes32","internalType":"bytes32"},{"name":"state","type":"uint8","internalType":"enum ComputationMarket.RequestStates"},{"name":"stake","type":"uint256","internalType":"uint256"},{"name":"paymentPerRoundForVerifiers","type":"uint256","internalType":"uint256"},{"name":"totalPaidForVerification","type":"uint256","internalType":"uint256"}],"stateMutability":"view"},{"type":"function","name":"revealCommitment","inputs":[{"name":"requestId","type":"uint256","internalType":"uint256"},{"name":"agree","type":"bool","internalType":"bool"},{"name":"answer","type":"bytes32","internalType":"bytes32"},{"name":"nonce","type":"bytes32","internalType":"bytes32"}],"outputs":[],"stateMutability":"nonpayable"},{"type":"function","name":"revealProviderKeyAndHash","inputs":[{"name":"requestId","type":"uint256","internalType":"uint256"},{"name":"privateKey","type":"bytes32","internalType":"bytes32"},{"name":"answerHash","type":"bytes32","internalType":"bytes32"}],"outputs":[],"stateMutability":"nonpayable"},{"type":"function","name":"selectRequest","inputs":[{"name":"requestId","type":"uint256","internalType":"uint256"}],"outputs":[],"stateMutability":"nonpayable"},{"type":"function","name":"submitCommitment","inputs":[{"name":"requestId","type":"uint256","internalType":"uint256"},{"name":"computedHash","type":"bytes32","internalType":"bytes32"}],"outputs":[],"stateMutability":"nonpayable"},{"type":"function","name":"verificationDeadlinePassedForVeryfying","inputs":[{"name":"requestId","type":"uint256","internalType":"uint256"}],"outputs":[],"stateMutability":"nonpayable"},{"type":"function","name":"verifications","inputs":[{"name":"","type":"uint256","internalType":"uint256"},{"name":"","type":"address","internalType":"address"}],"outputs":[{"name":"verifier","type":"address","internalType":"address"},{"name":"agree","type":"bool","internalType":"bool"},{"name":"answer","type":"bytes32","internalType":"bytes32"},{"name":"nonce","type":"bytes32","internalType":"bytes32"},{"name":"revealed","type":"bool","internalType":"bool"},{"name":"computedHash","type":"bytes32","internalType":"bytes32"}],"stateMutability":"view"},{"type":"event","name":"CommitmentPhaseStarted","inputs":[{"name":"requestId","type":"uint256","indexed":true,"internalType":"uint256"},{"name":"startTime","type":"uint256","indexed":false,"internalType":"uint256"},{"name":"endTime","type":"uint256","indexed":false,"internalType":"uint256"},{"name":"layerComputeIndex","type":"uint256","indexed":false,"internalType":"uint256"}],"anonymous":false},{"type":"event","name":"CommitmentSubmitted","inputs":[{"name":"requestId","type":"uint256","indexed":true,"internalType":"uint256"},{"name":"verifier","type":"address","indexed":true,"internalType":"address"}],"anonymous":false},{"type":"event","name":"NoMajorityForRound","inputs":[{"name":"requestId","type":"uint256","indexed":true,"internalType":"uint256"},{"name":"layerComputeIndex","type":"uint256","indexed":false,"internalType":"uint256"}],"anonymous":false},{"type":"event","name":"ProviderResultSuccessfullyVerified","inputs":[{"name":"requestId","type":"uint256","indexed":true,"internalType":"uint256"}],"anonymous":false},{"type":"event","name":"ProviderResultUnsuccessful","inputs":[{"name":"requestId","type":"uint256","indexed":true,"internalType":"uint256"}],"anonymous":false},{"type":"event","name":"ProviderRevealed","inputs":[{"name":"requestId","type":"uint256","indexed":true,"internalType":"uint256"},{"name":"privateKey","type":"bytes32","indexed":false,"internalType":"bytes32"},{"name":"answerHash","type":"bytes32","indexed":false,"internalType":"bytes32"}],"anonymous":false},{"type":"event","name":"ProviderSelected","inputs":[{"name":"requestId","type":"uint256","indexed":true,"internalType":"uint256"},{"name":"provider","type":"address","indexed":true,"internalType":"address"}],"anonymous":false},{"type":"event","name":"ProviderSlashed","inputs":[{"name":"requestId","type":"uint256","indexed":true,"internalType":"uint256"},{"name":"provider","type":"address","indexed":true,"internalType":"address"}],"anonymous":false},{"type":"event","name":"RequestCompleted","inputs":[{"name":"requestId","type":"uint256","indexed":true,"internalType":"uint256"},{"name":"provider","type":"address","indexed":true,"internalType":"address"}],"anonymous":false},{"type":"event","name":"RequestCreated","inputs":[{"name":"requestId","type":"uint256","indexed":true,"internalType":"uint256"},{"name":"consumer","type":"address","indexed":true,"internalType":"address"}],"anonymous":false},{"type":"event","name":"RevealVerificationDetails","inputs":[{"name":"requestId","type":"uint256","indexed":true,"internalType":"uint256"},{"name":"endTime","type":"uint256","indexed":false,"internalType":"uint256"},{"name":"verifier","type":"address","indexed":true,"internalType":"address"}],"anonymous":false},{"type":"event","name":"RoundInitialised","inputs":[{"name":"requestId","type":"uint256","indexed":true,"internalType":"uint256"}],"anonymous":false},{"type":"event","name":"RoundRevealStarted","inputs":[{"name":"requestId","type":"uint256","indexed":true,"internalType":"uint256"}],"anonymous":false},{"type":"event","name":"RoundStartedForVerificationSelection","inputs":[{"name":"requestId","type":"uint256","indexed":true,"internalType":"uint256"},{"name":"layerComputeIndex","type":"uint256","indexed":false,"internalType":"uint256"}],"anonymous":false},{"type":"event","name":"VerificationApplied","inputs":[{"name":"requestId","type":"uint256","indexed":true,"internalType":"uint256"},{"name":"verifier","type":"address","indexed":true,"internalType":"address"}],"anonymous":false},{"type":"event","name":"VerifierChosen","inputs":[{"name":"requestId","type":"uint256","indexed":true,"internalType":"uint256"},{"name":"verifier","type":"address","indexed":true,"internalType":"address"}],"anonymous":false},{"type":"event","name":"VoteSubmitted","inputs":[{"name":"requestId","type":"uint256","indexed":true,"internalType":"uint256"},{"name":"verifier","type":"address","indexed":true,"internalType":"address"},{"name":"agree","type":"bool","indexed":false,"internalType":"bool"}],"anonymous":false},{"type":"event","name":"requestCancelled","inputs":[{"name":"requestId","type":"uint256","indexed":true,"internalType":"uint256"}],"anonymous":false}],"bytecode":{"object":"0x608034620000c657601f62003f0f38819003918201601f19168301916001600160401b03831184841017620000cb57808492602094604052833981010312620000c657516001600160a01b03811690819003620000c65780156200008157600080546001600160a01b031916919091179055604051613e2d9081620000e28239f35b60405162461bcd60e51b815260206004820152601560248201527f496e76616c696420746f6b656e206164647265737300000000000000000000006044820152606490fd5b600080fd5b634e487b7160e01b600052604160045260246000fdfe61024080604052600436101561001457600080fd5b60003560e01c90816304ae469b14612196575080630625f16114611eb45780633015394c14611e985780633e0fafef146111505780634da0d139146110d557806353e2ba17146110b95780635badbe4c1461109b5780635e16a9d81461107f5780636605dfa7146110565780636d8f9a0e1461103a57806381d12c5814610dda578063bfdb345114610ba4578063daf2a65a14610b86578063e03ad0d114610942578063e20fb7a114610777578063e6a3d9dc1461063c578063f34d4c63146101d05763f38f1047146100e657600080fd5b346101cb5760c06100f6366129ce565b90600060a060405161010781612870565b82815282602082015282604082015282606082015282608082015201526000526003602052604060002060018060a01b0380921660005260205260406000206040519061015382612870565b80549283169283835260ff602084019160a01c16151581526001820154604084019081526002830154916060850192835260a0600460ff6003870154169560808801961515875201549501948552604051958652511515602086015251604085015251606084015251151560808301525160a0820152f35b600080fd5b346101cb5760203660031901126101cb5760006103a06040516101f281612854565b828152826020820152826040820152826060820152826080820152606060a0820152606060c0820152606060e08201528261010082015282610120820152826101408201528261016082015282610180820152826101a082015260606101c082015260606101e08201528261020082015282610220820152826102408201528261026082015282610280820152826102a0820152826102c0820152826102e08201528261030082015282610320820152826103408201528261036082015282610380820152015260043560005260026020526040600020604051906102d682612854565b80546001600160a01b0316825260018101546020830152600281015460408301526003810154606083015260048101546080830152610317600582016139fb565b60a083015261032860068201612a2e565b60c0830152610339600782016139fb565b60e083015260088101546101008301526009810154610120830152600a81015461014083015260ff600b820154818116151561016085015260081c161515610180830152600c8101546101a0830152610394600d8201613a50565b6101c08301526103a6600e8201613a50565b6101e0830152600f8101546001600160a01b0316610200830152601081015461022083015260118101546102408301526012810154610260830152601381015461028083015260148101546102a083015260158101546102c083015260168101546102e083015260178101546103008301526018810154610320830152601981015460ff1690600982101561062657601c91610340840152601a810154610360840152601b81015461038084015201546103a082015260405180916020825260018060a01b038151166020830152602081015160408301526040810151606083015260608101516080830152608081015160a08301526103a061056f6105576104f36104dc6104c660a08701516103c060c08a01526103e0890190612b20565b60c0870151888203601f190160e08a0152612ad3565b60e0860151878203601f1901610100890152612b20565b610100850151610120870152610120850151610140870152610140850151610160870152610160850151151561018087015261018085015115156101a08701526101a08501516101c08701526101c0850151601f19878303016101e0880152612b7d565b6101e0840151858203601f1901610200870152612b7d565b9160018060a01b03610200820151166102208501526102208101516102408501526102408101516102608501526102608101516102808501526102808101516102a08501526102a08101516102c08501526102c08101516102e08501526102e0810151610300850152610300810151610320850152610320810151610340850152610604610340820151610360860190612b13565b6103608101516103808501526103808101518285015201516103c08301520390f35b634e487b7160e01b600052602160045260246000fd5b346101cb5760403660031901126101cb57600435806000526002602052604060002060ff601982015416600981101561062657600303610726576014015442116106e85761069261068d3383613cb4565b613755565b8060005260036020526040600020336000526020526003604060002060243560048201550160ff19815416905533907f22d30f6da93667100b64d15e5ea70afec217caeab1008706f57bfa4deed12c63600080a3005b60405162461bcd60e51b815260206004820152601660248201527510dbdb5b5a5d1b595b9d081c1a185cd948195b99195960521b6044820152606490fd5b60405162461bcd60e51b815260206004820152602360248201527f52657175657374206e6f742079657420696e20636f6d6d69746d656e7420737460448201526261746560e81b6064820152608490fd5b346101cb5760603660031901126101cb576004356000818152600260205260409020600f810154604435906001600160a01b031633036108e257601482015442111561089d576016820154421161085857604051916020830191808352600160408501526040845260608401918483106001600160401b03841117610842577f4b8ecdcde49a7d4d879a4bf5a6cc37c7086e65774f161d4bf99c01aaa1882f8994601960809260409686885283519020601882015501600460ff1982541617905560243584520152a2005b634e487b7160e01b600052604160045260246000fd5b60405162461bcd60e51b815260206004820152601b60248201527f50726f76696465722072657665616c20706861736520656e64656400000000006044820152606490fd5b60405162461bcd60e51b815260206004820152601a60248201527f436f6d6d69746d656e74207068617365206e6f7420656e6465640000000000006044820152606490fd5b60405162461bcd60e51b815260206004820152603260248201527f4f6e6c7920746865206d61696e2070726f76696465722063616e2072657665616044820152710d840e8d0ca40d6caf240c2dcc840d0c2e6d60731b6064820152608490fd5b346101cb576020806003193601126101cb5760043590816000526002815260406000206109756008820154421115612c45565b600f810180546001600160a01b0393908416610b4257601a830154600054604051636eb1769f60e11b8152336004820152306024820152919516908281604481855afa908115610ad857600091610b15575b506040516370a0823160e01b8152336004820152908382602481865afa918215610ad857600092610ae4575b509186610a1481610a4494610a0d60009b89981015612f7c565b1015612f7c565b6040516323b872dd60e01b8152336004820152306024820152604481019190915296879283919082906064820190565b03925af18015610ad857601994610a6492600092610aab575b5050612f7c565b336001600160601b0360a01b82541617905501600160ff1982541617905533907f3c84569ae9be7c8e6e8edf0c0cbeb7e00cf9cb4d9b67849728be8ab96e09bec1600080a3005b610aca9250803d10610ad1575b610ac281836128c1565b810190612cbb565b8680610a5d565b503d610ab8565b6040513d6000823e3d90fd5b9150918382813d8311610b0e575b610afc81836128c1565b810103126101cb5790519091866109f3565b503d610af2565b90508281813d8311610b3b575b610b2c81836128c1565b810103126101cb5751876109c7565b503d610b22565b6064906040519062461bcd60e51b82526004820152601960248201527f50726f766964657220616c72656164792073656c6563746564000000000000006044820152fd5b346101cb5760203660031901126101cb57610ba26004356137ae565b005b346101cb5760803660031901126101cb57600435602435908115158092036101cb57604435916064359082600052602093600285526040600020916016830154421115610d955760158301544211610d5b57610c0361068d3387613cb4565b846000526003865260406000203360005286526040600020916003830180549560ff8716610d16576040518981019085825284604082015282606082015233608082015260808152610c54816128a6565b519020600486015403610cd9579160059593918593601996549260018601556002850155600160ff19809916179055339160ff60a01b9060a01b16906affffffffffffffffffffff60a81b161717905501918254161790557fb59f6416758d4763386b2c83d12c7c643131c90beff0caea486f303510702ce3604051924284523393a3005b60405162461bcd60e51b8152600481018a90526015602482015274496e76616c69642072657665616c2076616c75657360581b6044820152606490fd5b60405162461bcd60e51b8152600481018a9052601b60248201527f436f6d6d69746d656e7420616c72656164792072657665616c656400000000006044820152606490fd5b60405162461bcd60e51b815260048101879052601260248201527114995d99585b081c1a185cd948195b99195960721b6044820152606490fd5b60405162461bcd60e51b815260048101879052601f60248201527f50726f76696465722072657665616c207068617365206e6f7420656e646564006044820152606490fd5b346101cb5760203660031901126101cb57600435600052600260205260406000206102205260018060a01b03610220515416600161022051015460026102205101546101405260036102205101546101605260046102205101546101a052610e4760066102205101612a2e565b91600861022051015461012052600961022051015492600a610220510154600b610220510154600c61022051015460018060a01b03600f610220510154169060ff601061022051015493601161022051015495610f5f60126102205101549860136102205101549a60146102205101549c6015610220510154608052601661022051015460a052601761022051015460e052601861022051015461020052866019610220510154166101e052601a6102205101546101c052601b61022051015461018052601c6102205101546101005260405160c0526103409160c05152602060c051015261014051604060c051015261016051606060c05101526101a051608060c05101528060a060c051015260c0510190612ad3565b9a6101205160c08051015260e060c051015261010060c0510152818116151561012060c051015260081c16151561014060c051015261016060c051015261018060c05101526101a060c05101526101c060c05101526101e060c051015261020060c051015261022060c051015260805161024060c051015260a05161026060c051015260e05161028060c0510152610200516102a060c051015261100c6102c060c051016101e051612b13565b6101c0516102e060c05101526101805161030060c05101526101005161032060c051015260c051900360c051f35b346101cb5760203660031901126101cb57610ba2600435612fbd565b346101cb5760003660031901126101cb576000546040516001600160a01b039091168152602090f35b346101cb5760003660031901126101cb576020604051600a8152f35b346101cb5760003660031901126101cb576020600154604051908152f35b346101cb5760003660031901126101cb57602060405160038152f35b346101cb5760c06110e5366129ce565b906000526003602052604060002060018060a01b038092166000526020526040600020805490600181015460028201549060ff60048160038601541694015494604051968116875260a01c1615156020860152604085015260608401521515608083015260a0820152f35b346101cb576101403660031901126101cb5760446084356001600160401b0381116101cb5761118390369060040161294f565b9060a4356001600160401b0381116101cb576111a39036906004016128f9565b916103e78235019081833511611bfe576111cf6103e883046111ca61012435602435612c91565b612c91565b936111dc85600435612bba565b600360643510611e54576001806064351603611e1057600054604051636eb1769f60e11b81523360048201523060248201526001600160a01b0390911690602081604481855afa908115610ad857600091611dde575b506040516370a0823160e01b8152336004820152602081602481865afa8015610ad8578491600091611da7575b5061126f82611276941015612f3f565b1015612f3f565b6040516323b872dd60e01b81523360048201523060248201526044810183905290602090829060649082906000905af18015610ad8576112be91600091611d88575b50612f3f565b4260c4351115611d1e5761010435600361010435020460031461010435151715611bfe576113016112f9600361010435026103e88704612c91565b60c435612bba565b60e4351115611ca4576101243560643510611c14576040516113228161288b565b6000815261133260c43542612bba565b61133e60e43542612bba565b916040519461134c8661288b565b600086526040519661135d8861288b565b60008852600435600a6004350204600a14600435151715611bfe576103e8996040519b6113898d612854565b338d528c602060043591015260408d01523560608c015260643560808c015260a08b015260c08a015260e089015261010088015261012087015261014086015260006101608601526000610180860152610124356101a08601526101c08501526101e0840152600061020084015261010435610220840152046102408201526000610260820152600061028082015260006102a082015260006102c082015260006102e08201526000610300820152600061032082015260006103408201526064600a600435020461036082015260243561038082015260006103a08201526001546000526002602052604060002060018060a01b038251166001600160601b0360a01b8254161781556020820151600182015560408201516002820155606082015160038201556080820151600482015560a0820151805190600160401b8211610842576005830154826005850155808310611b85575b5060200190600583016000526020600020916000905b828210611a6c57858560c08201519182516001600160401b0381116108425761152360068401546129f4565b601f8111611a37575b506020601f82116001146119c957819061155f9394956000926119be575b50508160011b916000199060031b1c19161790565b60068301555b60e0810151805190600160401b8211610842576007840154826007860155808310611946575b5060200190600784016000526020600020916000905b82821061182057858561010081015160088301556101208101516009830155610140810151600a830155600b82016101608201511515815460ff61ff00610180860151151560081b1692169061ffff1916171790556101a0810151600c8301556101c08101518051906001600160401b03821161084257600160401b821161084257602090600d85015483600d870155808410611800575b5001600d8401600052602060002060005b8381106117e35785856101e08101518051906001600160401b03821161084257600160401b821161084257602090600e85015483600e8701558084106117c3575b5001600e8401600052602060002060005b8381106117a6578585600f820160018060a01b03610200830151166001600160601b0360a01b82541617905561022081015160108301556102408101516011830155610260810151601283015561028081015160138301556102a081015160148301556102c081015160158301556102e0810151601683015561030081015160178301556103208101516018830155601982019061034081015190600982101561062657601c926103a09260ff80198354169116179055610360810151601a850155610380810151601b8501550151910155611779600154612bf5565b8060015533907f233bb55fd57b21b8a3d15c9ad8fbbab435fe4cf2865cc654f6a57d9d4d8cda54600080a3005b82516001600160a01b03168183015560209092019160010161169c565b6117dd90600e870160005284846000209182019101612ca4565b8561168b565b82516001600160a01b03168183015560209092019160010161164a565b61181a90600d870160005284846000209182019101612ca4565b85611639565b80518051906001600160401b0382116108425761183d86546129f4565b601f8111611909575b50602090601f8311600114611899579261187f8360019594602094879660009261188e5750508160011b916000199060031b1c19161790565b87555b019401910190926115a1565b015190508c8061154a565b908660005260206000209160005b601f19851681106118f1575083602093600196938796938794601f198116106118d8575b505050811b018755611882565b015160001960f88460031b161c191690558b80806118cb565b919260206001819286850151815501940192016118a7565b61193690876000526020600020601f850160051c8101916020861061193c575b601f0160051c0190612ca4565b88611846565b9091508190611929565b600785016000526020600020908382015b818301811061196757505061158b565b80611974600192546129f4565b80611981575b5001611957565b601f811183146119975750600081555b8861197a565b6000908282526119b5601f60208420920160051c8201858301612ca4565b81835555611991565b01519050858061154a565b6006840160005260206000209060005b601f1984168110611a1f5750600193949583601f19811610611a06575b505050811b016006830155611565565b015160001960f88460031b161c191690558480806119f6565b9091602060018192858a0151815501930191016119d9565b611a6690600685016000526020600020601f840160051c8101916020851061193c57601f0160051c0190612ca4565b8461152c565b80518051906001600160401b03821161084257611a8986546129f4565b90601f91828111611b4b575b506020918311600114611adb5792611acc8360019594602094879660009261188e5750508160011b916000199060031b1c19161790565b87555b019401910190926114f7565b908660005260206000209160005b601f1985168110611b33575083602093600196938796938794601f19811610611b1a575b505050811b018755611acf565b015160001960f88460031b161c191690558b8080611b0d565b91926020600181928685015181550194019201611ae9565b611b76908860005260206000208480870160051c82019260208810611b7c575b0160051c0190612ca4565b89611a95565b92508192611b6b565b600584016000526020600020908382015b8183018110611ba65750506114e1565b80611bb3600192546129f4565b80611bc0575b5001611b96565b601f908181118414611bd9575050600081555b88611bb9565b611bf560009284845260208420920160051c8201858301612ca4565b81835555611bd3565b634e487b7160e01b600052601160045260246000fd5b60405162461bcd60e51b815260206004820152605d60248201527f4e6f7420656e6f7567682076657269666965727320746f2063686f6f73652066818701527f726f6d2e206e756d566572696669657273206d7573742062652067726561746560648201527f72207468616e206e756d56657269666965727353616d706c6553697a65000000608482015260a490fd5b60405162461bcd60e51b815260206004820152604760248201527f566572696669636174696f6e20646561646c696e65206d757374206265207375818701527f6666696369656e7420656e6f75676820666f7220616c6c20726f756e64732072606482015266195c5d5a5c995960ca1b608482015260a490fd5b60405162461bcd60e51b815260206004820152603c60248201527f436f6d7075746174696f6e616c20646561646c696e65206d7573742062652067818701527f726561746572207468616e207468652063757272656e742074696d65000000006064820152608490fd5b611da1915060203d602011610ad157610ac281836128c1565b886112b8565b9150506020813d602011611dd6575b81611dc3602093836128c1565b810103126101cb5751839061126f61125f565b3d9150611db6565b90506020813d602011611e08575b81611df9602093836128c1565b810103126101cb575188611232565b3d9150611dec565b60405162461bcd60e51b815260206004820152601f60248201527f4e756d626572206f6620766572696669657273206d757374206265206f64640081870152606490fd5b60405162461bcd60e51b815260206004820152601d60248201527f4174206c6561737420332076657269666965727320726571756972656400000081870152606490fd5b346101cb5760203660031901126101cb57610ba2600435612cd3565b346101cb5760403660031901126101cb5760246004356001600160401b0382358181116101cb57611ee990369060040161294f565b9082600052602090600282526040600020611f0a6008820154421115612c45565b600f8101546001600160a01b0316330361213f5780600b6007920161010061ff00198254161790550190835193600160401b851161084257839083548685558087106120c5575b506000938452848420939791015b858810611f9657610ba28733817f1d961eb7779cdf87f83b3c5ca1e5a7b0b7832f5fc1f9b813fea6787daf0e884c600080a3613af6565b80518051908482116120b05790869291611fb087546129f4565b90601f91828111612078575b508491831160011461200a578260019593869593611ff093600092611fff5750508160011b916000199060031b1c19161790565b87555b01940197019692611f5f565b015190508e8061154a565b90601f9493941983169188600052846000209260005b8181106120605750916001969391858897969410612047575b505050831b83018755611ff3565b015160001960f88460031b161c191690558c8080612039565b8284015185558b966001909501949384019301612020565b6120a1908960005286600020600585808801821c8301938a89106120a7575b01901c0190612ca4565b8c611fbc565b93508293612097565b83634e487b7160e01b60005260416004526000fd5b84600052868360002091820191015b8181106120e15750611f51565b6001919293506120f181546129f4565b80612102575b5001908592916120d4565b601f90818111841461211b575050600081555b8a6120f7565b6121366000928484528a8420920160051c8201858301612ca4565b81835555612115565b60405162461bcd60e51b815260048101849052602960248201527f4f6e6c792063686f73656e2070726f76696465722063616e20636f6d706c657460448201526819481c995c5d595cdd60ba1b6064820152608490fd5b346101cb5760203660031901126101cb57600435600052600260205260406000209060158201544210612803575060ff9060ff6019820154166009811015610626576005036127a157600090600090600192601782015460018101809111611bfe576017830155600c82019360005b85548110156123d857600435600052600380602052604060002061222c83600e8801612bc7565b60018060a01b03915490841b1c166000526020528760406000209182015416612259575b50600101612205565b600181015488825460a01c1660405191602083015215156040820152604081528060608101106001600160401b03606083011117610842578060606123199201604052602081519101209160043560005260046020526040600020836000526020526040600020601788015460005260205260406000206122da8154612bf5565b905560043560005260056020526040600020836000526020526040600020601788015460005260205260406000209060018060a01b0390541690612c04565b60043560005260046020526040600020816000526020526040600020601786015490816000526020528660406000205414600014612361575050905060016000915b90612250565b6004356000526004602052604060002082600052602052604060002081600052602052866040600020541161239b575b505060019061235b565b9250945091506001906004356000526004602052604060002085600052602052604060002090600052602052600160406000205494929088612391565b50156126a35760043560005260026020526040600020600560205260406000208260005260205260406000206017820154600052602052604060002090601b81015491612429600c83015484612c91565b815490811561268d570490601c830160005b82548110156124fa576124586124518786612bba565b8354612bba565b82556000546001600160a01b0390811691906020906124778387612bc7565b94905460006124868c8b612bba565b966124c16040519889968795869463a9059cbb60e01b865260031b1c166004840160209093929193604081019460018060a01b031681520152565b03925af1918215610ad8576001926124db575b500161243b565b6124f39060203d602011610ad157610ac281836128c1565b50886124d4565b505050506018915001541460043560005260026020526040600020601281019182549061252d6011840192835411613aaa565b1561258957825490546000198101908111611bfe578110156125625750506125558154612bf5565b9055610ba2600435613af6565b9161256e601993612bf5565b905561257b600435613d0a565b01805460ff19166006179055005b50505060043560005260026020526040600020612616602060018060a01b03806000541690845416906125e16125d66125cb6001880154601a89015490612bba565b600288015490612bba565b601c870154906137a1565b60405163a9059cbb60e01b81526001600160a01b03909316600484015260248301529092839190829060009082906044820190565b03925af18015610ad85761266e575b5060076019600b83019260ff199360018582541617905501918254161790556004357f6d55d799468c2d702d8ff65d462b4e8dbbc88c728431aee69b205a3964362f07600080a2005b6126869060203d602011610ad157610ac281836128c1565b5081612625565b634e487b7160e01b600052601260045260246000fd5b5060043560005260026020526040600020600090600e8101601b8201925b8154811015612760576000546001600160a01b0390811691906020906126e78386612bc7565b9054885460405163a9059cbb60e01b815260039390931b9190911c929092166001600160a01b031660048201526024810191909152928390816000816044810103925af1918215610ad857600192612741575b50016126c1565b6127599060203d602011610ad157610ac281836128c1565b508561273a565b50506012915001546040519081527fea43ae306415066aa09d5402571eb6506530e7a6011f5d797c85825dd9a6ef54602060043592a2610ba2600435613af6565b60405162461bcd60e51b815260206004820152603460248201527f52657175657374206e6f7420696e20636f727265637420737461746520666f726044820152732063616c63756c6174696e67207265776172647360601b6064820152608490fd5b62461bcd60e51b815260206004820152602660248201527f636f6d6d69746d656e7420737461676520686173206e6f742079657420636f6d6044820152651c1b195d195960d21b6064820152608490fd5b6103c081019081106001600160401b0382111761084257604052565b60c081019081106001600160401b0382111761084257604052565b602081019081106001600160401b0382111761084257604052565b60a081019081106001600160401b0382111761084257604052565b90601f801991011681019081106001600160401b0382111761084257604052565b6001600160401b0381116108425760051b60200190565b81601f820112156101cb578035906001600160401b038211610842576040519261292d601f8401601f1916602001856128c1565b828452602083830101116101cb57816000926020809301838601378301015290565b81601f820112156101cb57803591602091612969846128e2565b9361297760405195866128c1565b808552838086019160051b830101928084116101cb57848301915b8483106129a25750505050505090565b82356001600160401b0381116101cb5786916129c3848480948901016128f9565b815201920191612992565b60409060031901126101cb57600435906024356001600160a01b03811681036101cb5790565b90600182811c92168015612a24575b6020831014612a0e57565b634e487b7160e01b600052602260045260246000fd5b91607f1691612a03565b90604051918260008254612a41816129f4565b90818452602094600191600181169081600014612ab15750600114612a72575b505050612a70925003836128c1565b565b600090815285812095935091905b818310612a99575050612a709350820101388080612a61565b85548884018501529485019487945091830191612a80565b92505050612a7094925060ff191682840152151560051b820101388080612a61565b919082519283825260005b848110612aff575050826000602080949584010152601f8019910116010190565b602081830181015184830182015201612ade565b9060098210156106265752565b90808251908181526020809101926020808460051b8301019501936000915b848310612b4f5750505050505090565b9091929394958480612b6d600193601f198682030187528a51612ad3565b9801930193019194939290612b3f565b90815180825260208080930193019160005b828110612b9d575050505090565b83516001600160a01b031685529381019392810192600101612b8f565b91908201809211611bfe57565b8054821015612bdf5760005260206000200190600090565b634e487b7160e01b600052603260045260246000fd5b6000198114611bfe5760010190565b90815491600160401b8310156108425782612c27916001612a7095018155612bc7565b90919060018060a01b038084549260031b9316831b921b1916179055565b15612c4c57565b60405162461bcd60e51b815260206004820152601b60248201527f436f6d7075746174696f6e20646561646c696e652070617373656400000000006044820152606490fd5b81810292918115918404141715611bfe57565b818110612caf575050565b60008155600101612ca4565b908160209103126101cb575180151581036101cb5790565b600081815260026020908152604080832080546001600160a01b039081169391929033859003612ee557600b84019460ff865416612ea157839082600f8701541615612e675750506008840154421180612e58575b15612dfe579082612d8092612d46600a870154601a88015490612bba565b90808954169087541689855180978195829463a9059cbb60e01b84526004840160209093929193604081019460018060a01b031681520152565b03925af1908115612df55750926008926019927f1523a7600668f21efd095a2e4b78dc32da863f11b5b54ed0043034aeefd6442c979695612dd7575b505060ff1993600185825416179055019182541617905580a2565b81612ded92903d10610ad157610ac281836128c1565b503880612dbc565b513d87823e3d90fd5b815162461bcd60e51b815260048101849052602d60248201527f436f6d7075746174696f6e20646561646c696e6520686173206e6f742079657460448201526c081899595b881c995858da1959609a1b6064820152608490fd5b5060ff855460081c1615612d28565b8754600a870154855163a9059cbb60e01b81526001600160a01b039093166004840152602483015290939284911681898160448101612d80565b825162461bcd60e51b815260048101859052601960248201527f5265717565737420616c726561647920636f6d706c65746564000000000000006044820152606490fd5b815162461bcd60e51b8152600481018490526024808201527f4f6e6c792074686520636f6e73756d65722063616e2077697468647261772066604482015263756e647360e01b6064820152608490fd5b811561268d570690565b15612f4657565b60405162461bcd60e51b815260206004820152600e60248201526d14185e5b595b9d0819985a5b195960921b6044820152606490fd5b15612f8357565b60405162461bcd60e51b8152602060048201526012602482015271496e73756666696369656e74207374616b6560701b6044820152606490fd5b80600052600260205260406000209060ff600b83015460081c161561371057600f8201546001600160a01b031633146136af57600d820190815460048401908154111561367157600054604051636eb1769f60e11b81523360048201523060248201526001600160a01b0390911690602081604481855afa908115610ad85760009161363f575b506040516370a0823160e01b8152336004820152602081602481865afa908115610ad85760009161360c575b50600092610a0d6130916020946130c194601b8c0154938480931015612f7c565b6040516323b872dd60e01b8152336004820152306024820152604481019190915293849283919082906064820190565b03925af18015610ad8576130dd916000916135ed575b50612f7c565b6130e73383613c41565b6135a85760106009850154940154936003948086029086820403611bfe5761310f9042612bba565b101561359b5761311f3384612c04565b6040519233837f660dbb250d8df8b80242049410e015bda88628ca9994256731c0c9e879fbed7f600080a35490541461315757505050565b8060009492939452600260205260406000209260ff600b85015460081c161561354f5750600d830154600c8401548082106134fe5761319990829594956137a1565b906131a3826128e2565b906131b160405192836128c1565b828252601f196131c0846128e2565b0136602084013760009060603360601b925b8581106134b0575050505060005b82811061337c57505050600091600e8101925b600c820154811015613252578061320f600192600d8501612bc7565b838060a01b03915490891b1c166132268187612c04565b847fe74b92fa3513e730f6b115620841d966b7cd25a13c613ebe544861f2a0173160600080a3016131f3565b50509050919091806000526002602052604060002060128101549161327c60118301548410613aaa565b60098201546010830154908186028681048303611bfe5761329d9042612bba565b101561331d5760607f27e90e135bb91bf6706a23381e6d0d480f8bb7d002d6e9a197b432b7b654245f916019954260138701556132f96132dd8342612bba565b928360148901556132ee8185612bba565b8060168a0155612bba565b60158701556040519142835260208301526040820152a2019060ff19825416179055565b60405162461bcd60e51b815260206004820152603160248201527f566572696669636174696f6e20446561646c696e652068617320706173736564604482015270081d1bc81cdd185c9d0818481c9bdd5b99607a1b6064820152608490fd5b6133898183979697613ca0565b51906133a4600d8801549261339e83856137a1565b90612f35565b6133b181600d8a01612bc7565b9054908a1b1c6001600160a01b03169260001991828201918211611bfe57612c278b6133ed8c600d6133e689613405986137a1565b9101612bc7565b9054911b1c6001600160a01b031691600d8c01612bc7565b600d880154908101908111611bfe578261343461347494612c2761342b866020966137a1565b600d8d01612bc7565b60008054601b8b015460405163a9059cbb60e01b81526001600160a01b039485166004820152602481019190915295869390911691839182906044820190565b03925af1918215610ad857600192613491575b50019493946131e0565b6134a99060203d602011610ad157610ac281836128c1565b5038613487565b6001906134ea8460409b9a9b51602081019042825244604082015288878201526074858183015281526134e2816128a6565b519020612f35565b6134f48288613ca0565b52019796976131d2565b60405162461bcd60e51b815260206004820152602360248201527f4e6f7420656e6f7567682076657269666965727320746f2063686f6f73652066604482015262726f6d60e81b6064820152608490fd5b62461bcd60e51b815260206004820152602160248201527f5265717565737420686173206e6f74206265656e20636f6d70757465642079656044820152601d60fa1b6064820152608490fd5b509050612a7091506137ae565b60405162461bcd60e51b815260206004820152601860248201527f566572696669657220616c7265616479206170706c69656400000000000000006044820152606490fd5b613606915060203d602011610ad157610ac281836128c1565b386130d7565b90506020813d602011613637575b81613627602093836128c1565b810103126101cb57516000613070565b3d915061361a565b90506020813d602011613669575b8161365a602093836128c1565b810103126101cb575138613044565b3d915061364d565b60405162461bcd60e51b815260206004820152601660248201527515995c9a599a595c881b1a5b5a5d081c995858da195960521b6044820152606490fd5b60405162461bcd60e51b815260206004820152603360248201527f546865206d61696e2070726f76696465722063616e6e6f74206170706c79207460448201527237903132b1b7b6b29030903b32b934b334b2b960691b6064820152608490fd5b60405162461bcd60e51b815260206004820152601860248201527f52657175657374206e6f742079657420636f6d707574656400000000000000006044820152606490fd5b1561375c57565b60405162461bcd60e51b815260206004820152601d60248201527f596f7520617265206e6f7420612063686f73656e2076657269666965720000006044820152606490fd5b91908203918211611bfe57565b906000918083526020906002825260409060408520936009850154601086015490600391806003029060038204036139e7576137ea9042612bba565b11156139915760ff601987015416600981101561397d57600203613924579094601b81019190600d01875b8154808210156139115760001981018181116138fd576138358185612bc7565b90546001600160a01b0391871b1c811692909190156138e9579189918361385f6138a79588612bc7565b8154908a1b84901b1916905586558c5488548b5163a9059cbb60e01b81526001600160a01b0390941660048501526024840152919384929091169082908e9082906044820190565b03925af180156138df5790600192916138c2575b5001613815565b6138d890893d8b11610ad157610ac281836128c1565b50386138bb565b87513d8c823e3d90fd5b634e487b7160e01b8c52603160045260248cfd5b634e487b7160e01b8b52601160045260248bfd5b5050505050915050612a70919250613d0a565b60405162461bcd60e51b815260048101869052602b60248201527f52657175657374206d75737420626520696e2063686f6f73696e67207665726960448201526a666965727320737461746560a81b6064820152608490fd5b634e487b7160e01b88526021600452602488fd5b60405162461bcd60e51b815260048101869052602860248201527f566572696669636174696f6e20646561646c696e6520686173206e6f742079656044820152671d081c185cdcd95960c21b6064820152608490fd5b634e487b7160e01b89526011600452602489fd5b908154613a07816128e2565b92613a1560405194856128c1565b818452600090815260208082208186015b848410613a34575050505050565b6001838192613a4285612a2e565b815201920193019290613a26565b90604051918281549182825260209260208301916000526020600020936000905b828210613a8757505050612a70925003836128c1565b85546001600160a01b031684526001958601958895509381019390910190613a71565b15613ab157565b60405162461bcd60e51b815260206004820152601e60248201527f416c6c206c61796572732068617665206265656e2070726f63657373656400006044820152606490fd5b6000818152600260205260408120600f8101546001600160a01b031615613bec578160126020927f7cdb7f0bd04877caf5dda7a202130926cdd67ad312dada203661ff6d8806843494604051613b4b8161288b565b52600d8101805484825580613bd4575b50835282604051613b6b8161288b565b52600e8101805484825580613bbc575b50835260198101600260ff19825416179055857f2d4e685f9af8cf88fb3e3447f1ee8e4e5e68423a2c393dc8d6e9784aa67ddafa6040519480a201548152a2565b818552858520613bce91810190612ca4565b38613b7b565b818552858520613be691810190612ca4565b38613b5b565b60405162461bcd60e51b815260206004820152602760248201527f4d61696e2070726f766964657220686173206e6f7420796574206265656e2073604482015266195b1958dd195960ca1b6064820152608490fd5b6000526002602052604060002090600d600092018054925b838110613c695750505050600090565b613c738183612bc7565b905460039190911b1c6001600160a01b0390811690841614613c9757600101613c59565b50505050600190565b8051821015612bdf5760209160051b010190565b6000526002602052604060002090600e600092018054925b838110613cdc5750505050600090565b613ce68183612bc7565b905460039190911b1c6001600160a01b0390811690841614613c9757600101613ccc565b60008181526002602052613d9560206040832060198101600660ff1980835416906001600b86019182541617905517905560018060a01b03613d618186541691600f84015416926001601a82015491015490612bba565b60405163a9059cbb60e01b81526001600160a01b039093166004840152602483015290928391908290869082906044820190565b03925af18015613dec57907f953601eba1acf6d4769af39f3986a5be6acd796655930c93832c2f239fbccabf9291613dcd575b5080a2565b613de59060203d602011610ad157610ac281836128c1565b5038613dc8565b6040513d84823e3d90fdfea264697066735822122053577011d8d367e57fb07fd22045173ea325ee931208873fdc4a7bdd1692c4b764736f6c63430008170033","linkReferences":{}},"methodIdentifiers":{"MIN_VERIFIERS()":"53e2ba17","PROVIDER_STAKE_PERCENTAGE()":"5e16a9d8","applyForVerificationForRequest(uint256)":"6d8f9a0e","calculateMajorityAndReward(uint256)":"04ae469b","cancelRequest(uint256)":"3015394c","compToken()":"6605dfa7","completeRequest(uint256,string[])":"0625f161","createRequest(uint256,uint256,uint256,uint256,string[],string,uint256,uint256,uint256,uint256)":"3e0fafef","getRequestDetails(uint256)":"f34d4c63","getVerificationDetails(uint256,address)":"f38f1047","requestCount()":"5badbe4c","requests(uint256)":"81d12c58","revealCommitment(uint256,bool,bytes32,bytes32)":"bfdb3451","revealProviderKeyAndHash(uint256,bytes32,bytes32)":"e20fb7a1","selectRequest(uint256)":"e03ad0d1","submitCommitment(uint256,bytes32)":"e6a3d9dc","verificationDeadlinePassedForVeryfying(uint256)":"daf2a65a","verifications(uint256,address)":"4da0d139"},"id":0}