{"abi":[{"type":"constructor","inputs":[{"name":"compTokenAddress","type":"address","internalType":"address"}],"stateMutability":"nonpayable"},{"type":"function","name":"MIN_VERIFIERS","inputs":[],"outputs":[{"name":"","type":"uint256","internalType":"uint256"}],"stateMutability":"view"},{"type":"function","name":"PROVIDER_STAKE_PERCENTAGE","inputs":[],"outputs":[{"name":"","type":"uint256","internalType":"uint256"}],"stateMutability":"view"},{"type":"function","name":"alertVerifiersOfCompletedRequest","inputs":[{"name":"requestId","type":"uint256","internalType":"uint256"}],"outputs":[],"stateMutability":"nonpayable"},{"type":"function","name":"applyForVerificationForRequest","inputs":[{"name":"requestId","type":"uint256","internalType":"uint256"}],"outputs":[],"stateMutability":"nonpayable"},{"type":"function","name":"calculateMajorityAndReward","inputs":[{"name":"requestId","type":"uint256","internalType":"uint256"},{"name":"roundNum","type":"uint256","internalType":"uint256"}],"outputs":[],"stateMutability":"nonpayable"},{"type":"function","name":"cancelRequest","inputs":[{"name":"requestId","type":"uint256","internalType":"uint256"}],"outputs":[],"stateMutability":"nonpayable"},{"type":"function","name":"chooseVerifiersForRequestTrigger","inputs":[{"name":"requestId","type":"uint256","internalType":"uint256"}],"outputs":[],"stateMutability":"nonpayable"},{"type":"function","name":"compToken","inputs":[],"outputs":[{"name":"","type":"address","internalType":"contract IERC20"}],"stateMutability":"view"},{"type":"function","name":"completeRequest","inputs":[{"name":"requestId","type":"uint256","internalType":"uint256"},{"name":"outputFileURLs","type":"string[]","internalType":"string[]"}],"outputs":[],"stateMutability":"nonpayable"},{"type":"function","name":"createRequest","inputs":[{"name":"paymentForProvider","type":"uint256","internalType":"uint256"},{"name":"paymentPerRoundForVerifiers","type":"uint256","internalType":"uint256"},{"name":"numOperations","type":"uint256","internalType":"uint256"},{"name":"numVerifiers","type":"uint256","internalType":"uint256"},{"name":"inputFileURLs","type":"string[]","internalType":"string[]"},{"name":"operationFileURL","type":"string","internalType":"string"},{"name":"computationDeadline","type":"uint256","internalType":"uint256"},{"name":"verificationDeadline","type":"uint256","internalType":"uint256"},{"name":"timeAllocatedForVerification","type":"uint256","internalType":"uint256"},{"name":"numVerifiersSampleSize","type":"uint256","internalType":"uint256"},{"name":"protocolVersion","type":"uint256","internalType":"uint256"},{"name":"layerSize","type":"uint256","internalType":"uint256"}],"outputs":[],"stateMutability":"nonpayable"},{"type":"function","name":"getRequestDetails","inputs":[{"name":"requestId","type":"uint256","internalType":"uint256"}],"outputs":[{"name":"","type":"tuple","internalType":"struct ComputationMarket.Request","components":[{"name":"consumer","type":"address","internalType":"address"},{"name":"paymentForProvider","type":"uint256","internalType":"uint256"},{"name":"totalPaymentForVerifiers","type":"uint256","internalType":"uint256"},{"name":"numOperations","type":"uint256","internalType":"uint256"},{"name":"numVerifiers","type":"uint256","internalType":"uint256"},{"name":"inputFileURLs","type":"string[]","internalType":"string[]"},{"name":"operationFileURL","type":"string","internalType":"string"},{"name":"outputFileURLs","type":"string[]","internalType":"string[]"},{"name":"computationDeadline","type":"uint256","internalType":"uint256"},{"name":"verificationDeadline","type":"uint256","internalType":"uint256"},{"name":"totalPayment","type":"uint256","internalType":"uint256"},{"name":"completed","type":"bool","internalType":"bool"},{"name":"hasBeenComputed","type":"bool","internalType":"bool"},{"name":"numVerifiersSampleSize","type":"uint256","internalType":"uint256"},{"name":"verifiers","type":"address[]","internalType":"address[]"},{"name":"chosenVerifiers","type":"address[]","internalType":"address[]"},{"name":"mainProvider","type":"address","internalType":"address"},{"name":"timeAllocatedForVerification","type":"uint256","internalType":"uint256"},{"name":"layerCount","type":"uint256","internalType":"uint256"},{"name":"layerComputeIndex","type":"uint256","internalType":"uint256"},{"name":"roundIndex","type":"uint256","internalType":"uint256"},{"name":"state","type":"uint8","internalType":"enum ComputationMarket.RequestStates"},{"name":"stake","type":"uint256","internalType":"uint256"},{"name":"paymentPerRoundForVerifiers","type":"uint256","internalType":"uint256"},{"name":"totalPaidForVerification","type":"uint256","internalType":"uint256"},{"name":"protocolVersion","type":"uint256","internalType":"uint256"},{"name":"verifierSelectionCount","type":"uint256","internalType":"uint256"},{"name":"computedTimeByProvider","type":"uint256","internalType":"uint256"},{"name":"layerSize","type":"uint256","internalType":"uint256"}]}],"stateMutability":"view"},{"type":"function","name":"getRoundDetails","inputs":[{"name":"requestId","type":"uint256","internalType":"uint256"},{"name":"roundIndex","type":"uint256","internalType":"uint256"}],"outputs":[{"name":"","type":"tuple","internalType":"struct ComputationMarket.RoundDetailsOutput","components":[{"name":"roundIndex","type":"uint256","internalType":"uint256"},{"name":"layerComputeIndex","type":"uint256","internalType":"uint256"},{"name":"verificationStartTime","type":"uint256","internalType":"uint256"},{"name":"commitEndTime","type":"uint256","internalType":"uint256"},{"name":"providerRevealEndTime","type":"uint256","internalType":"uint256"},{"name":"commitmentRevealEndTime","type":"uint256","internalType":"uint256"},{"name":"majorityVoteHash","type":"bytes32","internalType":"bytes32"},{"name":"majorityCount","type":"uint256","internalType":"uint256"},{"name":"mainProviderAnswerHash","type":"bytes32","internalType":"bytes32"}]}],"stateMutability":"view"},{"type":"function","name":"providerFailure","inputs":[{"name":"requestId","type":"uint256","internalType":"uint256"}],"outputs":[],"stateMutability":"nonpayable"},{"type":"function","name":"providerSuccessCall","inputs":[{"name":"requestId","type":"uint256","internalType":"uint256"}],"outputs":[],"stateMutability":"nonpayable"},{"type":"function","name":"requestCount","inputs":[],"outputs":[{"name":"","type":"uint256","internalType":"uint256"}],"stateMutability":"view"},{"type":"function","name":"requests","inputs":[{"name":"","type":"uint256","internalType":"uint256"}],"outputs":[{"name":"consumer","type":"address","internalType":"address"},{"name":"paymentForProvider","type":"uint256","internalType":"uint256"},{"name":"totalPaymentForVerifiers","type":"uint256","internalType":"uint256"},{"name":"numOperations","type":"uint256","internalType":"uint256"},{"name":"numVerifiers","type":"uint256","internalType":"uint256"},{"name":"operationFileURL","type":"string","internalType":"string"},{"name":"computationDeadline","type":"uint256","internalType":"uint256"},{"name":"verificationDeadline","type":"uint256","internalType":"uint256"},{"name":"totalPayment","type":"uint256","internalType":"uint256"},{"name":"completed","type":"bool","internalType":"bool"},{"name":"hasBeenComputed","type":"bool","internalType":"bool"},{"name":"numVerifiersSampleSize","type":"uint256","internalType":"uint256"},{"name":"mainProvider","type":"address","internalType":"address"},{"name":"timeAllocatedForVerification","type":"uint256","internalType":"uint256"},{"name":"layerCount","type":"uint256","internalType":"uint256"},{"name":"layerComputeIndex","type":"uint256","internalType":"uint256"},{"name":"roundIndex","type":"uint256","internalType":"uint256"},{"name":"state","type":"uint8","internalType":"enum ComputationMarket.RequestStates"},{"name":"stake","type":"uint256","internalType":"uint256"},{"name":"paymentPerRoundForVerifiers","type":"uint256","internalType":"uint256"},{"name":"totalPaidForVerification","type":"uint256","internalType":"uint256"},{"name":"protocolVersion","type":"uint256","internalType":"uint256"},{"name":"verifierSelectionCount","type":"uint256","internalType":"uint256"},{"name":"computedTimeByProvider","type":"uint256","internalType":"uint256"},{"name":"layerSize","type":"uint256","internalType":"uint256"}],"stateMutability":"view"},{"type":"function","name":"returnStake","inputs":[{"name":"requestId","type":"uint256","internalType":"uint256"}],"outputs":[],"stateMutability":"nonpayable"},{"type":"function","name":"returnStakeDueToTimeout","inputs":[{"name":"requestId","type":"uint256","internalType":"uint256"}],"outputs":[],"stateMutability":"nonpayable"},{"type":"function","name":"revealCommitment","inputs":[{"name":"requestId","type":"uint256","internalType":"uint256"},{"name":"agree","type":"bool","internalType":"bool"},{"name":"answer","type":"bytes32","internalType":"bytes32"},{"name":"nonce","type":"bytes32","internalType":"bytes32"}],"outputs":[],"stateMutability":"nonpayable"},{"type":"function","name":"revealProviderKeyAndHash","inputs":[{"name":"requestId","type":"uint256","internalType":"uint256"},{"name":"privateKey","type":"bytes32","internalType":"bytes32"},{"name":"answerHash","type":"bytes32","internalType":"bytes32"}],"outputs":[],"stateMutability":"nonpayable"},{"type":"function","name":"roundDetails","inputs":[{"name":"","type":"uint256","internalType":"uint256"},{"name":"","type":"uint256","internalType":"uint256"}],"outputs":[{"name":"roundIndex","type":"uint256","internalType":"uint256"},{"name":"layerComputeIndex","type":"uint256","internalType":"uint256"},{"name":"verificationStartTime","type":"uint256","internalType":"uint256"},{"name":"commitEndTime","type":"uint256","internalType":"uint256"},{"name":"providerRevealEndTime","type":"uint256","internalType":"uint256"},{"name":"commitmentRevealEndTime","type":"uint256","internalType":"uint256"},{"name":"majorityVoteHash","type":"bytes32","internalType":"bytes32"},{"name":"majorityCount","type":"uint256","internalType":"uint256"},{"name":"mainProviderAnswerHash","type":"bytes32","internalType":"bytes32"}],"stateMutability":"view"},{"type":"function","name":"selectRequest","inputs":[{"name":"requestId","type":"uint256","internalType":"uint256"}],"outputs":[],"stateMutability":"nonpayable"},{"type":"function","name":"startNextRound","inputs":[{"name":"requestId","type":"uint256","internalType":"uint256"}],"outputs":[],"stateMutability":"nonpayable"},{"type":"function","name":"submitCommitment","inputs":[{"name":"requestId","type":"uint256","internalType":"uint256"},{"name":"computedHash","type":"bytes32","internalType":"bytes32"}],"outputs":[],"stateMutability":"nonpayable"},{"type":"function","name":"verificationDeadlinePassedForVeryfying","inputs":[{"name":"requestId","type":"uint256","internalType":"uint256"},{"name":"roundNum","type":"uint256","internalType":"uint256"}],"outputs":[],"stateMutability":"nonpayable"},{"type":"event","name":"CommitmentPhaseStarted","inputs":[{"name":"requestId","type":"uint256","indexed":true,"internalType":"uint256"},{"name":"startTime","type":"uint256","indexed":false,"internalType":"uint256"},{"name":"endTime","type":"uint256","indexed":false,"internalType":"uint256"},{"name":"layerComputeIndex","type":"uint256","indexed":false,"internalType":"uint256"}],"anonymous":false},{"type":"event","name":"CommitmentSubmitted","inputs":[{"name":"requestId","type":"uint256","indexed":true,"internalType":"uint256"},{"name":"verifier","type":"address","indexed":true,"internalType":"address"}],"anonymous":false},{"type":"event","name":"NoMajorityForRound","inputs":[{"name":"requestId","type":"uint256","indexed":true,"internalType":"uint256"},{"name":"layerComputeIndex","type":"uint256","indexed":false,"internalType":"uint256"}],"anonymous":false},{"type":"event","name":"ProviderResultSuccessfullyVerified","inputs":[{"name":"requestId","type":"uint256","indexed":true,"internalType":"uint256"}],"anonymous":false},{"type":"event","name":"ProviderResultUnsuccessful","inputs":[{"name":"requestId","type":"uint256","indexed":true,"internalType":"uint256"}],"anonymous":false},{"type":"event","name":"ProviderRevealed","inputs":[{"name":"requestId","type":"uint256","indexed":true,"internalType":"uint256"},{"name":"privateKey","type":"bytes32","indexed":false,"internalType":"bytes32"},{"name":"answerHash","type":"bytes32","indexed":false,"internalType":"bytes32"}],"anonymous":false},{"type":"event","name":"ProviderSelected","inputs":[{"name":"requestId","type":"uint256","indexed":true,"internalType":"uint256"},{"name":"provider","type":"address","indexed":true,"internalType":"address"}],"anonymous":false},{"type":"event","name":"ProviderSlashed","inputs":[{"name":"requestId","type":"uint256","indexed":true,"internalType":"uint256"},{"name":"provider","type":"address","indexed":true,"internalType":"address"}],"anonymous":false},{"type":"event","name":"RequestCompleted","inputs":[{"name":"requestId","type":"uint256","indexed":true,"internalType":"uint256"},{"name":"provider","type":"address","indexed":true,"internalType":"address"}],"anonymous":false},{"type":"event","name":"RequestCreated","inputs":[{"name":"requestId","type":"uint256","indexed":true,"internalType":"uint256"},{"name":"consumer","type":"address","indexed":true,"internalType":"address"}],"anonymous":false},{"type":"event","name":"RevealVerificationDetails","inputs":[{"name":"requestId","type":"uint256","indexed":true,"internalType":"uint256"},{"name":"endTime","type":"uint256","indexed":false,"internalType":"uint256"},{"name":"verifier","type":"address","indexed":true,"internalType":"address"}],"anonymous":false},{"type":"event","name":"RoundInitialised","inputs":[{"name":"requestId","type":"uint256","indexed":true,"internalType":"uint256"}],"anonymous":false},{"type":"event","name":"RoundRevealStarted","inputs":[{"name":"requestId","type":"uint256","indexed":true,"internalType":"uint256"}],"anonymous":false},{"type":"event","name":"RoundStartedForVerificationSelection","inputs":[{"name":"requestId","type":"uint256","indexed":true,"internalType":"uint256"},{"name":"layerComputeIndex","type":"uint256","indexed":false,"internalType":"uint256"}],"anonymous":false},{"type":"event","name":"VerificationApplied","inputs":[{"name":"requestId","type":"uint256","indexed":true,"internalType":"uint256"},{"name":"verifier","type":"address","indexed":true,"internalType":"address"},{"name":"layerComputeIndex","type":"uint256","indexed":true,"internalType":"uint256"}],"anonymous":false},{"type":"event","name":"VerificationSelectionStarted","inputs":[{"name":"requestId","type":"uint256","indexed":true,"internalType":"uint256"},{"name":"layerComputeIndex","type":"uint256","indexed":false,"internalType":"uint256"}],"anonymous":false},{"type":"event","name":"VerifierChosen","inputs":[{"name":"requestId","type":"uint256","indexed":true,"internalType":"uint256"},{"name":"verifier","type":"address","indexed":true,"internalType":"address"},{"name":"layerComputeIndex","type":"uint256","indexed":true,"internalType":"uint256"},{"name":"verifierIndex","type":"uint256","indexed":false,"internalType":"uint256"}],"anonymous":false},{"type":"event","name":"VerifierUnchosen","inputs":[{"name":"requestId","type":"uint256","indexed":true,"internalType":"uint256"},{"name":"verifier","type":"address","indexed":true,"internalType":"address"},{"name":"layerComputeIndex","type":"uint256","indexed":true,"internalType":"uint256"},{"name":"verifierIndex","type":"uint256","indexed":false,"internalType":"uint256"}],"anonymous":false},{"type":"event","name":"VoteSubmitted","inputs":[{"name":"requestId","type":"uint256","indexed":true,"internalType":"uint256"},{"name":"verifier","type":"address","indexed":true,"internalType":"address"},{"name":"agree","type":"bool","indexed":false,"internalType":"bool"}],"anonymous":false},{"type":"event","name":"requestCancelled","inputs":[{"name":"requestId","type":"uint256","indexed":true,"internalType":"uint256"}],"anonymous":false}],"bytecode":{"object":"0x608034620000c657601f62004d1838819003918201601f19168301916001600160401b03831184841017620000cb57808492602094604052833981010312620000c657516001600160a01b03811690819003620000c65780156200008157600080546001600160a01b031916919091179055604051614c369081620000e28239f35b60405162461bcd60e51b815260206004820152601560248201527f496e76616c696420746f6b656e206164647265737300000000000000000000006044820152606490fd5b600080fd5b634e487b7160e01b600052604160045260246000fdfe610220604052600436101561001357600080fd5b60003560e01c80630625f16114613a805780630900856314613916578063275d95a11461380d5780633015394c146137f15780633295845c146137d55780633d8a8ea71461350f5780634beda2211461333757806353e2ba171461331b57806358042f621461326a5780635badbe4c1461324c5780635e16a9d8146132305780635f748f34146124745780636605dfa71461244b5780636d8f9a0e14611fd657806381d12c5814611d8d578063847ada57146117f25780638ea49eca14611764578063951c5ce2146111e9578063b10ceb5914611053578063bfdb345114610c78578063ddf3532c14610b54578063e03ad0d114610910578063e20fb7a1146106f8578063e6a3d9dc146105835763f34d4c631461013057600080fd5b3461057e57602036600319011261057e57600061038060405161015281613de8565b828152826020820152826040820152826060820152826080820152606060a0820152606060c0820152606060e08201528261010082015282610120820152826101408201528261016082015282610180820152826101a082015260606101c082015260606101e08201528261020082015282610220820152826102408201528261026082015282610280820152826102a0820152826102c0820152826102e0820152826103008201528261032082015282610340820152826103608201520152600435600052600260205260406000206040519061022f82613de8565b80546001600160a01b0316825260018101546020830152600281015460408301526003810154606083015260048101546080830152610270600582016147d6565b60a083015261028160068201613fb3565b60c0830152610292600782016147d6565b60e083015260088101546101008301526009810154610120830152600a81015461014083015260ff600b820154818116151561016085015260081c161515610180830152600c8101546101a08301526102ed600d820161482b565b6101c08301526102ff600e820161482b565b6101e0830152600f8101546001600160a01b03166102008301526010810154610220830152601181015461024083015260128101546102608301526013810154610280830152601481015460ff1690600982101561056857601b916102a084015260158101546102c084015260168101546102e0840152601781015461030084015260188101546103208401526019810154610340840152601a810154610360840152015461038082015260405180916020825260018060a01b038151166020830152602081015160408301526040810151606083015260608101516080830152608081015160a08301526103806104bd6104a561044161042a61041460a08701516103a060c08a01526103c08901906140a5565b60c0870151888203601f190160e08a0152614058565b60e0860151878203601f19016101008901526140a5565b610100850151610120870152610120850151610140870152610140850151610160870152610160850151151561018087015261018085015115156101a08701526101a08501516101c08701526101c0850151601f19878303016101e0880152614102565b6101e0840151858203601f1901610200870152614102565b9160018060a01b03610200820151166102208501526102208101516102408501526102408101516102608501526102608101516102808501526102808101516102a08501526105166102a08201516102c0860190614098565b6102c08101516102e08501526102e08101516103008501526103008101516103208501526103208101516103408501526103408101516103608501526103608101518285015201516103a08301520390f35b634e487b7160e01b600052602160045260246000fd5b600080fd5b3461057e57604036600319011261057e5760043580600052602060028152604060002090600481526040600020601383015490816000528252604060002033600052825260ff60146040600020940154166009811015610568576003036106a7578360005260038252604060002081600052825260076040600020015442116106695783600052600382526040600020906000528152600360406000200190336000525261063860ff60406000205416614774565b600460243591015533907f22d30f6da93667100b64d15e5ea70afec217caeab1008706f57bfa4deed12c63600080a3005b60405162461bcd60e51b815260048101839052601660248201527510dbdb5b5a5d1b595b9d081c1a185cd948195b99195960521b6044820152606490fd5b60405162461bcd60e51b815260048101839052602360248201527f52657175657374206e6f742079657420696e20636f6d6d69746d656e7420737460448201526261746560e81b6064820152608490fd5b3461057e57606036600319011261057e576004356044358160005260206002815260406000209160018060a01b03600f8401541633036108b057836000526003825260406000209060138401549182600052835260076040600020015442111561086b57846000526003835260406000208260005283526008604060002001544211610826576040519183830192828452600160f81b60408201526021815260608101938185106001600160401b03861117610810577f4b8ecdcde49a7d4d879a4bf5a6cc37c7086e65774f161d4bf99c01aaa1882f8996604096608094601493888a5285519020918b60005260038152896000209160005252600c88600020015501600460ff1982541617905560243584520152a2005b634e487b7160e01b600052604160045260246000fd5b60405162461bcd60e51b815260048101849052601b60248201527f50726f76696465722072657665616c20706861736520656e64656400000000006044820152606490fd5b60405162461bcd60e51b815260048101849052601a60248201527f436f6d6d69746d656e74207068617365206e6f7420656e6465640000000000006044820152606490fd5b60405162461bcd60e51b815260048101839052603260248201527f4f6e6c7920746865206d61696e2070726f76696465722063616e2072657665616044820152710d840e8d0ca40d6caf240c2dcc840d0c2e6d60731b6064820152608490fd5b3461057e5760208060031936011261057e576004359081600052600281526040600020610943600882015442111561414c565b600f810180546001600160a01b0393908416610b10576015830154600054604051636eb1769f60e11b8152336004820152306024820152919516908281604481855afa908115610aa657600091610ae3575b506040516370a0823160e01b8152336004820152908382602481865afa918215610aa657600092610ab2575b5091866109e281610a12946109db60009b89981015614670565b1015614670565b6040516323b872dd60e01b8152336004820152306024820152604481019190915296879283919082906064820190565b03925af18015610aa657601494610a3292600092610a79575b5050614670565b336001600160601b0360a01b82541617905501600160ff1982541617905533907f3c84569ae9be7c8e6e8edf0c0cbeb7e00cf9cb4d9b67849728be8ab96e09bec1600080a3005b610a989250803d10610a9f575b610a908183613e56565b81019061421d565b8680610a2b565b503d610a86565b6040513d6000823e3d90fd5b9150918382813d8311610adc575b610aca8183613e56565b8101031261057e5790519091866109c1565b503d610ac0565b90508281813d8311610b09575b610afa8183613e56565b8101031261057e575187610995565b503d610af0565b6064906040519062461bcd60e51b82526004820152601960248201527f50726f766964657220616c72656164792073656c6563746564000000000000006044820152fd5b3461057e57610120610b6536613f63565b60405191610b7283613e04565b6000835260006020840152600060408401526000606084015260006080840152600060a0840152600060c0840152600060e08401526000610100809401526000526003602052604060002090600052602052604060002090600482015491600581015490600681015460078201546008830154600984015491600a85015493600c600b8701549601549688604051610c0981613e04565b8b81526020810192835260408101938452606081019485526080810195865260a0810196875260c0810197885260e0810198895201978852604051998a525160208a01525160408901525160608801525160808701525160a08601525160c08501525160e08401525190820152f35b3461057e57608036600319011261057e5760043560249081359182151580930361057e5760449081356064948535958560005260209660028852604060002094600393848a526040600020956013880196875490816000528c52600860406000200154421115611011578a600052868c526040600020816000528c526009604060002001544211610fda578a600052868c526040600020816000528c5286604060002001336000528c5260ff6040600020541615610f98578a60005260048c526040600020906000528b526040600020336000528b526040600020928684019586549a60ff8c16610f58578d604051908101908582528860408201523360601b606082015260548152610d8a81613e3b565b519020600487015403610f205750506040518c8101918383528460f81b60408301526021825260608201908282106001600160401b03831117610f0c57509260149997959260059b999795928c9560405251902095869584549260018601556002850155600160ff19809e16179055339160ff60a01b9060a01b16906affffffffffffffffffffff60a81b1617178155015587600052818952604060002083546000528952604060002081600052808a526040600020610e4a8154614661565b905581600052808a5260406000205491600b820192835490818114600014610ec35750505050508660005287526040600020905460005286526000600a6040822001555b01918254161790557fb59f6416758d4763386b2c83d12c7c643131c90beff0caea486f303510702ce3604051924284523393a3005b95929491939511610ed9575b5050505050610e8e565b896000528a5260406000209054600052895280600a60406000200155600052875260406000205490558680808080610ecf565b634e487b7160e01b60009081526041600452fd5b74496e76616c69642072657665616c2076616c75657360581b8e916015856040519462461bcd60e51b86526004860152840152820152fd5b7f436f6d6d69746d656e7420616c72656164792072657665616c656400000000008e91601b856040519462461bcd60e51b86526004860152840152820152fd5b60405162461bcd60e51b8152600481018d9052601f818601527f596f7520617265206e6f74207468652063686f73656e20766572696669657200818c01528690fd5b60405162461bcd60e51b8152600481018d90526012818601527114995d99585b081c1a185cd948195b99195960721b818c01528690fd5b60405162461bcd60e51b8152600481018d9052601f818601527f50726f76696465722072657665616c207068617365206e6f7420656e64656400818c01528690fd5b3461057e5760208060031936011261057e576004359081600052600281526040600020906009820154421015806111ce575b806111bf575b156111685761110390600b83019260ff19936001858254161790558160018060a01b03806000541690600f84015416906110ce601585015460018601549061413f565b60405163a9059cbb60e01b81526001600160a01b03909316600484015260248301529094859190829060009082906044820190565b03925af1918215610aa65760069360149361114a575b505001918254161790557f953601eba1acf6d4769af39f3986a5be6acd796655930c93832c2f239fbccabf600080a2005b8161116092903d10610a9f57610a908183613e56565b508580611119565b6084906040519062461bcd60e51b82526004820152602a60248201527f566572696669636174696f6e20446561646c696e6520686173206e6f7420626560448201526932b7103830b9b9b2b21760b11b6064820152fd5b5060ff600b830154161561108b565b5060ff60148301541660098110156105685760071415611085565b3461057e57602036600319011261057e5760043560005260026020526040600020600d81015460048201805482036117155760ff600b84015460081c16156116c657600c830191825411611675576009830154601084015490816003029160038304036114b65761125d611264924261413f565b11156146b1565b600435600052600360205260406000206013840154908160005260205260016040600020013360005260205260ff604060002054166116305760043560005260036020526040600020906000526020526001604060002001336000526020526040600020600160ff1982541617905560198301548254908181106000146114e2575050546112f760198401548092614497565b60405160208101904282524460408201523360601b60608201526054815261131e81613e3b565b5190209080156114cc5782611337916113a0930661413f565b61138261136661134a83600d8901614723565b905460039190911b1c6001600160a01b031694600d8801614723565b905460039190911b1c6001600160a01b031691600d8701614723565b90919060018060a01b038084549260031b9316831b921b1916179055565b6113b5816113826019860154600d8701614723565b60198301546113c781600d8601614723565b60018060a01b0391549060031b1c166012850154916040519081527f441ea878e9821f31af14375bef585bac76bbbde0e10feddc036673243d01a1d7602060043592a46004356000526003602052604060002060138401546000526020526003604060002001906000526020526040600020600160ff198254161790556114736114586019840154600d8501614723565b905460039190911b1c6001600160a01b0316600e8401614751565b60168201546114876017840191825461413f565b90555b601982015491600183018093116114b65760198391015554146114a957005b6114b4600435614a01565b005b634e487b7160e01b600052601160045260246000fd5b634e487b7160e01b600052601260045260246000fd5b149050611620575b601982015461159c602061150183600d8701614723565b939060018060a01b03948591549060031b1c166012870154906040518381527fd2673c2f320637ecd6e1e7a21780cb318c5a6c5b49398f8c5ae9d0ae0aad47438560043592a48361155a816000541692600d8901614723565b90549060031b1c1690601687015491600060405180968195829463a9059cbb60e01b84526004840160209093929193604081019460018060a01b031681520152565b03925af18015610aa657611601575b506004356000526005602052604060002060138401546000526020526040600020906115de6019850154600d8601614723565b90549060031b1c166000526020526040600020600160ff1982541617905561148a565b6116199060203d602011610a9f57610a908183613e56565b50836115ab565b61162b600435614a01565b6114ea565b60405162461bcd60e51b815260206004820152601e60248201527f56657269666965722068617320616c72656164792074726967676572656400006044820152606490fd5b60405162461bcd60e51b815260206004820152602360248201527f4e6f7420656e6f7567682076657269666965727320746f2063686f6f73652066604482015262726f6d60e81b6064820152608490fd5b60405162461bcd60e51b815260206004820152602160248201527f5265717565737420686173206e6f74206265656e20636f6d70757465642079656044820152601d60fa1b6064820152608490fd5b60405162461bcd60e51b815260206004820152602160248201527f5665726966696572206c69737420686173206e6f74206265656e2066696c6c656044820152601960fa1b6064820152608490fd5b3461057e5761177236613f63565b9060005260036020526040600020906000526020526101206040600020600481015490600581015490600681015460078201546008830154600984015491600a85015493600c600b87015496015496604051988952602089015260408801526060870152608086015260a085015260c084015260e0830152610100820152f35b3461057e5761180036613f63565b8160005260206002815260406000209060039182825260406000208460005282526118356009604060002001544210156141c2565b8460005282825260406000208460005282528260406000200133600052825261186560ff60406000205416614774565b84600052600482526040600020846000528252604060002033600052825260ff60066040600020015416611d3457601381019283548511611cc95760018510611c6c5785600052600483526040600020856000528352604060002033600052835260066040600020019060ff1991600183825416179055866000528084526040600020866000528452600a60406000200154801560001461197b575050600080546016939093015460405163a9059cbb60e01b815233600482015260248101919091529284925083916044918391906001600160a01b03165af18015610aa65761195d575b5050541461195457005b6114b490614885565b8161197392903d10610a9f57610a908183613e56565b50838061194a565b90929591948760005260048552604060002083600052855260406000203360005285526005604060002001548214611bba575b54928284146119b957005b6000888152908552604080822084835286529020600c0154146119fc57505050506014015460ff166009811015610568576007036119f357005b6114b4906144a4565b60128592939496950192601184549301549160001983018381116114b6578403611b865750505050611a2e8154614661565b90558160005260028152604060002092601484019160ff835416600981101561056857600714611b4257600b8501805460ff8116611afd57958291600185611a9d9798991617905560018060a01b036110ce816000541691600f8401541692600160158201549101549061413f565b03925af1928315610aa657600693611adf575b50508254161790557f953601eba1acf6d4769af39f3986a5be6acd796655930c93832c2f239fbccabf600080a2005b81611af592903d10610a9f57610a908183613e56565b508480611ab0565b60405162461bcd60e51b815260048101849052601c60248201527f5265717565737420697320616c726561647920636f6d706c65746564000000006044820152606490fd5b6064906040519062461bcd60e51b82526004820152601760248201527f5265717565737420697320756e7375636365737366756c0000000000000000006044820152fd5b91939450919550149081611baf575b50611b9c57005b611ba86114b493614661565b9055614885565b905083141584611b95565b600085611c3a89611c10611bfe8d611bdb600c601686015495015485614198565b9087528a8652604087208a88528652604087208988528652604087205490614657565b85546001600160a01b0316929061413f565b60405163a9059cbb60e01b8152336004820152602481019190915293849283919082906044820190565b03925af18015610aa657611c4f575b506119ae565b611c6590863d8811610a9f57610a908183613e56565b5088611c49565b60405162461bcd60e51b815260048101849052602f60248201527f526f756e64206e756d626572206d75737420626520677265617465722074686160448201526e6e206f7220657175616c20746f203160881b6064820152608490fd5b60405162461bcd60e51b815260048101849052603a60248201527f726f756e64206e756d206d757374206265206c657373207468616e206f72206560448201527f7175616c20746f20726571756573742e726f756e64496e6465780000000000006064820152608490fd5b60405162461bcd60e51b815260048101839052602b60248201527f596f75206861766520616c7265616479206265656e207061696420666f72207660448201526a32b934b334b1b0ba34b7b760a91b6064820152608490fd5b3461057e57602036600319011261057e57600435600052600260205260406000206102005260018060a01b03610200515416611f7b600161020051015460026102005101546101405260036102005101546101605260046102005101546101a052611dfd60066102005101613fb3565b92600861020051015461012052600961020051015493600a610200510154600b610200510154600c61020051015460018060a01b03600f610200510154169060ff601061020051015493601161020051015495611f0960126102005101549860136102005101549a856014610200510154169c6015610200510154608052601661020051015460a052601761020051015460e05260186102005101546101e05260196102005101546101c052601a61020051015461018052601b6102005101546101005260405160c0526103209160c05152602060c051015261014051604060c051015261016051606060c05101526101a051608060c05101528060a060c051015260c0510190614058565b9b6101205160c08051015260e060c051015261010060c0510152818116151561012060c051015260081c16151561014060c051015261016060c051015261018060c05101526101a060c05101526101c060c05101526101e060c051015261020060c051015261022060c0510190614098565b60805161024060c051015260a05161026060c051015260e05161028060c05101526101e0516102a060c05101526101c0516102c060c0510152610180516102e060c05101526101005161030060c051015260c051900360c051f35b3461057e5760208060031936011261057e5760043590816000526002815260406000209060ff600b83015460081c161561240757600f8201546001600160a01b039290831633146123a657600d8101908154936004820194855411156123685760ff6014830154166009811015610568576002036122d757600054604051636eb1769f60e11b81523360048201523060248201529116908481604481855afa908115610aa6576000916122aa575b506040516370a0823160e01b8152336004820152908582602481865afa8015610aa6578692600091612277575b50926109db6120d0612100936000966016890154938480931015614670565b6040516323b872dd60e01b8152336004820152306024820152604481019190915293849283919082906064820190565b03925af18015610aa65761211c9160009161225a575b50614670565b6009810154601082015490816003029160038304036114b65761125d612142924261413f565b84600052600383526040600020601382015490816000528452600260406000200133600052845260ff6040600020541661221557906012918660005260038552604060002090600052845260026040600020013360005284526040600020600160ff198254161790556121b53384614751565b015492604051918433877f9e9159f67684b4639ef3d20a0878e965d2fa78dc33561fadb2485cd3d3447abf600080a4549054146121ee57005b7fac6c772803856f8be288c38a92349502c9d976deccefb05524c4eafedf049aeb928152a2005b60405162461bcd60e51b815260048101859052601860248201527f566572696669657220616c7265616479206170706c69656400000000000000006044820152606490fd5b6122719150853d8711610a9f57610a908183613e56565b87612116565b8381939492503d83116122a3575b61228f8183613e56565b8101031261057e57518591906109db6120b1565b503d612285565b90508481813d83116122d0575b6122c18183613e56565b8101031261057e575187612084565b503d6122b7565b60405162461bcd60e51b815260048101859052605960248201527f56657269666965722063616e6e6f74206170706c7920666f722076657269666960448201527f636174696f6e2e2052657175657374207374617465206d75737420626520696e60648201527f2063686f6f73696e672076657269666965727320737461746500000000000000608482015260a490fd5b60405162461bcd60e51b815260048101859052601660248201527515995c9a599a595c881b1a5b5a5d081c995858da195960521b6044820152606490fd5b60405162461bcd60e51b815260048101839052603360248201527f546865206d61696e2070726f76696465722063616e6e6f74206170706c79207460448201527237903132b1b7b6b29030903b32b934b334b2b960691b6064820152608490fd5b6064906040519062461bcd60e51b82526004820152601860248201527f52657175657374206e6f742079657420636f6d707574656400000000000000006044820152fd5b3461057e57600036600319011261057e576000546040516001600160a01b039091168152602090f35b3461057e5761018036600319011261057e576084356001600160401b03811161057e576124a5903690600401613ee4565b60a4356001600160401b03811161057e576124c4903690600401613e8e565b906124d46101643560443561413f565b806000198101116114b6576124f190610164359060001901614657565b9061250a8261250561012435602435614198565b614198565b926125178460043561413f565b6003606435106131eb57600054604051636eb1769f60e11b81523360048201523060248201526001600160a01b0390911690602081604481855afa908115610aa6576000916131b9575b506040516370a0823160e01b8152336004820152602081602481865afa918215610aa6578491600093613182575b50106131215782116130c2576040516323b872dd60e01b81523360048201523060248201526044810183905290602090829060649082906000905af1908115610aa6576000916130a3575b501561306d574260c435111561300257610104356003610104350204600314610104351517156114b65761261f6126176003610104350286614198565b60c43561413f565b60e4351115612f87576101243560643510612ef65760405161264081613e20565b600081526040519261265184613e20565b600084526040519461266286613e20565b60008652600435600a6004350204600a146004351517156114b6576040519761268a89613de8565b33895260043560208a015260408901526044356060890152606435608089015260a088015260c087015260e086015260c43561010086015260e43561012086015261014085015260006101608501526000610180850152610124356101a08501526101c08401526101e08301526000610200830152610104356102208301526102408201526000610260820152600061028082015260006102a08201526064600a60043502046102c08201526024356102e082015260006103008201526101443561032082015260006103408201526000610360820152610164356103808201526001546000526002602052604060002060018060a01b038251166001600160601b0360a01b8254161781556020820151600182015560408201516002820155606082015160038201556080820151600482015560a0820151805190600160401b8211610810576005830154826005850155808310612e7d575b5060200190600583016000526020600020916000905b828210612d6457858560c08201519182516001600160401b038111610810576128266006840154613f79565b601f8111612d2f575b506020601f8211600114612cc1578190612862939495600092612cb6575b50508160011b916000199060031b1c19161790565b60068301555b60e0810151805190600160401b8211610810576007840154826007860155808310612c3e575b5060200190600784016000526020600020916000905b828210612b1857858561010081015160088301556101208101516009830155610140810151600a830155600b82016101608201511515815460ff61ff00610180860151151560081b1692169061ffff1916171790556101a0810151600c8301556101c08101518051906001600160401b03821161081057600160401b821161081057602090600d85015483600d870155808410612af8575b5001600d8401600052602060002060005b838110612adb5785856101e08101518051906001600160401b03821161081057600160401b821161081057602090600e85015483600e870155808410612abb575b5001600e8401600052602060002060005b838110612a9e578585600f820160018060a01b03610200830151166001600160601b0360a01b825416179055610220810151601083015561024081015160118301556102608101516012830155610280810151601383015560148201906102a081015190600982101561056857601b926103809260ff801983541691161790556102c081015160158501556102e08101516016850155610300810151601785015561032081015160188501556103408101516019850155610360810151601a8501550151910155612a71600154614661565b8060015533907f233bb55fd57b21b8a3d15c9ad8fbbab435fe4cf2865cc654f6a57d9d4d8cda54600080a3005b82516001600160a01b03168183015560209092019160010161299f565b612ad590600e8701600052848460002091820191016141ab565b8561298e565b82516001600160a01b03168183015560209092019160010161294d565b612b1290600d8701600052848460002091820191016141ab565b8561293c565b80518051906001600160401b03821161081057612b358654613f79565b601f8111612c01575b50602090601f8311600114612b915792612b7783600195946020948796600092612b865750508160011b916000199060031b1c19161790565b87555b019401910190926128a4565b015190508c8061284d565b908660005260206000209160005b601f1985168110612be9575083602093600196938796938794601f19811610612bd0575b505050811b018755612b7a565b015160001960f88460031b161c191690558b8080612bc3565b91926020600181928685015181550194019201612b9f565b612c2e90876000526020600020601f850160051c81019160208610612c34575b601f0160051c01906141ab565b88612b3e565b9091508190612c21565b600785016000526020600020908382015b8183018110612c5f57505061288e565b80612c6c60019254613f79565b80612c79575b5001612c4f565b601f81118314612c8f5750600081555b88612c72565b600090828252612cad601f60208420920160051c82018583016141ab565b81835555612c89565b01519050858061284d565b6006840160005260206000209060005b601f1984168110612d175750600193949583601f19811610612cfe575b505050811b016006830155612868565b015160001960f88460031b161c19169055848080612cee565b9091602060018192858a015181550193019101612cd1565b612d5e90600685016000526020600020601f840160051c81019160208510612c3457601f0160051c01906141ab565b8461282f565b80518051906001600160401b03821161081057612d818654613f79565b90601f91828111612e43575b506020918311600114612dd35792612dc483600195946020948796600092612b865750508160011b916000199060031b1c19161790565b87555b019401910190926127fa565b908660005260206000209160005b601f1985168110612e2b575083602093600196938796938794601f19811610612e12575b505050811b018755612dc7565b015160001960f88460031b161c191690558b8080612e05565b91926020600181928685015181550194019201612de1565b612e6e908860005260206000208480870160051c82019260208810612e74575b0160051c01906141ab565b89612d8d565b92508192612e63565b600584016000526020600020908382015b8183018110612e9e5750506127e4565b80612eab60019254613f79565b80612eb8575b5001612e8e565b601f908181118414612ed1575050600081555b88612eb1565b612eed60009284845260208420920160051c82018583016141ab565b81835555612ecb565b60405162461bcd60e51b815260206004820152605d60248201527f4e6f7420656e6f7567682076657269666965727320746f2063686f6f7365206660448201527f726f6d2e206e756d566572696669657273206d7573742062652067726561746560648201527f72207468616e206e756d56657269666965727353616d706c6553697a65000000608482015260a490fd5b60405162461bcd60e51b815260206004820152604760248201527f566572696669636174696f6e20646561646c696e65206d75737420626520737560448201527f6666696369656e7420656e6f75676820666f7220616c6c20726f756e64732072606482015266195c5d5a5c995960ca1b608482015260a490fd5b60405162461bcd60e51b815260206004820152603c60248201527f436f6d7075746174696f6e616c20646561646c696e65206d757374206265206760448201527f726561746572207468616e207468652063757272656e742074696d65000000006064820152608490fd5b60405162461bcd60e51b815260206004820152600e60248201526d14185e5b595b9d0819985a5b195960921b6044820152606490fd5b6130bc915060203d602011610a9f57610a908183613e56565b866125da565b60405162461bcd60e51b815260206004820152603160248201527f496e73756666696369656e742062616c616e636520617661696c61626c6520746044820152701bc818dbdb991d58dd081c995c5d595cdd607a1b6064820152608490fd5b60405162461bcd60e51b815260206004820152603360248201527f496e73756666696369656e7420616c6c6f77616e636520617661696c61626c65604482015272081d1bc818dbdb991d58dd081c995c5d595cdd606a1b6064820152608490fd5b915091506020813d6020116131b1575b8161319f60209383613e56565b8101031261057e57839051918961258f565b3d9150613192565b90506020813d6020116131e3575b816131d460209383613e56565b8101031261057e575187612561565b3d91506131c7565b60405162461bcd60e51b815260206004820152601d60248201527f4174206c656173742033207665726966696572732072657175697265640000006044820152606490fd5b3461057e57600036600319011261057e576020604051600a8152f35b3461057e57600036600319011261057e576020600154604051908152f35b3461057e57602036600319011261057e5760405160043533817f1d961eb7779cdf87f83b3c5ca1e5a7b0b7832f5fc1f9b813fea6787daf0e884c600080a3600052600260205260406000209060ff600b830154166132ce5750601a42910155600080f35b62461bcd60e51b815260206004820152602260248201527f526571756573742068617320616c7265616479206265656e20636f6d706c6574604482015261195960f21b6064820152608490fd5b3461057e57600036600319011261057e57602060405160038152f35b3461057e5761334536613f63565b90806000526020916002835260406000209160098301546010840154806003029060038204036114b657613379904261413f565b11156134b95780600052600384526040600020826000528452600260406000200133600052845260ff60406000205416156134385760009081526003845260408082209282529184528181203380835260029091018552828220805460ff19169055815460169490940154925163a9059cbb60e01b81526004810191909152602481019290925290918391839160449183916001600160a01b03165af18015610aa65761342257005b816114b492903d10610a9f57610a908183613e56565b60405162461bcd60e51b815260048101859052604d60248201527f5665726966696572206861732065697468657220616c7265616479207265636960448201527f65766564207374616b652c206f7220646964206e6f74206170706c7920666f7260648201526c103b32b934b334b1b0ba34b7b760991b608482015260a490fd5b60405162461bcd60e51b815260048101859052602860248201527f566572696669636174696f6e20646561646c696e6520686173206e6f742079656044820152671d081c185cdcd95960c21b6064820152608490fd5b3461057e5760208060031936011261057e576004358060005260028252604060002090600383526040600020916013810192835490816000528552600260406000200133600052855260ff60406000205416156137805760098201546010830154806003029060038204036114b657613588904261413f565b11156137155760ff6014830154166009811015610568576002036136bc5790849183600052600583526040600020906000528252604060002033600052825260ff60406000205416600014613672576000805460169092015460405163a9059cbb60e01b81523360048201526024810191909152929183916001600160a01b039190911690829081604481015b03925af18015610aa657613655575b50600052600582526040600020905460005281526040600020903360005252604060002060ff198154169055600080f35b61366b90843d8611610a9f57610a908183613e56565b5083613624565b600080546016929092015460405163a9059cbb60e01b81523360048201526024810191909152945091925083916044918391906001600160a01b03165af18015610aa65761342257005b60405162461bcd60e51b815260048101869052602b60248201527f52657175657374204d75737420626520696e2063686f6f73696e67207665726960448201526a666965727320737461746560a81b6064820152608490fd5b60405162461bcd60e51b815260048101869052603f60248201527f5374696c6c20656e6f7567682074696d6520746f20706572666f726d20726f7560448201527f6e64206265666f726520766572696669636174696f6e20646561646c696e65006064820152608490fd5b60405162461bcd60e51b815260048101869052602760248201527f596f7520617265206e6f742074686520766572696669657220666f72207468696044820152661cc81c9bdd5b9960ca1b6064820152608490fd5b3461057e57602036600319011261057e576114b46004356144a4565b3461057e57602036600319011261057e576114b4600435614235565b3461057e5760208060031936011261057e57600435806000526002825260406000209060058352604060002091601381019283546000528452604060002033600052845260ff604060002054161561389f576000805460169092015460405163a9059cbb60e01b8152336004820152602481019190915291859183916001600160a01b03169082908160448101613615565b60405162461bcd60e51b815260048101859052604360248201527f456974686572207374616b652068617320616c7265616479206265656e20726560448201527f7475726e65642c206f72206e6f742074686520636f727265637420766572696660648201526234b2b960e91b608482015260a490fd5b3461057e5760208060031936011261057e57600435908160005260028152604060002060ff601482015416600981101561056857600503613a28578260005260038252601360406000209101549081600052825261397e6009604060002001544210156141c2565b82600052600382526040600020816000528252600a604060002001549083600052600383526040600020906000528252600c60406000200154036139c5576114b482614885565b6084906040519062461bcd60e51b82526004820152603660248201527f50726f766964657220616e73776572206861736820646f6573206e6f74206d616044820152750e8c6d040dac2d4dee4d2e8f240ecdee8ca40d0c2e6d60531b6064820152fd5b60405162461bcd60e51b815260048101839052602a60248201527f52657175657374206e6f742079657420696e20636f6d6d69746d656e742072656044820152697665616c20737461746560b01b6064820152608490fd5b3461057e57604036600319011261057e5760246004356001600160401b03823581811161057e57613ab5903690600401613ee4565b82600052602060028152604060002092601a840193845460028101809111613dd3574210613d6957613aed600882015442111561414c565b600f8101546001600160a01b03163303613d135780600b6007920161010061ff00198254161790550190835193600160401b8511613cfe5783908354868555808710613c84575b506000938452848420939891015b858910613b55574287556114b488614885565b8051805190848211613c6f5790869291613b6f8754613f79565b90601f91828111613c37575b5084918311600114613bc9578260019593869593613baf93600092613bbe5750508160011b916000199060031b1c19161790565b87555b01940198019792613b42565b015190508f8061284d565b90601f9493941983169188600052846000209260005b818110613c1f5750916001969391858897969410613c06575b505050831b83018755613bb2565b015160001960f88460031b161c191690558d8080613bf8565b8284015185558b966001909501949384019301613bdf565b613c60908960005286600020600585808801821c8301938a8910613c66575b01901c01906141ab565b8d613b7b565b93508293613c56565b83634e487b7160e01b60005260416004526000fd5b84600052868360002091820191015b818110613ca05750613b34565b600191929350613cb08154613f79565b80613cc1575b500190859291613c93565b601f908181118414613cda575050600081555b8b613cb6565b613cf56000928484528a8420920160051c82018583016141ab565b81835555613cd4565b87634e487b7160e01b60005260416004526000fd5b60405162461bcd60e51b8152600481018490526029818901527f4f6e6c792063686f73656e2070726f76696465722063616e20636f6d706c657460448201526819481c995c5d595cdd60ba1b6064820152608490fd5b60405162461bcd60e51b815260048101849052603d818901527f4d75737420776169742032207365636f6e6473206265666f726520726571756560448201527f73742063616e206265206d61726b656420617320636f6d706c657465640000006064820152608490fd5b87634e487b7160e01b60005260116004526000fd5b6103a081019081106001600160401b0382111761081057604052565b61012081019081106001600160401b0382111761081057604052565b602081019081106001600160401b0382111761081057604052565b608081019081106001600160401b0382111761081057604052565b90601f801991011681019081106001600160401b0382111761081057604052565b6001600160401b0381116108105760051b60200190565b81601f8201121561057e578035906001600160401b0382116108105760405192613ec2601f8401601f191660200185613e56565b8284526020838301011161057e57816000926020809301838601378301015290565b81601f8201121561057e57803591602091613efe84613e77565b93613f0c6040519586613e56565b808552838086019160051b8301019280841161057e57848301915b848310613f375750505050505090565b82356001600160401b03811161057e578691613f5884848094890101613e8e565b815201920191613f27565b604090600319011261057e576004359060243590565b90600182811c92168015613fa9575b6020831014613f9357565b634e487b7160e01b600052602260045260246000fd5b91607f1691613f88565b90604051918260008254613fc681613f79565b908184526020946001916001811690816000146140365750600114613ff7575b505050613ff592500383613e56565b565b600090815285812095935091905b81831061401e575050613ff59350820101388080613fe6565b85548884018501529485019487945091830191614005565b92505050613ff594925060ff191682840152151560051b820101388080613fe6565b919082519283825260005b848110614084575050826000602080949584010152601f8019910116010190565b602081830181015184830182015201614063565b9060098210156105685752565b90808251908181526020809101926020808460051b8301019501936000915b8483106140d45750505050505090565b90919293949584806140f2600193601f198682030187528a51614058565b98019301930191949392906140c4565b90815180825260208080930193019160005b828110614122575050505090565b83516001600160a01b031685529381019392810192600101614114565b919082018092116114b657565b1561415357565b60405162461bcd60e51b815260206004820152601b60248201527f436f6d7075746174696f6e20646561646c696e652070617373656400000000006044820152606490fd5b818102929181159184041417156114b657565b8181106141b6575050565b600081556001016141ab565b156141c957565b60405162461bcd60e51b815260206004820152602660248201527f636f6d6d69746d656e7420737461676520686173206e6f742079657420636f6d6044820152651c1b195d195960d21b6064820152608490fd5b9081602091031261057e5751801515810361057e5790565b600081815260026020908152604080832080546001600160a01b03908116939192903385900361444757600b84019460ff86541661440357839082600f87015416156143c957505060088401544211806143ba575b156143605790826142e2926142a8600a87015460158801549061413f565b90808954169087541689855180978195829463a9059cbb60e01b84526004840160209093929193604081019460018060a01b031681520152565b03925af19081156143575750926008926014927f1523a7600668f21efd095a2e4b78dc32da863f11b5b54ed0043034aeefd6442c979695614339575b505060ff1993600185825416179055019182541617905580a2565b8161434f92903d10610a9f57610a908183613e56565b50388061431e565b513d87823e3d90fd5b815162461bcd60e51b815260048101849052602d60248201527f436f6d7075746174696f6e20646561646c696e6520686173206e6f742079657460448201526c081899595b881c995858da1959609a1b6064820152608490fd5b5060ff855460081c161561428a565b8754600a870154855163a9059cbb60e01b81526001600160a01b0390931660048401526024830152909392849116818981604481016142e2565b825162461bcd60e51b815260048101859052601960248201527f5265717565737420616c726561647920636f6d706c65746564000000000000006044820152606490fd5b815162461bcd60e51b8152600481018490526024808201527f4f6e6c792074686520636f6e73756d65722063616e2077697468647261772066604482015263756e647360e01b6064820152608490fd5b919082039182116114b657565b600081815260026020908152604080832060038352818420601382015485528352818420600a810154600c9091015492939192141580614628575b156145d45761456c601483019360ff19946007868254161790558260018060a01b0380885416908654169061453961452e61452360018a015460158b01549061413f565b60028a01549061413f565b601789015490614497565b845163a9059cbb60e01b81526001600160a01b0390931660048401526024830152909384919082908a9082906044820190565b03925af1908115614357575092600192600b927f6d55d799468c2d702d8ff65d462b4e8dbbc88c728431aee69b205a3964362f079796956145b6575b5050019182541617905580a2565b816145cc92903d10610a9f57610a908183613e56565b5038806145a8565b60849083519062461bcd60e51b82526004820152602860248201527f5265717565737420697320616c726561647920696e20756e7375636365737366604482015267756c20737461746560c01b6064820152fd5b5060ff601483015416600981101561464357600714156144df565b634e487b7160e01b85526021600452602485fd5b81156114cc570490565b60001981146114b65760010190565b1561467757565b60405162461bcd60e51b8152602060048201526012602482015271496e73756666696369656e74207374616b6560701b6044820152606490fd5b156146b857565b60405162461bcd60e51b815260206004820152603d60248201527f4e6f7420656e6f7567682074696d6520746f20706572666f726d20726f756e6460448201527f206265666f726520766572696669636174696f6e20646561646c696e650000006064820152608490fd5b805482101561473b5760005260206000200190600090565b634e487b7160e01b600052603260045260246000fd5b90815491600160401b8310156108105782611382916001613ff595018155614723565b1561477b57565b60405162461bcd60e51b815260206004820152602d60248201527f596f7520617265206e6f74207468652063686f73656e2076657269666965722060448201526c1a5b881d1a1a5cc81c9bdd5b99609a1b6064820152608490fd5b9081546147e281613e77565b926147f06040519485613e56565b818452600090815260208082208186015b84841061480f575050505050565b600183819261481d85613fb3565b815201920193019290614801565b90604051918281549182825260209260208301916000526020600020936000905b82821061486257505050613ff592500383613e56565b85546001600160a01b03168452600195860195889550938101939091019061484c565b6000818152600260205260408120600f8101546001600160a01b0316156149ac57816040516148b381613e20565b52600d8101805483825580614993575b508252816040516148d381613e20565b52600e810180548382558061497a575b50825260148101600260ff198254161790556013810180549060018201809211614966576020927f7cdb7f0bd04877caf5dda7a202130926cdd67ad312dada203661ff6d88068434949260129255826019820155857f2d4e685f9af8cf88fb3e3447f1ee8e4e5e68423a2c393dc8d6e9784aa67ddafa6040519480a201548152a2565b634e487b7160e01b84526011600452602484fd5b8184526020842061498d918101906141ab565b386148e3565b818452602084206149a6918101906141ab565b386148c3565b60405162461bcd60e51b815260206004820152602760248201527f4d61696e2070726f766964657220686173206e6f7420796574206265656e2073604482015266195b1958dd195960ca1b6064820152608490fd5b9060008281526020600281526040938483209160128301805460118501541115614bbc5760098401549460108501805496600397808902908982040361496657614a4b904261413f565b1015614b5e5791886007601498999a84606096897f27e90e135bb91bf6706a23381e6d0d480f8bb7d002d6e9a197b432b7b654245f9997528c87528c8383209160138d01928354855289524260068686200155614aa981544261413f565b8c8552828a52858520845486528a528686862001558b84528189528484208354908186528a52614ae087878720015483549061413f565b908d8652838b528686209086528a52600886862001558b8452818952614b1a858520918454928387528b526008878720015490549061413f565b918c855289528484209084528852600984842001558982528c8752828220905482528652200154915491815193428552840152820152a2019060ff19825416179055565b885162461bcd60e51b815260048101859052603160248201527f566572696669636174696f6e20446561646c696e652068617320706173736564604482015270081d1bc81cdd185c9d0818481c9bdd5b99607a1b6064820152608490fd5b865162461bcd60e51b815260048101839052601e60248201527f416c6c206c61796572732068617665206265656e2070726f63657373656400006044820152606490fdfea2646970667358221220764db7a606dda51389b40e8e716c11564241e60a2910101e4063e9b3d2c3753164736f6c63430008170033","linkReferences":{}},"methodIdentifiers":{"MIN_VERIFIERS()":"53e2ba17","PROVIDER_STAKE_PERCENTAGE()":"5e16a9d8","alertVerifiersOfCompletedRequest(uint256)":"58042f62","applyForVerificationForRequest(uint256)":"6d8f9a0e","calculateMajorityAndReward(uint256,uint256)":"847ada57","cancelRequest(uint256)":"3015394c","chooseVerifiersForRequestTrigger(uint256)":"951c5ce2","compToken()":"6605dfa7","completeRequest(uint256,string[])":"0625f161","createRequest(uint256,uint256,uint256,uint256,string[],string,uint256,uint256,uint256,uint256,uint256,uint256)":"5f748f34","getRequestDetails(uint256)":"f34d4c63","getRoundDetails(uint256,uint256)":"ddf3532c","providerFailure(uint256)":"3295845c","providerSuccessCall(uint256)":"b10ceb59","requestCount()":"5badbe4c","requests(uint256)":"81d12c58","returnStake(uint256)":"275d95a1","returnStakeDueToTimeout(uint256)":"3d8a8ea7","revealCommitment(uint256,bool,bytes32,bytes32)":"bfdb3451","revealProviderKeyAndHash(uint256,bytes32,bytes32)":"e20fb7a1","roundDetails(uint256,uint256)":"8ea49eca","selectRequest(uint256)":"e03ad0d1","startNextRound(uint256)":"09008563","submitCommitment(uint256,bytes32)":"e6a3d9dc","verificationDeadlinePassedForVeryfying(uint256,uint256)":"4beda221"},"id":0}