{"abi":[{"type":"constructor","inputs":[{"name":"compTokenAddress","type":"address","internalType":"address"}],"stateMutability":"nonpayable"},{"type":"function","name":"MIN_VERIFIERS","inputs":[],"outputs":[{"name":"","type":"uint256","internalType":"uint256"}],"stateMutability":"view"},{"type":"function","name":"PROVIDER_STAKE_PERCENTAGE","inputs":[],"outputs":[{"name":"","type":"uint256","internalType":"uint256"}],"stateMutability":"view"},{"type":"function","name":"applyForVerificationForRequest","inputs":[{"name":"requestId","type":"uint256","internalType":"uint256"}],"outputs":[],"stateMutability":"nonpayable"},{"type":"function","name":"calculateMajorityAndReward","inputs":[{"name":"requestId","type":"uint256","internalType":"uint256"}],"outputs":[],"stateMutability":"nonpayable"},{"type":"function","name":"cancelRequest","inputs":[{"name":"requestId","type":"uint256","internalType":"uint256"}],"outputs":[],"stateMutability":"nonpayable"},{"type":"function","name":"compToken","inputs":[],"outputs":[{"name":"","type":"address","internalType":"contract IERC20"}],"stateMutability":"view"},{"type":"function","name":"completeRequest","inputs":[{"name":"requestId","type":"uint256","internalType":"uint256"},{"name":"outputFileURLs","type":"string[]","internalType":"string[]"}],"outputs":[],"stateMutability":"nonpayable"},{"type":"function","name":"createRequest","inputs":[{"name":"paymentForProvider","type":"uint256","internalType":"uint256"},{"name":"paymentPerRoundForVerifiers","type":"uint256","internalType":"uint256"},{"name":"numOperations","type":"uint256","internalType":"uint256"},{"name":"numVerifiers","type":"uint256","internalType":"uint256"},{"name":"inputFileURLs","type":"string[]","internalType":"string[]"},{"name":"operationFileURL","type":"string","internalType":"string"},{"name":"computationDeadline","type":"uint256","internalType":"uint256"},{"name":"verificationDeadline","type":"uint256","internalType":"uint256"},{"name":"timeAllocatedForVerification","type":"uint256","internalType":"uint256"},{"name":"numVerifiersSampleSize","type":"uint256","internalType":"uint256"},{"name":"protocolVersion","type":"uint256","internalType":"uint256"}],"outputs":[],"stateMutability":"nonpayable"},{"type":"function","name":"getRequestDetails","inputs":[{"name":"requestId","type":"uint256","internalType":"uint256"}],"outputs":[{"name":"","type":"tuple","internalType":"struct ComputationMarket.Request","components":[{"name":"consumer","type":"address","internalType":"address"},{"name":"paymentForProvider","type":"uint256","internalType":"uint256"},{"name":"totalPaymentForVerifiers","type":"uint256","internalType":"uint256"},{"name":"numOperations","type":"uint256","internalType":"uint256"},{"name":"numVerifiers","type":"uint256","internalType":"uint256"},{"name":"inputFileURLs","type":"string[]","internalType":"string[]"},{"name":"operationFileURL","type":"string","internalType":"string"},{"name":"outputFileURLs","type":"string[]","internalType":"string[]"},{"name":"computationDeadline","type":"uint256","internalType":"uint256"},{"name":"verificationDeadline","type":"uint256","internalType":"uint256"},{"name":"totalPayment","type":"uint256","internalType":"uint256"},{"name":"completed","type":"bool","internalType":"bool"},{"name":"hasBeenComputed","type":"bool","internalType":"bool"},{"name":"numVerifiersSampleSize","type":"uint256","internalType":"uint256"},{"name":"verifiers","type":"address[]","internalType":"address[]"},{"name":"chosenVerifiers","type":"address[]","internalType":"address[]"},{"name":"mainProvider","type":"address","internalType":"address"},{"name":"timeAllocatedForVerification","type":"uint256","internalType":"uint256"},{"name":"layerCount","type":"uint256","internalType":"uint256"},{"name":"layerComputeIndex","type":"uint256","internalType":"uint256"},{"name":"verificationStartTime","type":"uint256","internalType":"uint256"},{"name":"commitEndTime","type":"uint256","internalType":"uint256"},{"name":"commitmentRevealEndTime","type":"uint256","internalType":"uint256"},{"name":"providerRevealEndTime","type":"uint256","internalType":"uint256"},{"name":"roundIndex","type":"uint256","internalType":"uint256"},{"name":"mainProviderAnswerHash","type":"bytes32","internalType":"bytes32"},{"name":"state","type":"uint8","internalType":"enum ComputationMarket.RequestStates"},{"name":"stake","type":"uint256","internalType":"uint256"},{"name":"paymentPerRoundForVerifiers","type":"uint256","internalType":"uint256"},{"name":"totalPaidForVerification","type":"uint256","internalType":"uint256"},{"name":"protocolVersion","type":"uint256","internalType":"uint256"}]}],"stateMutability":"view"},{"type":"function","name":"getVerificationDetails","inputs":[{"name":"requestId","type":"uint256","internalType":"uint256"},{"name":"verifier","type":"address","internalType":"address"}],"outputs":[{"name":"","type":"tuple","internalType":"struct ComputationMarket.Verification","components":[{"name":"verifier","type":"address","internalType":"address"},{"name":"agree","type":"bool","internalType":"bool"},{"name":"answer","type":"bytes32","internalType":"bytes32"},{"name":"nonce","type":"bytes32","internalType":"bytes32"},{"name":"revealed","type":"bool","internalType":"bool"},{"name":"computedHash","type":"bytes32","internalType":"bytes32"}]}],"stateMutability":"view"},{"type":"function","name":"providerEarlySuccessCall","inputs":[{"name":"requestId","type":"uint256","internalType":"uint256"}],"outputs":[],"stateMutability":"nonpayable"},{"type":"function","name":"requestCount","inputs":[],"outputs":[{"name":"","type":"uint256","internalType":"uint256"}],"stateMutability":"view"},{"type":"function","name":"requests","inputs":[{"name":"","type":"uint256","internalType":"uint256"}],"outputs":[{"name":"consumer","type":"address","internalType":"address"},{"name":"paymentForProvider","type":"uint256","internalType":"uint256"},{"name":"totalPaymentForVerifiers","type":"uint256","internalType":"uint256"},{"name":"numOperations","type":"uint256","internalType":"uint256"},{"name":"numVerifiers","type":"uint256","internalType":"uint256"},{"name":"operationFileURL","type":"string","internalType":"string"},{"name":"computationDeadline","type":"uint256","internalType":"uint256"},{"name":"verificationDeadline","type":"uint256","internalType":"uint256"},{"name":"totalPayment","type":"uint256","internalType":"uint256"},{"name":"completed","type":"bool","internalType":"bool"},{"name":"hasBeenComputed","type":"bool","internalType":"bool"},{"name":"numVerifiersSampleSize","type":"uint256","internalType":"uint256"},{"name":"mainProvider","type":"address","internalType":"address"},{"name":"timeAllocatedForVerification","type":"uint256","internalType":"uint256"},{"name":"layerCount","type":"uint256","internalType":"uint256"},{"name":"layerComputeIndex","type":"uint256","internalType":"uint256"},{"name":"verificationStartTime","type":"uint256","internalType":"uint256"},{"name":"commitEndTime","type":"uint256","internalType":"uint256"},{"name":"commitmentRevealEndTime","type":"uint256","internalType":"uint256"},{"name":"providerRevealEndTime","type":"uint256","internalType":"uint256"},{"name":"roundIndex","type":"uint256","internalType":"uint256"},{"name":"mainProviderAnswerHash","type":"bytes32","internalType":"bytes32"},{"name":"state","type":"uint8","internalType":"enum ComputationMarket.RequestStates"},{"name":"stake","type":"uint256","internalType":"uint256"},{"name":"paymentPerRoundForVerifiers","type":"uint256","internalType":"uint256"},{"name":"totalPaidForVerification","type":"uint256","internalType":"uint256"},{"name":"protocolVersion","type":"uint256","internalType":"uint256"}],"stateMutability":"view"},{"type":"function","name":"revealCommitment","inputs":[{"name":"requestId","type":"uint256","internalType":"uint256"},{"name":"agree","type":"bool","internalType":"bool"},{"name":"answer","type":"bytes32","internalType":"bytes32"},{"name":"nonce","type":"bytes32","internalType":"bytes32"}],"outputs":[],"stateMutability":"nonpayable"},{"type":"function","name":"revealProviderKeyAndHash","inputs":[{"name":"requestId","type":"uint256","internalType":"uint256"},{"name":"privateKey","type":"bytes32","internalType":"bytes32"},{"name":"answerHash","type":"bytes32","internalType":"bytes32"}],"outputs":[],"stateMutability":"nonpayable"},{"type":"function","name":"selectRequest","inputs":[{"name":"requestId","type":"uint256","internalType":"uint256"}],"outputs":[],"stateMutability":"nonpayable"},{"type":"function","name":"submitCommitment","inputs":[{"name":"requestId","type":"uint256","internalType":"uint256"},{"name":"computedHash","type":"bytes32","internalType":"bytes32"}],"outputs":[],"stateMutability":"nonpayable"},{"type":"function","name":"verificationDeadlinePassedForVeryfying","inputs":[{"name":"requestId","type":"uint256","internalType":"uint256"}],"outputs":[],"stateMutability":"nonpayable"},{"type":"function","name":"verifications","inputs":[{"name":"","type":"uint256","internalType":"uint256"},{"name":"","type":"address","internalType":"address"}],"outputs":[{"name":"verifier","type":"address","internalType":"address"},{"name":"agree","type":"bool","internalType":"bool"},{"name":"answer","type":"bytes32","internalType":"bytes32"},{"name":"nonce","type":"bytes32","internalType":"bytes32"},{"name":"revealed","type":"bool","internalType":"bool"},{"name":"computedHash","type":"bytes32","internalType":"bytes32"}],"stateMutability":"view"},{"type":"event","name":"CommitmentPhaseStarted","inputs":[{"name":"requestId","type":"uint256","indexed":true,"internalType":"uint256"},{"name":"startTime","type":"uint256","indexed":false,"internalType":"uint256"},{"name":"endTime","type":"uint256","indexed":false,"internalType":"uint256"},{"name":"layerComputeIndex","type":"uint256","indexed":false,"internalType":"uint256"}],"anonymous":false},{"type":"event","name":"CommitmentSubmitted","inputs":[{"name":"requestId","type":"uint256","indexed":true,"internalType":"uint256"},{"name":"verifier","type":"address","indexed":true,"internalType":"address"}],"anonymous":false},{"type":"event","name":"NoMajorityForRound","inputs":[{"name":"requestId","type":"uint256","indexed":true,"internalType":"uint256"},{"name":"layerComputeIndex","type":"uint256","indexed":false,"internalType":"uint256"}],"anonymous":false},{"type":"event","name":"ProviderResultSuccessfullyVerified","inputs":[{"name":"requestId","type":"uint256","indexed":true,"internalType":"uint256"}],"anonymous":false},{"type":"event","name":"ProviderResultUnsuccessful","inputs":[{"name":"requestId","type":"uint256","indexed":true,"internalType":"uint256"}],"anonymous":false},{"type":"event","name":"ProviderRevealed","inputs":[{"name":"requestId","type":"uint256","indexed":true,"internalType":"uint256"},{"name":"privateKey","type":"bytes32","indexed":false,"internalType":"bytes32"},{"name":"answerHash","type":"bytes32","indexed":false,"internalType":"bytes32"}],"anonymous":false},{"type":"event","name":"ProviderSelected","inputs":[{"name":"requestId","type":"uint256","indexed":true,"internalType":"uint256"},{"name":"provider","type":"address","indexed":true,"internalType":"address"}],"anonymous":false},{"type":"event","name":"ProviderSlashed","inputs":[{"name":"requestId","type":"uint256","indexed":true,"internalType":"uint256"},{"name":"provider","type":"address","indexed":true,"internalType":"address"}],"anonymous":false},{"type":"event","name":"RequestCompleted","inputs":[{"name":"requestId","type":"uint256","indexed":true,"internalType":"uint256"},{"name":"provider","type":"address","indexed":true,"internalType":"address"}],"anonymous":false},{"type":"event","name":"RequestCreated","inputs":[{"name":"requestId","type":"uint256","indexed":true,"internalType":"uint256"},{"name":"consumer","type":"address","indexed":true,"internalType":"address"}],"anonymous":false},{"type":"event","name":"RevealVerificationDetails","inputs":[{"name":"requestId","type":"uint256","indexed":true,"internalType":"uint256"},{"name":"endTime","type":"uint256","indexed":false,"internalType":"uint256"},{"name":"verifier","type":"address","indexed":true,"internalType":"address"}],"anonymous":false},{"type":"event","name":"RoundInitialised","inputs":[{"name":"requestId","type":"uint256","indexed":true,"internalType":"uint256"}],"anonymous":false},{"type":"event","name":"RoundRevealStarted","inputs":[{"name":"requestId","type":"uint256","indexed":true,"internalType":"uint256"}],"anonymous":false},{"type":"event","name":"RoundStartedForVerificationSelection","inputs":[{"name":"requestId","type":"uint256","indexed":true,"internalType":"uint256"},{"name":"layerComputeIndex","type":"uint256","indexed":false,"internalType":"uint256"}],"anonymous":false},{"type":"event","name":"VerificationApplied","inputs":[{"name":"requestId","type":"uint256","indexed":true,"internalType":"uint256"},{"name":"verifier","type":"address","indexed":true,"internalType":"address"},{"name":"layerComputeIndex","type":"uint256","indexed":true,"internalType":"uint256"}],"anonymous":false},{"type":"event","name":"VerifierChosen","inputs":[{"name":"requestId","type":"uint256","indexed":true,"internalType":"uint256"},{"name":"verifier","type":"address","indexed":true,"internalType":"address"},{"name":"layerComputeIndex","type":"uint256","indexed":true,"internalType":"uint256"}],"anonymous":false},{"type":"event","name":"VoteSubmitted","inputs":[{"name":"requestId","type":"uint256","indexed":true,"internalType":"uint256"},{"name":"verifier","type":"address","indexed":true,"internalType":"address"},{"name":"agree","type":"bool","indexed":false,"internalType":"bool"}],"anonymous":false},{"type":"event","name":"requestCancelled","inputs":[{"name":"requestId","type":"uint256","indexed":true,"internalType":"uint256"}],"anonymous":false}],"bytecode":{"object":"0x608034620000c657601f6200428738819003918201601f19168301916001600160401b03831184841017620000cb57808492602094604052833981010312620000c657516001600160a01b03811690819003620000c65780156200008157600080546001600160a01b0319169190911790556040516141a59081620000e28239f35b60405162461bcd60e51b815260206004820152601560248201527f496e76616c696420746f6b656e206164647265737300000000000000000000006044820152606490fd5b600080fd5b634e487b7160e01b600052604160045260246000fdfe61026080604052600436101561001457600080fd5b60003560e01c90816304ae469b146123f5575080630625f161146121135780633015394c146120f75780634da0d1391461207c57806353e2ba17146120605780635badbe4c146120425780635e16a9d8146120265780636605dfa714611ffd5780636d8f9a0e14611fe157806381d12c5814611d69578063a6095d7c14611c18578063ad1279d914610e0e578063bfdb345114610bcd578063daf2a65a14610baf578063e03ad0d11461096b578063e20fb7a1146107a0578063e6a3d9dc14610665578063f34d4c63146101db5763f38f1047146100f157600080fd5b346101d65760c061010136612bf5565b90600060a060405161011281612ab2565b82815282602082015282604082015282606082015282608082015201526000526003602052604060002060018060a01b0380921660005260205260406000206040519061015e82612ab2565b80549283169283835260ff602084019160a01c16151581526001820154604084019081526002830154916060850192835260a0600460ff6003870154169560808801961515875201549501948552604051958652511515602086015251604085015251606084015251151560808301525160a0820152f35b600080fd5b346101d65760203660031901126101d65760006103c06040516101fd81612a96565b828152826020820152826040820152826060820152826080820152606060a0820152606060c0820152606060e08201528261010082015282610120820152826101408201528261016082015282610180820152826101a082015260606101c082015260606101e08201528261020082015282610220820152826102408201528261026082015282610280820152826102a0820152826102c0820152826102e08201528261030082015282610320820152826103408201528261036082015282610380820152826103a0820152015260043560005260026020526040600020604051906102e882612a96565b80546001600160a01b03168252600181015460208301526002810154604083015260038101546060830152600481015460808301526103296005820161388b565b60a083015261033a60068201612c55565b60c083015261034b6007820161388b565b60e083015260088101546101008301526009810154610120830152600a81015461014083015260ff600b820154818116151561016085015260081c161515610180830152600c8101546101a08301526103a6600d82016138e0565b6101c08301526103b8600e82016138e0565b6101e0830152600f8101546001600160a01b0316610200830152601081015461022083015260118101546102408301526012810154610260830152601381015461028083015260148101546102a083015260158101546102c083015260168101546102e083015260178101546103008301526018810154610320830152601981015460ff1690600982101561064f57601d91610340840152601a810154610360840152601b810154610380840152601c8101546103a084015201546103c082015260405180916020825260018060a01b038151166020830152602081015160408301526040810151606083015260608101516080830152608081015160a08301526103c061058c6105746105106104f96104e360a08701516103e060c08a0152610400890190612d47565b60c0870151888203601f190160e08a0152612cfa565b60e0860151878203601f1901610100890152612d47565b610100850151610120870152610120850151610140870152610140850151610160870152610160850151151561018087015261018085015115156101a08701526101a08501516101c08701526101c0850151601f19878303016101e0880152612da4565b6101e0840151858203601f1901610200870152612da4565b9160018060a01b03610200820151166102208501526102208101516102408501526102408101516102608501526102608101516102808501526102808101516102a08501526102a08101516102c08501526102c08101516102e08501526102e0810151610300850152610300810151610320850152610320810151610340850152610621610340820151610360860190612d3a565b6103608101516103808501526103808101516103a08501526103a08101518285015201516103e08301520390f35b634e487b7160e01b600052602160045260246000fd5b346101d65760403660031901126101d657600435806000526002602052604060002060ff601982015416600981101561064f5760030361074f57601401544211610711576106bb6106b6338361402a565b6135e5565b8060005260036020526040600020336000526020526003604060002060243560048201550160ff19815416905533907f22d30f6da93667100b64d15e5ea70afec217caeab1008706f57bfa4deed12c63600080a3005b60405162461bcd60e51b815260206004820152601660248201527510dbdb5b5a5d1b595b9d081c1a185cd948195b99195960521b6044820152606490fd5b60405162461bcd60e51b815260206004820152602360248201527f52657175657374206e6f742079657420696e20636f6d6d69746d656e7420737460448201526261746560e81b6064820152608490fd5b346101d65760603660031901126101d6576004356000818152600260205260409020600f810154604435906001600160a01b0316330361090b5760148201544211156108c6576016820154421161088157604051916020830191808352600160408501526040845260608401918483106001600160401b0384111761086b577f4b8ecdcde49a7d4d879a4bf5a6cc37c7086e65774f161d4bf99c01aaa1882f8994601960809260409686885283519020601882015501600460ff1982541617905560243584520152a2005b634e487b7160e01b600052604160045260246000fd5b60405162461bcd60e51b815260206004820152601b60248201527f50726f76696465722072657665616c20706861736520656e64656400000000006044820152606490fd5b60405162461bcd60e51b815260206004820152601a60248201527f436f6d6d69746d656e74207068617365206e6f7420656e6465640000000000006044820152606490fd5b60405162461bcd60e51b815260206004820152603260248201527f4f6e6c7920746865206d61696e2070726f76696465722063616e2072657665616044820152710d840e8d0ca40d6caf240c2dcc840d0c2e6d60731b6064820152608490fd5b346101d6576020806003193601126101d657600435908160005260028152604060002061099e6008820154421115612e6c565b600f810180546001600160a01b0393908416610b6b57601a830154600054604051636eb1769f60e11b8152336004820152306024820152919516908281604481855afa908115610b0157600091610b3e575b506040516370a0823160e01b8152336004820152908382602481865afa918215610b0157600092610b0d575b509186610a3d81610a6d94610a3660009b8998101561315c565b101561315c565b6040516323b872dd60e01b8152336004820152306024820152604481019190915296879283919082906064820190565b03925af18015610b0157601994610a8d92600092610ad4575b505061315c565b336001600160601b0360a01b82541617905501600160ff1982541617905533907f3c84569ae9be7c8e6e8edf0c0cbeb7e00cf9cb4d9b67849728be8ab96e09bec1600080a3005b610af39250803d10610afa575b610aeb8183612ae8565b810190612ee2565b8680610a86565b503d610ae1565b6040513d6000823e3d90fd5b9150918382813d8311610b37575b610b258183612ae8565b810103126101d6579051909186610a1c565b503d610b1b565b90508281813d8311610b64575b610b558183612ae8565b810103126101d65751876109f0565b503d610b4b565b6064906040519062461bcd60e51b82526004820152601960248201527f50726f766964657220616c72656164792073656c6563746564000000000000006044820152fd5b346101d65760203660031901126101d657610bcb60043561363e565b005b346101d65760803660031901126101d657600435602435908115158092036101d657604435916064359082600052602093600285526040600020916016830154421115610dc95760158301544211610d8f57610c2c6106b6338761402a565b846000526003865260406000203360005286526040600020916003830180549560ff8716610d4a57604051898101908482528260408201523360608201526060815260808101918183106001600160401b0384111761086b578260405281519020600488015403610d115750509160059593918593601996549260018601556002850155600160ff19809916179055339160ff60a01b9060a01b16906affffffffffffffffffffff60a81b161717905501918254161790557fb59f6416758d4763386b2c83d12c7c643131c90beff0caea486f303510702ce3604051924284523393a3005b9074496e76616c69642072657665616c2076616c75657360581b60c46064938d62461bcd60e51b85526084820152601560a48201520152fd5b60405162461bcd60e51b8152600481018a9052601b60248201527f436f6d6d69746d656e7420616c72656164792072657665616c656400000000006044820152606490fd5b60405162461bcd60e51b815260048101879052601260248201527114995d99585b081c1a185cd948195b99195960721b6044820152606490fd5b60405162461bcd60e51b815260048101879052601f60248201527f50726f76696465722072657665616c207068617365206e6f7420656e646564006044820152606490fd5b346101d6576101603660031901126101d6576084356001600160401b0381116101d657610e3f903690600401612b76565b60a4356001600160401b0381116101d657610e5e903690600401612b20565b906103e760443501604435116118c857610e906103e86103e76044350104610e8b61012435602435612eb8565b612eb8565b91610e9d83600435612de1565b600360643510611bd357600054604051636eb1769f60e11b81523360048201523060248201526001600160a01b0390911690602081604481855afa908115610b0157600091611ba1575b506040516370a0823160e01b8152336004820152602081602481865afa918215610b01578491600093611b6a575b5010611b09578211611aaa576040516323b872dd60e01b81523360048201523060248201526044810183905290602090829060649082906000905af1908115610b0157600091611a8b575b5015611a55574260c43511156119ea57610104356003610104350204600314610104351517156118c857610faf610fa7600361010435026103e86103e76044350104612eb8565b60c435612de1565b60e435111561196f5761012435606435106118de57604051610fd081612acd565b60008152610fe060c43542612de1565b610fec60e43542612de1565b9160405194610ffa86612acd565b600086526040519661100b88612acd565b60008852600435600a6004350204600a146004351517156118c857604051986110338a612a96565b338a5260043560208b015260408a015260443560608a015260643560808a015260a089015260c088015260e087015261010086015261012085015261014084015260006101608401526000610180840152610124356101a08401526101c08301526101e08201526000610200820152610104356102208201526103e86103e760443501046102408201526000610260820152600061028082015260006102a082015260006102c082015260006102e08201526000610300820152600061032082015260006103408201526064600a600435020461036082015260243561038082015260006103a0820152610144356103c08201526001546000526002602052604060002060018060a01b038251166001600160601b0360a01b8254161781556020820151600182015560408201516002820155606082015160038201556080820151600482015560a0820151805190600160401b821161086b57600583015482600585015580831061184f575b5060200190600583016000526020600020916000905b82821061173657858560c08201519182516001600160401b03811161086b576111e26006840154612c1b565b601f8111611701575b506020601f821160011461169357819061121e939495600092611688575b50508160011b916000199060031b1c19161790565b60068301555b60e0810151805190600160401b821161086b576007840154826007860155808310611610575b5060200190600784016000526020600020916000905b8282106114ea57858561010081015160088301556101208101516009830155610140810151600a830155600b82016101608201511515815460ff61ff00610180860151151560081b1692169061ffff1916171790556101a0810151600c8301556101c08101518051906001600160401b03821161086b57600160401b821161086b57602090600d85015483600d8701558084106114ca575b5001600d8401600052602060002060005b8381106114ad5785856101e08101518051906001600160401b03821161086b57600160401b821161086b57602090600e85015483600e87015580841061148d575b5001600e8401600052602060002060005b838110611470578585600f820160018060a01b03610200830151166001600160601b0360a01b82541617905561022081015160108301556102408101516011830155610260810151601283015561028081015160138301556102a081015160148301556102c081015160158301556102e0810151601683015561030081015160178301556103208101516018830155601982019061034081015190600982101561064f57601d926103c09260ff80198354169116179055610360810151601a850155610380810151601b8501556103a0810151601c8501550151910155611443600154612e1c565b8060015533907f233bb55fd57b21b8a3d15c9ad8fbbab435fe4cf2865cc654f6a57d9d4d8cda54600080a3005b82516001600160a01b03168183015560209092019160010161135b565b6114a790600e870160005284846000209182019101612ecb565b8561134a565b82516001600160a01b031681830155602090920191600101611309565b6114e490600d870160005284846000209182019101612ecb565b856112f8565b80518051906001600160401b03821161086b576115078654612c1b565b601f81116115d3575b50602090601f83116001146115635792611549836001959460209487966000926115585750508160011b916000199060031b1c19161790565b87555b01940191019092611260565b015190508c80611209565b908660005260206000209160005b601f19851681106115bb575083602093600196938796938794601f198116106115a2575b505050811b01875561154c565b015160001960f88460031b161c191690558b8080611595565b91926020600181928685015181550194019201611571565b61160090876000526020600020601f850160051c81019160208610611606575b601f0160051c0190612ecb565b88611510565b90915081906115f3565b600785016000526020600020908382015b818301811061163157505061124a565b8061163e60019254612c1b565b8061164b575b5001611621565b601f811183146116615750600081555b88611644565b60009082825261167f601f60208420920160051c8201858301612ecb565b8183555561165b565b015190508580611209565b6006840160005260206000209060005b601f19841681106116e95750600193949583601f198116106116d0575b505050811b016006830155611224565b015160001960f88460031b161c191690558480806116c0565b9091602060018192858a0151815501930191016116a3565b61173090600685016000526020600020601f840160051c8101916020851061160657601f0160051c0190612ecb565b846111eb565b80518051906001600160401b03821161086b576117538654612c1b565b90601f91828111611815575b5060209183116001146117a55792611796836001959460209487966000926115585750508160011b916000199060031b1c19161790565b87555b019401910190926111b6565b908660005260206000209160005b601f19851681106117fd575083602093600196938796938794601f198116106117e4575b505050811b018755611799565b015160001960f88460031b161c191690558b80806117d7565b919260206001819286850151815501940192016117b3565b611840908860005260206000208480870160051c82019260208810611846575b0160051c0190612ecb565b8961175f565b92508192611835565b600584016000526020600020908382015b81830181106118705750506111a0565b8061187d60019254612c1b565b8061188a575b5001611860565b601f9081811184146118a3575050600081555b88611883565b6118bf60009284845260208420920160051c8201858301612ecb565b8183555561189d565b634e487b7160e01b600052601160045260246000fd5b60405162461bcd60e51b815260206004820152605d60248201527f4e6f7420656e6f7567682076657269666965727320746f2063686f6f7365206660448201527f726f6d2e206e756d566572696669657273206d7573742062652067726561746560648201527f72207468616e206e756d56657269666965727353616d706c6553697a65000000608482015260a490fd5b60405162461bcd60e51b815260206004820152604760248201527f566572696669636174696f6e20646561646c696e65206d75737420626520737560448201527f6666696369656e7420656e6f75676820666f7220616c6c20726f756e64732072606482015266195c5d5a5c995960ca1b608482015260a490fd5b60405162461bcd60e51b815260206004820152603c60248201527f436f6d7075746174696f6e616c20646561646c696e65206d757374206265206760448201527f726561746572207468616e207468652063757272656e742074696d65000000006064820152608490fd5b60405162461bcd60e51b815260206004820152600e60248201526d14185e5b595b9d0819985a5b195960921b6044820152606490fd5b611aa4915060203d602011610afa57610aeb8183612ae8565b85610f60565b60405162461bcd60e51b815260206004820152603160248201527f496e73756666696369656e742062616c616e636520617661696c61626c6520746044820152701bc818dbdb991d58dd081c995c5d595cdd607a1b6064820152608490fd5b60405162461bcd60e51b815260206004820152603360248201527f496e73756666696369656e7420616c6c6f77616e636520617661696c61626c65604482015272081d1bc818dbdb991d58dd081c995c5d595cdd606a1b6064820152608490fd5b915091506020813d602011611b99575b81611b8760209383612ae8565b810103126101d6578390519188610f15565b3d9150611b7a565b90506020813d602011611bcb575b81611bbc60209383612ae8565b810103126101d6575186610ee7565b3d9150611baf565b60405162461bcd60e51b815260206004820152601d60248201527f4174206c656173742033207665726966696572732072657175697265640000006044820152606490fd5b346101d65760203660031901126101d6576004358060005260026020526040600020600981015442101580611d5b575b80611d40575b80611d31575b156101d657611ccc600b82019160ff1992600184825416179055602060018060a01b03806000541690600f8401541690611c97601a850154600186015490612de1565b60405163a9059cbb60e01b81526001600160a01b03909316600484015260248301529093849190829060009082906044820190565b03925af1908115610b0157600692601992611d12575b5001918254161790557f953601eba1acf6d4769af39f3986a5be6acd796655930c93832c2f239fbccabf600080a2005b611d2a9060203d602011610afa57610aeb8183612ae8565b5085611ce2565b5060ff600b8201541615611c54565b5060ff601982015416600981101561064f5760071415611c4e565b5060ff600b82015416611c48565b346101d65760203660031901126101d657600435600052600260205260406000206102405260018060a01b03610240515416600161024051015460026102405101546101405260036102405101546101605260046102405101546101a052611dd660066102405101612c55565b91600861024051015461012052600961024051015492600a610240510154600b610240510154600c61024051015460018060a01b03600f610240510154169060ff601061024051015493601161024051015495611efa60126102405101549860136102405101549a60146102405101549c6015610240510154608052601661024051015460a052601761024051015460e0526018610240510154610220528660196102405101541661020052601a6102405101546101e052601b6102405101546101c052601c61024051015461018052601d6102405101546101005260405160c0526103609160c05152602060c051015261014051604060c051015261016051606060c05101526101a051608060c05101528060a060c051015260c0510190612cfa565b9a6101205160c08051015260e060c051015261010060c0510152818116151561012060c051015260081c16151561014060c051015261016060c051015261018060c05101526101a060c05101526101c060c05101526101e060c051015261020060c051015261022060c051015260805161024060c051015260a05161026060c051015260e05161028060c0510152610220516102a060c0510152611fa76102c060c0510161020051612d3a565b6101e0516102e060c05101526101c05161030060c05101526101805161032060c05101526101005161034060c051015260c051900360c051f35b346101d65760203660031901126101d657610bcb60043561319d565b346101d65760003660031901126101d6576000546040516001600160a01b039091168152602090f35b346101d65760003660031901126101d6576020604051600a8152f35b346101d65760003660031901126101d6576020600154604051908152f35b346101d65760003660031901126101d657602060405160038152f35b346101d65760c061208c36612bf5565b906000526003602052604060002060018060a01b038092166000526020526040600020805490600181015460028201549060ff60048160038601541694015494604051968116875260a01c1615156020860152604085015260608401521515608083015260a0820152f35b346101d65760203660031901126101d657610bcb600435612efa565b346101d65760403660031901126101d65760246004356001600160401b0382358181116101d657612148903690600401612b76565b90826000526020906002825260406000206121696008820154421115612e6c565b600f8101546001600160a01b0316330361239e5780600b6007920161010061ff00198254161790550190835193600160401b851161086b5783908354868555808710612324575b506000938452848420939791015b8588106121f557610bcb8733817f1d961eb7779cdf87f83b3c5ca1e5a7b0b7832f5fc1f9b813fea6787daf0e884c600080a3613986565b805180519084821161230f579086929161220f8754612c1b565b90601f918281116122d7575b508491831160011461226957826001959386959361224f9360009261225e5750508160011b916000199060031b1c19161790565b87555b019401970196926121be565b015190508e80611209565b90601f9493941983169188600052846000209260005b8181106122bf57509160019693918588979694106122a6575b505050831b83018755612252565b015160001960f88460031b161c191690558c8080612298565b8284015185558b96600190950194938401930161227f565b612300908960005286600020600585808801821c8301938a8910612306575b01901c0190612ecb565b8c61221b565b935082936122f6565b83634e487b7160e01b60005260416004526000fd5b84600052868360002091820191015b81811061234057506121b0565b6001919293506123508154612c1b565b80612361575b500190859291612333565b601f90818111841461237a575050600081555b8a612356565b6123956000928484528a8420920160051c8201858301612ecb565b81835555612374565b60405162461bcd60e51b815260048101849052602960248201527f4f6e6c792063686f73656e2070726f76696465722063616e20636f6d706c657460448201526819481c995c5d595cdd60ba1b6064820152608490fd5b346101d65760203660031901126101d657600435600052600260205260406000209060158201544210612a45575060ff9060ff601982015416600981101561064f576005036129e3576000906000906001926017820154600181018091116118c8576017830155600c82019360005b855481101561263757600435600052600380602052604060002061248b83600e8801612dee565b60018060a01b03915490841b1c1660005260205287604060002091820154166124b8575b50600101612464565b600181015488825460a01c1660405191602083015215156040820152604081528060608101106001600160401b0360608301111761086b578060606125789201604052602081519101209160043560005260046020526040600020836000526020526040600020601788015460005260205260406000206125398154612e1c565b905560043560005260056020526040600020836000526020526040600020601788015460005260205260406000209060018060a01b0390541690612e2b565b600435600052600460205260406000208160005260205260406000206017860154908160005260205286604060002054146000146125c0575050905060016000915b906124af565b600435600052600460205260406000208260005260205260406000208160005260205286604060002054116125fa575b50506001906125ba565b92509450915060019060043560005260046020526040600020856000526020526040600020906000526020526001604060002054949290886125f0565b50156128e55760043560005260026020526040600020600560205260406000208260005260205260406000206017820154600052602052604060002090601b81015491612688600c83015484612eb8565b81549081156128cf570490601c830160005b8254811015612750576126ae848354612de1565b82556000546001600160a01b0390811691906020906126cd8387612dee565b94905460006126dc8c8b612de1565b966127176040519889968795869463a9059cbb60e01b865260031b1c166004840160209093929193604081019460018060a01b031681520152565b03925af1918215610b0157600192612731575b500161269a565b6127499060203d602011610afa57610aeb8183612ae8565b508861272a565b50505050601891500154146004356000526002602052604060002060128101916127826011845493019283541161393a565b156127cc578154905460001981019081116118c8578110156127b657506127a98154612e1c565b9055610bcb600435613986565b6127bf90612e1c565b9055610bcb600435614080565b505060043560005260026020526040600020612858602060018060a01b038060005416908454169061282361281861280d6001880154601a89015490612de1565b600288015490612de1565b601c87015490613631565b60405163a9059cbb60e01b81526001600160a01b03909316600484015260248301529092839190829060009082906044820190565b03925af18015610b01576128b0575b5060076019600b83019260ff199360018582541617905501918254161790556004357f6d55d799468c2d702d8ff65d462b4e8dbbc88c728431aee69b205a3964362f07600080a2005b6128c89060203d602011610afa57610aeb8183612ae8565b5081612867565b634e487b7160e01b600052601260045260246000fd5b5060043560005260026020526040600020600090600e8101601b8201925b81548110156129a2576000546001600160a01b0390811691906020906129298386612dee565b9054885460405163a9059cbb60e01b815260039390931b9190911c929092166001600160a01b031660048201526024810191909152928390816000816044810103925af1918215610b0157600192612983575b5001612903565b61299b9060203d602011610afa57610aeb8183612ae8565b508561297c565b50506012915001546040519081527fea43ae306415066aa09d5402571eb6506530e7a6011f5d797c85825dd9a6ef54602060043592a2610bcb600435613986565b60405162461bcd60e51b815260206004820152603460248201527f52657175657374206e6f7420696e20636f727265637420737461746520666f726044820152732063616c63756c6174696e67207265776172647360601b6064820152608490fd5b62461bcd60e51b815260206004820152602660248201527f636f6d6d69746d656e7420737461676520686173206e6f742079657420636f6d6044820152651c1b195d195960d21b6064820152608490fd5b6103e081019081106001600160401b0382111761086b57604052565b60c081019081106001600160401b0382111761086b57604052565b602081019081106001600160401b0382111761086b57604052565b90601f801991011681019081106001600160401b0382111761086b57604052565b6001600160401b03811161086b5760051b60200190565b81601f820112156101d6578035906001600160401b03821161086b5760405192612b54601f8401601f191660200185612ae8565b828452602083830101116101d657816000926020809301838601378301015290565b81601f820112156101d657803591602091612b9084612b09565b93612b9e6040519586612ae8565b808552838086019160051b830101928084116101d657848301915b848310612bc95750505050505090565b82356001600160401b0381116101d6578691612bea84848094890101612b20565b815201920191612bb9565b60409060031901126101d657600435906024356001600160a01b03811681036101d65790565b90600182811c92168015612c4b575b6020831014612c3557565b634e487b7160e01b600052602260045260246000fd5b91607f1691612c2a565b90604051918260008254612c6881612c1b565b90818452602094600191600181169081600014612cd85750600114612c99575b505050612c9792500383612ae8565b565b600090815285812095935091905b818310612cc0575050612c979350820101388080612c88565b85548884018501529485019487945091830191612ca7565b92505050612c9794925060ff191682840152151560051b820101388080612c88565b919082519283825260005b848110612d26575050826000602080949584010152601f8019910116010190565b602081830181015184830182015201612d05565b90600982101561064f5752565b90808251908181526020809101926020808460051b8301019501936000915b848310612d765750505050505090565b9091929394958480612d94600193601f198682030187528a51612cfa565b9801930193019194939290612d66565b90815180825260208080930193019160005b828110612dc4575050505090565b83516001600160a01b031685529381019392810192600101612db6565b919082018092116118c857565b8054821015612e065760005260206000200190600090565b634e487b7160e01b600052603260045260246000fd5b60001981146118c85760010190565b90815491600160401b83101561086b5782612e4e916001612c9795018155612dee565b90919060018060a01b038084549260031b9316831b921b1916179055565b15612e7357565b60405162461bcd60e51b815260206004820152601b60248201527f436f6d7075746174696f6e20646561646c696e652070617373656400000000006044820152606490fd5b818102929181159184041417156118c857565b818110612ed6575050565b60008155600101612ecb565b908160209103126101d6575180151581036101d65790565b600081815260026020908152604080832080546001600160a01b03908116939192903385900361310c57600b84019460ff8654166130c857839082600f870154161561308e575050600884015442118061307f575b15613025579082612fa792612f6d600a870154601a88015490612de1565b90808954169087541689855180978195829463a9059cbb60e01b84526004840160209093929193604081019460018060a01b031681520152565b03925af190811561301c5750926008926019927f1523a7600668f21efd095a2e4b78dc32da863f11b5b54ed0043034aeefd6442c979695612ffe575b505060ff1993600185825416179055019182541617905580a2565b8161301492903d10610afa57610aeb8183612ae8565b503880612fe3565b513d87823e3d90fd5b815162461bcd60e51b815260048101849052602d60248201527f436f6d7075746174696f6e20646561646c696e6520686173206e6f742079657460448201526c081899595b881c995858da1959609a1b6064820152608490fd5b5060ff855460081c1615612f4f565b8754600a870154855163a9059cbb60e01b81526001600160a01b039093166004840152602483015290939284911681898160448101612fa7565b825162461bcd60e51b815260048101859052601960248201527f5265717565737420616c726561647920636f6d706c65746564000000000000006044820152606490fd5b815162461bcd60e51b8152600481018490526024808201527f4f6e6c792074686520636f6e73756d65722063616e2077697468647261772066604482015263756e647360e01b6064820152608490fd5b1561316357565b60405162461bcd60e51b8152602060048201526012602482015271496e73756666696369656e74207374616b6560701b6044820152606490fd5b600081815260206002815260409182812060ff600b82015460081c16156135a157600f8101546001600160a01b03908116331461354157600d82019384549560049283850197885411156135065760ff60198601541660098110156134f3576002036134655785548251636eb1769f60e11b81523386820190815230602082015292909116918490829081906040010381855afa90811561345b57879161342a575b5082516370a0823160e01b815233868201528481602481865afa9081156134205791889391869385916133e5575b5061328a6132ba9392610a3692601b8c015493848093101561315c565b85516323b872dd60e01b815233898201908152306020820152604081019290925294859384928391606090910190565b03925af19081156133db57906132d79187916133be575b5061315c565b60098401546010850154806003029060038204036133ab576132f99042612de1565b101561339b576133093389613ad1565b61335a5750505060129061331d3385612e2b565b015490847f9e9159f67684b4639ef3d20a0878e965d2fa78dc33561fadb2485cd3d3447abf339280a4549054146133515750565b612c9790613b4e565b5162461bcd60e51b815291820152601860248201527f566572696669657220616c7265616479206170706c6965640000000000000000604482015260649150fd5b50505050505050612c979061363e565b634e487b7160e01b875260118552602487fd5b6133d59150843d8611610afa57610aeb8183612ae8565b386132d1565b82513d88823e3d90fd5b929450509181813d8311613419575b6133fe8183612ae8565b81010312613415575187928592909161328a61326d565b8780fd5b503d6133f4565b84513d8a823e3d90fd5b90508381813d8311613454575b6134418183612ae8565b8101031261345057513861323f565b8680fd5b503d613437565b83513d89823e3d90fd5b505162461bcd60e51b815291820152605960248201527f56657269666965722063616e6e6f74206170706c7920666f722076657269666960448201527f636174696f6e2e2052657175657374207374617465206d75737420626520696e60648201527f2063686f6f73696e672076657269666965727320737461746500000000000000608482015260a49150fd5b634e487b7160e01b875260218552602487fd5b505162461bcd60e51b815291820152601660248201527515995c9a599a595c881b1a5b5a5d081c995858da195960521b604482015260649150fd5b845162461bcd60e51b815260048101859052603360248201527f546865206d61696e2070726f76696465722063616e6e6f74206170706c79207460448201527237903132b1b7b6b29030903b32b934b334b2b960691b6064820152608490fd5b835162461bcd60e51b815260048101849052601860248201527f52657175657374206e6f742079657420636f6d707574656400000000000000006044820152606490fd5b156135ec57565b60405162461bcd60e51b815260206004820152601d60248201527f596f7520617265206e6f7420612063686f73656e2076657269666965720000006044820152606490fd5b919082039182116118c857565b906000918083526020906002825260409060408520936009850154601086015490600391806003029060038204036138775761367a9042612de1565b11156138215760ff601987015416600981101561380d576002036137b4579094601b81019190600d01875b8154808210156137a157600019810181811161378d576136c58185612dee565b90546001600160a01b0391871b1c8116929091901561377957918991836136ef6137379588612dee565b8154908a1b84901b1916905586558c5488548b5163a9059cbb60e01b81526001600160a01b0390941660048501526024840152919384929091169082908e9082906044820190565b03925af1801561376f579060019291613752575b50016136a5565b61376890893d8b11610afa57610aeb8183612ae8565b503861374b565b87513d8c823e3d90fd5b634e487b7160e01b8c52603160045260248cfd5b634e487b7160e01b8b52601160045260248bfd5b5050505050915050612c97919250614080565b60405162461bcd60e51b815260048101869052602b60248201527f52657175657374206d75737420626520696e2063686f6f73696e67207665726960448201526a666965727320737461746560a81b6064820152608490fd5b634e487b7160e01b88526021600452602488fd5b60405162461bcd60e51b815260048101869052602860248201527f566572696669636174696f6e20646561646c696e6520686173206e6f742079656044820152671d081c185cdcd95960c21b6064820152608490fd5b634e487b7160e01b89526011600452602489fd5b90815461389781612b09565b926138a56040519485612ae8565b818452600090815260208082208186015b8484106138c4575050505050565b60018381926138d285612c55565b8152019201930192906138b6565b90604051918281549182825260209260208301916000526020600020936000905b82821061391757505050612c9792500383612ae8565b85546001600160a01b031684526001958601958895509381019390910190613901565b1561394157565b60405162461bcd60e51b815260206004820152601e60248201527f416c6c206c61796572732068617665206265656e2070726f63657373656400006044820152606490fd5b6000818152600260205260408120600f8101546001600160a01b031615613a7c578160126020927f7cdb7f0bd04877caf5dda7a202130926cdd67ad312dada203661ff6d88068434946040516139db81612acd565b52600d8101805484825580613a64575b508352826040516139fb81612acd565b52600e8101805484825580613a4c575b50835260198101600260ff19825416179055857f2d4e685f9af8cf88fb3e3447f1ee8e4e5e68423a2c393dc8d6e9784aa67ddafa6040519480a201548152a2565b818552858520613a5e91810190612ecb565b38613a0b565b818552858520613a7691810190612ecb565b386139eb565b60405162461bcd60e51b815260206004820152602760248201527f4d61696e2070726f766964657220686173206e6f7420796574206265656e2073604482015266195b1958dd195960ca1b6064820152608490fd5b6000526002602052604060002090600d600092018054925b838110613af95750505050600090565b613b038183612dee565b905460039190911b1c6001600160a01b0390811690841614613b2757600101613ae9565b50505050600190565b8051821015612e065760209160051b010190565b81156128cf570690565b906000828152602091600283526040938483209160ff600b84015460081c1615613fdc57600d8301805496600c850197885411613f8d57600985015492601086015493600394808602908682040361387757613baa9042612de1565b11613f7b578298979854613bbf895482613631565b90613bc982612b09565b90613bd685519283612ae8565b828252601f19613be584612b09565b01368d8401378960603360601b915b858110613f0357505050508890601b8901915b838110613db7575050505086986012600e88019701995b8954811015613c795780613c3460019287612dee565b838060a01b03915490891b1c16613c4b818b612e2b565b8c5490897fa2d98506c7a3a4e1e4b581ad539462b4230b9af09ab4ef9086b03c5e52d430fd8d80a401613c1e565b509396955096509650508183526002815285832092601284015490613ca36011860154831061393a565b6009850154601086015491828802908882048403613da35750613cc69042612de1565b1015613d45579160609160199697987f27e90e135bb91bf6706a23381e6d0d480f8bb7d002d6e9a197b432b7b654245f94426013890155613d26613d0a8242612de1565b918260148b0155613d1b8184612de1565b8060168c0155612de1565b6015890155815193428552840152820152a2019060ff19825416179055565b875162461bcd60e51b815260048101849052603160248201527f566572696669636174696f6e20446561646c696e652068617320706173736564604482015270081d1bc81cdd185c9d0818481c9bdd5b99607a1b6064820152608490fd5b634e487b7160e01b81526011600452602490fd5b613dc481839e9d9e613b30565b51613ddb885491613dd58484613631565b90613b44565b90613de6828a612dee565b90546001600160a01b03918c1b1c81169290916000199190828101908111613eee5790612e4e848e613e258f613e1f8b613e3298613631565b90612dee565b9054911b1c16918d612dee565b8954908101908111613eda57828f928f92613e9295612e4e8e613e1f8a613e5895613631565b825488548c5163a9059cbb60e01b81526001600160a01b039094166004850152602484015291948593919092169183919082906044820190565b03925af18015613ed057600192918e91613eb2575b5050019b9a9b613c07565b81613ec892903d10610afa57610aeb8183612ae8565b508c38613ea7565b87513d8e823e3d90fd5b634e487b7160e01b8e52601160045260248efd5b50634e487b7160e01b8f52601160045260248ffd5b8e9d9e889695965190810190428252448a820152848482015260748381830152815260a081018181106001600160401b03821117613f665760019392613f4f9288928d52519020613b44565b613f598289613b30565b52019d9c9d949394613bf4565b50634e487b7160e01b8f52604160045260248ffd5b9750505050915050612c97915061363e565b5162461bcd60e51b815260048101879052602360248201527f4e6f7420656e6f7567682076657269666965727320746f2063686f6f73652066604482015262726f6d60e81b6064820152608490fd5b855162461bcd60e51b815260048101869052602160248201527f5265717565737420686173206e6f74206265656e20636f6d70757465642079656044820152601d60fa1b6064820152608490fd5b6000526002602052604060002090600e600092018054925b8381106140525750505050600090565b61405c8183612dee565b905460039190911b1c6001600160a01b0390811690841614613b2757600101614042565b6000818152600260205260408120600b81019060ff19916001838254161790556140ff602060018060a01b038086541690600f85015416906140cb601a860154600187015490612de1565b60405163a9059cbb60e01b81526001600160a01b039093166004840152602483015290928391908290889082906044820190565b03925af18015614164577f953601eba1acf6d4769af39f3986a5be6acd796655930c93832c2f239fbccabf949392600692601992614145575b50019182541617905580a2565b61415d9060203d602011610afa57610aeb8183612ae8565b5038614138565b6040513d86823e3d90fdfea26469706673582212208a39fdd2bdb49584a1ce00349856a9f6ad4b311905af21f0fd505b584810926d64736f6c63430008170033","linkReferences":{}},"methodIdentifiers":{"MIN_VERIFIERS()":"53e2ba17","PROVIDER_STAKE_PERCENTAGE()":"5e16a9d8","applyForVerificationForRequest(uint256)":"6d8f9a0e","calculateMajorityAndReward(uint256)":"04ae469b","cancelRequest(uint256)":"3015394c","compToken()":"6605dfa7","completeRequest(uint256,string[])":"0625f161","createRequest(uint256,uint256,uint256,uint256,string[],string,uint256,uint256,uint256,uint256,uint256)":"ad1279d9","getRequestDetails(uint256)":"f34d4c63","getVerificationDetails(uint256,address)":"f38f1047","providerEarlySuccessCall(uint256)":"a6095d7c","requestCount()":"5badbe4c","requests(uint256)":"81d12c58","revealCommitment(uint256,bool,bytes32,bytes32)":"bfdb3451","revealProviderKeyAndHash(uint256,bytes32,bytes32)":"e20fb7a1","selectRequest(uint256)":"e03ad0d1","submitCommitment(uint256,bytes32)":"e6a3d9dc","verificationDeadlinePassedForVeryfying(uint256)":"daf2a65a","verifications(uint256,address)":"4da0d139"},"id":1}