{"abi":[{"type":"constructor","inputs":[{"name":"compTokenAddress","type":"address","internalType":"address"}],"stateMutability":"nonpayable"},{"type":"function","name":"MIN_VERIFIERS","inputs":[],"outputs":[{"name":"","type":"uint256","internalType":"uint256"}],"stateMutability":"view"},{"type":"function","name":"PROVIDER_STAKE_PERCENTAGE","inputs":[],"outputs":[{"name":"","type":"uint256","internalType":"uint256"}],"stateMutability":"view"},{"type":"function","name":"applyForVerificationForRequest","inputs":[{"name":"requestId","type":"uint256","internalType":"uint256"}],"outputs":[],"stateMutability":"nonpayable"},{"type":"function","name":"calculateMajorityAndReward","inputs":[{"name":"requestId","type":"uint256","internalType":"uint256"}],"outputs":[],"stateMutability":"nonpayable"},{"type":"function","name":"cancelRequest","inputs":[{"name":"requestId","type":"uint256","internalType":"uint256"}],"outputs":[],"stateMutability":"nonpayable"},{"type":"function","name":"compToken","inputs":[],"outputs":[{"name":"","type":"address","internalType":"contract IERC20"}],"stateMutability":"view"},{"type":"function","name":"completeRequest","inputs":[{"name":"requestId","type":"uint256","internalType":"uint256"},{"name":"outputFileURLs","type":"string[]","internalType":"string[]"}],"outputs":[],"stateMutability":"nonpayable"},{"type":"function","name":"createRequest","inputs":[{"name":"paymentForProvider","type":"uint256","internalType":"uint256"},{"name":"paymentPerRoundForVerifiers","type":"uint256","internalType":"uint256"},{"name":"numOperations","type":"uint256","internalType":"uint256"},{"name":"numVerifiers","type":"uint256","internalType":"uint256"},{"name":"inputFileURLs","type":"string[]","internalType":"string[]"},{"name":"operationFileURL","type":"string","internalType":"string"},{"name":"computationDeadline","type":"uint256","internalType":"uint256"},{"name":"verificationDeadline","type":"uint256","internalType":"uint256"},{"name":"timeAllocatedForVerification","type":"uint256","internalType":"uint256"},{"name":"numVerifiersSampleSize","type":"uint256","internalType":"uint256"},{"name":"protocolVersion","type":"uint256","internalType":"uint256"}],"outputs":[],"stateMutability":"nonpayable"},{"type":"function","name":"getRequestDetails","inputs":[{"name":"requestId","type":"uint256","internalType":"uint256"}],"outputs":[{"name":"","type":"tuple","internalType":"struct ComputationMarket.Request","components":[{"name":"consumer","type":"address","internalType":"address"},{"name":"paymentForProvider","type":"uint256","internalType":"uint256"},{"name":"totalPaymentForVerifiers","type":"uint256","internalType":"uint256"},{"name":"numOperations","type":"uint256","internalType":"uint256"},{"name":"numVerifiers","type":"uint256","internalType":"uint256"},{"name":"inputFileURLs","type":"string[]","internalType":"string[]"},{"name":"operationFileURL","type":"string","internalType":"string"},{"name":"outputFileURLs","type":"string[]","internalType":"string[]"},{"name":"computationDeadline","type":"uint256","internalType":"uint256"},{"name":"verificationDeadline","type":"uint256","internalType":"uint256"},{"name":"totalPayment","type":"uint256","internalType":"uint256"},{"name":"completed","type":"bool","internalType":"bool"},{"name":"hasBeenComputed","type":"bool","internalType":"bool"},{"name":"numVerifiersSampleSize","type":"uint256","internalType":"uint256"},{"name":"verifiers","type":"address[]","internalType":"address[]"},{"name":"chosenVerifiers","type":"address[]","internalType":"address[]"},{"name":"mainProvider","type":"address","internalType":"address"},{"name":"timeAllocatedForVerification","type":"uint256","internalType":"uint256"},{"name":"layerCount","type":"uint256","internalType":"uint256"},{"name":"layerComputeIndex","type":"uint256","internalType":"uint256"},{"name":"verificationStartTime","type":"uint256","internalType":"uint256"},{"name":"commitEndTime","type":"uint256","internalType":"uint256"},{"name":"commitmentRevealEndTime","type":"uint256","internalType":"uint256"},{"name":"providerRevealEndTime","type":"uint256","internalType":"uint256"},{"name":"roundIndex","type":"uint256","internalType":"uint256"},{"name":"mainProviderAnswerHash","type":"bytes32","internalType":"bytes32"},{"name":"state","type":"uint8","internalType":"enum ComputationMarket.RequestStates"},{"name":"stake","type":"uint256","internalType":"uint256"},{"name":"paymentPerRoundForVerifiers","type":"uint256","internalType":"uint256"},{"name":"totalPaidForVerification","type":"uint256","internalType":"uint256"},{"name":"protocolVersion","type":"uint256","internalType":"uint256"},{"name":"majorityVoteHash","type":"bytes32","internalType":"bytes32"},{"name":"majorityCount","type":"uint256","internalType":"uint256"},{"name":"existMajority","type":"bool","internalType":"bool"}]}],"stateMutability":"view"},{"type":"function","name":"getVerificationDetails","inputs":[{"name":"requestId","type":"uint256","internalType":"uint256"},{"name":"verifier","type":"address","internalType":"address"}],"outputs":[{"name":"","type":"tuple","internalType":"struct ComputationMarket.Verification","components":[{"name":"verifier","type":"address","internalType":"address"},{"name":"agree","type":"bool","internalType":"bool"},{"name":"answer","type":"bytes32","internalType":"bytes32"},{"name":"nonce","type":"bytes32","internalType":"bytes32"},{"name":"revealed","type":"bool","internalType":"bool"},{"name":"computedHash","type":"bytes32","internalType":"bytes32"}]}],"stateMutability":"view"},{"type":"function","name":"providerEarlySuccessCall","inputs":[{"name":"requestId","type":"uint256","internalType":"uint256"}],"outputs":[],"stateMutability":"nonpayable"},{"type":"function","name":"requestCount","inputs":[],"outputs":[{"name":"","type":"uint256","internalType":"uint256"}],"stateMutability":"view"},{"type":"function","name":"requests","inputs":[{"name":"","type":"uint256","internalType":"uint256"}],"outputs":[{"name":"consumer","type":"address","internalType":"address"},{"name":"paymentForProvider","type":"uint256","internalType":"uint256"},{"name":"totalPaymentForVerifiers","type":"uint256","internalType":"uint256"},{"name":"numOperations","type":"uint256","internalType":"uint256"},{"name":"numVerifiers","type":"uint256","internalType":"uint256"},{"name":"operationFileURL","type":"string","internalType":"string"},{"name":"computationDeadline","type":"uint256","internalType":"uint256"},{"name":"verificationDeadline","type":"uint256","internalType":"uint256"},{"name":"totalPayment","type":"uint256","internalType":"uint256"},{"name":"completed","type":"bool","internalType":"bool"},{"name":"hasBeenComputed","type":"bool","internalType":"bool"},{"name":"numVerifiersSampleSize","type":"uint256","internalType":"uint256"},{"name":"mainProvider","type":"address","internalType":"address"},{"name":"timeAllocatedForVerification","type":"uint256","internalType":"uint256"},{"name":"layerCount","type":"uint256","internalType":"uint256"},{"name":"layerComputeIndex","type":"uint256","internalType":"uint256"},{"name":"verificationStartTime","type":"uint256","internalType":"uint256"},{"name":"commitEndTime","type":"uint256","internalType":"uint256"},{"name":"commitmentRevealEndTime","type":"uint256","internalType":"uint256"},{"name":"providerRevealEndTime","type":"uint256","internalType":"uint256"},{"name":"roundIndex","type":"uint256","internalType":"uint256"},{"name":"mainProviderAnswerHash","type":"bytes32","internalType":"bytes32"},{"name":"state","type":"uint8","internalType":"enum ComputationMarket.RequestStates"},{"name":"stake","type":"uint256","internalType":"uint256"},{"name":"paymentPerRoundForVerifiers","type":"uint256","internalType":"uint256"},{"name":"totalPaidForVerification","type":"uint256","internalType":"uint256"},{"name":"protocolVersion","type":"uint256","internalType":"uint256"},{"name":"majorityVoteHash","type":"bytes32","internalType":"bytes32"},{"name":"majorityCount","type":"uint256","internalType":"uint256"},{"name":"existMajority","type":"bool","internalType":"bool"}],"stateMutability":"view"},{"type":"function","name":"revealCommitment","inputs":[{"name":"requestId","type":"uint256","internalType":"uint256"},{"name":"agree","type":"bool","internalType":"bool"},{"name":"answer","type":"bytes32","internalType":"bytes32"},{"name":"nonce","type":"bytes32","internalType":"bytes32"}],"outputs":[],"stateMutability":"nonpayable"},{"type":"function","name":"revealProviderKeyAndHash","inputs":[{"name":"requestId","type":"uint256","internalType":"uint256"},{"name":"privateKey","type":"bytes32","internalType":"bytes32"},{"name":"answerHash","type":"bytes32","internalType":"bytes32"}],"outputs":[],"stateMutability":"nonpayable"},{"type":"function","name":"selectRequest","inputs":[{"name":"requestId","type":"uint256","internalType":"uint256"}],"outputs":[],"stateMutability":"nonpayable"},{"type":"function","name":"submitCommitment","inputs":[{"name":"requestId","type":"uint256","internalType":"uint256"},{"name":"computedHash","type":"bytes32","internalType":"bytes32"}],"outputs":[],"stateMutability":"nonpayable"},{"type":"function","name":"verificationDeadlinePassedForVeryfying","inputs":[{"name":"requestId","type":"uint256","internalType":"uint256"}],"outputs":[],"stateMutability":"nonpayable"},{"type":"function","name":"verifications","inputs":[{"name":"","type":"uint256","internalType":"uint256"},{"name":"","type":"address","internalType":"address"}],"outputs":[{"name":"verifier","type":"address","internalType":"address"},{"name":"agree","type":"bool","internalType":"bool"},{"name":"answer","type":"bytes32","internalType":"bytes32"},{"name":"nonce","type":"bytes32","internalType":"bytes32"},{"name":"revealed","type":"bool","internalType":"bool"},{"name":"computedHash","type":"bytes32","internalType":"bytes32"}],"stateMutability":"view"},{"type":"event","name":"CommitmentPhaseStarted","inputs":[{"name":"requestId","type":"uint256","indexed":true,"internalType":"uint256"},{"name":"startTime","type":"uint256","indexed":false,"internalType":"uint256"},{"name":"endTime","type":"uint256","indexed":false,"internalType":"uint256"},{"name":"layerComputeIndex","type":"uint256","indexed":false,"internalType":"uint256"}],"anonymous":false},{"type":"event","name":"CommitmentSubmitted","inputs":[{"name":"requestId","type":"uint256","indexed":true,"internalType":"uint256"},{"name":"verifier","type":"address","indexed":true,"internalType":"address"}],"anonymous":false},{"type":"event","name":"NoMajorityForRound","inputs":[{"name":"requestId","type":"uint256","indexed":true,"internalType":"uint256"},{"name":"layerComputeIndex","type":"uint256","indexed":false,"internalType":"uint256"}],"anonymous":false},{"type":"event","name":"ProviderResultSuccessfullyVerified","inputs":[{"name":"requestId","type":"uint256","indexed":true,"internalType":"uint256"}],"anonymous":false},{"type":"event","name":"ProviderResultUnsuccessful","inputs":[{"name":"requestId","type":"uint256","indexed":true,"internalType":"uint256"}],"anonymous":false},{"type":"event","name":"ProviderRevealed","inputs":[{"name":"requestId","type":"uint256","indexed":true,"internalType":"uint256"},{"name":"privateKey","type":"bytes32","indexed":false,"internalType":"bytes32"},{"name":"answerHash","type":"bytes32","indexed":false,"internalType":"bytes32"}],"anonymous":false},{"type":"event","name":"ProviderSelected","inputs":[{"name":"requestId","type":"uint256","indexed":true,"internalType":"uint256"},{"name":"provider","type":"address","indexed":true,"internalType":"address"}],"anonymous":false},{"type":"event","name":"ProviderSlashed","inputs":[{"name":"requestId","type":"uint256","indexed":true,"internalType":"uint256"},{"name":"provider","type":"address","indexed":true,"internalType":"address"}],"anonymous":false},{"type":"event","name":"RequestCompleted","inputs":[{"name":"requestId","type":"uint256","indexed":true,"internalType":"uint256"},{"name":"provider","type":"address","indexed":true,"internalType":"address"}],"anonymous":false},{"type":"event","name":"RequestCreated","inputs":[{"name":"requestId","type":"uint256","indexed":true,"internalType":"uint256"},{"name":"consumer","type":"address","indexed":true,"internalType":"address"}],"anonymous":false},{"type":"event","name":"RevealVerificationDetails","inputs":[{"name":"requestId","type":"uint256","indexed":true,"internalType":"uint256"},{"name":"endTime","type":"uint256","indexed":false,"internalType":"uint256"},{"name":"verifier","type":"address","indexed":true,"internalType":"address"}],"anonymous":false},{"type":"event","name":"RoundInitialised","inputs":[{"name":"requestId","type":"uint256","indexed":true,"internalType":"uint256"}],"anonymous":false},{"type":"event","name":"RoundRevealStarted","inputs":[{"name":"requestId","type":"uint256","indexed":true,"internalType":"uint256"}],"anonymous":false},{"type":"event","name":"RoundStartedForVerificationSelection","inputs":[{"name":"requestId","type":"uint256","indexed":true,"internalType":"uint256"},{"name":"layerComputeIndex","type":"uint256","indexed":false,"internalType":"uint256"}],"anonymous":false},{"type":"event","name":"VerificationApplied","inputs":[{"name":"requestId","type":"uint256","indexed":true,"internalType":"uint256"},{"name":"verifier","type":"address","indexed":true,"internalType":"address"},{"name":"layerComputeIndex","type":"uint256","indexed":true,"internalType":"uint256"}],"anonymous":false},{"type":"event","name":"VerifierChosen","inputs":[{"name":"requestId","type":"uint256","indexed":true,"internalType":"uint256"},{"name":"verifier","type":"address","indexed":true,"internalType":"address"},{"name":"layerComputeIndex","type":"uint256","indexed":true,"internalType":"uint256"}],"anonymous":false},{"type":"event","name":"VoteSubmitted","inputs":[{"name":"requestId","type":"uint256","indexed":true,"internalType":"uint256"},{"name":"verifier","type":"address","indexed":true,"internalType":"address"},{"name":"agree","type":"bool","indexed":false,"internalType":"bool"}],"anonymous":false},{"type":"event","name":"requestCancelled","inputs":[{"name":"requestId","type":"uint256","indexed":true,"internalType":"uint256"}],"anonymous":false}],"bytecode":{"object":"0x608034620000c657601f6200434338819003918201601f19168301916001600160401b03831184841017620000cb57808492602094604052833981010312620000c657516001600160a01b03811690819003620000c65780156200008157600080546001600160a01b0319169190911790556040516142619081620000e28239f35b60405162461bcd60e51b815260206004820152601560248201527f496e76616c696420746f6b656e206164647265737300000000000000000000006044820152606490fd5b600080fd5b634e487b7160e01b600052604160045260246000fdfe6102c080604052600436101561001457600080fd5b60003560e01c90816304ae469b1461266d575080630625f1611461238b5780633015394c1461236f5780634da0d139146122f457806353e2ba17146122d85780635badbe4c146122ba5780635e16a9d81461229e5780636605dfa7146122755780636d8f9a0e1461225957806381d12c5814611f95578063a6095d7c14611e44578063ad1279d914610fec578063bfdb345114610c2e578063daf2a65a14610c10578063e03ad0d1146109cc578063e20fb7a114610801578063e6a3d9dc146106c6578063f34d4c63146101db5763f38f1047146100f157600080fd5b346101d65760c061010136612c6a565b90600060a060405161011281612b27565b82815282602082015282604082015282606082015282608082015201526000526003602052604060002060018060a01b0380921660005260205260406000206040519061015e82612b27565b80549283169283835260ff602084019160a01c16151581526001820154604084019081526002830154916060850192835260a0600460ff6003870154169560808801961515875201549501948552604051958652511515602086015251604085015251606084015251151560808301525160a0820152f35b600080fd5b346101d65760203660031901126101d65760006104206040516101fd81612b0b565b828152826020820152826040820152826060820152826080820152606060a0820152606060c0820152606060e08201528261010082015282610120820152826101408201528261016082015282610180820152826101a082015260606101c082015260606101e08201528261020082015282610220820152826102408201528261026082015282610280820152826102a0820152826102c0820152826102e08201528261030082015282610320820152826103408201528261036082015282610380820152826103a0820152826103c0820152826103e082015282610400820152015260043560005260026020526040600020604051906102fd82612b0b565b80546001600160a01b031682526001810154602083015260028101546040830152600381015460608301526004810154608083015261033e60058201613900565b60a083015261034f60068201612cca565b60c083015261036060078201613900565b60e083015260088101546101008301526009810154610120830152600a81015461014083015260ff600b820154818116151561016085015260081c161515610180830152600c8101546101a08301526103bb600d8201613955565b6101c08301526103cd600e8201613955565b6101e0830152600f8101546001600160a01b0316610200830152601081015461022083015260118101546102408301526012810154610260830152601381015461028083015260148101546102a083015260158101546102c083015260168101546102e083015260178101546103008301526018810154610320830152601981015460ff1660098110156106b05760ff91602091610340850152601a810154610360850152601b810154610380850152601c8101546103a0850152601d8101546103c0850152601e8101546103e0850152601f810154610400850152015416151561042082015260405180916020825260018060a01b038151166020830152602081015160408301526040810151606083015260608101516080830152608081015160a08301526104206105c76105af61054b61053461051e60a087015161044060c08a0152610460890190612dbc565b60c0870151888203601f190160e08a0152612d6f565b60e0860151878203601f1901610100890152612dbc565b610100850151610120870152610120850151610140870152610140850151610160870152610160850151151561018087015261018085015115156101a08701526101a08501516101c08701526101c0850151601f19878303016101e0880152612e19565b6101e0840151858203601f1901610200870152612e19565b9160018060a01b03610200820151166102208501526102208101516102408501526102408101516102608501526102608101516102808501526102808101516102a08501526102a08101516102c08501526102c08101516102e08501526102e081015161030085015261030081015161032085015261032081015161034085015261065c610340820151610360860190612daf565b6103608101516103808501526103808101516103a08501526103a08101516103c08501526103c08101516103e08501526103e081015161040085015261040081015182850152015115156104408301520390f35b634e487b7160e01b600052602160045260246000fd5b346101d65760403660031901126101d657600435806000526002602052604060002060ff60198201541660098110156106b0576003036107b0576014015442116107725761071c61071733836140e6565b61365a565b8060005260036020526040600020336000526020526003604060002060243560048201550160ff19815416905533907f22d30f6da93667100b64d15e5ea70afec217caeab1008706f57bfa4deed12c63600080a3005b60405162461bcd60e51b815260206004820152601660248201527510dbdb5b5a5d1b595b9d081c1a185cd948195b99195960521b6044820152606490fd5b60405162461bcd60e51b815260206004820152602360248201527f52657175657374206e6f742079657420696e20636f6d6d69746d656e7420737460448201526261746560e81b6064820152608490fd5b346101d65760603660031901126101d6576004356000818152600260205260409020600f810154604435906001600160a01b0316330361096c57601482015442111561092757601682015442116108e257604051916020830191808352600160408501526040845260608401918483106001600160401b038411176108cc577f4b8ecdcde49a7d4d879a4bf5a6cc37c7086e65774f161d4bf99c01aaa1882f8994601960809260409686885283519020601882015501600460ff1982541617905560243584520152a2005b634e487b7160e01b600052604160045260246000fd5b60405162461bcd60e51b815260206004820152601b60248201527f50726f76696465722072657665616c20706861736520656e64656400000000006044820152606490fd5b60405162461bcd60e51b815260206004820152601a60248201527f436f6d6d69746d656e74207068617365206e6f7420656e6465640000000000006044820152606490fd5b60405162461bcd60e51b815260206004820152603260248201527f4f6e6c7920746865206d61696e2070726f76696465722063616e2072657665616044820152710d840e8d0ca40d6caf240c2dcc840d0c2e6d60731b6064820152608490fd5b346101d6576020806003193601126101d65760043590816000526002815260406000206109ff6008820154421115612e56565b600f810180546001600160a01b0393908416610bcc57601a830154600054604051636eb1769f60e11b8152336004820152306024820152919516908281604481855afa908115610b6257600091610b9f575b506040516370a0823160e01b8152336004820152908382602481865afa918215610b6257600092610b6e575b509186610a9e81610ace94610a9760009b89981015613153565b1015613153565b6040516323b872dd60e01b8152336004820152306024820152604481019190915296879283919082906064820190565b03925af18015610b6257601994610aee92600092610b35575b5050613153565b336001600160601b0360a01b82541617905501600160ff1982541617905533907f3c84569ae9be7c8e6e8edf0c0cbeb7e00cf9cb4d9b67849728be8ab96e09bec1600080a3005b610b549250803d10610b5b575b610b4c8183612b5d565b810190612ecc565b8680610ae7565b503d610b42565b6040513d6000823e3d90fd5b9150918382813d8311610b98575b610b868183612b5d565b810103126101d6579051909186610a7d565b503d610b7c565b90508281813d8311610bc5575b610bb68183612b5d565b810103126101d6575187610a51565b503d610bac565b6064906040519062461bcd60e51b82526004820152601960248201527f50726f766964657220616c72656164792073656c6563746564000000000000006044820152fd5b346101d65760203660031901126101d657610c2c6004356136b3565b005b346101d65760803660031901126101d65760043560249081358015158091036101d657604435926064359183600052602094600286526040600020926016840154421115610fa95760158401544211610f7157610c8e61071733886140e6565b85600052600387526040600020336000528752604060002092600384019081549660ff8816610f2d57604051928a8401938685528260408201523360608201526060815260808101906001600160401b039581831087841117610f1857826040528151902060048a015403610edf5750508654918660018901556002880155600160ff19809a16179055339160ff60a01b9060a01b16906affffffffffffffffffffff60a81b1617179182855560ff604051938a850195865260a01c161515604084015260408352606083019183831090831117610ecb57509160199391600595936040525190209086600052600488526040600020826000528852610dde604060002091601785019283546000528a526040600020610dae815461364b565b90556000898152878b5260408082208683528c52808220855483528c52902090546001600160a01b0316906131c2565b86600052600488526040600020826000528852604060002090549081600052885260406000205490601f8401918254809114600014610e5a57505050508581018481541690555b01918254161790557fb59f6416758d4763386b2c83d12c7c643131c90beff0caea486f303510702ce3604051924284523393a3005b8860005260048a526040600020846000528a526040600020826000528a5260406000205411610e8c575b505050610e25565b8884016001888254161790558760005260048952604060002083600052895260406000209060005288526040600020549055601e820155868080610e84565b634e487b7160e01b60009081526041600452fd5b9074496e76616c69642072657665616c2076616c75657360581b60c46064938f62461bcd60e51b85526084820152601560a48201520152fd5b87634e487b7160e01b60005260416004526000fd5b60405162461bcd60e51b8152600481018b9052601b818601527f436f6d6d69746d656e7420616c72656164792072657665616c656400000000006044820152606490fd5b8660126064926040519262461bcd60e51b845260048401528201527114995d99585b081c1a185cd948195b99195960721b6044820152fd5b86601f6064926040519262461bcd60e51b845260048401528201527f50726f76696465722072657665616c207068617365206e6f7420656e646564006044820152fd5b346101d6576101603660031901126101d6576084356001600160401b0381116101d65761101d903690600401612beb565b60a4356001600160401b0381116101d65761103c903690600401612b95565b906103e7604435018060443511611af4576110696103e8820461106461012435602435612ea2565b612ea2565b9261107684600435612ee4565b600360643510611dff57600054604051636eb1769f60e11b81523360048201523060248201526001600160a01b0390911690602081604481855afa908115610b6257600091611dcd575b506040516370a0823160e01b8152336004820152602081602481865afa918215610b62578491600093611d96575b5010611d35578211611cd6576040516323b872dd60e01b81523360048201523060248201526044810183905290602090829060649082906000905af1908115610b6257600091611cb7575b5015611c81574260c4351115611c165761010435600361010435020460031461010435151715611af45761118261117a600361010435026103e88604612ea2565b60c435612ee4565b60e4351115611b9b576101243560643510611b0a57604051906111a482612b42565b600082526111b460c43542612ee4565b6111c060e43542612ee4565b90604051936111ce85612b42565b60008552604051956111df87612b42565b60008752600435600a6004350204600a14600435151715611af4576103e8986040519a61120b8c612b0b565b338c5260043560208d015260408c015260443560608c015260643560808c015260a08b015260c08a015260e089015261010088015261012087015261014086015260006101608601526000610180860152610124356101a08601526101c08501526101e0840152600061020084015261010435610220840152046102408201526000610260820152600061028082015260006102a082015260006102c082015260006102e08201526000610300820152600061032082015260006103408201526064600a600435020461036082015260243561038082015260006103a0820152610144356103c082015260006103e082015260006104008201526001610420820152600154600052600260205260406000209060018060a01b038151166001600160601b0360a01b8354161782556020810151600183015560408101516002830155606081015160038301556080810151600483015560a0810151805190600160401b82116108cc576005840154826005860155808310611a7b575b5060200190600584016000526020600020916000905b82821061196257858560c08101519182516001600160401b0381116108cc576113c96006830154612c90565b601f811161192d575b506020601f82116001146118bf5781906114059394956000926118b4575b50508160011b916000199060031b1c19161790565b60068201555b60e0820151805190600160401b82116108cc57600783015482600785015580831061183c575b5060200190600783016000526020600020916000905b82821061171657858561010082015160088201556101208201516009820155610140820151600a820155600b81016114926101608401511515829060ff801983541691151516179055565b610180830151815461ff00191690151560081b61ff00161790556101a0820151600c8201556101c08201518051906001600160401b0382116108cc57600160401b82116108cc57602090600d84015483600d8601558084106116f6575b5001600d8301600052602060002060005b8381106116d95785856101e08201518051906001600160401b0382116108cc57600160401b82116108cc57602090600e84015483600e8601558084106116b9575b5001600e8301600052602060002060005b83811061169c578585600f810160018060a01b03610200840151166001600160601b0360a01b82541617905561022082015160108201556102408201516011820155610260820151601282015561028082015160138201556102a082015160148201556102c082015160158201556102e08201516016820155610300820151601782015561032082015160188201556019810161034083015160098110156106b057611664936020926104209260ff80198354169116179055610360810151601a850155610380810151601b8501556103a0810151601c8501556103c0810151601d8501556103e0810151601e850155610400810151601f8501550151151591019060ff801983541691151516179055565b61166f60015461364b565b8060015533907f233bb55fd57b21b8a3d15c9ad8fbbab435fe4cf2865cc654f6a57d9d4d8cda54600080a3005b82516001600160a01b031681830155602090920191600101611552565b6116d390600e860160005284846000209182019101612eb5565b85611541565b82516001600160a01b031681830155602090920191600101611500565b61171090600d860160005284846000209182019101612eb5565b856114ef565b80518051906001600160401b0382116108cc576117338654612c90565b601f81116117ff575b50602090601f831160011461178f5792611775836001959460209487966000926117845750508160011b916000199060031b1c19161790565b87555b01940191019092611447565b015190508c806113f0565b908660005260206000209160005b601f19851681106117e7575083602093600196938796938794601f198116106117ce575b505050811b018755611778565b015160001960f88460031b161c191690558b80806117c1565b9192602060018192868501518155019401920161179d565b61182c90876000526020600020601f850160051c81019160208610611832575b601f0160051c0190612eb5565b8861173c565b909150819061181f565b600784016000526020600020908382015b818301811061185d575050611431565b8061186a60019254612c90565b80611877575b500161184d565b601f8111831461188d5750600081555b88611870565b6000908282526118ab601f60208420920160051c8201858301612eb5565b81835555611887565b0151905085806113f0565b6006830160005260206000209060005b601f19841681106119155750600193949583601f198116106118fc575b505050811b01600682015561140b565b015160001960f88460031b161c191690558480806118ec565b9091602060018192858a0151815501930191016118cf565b61195c90600684016000526020600020601f840160051c8101916020851061183257601f0160051c0190612eb5565b846113d2565b80518051906001600160401b0382116108cc5761197f8654612c90565b90601f91828111611a41575b5060209183116001146119d157926119c2836001959460209487966000926117845750508160011b916000199060031b1c19161790565b87555b0194019101909261139d565b908660005260206000209160005b601f1985168110611a29575083602093600196938796938794601f19811610611a10575b505050811b0187556119c5565b015160001960f88460031b161c191690558b8080611a03565b919260206001819286850151815501940192016119df565b611a6c908860005260206000208480870160051c82019260208810611a72575b0160051c0190612eb5565b8961198b565b92508192611a61565b600585016000526020600020908382015b8183018110611a9c575050611387565b80611aa960019254612c90565b80611ab6575b5001611a8c565b601f908181118414611acf575050600081555b88611aaf565b611aeb60009284845260208420920160051c8201858301612eb5565b81835555611ac9565b634e487b7160e01b600052601160045260246000fd5b60405162461bcd60e51b815260206004820152605d60248201527f4e6f7420656e6f7567682076657269666965727320746f2063686f6f7365206660448201527f726f6d2e206e756d566572696669657273206d7573742062652067726561746560648201527f72207468616e206e756d56657269666965727353616d706c6553697a65000000608482015260a490fd5b60405162461bcd60e51b815260206004820152604760248201527f566572696669636174696f6e20646561646c696e65206d75737420626520737560448201527f6666696369656e7420656e6f75676820666f7220616c6c20726f756e64732072606482015266195c5d5a5c995960ca1b608482015260a490fd5b60405162461bcd60e51b815260206004820152603c60248201527f436f6d7075746174696f6e616c20646561646c696e65206d757374206265206760448201527f726561746572207468616e207468652063757272656e742074696d65000000006064820152608490fd5b60405162461bcd60e51b815260206004820152600e60248201526d14185e5b595b9d0819985a5b195960921b6044820152606490fd5b611cd0915060203d602011610b5b57610b4c8183612b5d565b86611139565b60405162461bcd60e51b815260206004820152603160248201527f496e73756666696369656e742062616c616e636520617661696c61626c6520746044820152701bc818dbdb991d58dd081c995c5d595cdd607a1b6064820152608490fd5b60405162461bcd60e51b815260206004820152603360248201527f496e73756666696369656e7420616c6c6f77616e636520617661696c61626c65604482015272081d1bc818dbdb991d58dd081c995c5d595cdd606a1b6064820152608490fd5b915091506020813d602011611dc5575b81611db360209383612b5d565b810103126101d65783905191896110ee565b3d9150611da6565b90506020813d602011611df7575b81611de860209383612b5d565b810103126101d65751876110c0565b3d9150611ddb565b60405162461bcd60e51b815260206004820152601d60248201527f4174206c656173742033207665726966696572732072657175697265640000006044820152606490fd5b346101d65760203660031901126101d6576004358060005260026020526040600020600981015442101580611f87575b80611f6c575b80611f5d575b156101d657611ef8600b82019160ff1992600184825416179055602060018060a01b03806000541690600f8401541690611ec3601a850154600186015490612ee4565b60405163a9059cbb60e01b81526001600160a01b03909316600484015260248301529093849190829060009082906044820190565b03925af1908115610b6257600692601992611f3e575b5001918254161790557f953601eba1acf6d4769af39f3986a5be6acd796655930c93832c2f239fbccabf600080a2005b611f569060203d602011610b5b57610b4c8183612b5d565b5085611f0e565b5060ff600b8201541615611e80565b5060ff60198201541660098110156106b05760071415611e7a565b5060ff600b82015416611e74565b346101d65760203660031901126101d657600435600052600260205260406000206102a05260018060a01b036102a05154166101a05260016102a051015460026102a05101546101605260036102a051015460046102a05101546101405261200260066102a05101612cca565b9160086102a05101546101205260096102a051015492600a6102a0510154600b6102a0510154600c6102a051015460018060a01b03600f6102a0510154169060ff60106102a05101549360116102a05101549561214c60126102a05101549860136102a05101549a60146102a05101549c60156102a051015460805260166102a051015460a05260176102a051015460e05260186102a0510154610280528660196102a05101541661026052601a6102a051015461024052601b6102a051015461022052601c6102a051015461020052601d6102a05101546101e052601e6102a05101546101c052601f6102a0510154610180528660206102a0510154166101005260405160c0526103c0916101a05160c05152602060c051015261016051604060c0510152606060c051015261014051608060c05101528060a060c051015260c0510190612d6f565b9a6101205160c08051015260e060c051015261010060c0510152818116151561012060c051015260081c16151561014060c051015261016060c051015261018060c05101526101a060c05101526101c060c05101526101e060c051015261020060c051015261022060c051015260805161024060c051015260a05161026060c051015260e05161028060c0510152610280516102a060c05101526121f96102c060c0510161026051612daf565b610240516102e060c05101526102205161030060c05101526102005161032060c05101526101e05161034060c05101526101c05161036060c05101526101805161038060c05101526101005115156103a060c051015260c051900360c051f35b346101d65760203660031901126101d657610c2c600435613203565b346101d65760003660031901126101d6576000546040516001600160a01b039091168152602090f35b346101d65760003660031901126101d6576020604051600a8152f35b346101d65760003660031901126101d6576020600154604051908152f35b346101d65760003660031901126101d657602060405160038152f35b346101d65760c061230436612c6a565b906000526003602052604060002060018060a01b038092166000526020526040600020805490600181015460028201549060ff60048160038601541694015494604051968116875260a01c1615156020860152604085015260608401521515608083015260a0820152f35b346101d65760203660031901126101d657610c2c600435612ef1565b346101d65760403660031901126101d65760246004356001600160401b0382358181116101d6576123c0903690600401612beb565b90826000526020906002825260406000206123e16008820154421115612e56565b600f8101546001600160a01b031633036126165780600b6007920161010061ff00198254161790550190835193600160401b85116108cc578390835486855580871061259c575b506000938452848420939791015b85881061246d57610c2c8733817f1d961eb7779cdf87f83b3c5ca1e5a7b0b7832f5fc1f9b813fea6787daf0e884c600080a36139fb565b805180519084821161258757908692916124878754612c90565b90601f9182811161254f575b50849183116001146124e15782600195938695936124c7936000926124d65750508160011b916000199060031b1c19161790565b87555b01940197019692612436565b015190508e806113f0565b90601f9493941983169188600052846000209260005b818110612537575091600196939185889796941061251e575b505050831b830187556124ca565b015160001960f88460031b161c191690558c8080612510565b8284015185558b9660019095019493840193016124f7565b612578908960005286600020600585808801821c8301938a891061257e575b01901c0190612eb5565b8c612493565b9350829361256e565b83634e487b7160e01b60005260416004526000fd5b84600052868360002091820191015b8181106125b85750612428565b6001919293506125c88154612c90565b806125d9575b5001908592916125ab565b601f9081811184146125f2575050600081555b8a6125ce565b61260d6000928484528a8420920160051c8201858301612eb5565b818355556125ec565b60405162461bcd60e51b815260048101849052602960248201527f4f6e6c792063686f73656e2070726f76696465722063616e20636f6d706c657460448201526819481c995c5d595cdd60ba1b6064820152608490fd5b346101d657602090816003193601126101d657600435918260005260029182825260406000209060158201544210612aba575060ff60198201541660098110156106b057600503612a58578082015460ff161561296757601e015491836000528082526040600020600583526040600020846000528352604060002060178201546000528352604060002090601b8101549561270d600c83015488612ea2565b8354908115612951579296920493601c87019260005b85548110156127d7578990612739888754612ee4565b8655600080548a916001600160a01b03918216908b9061276561275c878e613194565b98905493612ee4565b966127a06040519889968795869463a9059cbb60e01b865260031b1c166004840160209093929193604081019460018060a01b031681520152565b03925af1918215610b62576001926127ba575b5001612723565b6127d0908a3d8c11610b5b57610b4c8183612b5d565b508b6127b3565b509450949650949050601891500154149082600052808452604060002093601285019261280c601185549701968754116139af565b15612853575050805492546000198101908111611af45783101561284057610c2c9250612839815461364b565b90556139fb565b61284c610c2c9361364b565b905561413c565b9150918093506000528181526128dd8160406000209360018060a01b036128a861289d8260005416928854169361289360018a0154601a8b015490612ee4565b9089015490612ee4565b601c880154906136a6565b60405163a9059cbb60e01b81526001600160a01b03909316600484015260248301529092839190829060009082906044820190565b03925af18015610b6257612933575b505060076019600b83019260ff199360018582541617905501918254161790557f6d55d799468c2d702d8ff65d462b4e8dbbc88c728431aee69b205a3964362f07600080a2005b8161294992903d10610b5b57610b4c8183612b5d565b5082806128ec565b634e487b7160e01b600052601260045260246000fd5b5091908160005282526040600020916000600e8401601b8501915b8154811015612a1e576000546001600160a01b03908116919085906129a78386613194565b9054875460405163a9059cbb60e01b815260039390931b9190911c929092166001600160a01b031660048201526024810191909152928390816000816044810103925af1918215610b6257600192612a01575b5001612982565b612a1790863d8811610b5b57610b4c8183612b5d565b50876129fa565b5050507fea43ae306415066aa09d5402571eb6506530e7a6011f5d797c85825dd9a6ef5482916012610c2c950154604051908152a26139fb565b60405162461bcd60e51b815260048101839052603460248201527f52657175657374206e6f7420696e20636f727265637420737461746520666f726044820152732063616c63756c6174696e67207265776172647360601b6064820152608490fd5b62461bcd60e51b815260048101839052602660248201527f636f6d6d69746d656e7420737461676520686173206e6f742079657420636f6d6044820152651c1b195d195960d21b6064820152608490fd5b61044081019081106001600160401b038211176108cc57604052565b60c081019081106001600160401b038211176108cc57604052565b602081019081106001600160401b038211176108cc57604052565b90601f801991011681019081106001600160401b038211176108cc57604052565b6001600160401b0381116108cc5760051b60200190565b81601f820112156101d6578035906001600160401b0382116108cc5760405192612bc9601f8401601f191660200185612b5d565b828452602083830101116101d657816000926020809301838601378301015290565b81601f820112156101d657803591602091612c0584612b7e565b93612c136040519586612b5d565b808552838086019160051b830101928084116101d657848301915b848310612c3e5750505050505090565b82356001600160401b0381116101d6578691612c5f84848094890101612b95565b815201920191612c2e565b60409060031901126101d657600435906024356001600160a01b03811681036101d65790565b90600182811c92168015612cc0575b6020831014612caa57565b634e487b7160e01b600052602260045260246000fd5b91607f1691612c9f565b90604051918260008254612cdd81612c90565b90818452602094600191600181169081600014612d4d5750600114612d0e575b505050612d0c92500383612b5d565b565b600090815285812095935091905b818310612d35575050612d0c9350820101388080612cfd565b85548884018501529485019487945091830191612d1c565b92505050612d0c94925060ff191682840152151560051b820101388080612cfd565b919082519283825260005b848110612d9b575050826000602080949584010152601f8019910116010190565b602081830181015184830182015201612d7a565b9060098210156106b05752565b90808251908181526020809101926020808460051b8301019501936000915b848310612deb5750505050505090565b9091929394958480612e09600193601f198682030187528a51612d6f565b9801930193019194939290612ddb565b90815180825260208080930193019160005b828110612e39575050505090565b83516001600160a01b031685529381019392810192600101612e2b565b15612e5d57565b60405162461bcd60e51b815260206004820152601b60248201527f436f6d7075746174696f6e20646561646c696e652070617373656400000000006044820152606490fd5b81810292918115918404141715611af457565b818110612ec0575050565b60008155600101612eb5565b908160209103126101d6575180151581036101d65790565b91908201809211611af457565b600081815260026020908152604080832080546001600160a01b03908116939192903385900361310357600b84019460ff8654166130bf57839082600f87015416156130855750506008840154421180613076575b1561301c579082612f9e92612f64600a870154601a88015490612ee4565b90808954169087541689855180978195829463a9059cbb60e01b84526004840160209093929193604081019460018060a01b031681520152565b03925af19081156130135750926008926019927f1523a7600668f21efd095a2e4b78dc32da863f11b5b54ed0043034aeefd6442c979695612ff5575b505060ff1993600185825416179055019182541617905580a2565b8161300b92903d10610b5b57610b4c8183612b5d565b503880612fda565b513d87823e3d90fd5b815162461bcd60e51b815260048101849052602d60248201527f436f6d7075746174696f6e20646561646c696e6520686173206e6f742079657460448201526c081899595b881c995858da1959609a1b6064820152608490fd5b5060ff855460081c1615612f46565b8754600a870154855163a9059cbb60e01b81526001600160a01b039093166004840152602483015290939284911681898160448101612f9e565b825162461bcd60e51b815260048101859052601960248201527f5265717565737420616c726561647920636f6d706c65746564000000000000006044820152606490fd5b815162461bcd60e51b8152600481018490526024808201527f4f6e6c792074686520636f6e73756d65722063616e2077697468647261772066604482015263756e647360e01b6064820152608490fd5b1561315a57565b60405162461bcd60e51b8152602060048201526012602482015271496e73756666696369656e74207374616b6560701b6044820152606490fd5b80548210156131ac5760005260206000200190600090565b634e487b7160e01b600052603260045260246000fd5b90815491600160401b8310156108cc57826131e5916001612d0c95018155613194565b90919060018060a01b038084549260031b9316831b921b1916179055565b600081815260206002815260409182812060ff600b82015460081c161561360757600f8101546001600160a01b0390811633146135a757600d820193845495600492838501978854111561356c5760ff6019860154166009811015613559576002036134cb5785548251636eb1769f60e11b81523386820190815230602082015292909116918490829081906040010381855afa9081156134c1578791613490575b5082516370a0823160e01b815233868201528481602481865afa90811561348657918893918693859161344b575b506132f06133209392610a9792601b8c0154938480931015613153565b85516323b872dd60e01b815233898201908152306020820152604081019290925294859384928391606090910190565b03925af1908115613441579061333d918791613424575b50613153565b60098401546010850154806003029060038204036134115761335f9042612ee4565b10156134015761336f3389613b8d565b6133c05750505060129061338333856131c2565b015490847f9e9159f67684b4639ef3d20a0878e965d2fa78dc33561fadb2485cd3d3447abf339280a4549054146133b75750565b612d0c90613c0a565b5162461bcd60e51b815291820152601860248201527f566572696669657220616c7265616479206170706c6965640000000000000000604482015260649150fd5b50505050505050612d0c906136b3565b634e487b7160e01b875260118552602487fd5b61343b9150843d8611610b5b57610b4c8183612b5d565b38613337565b82513d88823e3d90fd5b929450509181813d831161347f575b6134648183612b5d565b8101031261347b57518792859290916132f06132d3565b8780fd5b503d61345a565b84513d8a823e3d90fd5b90508381813d83116134ba575b6134a78183612b5d565b810103126134b65751386132a5565b8680fd5b503d61349d565b83513d89823e3d90fd5b505162461bcd60e51b815291820152605960248201527f56657269666965722063616e6e6f74206170706c7920666f722076657269666960448201527f636174696f6e2e2052657175657374207374617465206d75737420626520696e60648201527f2063686f6f73696e672076657269666965727320737461746500000000000000608482015260a49150fd5b634e487b7160e01b875260218552602487fd5b505162461bcd60e51b815291820152601660248201527515995c9a599a595c881b1a5b5a5d081c995858da195960521b604482015260649150fd5b845162461bcd60e51b815260048101859052603360248201527f546865206d61696e2070726f76696465722063616e6e6f74206170706c79207460448201527237903132b1b7b6b29030903b32b934b334b2b960691b6064820152608490fd5b835162461bcd60e51b815260048101849052601860248201527f52657175657374206e6f742079657420636f6d707574656400000000000000006044820152606490fd5b6000198114611af45760010190565b1561366157565b60405162461bcd60e51b815260206004820152601d60248201527f596f7520617265206e6f7420612063686f73656e2076657269666965720000006044820152606490fd5b91908203918211611af457565b906000918083526020906002825260409060408520936009850154601086015490600391806003029060038204036138ec576136ef9042612ee4565b11156138965760ff601987015416600981101561388257600203613829579094601b81019190600d01875b8154808210156138165760001981018181116138025761373a8185613194565b90546001600160a01b0391871b1c811692909190156137ee57918991836137646137ac9588613194565b8154908a1b84901b1916905586558c5488548b5163a9059cbb60e01b81526001600160a01b0390941660048501526024840152919384929091169082908e9082906044820190565b03925af180156137e45790600192916137c7575b500161371a565b6137dd90893d8b11610b5b57610b4c8183612b5d565b50386137c0565b87513d8c823e3d90fd5b634e487b7160e01b8c52603160045260248cfd5b634e487b7160e01b8b52601160045260248bfd5b5050505050915050612d0c91925061413c565b60405162461bcd60e51b815260048101869052602b60248201527f52657175657374206d75737420626520696e2063686f6f73696e67207665726960448201526a666965727320737461746560a81b6064820152608490fd5b634e487b7160e01b88526021600452602488fd5b60405162461bcd60e51b815260048101869052602860248201527f566572696669636174696f6e20646561646c696e6520686173206e6f742079656044820152671d081c185cdcd95960c21b6064820152608490fd5b634e487b7160e01b89526011600452602489fd5b90815461390c81612b7e565b9261391a6040519485612b5d565b818452600090815260208082208186015b848410613939575050505050565b600183819261394785612cca565b81520192019301929061392b565b90604051918281549182825260209260208301916000526020600020936000905b82821061398c57505050612d0c92500383612b5d565b85546001600160a01b031684526001958601958895509381019390910190613976565b156139b657565b60405162461bcd60e51b815260206004820152601e60248201527f416c6c206c61796572732068617665206265656e2070726f63657373656400006044820152606490fd5b60008181526002602090815260408220600f8101549192916001600160a01b031615613b385781604051613a2e81612b42565b52600d8101805483825580613b20575b50825281604051613a4e81612b42565b52600e8101805483825580613b08575b5082526019810160ff199060028282541617905582601e83015582601f8301556001848301918254161790556017810180549060018201809211613af457916012917f7cdb7f0bd04877caf5dda7a202130926cdd67ad312dada203661ff6d8806843495949355857f2d4e685f9af8cf88fb3e3447f1ee8e4e5e68423a2c393dc8d6e9784aa67ddafa6040519480a201548152a2565b634e487b7160e01b84526011600452602484fd5b818452848420613b1a91810190612eb5565b38613a5e565b818452848420613b3291810190612eb5565b38613a3e565b60405162461bcd60e51b815260048101849052602760248201527f4d61696e2070726f766964657220686173206e6f7420796574206265656e2073604482015266195b1958dd195960ca1b6064820152608490fd5b6000526002602052604060002090600d600092018054925b838110613bb55750505050600090565b613bbf8183613194565b905460039190911b1c6001600160a01b0390811690841614613be357600101613ba5565b50505050600190565b80518210156131ac5760209160051b010190565b8115612951570690565b906000828152602091600283526040938483209160ff600b84015460081c161561409857600d8301805496600c8501978854116140495760098501549260108601549360039480860290868204036138ec57613c669042612ee4565b11614037578298979854613c7b8954826136a6565b90613c8582612b7e565b90613c9285519283612b5d565b828252601f19613ca184612b7e565b01368d8401378960603360601b915b858110613fbf57505050508890601b8901915b838110613e73575050505086986012600e88019701995b8954811015613d355780613cf060019287613194565b838060a01b03915490891b1c16613d07818b6131c2565b8c5490897fa2d98506c7a3a4e1e4b581ad539462b4230b9af09ab4ef9086b03c5e52d430fd8d80a401613cda565b509396955096509650508183526002815285832092601284015490613d5f601186015483106139af565b6009850154601086015491828802908882048403613e5f5750613d829042612ee4565b1015613e01579160609160199697987f27e90e135bb91bf6706a23381e6d0d480f8bb7d002d6e9a197b432b7b654245f94426013890155613de2613dc68242612ee4565b918260148b0155613dd78184612ee4565b8060168c0155612ee4565b6015890155815193428552840152820152a2019060ff19825416179055565b875162461bcd60e51b815260048101849052603160248201527f566572696669636174696f6e20446561646c696e652068617320706173736564604482015270081d1bc81cdd185c9d0818481c9bdd5b99607a1b6064820152608490fd5b634e487b7160e01b81526011600452602490fd5b613e8081839e9d9e613bec565b51613e97885491613e9184846136a6565b90613c00565b90613ea2828a613194565b90546001600160a01b03918c1b1c81169290916000199190828101908111613faa57906131e5848e613ee18f613edb8b613eee986136a6565b90613194565b9054911b1c16918d613194565b8954908101908111613f9657828f928f92613f4e956131e58e613edb8a613f14956136a6565b825488548c5163a9059cbb60e01b81526001600160a01b039094166004850152602484015291948593919092169183919082906044820190565b03925af18015613f8c57600192918e91613f6e575b5050019b9a9b613cc3565b81613f8492903d10610b5b57610b4c8183612b5d565b508c38613f63565b87513d8e823e3d90fd5b634e487b7160e01b8e52601160045260248efd5b50634e487b7160e01b8f52601160045260248ffd5b8e9d9e889695965190810190428252448a820152848482015260748381830152815260a081018181106001600160401b03821117614022576001939261400b9288928d52519020613c00565b6140158289613bec565b52019d9c9d949394613cb0565b50634e487b7160e01b8f52604160045260248ffd5b9750505050915050612d0c91506136b3565b5162461bcd60e51b815260048101879052602360248201527f4e6f7420656e6f7567682076657269666965727320746f2063686f6f73652066604482015262726f6d60e81b6064820152608490fd5b855162461bcd60e51b815260048101869052602160248201527f5265717565737420686173206e6f74206265656e20636f6d70757465642079656044820152601d60fa1b6064820152608490fd5b6000526002602052604060002090600e600092018054925b83811061410e5750505050600090565b6141188183613194565b905460039190911b1c6001600160a01b0390811690841614613be3576001016140fe565b6000818152600260205260408120600b81019060ff19916001838254161790556141bb602060018060a01b038086541690600f8501541690614187601a860154600187015490612ee4565b60405163a9059cbb60e01b81526001600160a01b039093166004840152602483015290928391908290889082906044820190565b03925af18015614220577f953601eba1acf6d4769af39f3986a5be6acd796655930c93832c2f239fbccabf949392600692601992614201575b50019182541617905580a2565b6142199060203d602011610b5b57610b4c8183612b5d565b50386141f4565b6040513d86823e3d90fdfea26469706673582212205019f6c0796af700575f3208c2ecafe40813a743fb336d35ef1b8b86317fdef964736f6c63430008170033","linkReferences":{}},"methodIdentifiers":{"MIN_VERIFIERS()":"53e2ba17","PROVIDER_STAKE_PERCENTAGE()":"5e16a9d8","applyForVerificationForRequest(uint256)":"6d8f9a0e","calculateMajorityAndReward(uint256)":"04ae469b","cancelRequest(uint256)":"3015394c","compToken()":"6605dfa7","completeRequest(uint256,string[])":"0625f161","createRequest(uint256,uint256,uint256,uint256,string[],string,uint256,uint256,uint256,uint256,uint256)":"ad1279d9","getRequestDetails(uint256)":"f34d4c63","getVerificationDetails(uint256,address)":"f38f1047","providerEarlySuccessCall(uint256)":"a6095d7c","requestCount()":"5badbe4c","requests(uint256)":"81d12c58","revealCommitment(uint256,bool,bytes32,bytes32)":"bfdb3451","revealProviderKeyAndHash(uint256,bytes32,bytes32)":"e20fb7a1","selectRequest(uint256)":"e03ad0d1","submitCommitment(uint256,bytes32)":"e6a3d9dc","verificationDeadlinePassedForVeryfying(uint256)":"daf2a65a","verifications(uint256,address)":"4da0d139"},"id":0}