{"abi":[{"type":"function","name":"defaultVerifierVoteCounts","inputs":[{"name":"add","type":"address","internalType":"address"}],"outputs":[{"name":"","type":"uint256","internalType":"uint256"}],"stateMutability":"pure"}],"bytecode":{"object":"0x60808060405234601457609f908161001a8239f35b600080fdfe6080806040526004361015601257600080fd5b600090813560e01c63765a4a7a14602857600080fd5b3460655760203660031901126065576004356001600160a01b038116908190036061576020929015605a575060018152f35b60ff168152f35b8280fd5b5080fdfea26469706673582212202542112b0b8065b18002e10ab19a6032e7cdd345a6203703bd9770e8277f625e64736f6c63430008170033","linkReferences":{}},"methodIdentifiers":{"defaultVerifierVoteCounts(address)":"765a4a7a"},"id":1}