{"abi":[{"type":"constructor","inputs":[],"stateMutability":"nonpayable"},{"type":"function","name":"NFTRequestID","inputs":[{"name":"","type":"uint256","internalType":"uint256"}],"outputs":[{"name":"","type":"uint256","internalType":"uint256"}],"stateMutability":"view"},{"type":"function","name":"approve","inputs":[{"name":"to","type":"address","internalType":"address"},{"name":"tokenId","type":"uint256","internalType":"uint256"}],"outputs":[],"stateMutability":"nonpayable"},{"type":"function","name":"balanceOf","inputs":[{"name":"owner","type":"address","internalType":"address"}],"outputs":[{"name":"","type":"uint256","internalType":"uint256"}],"stateMutability":"view"},{"type":"function","name":"getApproved","inputs":[{"name":"tokenId","type":"uint256","internalType":"uint256"}],"outputs":[{"name":"","type":"address","internalType":"address"}],"stateMutability":"view"},{"type":"function","name":"isApprovedForAll","inputs":[{"name":"owner","type":"address","internalType":"address"},{"name":"operator","type":"address","internalType":"address"}],"outputs":[{"name":"","type":"bool","internalType":"bool"}],"stateMutability":"view"},{"type":"function","name":"mint","inputs":[{"name":"to","type":"address","internalType":"address"},{"name":"paymentForProvider","type":"uint256","internalType":"uint256"},{"name":"requestId","type":"uint256","internalType":"uint256"}],"outputs":[{"name":"","type":"uint256","internalType":"uint256"}],"stateMutability":"nonpayable"},{"type":"function","name":"name","inputs":[],"outputs":[{"name":"","type":"string","internalType":"string"}],"stateMutability":"view"},{"type":"function","name":"nextTokenId","inputs":[],"outputs":[{"name":"","type":"uint256","internalType":"uint256"}],"stateMutability":"view"},{"type":"function","name":"owner","inputs":[],"outputs":[{"name":"","type":"address","internalType":"address"}],"stateMutability":"view"},{"type":"function","name":"ownerOf","inputs":[{"name":"tokenId","type":"uint256","internalType":"uint256"}],"outputs":[{"name":"","type":"address","internalType":"address"}],"stateMutability":"view"},{"type":"function","name":"providerFailedRequestCount","inputs":[{"name":"","type":"address","internalType":"address"}],"outputs":[{"name":"","type":"uint256","internalType":"uint256"}],"stateMutability":"view"},{"type":"function","name":"providerFailure","inputs":[{"name":"requestId","type":"uint256","internalType":"uint256"}],"outputs":[],"stateMutability":"nonpayable"},{"type":"function","name":"providerNFTs","inputs":[{"name":"","type":"uint256","internalType":"uint256"}],"outputs":[{"name":"compNFT_id","type":"uint256","internalType":"uint256"},{"name":"amountToPay","type":"uint256","internalType":"uint256"},{"name":"requestID","type":"uint256","internalType":"uint256"},{"name":"originalProvider","type":"address","internalType":"address"},{"name":"hasBeenPaid","type":"bool","internalType":"bool"}],"stateMutability":"view"},{"type":"function","name":"providerPickedUpRequestCount","inputs":[{"name":"","type":"address","internalType":"address"}],"outputs":[{"name":"","type":"uint256","internalType":"uint256"}],"stateMutability":"view"},{"type":"function","name":"providerSuccess","inputs":[{"name":"requestId","type":"uint256","internalType":"uint256"}],"outputs":[{"name":"","type":"address","internalType":"address"}],"stateMutability":"nonpayable"},{"type":"function","name":"providerSuccessfulRequestCount","inputs":[{"name":"","type":"address","internalType":"address"}],"outputs":[{"name":"","type":"uint256","internalType":"uint256"}],"stateMutability":"view"},{"type":"function","name":"renounceOwnership","inputs":[],"outputs":[],"stateMutability":"nonpayable"},{"type":"function","name":"safeTransferFrom","inputs":[{"name":"from","type":"address","internalType":"address"},{"name":"to","type":"address","internalType":"address"},{"name":"tokenId","type":"uint256","internalType":"uint256"}],"outputs":[],"stateMutability":"nonpayable"},{"type":"function","name":"safeTransferFrom","inputs":[{"name":"from","type":"address","internalType":"address"},{"name":"to","type":"address","internalType":"address"},{"name":"tokenId","type":"uint256","internalType":"uint256"},{"name":"data","type":"bytes","internalType":"bytes"}],"outputs":[],"stateMutability":"nonpayable"},{"type":"function","name":"setApprovalForAll","inputs":[{"name":"operator","type":"address","internalType":"address"},{"name":"approved","type":"bool","internalType":"bool"}],"outputs":[],"stateMutability":"nonpayable"},{"type":"function","name":"supportsInterface","inputs":[{"name":"interfaceId","type":"bytes4","internalType":"bytes4"}],"outputs":[{"name":"","type":"bool","internalType":"bool"}],"stateMutability":"view"},{"type":"function","name":"symbol","inputs":[],"outputs":[{"name":"","type":"string","internalType":"string"}],"stateMutability":"view"},{"type":"function","name":"tokenURI","inputs":[{"name":"tokenId","type":"uint256","internalType":"uint256"}],"outputs":[{"name":"","type":"string","internalType":"string"}],"stateMutability":"view"},{"type":"function","name":"transferFrom","inputs":[{"name":"from","type":"address","internalType":"address"},{"name":"to","type":"address","internalType":"address"},{"name":"tokenId","type":"uint256","internalType":"uint256"}],"outputs":[],"stateMutability":"nonpayable"},{"type":"function","name":"transferNFTContractOwnership","inputs":[{"name":"newOwner","type":"address","internalType":"address"}],"outputs":[],"stateMutability":"nonpayable"},{"type":"function","name":"transferOwnership","inputs":[{"name":"newOwner","type":"address","internalType":"address"}],"outputs":[],"stateMutability":"nonpayable"},{"type":"event","name":"Approval","inputs":[{"name":"owner","type":"address","indexed":true,"internalType":"address"},{"name":"approved","type":"address","indexed":true,"internalType":"address"},{"name":"tokenId","type":"uint256","indexed":true,"internalType":"uint256"}],"anonymous":false},{"type":"event","name":"ApprovalForAll","inputs":[{"name":"owner","type":"address","indexed":true,"internalType":"address"},{"name":"operator","type":"address","indexed":true,"internalType":"address"},{"name":"approved","type":"bool","indexed":false,"internalType":"bool"}],"anonymous":false},{"type":"event","name":"OwnershipTransferred","inputs":[{"name":"previousOwner","type":"address","indexed":true,"internalType":"address"},{"name":"newOwner","type":"address","indexed":true,"internalType":"address"}],"anonymous":false},{"type":"event","name":"Transfer","inputs":[{"name":"from","type":"address","indexed":true,"internalType":"address"},{"name":"to","type":"address","indexed":true,"internalType":"address"},{"name":"tokenId","type":"uint256","indexed":true,"internalType":"uint256"}],"anonymous":false},{"type":"error","name":"ERC721IncorrectOwner","inputs":[{"name":"sender","type":"address","internalType":"address"},{"name":"tokenId","type":"uint256","internalType":"uint256"},{"name":"owner","type":"address","internalType":"address"}]},{"type":"error","name":"ERC721InsufficientApproval","inputs":[{"name":"operator","type":"address","internalType":"address"},{"name":"tokenId","type":"uint256","internalType":"uint256"}]},{"type":"error","name":"ERC721InvalidApprover","inputs":[{"name":"approver","type":"address","internalType":"address"}]},{"type":"error","name":"ERC721InvalidOperator","inputs":[{"name":"operator","type":"address","internalType":"address"}]},{"type":"error","name":"ERC721InvalidOwner","inputs":[{"name":"owner","type":"address","internalType":"address"}]},{"type":"error","name":"ERC721InvalidReceiver","inputs":[{"name":"receiver","type":"address","internalType":"address"}]},{"type":"error","name":"ERC721InvalidSender","inputs":[{"name":"sender","type":"address","internalType":"address"}]},{"type":"error","name":"ERC721NonexistentToken","inputs":[{"name":"tokenId","type":"uint256","internalType":"uint256"}]},{"type":"error","name":"OwnableInvalidOwner","inputs":[{"name":"owner","type":"address","internalType":"address"}]},{"type":"error","name":"OwnableUnauthorizedAccount","inputs":[{"name":"account","type":"address","internalType":"address"}]}],"bytecode":{"object":"0x608034620003975760406001600160401b038282018181118482101762000381578252600883526020926710d3d35417d3919560c21b8482015282519183830183811082821117620003815784526004928381526310d3919560e21b868201528251908282116200036c576000968754926001958685811c9516801562000361575b838610146200034e578190601f95868111620002fb575b50839086831160011462000297578b926200028b575b5050600019600383901b1c191690861b1788555b8151938411620002785784548581811c911680156200026d575b828210146200025a57908184869594931162000203575b50809284116001146200019b575087926200018f575b5050600019600383901b1c191690821b1790555b33156200017a575060068054336001600160a01b03198216811790925591519290916001600160a01b0316907f8be0079c531659141344cd1fd0a4f28419497f9722a3daafe3b4186f6b6457e09080a36112d990816200039d8239f35b826024925191631e4fbdf760e01b8352820152fd5b01519050388062000109565b9190859450601f198416858a52838a20938a905b828210620001e95750508411620001cf575b505050811b0190556200011d565b015160001960f88460031b161c19169055388080620001c1565b8484015186558897909501949384019390810190620001af565b90919293508589528189208480870160051c82019284881062000250575b9187968992969594930160051c01915b82811062000241575050620000f3565b8b815587965088910162000231565b9250819262000221565b634e487b7160e01b895260228752602489fd5b90607f1690620000dc565b634e487b7160e01b885260418652602488fd5b015190503880620000ae565b8b8052848c208994509190601f1984168d5b87828210620002e45750508411620002ca575b505050811b018855620000c2565b015160001960f88460031b161c19169055388080620002bc565b8385015186558c97909501949384019301620002a9565b9091508a8052838b208680850160051c82019286861062000344575b918a91869594930160051c01915b8281106200033557505062000098565b8d81558594508a910162000325565b9250819262000317565b634e487b7160e01b8a526022885260248afd5b94607f169462000081565b604185634e487b7160e01b6000525260246000fd5b634e487b7160e01b600052604160045260246000fd5b600080fdfe6080604081815260048036101561001557600080fd5b600092833560e01c90816301ffc9a714610d6957508063033d926d14610d3157806306fdde0314610c64578063081812fc14610c29578063095ea7b314610b4d578063156e29f61461084457806323b872dd1461082c57806328dde62e146108055780633295845c146107b957806342842e0e1461078a5780636352211e1461075957806370a0823114610704578063715018a6146106a757806375794a3c146106885780638da5cb5b1461065f57806395d89b4114610545578063a213d38a1461046a578063a22cb465146103c9578063a2bc069f14610391578063b88d4fde14610300578063c87b56dd146102ad578063d42c67121461024e578063e63d60cb14610216578063e985e9c5146101c4578063f2fde38b146101a15763fd8ff4ad1461014157600080fd5b3461019d57602036600319011261019d5761015a610dd5565b916101636110ea565b61016b6110ea565b6001600160a01b03831615610187578361018484611116565b80f35b51631e4fbdf760e01b8152908101839052602490fd5b8280fd5b503461019d57602036600319011261019d576101bb610dd5565b9161016b6110ea565b50503461021257806003193601126102125760ff816020936101e4610dd5565b6101ec610df0565b6001600160a01b0391821683526005875283832091168252855220549151911615158152f35b5080fd5b5050346102125760203660031901126102125760209181906001600160a01b0361023e610dd5565b168152600a845220549051908152f35b503461019d57602036600319011261019d573582526008602090815291819020805460018201546002830154600390930154845192835294820152918201526001600160a01b038216606082015260a091821c60ff1615156080820152f35b50919034610212576020366003190112610212576102ce6102fc93356110af565b508181516102db81610e7b565b528051916102e883610e7b565b825251918291602083526020830190610e06565b0390f35b50903461019d57608036600319011261019d5761031b610dd5565b610323610df0565b60443591856064359567ffffffffffffffff87116102125736602388011215610212578601359561035f61035688610ecf565b96519687610ead565b8686523660248883010111610212578661018497602460209301838901378601015261038c838383610f10565b61115f565b5050346102125760203660031901126102125760209181906001600160a01b036103b9610dd5565b168152600b845220549051908152f35b50903461019d578060031936011261019d576103e3610dd5565b9060243591821515809303610466576001600160a01b03169283156104515750338452600560205280842083855260205280842060ff1981541660ff8416179055519081527f17307eab39ab6107e8899845ad3d59bd9653f200f220920489ca2b5937696c3160203392a380f35b836024925191630b61174360e31b8352820152fd5b8480fd5b50823461052f5760209283600319360112610212576104876110ea565b823582526008845280822091600383019260018060a01b0393848154168352600a87528383206104b78154610eeb565b9055805460ff60a01b1916600160a01b1790555482516331a9108f60e11b8152948501528484602481305afa9384156105395781946104fa575b50505191168152f35b909193508481813d8311610532575b6105138183610ead565b81010312610212575190828216820361052f57509184806104f1565b80fd5b503d610509565b509051903d90823e3d90fd5b50913461052f578060031936011261052f5781519181600192600154938460011c9160018616958615610655575b6020968785108114610642578899509688969785829a52918260001461061b5750506001146105bf575b5050506102fc92916105b0910385610ead565b51928284938452830190610e06565b9190869350600183527fb10e2d527612073b26eecdfd717e6a320cf44b4afac2b0732d9fcbe2b7fa0cf65b82841061060357505050820101816105b06102fc61059d565b8054848a0186015288955087949093019281016105ea565b60ff19168782015293151560051b860190930193508492506105b091506102fc905061059d565b634e487b7160e01b835260228a52602483fd5b92607f1692610573565b50503461021257816003193601126102125760065490516001600160a01b039091168152602090f35b5050346102125781600319360112610212576020906007549051908152f35b833461052f578060031936011261052f576106c06110ea565b600680546001600160a01b0319811690915581906001600160a01b03167f8be0079c531659141344cd1fd0a4f28419497f9722a3daafe3b4186f6b6457e08280a380f35b50913461052f57602036600319011261052f576001600160a01b03610727610dd5565b169283156107445750806020938392526003845220549051908152f35b91516322718ad960e21b815291820152602490fd5b50913461052f57602036600319011261052f5750610779602092356110af565b90516001600160a01b039091168152f35b505034610212576101849061079e36610e46565b919251926107ab84610e7b565b85845261038c838383610f10565b503461019d57602036600319011261019d576107d36110ea565b35825260086020908152818320600301546001600160a01b03168352600b90528120805461080090610eeb565b905580f35b503461019d57602036600319011261019d5760209282913581526009845220549051908152f35b833461052f5761018461083e36610e46565b91610f10565b5091903461021257606036600319011261021257610860610dd5565b6044359360249161086f6110ea565b6007549461087c86610eeb565b60075560018060a01b0380831692838352602098600c8a528784206108a18154610eeb565b9055875160a0810181811067ffffffffffffffff821117610b3b57895289815287358b8201908152898201838152606083018881526080840188815285895260088f528c892094518555925160018501559051600284015551600392909201805491516001600160a81b03199092169286169290921790151560a01b60ff60a01b1617905588845260098a528784205586519161093d83610e7b565b8383528415610b255788845260028a52878420541688858215159283610af2575b81875260038d528a87208054600101905582875260028d528a872080546001600160a01b031916831790557fddf252ad1be2c89b69c2b068fc378daa952ba7f163c4a11628f55a4df523b3ef8780a4610add573b6109c0575b87878751908152f35b9287938598838897610a01859b96979a519485938493630a85bd0160e11b988986523390860152840152876044840152608060648401526084830190610e06565b0381878b5af1849181610a9d575b50610a67575050503d600014610a5f573d610a2981610ecf565b90610a3685519283610ead565b81528091833d92013e5b80519182610a5c575050505191633250574960e11b8352820152fd5b01fd5b506060610a40565b90919693979495925063ffffffff60e01b1603610a8b5750505038808080806109b7565b8351633250574960e11b815291820152fd5b9091508581813d8311610ad6575b610ab58183610ead565b8101031261046657516001600160e01b031981168103610466579038610a0f565b503d610aab565b505084516339e3563760e11b81529283015250fd5b600083815260046020526040902080546001600160a01b031916905580875260038d528a8720805460001901905561095e565b8751633250574960e11b81528087018590528790fd5b634e487b7160e01b8652604188528886fd5b50903461019d578060031936011261019d57610b67610dd5565b91602435610b74816110af565b33151580610c16575b80610bed575b610bd7576001600160a01b039485169482918691167f8c5be1e5ebec7d5bd14f71427d1e84f3dd0314c0f7b2291e5b200ac8c7c3b9258880a48452602052822080546001600160a01b031916909117905580f35b835163a9fbf51f60e01b81523381850152602490fd5b506001600160a01b03811686526005602090815284872033885290528386205460ff1615610b83565b506001600160a01b038116331415610b7d565b503461019d57602036600319011261019d57918260209335610c4a816110af565b50825283528190205490516001600160a01b039091168152f35b50913461052f578060031936011261052f578151918182549260018460011c9160018616958615610d27575b6020968785108114610642578899509688969785829a52918260001461061b575050600114610ccc575050506102fc92916105b0910385610ead565b91908693508280527f290decd9548b62a8d60345a988386fc84ba6bc95484008f6362f93160ef3e5635b828410610d0f57505050820101816105b06102fc61059d565b8054848a018601528895508794909301928101610cf6565b92607f1692610c90565b5050346102125760203660031901126102125760209181906001600160a01b03610d59610dd5565b168152600c845220549051908152f35b9250503461019d57602036600319011261019d573563ffffffff60e01b811680910361019d57602092506380ac58cd60e01b8114908115610dc4575b8115610db3575b5015158152f35b6301ffc9a760e01b14905038610dac565b635b5e139f60e01b81149150610da5565b600435906001600160a01b0382168203610deb57565b600080fd5b602435906001600160a01b0382168203610deb57565b919082519283825260005b848110610e32575050826000602080949584010152601f8019910116010190565b602081830181015184830182015201610e11565b6060906003190112610deb576001600160a01b03906004358281168103610deb57916024359081168103610deb579060443590565b6020810190811067ffffffffffffffff821117610e9757604052565b634e487b7160e01b600052604160045260246000fd5b90601f8019910116810190811067ffffffffffffffff821117610e9757604052565b67ffffffffffffffff8111610e9757601f01601f191660200190565b6000198114610efa5760010190565b634e487b7160e01b600052601160045260246000fd5b6001600160a01b03918216929091831561109657600092828452826020956002875260409684888820541696879133151580611000575b509060027fddf252ad1be2c89b69c2b068fc378daa952ba7f163c4a11628f55a4df523b3ef9284610fcd575b858352600381528b8320805460010190558683525289812080546001600160a01b0319168517905580a41692838303610fac5750505050565b6064945051926364283d7b60e01b8452600484015260248301526044820152fd5b600087815260046020526040902080546001600160a01b0319169055848352600381528b83208054600019019055610f73565b91939450915080611055575b1561101c57859291879138610f47565b878688611039576024915190637e27328960e01b82526004820152fd5b604491519063177e802f60e01b82523360048301526024820152fd5b50338714801561107a575b8061100c575085825260048152338589842054161461100c565b5086825260058152878220338352815260ff8883205416611060565b604051633250574960e11b815260006004820152602490fd5b6000818152600260205260409020546001600160a01b03169081156110d2575090565b60249060405190637e27328960e01b82526004820152fd5b6006546001600160a01b031633036110fe57565b60405163118cdaa760e01b8152336004820152602490fd5b600680546001600160a01b039283166001600160a01b0319821681179092559091167f8be0079c531659141344cd1fd0a4f28419497f9722a3daafe3b4186f6b6457e0600080a3565b813b61116c575b50505050565b604051630a85bd0160e11b8082523360048301526001600160a01b039283166024830152604482019490945260806064820152602095929091169390929083906111ba906084830190610e06565b039285816000958187895af1849181611263575b5061122e575050503d600014611226573d6111e881610ecf565b906111f66040519283610ead565b81528091843d92013e5b8051928361122157604051633250574960e11b815260048101849052602490fd5b019050fd5b506060611200565b919450915063ffffffff60e01b160361124b575038808080611166565b60249060405190633250574960e11b82526004820152fd5b9091508681813d831161129c575b61127b8183610ead565b8101031261046657516001600160e01b0319811681036104665790386111ce565b503d61127156fea264697066735822122018f25b358cf7889afe9633c15ad0b94bf61425293dd0befa07e129cd1fa353c164736f6c63430008170033","linkReferences":{}},"methodIdentifiers":{"NFTRequestID(uint256)":"28dde62e","approve(address,uint256)":"095ea7b3","balanceOf(address)":"70a08231","getApproved(uint256)":"081812fc","isApprovedForAll(address,address)":"e985e9c5","mint(address,uint256,uint256)":"156e29f6","name()":"06fdde03","nextTokenId()":"75794a3c","owner()":"8da5cb5b","ownerOf(uint256)":"6352211e","providerFailedRequestCount(address)":"a2bc069f","providerFailure(uint256)":"3295845c","providerNFTs(uint256)":"d42c6712","providerPickedUpRequestCount(address)":"033d926d","providerSuccess(uint256)":"a213d38a","providerSuccessfulRequestCount(address)":"e63d60cb","renounceOwnership()":"715018a6","safeTransferFrom(address,address,uint256)":"42842e0e","safeTransferFrom(address,address,uint256,bytes)":"b88d4fde","setApprovalForAll(address,bool)":"a22cb465","supportsInterface(bytes4)":"01ffc9a7","symbol()":"95d89b41","tokenURI(uint256)":"c87b56dd","transferFrom(address,address,uint256)":"23b872dd","transferNFTContractOwnership(address)":"fd8ff4ad","transferOwnership(address)":"f2fde38b"},"id":0}