{"abi":[{"type":"function","name":"defaultVerifierVoteCounts","inputs":[{"name":"add","type":"address","internalType":"address"}],"outputs":[{"name":"","type":"uint256","internalType":"uint256"}],"stateMutability":"pure"},{"type":"function","name":"getRandomNumber","inputs":[{"name":"maxLimit","type":"uint256","internalType":"uint256"}],"outputs":[{"name":"","type":"uint256","internalType":"uint256"}],"stateMutability":"view"}],"bytecode":{"object":"0x6080806040523461001657610134908161001c8239f35b600080fdfe6080806040526004361015601257600080fd5b600090813560e01c908163765a4a7a1460bb575063b37217a414603457600080fd5b3460b857602036600319011260b85760043560405190602082014281524460408401523360601b606084015260548352608083019280841067ffffffffffffffff85111760a45783604052519020811560905760209350068152f35b634e487b7160e01b84526012600452602484fd5b634e487b7160e01b85526041600452602485fd5b80fd5b90503460fa57602036600319011260fa576004356001600160a01b0381169081900360f657602092901560ef575060018152f35b60ff168152f35b8280fd5b5080fdfea264697066735822122086cd68f88f124e61c41472002dba2a604a5d805e1044823ad0763e06e8e576f564736f6c63430008170033","linkReferences":{}},"methodIdentifiers":{"defaultVerifierVoteCounts(address)":"765a4a7a","getRandomNumber(uint256)":"b37217a4"},"id":3}