{
  "_format": "hh-sol-artifact-1",
  "contractName": "CompNFT",
  "sourceName": "contracts/ComputationMarket.sol",
  "abi": [
    {
      "inputs": [],
      "stateMutability": "nonpayable",
      "type": "constructor"
    },
    {
      "inputs": [
        {
          "internalType": "address",
          "name": "sender",
          "type": "address"
        },
        {
          "internalType": "uint256",
          "name": "tokenId",
          "type": "uint256"
        },
        {
          "internalType": "address",
          "name": "owner",
          "type": "address"
        }
      ],
      "name": "ERC721IncorrectOwner",
      "type": "error"
    },
    {
      "inputs": [
        {
          "internalType": "address",
          "name": "operator",
          "type": "address"
        },
        {
          "internalType": "uint256",
          "name": "tokenId",
          "type": "uint256"
        }
      ],
      "name": "ERC721InsufficientApproval",
      "type": "error"
    },
    {
      "inputs": [
        {
          "internalType": "address",
          "name": "approver",
          "type": "address"
        }
      ],
      "name": "ERC721InvalidApprover",
      "type": "error"
    },
    {
      "inputs": [
        {
          "internalType": "address",
          "name": "operator",
          "type": "address"
        }
      ],
      "name": "ERC721InvalidOperator",
      "type": "error"
    },
    {
      "inputs": [
        {
          "internalType": "address",
          "name": "owner",
          "type": "address"
        }
      ],
      "name": "ERC721InvalidOwner",
      "type": "error"
    },
    {
      "inputs": [
        {
          "internalType": "address",
          "name": "receiver",
          "type": "address"
        }
      ],
      "name": "ERC721InvalidReceiver",
      "type": "error"
    },
    {
      "inputs": [
        {
          "internalType": "address",
          "name": "sender",
          "type": "address"
        }
      ],
      "name": "ERC721InvalidSender",
      "type": "error"
    },
    {
      "inputs": [
        {
          "internalType": "uint256",
          "name": "tokenId",
          "type": "uint256"
        }
      ],
      "name": "ERC721NonexistentToken",
      "type": "error"
    },
    {
      "inputs": [
        {
          "internalType": "address",
          "name": "owner",
          "type": "address"
        }
      ],
      "name": "OwnableInvalidOwner",
      "type": "error"
    },
    {
      "inputs": [
        {
          "internalType": "address",
          "name": "account",
          "type": "address"
        }
      ],
      "name": "OwnableUnauthorizedAccount",
      "type": "error"
    },
    {
      "anonymous": false,
      "inputs": [
        {
          "indexed": true,
          "internalType": "address",
          "name": "owner",
          "type": "address"
        },
        {
          "indexed": true,
          "internalType": "address",
          "name": "approved",
          "type": "address"
        },
        {
          "indexed": true,
          "internalType": "uint256",
          "name": "tokenId",
          "type": "uint256"
        }
      ],
      "name": "Approval",
      "type": "event"
    },
    {
      "anonymous": false,
      "inputs": [
        {
          "indexed": true,
          "internalType": "address",
          "name": "owner",
          "type": "address"
        },
        {
          "indexed": true,
          "internalType": "address",
          "name": "operator",
          "type": "address"
        },
        {
          "indexed": false,
          "internalType": "bool",
          "name": "approved",
          "type": "bool"
        }
      ],
      "name": "ApprovalForAll",
      "type": "event"
    },
    {
      "anonymous": false,
      "inputs": [
        {
          "indexed": true,
          "internalType": "address",
          "name": "previousOwner",
          "type": "address"
        },
        {
          "indexed": true,
          "internalType": "address",
          "name": "newOwner",
          "type": "address"
        }
      ],
      "name": "OwnershipTransferred",
      "type": "event"
    },
    {
      "anonymous": false,
      "inputs": [
        {
          "indexed": true,
          "internalType": "address",
          "name": "from",
          "type": "address"
        },
        {
          "indexed": true,
          "internalType": "address",
          "name": "to",
          "type": "address"
        },
        {
          "indexed": true,
          "internalType": "uint256",
          "name": "tokenId",
          "type": "uint256"
        }
      ],
      "name": "Transfer",
      "type": "event"
    },
    {
      "inputs": [
        {
          "internalType": "address",
          "name": "to",
          "type": "address"
        },
        {
          "internalType": "uint256",
          "name": "tokenId",
          "type": "uint256"
        }
      ],
      "name": "approve",
      "outputs": [],
      "stateMutability": "nonpayable",
      "type": "function"
    },
    {
      "inputs": [
        {
          "internalType": "address",
          "name": "owner",
          "type": "address"
        }
      ],
      "name": "balanceOf",
      "outputs": [
        {
          "internalType": "uint256",
          "name": "",
          "type": "uint256"
        }
      ],
      "stateMutability": "view",
      "type": "function"
    },
    {
      "inputs": [
        {
          "internalType": "uint256",
          "name": "tokenId",
          "type": "uint256"
        }
      ],
      "name": "getApproved",
      "outputs": [
        {
          "internalType": "address",
          "name": "",
          "type": "address"
        }
      ],
      "stateMutability": "view",
      "type": "function"
    },
    {
      "inputs": [
        {
          "internalType": "address",
          "name": "owner",
          "type": "address"
        },
        {
          "internalType": "address",
          "name": "operator",
          "type": "address"
        }
      ],
      "name": "isApprovedForAll",
      "outputs": [
        {
          "internalType": "bool",
          "name": "",
          "type": "bool"
        }
      ],
      "stateMutability": "view",
      "type": "function"
    },
    {
      "inputs": [
        {
          "internalType": "address",
          "name": "to",
          "type": "address"
        }
      ],
      "name": "mint",
      "outputs": [
        {
          "internalType": "uint256",
          "name": "",
          "type": "uint256"
        }
      ],
      "stateMutability": "nonpayable",
      "type": "function"
    },
    {
      "inputs": [],
      "name": "name",
      "outputs": [
        {
          "internalType": "string",
          "name": "",
          "type": "string"
        }
      ],
      "stateMutability": "view",
      "type": "function"
    },
    {
      "inputs": [],
      "name": "nextTokenId",
      "outputs": [
        {
          "internalType": "uint256",
          "name": "",
          "type": "uint256"
        }
      ],
      "stateMutability": "view",
      "type": "function"
    },
    {
      "inputs": [],
      "name": "owner",
      "outputs": [
        {
          "internalType": "address",
          "name": "",
          "type": "address"
        }
      ],
      "stateMutability": "view",
      "type": "function"
    },
    {
      "inputs": [
        {
          "internalType": "uint256",
          "name": "tokenId",
          "type": "uint256"
        }
      ],
      "name": "ownerOf",
      "outputs": [
        {
          "internalType": "address",
          "name": "",
          "type": "address"
        }
      ],
      "stateMutability": "view",
      "type": "function"
    },
    {
      "inputs": [],
      "name": "renounceOwnership",
      "outputs": [],
      "stateMutability": "nonpayable",
      "type": "function"
    },
    {
      "inputs": [
        {
          "internalType": "address",
          "name": "from",
          "type": "address"
        },
        {
          "internalType": "address",
          "name": "to",
          "type": "address"
        },
        {
          "internalType": "uint256",
          "name": "tokenId",
          "type": "uint256"
        }
      ],
      "name": "safeTransferFrom",
      "outputs": [],
      "stateMutability": "nonpayable",
      "type": "function"
    },
    {
      "inputs": [
        {
          "internalType": "address",
          "name": "from",
          "type": "address"
        },
        {
          "internalType": "address",
          "name": "to",
          "type": "address"
        },
        {
          "internalType": "uint256",
          "name": "tokenId",
          "type": "uint256"
        },
        {
          "internalType": "bytes",
          "name": "data",
          "type": "bytes"
        }
      ],
      "name": "safeTransferFrom",
      "outputs": [],
      "stateMutability": "nonpayable",
      "type": "function"
    },
    {
      "inputs": [
        {
          "internalType": "address",
          "name": "operator",
          "type": "address"
        },
        {
          "internalType": "bool",
          "name": "approved",
          "type": "bool"
        }
      ],
      "name": "setApprovalForAll",
      "outputs": [],
      "stateMutability": "nonpayable",
      "type": "function"
    },
    {
      "inputs": [
        {
          "internalType": "bytes4",
          "name": "interfaceId",
          "type": "bytes4"
        }
      ],
      "name": "supportsInterface",
      "outputs": [
        {
          "internalType": "bool",
          "name": "",
          "type": "bool"
        }
      ],
      "stateMutability": "view",
      "type": "function"
    },
    {
      "inputs": [],
      "name": "symbol",
      "outputs": [
        {
          "internalType": "string",
          "name": "",
          "type": "string"
        }
      ],
      "stateMutability": "view",
      "type": "function"
    },
    {
      "inputs": [
        {
          "internalType": "uint256",
          "name": "tokenId",
          "type": "uint256"
        }
      ],
      "name": "tokenURI",
      "outputs": [
        {
          "internalType": "string",
          "name": "",
          "type": "string"
        }
      ],
      "stateMutability": "view",
      "type": "function"
    },
    {
      "inputs": [
        {
          "internalType": "address",
          "name": "from",
          "type": "address"
        },
        {
          "internalType": "address",
          "name": "to",
          "type": "address"
        },
        {
          "internalType": "uint256",
          "name": "tokenId",
          "type": "uint256"
        }
      ],
      "name": "transferFrom",
      "outputs": [],
      "stateMutability": "nonpayable",
      "type": "function"
    },
    {
      "inputs": [
        {
          "internalType": "address",
          "name": "newOwner",
          "type": "address"
        }
      ],
      "name": "transferOwnership",
      "outputs": [],
      "stateMutability": "nonpayable",
      "type": "function"
    }
  ],
  "bytecode": "0x608034620003975760406001600160401b038282018181118482101762000381578252600883526020926710d3d35417d3919560c21b8482015282519183830183811082821117620003815784526004928381526310d3919560e21b868201528251908282116200036c576000968754926001958685811c9516801562000361575b838610146200034e578190601f95868111620002fb575b50839086831160011462000297578b926200028b575b5050600019600383901b1c191690861b1788555b8151938411620002785784548581811c911680156200026d575b828210146200025a57908184869594931162000203575b50809284116001146200019b575087926200018f575b5050600019600383901b1c191690821b1790555b33156200017a575060068054336001600160a01b03198216811790925591519290916001600160a01b0316907f8be0079c531659141344cd1fd0a4f28419497f9722a3daafe3b4186f6b6457e09080a3610f2b90816200039d8239f35b826024925191631e4fbdf760e01b8352820152fd5b01519050388062000109565b9190859450601f198416858a52838a20938a905b828210620001e95750508411620001cf575b505050811b0190556200011d565b015160001960f88460031b161c19169055388080620001c1565b8484015186558897909501949384019390810190620001af565b90919293508589528189208480870160051c82019284881062000250575b9187968992969594930160051c01915b82811062000241575050620000f3565b8b815587965088910162000231565b9250819262000221565b634e487b7160e01b895260228752602489fd5b90607f1690620000dc565b634e487b7160e01b885260418652602488fd5b015190503880620000ae565b8b8052848c208994509190601f1984168d5b87828210620002e45750508411620002ca575b505050811b018855620000c2565b015160001960f88460031b161c19169055388080620002bc565b8385015186558c97909501949384019301620002a9565b9091508a8052838b208680850160051c82019286861062000344575b918a91869594930160051c01915b8281106200033557505062000098565b8d81558594508a910162000325565b9250819262000317565b634e487b7160e01b8a526022885260248afd5b94607f169462000081565b604185634e487b7160e01b6000525260246000fd5b634e487b7160e01b600052604160045260246000fd5b600080fdfe6080604081815260048036101561001557600080fd5b600092833560e01c90816301ffc9a714610a295750806306fdde031461095e578063081812fc14610923578063095ea7b31461084757806323b872dd1461082f57806342842e0e146108005780636352211e146107cf5780636a6278421461056857806370a0823114610513578063715018a6146104b657806375794a3c146104975780638da5cb5b1461046e57806395d89b4114610355578063a22cb465146102b4578063b88d4fde14610220578063c87b56dd146101cd578063e985e9c51461017b5763f2fde38b146100e957600080fd5b3461017757602036600319011261017757610102610ad5565b9061010b610bab565b6001600160a01b03918216928315610161575050600654826bffffffffffffffffffffffff60a01b821617600655167f8be0079c531659141344cd1fd0a4f28419497f9722a3daafe3b4186f6b6457e08380a380f35b51631e4fbdf760e01b8152908101849052602490fd5b8280fd5b5050346101c957806003193601126101c95760ff8160209361019b610ad5565b6101a3610af0565b6001600160a01b0391821683526005875283832091168252855220549151911615158152f35b5080fd5b509190346101c95760203660031901126101c9576101ee61021c9335610d76565b508181516101fb81610b3b565b5280519161020883610b3b565b825251918291602083526020830190610a95565b0390f35b5090346101775760803660031901126101775761023b610ad5565b610243610af0565b60443591856064359567ffffffffffffffff87116101c957366023880112156101c9578601359561027f61027688610b8f565b96519687610b6d565b86865236602488830101116101c957866102b19760246020930183890137860101526102ac838383610bd7565b610db1565b80f35b5090346101775780600319360112610177576102ce610ad5565b9060243591821515809303610351576001600160a01b031692831561033c5750338452600560205280842083855260205280842060ff1981541660ff8416179055519081527f17307eab39ab6107e8899845ad3d59bd9653f200f220920489ca2b5937696c3160203392a380f35b836024925191630b61174360e31b8352820152fd5b8480fd5b50913461046b578060031936011261046b578151918160019283549384811c91818616958615610461575b602096878510811461044e578899509688969785829a5291826000146104275750506001146103cc575b50505061021c92916103bd910385610b6d565b51928284938452830190610a95565b91908693508083527fb10e2d527612073b26eecdfd717e6a320cf44b4afac2b0732d9fcbe2b7fa0cf65b82841061040f57505050820101816103bd61021c6103aa565b8054848a0186015288955087949093019281016103f6565b60ff19168782015293151560051b860190930193508492506103bd915061021c90506103aa565b634e487b7160e01b835260228a52602483fd5b92607f1692610380565b80fd5b5050346101c957816003193601126101c95760065490516001600160a01b039091168152602090f35b5050346101c957816003193601126101c9576020906007549051908152f35b833461046b578060031936011261046b576104cf610bab565b600680546001600160a01b0319811690915581906001600160a01b03167f8be0079c531659141344cd1fd0a4f28419497f9722a3daafe3b4186f6b6457e08280a380f35b50913461046b57602036600319011261046b576001600160a01b03610536610ad5565b169283156105535750806020938392526003845220549051908152f35b91516322718ad960e21b815291820152602490fd5b509190346101c9576020928360031936011261017757610586610ad5565b9261058f610bab565b60075493835161059e81610b3b565b8281526001600160a01b03828116929083156107b85787855260028952868520541687848215159283610785575b81885260038c528988208054600101905582885260028c5289882080546001600160a01b031916831790557fddf252ad1be2c89b69c2b068fc378daa952ba7f163c4a11628f55a4df523b3ef8880a461076d573b610655575b505060075491600019831461064257505060010160075551908152f35b634e487b7160e01b825260119052602490fd5b84939591945187818061068f630a85bd0160e11b95868352338c840152886024840152876044840152608060648401526084830190610a95565b0381878a5af184918161072d575b506106fb575050503d6000146106f3573d6106b781610b8f565b906106c484519283610b6d565b81528091863d92013e5b805194856106ed57505051633250574960e11b81529182015260249150fd5b85925001fd5b5060606106ce565b91959394916001600160e01b0319160361071757503880610625565b90506024925191633250574960e11b8352820152fd5b9091508881813d8311610766575b6107458183610b6d565b8101031261035157516001600160e01b03198116810361035157903861069d565b503d61073b565b505092516339e3563760e11b81529182015260249150fd5b600083815260046020526040902080546001600160a01b031916905580885260038c5289882080546000190190556105cc565b8651633250574960e11b8152808701869052602490fd5b50913461046b57602036600319011261046b57506107ef60209235610d76565b90516001600160a01b039091168152f35b5050346101c9576102b19061081436610b06565b9192519261082184610b3b565b8584526102ac838383610bd7565b833461046b576102b161084136610b06565b91610bd7565b509034610177578060031936011261017757610861610ad5565b9160243561086e81610d76565b33151580610910575b806108e7575b6108d1576001600160a01b039485169482918691167f8c5be1e5ebec7d5bd14f71427d1e84f3dd0314c0f7b2291e5b200ac8c7c3b9258880a48452602052822080546001600160a01b031916909117905580f35b835163a9fbf51f60e01b81523381850152602490fd5b506001600160a01b03811686526005602090815284872033885290528386205460ff161561087d565b506001600160a01b038116331415610877565b50346101775760203660031901126101775791826020933561094481610d76565b50825283528190205490516001600160a01b039091168152f35b50913461046b578060031936011261046b5781519181825492600184811c91818616958615610a1f575b602096878510811461044e578899509688969785829a5291826000146104275750506001146109c45750505061021c92916103bd910385610b6d565b91908693508280527f290decd9548b62a8d60345a988386fc84ba6bc95484008f6362f93160ef3e5635b828410610a0757505050820101816103bd61021c6103aa565b8054848a0186015288955087949093019281016109ee565b92607f1692610988565b92505034610177576020366003190112610177573563ffffffff60e01b811680910361017757602092506380ac58cd60e01b8114908115610a84575b8115610a73575b5015158152f35b6301ffc9a760e01b14905038610a6c565b635b5e139f60e01b81149150610a65565b919082519283825260005b848110610ac1575050826000602080949584010152601f8019910116010190565b602081830181015184830182015201610aa0565b600435906001600160a01b0382168203610aeb57565b600080fd5b602435906001600160a01b0382168203610aeb57565b6060906003190112610aeb576001600160a01b03906004358281168103610aeb57916024359081168103610aeb579060443590565b6020810190811067ffffffffffffffff821117610b5757604052565b634e487b7160e01b600052604160045260246000fd5b90601f8019910116810190811067ffffffffffffffff821117610b5757604052565b67ffffffffffffffff8111610b5757601f01601f191660200190565b6006546001600160a01b03163303610bbf57565b60405163118cdaa760e01b8152336004820152602490fd5b6001600160a01b039182169290918315610d5d57600092828452826020956002875260409684888820541696879133151580610cc7575b509060027fddf252ad1be2c89b69c2b068fc378daa952ba7f163c4a11628f55a4df523b3ef9284610c94575b858352600381528b8320805460010190558683525289812080546001600160a01b0319168517905580a41692838303610c735750505050565b6064945051926364283d7b60e01b8452600484015260248301526044820152fd5b600087815260046020526040902080546001600160a01b0319169055848352600381528b83208054600019019055610c3a565b91939450915080610d1c575b15610ce357859291879138610c0e565b878688610d00576024915190637e27328960e01b82526004820152fd5b604491519063177e802f60e01b82523360048301526024820152fd5b503387148015610d41575b80610cd35750858252600481523385898420541614610cd3565b5086825260058152878220338352815260ff8883205416610d27565b604051633250574960e11b815260006004820152602490fd5b6000818152600260205260409020546001600160a01b0316908115610d99575090565b60249060405190637e27328960e01b82526004820152fd5b813b610dbe575b50505050565b604051630a85bd0160e11b8082523360048301526001600160a01b03928316602483015260448201949094526080606482015260209592909116939092908390610e0c906084830190610a95565b039285816000958187895af1849181610eb5575b50610e80575050503d600014610e78573d610e3a81610b8f565b90610e486040519283610b6d565b81528091843d92013e5b80519283610e7357604051633250574960e11b815260048101849052602490fd5b019050fd5b506060610e52565b919450915063ffffffff60e01b1603610e9d575038808080610db8565b60249060405190633250574960e11b82526004820152fd5b9091508681813d8311610eee575b610ecd8183610b6d565b8101031261035157516001600160e01b031981168103610351579038610e20565b503d610ec356fea2646970667358221220f18b500def1133f16016858af07de42e416c6c9d579cabf3327af7b07c2a0e8f64736f6c63430008140033",
  "linkReferences": {},
  "deployedLinkReferences": {}
}