{
  "contractName": "ComputationMarket",
  "abi": [
    {
      "inputs": [
        {
          "internalType": "address",
          "name": "compTokenAddress",
          "type": "address"
        }
      ],
      "stateMutability": "nonpayable",
      "type": "constructor"
    },
    {
      "anonymous": false,
      "inputs": [
        {
          "indexed": true,
          "internalType": "uint256",
          "name": "requestId",
          "type": "uint256"
        },
        {
          "indexed": false,
          "internalType": "uint256",
          "name": "startTime",
          "type": "uint256"
        },
        {
          "indexed": false,
          "internalType": "uint256",
          "name": "endTime",
          "type": "uint256"
        },
        {
          "indexed": false,
          "internalType": "uint256",
          "name": "layerComputeIndex",
          "type": "uint256"
        }
      ],
      "name": "CommitmentPhaseStarted",
      "type": "event"
    },
    {
      "anonymous": false,
      "inputs": [
        {
          "indexed": true,
          "internalType": "uint256",
          "name": "requestId",
          "type": "uint256"
        },
        {
          "indexed": true,
          "internalType": "address",
          "name": "verifier",
          "type": "address"
        }
      ],
      "name": "CommitmentSubmitted",
      "type": "event"
    },
    {
      "anonymous": false,
      "inputs": [
        {
          "indexed": true,
          "internalType": "uint256",
          "name": "requestId",
          "type": "uint256"
        },
        {
          "indexed": false,
          "internalType": "uint256",
          "name": "layerComputeIndex",
          "type": "uint256"
        }
      ],
      "name": "NoMajorityForRound",
      "type": "event"
    },
    {
      "anonymous": false,
      "inputs": [
        {
          "indexed": true,
          "internalType": "uint256",
          "name": "requestId",
          "type": "uint256"
        }
      ],
      "name": "ProviderResultSuccessfullyVerified",
      "type": "event"
    },
    {
      "anonymous": false,
      "inputs": [
        {
          "indexed": true,
          "internalType": "uint256",
          "name": "requestId",
          "type": "uint256"
        }
      ],
      "name": "ProviderResultUnsuccessful",
      "type": "event"
    },
    {
      "anonymous": false,
      "inputs": [
        {
          "indexed": true,
          "internalType": "uint256",
          "name": "requestId",
          "type": "uint256"
        },
        {
          "indexed": false,
          "internalType": "bytes32",
          "name": "privateKey",
          "type": "bytes32"
        },
        {
          "indexed": false,
          "internalType": "bytes32",
          "name": "answerHash",
          "type": "bytes32"
        }
      ],
      "name": "ProviderRevealed",
      "type": "event"
    },
    {
      "anonymous": false,
      "inputs": [
        {
          "indexed": true,
          "internalType": "uint256",
          "name": "requestId",
          "type": "uint256"
        },
        {
          "indexed": true,
          "internalType": "address",
          "name": "provider",
          "type": "address"
        }
      ],
      "name": "ProviderSelected",
      "type": "event"
    },
    {
      "anonymous": false,
      "inputs": [
        {
          "indexed": true,
          "internalType": "uint256",
          "name": "requestId",
          "type": "uint256"
        },
        {
          "indexed": true,
          "internalType": "address",
          "name": "provider",
          "type": "address"
        }
      ],
      "name": "ProviderSlashed",
      "type": "event"
    },
    {
      "anonymous": false,
      "inputs": [
        {
          "indexed": true,
          "internalType": "uint256",
          "name": "requestId",
          "type": "uint256"
        },
        {
          "indexed": true,
          "internalType": "address",
          "name": "provider",
          "type": "address"
        }
      ],
      "name": "RequestCompleted",
      "type": "event"
    },
    {
      "anonymous": false,
      "inputs": [
        {
          "indexed": true,
          "internalType": "uint256",
          "name": "requestId",
          "type": "uint256"
        },
        {
          "indexed": true,
          "internalType": "address",
          "name": "consumer",
          "type": "address"
        }
      ],
      "name": "RequestCreated",
      "type": "event"
    },
    {
      "anonymous": false,
      "inputs": [
        {
          "indexed": true,
          "internalType": "uint256",
          "name": "requestId",
          "type": "uint256"
        },
        {
          "indexed": false,
          "internalType": "uint256",
          "name": "endTime",
          "type": "uint256"
        },
        {
          "indexed": true,
          "internalType": "address",
          "name": "verifier",
          "type": "address"
        }
      ],
      "name": "RevealVerificationDetails",
      "type": "event"
    },
    {
      "anonymous": false,
      "inputs": [
        {
          "indexed": true,
          "internalType": "uint256",
          "name": "requestId",
          "type": "uint256"
        }
      ],
      "name": "RoundInitialised",
      "type": "event"
    },
    {
      "anonymous": false,
      "inputs": [
        {
          "indexed": true,
          "internalType": "uint256",
          "name": "requestId",
          "type": "uint256"
        }
      ],
      "name": "RoundRevealStarted",
      "type": "event"
    },
    {
      "anonymous": false,
      "inputs": [
        {
          "indexed": true,
          "internalType": "uint256",
          "name": "requestId",
          "type": "uint256"
        },
        {
          "indexed": false,
          "internalType": "uint256",
          "name": "layerComputeIndex",
          "type": "uint256"
        }
      ],
      "name": "RoundStartedForVerificationSelection",
      "type": "event"
    },
    {
      "anonymous": false,
      "inputs": [
        {
          "indexed": true,
          "internalType": "uint256",
          "name": "requestId",
          "type": "uint256"
        },
        {
          "indexed": true,
          "internalType": "address",
          "name": "verifier",
          "type": "address"
        }
      ],
      "name": "VerificationApplied",
      "type": "event"
    },
    {
      "anonymous": false,
      "inputs": [
        {
          "indexed": true,
          "internalType": "uint256",
          "name": "requestId",
          "type": "uint256"
        },
        {
          "indexed": true,
          "internalType": "address",
          "name": "verifier",
          "type": "address"
        }
      ],
      "name": "VerifierChosen",
      "type": "event"
    },
    {
      "anonymous": false,
      "inputs": [
        {
          "indexed": true,
          "internalType": "uint256",
          "name": "requestId",
          "type": "uint256"
        },
        {
          "indexed": true,
          "internalType": "address",
          "name": "verifier",
          "type": "address"
        },
        {
          "indexed": false,
          "internalType": "bool",
          "name": "agree",
          "type": "bool"
        }
      ],
      "name": "VoteSubmitted",
      "type": "event"
    },
    {
      "anonymous": false,
      "inputs": [
        {
          "indexed": true,
          "internalType": "uint256",
          "name": "requestId",
          "type": "uint256"
        }
      ],
      "name": "requestCancelled",
      "type": "event"
    },
    {
      "inputs": [],
      "name": "MIN_VERIFIERS",
      "outputs": [
        {
          "internalType": "uint256",
          "name": "",
          "type": "uint256"
        }
      ],
      "stateMutability": "view",
      "type": "function"
    },
    {
      "inputs": [],
      "name": "PROVIDER_STAKE_PERCENTAGE",
      "outputs": [
        {
          "internalType": "uint256",
          "name": "",
          "type": "uint256"
        }
      ],
      "stateMutability": "view",
      "type": "function"
    },
    {
      "inputs": [],
      "name": "compToken",
      "outputs": [
        {
          "internalType": "contract IERC20",
          "name": "",
          "type": "address"
        }
      ],
      "stateMutability": "view",
      "type": "function"
    },
    {
      "inputs": [],
      "name": "requestCount",
      "outputs": [
        {
          "internalType": "uint256",
          "name": "",
          "type": "uint256"
        }
      ],
      "stateMutability": "view",
      "type": "function"
    },
    {
      "inputs": [
        {
          "internalType": "uint256",
          "name": "",
          "type": "uint256"
        }
      ],
      "name": "requests",
      "outputs": [
        {
          "internalType": "address",
          "name": "consumer",
          "type": "address"
        },
        {
          "internalType": "uint256",
          "name": "paymentForProvider",
          "type": "uint256"
        },
        {
          "internalType": "uint256",
          "name": "paymentForVerifiers",
          "type": "uint256"
        },
        {
          "internalType": "uint256",
          "name": "numOperations",
          "type": "uint256"
        },
        {
          "internalType": "uint256",
          "name": "numVerifiers",
          "type": "uint256"
        },
        {
          "internalType": "string",
          "name": "operationFileURL",
          "type": "string"
        },
        {
          "internalType": "uint256",
          "name": "computationDeadline",
          "type": "uint256"
        },
        {
          "internalType": "uint256",
          "name": "verificationDeadline",
          "type": "uint256"
        },
        {
          "internalType": "uint256",
          "name": "totalPayment",
          "type": "uint256"
        },
        {
          "internalType": "bool",
          "name": "completed",
          "type": "bool"
        },
        {
          "internalType": "bool",
          "name": "hasBeenComputed",
          "type": "bool"
        },
        {
          "internalType": "uint256",
          "name": "numVerifiersSampleSize",
          "type": "uint256"
        },
        {
          "internalType": "address",
          "name": "mainProvider",
          "type": "address"
        },
        {
          "internalType": "uint256",
          "name": "timeAllocatedForVerification",
          "type": "uint256"
        },
        {
          "internalType": "uint256",
          "name": "layers",
          "type": "uint256"
        },
        {
          "internalType": "uint256",
          "name": "layerComputeIndex",
          "type": "uint256"
        },
        {
          "internalType": "uint256",
          "name": "verificationStartTime",
          "type": "uint256"
        },
        {
          "internalType": "uint256",
          "name": "commitEndTime",
          "type": "uint256"
        },
        {
          "internalType": "uint256",
          "name": "commitmentRevealEndTime",
          "type": "uint256"
        },
        {
          "internalType": "uint256",
          "name": "providerRevealEndTime",
          "type": "uint256"
        },
        {
          "internalType": "uint256",
          "name": "roundIndex",
          "type": "uint256"
        },
        {
          "internalType": "bytes32",
          "name": "mainProviderAnswerHash",
          "type": "bytes32"
        },
        {
          "internalType": "enum ComputationMarket.RequestStates",
          "name": "state",
          "type": "uint8"
        },
        {
          "internalType": "uint256",
          "name": "stake",
          "type": "uint256"
        }
      ],
      "stateMutability": "view",
      "type": "function"
    },
    {
      "inputs": [
        {
          "internalType": "uint256",
          "name": "",
          "type": "uint256"
        },
        {
          "internalType": "address",
          "name": "",
          "type": "address"
        }
      ],
      "name": "verifications",
      "outputs": [
        {
          "internalType": "address",
          "name": "verifier",
          "type": "address"
        },
        {
          "internalType": "bool",
          "name": "agree",
          "type": "bool"
        },
        {
          "internalType": "bytes32",
          "name": "answer",
          "type": "bytes32"
        },
        {
          "internalType": "bytes32",
          "name": "nonce",
          "type": "bytes32"
        },
        {
          "internalType": "bool",
          "name": "revealed",
          "type": "bool"
        },
        {
          "internalType": "bytes32",
          "name": "computedHash",
          "type": "bytes32"
        }
      ],
      "stateMutability": "view",
      "type": "function"
    },
    {
      "inputs": [
        {
          "internalType": "uint256",
          "name": "paymentForProvider",
          "type": "uint256"
        },
        {
          "internalType": "uint256",
          "name": "paymentForVerifiers",
          "type": "uint256"
        },
        {
          "internalType": "uint256",
          "name": "numOperations",
          "type": "uint256"
        },
        {
          "internalType": "uint256",
          "name": "numVerifiers",
          "type": "uint256"
        },
        {
          "internalType": "string[]",
          "name": "inputFileURLs",
          "type": "string[]"
        },
        {
          "internalType": "string",
          "name": "operationFileURL",
          "type": "string"
        },
        {
          "internalType": "uint256",
          "name": "computationDeadline",
          "type": "uint256"
        },
        {
          "internalType": "uint256",
          "name": "verificationDeadline",
          "type": "uint256"
        },
        {
          "internalType": "uint256",
          "name": "timeAllocatedForVerification",
          "type": "uint256"
        }
      ],
      "name": "createRequest",
      "outputs": [],
      "stateMutability": "nonpayable",
      "type": "function"
    },
    {
      "inputs": [
        {
          "internalType": "uint256",
          "name": "requestId",
          "type": "uint256"
        }
      ],
      "name": "getRequestDetails",
      "outputs": [
        {
          "components": [
            {
              "internalType": "address",
              "name": "consumer",
              "type": "address"
            },
            {
              "internalType": "uint256",
              "name": "paymentForProvider",
              "type": "uint256"
            },
            {
              "internalType": "uint256",
              "name": "paymentForVerifiers",
              "type": "uint256"
            },
            {
              "internalType": "uint256",
              "name": "numOperations",
              "type": "uint256"
            },
            {
              "internalType": "uint256",
              "name": "numVerifiers",
              "type": "uint256"
            },
            {
              "internalType": "string[]",
              "name": "inputFileURLs",
              "type": "string[]"
            },
            {
              "internalType": "string",
              "name": "operationFileURL",
              "type": "string"
            },
            {
              "internalType": "string[]",
              "name": "outputFileURLs",
              "type": "string[]"
            },
            {
              "internalType": "uint256",
              "name": "computationDeadline",
              "type": "uint256"
            },
            {
              "internalType": "uint256",
              "name": "verificationDeadline",
              "type": "uint256"
            },
            {
              "internalType": "uint256",
              "name": "totalPayment",
              "type": "uint256"
            },
            {
              "internalType": "bool",
              "name": "completed",
              "type": "bool"
            },
            {
              "internalType": "bool",
              "name": "hasBeenComputed",
              "type": "bool"
            },
            {
              "internalType": "uint256",
              "name": "numVerifiersSampleSize",
              "type": "uint256"
            },
            {
              "internalType": "address[]",
              "name": "verifiers",
              "type": "address[]"
            },
            {
              "internalType": "address[]",
              "name": "chosenVerifiers",
              "type": "address[]"
            },
            {
              "internalType": "address",
              "name": "mainProvider",
              "type": "address"
            },
            {
              "internalType": "uint256",
              "name": "timeAllocatedForVerification",
              "type": "uint256"
            },
            {
              "internalType": "uint256",
              "name": "layers",
              "type": "uint256"
            },
            {
              "internalType": "uint256",
              "name": "layerComputeIndex",
              "type": "uint256"
            },
            {
              "internalType": "uint256",
              "name": "verificationStartTime",
              "type": "uint256"
            },
            {
              "internalType": "uint256",
              "name": "commitEndTime",
              "type": "uint256"
            },
            {
              "internalType": "uint256",
              "name": "commitmentRevealEndTime",
              "type": "uint256"
            },
            {
              "internalType": "uint256",
              "name": "providerRevealEndTime",
              "type": "uint256"
            },
            {
              "internalType": "uint256",
              "name": "roundIndex",
              "type": "uint256"
            },
            {
              "internalType": "bytes32",
              "name": "mainProviderAnswerHash",
              "type": "bytes32"
            },
            {
              "internalType": "enum ComputationMarket.RequestStates",
              "name": "state",
              "type": "uint8"
            },
            {
              "internalType": "uint256",
              "name": "stake",
              "type": "uint256"
            }
          ],
          "internalType": "struct ComputationMarket.Request",
          "name": "",
          "type": "tuple"
        }
      ],
      "stateMutability": "view",
      "type": "function"
    },
    {
      "inputs": [
        {
          "internalType": "uint256",
          "name": "requestId",
          "type": "uint256"
        }
      ],
      "name": "cancelRequest",
      "outputs": [],
      "stateMutability": "nonpayable",
      "type": "function"
    },
    {
      "inputs": [
        {
          "internalType": "uint256",
          "name": "requestId",
          "type": "uint256"
        }
      ],
      "name": "selectRequest",
      "outputs": [],
      "stateMutability": "nonpayable",
      "type": "function"
    },
    {
      "inputs": [
        {
          "internalType": "uint256",
          "name": "requestId",
          "type": "uint256"
        },
        {
          "internalType": "string[]",
          "name": "outputFileURLs",
          "type": "string[]"
        }
      ],
      "name": "completeRequest",
      "outputs": [],
      "stateMutability": "nonpayable",
      "type": "function"
    },
    {
      "inputs": [
        {
          "internalType": "uint256",
          "name": "requestId",
          "type": "uint256"
        }
      ],
      "name": "applyForVerificationForRequest",
      "outputs": [],
      "stateMutability": "nonpayable",
      "type": "function"
    },
    {
      "inputs": [
        {
          "internalType": "uint256",
          "name": "requestId",
          "type": "uint256"
        }
      ],
      "name": "verificationDeadlinePassedForVeryfying",
      "outputs": [],
      "stateMutability": "nonpayable",
      "type": "function"
    },
    {
      "inputs": [
        {
          "internalType": "uint256",
          "name": "requestId",
          "type": "uint256"
        },
        {
          "internalType": "bytes32",
          "name": "computedHash",
          "type": "bytes32"
        }
      ],
      "name": "submitCommitment",
      "outputs": [],
      "stateMutability": "nonpayable",
      "type": "function"
    },
    {
      "inputs": [
        {
          "internalType": "uint256",
          "name": "requestId",
          "type": "uint256"
        },
        {
          "internalType": "bytes32",
          "name": "privateKey",
          "type": "bytes32"
        },
        {
          "internalType": "bytes32",
          "name": "answerHash",
          "type": "bytes32"
        }
      ],
      "name": "revealProviderKeyAndHash",
      "outputs": [],
      "stateMutability": "nonpayable",
      "type": "function"
    },
    {
      "inputs": [
        {
          "internalType": "uint256",
          "name": "requestId",
          "type": "uint256"
        },
        {
          "internalType": "bool",
          "name": "agree",
          "type": "bool"
        },
        {
          "internalType": "bytes32",
          "name": "answer",
          "type": "bytes32"
        },
        {
          "internalType": "bytes32",
          "name": "nonce",
          "type": "bytes32"
        }
      ],
      "name": "revealCommitment",
      "outputs": [],
      "stateMutability": "nonpayable",
      "type": "function"
    },
    {
      "inputs": [
        {
          "internalType": "uint256",
          "name": "requestId",
          "type": "uint256"
        }
      ],
      "name": "calculateMajorityAndReward",
      "outputs": [],
      "stateMutability": "nonpayable",
      "type": "function"
    }
  ],
  "bytecode": "0x608034620000c557601f6200372d38819003918201601f19168301916001600160401b03831184841017620000c957808492602094604052833981010312620000c557516001600160a01b03811690819003620000c557801562000080575f80546001600160a01b03191691909117905560405161364f9081620000de8239f35b60405162461bcd60e51b815260206004820152601560248201527f496e76616c696420746f6b656e206164647265737300000000000000000000006044820152606490fd5b5f80fd5b634e487b7160e01b5f52604160045260245ffdfe610200806040526004361015610013575f80fd5b5f3560e01c90816304ae469b14611d0b575080630625f16114611a3c5780633015394c14611a205780634da0d1391461199657806353e2ba171461197b5780635badbe4c1461195e5780635e16a9d8146119435780636605dfa71461191c5780636d8f9a0e1461190057806381d12c58146116d2578063bfdb3451146114ae578063daf2a65a14611490578063e03ad0d11461134a578063e20fb7a1146111c6578063e6a3d9dc146110fb578063f34d4c6314610cd05763f6803f5f146100d8575f80fd5b34610b4557610120366003190112610b455760246084356001600160401b038111610b455761010b903690600401612438565b60a4356001600160401b038111610b455761012a9036906004016123e3565b610137833560043561266b565b906103e7604435018060443511610b5c57600360643510610c8c576001806064351603610c48575f80546040516323b872dd60e01b8152336004820152306024820152604481018690529160209183916064918391906001600160a01b03165af1908115610c3d575f91610c0e575b5015610bd9574260c4351115610b6f5761010435600361010435020460031461010435151715610b5c576003610104356103e8830402026103e88204810460036101043502146103e88304151715610b49576102049060c43561266b565b60e4351115610b4557849361021a6001546126b8565b93846001556040519161022c83612390565b5f835261023b60c4354261266b565b9161024860e4354261266b565b9060643560011c91600183018311610b32576040519461026786612390565b5f86526040519661027788612390565b5f8852600435600a6004350204600a14600435151715610b1f576103e89960019660a06040519e8f906102a982612359565b338252600435602083015235604082015260443560608201526064356080820152015260c08d015260e08c01526101008b01526101208a01526101408901525f6101608901525f610180890152016101a08701526101c08601526101e08501525f61020085015261010435610220850152046102408301525f6102608301525f6102808301525f6102a08301525f6102c08301525f6102e08301525f6103008301525f6103208301525f6103408301526064600a60043502046103608301525f52600260205260405f209060018060a01b038151166bffffffffffffffffffffffff60a01b8354161782556020810151600183015560408101516002830155606081015160038301556080810151600483015560a0810151805190600160401b8211610b0c576005840154826005860155808310610a97575b50602001600584015f5260205f205f915b838310610973575050505060c08101519283516001600160401b03811161095f5761042160068501546124b7565b601f811161092c575b506020601f82116001146108c157819061045c939495965f92610788575b50508160011b915f199060031b1c19161790565b60068401555b60e0820151805190600160401b82116106ce57600785015482600787015580831061084d575b50602001600785015f5260205f205f915b83831061071c575050505061010082015160088401556101208201516009840155610140820151600a840155600b83016101608301511515815460ff61ff00610180870151151560081b1692169061ffff1916171790556101a0820151600c8401556101c08201518051906001600160401b0382116106ce57600160401b82116106ce57602090600d86015483600d8801558084106106fe575b5001600d85015f5260205f205f5b8381106106e157505050506101e08201518051906001600160401b0382116106ce57600160401b82116106ce57602090600e86015483600e8801558084106106b0575b5001600e85015f5260205f205f5b8381106106935750505050610200820151600f840180546001600160a01b0319166001600160a01b039290921691909117905561022082015160108401556102408201516011840155610260820151601284015561028082015160138401556102a082015160148401556102c082015160158401556102e08201516016840155610300820151601784015561032082015160188401556103408201516019840191600982101561068057509161036091601a9360ff801983541691161790550151910155336001547f233bb55fd57b21b8a3d15c9ad8fbbab435fe4cf2865cc654f6a57d9d4d8cda545f80a3005b634e487b7160e01b5f9081526021600452fd5b82516001600160a01b031681830155602090920191600101610592565b6106c890600e88015f5284845f2091820191016126c6565b5f610584565b82634e487b7160e01b5f5260416004525ffd5b82516001600160a01b031681830155602090920191600101610541565b61071690600d88015f5284845f2091820191016126c6565b5f610533565b80518051906001600160401b03821161083a5761073984546124b7565b601f81116107ff575b50602090601f83116001146107935792610779836001959460209487965f926107885750508160011b915f199060031b1c19161790565b85555b01920192019190610499565b015190505f80610448565b90845f5260205f20915f5b601f19851681106107e7575083602093600196938796938794601f198116106107cf575b505050811b01855561077c565b01515f1960f88460031b161c191690555f80806107c2565b9192602060018192868501518155019401920161079e565b61082a90855f5260205f20601f850160051c81019160208610610830575b601f0160051c01906126c6565b5f610742565b909150819061081d565b86634e487b7160e01b5f5260416004525ffd5b600786015f5260205f20908382015b818301811061086c575050610488565b80610879600192546124b7565b80610886575b500161085c565b601f8111831461089b57505f81555b5f61087f565b5f908282526108b8601f60208420920160051c82018583016126c6565b81835555610895565b600685015f5260205f20905f5b601f1984168110610914575060019394959683601f198116106108fc575b505050811b016006840155610462565b01515f1960f88460031b161c191690555f80806108ec565b9091602060018192858b0151815501930191016108ce565b61095990600686015f5260205f20601f840160051c8101916020851061083057601f0160051c01906126c6565b5f61042a565b50634e487b7160e01b5f9081526041600452fd5b80518051906001600160401b038211610a845761099084546124b7565b90601f91828111610a4c575b5060209183116001146109e057926109d1836001959460209487965f926107885750508160011b915f199060031b1c19161790565b85555b019201920191906103f3565b90845f5260205f20915f5b601f1985168110610a34575083602093600196938796938794601f19811610610a1c575b505050811b0185556109d4565b01515f1960f88460031b161c191690555f8080610a0f565b919260206001819286850151815501940192016109eb565b610a7590865f5260205f208480870160051c82019260208810610a7b575b0160051c01906126c6565b5f61099c565b92508192610a6a565b88634e487b7160e01b5f5260416004525ffd5b600585015f5260205f20908382015b8183018110610ab65750506103e2565b80610ac3600192546124b7565b80610ad0575b5001610aa6565b601f908181118414610ae85750505f81555b5f610ac9565b610b035f9284845260208420920160051c82018583016126c6565b81835555610ae2565b84634e487b7160e01b5f5260416004525ffd5b8b634e487b7160e01b5f5260116004525ffd5b89634e487b7160e01b5f5260116004525ffd5b5f80fd5b85634e487b7160e01b5f5260116004525ffd5b84634e487b7160e01b5f5260116004525ffd5b60405162461bcd60e51b815260206004820152603c818701527f436f6d7075746174696f6e616c20646561646c696e65206d757374206265206760448201527f726561746572207468616e207468652063757272656e742074696d65000000006064820152608490fd5b60405162461bcd60e51b815260206004820152600e818701526d14185e5b595b9d0819985a5b195960921b6044820152606490fd5b610c30915060203d602011610c36575b610c2881836123ab565b8101906126a0565b5f6101a6565b503d610c1e565b6040513d5f823e3d90fd5b60405162461bcd60e51b815260206004820152601f818701527f4e756d626572206f6620766572696669657273206d757374206265206f6464006044820152606490fd5b60405162461bcd60e51b815260206004820152601d818701527f4174206c656173742033207665726966696572732072657175697265640000006044820152606490fd5b34610b45576020366003190112610b45575f610360604051610cf181612359565b828152826020820152826040820152826060820152826080820152606060a0820152606060c0820152606060e08201528261010082015282610120820152826101408201528261016082015282610180820152826101a082015260606101c082015260606101e08201528261020082015282610220820152826102408201528261026082015282610280820152826102a0820152826102c0820152826102e082015282610300820152826103208201528261034082015201526004355f52600260205260405f2060405190610dc582612359565b80546001600160a01b0316825260018101546020830152600281015460408301526003810154606083015260048101546080830152610e06600582016126dc565b60a0830152610e17600682016124ef565b60c0830152610e28600782016126dc565b60e083015260088101546101008301526009810154610120830152600a81015461014083015260ff600b820154818116151561016085015260081c161515610180830152600c8101546101a0830152610e83600d8201612730565b6101c0830152610e95600e8201612730565b6101e0830152600f8101546001600160a01b0316610200830152601081015461022083015260118101546102408301526012810154610260830152601381015461028083015260148101546102a083015260158101546102c083015260168101546102e083015260178101546103008301526018810154610320830152601981015460ff169060098210156110e757601a91610340840152015461036082015260405180916020825260018060a01b038151166020830152602081015160408301526040810151606083015260608101516080830152608081015160a0830152610360611048611030610fcc610fb5610f9f60a087015161038060c08a01526103a08901906125db565b60c0870151888203601f190160e08a0152612590565b60e0860151878203601f19016101008901526125db565b610100850151610120870152610120850151610140870152610140850151610160870152610160850151151561018087015261018085015115156101a08701526101a08501516101c08701526101c0850151601f19878303016101e088015261262f565b6101e0840151858203601f190161020087015261262f565b9160018060a01b03610200820151166102208501526102208101516102408501526102408101516102608501526102608101516102808501526102808101516102a08501526102a08101516102c08501526102c08101516102e08501526102e08101516103008501526103008101516103208501526103208101516103408501526110db610340820151838601906125ce565b01516103808301520390f35b634e487b7160e01b5f52602160045260245ffd5b34610b45576040366003190112610b4557600435805f526002602052601460405f20015442116111885761113761113233836134d4565b613488565b805f52600360205260405f20335f52602052600360405f2060243560048201550160ff19815416905533907f22d30f6da93667100b64d15e5ea70afec217caeab1008706f57bfa4deed12c635f80a3005b60405162461bcd60e51b815260206004820152601660248201527510dbdb5b5a5d1b595b9d081c1a185cd948195b99195960521b6044820152606490fd5b34610b45576060366003190112610b45576004355f818152600260205260409020600f81015460443591906001600160a01b031633036112ea5760148101544211156112a5576016810154421161126057816019827f4b8ecdcde49a7d4d879a4bf5a6cc37c7086e65774f161d4bf99c01aaa1882f89946018604095015501600460ff1982541617905581519060243582526020820152a2005b60405162461bcd60e51b815260206004820152601b60248201527f50726f76696465722072657665616c20706861736520656e64656400000000006044820152606490fd5b60405162461bcd60e51b815260206004820152601a60248201527f436f6d6d69746d656e74207068617365206e6f7420656e6465640000000000006044820152606490fd5b60405162461bcd60e51b815260206004820152603260248201527f4f6e6c7920746865206d61696e2070726f76696465722063616e2072657665616044820152710d840e8d0ca40d6caf240c2dcc840d0c2e6d60731b6064820152608490fd5b34610b4557602080600319360112610b4557600435805f526002825260405f2061137a60088201544211156129e6565b600f810180546001600160a01b0390811661144b575f8054601a8501546040516323b872dd60e01b8152336004820152306024820152604481019190915295969283928792606492849291165af18015610c3d576019946113e3925f9261142e575b5050612a32565b336bffffffffffffffffffffffff60a01b82541617905501600160ff1982541617905533907f3c84569ae9be7c8e6e8edf0c0cbeb7e00cf9cb4d9b67849728be8ab96e09bec15f80a3005b6114449250803d10610c3657610c2881836123ab565b86806113dc565b60405162461bcd60e51b815260048101869052601960248201527f50726f766964657220616c72656164792073656c6563746564000000000000006044820152606490fd5b34610b45576020366003190112610b45576114ac60043561322e565b005b34610b45576080366003190112610b455760043560243590811515809203610b455760443591606435825f526020936002855260405f2091601683015442111561168d57601583015442116116535761150a61113233876134d4565b845f526003865260405f20335f52865260405f20600381019283549560ff871661160e57604051898101908282528360408201528560608201523360808201526080815261155781612375565b5190206004840154036115d157825460ff60a01b191660a09190911b60ff60a01b1617825560018083019190915560029091019190915560ff199384161790556019018054909116600517905560405142815233927fb59f6416758d4763386b2c83d12c7c643131c90beff0caea486f303510702ce391a3005b60405162461bcd60e51b8152600481018a90526015602482015274496e76616c69642072657665616c2076616c75657360581b6044820152606490fd5b60405162461bcd60e51b8152600481018a9052601b60248201527f436f6d6d69746d656e7420616c72656164792072657665616c656400000000006044820152606490fd5b60405162461bcd60e51b815260048101879052601260248201527114995d99585b081c1a185cd948195b99195960721b6044820152606490fd5b60405162461bcd60e51b815260048101879052601f60248201527f50726f76696465722072657665616c207068617365206e6f7420656e646564006044820152606490fd5b34610b45576020366003190112610b45576004355f52600260205260405f206101e05260018060a01b036101e051541660016101e051015460026101e05101546101405260036101e05101546101605260046101e05101546101a05261173d60066101e051016124ef565b9160086101e05101546101205260096101e051015492600a6101e0510154600b6101e0510154600c6101e051015460018060a01b03600f6101e0510154169060ff60106101e05101549360116101e05101549561183d60126101e05101549860136101e05101549a60146101e05101549c60156101e051015460805260166101e051015460a05260176101e051015460e05260186101e05101546101c0528660196101e05101541661018052601a6101e05101546101005260405160c0526103009160c05152602060c051015261014051604060c051015261016051606060c05101526101a051608060c05101528060a060c051015260c0510190612590565b9a6101205160c08051015260e060c051015261010060c0510152818116151561012060c051015260081c16151561014060c051015261016060c051015261018060c05101526101a060c05101526101c060c05101526101e060c051015261020060c051015261022060c051015260805161024060c051015260a05161026060c051015260e05161028060c05101526101c0516102a060c05101526118ea6102c060c05101610180516125ce565b610100516102e060c051015260c051900360c051f35b34610b45576020366003190112610b45576114ac600435612bd6565b34610b45575f366003190112610b45575f546040516001600160a01b039091168152602090f35b34610b45575f366003190112610b45576020604051600a8152f35b34610b45575f366003190112610b45576020600154604051908152f35b34610b45575f366003190112610b4557602060405160038152f35b34610b45576040366003190112610b45576024356001600160a01b0381811691829003610b455760c0916004355f52600360205260405f20905f5260205260405f20805490600181015460028201549060ff60048160038601541694015494604051968116875260a01c1615156020860152604085015260608401521515608083015260a0820152f35b34610b45576020366003190112610b45576114ac600435612785565b34610b45576040366003190112610b455760246004356001600160401b038235818111610b4557611a71903690600401612438565b90825f526020906002825260405f20611a9060088201544211156129e6565b600f8101546001600160a01b03163303611cb55780600b6007920161010061ff00198254161790550190835193600160401b851161083a5783908354868555808710611c3f575b505f938452848420939791015b858810611b1a576114ac8733817f1d961eb7779cdf87f83b3c5ca1e5a7b0b7832f5fc1f9b813fea6787daf0e884c5f80a3612a73565b8051805190848211611c2c5790869291611b3487546124b7565b90601f91828111611bf6575b5084918311600114611b8c578260019593869593611b72935f92611b815750508160011b915f199060031b1c19161790565b87555b01940197019692611ae4565b015190508e80610448565b90601f94939419831691885f52845f20925f5b818110611bde5750916001969391858897969410611bc6575b505050831b83018755611b75565b01515f1960f88460031b161c191690558c8080611bb8565b8284015185558b966001909501949384019301611b9f565b611c1d90895f52865f20600585808801821c8301938a8910611c23575b01901c01906126c6565b8c611b40565b93508293611c13565b83634e487b7160e01b5f5260416004525ffd5b845f5286835f2091820191015b818110611c595750611ad7565b600191929350611c6981546124b7565b80611c7a575b500190859291611c4c565b601f908181118414611c925750505f81555b8a611c6f565b611cac5f928484528a8420920160051c82018583016126c6565b81835555611c8c565b60405162461bcd60e51b8152600481018490526029818801527f4f6e6c792063686f73656e2070726f76696465722063616e20636f6d706c657460448201526819481c995c5d595cdd60ba1b6064820152608490fd5b34610b45576020366003190112610b45576004355f52600260205260405f2060158101544210610b455760ff918260198301541660098110156110e7576005036122fa5750600c810190600e8101905f8080805b8654811015611f29576004355f5260038060205260405f20611d818389612b6c565b60018060a01b03915490841b1c165f526020528860405f209182015416611db2575b50611dad906126b8565b611d5f565b600181949294015489825460a01c1660405191602083015215156040820152604081528060608101106001600160401b03606083011117611f15576060810160405260208151910120906004355f52600460205260405f20825f52602052611e6860405f2091601789019283545f5260205260405f20611e3281546126b8565b90556004355f52600560205260405f20845f5260205260405f2083545f5260205260405f209060018060a01b0390541690612b95565b6004355f52600460205260405f20825f5260205260405f20905490815f526020528560405f2054145f14611ea657505050611dad6001925b90611da3565b6004949294355f52600460205260405f20825f5260205260405f20815f526020528560405f205411611ede575b5050611dad90611ea0565b9350935090505f916004355f52600460205260405f20845f5260205260405f20905f52602052611dad60405f205493919089611ed3565b634e487b7160e01b5f52604160045260245ffd5b506017840191825460019384820180921161215157551561207357506004355f52600260205260405f20905f9080600e8401600285016011860194600c8701935b611fb2575b505050505050601201546040519081527fea43ae306415066aa09d5402571eb6506530e7a6011f5d797c85825dd9a6ef54602060043592a26114ac600435612a73565b825481101561206e575f546001600160a01b039081169190602090611fd78387612b6c565b9490545f611ff4611fec8d8a54905490612678565b8b5490612678565b9661202f6040519889968795869463a9059cbb60e01b865260031b1c166004840160209093929193604081019460018060a01b031681520152565b03925af1918215610c3d576120499261204f575b506126b8565b84611f6a565b6120679060203d602011610c3657610c2881836123ab565b5088612043565b611f6f565b6004355f52600260205260405f20600560205260405f20825f5260205260405f2060178201545f5260205260405f208360028301546120d96120ce60118601546120c86120c08286612678565b875490612678565b93612678565b600c86015490612678565b925f925b612247575b505050506018015414906004355f52600260205260405f209060128201926121126011855494019384541161343c565b156121655750815490545f198101919082116121515710156121455761213881546126b8565b90556114ac600435612a73565b506114ac60043561352c565b634e487b7160e01b5f52601160045260245ffd5b9150506004355f5260026020526121d160405f20602060018060a01b03805f5416908354169061219d86850154601a8601549061266b565b60405163a9059cbb60e01b81526001600160a01b0390931660048401526024830152909384919082905f9082906044820190565b03925af1908115610c3d57600792601992612228575b50600b810160ff19948582541617905501918254161790556004357f6d55d799468c2d702d8ff65d462b4e8dbbc88c728431aee69b205a3964362f075f80a2005b6122409060203d602011610c3657610c2881836123ab565b50846121e7565b80548310156122f5575f546001600160a01b03908116939060209061226c8385612b6c565b9690545f61227a8a8961266b565b986122b56040519a8b968795869463a9059cbb60e01b865260031b1c166004840160209093929193604081019460018060a01b031681520152565b03925af1908115610c3d5788946122d0926122d657506126b8565b926120dd565b6122ee9060203d602011610c3657610c2881836123ab565b5089612043565b6120e2565b62461bcd60e51b815260206004820152603460248201527f52657175657374206e6f7420696e20636f727265637420737461746520666f726044820152732063616c63756c6174696e67207265776172647360601b6064820152608490fd5b61038081019081106001600160401b03821117611f1557604052565b60a081019081106001600160401b03821117611f1557604052565b602081019081106001600160401b03821117611f1557604052565b90601f801991011681019081106001600160401b03821117611f1557604052565b6001600160401b038111611f155760051b60200190565b81601f82011215610b45578035906001600160401b038211611f155760405192612417601f8401601f1916602001856123ab565b82845260208383010111610b4557815f926020809301838601378301015290565b81601f82011215610b4557803591602091612452846123cc565b9361246060405195866123ab565b808552838086019160051b83010192808411610b4557848301915b84831061248b5750505050505090565b82356001600160401b038111610b455786916124ac848480948901016123e3565b81520192019161247b565b90600182811c921680156124e5575b60208310146124d157565b634e487b7160e01b5f52602260045260245ffd5b91607f16916124c6565b9060405191825f8254612501816124b7565b9081845260209460019182811690815f1461256e5750600114612530575b50505061252e925003836123ab565b565b5f90815285812095935091905b81831061255657505061252e93508201015f808061251f565b8554888401850152948501948794509183019161253d565b9250505061252e94925060ff191682840152151560051b8201015f808061251f565b91908251928382525f5b8481106125ba575050825f602080949584010152601f8019910116010190565b60208183018101518483018201520161259a565b9060098210156110e75752565b90815180825260208092019182818360051b82019501935f915b8483106126055750505050505090565b909192939495848061261f83856001950387528a51612590565b98019301930191949392906125f5565b9081518082526020808093019301915f5b82811061264e575050505090565b83516001600160a01b031685529381019392810192600101612640565b9190820180921161215157565b8115612682570490565b634e487b7160e01b5f52601260045260245ffd5b8115612682570690565b90816020910312610b4557518015158103610b455790565b5f1981146121515760010190565b8181106126d1575050565b5f81556001016126c6565b9081546126e8816123cc565b926126f660405194856123ab565b8184525f90815260208082208186015b848410612714575050505050565b6001838192612722856124ef565b815201920193019290612706565b906040519182815491828252602092838301915f52835f20935f905b8282106127625750505061252e925003836123ab565b85546001600160a01b03168452600195860195889550938101939091019061274c565b5f81815260026020908152604080832080546001600160a01b03908116939192903385900361299657600b84019460ff86541661295257839082600f87015416156129185750506008840154421180612909575b156128af579082612831926127f7600a870154601a8801549061266b565b90808954169087541689855180978195829463a9059cbb60e01b84526004840160209093929193604081019460018060a01b031681520152565b03925af19081156128a65750926008926019927f1523a7600668f21efd095a2e4b78dc32da863f11b5b54ed0043034aeefd6442c979695612888575b505060ff1993600185825416179055019182541617905580a2565b8161289e92903d10610c3657610c2881836123ab565b505f8061286d565b513d87823e3d90fd5b815162461bcd60e51b815260048101849052602d60248201527f436f6d7075746174696f6e20646561646c696e6520686173206e6f742079657460448201526c081899595b881c995858da1959609a1b6064820152608490fd5b5060ff855460081c16156127d9565b8754600a870154855163a9059cbb60e01b81526001600160a01b039093166004840152602483015290939284911681898160448101612831565b825162461bcd60e51b815260048101859052601960248201527f5265717565737420616c726561647920636f6d706c65746564000000000000006044820152606490fd5b815162461bcd60e51b8152600481018490526024808201527f4f6e6c792074686520636f6e73756d65722063616e2077697468647261772066604482015263756e647360e01b6064820152608490fd5b156129ed57565b60405162461bcd60e51b815260206004820152601b60248201527f436f6d7075746174696f6e20646561646c696e652070617373656400000000006044820152606490fd5b15612a3957565b60405162461bcd60e51b8152602060048201526012602482015271496e73756666696369656e74207374616b6560701b6044820152606490fd5b5f818152600260205260408120600f8101546001600160a01b031615612b68578160126020927f7cdb7f0bd04877caf5dda7a202130926cdd67ad312dada203661ff6d8806843494604051612ac781612390565b52600d8101805484825580612b50575b50835282604051612ae781612390565b52600e8101805484825580612b38575b50835260198101600260ff19825416179055857f2d4e685f9af8cf88fb3e3447f1ee8e4e5e68423a2c393dc8d6e9784aa67ddafa6040519480a201548152a2565b818552858520612b4a918101906126c6565b5f612af7565b818552858520612b62918101906126c6565b5f612ad7565b5080fd5b8054821015612b81575f5260205f2001905f90565b634e487b7160e01b5f52603260045260245ffd5b90815491600160401b831015611f155782612bb891600161252e95018155612b6c565b90919060018060a01b038084549260031b9316831b921b1916179055565b90815f52600260205260405f209160ff600b84015460081c161561319c57600f8301546001600160a01b0316331461313b57600d8301928354906004810191825411156130fd575f6020612c7e60018060a01b03835416612c4e612c436002870154601188015490612678565b600c87015490612678565b6040516323b872dd60e01b8152336004820152306024820152604481019190915293849283919082906064820190565b03925af18015610c3d57612c99915f916130de575b50612a32565b612ca333846133c7565b61309957601060098201549101548060030290600382040361215157612cc9904261266b565b1061308d57612cd83385612b95565b6040519333837f660dbb250d8df8b80242049410e015bda88628ca9994256731c0c9e879fbed7f5f80a354905414612d0f57509050565b805f52600260205260405f209260ff600b85015460081c16156130415750600d830154600c840154612d40816123cc565b91612d4e60405193846123ab565b818352601f19612d5d836123cc565b013660208501375f5b828110612ff0575050505f5b600c850154811015612f2657612da0612d8b8284613428565b51612d9a83600d8901546131e1565b90612696565b90612dae82600d8801612b6c565b905460039190911b1c6001600160a01b031691612dce83600e8901612b95565b612ddc82600d8901546131e1565b90815f1981011161215157612bb8612dfd612e19935f1901600d8b01612b6c565b905460039190911b1c6001600160a01b031691600d8a01612b6c565b60018060a01b035f541691612e3282600d8901546131e1565b805f1981011161215157612eb793612e526020925f1901600d8b01612b6c565b60018060a01b0391549060031b1c1690612e83612e7860028c015460118d015490612678565b600c8c015490612678565b60405163a9059cbb60e01b81526001600160a01b0390931660048401526024830152909485919082905f9082906044820190565b03925af1928315610c3d57612f0293612f07575b50612ed8600d88016131ee565b847fe74b92fa3513e730f6b115620841d966b7cd25a13c613ebe544861f2a01731605f80a36126b8565b612d72565b612f1f9060203d602011610c3657610c2881836123ab565b505f612ecb565b5050909150805f52600260205260405f20601281015491612f4c6011830154841061343c565b60098201546010830154908160030260038104830361215157612f6f904261266b565b1015610b455760607f27e90e135bb91bf6706a23381e6d0d480f8bb7d002d6e9a197b432b7b654245f91601995426013870155612fcb612faf834261266b565b92836014890155612fc0818561266b565b8060168a015561266b565b60158701556040519142835260208301526040820152a201805460ff19166003179055565b61303c9061302c8360405160208101904282524460408201523360601b606082015260748581830152815261302481612375565b519020612696565b6130368287613428565b526126b8565b612d66565b62461bcd60e51b815260206004820152602160248201527f5265717565737420686173206e6f74206265656e20636f6d70757465642079656044820152601d60fa1b6064820152608490fd5b5061252e91925061322e565b60405162461bcd60e51b815260206004820152601860248201527f566572696669657220616c7265616479206170706c69656400000000000000006044820152606490fd5b6130f7915060203d602011610c3657610c2881836123ab565b5f612c93565b60405162461bcd60e51b815260206004820152601660248201527515995c9a599a595c881b1a5b5a5d081c995858da195960521b6044820152606490fd5b60405162461bcd60e51b815260206004820152603360248201527f546865206d61696e2070726f76696465722063616e6e6f74206170706c79207460448201527237903132b1b7b6b29030903b32b934b334b2b960691b6064820152608490fd5b60405162461bcd60e51b815260206004820152601860248201527f52657175657374206e6f742079657420636f6d707574656400000000000000006044820152606490fd5b9190820391821161215157565b8054801561321a575f1901906132048282612b6c565b81549060018060a01b039060031b1b1916905555565b634e487b7160e01b5f52603160045260245ffd5b5f91818352602090600282526040908185209360098501549160108601549260039380850290858204036133b357613266904261266b565b111561339b5760ff601987015416600981101561339f5760020361339b57948690600d81019360028201936011600c8185019401945b875480821015613385575f198101908111613371578a8a898f8c906132f96132f18b6132e46132ce61332b9a87612b6c565b9260018060a01b0393849254911b1c16956131ee565b83541694548d5490612678565b8d5490612678565b935163a9059cbb60e01b81526001600160a01b0390921660048301526024820193909352938492839182906044820190565b03925af180156133675790613345929161334a57506126b8565b61329c565b613360908c8d3d10610c3657610c2881836123ab565b505f612043565b8a513d8f823e3d90fd5b634e487b7160e01b8d52600483905260248dfd5b505050965050505050505061252e91925061352c565b8680fd5b634e487b7160e01b88526021600452602488fd5b634e487b7160e01b89526011600452602489fd5b5f52600260205260405f2090600d5f92018054925b8381106133eb57505050505f90565b6133f58183612b6c565b905460039190911b1c6001600160a01b039081169084161461341f5761341a906126b8565b6133dc565b50505050600190565b8051821015612b815760209160051b010190565b1561344357565b60405162461bcd60e51b815260206004820152601e60248201527f416c6c206c61796572732068617665206265656e2070726f63657373656400006044820152606490fd5b1561348f57565b60405162461bcd60e51b815260206004820152601d60248201527f596f7520617265206e6f7420612063686f73656e2076657269666965720000006044820152606490fd5b5f52600260205260405f2090600e5f92018054925b8381106134f857505050505f90565b6135028183612b6c565b905460039190911b1c6001600160a01b039081169084161461341f57613527906126b8565b6134e9565b5f818152600260205260408120600b81019060ff19916001838254161790556135aa602060018060a01b038086541690600f8501541690613576601a860154600a8701549061266b565b60405163a9059cbb60e01b81526001600160a01b039093166004840152602483015290928391908290889082906044820190565b03925af1801561360e577f953601eba1acf6d4769af39f3986a5be6acd796655930c93832c2f239fbccabf9493926006926019926135f0575b50019182541617905580a2565b6136079060203d8111610c3657610c2881836123ab565b505f6135e3565b6040513d86823e3d90fdfea2646970667358221220f1a5208cd37ad3eaafd62fd4c007d8a66d6d1fd220c0b24af4faa5d100c1053964736f6c63430008150033",
  "immutableReferences": {},
  "source": "// SPDX-License-Identifier: MIT\npragma solidity ^0.8.0;\n\nimport \"@openzeppelin/contracts/token/ERC20/IERC20.sol\";\n\ncontract ComputationMarket {\n    IERC20 public compToken; // The ERC20 token used for payments\n\n    // The different states a request can be in\n    enum RequestStates {NO_PROVIDER_SELECTED, PROVIDER_SELECTED_NOT_COMPUTED,\n        CHOOSING_VERIFIERS, COMMITMENT_STATE, PROVIDER_REVEAL_STATE, \n        COMMITMENT_REVEAL_STATE, SUCCESS, UNSUCCESSFUL, CANCELLED}\n\n    // Structure representing a computation request\n    struct Request {\n        address consumer; // The address of the consumer who created the request\n        uint256 paymentForProvider; // Payment allocated for the provider\n        uint256 paymentForVerifiers; // Total payment allocated for verifiers\n        uint256 numOperations; // Number of operations to be performed\n        uint256 numVerifiers; // Number of verifiers needed\n        string[] inputFileURLs; // URLs of input files\n        string operationFileURL; // URL of the file with operations\n        string[] outputFileURLs; // URL of the output files as provided by the main provider\n        uint256 computationDeadline; // Deadline for the provider to complete computations\n        uint256 verificationDeadline; // Deadline for verifiers to complete verifications\n        uint256 totalPayment; // Total payment provided by the consumer\n        bool completed; // Indicates if the request is completed\n        bool hasBeenComputed; // Indicates if the computation has been completed\n        uint256 numVerifiersSampleSize; // Number of verifiers sampled for each round\n        address[] verifiers; // List of verifiers who applied\n        address[] chosenVerifiers; // List of verifiers chosen for the round\n        address mainProvider; // The provider who accepted the request\n        uint256 timeAllocatedForVerification; // Time allocated for each verification round\n        uint256 layers; // Number of layers of operations\n        uint256 layerComputeIndex; // Current layer being computed\n        uint256 verificationStartTime; // Added to track when verification started\n        uint256 commitEndTime; // Added to track end time for commitment phase\n        uint256 commitmentRevealEndTime; // Added to track end time for reveal phase\n        uint256 providerRevealEndTime; // End time for provider to reveal their private key\n        uint256 roundIndex; // Sum of all rounds that are completed and retried\n        bytes32 mainProviderAnswerHash; // The answer hash of the main provider\n        RequestStates state; // The state of the current request\n        uint256 stake; // Amount staked by the provider\n    }\n\n    // Structure representing a verification\n    struct Verification {\n        address verifier; // Address of the verifier\n        bool agree; // Indicates if the verifier agrees with the provider's results\n        bytes32 answer; // The result provided by the verifier\n        bytes32 nonce; // Nonce used in the commitment\n        bool revealed; // Indicates if the verifier has revealed their commitment\n        bytes32 computedHash; // Hash of the commitment\n    }\n\n    uint256 public requestCount; // Total number of requests created\n    uint256 public constant PROVIDER_STAKE_PERCENTAGE = 10; // Percentage of payment provider needs to stake\n    uint256 public constant MIN_VERIFIERS = 3; // Minimum number of verifiers required\n    \n    // Mapping of request ID to Request struct\n    mapping(uint256 => Request) public requests; \n\n    // Mapping of request ID and verifier address to Verification struct\n    mapping(uint256 => mapping(address => Verification)) public verifications; \n\n    // State variable to store votes for each request and for each round. (requestId, vote, roundNum) => number of votes\n    mapping(uint256 => mapping(bytes32 => mapping(uint256 => uint256))) private votes;\n\n    // State variable to store vote addresses for each request and for each round. (requestId, vote, roundNum) => addresses of those that voted\n    mapping(uint256 => mapping(bytes32 => mapping(uint256 => address[]))) private voteAddresses;\n\n    // Event emitted when a new request is created\n    event RequestCreated(uint256 indexed requestId, address indexed consumer);\n    \n    // Event emitted when a provider is selected for a request\n    event ProviderSelected(uint256 indexed requestId, address indexed provider);\n    \n    // Event emitted when a verifier is chosen\n    event VerifierChosen(uint256 indexed requestId, address indexed verifier);\n\n    // Event emitted when a commitment is submitted\n    event CommitmentSubmitted(uint256 indexed requestId, address indexed verifier);\n    \n    // Event emitted when a result is completely verified\n    event ProviderResultSuccessfullyVerified(uint256 indexed requestId);\n    \n    // Event emitted when the reveal phase of a round starts\n    event RoundRevealStarted(uint256 indexed requestId);\n    \n    // Event emitted when a request is completed by the provider\n    event RequestCompleted(uint256 indexed requestId, address indexed provider);\n    \n    // Event emitted when a verifier applies for verification\n    event VerificationApplied(uint256 indexed requestId, address indexed verifier);\n\n    // Event emitted when the commitment phase starts\n    event CommitmentPhaseStarted(uint256 indexed requestId, uint256 startTime, uint256 endTime, uint256 layerComputeIndex);\n\n    // Event emitted when the reveal phase ends\n    event RevealVerificationDetails(uint256 indexed requestId, uint256 endTime, address indexed verifier);\n\n    // Event emitted when the provider is slashed\n    event ProviderSlashed(uint256 indexed requestId, address indexed provider);\n\n    // Event emitted when the provider reveals their private key and hash\n    event ProviderRevealed(uint256 indexed requestId, bytes32 privateKey, bytes32 answerHash);\n\n    // Event emitted when a verifier submits their agreement or disagreement\n    event VoteSubmitted(uint256 indexed requestId, address indexed verifier, bool agree);\n\n    // Event emmited when their is no clear majority when counting votes\n    event NoMajorityForRound(uint256 indexed requestId, uint256 layerComputeIndex);\n\n    // Event emmited when request is cancelled\n    event requestCancelled(uint256 indexed requestId);\n\n    // Event emmmited when a round is initialised\n    event RoundInitialised(uint256 indexed requestId);\n\n    // Event emitted to let verifiers know they can apply for verification\n    event RoundStartedForVerificationSelection(uint256 indexed requestId, uint256 layerComputeIndex);\n\n    // Event emmited when verifiers disagree with the provider\n    event ProviderResultUnsuccessful(uint256 indexed requestId);\n\n    constructor(address compTokenAddress) {\n        require(compTokenAddress != address(0), \"Invalid token address\");\n        compToken = IERC20(compTokenAddress); // Initialize the COMP token contract address\n    }\n\n    // Function to create a new computation request\n    function createRequest(\n        uint256 paymentForProvider, \n        uint256 paymentForVerifiers, \n        uint256 numOperations, \n        uint256 numVerifiers, \n        string[] memory inputFileURLs, \n        string memory operationFileURL, \n        uint256 computationDeadline, \n        uint256 verificationDeadline, \n        uint256 timeAllocatedForVerification\n    ) external {\n        uint256 totalPayment = paymentForProvider + paymentForVerifiers;\n        uint256 layersSize = (numOperations + 999) / 1000;\n\n        require(numVerifiers >= MIN_VERIFIERS, \"At least 3 verifiers required\");\n        require(numVerifiers % 2 == 1, \"Number of verifiers must be odd\");\n        require(compToken.transferFrom(msg.sender, address(this), totalPayment), \"Payment failed\");\n        require(computationDeadline > block.timestamp, \"Computational deadline must be greater than the current time\");\n        require(verificationDeadline > computationDeadline + layersSize * (timeAllocatedForVerification * 3));\n\n        requestCount++;\n        requests[requestCount] = Request({\n            consumer: msg.sender,\n            paymentForProvider: paymentForProvider,\n            paymentForVerifiers: paymentForVerifiers,\n            numOperations: numOperations,\n            numVerifiers: numVerifiers,\n            inputFileURLs: inputFileURLs,\n            outputFileURLs: new string[](0),\n            operationFileURL: operationFileURL,\n            computationDeadline: block.timestamp + computationDeadline,\n            verificationDeadline: block.timestamp + verificationDeadline,\n            totalPayment: totalPayment,\n            completed: false,\n            hasBeenComputed: false,\n            numVerifiersSampleSize: numVerifiers / 2 + 1,\n            verifiers: new address[](0),\n            chosenVerifiers: new address[](0),\n            mainProvider: address(0),\n            timeAllocatedForVerification: timeAllocatedForVerification,\n            layers: layersSize,\n            layerComputeIndex: 0,\n            verificationStartTime: 0,\n            commitEndTime: 0,\n            commitmentRevealEndTime: 0,\n            providerRevealEndTime: 0,\n            roundIndex: 0,\n            mainProviderAnswerHash: 0,\n            state: RequestStates.NO_PROVIDER_SELECTED,\n            stake: (paymentForProvider * PROVIDER_STAKE_PERCENTAGE) / 100  \n        });\n\n        emit RequestCreated(requestCount, msg.sender);\n    }\n\n    // Function to get request details\n    function getRequestDetails(uint256 requestId) external view returns (Request memory) {\n        return requests[requestId];\n    }\n\n    function getRandomNumbers(uint256 maxLimit, uint256 count) private view returns (uint256[] memory) {\n        uint256[] memory randomNumbers = new uint256[](count);\n        for (uint256 i = 0; i < count; i++) {\n            randomNumbers[i] = uint256(keccak256(abi.encodePacked(block.timestamp, block.prevrandao, msg.sender, i))) % maxLimit;\n        }\n        return randomNumbers;\n    }\n\n    // Function to withdraw funds/cancel request in case of an error or cancellation. \n    // 1. This can only happen before anyone has picked up the request, OR\n    // 2. Request has been picked up, and comptuation deadline has been reached, but not yet computed\n    function cancelRequest(uint256 requestId) external {\n        Request storage request = requests[requestId];\n        require(msg.sender == request.consumer, \"Only the consumer can withdraw funds\");\n        require(!request.completed, \"Request already completed\");\n        if(request.mainProvider == address(0)) {\n            compToken.transfer(request.consumer, request.totalPayment);\n            request.completed = true;\n            request.completed = true;\n            request.state = RequestStates.CANCELLED;\n            emit requestCancelled(requestId);\n            return;\n        }\n        require(request.computationDeadline < block.timestamp && !request.hasBeenComputed, \"Computation deadline has not yet been reached\");\n        uint256 refundAmount = request.totalPayment + request.stake;\n        compToken.transfer(request.consumer, refundAmount);\n        request.completed = true;\n        request.state = RequestStates.CANCELLED;\n        emit requestCancelled(requestId);\n    }\n\n    // Function to select a request by a provider\n    function selectRequest(uint256 requestId) external {\n        Request storage request = requests[requestId];\n        require(block.timestamp <= request.computationDeadline, \"Computation deadline passed\");\n        require(request.mainProvider == address(0), \"Provider already selected\");\n        require(compToken.transferFrom(msg.sender, address(this), request.stake), \"Insufficient stake\");\n\n        request.mainProvider = msg.sender;\n        request.state = RequestStates.PROVIDER_SELECTED_NOT_COMPUTED;\n\n        emit ProviderSelected(requestId, msg.sender);\n    }\n\n    // Function to mark a request as completed by the provider\n    function completeRequest(uint256 requestId, string[] memory outputFileURLs) external {\n        Request storage request = requests[requestId];\n        require(block.timestamp <= request.computationDeadline, \"Computation deadline passed\");\n        require(request.mainProvider == msg.sender, \"Only chosen provider can complete request\");\n        request.hasBeenComputed = true;\n        request.outputFileURLs = outputFileURLs;\n        emit RequestCompleted(requestId, msg.sender);\n        initialiseRound(requestId);\n    }\n\n    // Function to initialise a round, and empty all verifiers/chosen verifier lists \n    function initialiseRound(uint256 requestId) internal {\n        Request storage request = requests[requestId];\n        require(request.mainProvider != address(0));\n        request.verifiers = new address[](0);\n        request.chosenVerifiers = new address[](0);\n        request.state = RequestStates.CHOOSING_VERIFIERS;\n        emit RoundInitialised(requestId);\n        emit RoundStartedForVerificationSelection(requestId, request.layerComputeIndex);\n    }\n\n    // Function for verifiers to apply for verification\n    function applyForVerificationForRequest(uint256 requestId) external {\n        Request storage request = requests[requestId];\n        require(request.hasBeenComputed, \"Request not yet computed\");\n        require(msg.sender != request.mainProvider, \"The main provider cannot apply to become a verifier\");\n        require(request.verifiers.length < request.numVerifiers, \"Verifier limit reached\");\n        require(compToken.transferFrom(msg.sender, address(this), request.paymentForVerifiers / request.layers / request.numVerifiersSampleSize), \"Insufficient stake\");\n        require(!isVerifierApplied(requestId, msg.sender), \"Verifier already applied\");\n\n        if(request.verificationDeadline > block.timestamp + (3 * request.timeAllocatedForVerification)) {\n            verificationDeadlinePassedForVeryfying(requestId);\n            return;\n        }\n\n        request.verifiers.push(msg.sender);\n        emit VerificationApplied(requestId, msg.sender);\n\n        if (request.verifiers.length == request.numVerifiers) {\n            chooseVerifiersForRequest(requestId);\n        }\n    }\n\n    function verificationDeadlinePassedForVeryfying(uint256 requestId) public {\n        Request storage request = requests[requestId];\n        require(request.verificationDeadline < block.timestamp + (3 * request.timeAllocatedForVerification));\n        require(request.state == RequestStates.CHOOSING_VERIFIERS);\n        for(uint i=0; i<request.verifiers.length; i++) {\n            address verifier = request.verifiers[request.verifiers.length - 1];\n            request.verifiers.pop();\n            compToken.transfer(verifier, request.paymentForVerifiers / request.layers / request.numVerifiersSampleSize);\n        }\n        providerSuccess(requestId);\n    }\n\n    // Helper function to check if a verifier has already applied\n    function isVerifierApplied(uint256 requestId, address verifier) internal view returns (bool) {\n        Request storage request = requests[requestId];\n        for (uint256 i = 0; i < request.verifiers.length; i++) {\n            if (request.verifiers[i] == verifier) {\n                return true;\n            }\n        }\n        return false;\n    }\n\n    function chooseVerifiersForRequest(uint256 requestId) internal {\n        Request storage request = requests[requestId];\n        require(request.hasBeenComputed, \"Request has not been computed yet\");\n        uint256[] memory randomNumbers = getRandomNumbers(request.verifiers.length, request.numVerifiersSampleSize);\n        for (uint256 i = 0; i < request.numVerifiersSampleSize; i++) {\n            uint256 randChosen = randomNumbers[i] % (request.verifiers.length - i);\n            address chosenVerifier = request.verifiers[randChosen];\n            request.chosenVerifiers.push(chosenVerifier);\n            request.verifiers[randChosen] = request.verifiers[request.verifiers.length - i - 1];\n            compToken.transfer(request.verifiers[request.verifiers.length - i - 1], request.paymentForVerifiers / request.layers / request.numVerifiersSampleSize);\n            request.verifiers.pop();\n            emit VerifierChosen(requestId, chosenVerifier);\n        }\n        startRound(requestId);\n    }\n\n    // Function to start a round of verification\n    function startRound(uint256 requestId) internal {\n        Request storage request = requests[requestId];\n        require(request.layerComputeIndex < request.layers, \"All layers have been processed\");\n        require(request.verificationDeadline > block.timestamp + (3 * request.timeAllocatedForVerification));\n\n        request.verificationStartTime = block.timestamp;\n        request.commitEndTime = block.timestamp + request.timeAllocatedForVerification;\n        request.providerRevealEndTime = request.commitEndTime + request.timeAllocatedForVerification;\n        request.commitmentRevealEndTime = request.providerRevealEndTime + request.timeAllocatedForVerification;\n\n        emit CommitmentPhaseStarted(requestId, block.timestamp, request.commitEndTime, request.layerComputeIndex);\n        request.state = RequestStates.COMMITMENT_STATE;\n    }\n\n\n    // Function to submit a commitment by a verifier\n    function submitCommitment(\n        uint256 requestId,\n        bytes32 computedHash\n    ) external {\n        Request storage request = requests[requestId];\n        require(block.timestamp <= request.commitEndTime, \"Commitment phase ended\");\n        require(isVerifierChosen(requestId, msg.sender), \"You are not a chosen verifier\");\n\n        Verification storage verification = verifications[requestId][msg.sender];\n        verification.computedHash = computedHash;\n        verification.revealed = false; // we set it to false, since we might come back to this again for a different round\n\n        emit CommitmentSubmitted(requestId, msg.sender);\n    }\n\n    // Helper function to check if a verifier is chosen\n    function isVerifierChosen(uint256 requestId, address verifier) internal view returns (bool) {\n        Request storage request = requests[requestId];\n        for (uint256 i = 0; i < request.chosenVerifiers.length; i++) {\n            if (request.chosenVerifiers[i] == verifier) {\n                return true;\n            }\n        }\n        return false;\n    }\n\n    // Function to reveal the provider's private key and hash of the answer\n    // The answer hash is equal to: keccak256(abi.encode(agree, answer)), where agree is true\n    function revealProviderKeyAndHash(\n        uint256 requestId,\n        bytes32 privateKey,\n        bytes32 answerHash\n    ) external {\n        Request storage request = requests[requestId];\n        require(msg.sender == request.mainProvider, \"Only the main provider can reveal the key and hash\");\n        require(block.timestamp > request.commitEndTime, \"Commitment phase not ended\");\n        require(block.timestamp <= request.providerRevealEndTime, \"Provider reveal phase ended\");\n        request.mainProviderAnswerHash = answerHash;\n\n        request.state = RequestStates.PROVIDER_REVEAL_STATE;\n        emit ProviderRevealed(requestId, privateKey, answerHash);\n    }\n\n    function revealCommitment(\n        uint256 requestId,\n        bool agree,\n        bytes32 answer,\n        bytes32 nonce\n    ) external {\n        Request storage request = requests[requestId];\n        require(block.timestamp > request.providerRevealEndTime, \"Provider reveal phase not ended\");\n        require(block.timestamp <= request.commitmentRevealEndTime, \"Reveal phase ended\");\n        require(isVerifierChosen(requestId, msg.sender), \"You are not a chosen verifier\");\n\n        Verification storage verification = verifications[requestId][msg.sender];\n        require(!verification.revealed, \"Commitment already revealed\");\n        require(keccak256(abi.encode(agree, answer, nonce, msg.sender)) == verification.computedHash, \"Invalid reveal values\");\n\n        verification.agree = agree;\n        verification.answer = answer;\n        verification.nonce = nonce;\n        verification.revealed = true;\n\n        request.state = RequestStates.COMMITMENT_REVEAL_STATE;\n        emit RevealVerificationDetails(requestId, block.timestamp, msg.sender);\n    }\n\n    // Function to calculate the majority vote and distribute rewards\n    function calculateMajorityAndReward(uint256 requestId) public {\n        Request storage request = requests[requestId];\n\n        require(block.timestamp >= request.commitmentRevealEndTime);\n        require(request.state == RequestStates.COMMITMENT_REVEAL_STATE, \"Request not in correct state for calculating rewards\");\n\n        bytes32 majorityVoteHash = bytes32(0);\n        uint256 majorityCount = 0;\n        bool noMajority = false;\n\n        for (uint256 i = 0; i < request.numVerifiersSampleSize; i++) {\n            Verification storage verification = verifications[requestId][request.chosenVerifiers[i]];\n            if (verification.revealed) {\n                bytes32 voteHash = keccak256(abi.encode(verification.answer, verification.agree));\n                votes[requestId][voteHash][request.roundIndex]++;\n                voteAddresses[requestId][voteHash][request.roundIndex].push(verification.verifier);\n                if (votes[requestId][voteHash][request.roundIndex] == majorityCount) {\n                    noMajority = true;\n                } else if (votes[requestId][voteHash][request.roundIndex] > majorityCount) {\n                    noMajority = false;\n                    majorityCount = votes[requestId][voteHash][request.roundIndex];\n                    majorityVoteHash = voteHash;\n                }\n            }\n        }\n        \n        request.roundIndex += 1;\n        if (noMajority) {\n            handleNoMajority(requestId);\n        } else {\n            bool success = distributeRewardsAndPenalties(requestId, majorityVoteHash);\n            finalizeVerification(requestId, success);\n        }\n    }\n\n    // Function to handle the case when a majority cannot be determined\n    function handleNoMajority(uint256 requestId) internal {\n        Request storage request = requests[requestId];\n        for (uint256 i = 0; i < request.chosenVerifiers.length; i++) {\n            compToken.transfer(request.chosenVerifiers[i], request.paymentForVerifiers / request.layers / request.numVerifiersSampleSize);\n        }\n        emit NoMajorityForRound(requestId, request.layerComputeIndex);\n        initialiseRound(requestId);\n    }\n\n\n    // Function to distribute rewards and penalties after the majority calculation\n    // Verifiers are only paid if there is a majority\n    function distributeRewardsAndPenalties(uint256 requestId, bytes32 majorityVoteHash) internal returns(bool) {\n        Request storage request = requests[requestId];\n        address[] storage majorityVoters = voteAddresses[requestId][majorityVoteHash][request.roundIndex];\n        uint256 reward = request.paymentForVerifiers / request.layers / majorityVoters.length;\n        uint256 penalty = request.paymentForVerifiers / request.layers / request.numVerifiersSampleSize;\n\n        for (uint256 i = 0; i < majorityVoters.length; i++) {\n            compToken.transfer(majorityVoters[i], reward + penalty);\n        }\n        return majorityVoteHash == request.mainProviderAnswerHash;\n    }\n\n    // Function to finalize the verification and compute the next layer\n    function finalizeVerification(uint256 requestId, bool success) internal {\n        Request storage request = requests[requestId];\n        require(request.layerComputeIndex < request.layers, \"All layers have been processed\");\n\n        if (success) {\n          if (request.layerComputeIndex < request.layers - 1) {\n            request.layerComputeIndex++;\n            initialiseRound(requestId);\n          } else {\n            providerSuccess(requestId);\n          }\n        } else {\n            providerFailure(requestId);\n        }\n    }\n\n    function providerSuccess(uint256 requestId) internal {\n        Request storage request = requests[requestId];\n        request.completed = true;\n        compToken.transfer(request.mainProvider, request.stake + request.totalPayment);\n        request.state = RequestStates.SUCCESS;\n        emit ProviderResultSuccessfullyVerified(requestId);\n    }\n\n    function providerFailure(uint256 requestId) internal {\n        Request storage request = requests[requestId];\n        // Consumer gets to take the stake of the provider, if the provider did an incorrect calculation\n        compToken.transfer(request.consumer, request.paymentForProvider + request.stake);\n        request.completed = true;\n        request.state = RequestStates.UNSUCCESSFUL;\n        emit ProviderResultUnsuccessful(requestId);\n    }\n\n}\n",
  "sourcePath": "/Users/aamirsoni/CompSwap/contracts/ComputationMarket.sol",
  "compiler": {
    "name": "solc",
    "version": "0.8.21+commit.d9974bed.Emscripten.clang"
  },
  "schemaVersion": "3.4.16",
  "updatedAt": "2024-07-05T19:13:42.846Z",
  "devdoc": {
    "kind": "dev",
    "methods": {},
    "version": 1
  },
  "userdoc": {
    "kind": "user",
    "methods": {},
    "version": 1
  }
}